{
  "abi": [
    {
      "constant": true,
      "inputs": [],
      "name": "getOwnerAddress",
      "outputs": [
        {
          "name": "",
          "type": "address"
        }
      ],
      "payable": false,
      "stateMutability": "view",
      "type": "function"
    },
    {
      "constant": true,
      "inputs": [
        {
          "name": "insNum",
          "type": "int256"
        }
      ],
      "name": "getInsuranceAddress",
      "outputs": [
        {
          "name": "",
          "type": "address"
        }
      ],
      "payable": false,
      "stateMutability": "view",
      "type": "function"
    },
    {
      "constant": true,
      "inputs": [
        {
          "name": "aadhar",
          "type": "int256"
        }
      ],
      "name": "getInsuranceNumberCount",
      "outputs": [
        {
          "name": "",
          "type": "int256"
        }
      ],
      "payable": false,
      "stateMutability": "view",
      "type": "function"
    },
    {
      "constant": false,
      "inputs": [
        {
          "name": "insNum",
          "type": "int256"
        },
        {
          "name": "insurance",
          "type": "address"
        },
        {
          "name": "aadhar",
          "type": "int256"
        },
        {
          "name": "count",
          "type": "int256"
        }
      ],
      "name": "setInsuranceAddress",
      "outputs": [],
      "payable": false,
      "stateMutability": "nonpayable",
      "type": "function"
    },
    {
      "constant": false,
      "inputs": [
        {
          "name": "aadhar",
          "type": "int256"
        },
        {
          "name": "patient",
          "type": "address"
        }
      ],
      "name": "setRecordAddress",
      "outputs": [],
      "payable": false,
      "stateMutability": "nonpayable",
      "type": "function"
    },
    {
      "constant": false,
      "inputs": [
        {
          "name": "pass",
          "type": "string"
        }
      ],
      "name": "createOwner",
      "outputs": [],
      "payable": false,
      "stateMutability": "nonpayable",
      "type": "function"
    },
    {
      "constant": true,
      "inputs": [
        {
          "name": "aadhar",
          "type": "int256"
        }
      ],
      "name": "getRecordAddress",
      "outputs": [
        {
          "name": "",
          "type": "address"
        }
      ],
      "payable": false,
      "stateMutability": "view",
      "type": "function"
    }
  ],
  "devdoc": {
    "methods": {}
  },
  "evm": {
    "assembly": "    /* \"background.sol\":10444:11757  contract AddressMapping {\r... */\n  mstore(0x40, 0x80)\n  callvalue\n    /* \"--CODEGEN--\":8:17   */\n  dup1\n    /* \"--CODEGEN--\":5:7   */\n  iszero\n  tag_1\n  jumpi\n    /* \"--CODEGEN--\":30:31   */\n  0x00\n    /* \"--CODEGEN--\":27:28   */\n  dup1\n    /* \"--CODEGEN--\":20:32   */\n  revert\n    /* \"--CODEGEN--\":5:7   */\ntag_1:\n    /* \"background.sol\":10444:11757  contract AddressMapping {\r... */\n  pop\n  dataSize(sub_0)\n  dup1\n  dataOffset(sub_0)\n  0x00\n  codecopy\n  0x00\n  return\nstop\n\nsub_0: assembly {\n        /* \"background.sol\":10444:11757  contract AddressMapping {\r... */\n      mstore(0x40, 0x80)\n      callvalue\n        /* \"--CODEGEN--\":8:17   */\n      dup1\n        /* \"--CODEGEN--\":5:7   */\n      iszero\n      tag_1\n      jumpi\n        /* \"--CODEGEN--\":30:31   */\n      0x00\n        /* \"--CODEGEN--\":27:28   */\n      dup1\n        /* \"--CODEGEN--\":20:32   */\n      revert\n        /* \"--CODEGEN--\":5:7   */\n    tag_1:\n        /* \"background.sol\":10444:11757  contract AddressMapping {\r... */\n      pop\n      jumpi(tag_2, lt(calldatasize, 0x04))\n      calldataload(0x00)\n      0x0100000000000000000000000000000000000000000000000000000000\n      swap1\n      div\n      dup1\n      0x4abeed14\n      gt\n      tag_10\n      jumpi\n      dup1\n      0x4abeed14\n      eq\n      tag_6\n      jumpi\n      dup1\n      0x510d7f86\n      eq\n      tag_7\n      jumpi\n      dup1\n      0x5bab83fb\n      eq\n      tag_8\n      jumpi\n      dup1\n      0xcd1c8675\n      eq\n      tag_9\n      jumpi\n      jump(tag_2)\n    tag_10:\n      dup1\n      0x0c4f65bd\n      eq\n      tag_3\n      jumpi\n      dup1\n      0x30c5d748\n      eq\n      tag_4\n      jumpi\n      dup1\n      0x394555aa\n      eq\n      tag_5\n      jumpi\n    tag_2:\n      0x00\n      dup1\n      revert\n        /* \"background.sol\":11652:11754  function getOwnerAddress() public view returns(address) {\r... */\n    tag_3:\n      tag_11\n      tag_12\n      jump\t// in\n    tag_11:\n      mload(0x40)\n      tag_13\n      swap2\n      swap1\n      jump(tag_14)\n    tag_13:\n      mload(0x40)\n      dup1\n      swap2\n      sub\n      swap1\n      return\n        /* \"background.sol\":11059:11175  function getInsuranceAddress(int insNum) public view returns(address) {\r... */\n    tag_4:\n      tag_15\n      0x04\n      dup1\n      calldatasize\n      sub\n      tag_16\n      swap2\n      swap1\n      dup2\n      add\n      swap1\n      jump(tag_17)\n    tag_16:\n      tag_18\n      jump\t// in\n    tag_15:\n      mload(0x40)\n      tag_19\n      swap2\n      swap1\n      jump(tag_14)\n    tag_19:\n      mload(0x40)\n      dup1\n      swap2\n      sub\n      swap1\n      return\n        /* \"background.sol\":10812:10931  function getInsuranceNumberCount(int aadhar) public view returns(int) {\r... */\n    tag_5:\n      tag_20\n      0x04\n      dup1\n      calldatasize\n      sub\n      tag_21\n      swap2\n      swap1\n      dup2\n      add\n      swap1\n      jump(tag_17)\n    tag_21:\n      tag_22\n      jump\t// in\n    tag_20:\n      mload(0x40)\n      tag_23\n      swap2\n      swap1\n      jump(tag_24)\n    tag_23:\n      mload(0x40)\n      dup1\n      swap2\n      sub\n      swap1\n      return\n        /* \"background.sol\":11183:11366  function setInsuranceAddress(int insNum, address insurance, int aadhar, int count) public {\r... */\n    tag_6:\n      tag_25\n      0x04\n      dup1\n      calldatasize\n      sub\n      tag_26\n      swap2\n      swap1\n      dup2\n      add\n      swap1\n      jump(tag_27)\n    tag_26:\n      tag_28\n      jump\t// in\n    tag_25:\n      stop\n        /* \"background.sol\":10939:11047  function setRecordAddress(int aadhar, address patient) public {\r... */\n    tag_7:\n      tag_29\n      0x04\n      dup1\n      calldatasize\n      sub\n      tag_30\n      swap2\n      swap1\n      dup2\n      add\n      swap1\n      jump(tag_31)\n    tag_30:\n      tag_32\n      jump\t// in\n    tag_29:\n      stop\n        /* \"background.sol\":11378:11640  function createOwner(string memory pass) public {\r... */\n    tag_8:\n      tag_33\n      0x04\n      dup1\n      calldatasize\n      sub\n      tag_34\n      swap2\n      swap1\n      dup2\n      add\n      swap1\n      jump(tag_35)\n    tag_34:\n      tag_36\n      jump\t// in\n    tag_33:\n      stop\n        /* \"background.sol\":10690:10800  function getRecordAddress(int aadhar) public view returns(address) {\r... */\n    tag_9:\n      tag_37\n      0x04\n      dup1\n      calldatasize\n      sub\n      tag_38\n      swap2\n      swap1\n      dup2\n      add\n      swap1\n      jump(tag_17)\n    tag_38:\n      tag_39\n      jump\t// in\n    tag_37:\n      mload(0x40)\n      tag_40\n      swap2\n      swap1\n      jump(tag_14)\n    tag_40:\n      mload(0x40)\n      dup1\n      swap2\n      sub\n      swap1\n      return\n        /* \"background.sol\":11652:11754  function getOwnerAddress() public view returns(address) {\r... */\n    tag_12:\n        /* \"background.sol\":11699:11706  address */\n      0x00\n        /* \"background.sol\":11726:11734  ownerMap */\n      0x02\n        /* \"background.sol\":11726:11746  ownerMap[msg.sender] */\n      0x00\n        /* \"background.sol\":11735:11745  msg.sender */\n      caller\n        /* \"background.sol\":11726:11746  ownerMap[msg.sender] */\n      0xffffffffffffffffffffffffffffffffffffffff\n      and\n      0xffffffffffffffffffffffffffffffffffffffff\n      and\n      dup2\n      mstore\n      0x20\n      add\n      swap1\n      dup2\n      mstore\n      0x20\n      add\n      0x00\n      keccak256\n      0x00\n      swap1\n      sload\n      swap1\n      0x0100\n      exp\n      swap1\n      div\n      0xffffffffffffffffffffffffffffffffffffffff\n      and\n        /* \"background.sol\":11719:11746  return ownerMap[msg.sender] */\n      swap1\n      pop\n        /* \"background.sol\":11652:11754  function getOwnerAddress() public view returns(address) {\r... */\n      swap1\n      jump\t// out\n        /* \"background.sol\":11059:11175  function getInsuranceAddress(int insNum) public view returns(address) {\r... */\n    tag_18:\n        /* \"background.sol\":11120:11127  address */\n      0x00\n        /* \"background.sol\":11147:11159  mapInsurance */\n      0x01\n        /* \"background.sol\":11147:11167  mapInsurance[insNum] */\n      0x00\n        /* \"background.sol\":11160:11166  insNum */\n      dup4\n        /* \"background.sol\":11147:11167  mapInsurance[insNum] */\n      dup2\n      mstore\n      0x20\n      add\n      swap1\n      dup2\n      mstore\n      0x20\n      add\n      0x00\n      keccak256\n      0x00\n      swap1\n      sload\n      swap1\n      0x0100\n      exp\n      swap1\n      div\n      0xffffffffffffffffffffffffffffffffffffffff\n      and\n        /* \"background.sol\":11140:11167  return mapInsurance[insNum] */\n      swap1\n      pop\n        /* \"background.sol\":11059:11175  function getInsuranceAddress(int insNum) public view returns(address) {\r... */\n      swap2\n      swap1\n      pop\n      jump\t// out\n        /* \"background.sol\":10812:10931  function getInsuranceNumberCount(int aadhar) public view returns(int) {\r... */\n    tag_22:\n        /* \"background.sol\":10877:10880  int */\n      0x00\n        /* \"background.sol\":10900:10915  insuranceNumber */\n      0x04\n        /* \"background.sol\":10900:10923  insuranceNumber[aadhar] */\n      0x00\n        /* \"background.sol\":10916:10922  aadhar */\n      dup4\n        /* \"background.sol\":10900:10923  insuranceNumber[aadhar] */\n      dup2\n      mstore\n      0x20\n      add\n      swap1\n      dup2\n      mstore\n      0x20\n      add\n      0x00\n      keccak256\n      sload\n        /* \"background.sol\":10893:10923  return insuranceNumber[aadhar] */\n      swap1\n      pop\n        /* \"background.sol\":10812:10931  function getInsuranceNumberCount(int aadhar) public view returns(int) {\r... */\n      swap2\n      swap1\n      pop\n      jump\t// out\n        /* \"background.sol\":11183:11366  function setInsuranceAddress(int insNum, address insurance, int aadhar, int count) public {\r... */\n    tag_28:\n        /* \"background.sol\":11307:11316  insurance */\n      dup3\n        /* \"background.sol\":11284:11296  mapInsurance */\n      0x01\n        /* \"background.sol\":11284:11304  mapInsurance[insNum] */\n      0x00\n        /* \"background.sol\":11297:11303  insNum */\n      dup7\n        /* \"background.sol\":11284:11304  mapInsurance[insNum] */\n      dup2\n      mstore\n      0x20\n      add\n      swap1\n      dup2\n      mstore\n      0x20\n      add\n      0x00\n      keccak256\n      0x00\n        /* \"background.sol\":11284:11316  mapInsurance[insNum] = insurance */\n      0x0100\n      exp\n      dup2\n      sload\n      dup2\n      0xffffffffffffffffffffffffffffffffffffffff\n      mul\n      not\n      and\n      swap1\n      dup4\n      0xffffffffffffffffffffffffffffffffffffffff\n      and\n      mul\n      or\n      swap1\n      sstore\n      pop\n        /* \"background.sol\":11353:11358  count */\n      dup1\n        /* \"background.sol\":11327:11342  insuranceNumber */\n      0x04\n        /* \"background.sol\":11327:11350  insuranceNumber[aadhar] */\n      0x00\n        /* \"background.sol\":11343:11349  aadhar */\n      dup5\n        /* \"background.sol\":11327:11350  insuranceNumber[aadhar] */\n      dup2\n      mstore\n      0x20\n      add\n      swap1\n      dup2\n      mstore\n      0x20\n      add\n      0x00\n      keccak256\n        /* \"background.sol\":11327:11358  insuranceNumber[aadhar] = count */\n      dup2\n      swap1\n      sstore\n      pop\n        /* \"background.sol\":11183:11366  function setInsuranceAddress(int insNum, address insurance, int aadhar, int count) public {\r... */\n      pop\n      pop\n      pop\n      pop\n      jump\t// out\n        /* \"background.sol\":10939:11047  function setRecordAddress(int aadhar, address patient) public {\r... */\n    tag_32:\n        /* \"background.sol\":11032:11039  patient */\n      dup1\n        /* \"background.sol\":11012:11021  mapRecord */\n      0x00\n        /* \"background.sol\":11012:11029  mapRecord[aadhar] */\n      dup1\n        /* \"background.sol\":11022:11028  aadhar */\n      dup5\n        /* \"background.sol\":11012:11029  mapRecord[aadhar] */\n      dup2\n      mstore\n      0x20\n      add\n      swap1\n      dup2\n      mstore\n      0x20\n      add\n      0x00\n      keccak256\n      0x00\n        /* \"background.sol\":11012:11039  mapRecord[aadhar] = patient */\n      0x0100\n      exp\n      dup2\n      sload\n      dup2\n      0xffffffffffffffffffffffffffffffffffffffff\n      mul\n      not\n      and\n      swap1\n      dup4\n      0xffffffffffffffffffffffffffffffffffffffff\n      and\n      mul\n      or\n      swap1\n      sstore\n      pop\n        /* \"background.sol\":10939:11047  function setRecordAddress(int aadhar, address patient) public {\r... */\n      pop\n      pop\n      jump\t// out\n        /* \"background.sol\":11378:11640  function createOwner(string memory pass) public {\r... */\n    tag_36:\n        /* \"background.sol\":11441:11454  ownerMapCheck */\n      0x03\n        /* \"background.sol\":11441:11466  ownerMapCheck[msg.sender] */\n      0x00\n        /* \"background.sol\":11455:11465  msg.sender */\n      caller\n        /* \"background.sol\":11441:11466  ownerMapCheck[msg.sender] */\n      0xffffffffffffffffffffffffffffffffffffffff\n      and\n      0xffffffffffffffffffffffffffffffffffffffff\n      and\n      dup2\n      mstore\n      0x20\n      add\n      swap1\n      dup2\n      mstore\n      0x20\n      add\n      0x00\n      keccak256\n      0x00\n      swap1\n      sload\n      swap1\n      0x0100\n      exp\n      swap1\n      div\n      0xff\n      and\n        /* \"background.sol\":11440:11466  !ownerMapCheck[msg.sender] */\n      iszero\n        /* \"background.sol\":11437:11633  if(!ownerMapCheck[msg.sender]) {\r... */\n      iszero\n      tag_47\n      jumpi\n        /* \"background.sol\":11483:11494  address add */\n      0x00\n        /* \"background.sol\":11515:11519  pass */\n      dup2\n        /* \"background.sol\":11521:11531  msg.sender */\n      caller\n        /* \"background.sol\":11505:11532  new Owner(pass, msg.sender) */\n      tag_48\n      tag_49\n      jump\t// in\n    tag_48:\n      tag_50\n      swap3\n      swap2\n      swap1\n      jump(tag_51)\n    tag_50:\n      mload(0x40)\n      dup1\n      swap2\n      sub\n      swap1\n      0x00\n      create\n      dup1\n      iszero\n        /* \"--CODEGEN--\":8:17   */\n      dup1\n        /* \"--CODEGEN--\":5:7   */\n      iszero\n      tag_52\n      jumpi\n        /* \"--CODEGEN--\":45:61   */\n      returndatasize\n        /* \"--CODEGEN--\":42:43   */\n      0x00\n        /* \"--CODEGEN--\":39:40   */\n      dup1\n        /* \"--CODEGEN--\":24:62   */\n      returndatacopy\n        /* \"--CODEGEN--\":77:93   */\n      returndatasize\n        /* \"--CODEGEN--\":74:75   */\n      0x00\n        /* \"--CODEGEN--\":67:94   */\n      revert\n        /* \"--CODEGEN--\":5:7   */\n    tag_52:\n        /* \"background.sol\":11505:11532  new Owner(pass, msg.sender) */\n      pop\n        /* \"background.sol\":11483:11533  address add = address(new Owner(pass, msg.sender)) */\n      swap1\n      pop\n        /* \"background.sol\":11571:11574  add */\n      dup1\n        /* \"background.sol\":11548:11556  ownerMap */\n      0x02\n        /* \"background.sol\":11548:11568  ownerMap[msg.sender] */\n      0x00\n        /* \"background.sol\":11557:11567  msg.sender */\n      caller\n        /* \"background.sol\":11548:11568  ownerMap[msg.sender] */\n      0xffffffffffffffffffffffffffffffffffffffff\n      and\n      0xffffffffffffffffffffffffffffffffffffffff\n      and\n      dup2\n      mstore\n      0x20\n      add\n      swap1\n      dup2\n      mstore\n      0x20\n      add\n      0x00\n      keccak256\n      0x00\n        /* \"background.sol\":11548:11574  ownerMap[msg.sender] = add */\n      0x0100\n      exp\n      dup2\n      sload\n      dup2\n      0xffffffffffffffffffffffffffffffffffffffff\n      mul\n      not\n      and\n      swap1\n      dup4\n      0xffffffffffffffffffffffffffffffffffffffff\n      and\n      mul\n      or\n      swap1\n      sstore\n      pop\n        /* \"background.sol\":11617:11621  true */\n      0x01\n        /* \"background.sol\":11589:11602  ownerMapCheck */\n      0x03\n        /* \"background.sol\":11589:11614  ownerMapCheck[msg.sender] */\n      0x00\n        /* \"background.sol\":11603:11613  msg.sender */\n      caller\n        /* \"background.sol\":11589:11614  ownerMapCheck[msg.sender] */\n      0xffffffffffffffffffffffffffffffffffffffff\n      and\n      0xffffffffffffffffffffffffffffffffffffffff\n      and\n      dup2\n      mstore\n      0x20\n      add\n      swap1\n      dup2\n      mstore\n      0x20\n      add\n      0x00\n      keccak256\n      0x00\n        /* \"background.sol\":11589:11621  ownerMapCheck[msg.sender] = true */\n      0x0100\n      exp\n      dup2\n      sload\n      dup2\n      0xff\n      mul\n      not\n      and\n      swap1\n      dup4\n      iszero\n      iszero\n      mul\n      or\n      swap1\n      sstore\n      pop\n        /* \"background.sol\":11437:11633  if(!ownerMapCheck[msg.sender]) {\r... */\n      pop\n    tag_47:\n        /* \"background.sol\":11378:11640  function createOwner(string memory pass) public {\r... */\n      pop\n      jump\t// out\n        /* \"background.sol\":10690:10800  function getRecordAddress(int aadhar) public view returns(address) {\r... */\n    tag_39:\n        /* \"background.sol\":10748:10755  address */\n      0x00\n        /* \"background.sol\":10775:10784  mapRecord */\n      dup1\n        /* \"background.sol\":10775:10792  mapRecord[aadhar] */\n      0x00\n        /* \"background.sol\":10785:10791  aadhar */\n      dup4\n        /* \"background.sol\":10775:10792  mapRecord[aadhar] */\n      dup2\n      mstore\n      0x20\n      add\n      swap1\n      dup2\n      mstore\n      0x20\n      add\n      0x00\n      keccak256\n      0x00\n      swap1\n      sload\n      swap1\n      0x0100\n      exp\n      swap1\n      div\n      0xffffffffffffffffffffffffffffffffffffffff\n      and\n        /* \"background.sol\":10768:10792  return mapRecord[aadhar] */\n      swap1\n      pop\n        /* \"background.sol\":10690:10800  function getRecordAddress(int aadhar) public view returns(address) {\r... */\n      swap2\n      swap1\n      pop\n      jump\t// out\n        /* \"background.sol\":10444:11757  contract AddressMapping {\r... */\n    tag_49:\n      mload(0x40)\n      dataSize(sub_0)\n      dup1\n      dataOffset(sub_0)\n      dup4\n      codecopy\n      add\n      swap1\n      jump\t// out\n        /* \"--CODEGEN--\":5:123   */\n    tag_55:\n      0x00\n        /* \"--CODEGEN--\":72:118   */\n      tag_56\n        /* \"--CODEGEN--\":110:116   */\n      dup3\n        /* \"--CODEGEN--\":97:117   */\n      calldataload\n        /* \"--CODEGEN--\":72:118   */\n      jump(tag_57)\n    tag_56:\n        /* \"--CODEGEN--\":63:118   */\n      swap1\n      pop\n        /* \"--CODEGEN--\":57:123   */\n      swap3\n      swap2\n      pop\n      pop\n      jump\n        /* \"--CODEGEN--\":130:246   */\n    tag_59:\n      0x00\n        /* \"--CODEGEN--\":196:241   */\n      tag_60\n        /* \"--CODEGEN--\":233:239   */\n      dup3\n        /* \"--CODEGEN--\":220:240   */\n      calldataload\n        /* \"--CODEGEN--\":196:241   */\n      jump(tag_61)\n    tag_60:\n        /* \"--CODEGEN--\":187:241   */\n      swap1\n      pop\n        /* \"--CODEGEN--\":181:246   */\n      swap3\n      swap2\n      pop\n      pop\n      jump\n        /* \"--CODEGEN--\":254:696   */\n    tag_63:\n      0x00\n        /* \"--CODEGEN--\":356:359   */\n      dup3\n        /* \"--CODEGEN--\":349:353   */\n      0x1f\n        /* \"--CODEGEN--\":341:347   */\n      dup4\n        /* \"--CODEGEN--\":337:354   */\n      add\n        /* \"--CODEGEN--\":333:360   */\n      slt\n        /* \"--CODEGEN--\":326:361   */\n      iszero\n        /* \"--CODEGEN--\":323:325   */\n      iszero\n      tag_64\n      jumpi\n        /* \"--CODEGEN--\":374:375   */\n      0x00\n        /* \"--CODEGEN--\":371:372   */\n      dup1\n        /* \"--CODEGEN--\":364:376   */\n      revert\n        /* \"--CODEGEN--\":323:325   */\n    tag_64:\n        /* \"--CODEGEN--\":411:417   */\n      dup2\n        /* \"--CODEGEN--\":398:418   */\n      calldataload\n        /* \"--CODEGEN--\":433:498   */\n      tag_65\n        /* \"--CODEGEN--\":448:497   */\n      tag_66\n        /* \"--CODEGEN--\":490:496   */\n      dup3\n        /* \"--CODEGEN--\":448:497   */\n      jump(tag_67)\n    tag_66:\n        /* \"--CODEGEN--\":433:498   */\n      jump(tag_68)\n    tag_65:\n        /* \"--CODEGEN--\":424:498   */\n      swap2\n      pop\n        /* \"--CODEGEN--\":518:524   */\n      dup1\n        /* \"--CODEGEN--\":511:516   */\n      dup3\n        /* \"--CODEGEN--\":504:525   */\n      mstore\n        /* \"--CODEGEN--\":554:558   */\n      0x20\n        /* \"--CODEGEN--\":546:552   */\n      dup4\n        /* \"--CODEGEN--\":542:559   */\n      add\n        /* \"--CODEGEN--\":587:591   */\n      0x20\n        /* \"--CODEGEN--\":580:585   */\n      dup4\n        /* \"--CODEGEN--\":576:592   */\n      add\n        /* \"--CODEGEN--\":622:625   */\n      dup6\n        /* \"--CODEGEN--\":613:619   */\n      dup4\n        /* \"--CODEGEN--\":608:611   */\n      dup4\n        /* \"--CODEGEN--\":604:620   */\n      add\n        /* \"--CODEGEN--\":601:626   */\n      gt\n        /* \"--CODEGEN--\":598:600   */\n      iszero\n      tag_69\n      jumpi\n        /* \"--CODEGEN--\":639:640   */\n      0x00\n        /* \"--CODEGEN--\":636:637   */\n      dup1\n        /* \"--CODEGEN--\":629:641   */\n      revert\n        /* \"--CODEGEN--\":598:600   */\n    tag_69:\n        /* \"--CODEGEN--\":649:690   */\n      tag_70\n        /* \"--CODEGEN--\":683:689   */\n      dup4\n        /* \"--CODEGEN--\":678:681   */\n      dup3\n        /* \"--CODEGEN--\":673:676   */\n      dup5\n        /* \"--CODEGEN--\":649:690   */\n      jump(tag_71)\n    tag_70:\n        /* \"--CODEGEN--\":316:696   */\n      pop\n      pop\n      pop\n      swap3\n      swap2\n      pop\n      pop\n      jump\n        /* \"--CODEGEN--\":704:943   */\n    tag_17:\n      0x00\n        /* \"--CODEGEN--\":807:809   */\n      0x20\n        /* \"--CODEGEN--\":795:804   */\n      dup3\n        /* \"--CODEGEN--\":786:793   */\n      dup5\n        /* \"--CODEGEN--\":782:805   */\n      sub\n        /* \"--CODEGEN--\":778:810   */\n      slt\n        /* \"--CODEGEN--\":775:777   */\n      iszero\n      tag_73\n      jumpi\n        /* \"--CODEGEN--\":823:824   */\n      0x00\n        /* \"--CODEGEN--\":820:821   */\n      dup1\n        /* \"--CODEGEN--\":813:825   */\n      revert\n        /* \"--CODEGEN--\":775:777   */\n    tag_73:\n        /* \"--CODEGEN--\":858:859   */\n      0x00\n        /* \"--CODEGEN--\":875:927   */\n      tag_74\n        /* \"--CODEGEN--\":919:926   */\n      dup5\n        /* \"--CODEGEN--\":910:916   */\n      dup3\n        /* \"--CODEGEN--\":899:908   */\n      dup6\n        /* \"--CODEGEN--\":895:917   */\n      add\n        /* \"--CODEGEN--\":875:927   */\n      jump(tag_59)\n    tag_74:\n        /* \"--CODEGEN--\":865:927   */\n      swap2\n      pop\n        /* \"--CODEGEN--\":837:933   */\n      pop\n        /* \"--CODEGEN--\":769:943   */\n      swap3\n      swap2\n      pop\n      pop\n      jump\n        /* \"--CODEGEN--\":950:1314   */\n    tag_31:\n      0x00\n      dup1\n        /* \"--CODEGEN--\":1070:1072   */\n      0x40\n        /* \"--CODEGEN--\":1058:1067   */\n      dup4\n        /* \"--CODEGEN--\":1049:1056   */\n      dup6\n        /* \"--CODEGEN--\":1045:1068   */\n      sub\n        /* \"--CODEGEN--\":1041:1073   */\n      slt\n        /* \"--CODEGEN--\":1038:1040   */\n      iszero\n      tag_76\n      jumpi\n        /* \"--CODEGEN--\":1086:1087   */\n      0x00\n        /* \"--CODEGEN--\":1083:1084   */\n      dup1\n        /* \"--CODEGEN--\":1076:1088   */\n      revert\n        /* \"--CODEGEN--\":1038:1040   */\n    tag_76:\n        /* \"--CODEGEN--\":1121:1122   */\n      0x00\n        /* \"--CODEGEN--\":1138:1190   */\n      tag_77\n        /* \"--CODEGEN--\":1182:1189   */\n      dup6\n        /* \"--CODEGEN--\":1173:1179   */\n      dup3\n        /* \"--CODEGEN--\":1162:1171   */\n      dup7\n        /* \"--CODEGEN--\":1158:1180   */\n      add\n        /* \"--CODEGEN--\":1138:1190   */\n      jump(tag_59)\n    tag_77:\n        /* \"--CODEGEN--\":1128:1190   */\n      swap3\n      pop\n        /* \"--CODEGEN--\":1100:1196   */\n      pop\n        /* \"--CODEGEN--\":1227:1229   */\n      0x20\n        /* \"--CODEGEN--\":1245:1298   */\n      tag_78\n        /* \"--CODEGEN--\":1290:1297   */\n      dup6\n        /* \"--CODEGEN--\":1281:1287   */\n      dup3\n        /* \"--CODEGEN--\":1270:1279   */\n      dup7\n        /* \"--CODEGEN--\":1266:1288   */\n      add\n        /* \"--CODEGEN--\":1245:1298   */\n      jump(tag_55)\n    tag_78:\n        /* \"--CODEGEN--\":1235:1298   */\n      swap2\n      pop\n        /* \"--CODEGEN--\":1206:1304   */\n      pop\n        /* \"--CODEGEN--\":1032:1314   */\n      swap3\n      pop\n      swap3\n      swap1\n      pop\n      jump\n        /* \"--CODEGEN--\":1321:1932   */\n    tag_27:\n      0x00\n      dup1\n      0x00\n      dup1\n        /* \"--CODEGEN--\":1473:1476   */\n      0x80\n        /* \"--CODEGEN--\":1461:1470   */\n      dup6\n        /* \"--CODEGEN--\":1452:1459   */\n      dup8\n        /* \"--CODEGEN--\":1448:1471   */\n      sub\n        /* \"--CODEGEN--\":1444:1477   */\n      slt\n        /* \"--CODEGEN--\":1441:1443   */\n      iszero\n      tag_80\n      jumpi\n        /* \"--CODEGEN--\":1490:1491   */\n      0x00\n        /* \"--CODEGEN--\":1487:1488   */\n      dup1\n        /* \"--CODEGEN--\":1480:1492   */\n      revert\n        /* \"--CODEGEN--\":1441:1443   */\n    tag_80:\n        /* \"--CODEGEN--\":1525:1526   */\n      0x00\n        /* \"--CODEGEN--\":1542:1594   */\n      tag_81\n        /* \"--CODEGEN--\":1586:1593   */\n      dup8\n        /* \"--CODEGEN--\":1577:1583   */\n      dup3\n        /* \"--CODEGEN--\":1566:1575   */\n      dup9\n        /* \"--CODEGEN--\":1562:1584   */\n      add\n        /* \"--CODEGEN--\":1542:1594   */\n      jump(tag_59)\n    tag_81:\n        /* \"--CODEGEN--\":1532:1594   */\n      swap5\n      pop\n        /* \"--CODEGEN--\":1504:1600   */\n      pop\n        /* \"--CODEGEN--\":1631:1633   */\n      0x20\n        /* \"--CODEGEN--\":1649:1702   */\n      tag_82\n        /* \"--CODEGEN--\":1694:1701   */\n      dup8\n        /* \"--CODEGEN--\":1685:1691   */\n      dup3\n        /* \"--CODEGEN--\":1674:1683   */\n      dup9\n        /* \"--CODEGEN--\":1670:1692   */\n      add\n        /* \"--CODEGEN--\":1649:1702   */\n      jump(tag_55)\n    tag_82:\n        /* \"--CODEGEN--\":1639:1702   */\n      swap4\n      pop\n        /* \"--CODEGEN--\":1610:1708   */\n      pop\n        /* \"--CODEGEN--\":1739:1741   */\n      0x40\n        /* \"--CODEGEN--\":1757:1809   */\n      tag_83\n        /* \"--CODEGEN--\":1801:1808   */\n      dup8\n        /* \"--CODEGEN--\":1792:1798   */\n      dup3\n        /* \"--CODEGEN--\":1781:1790   */\n      dup9\n        /* \"--CODEGEN--\":1777:1799   */\n      add\n        /* \"--CODEGEN--\":1757:1809   */\n      jump(tag_59)\n    tag_83:\n        /* \"--CODEGEN--\":1747:1809   */\n      swap3\n      pop\n        /* \"--CODEGEN--\":1718:1815   */\n      pop\n        /* \"--CODEGEN--\":1846:1848   */\n      0x60\n        /* \"--CODEGEN--\":1864:1916   */\n      tag_84\n        /* \"--CODEGEN--\":1908:1915   */\n      dup8\n        /* \"--CODEGEN--\":1899:1905   */\n      dup3\n        /* \"--CODEGEN--\":1888:1897   */\n      dup9\n        /* \"--CODEGEN--\":1884:1906   */\n      add\n        /* \"--CODEGEN--\":1864:1916   */\n      jump(tag_59)\n    tag_84:\n        /* \"--CODEGEN--\":1854:1916   */\n      swap2\n      pop\n        /* \"--CODEGEN--\":1825:1922   */\n      pop\n        /* \"--CODEGEN--\":1435:1932   */\n      swap3\n      swap6\n      swap2\n      swap5\n      pop\n      swap3\n      pop\n      jump\n        /* \"--CODEGEN--\":1939:2286   */\n    tag_35:\n      0x00\n        /* \"--CODEGEN--\":2053:2055   */\n      0x20\n        /* \"--CODEGEN--\":2041:2050   */\n      dup3\n        /* \"--CODEGEN--\":2032:2039   */\n      dup5\n        /* \"--CODEGEN--\":2028:2051   */\n      sub\n        /* \"--CODEGEN--\":2024:2056   */\n      slt\n        /* \"--CODEGEN--\":2021:2023   */\n      iszero\n      tag_86\n      jumpi\n        /* \"--CODEGEN--\":2069:2070   */\n      0x00\n        /* \"--CODEGEN--\":2066:2067   */\n      dup1\n        /* \"--CODEGEN--\":2059:2071   */\n      revert\n        /* \"--CODEGEN--\":2021:2023   */\n    tag_86:\n        /* \"--CODEGEN--\":2132:2133   */\n      0x00\n        /* \"--CODEGEN--\":2121:2130   */\n      dup3\n        /* \"--CODEGEN--\":2117:2134   */\n      add\n        /* \"--CODEGEN--\":2104:2135   */\n      calldataload\n        /* \"--CODEGEN--\":2155:2173   */\n      0xffffffffffffffff\n        /* \"--CODEGEN--\":2147:2153   */\n      dup2\n        /* \"--CODEGEN--\":2144:2174   */\n      gt\n        /* \"--CODEGEN--\":2141:2143   */\n      iszero\n      tag_87\n      jumpi\n        /* \"--CODEGEN--\":2187:2188   */\n      0x00\n        /* \"--CODEGEN--\":2184:2185   */\n      dup1\n        /* \"--CODEGEN--\":2177:2189   */\n      revert\n        /* \"--CODEGEN--\":2141:2143   */\n    tag_87:\n        /* \"--CODEGEN--\":2207:2270   */\n      tag_88\n        /* \"--CODEGEN--\":2262:2269   */\n      dup5\n        /* \"--CODEGEN--\":2253:2259   */\n      dup3\n        /* \"--CODEGEN--\":2242:2251   */\n      dup6\n        /* \"--CODEGEN--\":2238:2260   */\n      add\n        /* \"--CODEGEN--\":2207:2270   */\n      jump(tag_63)\n    tag_88:\n        /* \"--CODEGEN--\":2197:2270   */\n      swap2\n      pop\n        /* \"--CODEGEN--\":2083:2276   */\n      pop\n        /* \"--CODEGEN--\":2015:2286   */\n      swap3\n      swap2\n      pop\n      pop\n      jump\n        /* \"--CODEGEN--\":2293:2425   */\n    tag_90:\n        /* \"--CODEGEN--\":2374:2419   */\n      tag_91\n        /* \"--CODEGEN--\":2413:2418   */\n      dup2\n        /* \"--CODEGEN--\":2374:2419   */\n      jump(tag_92)\n    tag_91:\n        /* \"--CODEGEN--\":2369:2372   */\n      dup3\n        /* \"--CODEGEN--\":2362:2420   */\n      mstore\n        /* \"--CODEGEN--\":2356:2425   */\n      pop\n      pop\n      jump\n        /* \"--CODEGEN--\":2432:2542   */\n    tag_94:\n        /* \"--CODEGEN--\":2505:2536   */\n      tag_95\n        /* \"--CODEGEN--\":2530:2535   */\n      dup2\n        /* \"--CODEGEN--\":2505:2536   */\n      jump(tag_96)\n    tag_95:\n        /* \"--CODEGEN--\":2500:2503   */\n      dup3\n        /* \"--CODEGEN--\":2493:2537   */\n      mstore\n        /* \"--CODEGEN--\":2487:2542   */\n      pop\n      pop\n      jump\n        /* \"--CODEGEN--\":2549:2656   */\n    tag_98:\n        /* \"--CODEGEN--\":2620:2650   */\n      tag_99\n        /* \"--CODEGEN--\":2644:2649   */\n      dup2\n        /* \"--CODEGEN--\":2620:2650   */\n      jump(tag_100)\n    tag_99:\n        /* \"--CODEGEN--\":2615:2618   */\n      dup3\n        /* \"--CODEGEN--\":2608:2651   */\n      mstore\n        /* \"--CODEGEN--\":2602:2656   */\n      pop\n      pop\n      jump\n        /* \"--CODEGEN--\":2663:2963   */\n    tag_102:\n      0x00\n        /* \"--CODEGEN--\":2765:2804   */\n      tag_103\n        /* \"--CODEGEN--\":2798:2803   */\n      dup3\n        /* \"--CODEGEN--\":2765:2804   */\n      jump(tag_104)\n    tag_103:\n        /* \"--CODEGEN--\":2821:2827   */\n      dup1\n        /* \"--CODEGEN--\":2816:2819   */\n      dup5\n        /* \"--CODEGEN--\":2809:2828   */\n      mstore\n        /* \"--CODEGEN--\":2833:2896   */\n      tag_105\n        /* \"--CODEGEN--\":2889:2895   */\n      dup2\n        /* \"--CODEGEN--\":2882:2886   */\n      0x20\n        /* \"--CODEGEN--\":2877:2880   */\n      dup7\n        /* \"--CODEGEN--\":2873:2887   */\n      add\n        /* \"--CODEGEN--\":2866:2870   */\n      0x20\n        /* \"--CODEGEN--\":2859:2864   */\n      dup7\n        /* \"--CODEGEN--\":2855:2871   */\n      add\n        /* \"--CODEGEN--\":2833:2896   */\n      jump(tag_106)\n    tag_105:\n        /* \"--CODEGEN--\":2928:2957   */\n      tag_107\n        /* \"--CODEGEN--\":2950:2956   */\n      dup2\n        /* \"--CODEGEN--\":2928:2957   */\n      jump(tag_108)\n    tag_107:\n        /* \"--CODEGEN--\":2921:2925   */\n      0x20\n        /* \"--CODEGEN--\":2916:2919   */\n      dup6\n        /* \"--CODEGEN--\":2912:2926   */\n      add\n        /* \"--CODEGEN--\":2908:2958   */\n      add\n        /* \"--CODEGEN--\":2901:2958   */\n      swap2\n      pop\n        /* \"--CODEGEN--\":2745:2963   */\n      pop\n      swap3\n      swap2\n      pop\n      pop\n      jump\n        /* \"--CODEGEN--\":2970:3163   */\n    tag_14:\n      0x00\n        /* \"--CODEGEN--\":3078:3080   */\n      0x20\n        /* \"--CODEGEN--\":3067:3076   */\n      dup3\n        /* \"--CODEGEN--\":3063:3081   */\n      add\n        /* \"--CODEGEN--\":3055:3081   */\n      swap1\n      pop\n        /* \"--CODEGEN--\":3092:3153   */\n      tag_110\n        /* \"--CODEGEN--\":3150:3151   */\n      0x00\n        /* \"--CODEGEN--\":3139:3148   */\n      dup4\n        /* \"--CODEGEN--\":3135:3152   */\n      add\n        /* \"--CODEGEN--\":3126:3132   */\n      dup5\n        /* \"--CODEGEN--\":3092:3153   */\n      jump(tag_94)\n    tag_110:\n        /* \"--CODEGEN--\":3049:3163   */\n      swap3\n      swap2\n      pop\n      pop\n      jump\n        /* \"--CODEGEN--\":3170:3359   */\n    tag_24:\n      0x00\n        /* \"--CODEGEN--\":3276:3278   */\n      0x20\n        /* \"--CODEGEN--\":3265:3274   */\n      dup3\n        /* \"--CODEGEN--\":3261:3279   */\n      add\n        /* \"--CODEGEN--\":3253:3279   */\n      swap1\n      pop\n        /* \"--CODEGEN--\":3290:3349   */\n      tag_112\n        /* \"--CODEGEN--\":3346:3347   */\n      0x00\n        /* \"--CODEGEN--\":3335:3344   */\n      dup4\n        /* \"--CODEGEN--\":3331:3348   */\n      add\n        /* \"--CODEGEN--\":3322:3328   */\n      dup5\n        /* \"--CODEGEN--\":3290:3349   */\n      jump(tag_98)\n    tag_112:\n        /* \"--CODEGEN--\":3247:3359   */\n      swap3\n      swap2\n      pop\n      pop\n      jump\n        /* \"--CODEGEN--\":3366:3764   */\n    tag_51:\n      0x00\n        /* \"--CODEGEN--\":3530:3532   */\n      0x40\n        /* \"--CODEGEN--\":3519:3528   */\n      dup3\n        /* \"--CODEGEN--\":3515:3533   */\n      add\n        /* \"--CODEGEN--\":3507:3533   */\n      swap1\n      pop\n        /* \"--CODEGEN--\":3580:3589   */\n      dup2\n        /* \"--CODEGEN--\":3574:3578   */\n      dup2\n        /* \"--CODEGEN--\":3570:3590   */\n      sub\n        /* \"--CODEGEN--\":3566:3567   */\n      0x00\n        /* \"--CODEGEN--\":3555:3564   */\n      dup4\n        /* \"--CODEGEN--\":3551:3568   */\n      add\n        /* \"--CODEGEN--\":3544:3591   */\n      mstore\n        /* \"--CODEGEN--\":3605:3673   */\n      tag_114\n        /* \"--CODEGEN--\":3668:3672   */\n      dup2\n        /* \"--CODEGEN--\":3659:3665   */\n      dup6\n        /* \"--CODEGEN--\":3605:3673   */\n      jump(tag_102)\n    tag_114:\n        /* \"--CODEGEN--\":3597:3673   */\n      swap1\n      pop\n        /* \"--CODEGEN--\":3684:3754   */\n      tag_115\n        /* \"--CODEGEN--\":3750:3752   */\n      0x20\n        /* \"--CODEGEN--\":3739:3748   */\n      dup4\n        /* \"--CODEGEN--\":3735:3753   */\n      add\n        /* \"--CODEGEN--\":3726:3732   */\n      dup5\n        /* \"--CODEGEN--\":3684:3754   */\n      jump(tag_90)\n    tag_115:\n        /* \"--CODEGEN--\":3501:3764   */\n      swap4\n      swap3\n      pop\n      pop\n      pop\n      jump\n        /* \"--CODEGEN--\":3771:4027   */\n    tag_68:\n      0x00\n        /* \"--CODEGEN--\":3833:3835   */\n      0x40\n        /* \"--CODEGEN--\":3827:3836   */\n      mload\n        /* \"--CODEGEN--\":3817:3836   */\n      swap1\n      pop\n        /* \"--CODEGEN--\":3871:3875   */\n      dup2\n        /* \"--CODEGEN--\":3863:3869   */\n      dup2\n        /* \"--CODEGEN--\":3859:3876   */\n      add\n        /* \"--CODEGEN--\":3970:3976   */\n      dup2\n        /* \"--CODEGEN--\":3958:3968   */\n      dup2\n        /* \"--CODEGEN--\":3955:3977   */\n      lt\n        /* \"--CODEGEN--\":3934:3952   */\n      0xffffffffffffffff\n        /* \"--CODEGEN--\":3922:3932   */\n      dup3\n        /* \"--CODEGEN--\":3919:3953   */\n      gt\n        /* \"--CODEGEN--\":3916:3978   */\n      or\n        /* \"--CODEGEN--\":3913:3915   */\n      iszero\n      tag_117\n      jumpi\n        /* \"--CODEGEN--\":3991:3992   */\n      0x00\n        /* \"--CODEGEN--\":3988:3989   */\n      dup1\n        /* \"--CODEGEN--\":3981:3993   */\n      revert\n        /* \"--CODEGEN--\":3913:3915   */\n    tag_117:\n        /* \"--CODEGEN--\":4011:4021   */\n      dup1\n        /* \"--CODEGEN--\":4007:4009   */\n      0x40\n        /* \"--CODEGEN--\":4000:4022   */\n      mstore\n        /* \"--CODEGEN--\":3811:4027   */\n      pop\n      swap2\n      swap1\n      pop\n      jump\n        /* \"--CODEGEN--\":4034:4293   */\n    tag_67:\n      0x00\n        /* \"--CODEGEN--\":4178:4196   */\n      0xffffffffffffffff\n        /* \"--CODEGEN--\":4170:4176   */\n      dup3\n        /* \"--CODEGEN--\":4167:4197   */\n      gt\n        /* \"--CODEGEN--\":4164:4166   */\n      iszero\n      tag_119\n      jumpi\n        /* \"--CODEGEN--\":4210:4211   */\n      0x00\n        /* \"--CODEGEN--\":4207:4208   */\n      dup1\n        /* \"--CODEGEN--\":4200:4212   */\n      revert\n        /* \"--CODEGEN--\":4164:4166   */\n    tag_119:\n        /* \"--CODEGEN--\":4254:4258   */\n      0x1f\n        /* \"--CODEGEN--\":4250:4259   */\n      not\n        /* \"--CODEGEN--\":4243:4247   */\n      0x1f\n        /* \"--CODEGEN--\":4235:4241   */\n      dup4\n        /* \"--CODEGEN--\":4231:4248   */\n      add\n        /* \"--CODEGEN--\":4227:4260   */\n      and\n        /* \"--CODEGEN--\":4219:4260   */\n      swap1\n      pop\n        /* \"--CODEGEN--\":4283:4287   */\n      0x20\n        /* \"--CODEGEN--\":4277:4281   */\n      dup2\n        /* \"--CODEGEN--\":4273:4288   */\n      add\n        /* \"--CODEGEN--\":4265:4288   */\n      swap1\n      pop\n        /* \"--CODEGEN--\":4101:4293   */\n      swap2\n      swap1\n      pop\n      jump\n        /* \"--CODEGEN--\":4300:4392   */\n    tag_104:\n      0x00\n        /* \"--CODEGEN--\":4381:4386   */\n      dup2\n        /* \"--CODEGEN--\":4375:4387   */\n      mload\n        /* \"--CODEGEN--\":4365:4387   */\n      swap1\n      pop\n        /* \"--CODEGEN--\":4359:4392   */\n      swap2\n      swap1\n      pop\n      jump\n        /* \"--CODEGEN--\":4399:4504   */\n    tag_96:\n      0x00\n        /* \"--CODEGEN--\":4468:4499   */\n      tag_122\n        /* \"--CODEGEN--\":4493:4498   */\n      dup3\n        /* \"--CODEGEN--\":4468:4499   */\n      jump(tag_123)\n    tag_122:\n        /* \"--CODEGEN--\":4457:4499   */\n      swap1\n      pop\n        /* \"--CODEGEN--\":4451:4504   */\n      swap2\n      swap1\n      pop\n      jump\n        /* \"--CODEGEN--\":4511:4589   */\n    tag_100:\n      0x00\n        /* \"--CODEGEN--\":4579:4584   */\n      dup2\n        /* \"--CODEGEN--\":4568:4584   */\n      swap1\n      pop\n        /* \"--CODEGEN--\":4562:4589   */\n      swap2\n      swap1\n      pop\n      jump\n        /* \"--CODEGEN--\":4596:4724   */\n    tag_123:\n      0x00\n        /* \"--CODEGEN--\":4676:4718   */\n      0xffffffffffffffffffffffffffffffffffffffff\n        /* \"--CODEGEN--\":4669:4674   */\n      dup3\n        /* \"--CODEGEN--\":4665:4719   */\n      and\n        /* \"--CODEGEN--\":4654:4719   */\n      swap1\n      pop\n        /* \"--CODEGEN--\":4648:4724   */\n      swap2\n      swap1\n      pop\n      jump\n        /* \"--CODEGEN--\":4731:4836   */\n    tag_57:\n      0x00\n        /* \"--CODEGEN--\":4800:4831   */\n      tag_127\n        /* \"--CODEGEN--\":4825:4830   */\n      dup3\n        /* \"--CODEGEN--\":4800:4831   */\n      jump(tag_123)\n    tag_127:\n        /* \"--CODEGEN--\":4789:4831   */\n      swap1\n      pop\n        /* \"--CODEGEN--\":4783:4836   */\n      swap2\n      swap1\n      pop\n      jump\n        /* \"--CODEGEN--\":4843:4921   */\n    tag_61:\n      0x00\n        /* \"--CODEGEN--\":4911:4916   */\n      dup2\n        /* \"--CODEGEN--\":4900:4916   */\n      swap1\n      pop\n        /* \"--CODEGEN--\":4894:4921   */\n      swap2\n      swap1\n      pop\n      jump\n        /* \"--CODEGEN--\":4928:5057   */\n    tag_92:\n      0x00\n        /* \"--CODEGEN--\":5015:5052   */\n      tag_130\n        /* \"--CODEGEN--\":5046:5051   */\n      dup3\n        /* \"--CODEGEN--\":5015:5052   */\n      jump(tag_131)\n    tag_130:\n        /* \"--CODEGEN--\":5002:5052   */\n      swap1\n      pop\n        /* \"--CODEGEN--\":4996:5057   */\n      swap2\n      swap1\n      pop\n      jump\n        /* \"--CODEGEN--\":5064:5185   */\n    tag_131:\n      0x00\n        /* \"--CODEGEN--\":5143:5180   */\n      tag_133\n        /* \"--CODEGEN--\":5174:5179   */\n      dup3\n        /* \"--CODEGEN--\":5143:5180   */\n      jump(tag_134)\n    tag_133:\n        /* \"--CODEGEN--\":5130:5180   */\n      swap1\n      pop\n        /* \"--CODEGEN--\":5124:5185   */\n      swap2\n      swap1\n      pop\n      jump\n        /* \"--CODEGEN--\":5192:5307   */\n    tag_134:\n      0x00\n        /* \"--CODEGEN--\":5271:5302   */\n      tag_136\n        /* \"--CODEGEN--\":5296:5301   */\n      dup3\n        /* \"--CODEGEN--\":5271:5302   */\n      jump(tag_123)\n    tag_136:\n        /* \"--CODEGEN--\":5258:5302   */\n      swap1\n      pop\n        /* \"--CODEGEN--\":5252:5307   */\n      swap2\n      swap1\n      pop\n      jump\n        /* \"--CODEGEN--\":5315:5460   */\n    tag_71:\n        /* \"--CODEGEN--\":5396:5402   */\n      dup3\n        /* \"--CODEGEN--\":5391:5394   */\n      dup2\n        /* \"--CODEGEN--\":5386:5389   */\n      dup4\n        /* \"--CODEGEN--\":5373:5403   */\n      calldatacopy\n        /* \"--CODEGEN--\":5452:5453   */\n      0x00\n        /* \"--CODEGEN--\":5443:5449   */\n      dup4\n        /* \"--CODEGEN--\":5438:5441   */\n      dup4\n        /* \"--CODEGEN--\":5434:5450   */\n      add\n        /* \"--CODEGEN--\":5427:5454   */\n      mstore\n        /* \"--CODEGEN--\":5366:5460   */\n      pop\n      pop\n      pop\n      jump\n        /* \"--CODEGEN--\":5469:5737   */\n    tag_106:\n        /* \"--CODEGEN--\":5534:5535   */\n      0x00\n        /* \"--CODEGEN--\":5541:5642   */\n    tag_139:\n        /* \"--CODEGEN--\":5555:5561   */\n      dup4\n        /* \"--CODEGEN--\":5552:5553   */\n      dup2\n        /* \"--CODEGEN--\":5549:5562   */\n      lt\n        /* \"--CODEGEN--\":5541:5642   */\n      iszero\n      tag_140\n      jumpi\n        /* \"--CODEGEN--\":5631:5632   */\n      dup1\n        /* \"--CODEGEN--\":5626:5629   */\n      dup3\n        /* \"--CODEGEN--\":5622:5633   */\n      add\n        /* \"--CODEGEN--\":5616:5634   */\n      mload\n        /* \"--CODEGEN--\":5612:5613   */\n      dup2\n        /* \"--CODEGEN--\":5607:5610   */\n      dup5\n        /* \"--CODEGEN--\":5603:5614   */\n      add\n        /* \"--CODEGEN--\":5596:5635   */\n      mstore\n        /* \"--CODEGEN--\":5577:5579   */\n      0x20\n        /* \"--CODEGEN--\":5574:5575   */\n      dup2\n        /* \"--CODEGEN--\":5570:5580   */\n      add\n        /* \"--CODEGEN--\":5565:5580   */\n      swap1\n      pop\n        /* \"--CODEGEN--\":5541:5642   */\n      jump(tag_139)\n    tag_140:\n        /* \"--CODEGEN--\":5657:5663   */\n      dup4\n        /* \"--CODEGEN--\":5654:5655   */\n      dup2\n        /* \"--CODEGEN--\":5651:5664   */\n      gt\n        /* \"--CODEGEN--\":5648:5650   */\n      iszero\n      tag_142\n      jumpi\n        /* \"--CODEGEN--\":5722:5723   */\n      0x00\n        /* \"--CODEGEN--\":5713:5719   */\n      dup5\n        /* \"--CODEGEN--\":5708:5711   */\n      dup5\n        /* \"--CODEGEN--\":5704:5720   */\n      add\n        /* \"--CODEGEN--\":5697:5724   */\n      mstore\n        /* \"--CODEGEN--\":5648:5650   */\n    tag_142:\n        /* \"--CODEGEN--\":5518:5737   */\n      pop\n      pop\n      pop\n      pop\n      jump\n        /* \"--CODEGEN--\":5745:5842   */\n    tag_108:\n      0x00\n        /* \"--CODEGEN--\":5833:5835   */\n      0x1f\n        /* \"--CODEGEN--\":5829:5836   */\n      not\n        /* \"--CODEGEN--\":5824:5826   */\n      0x1f\n        /* \"--CODEGEN--\":5817:5822   */\n      dup4\n        /* \"--CODEGEN--\":5813:5827   */\n      add\n        /* \"--CODEGEN--\":5809:5837   */\n      and\n        /* \"--CODEGEN--\":5799:5837   */\n      swap1\n      pop\n        /* \"--CODEGEN--\":5793:5842   */\n      swap2\n      swap1\n      pop\n      jump\n    stop\n\n    sub_0: assembly {\n            /* \"background.sol\":11761:15612  contract Owner {\r... */\n          mstore(0x40, 0x80)\n            /* \"background.sol\":12304:12414  constructor(string memory pass, address add) public {\r... */\n          callvalue\n            /* \"--CODEGEN--\":8:17   */\n          dup1\n            /* \"--CODEGEN--\":5:7   */\n          iszero\n          tag_1\n          jumpi\n            /* \"--CODEGEN--\":30:31   */\n          0x00\n            /* \"--CODEGEN--\":27:28   */\n          dup1\n            /* \"--CODEGEN--\":20:32   */\n          revert\n            /* \"--CODEGEN--\":5:7   */\n        tag_1:\n            /* \"background.sol\":12304:12414  constructor(string memory pass, address add) public {\r... */\n          pop\n          mload(0x40)\n          sub(codesize, bytecodeSize)\n          dup1\n          bytecodeSize\n          dup4\n          codecopy\n          dup2\n          add\n          dup1\n          0x40\n          mstore\n          tag_2\n          swap2\n          swap1\n          dup2\n          add\n          swap1\n          jump(tag_3)\n        tag_2:\n            /* \"background.sol\":12377:12380  add */\n          dup1\n            /* \"background.sol\":12367:12374  manager */\n          0x01\n          0x00\n            /* \"background.sol\":12367:12380  manager = add */\n          0x0100\n          exp\n          dup2\n          sload\n          dup2\n          0xffffffffffffffffffffffffffffffffffffffff\n          mul\n          not\n          and\n          swap1\n          dup4\n          0xffffffffffffffffffffffffffffffffffffffff\n          and\n          mul\n          or\n          swap1\n          sstore\n          pop\n            /* \"background.sol\":12402:12406  pass */\n          dup2\n            /* \"background.sol\":12391:12399  password */\n          0x00\n            /* \"background.sol\":12391:12406  password = pass */\n          swap1\n          dup1\n          mload\n          swap1\n          0x20\n          add\n          swap1\n          tag_6\n          swap3\n          swap2\n          swap1\n          tag_7\n          jump\t// in\n        tag_6:\n          pop\n            /* \"background.sol\":12304:12414  constructor(string memory pass, address add) public {\r... */\n          pop\n          pop\n            /* \"background.sol\":11761:15612  contract Owner {\r... */\n          jump(tag_8)\n        tag_7:\n          dup3\n          dup1\n          sload\n          0x01\n          dup2\n          0x01\n          and\n          iszero\n          0x0100\n          mul\n          sub\n          and\n          0x02\n          swap1\n          div\n          swap1\n          0x00\n          mstore\n          keccak256(0x00, 0x20)\n          swap1\n          0x1f\n          add\n          0x20\n          swap1\n          div\n          dup2\n          add\n          swap3\n          dup3\n          0x1f\n          lt\n          tag_10\n          jumpi\n          dup1\n          mload\n          not(0xff)\n          and\n          dup4\n          dup1\n          add\n          or\n          dup6\n          sstore\n          jump(tag_9)\n        tag_10:\n          dup3\n          dup1\n          add\n          0x01\n          add\n          dup6\n          sstore\n          dup3\n          iszero\n          tag_9\n          jumpi\n          swap2\n          dup3\n          add\n        tag_11:\n          dup3\n          dup2\n          gt\n          iszero\n          tag_12\n          jumpi\n          dup3\n          mload\n          dup3\n          sstore\n          swap2\n          0x20\n          add\n          swap2\n          swap1\n          0x01\n          add\n          swap1\n          jump(tag_11)\n        tag_12:\n        tag_9:\n          pop\n          swap1\n          pop\n          tag_13\n          swap2\n          swap1\n          tag_14\n          jump\t// in\n        tag_13:\n          pop\n          swap1\n          jump\t// out\n        tag_14:\n          tag_15\n          swap2\n          swap1\n        tag_16:\n          dup1\n          dup3\n          gt\n          iszero\n          tag_17\n          jumpi\n          0x00\n          dup2\n          0x00\n          swap1\n          sstore\n          pop\n          0x01\n          add\n          jump(tag_16)\n        tag_17:\n          pop\n          swap1\n          jump\n        tag_15:\n          swap1\n          jump\t// out\n            /* \"--CODEGEN--\":5:127   */\n        tag_19:\n          0x00\n            /* \"--CODEGEN--\":83:122   */\n          tag_20\n            /* \"--CODEGEN--\":114:120   */\n          dup3\n            /* \"--CODEGEN--\":108:121   */\n          mload\n            /* \"--CODEGEN--\":83:122   */\n          jump(tag_21)\n        tag_20:\n            /* \"--CODEGEN--\":74:122   */\n          swap1\n          pop\n            /* \"--CODEGEN--\":68:127   */\n          swap3\n          swap2\n          pop\n          pop\n          jump\n            /* \"--CODEGEN--\":135:579   */\n        tag_23:\n          0x00\n            /* \"--CODEGEN--\":248:251   */\n          dup3\n            /* \"--CODEGEN--\":241:245   */\n          0x1f\n            /* \"--CODEGEN--\":233:239   */\n          dup4\n            /* \"--CODEGEN--\":229:246   */\n          add\n            /* \"--CODEGEN--\":225:252   */\n          slt\n            /* \"--CODEGEN--\":218:253   */\n          iszero\n            /* \"--CODEGEN--\":215:217   */\n          iszero\n          tag_24\n          jumpi\n            /* \"--CODEGEN--\":266:267   */\n          0x00\n            /* \"--CODEGEN--\":263:264   */\n          dup1\n            /* \"--CODEGEN--\":256:268   */\n          revert\n            /* \"--CODEGEN--\":215:217   */\n        tag_24:\n            /* \"--CODEGEN--\":296:302   */\n          dup2\n            /* \"--CODEGEN--\":290:303   */\n          mload\n            /* \"--CODEGEN--\":318:383   */\n          tag_25\n            /* \"--CODEGEN--\":333:382   */\n          tag_26\n            /* \"--CODEGEN--\":375:381   */\n          dup3\n            /* \"--CODEGEN--\":333:382   */\n          jump(tag_27)\n        tag_26:\n            /* \"--CODEGEN--\":318:383   */\n          jump(tag_28)\n        tag_25:\n            /* \"--CODEGEN--\":309:383   */\n          swap2\n          pop\n            /* \"--CODEGEN--\":403:409   */\n          dup1\n            /* \"--CODEGEN--\":396:401   */\n          dup3\n            /* \"--CODEGEN--\":389:410   */\n          mstore\n            /* \"--CODEGEN--\":439:443   */\n          0x20\n            /* \"--CODEGEN--\":431:437   */\n          dup4\n            /* \"--CODEGEN--\":427:444   */\n          add\n            /* \"--CODEGEN--\":472:476   */\n          0x20\n            /* \"--CODEGEN--\":465:470   */\n          dup4\n            /* \"--CODEGEN--\":461:477   */\n          add\n            /* \"--CODEGEN--\":507:510   */\n          dup6\n            /* \"--CODEGEN--\":498:504   */\n          dup4\n            /* \"--CODEGEN--\":493:496   */\n          dup4\n            /* \"--CODEGEN--\":489:505   */\n          add\n            /* \"--CODEGEN--\":486:511   */\n          gt\n            /* \"--CODEGEN--\":483:485   */\n          iszero\n          tag_29\n          jumpi\n            /* \"--CODEGEN--\":524:525   */\n          0x00\n            /* \"--CODEGEN--\":521:522   */\n          dup1\n            /* \"--CODEGEN--\":514:526   */\n          revert\n            /* \"--CODEGEN--\":483:485   */\n        tag_29:\n            /* \"--CODEGEN--\":534:573   */\n          tag_30\n            /* \"--CODEGEN--\":566:572   */\n          dup4\n            /* \"--CODEGEN--\":561:564   */\n          dup3\n            /* \"--CODEGEN--\":556:559   */\n          dup5\n            /* \"--CODEGEN--\":534:573   */\n          jump(tag_31)\n        tag_30:\n            /* \"--CODEGEN--\":208:579   */\n          pop\n          pop\n          pop\n          swap3\n          swap2\n          pop\n          pop\n          jump\n            /* \"--CODEGEN--\":587:1085   */\n        tag_3:\n          0x00\n          dup1\n            /* \"--CODEGEN--\":729:731   */\n          0x40\n            /* \"--CODEGEN--\":717:726   */\n          dup4\n            /* \"--CODEGEN--\":708:715   */\n          dup6\n            /* \"--CODEGEN--\":704:727   */\n          sub\n            /* \"--CODEGEN--\":700:732   */\n          slt\n            /* \"--CODEGEN--\":697:699   */\n          iszero\n          tag_33\n          jumpi\n            /* \"--CODEGEN--\":745:746   */\n          0x00\n            /* \"--CODEGEN--\":742:743   */\n          dup1\n            /* \"--CODEGEN--\":735:747   */\n          revert\n            /* \"--CODEGEN--\":697:699   */\n        tag_33:\n            /* \"--CODEGEN--\":801:802   */\n          0x00\n            /* \"--CODEGEN--\":790:799   */\n          dup4\n            /* \"--CODEGEN--\":786:803   */\n          add\n            /* \"--CODEGEN--\":780:804   */\n          mload\n            /* \"--CODEGEN--\":824:842   */\n          0xffffffffffffffff\n            /* \"--CODEGEN--\":816:822   */\n          dup2\n            /* \"--CODEGEN--\":813:843   */\n          gt\n            /* \"--CODEGEN--\":810:812   */\n          iszero\n          tag_34\n          jumpi\n            /* \"--CODEGEN--\":856:857   */\n          0x00\n            /* \"--CODEGEN--\":853:854   */\n          dup1\n            /* \"--CODEGEN--\":846:858   */\n          revert\n            /* \"--CODEGEN--\":810:812   */\n        tag_34:\n            /* \"--CODEGEN--\":876:950   */\n          tag_35\n            /* \"--CODEGEN--\":942:949   */\n          dup6\n            /* \"--CODEGEN--\":933:939   */\n          dup3\n            /* \"--CODEGEN--\":922:931   */\n          dup7\n            /* \"--CODEGEN--\":918:940   */\n          add\n            /* \"--CODEGEN--\":876:950   */\n          jump(tag_23)\n        tag_35:\n            /* \"--CODEGEN--\":866:950   */\n          swap3\n          pop\n            /* \"--CODEGEN--\":759:956   */\n          pop\n            /* \"--CODEGEN--\":987:989   */\n          0x20\n            /* \"--CODEGEN--\":1005:1069   */\n          tag_36\n            /* \"--CODEGEN--\":1061:1068   */\n          dup6\n            /* \"--CODEGEN--\":1052:1058   */\n          dup3\n            /* \"--CODEGEN--\":1041:1050   */\n          dup7\n            /* \"--CODEGEN--\":1037:1059   */\n          add\n            /* \"--CODEGEN--\":1005:1069   */\n          jump(tag_19)\n        tag_36:\n            /* \"--CODEGEN--\":995:1069   */\n          swap2\n          pop\n            /* \"--CODEGEN--\":966:1075   */\n          pop\n            /* \"--CODEGEN--\":691:1085   */\n          swap3\n          pop\n          swap3\n          swap1\n          pop\n          jump\n            /* \"--CODEGEN--\":1092:1348   */\n        tag_28:\n          0x00\n            /* \"--CODEGEN--\":1154:1156   */\n          0x40\n            /* \"--CODEGEN--\":1148:1157   */\n          mload\n            /* \"--CODEGEN--\":1138:1157   */\n          swap1\n          pop\n            /* \"--CODEGEN--\":1192:1196   */\n          dup2\n            /* \"--CODEGEN--\":1184:1190   */\n          dup2\n            /* \"--CODEGEN--\":1180:1197   */\n          add\n            /* \"--CODEGEN--\":1291:1297   */\n          dup2\n            /* \"--CODEGEN--\":1279:1289   */\n          dup2\n            /* \"--CODEGEN--\":1276:1298   */\n          lt\n            /* \"--CODEGEN--\":1255:1273   */\n          0xffffffffffffffff\n            /* \"--CODEGEN--\":1243:1253   */\n          dup3\n            /* \"--CODEGEN--\":1240:1274   */\n          gt\n            /* \"--CODEGEN--\":1237:1299   */\n          or\n            /* \"--CODEGEN--\":1234:1236   */\n          iszero\n          tag_38\n          jumpi\n            /* \"--CODEGEN--\":1312:1313   */\n          0x00\n            /* \"--CODEGEN--\":1309:1310   */\n          dup1\n            /* \"--CODEGEN--\":1302:1314   */\n          revert\n            /* \"--CODEGEN--\":1234:1236   */\n        tag_38:\n            /* \"--CODEGEN--\":1332:1342   */\n          dup1\n            /* \"--CODEGEN--\":1328:1330   */\n          0x40\n            /* \"--CODEGEN--\":1321:1343   */\n          mstore\n            /* \"--CODEGEN--\":1132:1348   */\n          pop\n          swap2\n          swap1\n          pop\n          jump\n            /* \"--CODEGEN--\":1355:1614   */\n        tag_27:\n          0x00\n            /* \"--CODEGEN--\":1499:1517   */\n          0xffffffffffffffff\n            /* \"--CODEGEN--\":1491:1497   */\n          dup3\n            /* \"--CODEGEN--\":1488:1518   */\n          gt\n            /* \"--CODEGEN--\":1485:1487   */\n          iszero\n          tag_40\n          jumpi\n            /* \"--CODEGEN--\":1531:1532   */\n          0x00\n            /* \"--CODEGEN--\":1528:1529   */\n          dup1\n            /* \"--CODEGEN--\":1521:1533   */\n          revert\n            /* \"--CODEGEN--\":1485:1487   */\n        tag_40:\n            /* \"--CODEGEN--\":1575:1579   */\n          0x1f\n            /* \"--CODEGEN--\":1571:1580   */\n          not\n            /* \"--CODEGEN--\":1564:1568   */\n          0x1f\n            /* \"--CODEGEN--\":1556:1562   */\n          dup4\n            /* \"--CODEGEN--\":1552:1569   */\n          add\n            /* \"--CODEGEN--\":1548:1581   */\n          and\n            /* \"--CODEGEN--\":1540:1581   */\n          swap1\n          pop\n            /* \"--CODEGEN--\":1604:1608   */\n          0x20\n            /* \"--CODEGEN--\":1598:1602   */\n          dup2\n            /* \"--CODEGEN--\":1594:1609   */\n          add\n            /* \"--CODEGEN--\":1586:1609   */\n          swap1\n          pop\n            /* \"--CODEGEN--\":1422:1614   */\n          swap2\n          swap1\n          pop\n          jump\n            /* \"--CODEGEN--\":1621:1749   */\n        tag_42:\n          0x00\n            /* \"--CODEGEN--\":1701:1743   */\n          0xffffffffffffffffffffffffffffffffffffffff\n            /* \"--CODEGEN--\":1694:1699   */\n          dup3\n            /* \"--CODEGEN--\":1690:1744   */\n          and\n            /* \"--CODEGEN--\":1679:1744   */\n          swap1\n          pop\n            /* \"--CODEGEN--\":1673:1749   */\n          swap2\n          swap1\n          pop\n          jump\n            /* \"--CODEGEN--\":1756:1861   */\n        tag_21:\n          0x00\n            /* \"--CODEGEN--\":1825:1856   */\n          tag_44\n            /* \"--CODEGEN--\":1850:1855   */\n          dup3\n            /* \"--CODEGEN--\":1825:1856   */\n          jump(tag_42)\n        tag_44:\n            /* \"--CODEGEN--\":1814:1856   */\n          swap1\n          pop\n            /* \"--CODEGEN--\":1808:1861   */\n          swap2\n          swap1\n          pop\n          jump\n            /* \"--CODEGEN--\":1869:2137   */\n        tag_31:\n            /* \"--CODEGEN--\":1934:1935   */\n          0x00\n            /* \"--CODEGEN--\":1941:2042   */\n        tag_46:\n            /* \"--CODEGEN--\":1955:1961   */\n          dup4\n            /* \"--CODEGEN--\":1952:1953   */\n          dup2\n            /* \"--CODEGEN--\":1949:1962   */\n          lt\n            /* \"--CODEGEN--\":1941:2042   */\n          iszero\n          tag_47\n          jumpi\n            /* \"--CODEGEN--\":2031:2032   */\n          dup1\n            /* \"--CODEGEN--\":2026:2029   */\n          dup3\n            /* \"--CODEGEN--\":2022:2033   */\n          add\n            /* \"--CODEGEN--\":2016:2034   */\n          mload\n            /* \"--CODEGEN--\":2012:2013   */\n          dup2\n            /* \"--CODEGEN--\":2007:2010   */\n          dup5\n            /* \"--CODEGEN--\":2003:2014   */\n          add\n            /* \"--CODEGEN--\":1996:2035   */\n          mstore\n            /* \"--CODEGEN--\":1977:1979   */\n          0x20\n            /* \"--CODEGEN--\":1974:1975   */\n          dup2\n            /* \"--CODEGEN--\":1970:1980   */\n          add\n            /* \"--CODEGEN--\":1965:1980   */\n          swap1\n          pop\n            /* \"--CODEGEN--\":1941:2042   */\n          jump(tag_46)\n        tag_47:\n            /* \"--CODEGEN--\":2057:2063   */\n          dup4\n            /* \"--CODEGEN--\":2054:2055   */\n          dup2\n            /* \"--CODEGEN--\":2051:2064   */\n          gt\n            /* \"--CODEGEN--\":2048:2050   */\n          iszero\n          tag_49\n          jumpi\n            /* \"--CODEGEN--\":2122:2123   */\n          0x00\n            /* \"--CODEGEN--\":2113:2119   */\n          dup5\n            /* \"--CODEGEN--\":2108:2111   */\n          dup5\n            /* \"--CODEGEN--\":2104:2120   */\n          add\n            /* \"--CODEGEN--\":2097:2124   */\n          mstore\n            /* \"--CODEGEN--\":2048:2050   */\n        tag_49:\n            /* \"--CODEGEN--\":1918:2137   */\n          pop\n          pop\n          pop\n          pop\n          jump\n            /* \"background.sol\":11761:15612  contract Owner {\r... */\n        tag_8:\n          dataSize(sub_0)\n          dup1\n          dataOffset(sub_0)\n          0x00\n          codecopy\n          0x00\n          return\n        stop\n\n        sub_0: assembly {\n                /* \"background.sol\":11761:15612  contract Owner {\r... */\n              mstore(0x40, 0x80)\n              callvalue\n                /* \"--CODEGEN--\":8:17   */\n              dup1\n                /* \"--CODEGEN--\":5:7   */\n              iszero\n              tag_1\n              jumpi\n                /* \"--CODEGEN--\":30:31   */\n              0x00\n                /* \"--CODEGEN--\":27:28   */\n              dup1\n                /* \"--CODEGEN--\":20:32   */\n              revert\n                /* \"--CODEGEN--\":5:7   */\n            tag_1:\n                /* \"background.sol\":11761:15612  contract Owner {\r... */\n              pop\n              jumpi(tag_2, lt(calldatasize, 0x04))\n              calldataload(0x00)\n              0x0100000000000000000000000000000000000000000000000000000000\n              swap1\n              div\n              dup1\n              0x6fc92e73\n              eq\n              tag_3\n              jumpi\n              dup1\n              0x7ec35b0a\n              eq\n              tag_4\n              jumpi\n              dup1\n              0x9d55295c\n              eq\n              tag_5\n              jumpi\n              dup1\n              0xae55c888\n              eq\n              tag_6\n              jumpi\n              dup1\n              0xd5278316\n              eq\n              tag_7\n              jumpi\n            tag_2:\n              0x00\n              dup1\n              revert\n                /* \"background.sol\":13940:14784  function pendingRequest(address ownerAddd, address selfAddd, string memory titlee, string memory detailss, string memory fileHash, bool doctorr, bool ownerrrr, uint256 index, int aad, string memory doc) public {\r... */\n            tag_3:\n              tag_8\n              0x04\n              dup1\n              calldatasize\n              sub\n              tag_9\n              swap2\n              swap1\n              dup2\n              add\n              swap1\n              jump(tag_10)\n            tag_9:\n              tag_11\n              jump\t// in\n            tag_8:\n              stop\n                /* \"background.sol\":12422:12674  function isCorrectPassword(string memory pass) public view returns(bool) {\r... */\n            tag_4:\n              tag_12\n              0x04\n              dup1\n              calldatasize\n              sub\n              tag_13\n              swap2\n              swap1\n              dup2\n              add\n              swap1\n              jump(tag_14)\n            tag_13:\n              tag_15\n              jump\t// in\n            tag_12:\n              mload(0x40)\n              tag_16\n              swap2\n              swap1\n              jump(tag_17)\n            tag_16:\n              mload(0x40)\n              dup1\n              swap2\n              sub\n              swap1\n              return\n                /* \"background.sol\":14792:15605  function approveCancelRequest(uint256 index, bool flag) public {\r... */\n            tag_5:\n              tag_18\n              0x04\n              dup1\n              calldatasize\n              sub\n              tag_19\n              swap2\n              swap1\n              dup2\n              add\n              swap1\n              jump(tag_20)\n            tag_19:\n              tag_21\n              jump\t// in\n            tag_18:\n              stop\n                /* \"background.sol\":12682:13193  function getData(string memory pass) public view returns(bool, address[] memory, Request[] memory, address) {\r... */\n            tag_6:\n              tag_22\n              0x04\n              dup1\n              calldatasize\n              sub\n              tag_23\n              swap2\n              swap1\n              dup2\n              add\n              swap1\n              jump(tag_14)\n            tag_23:\n              tag_24\n              jump\t// in\n            tag_22:\n              mload(0x40)\n              tag_25\n              swap5\n              swap4\n              swap3\n              swap2\n              swap1\n              jump(tag_26)\n            tag_25:\n              mload(0x40)\n              dup1\n              swap2\n              sub\n              swap1\n              return\n                /* \"background.sol\":13201:13932  function createInsurance(string memory name, int aadhar, int amount, string memory insDetailss, string memory documentss, int setInsuranceAddresss, int count) public  {\r... */\n            tag_7:\n              tag_27\n              0x04\n              dup1\n              calldatasize\n              sub\n              tag_28\n              swap2\n              swap1\n              dup2\n              add\n              swap1\n              jump(tag_29)\n            tag_28:\n              tag_30\n              jump\t// in\n            tag_27:\n              stop\n                /* \"background.sol\":13940:14784  function pendingRequest(address ownerAddd, address selfAddd, string memory titlee, string memory detailss, string memory fileHash, bool doctorr, bool ownerrrr, uint256 index, int aad, string memory doc) public {\r... */\n            tag_11:\n                /* \"background.sol\":14164:14181  isIssuedInsurance */\n              0x04\n                /* \"background.sol\":14164:14191  isIssuedInsurance[selfAddd] */\n              0x00\n                /* \"background.sol\":14182:14190  selfAddd */\n              dup11\n                /* \"background.sol\":14164:14191  isIssuedInsurance[selfAddd] */\n              0xffffffffffffffffffffffffffffffffffffffff\n              and\n              0xffffffffffffffffffffffffffffffffffffffff\n              and\n              dup2\n              mstore\n              0x20\n              add\n              swap1\n              dup2\n              mstore\n              0x20\n              add\n              0x00\n              keccak256\n              0x00\n              swap1\n              sload\n              swap1\n              0x0100\n              exp\n              swap1\n              div\n              0xff\n              and\n                /* \"background.sol\":14161:14777  if(isIssuedInsurance[selfAddd]) {\r... */\n              iszero\n              tag_32\n              jumpi\n                /* \"background.sol\":14208:14233  Request memory newRequest */\n              tag_33\n              tag_34\n              jump\t// in\n            tag_33:\n                /* \"background.sol\":14236:14690  Request ( {\r... */\n              0x0180\n              mload(0x40)\n              swap1\n              dup2\n              add\n              0x40\n              mstore\n              dup1\n                /* \"background.sol\":14275:14284  ownerAddd */\n              dup13\n                /* \"background.sol\":14236:14690  Request ( {\r... */\n              0xffffffffffffffffffffffffffffffffffffffff\n              and\n              dup2\n              mstore\n              0x20\n              add\n                /* \"background.sol\":14312:14320  selfAddd */\n              dup12\n                /* \"background.sol\":14236:14690  Request ( {\r... */\n              0xffffffffffffffffffffffffffffffffffffffff\n              and\n              dup2\n              mstore\n              0x20\n              add\n                /* \"background.sol\":14346:14352  titlee */\n              dup11\n                /* \"background.sol\":14236:14690  Request ( {\r... */\n              dup2\n              mstore\n              0x20\n              add\n                /* \"background.sol\":14380:14388  detailss */\n              dup10\n                /* \"background.sol\":14236:14690  Request ( {\r... */\n              dup2\n              mstore\n              0x20\n              add\n                /* \"background.sol\":14449:14456  doctorr */\n              dup8\n                /* \"background.sol\":14236:14690  Request ( {\r... */\n              iszero\n              iszero\n              dup2\n              mstore\n              0x20\n              add\n                /* \"background.sol\":14482:14490  ownerrrr */\n              dup7\n                /* \"background.sol\":14236:14690  Request ( {\r... */\n              iszero\n              iszero\n              dup2\n              mstore\n              0x20\n              add\n                /* \"background.sol\":14414:14422  fileHash */\n              dup9\n                /* \"background.sol\":14236:14690  Request ( {\r... */\n              dup2\n              mstore\n              0x20\n              add\n                /* \"background.sol\":14516:14521  index */\n              dup6\n                /* \"background.sol\":14236:14690  Request ( {\r... */\n              dup2\n              mstore\n              0x20\n              add\n                /* \"background.sol\":14562:14570  requests */\n              0x02\n                /* \"background.sol\":14562:14577  requests.length */\n              dup1\n              sload\n              swap1\n              pop\n                /* \"background.sol\":14236:14690  Request ( {\r... */\n              dup2\n              mstore\n              0x20\n              add\n                /* \"background.sol\":14604:14607  aad */\n              dup5\n                /* \"background.sol\":14236:14690  Request ( {\r... */\n              dup2\n              mstore\n              0x20\n              add\n                /* \"background.sol\":14637:14640  doc */\n              dup4\n                /* \"background.sol\":14236:14690  Request ( {\r... */\n              dup2\n              mstore\n              0x20\n              add\n                /* \"background.sol\":14669:14674  false */\n              0x00\n                /* \"background.sol\":14236:14690  Request ( {\r... */\n              iszero\n              iszero\n              dup2\n              mstore\n              pop\n                /* \"background.sol\":14208:14690  Request memory newRequest = Request ( {\r... */\n              swap1\n              pop\n                /* \"background.sol\":14705:14713  requests */\n              0x02\n                /* \"background.sol\":14719:14729  newRequest */\n              dup2\n                /* \"background.sol\":14705:14730  requests.push(newRequest) */\n              swap1\n              dup1\n                /* \"--CODEGEN--\":39:40   */\n              0x01\n                /* \"--CODEGEN--\":33:36   */\n              dup2\n                /* \"--CODEGEN--\":27:37   */\n              sload\n                /* \"--CODEGEN--\":23:41   */\n              add\n                /* \"--CODEGEN--\":57:67   */\n              dup1\n                /* \"--CODEGEN--\":52:55   */\n              dup3\n                /* \"--CODEGEN--\":45:68   */\n              sstore\n                /* \"--CODEGEN--\":79:89   */\n              dup1\n                /* \"--CODEGEN--\":72:89   */\n              swap2\n              pop\n                /* \"--CODEGEN--\":0:93   */\n              pop\n                /* \"background.sol\":14705:14730  requests.push(newRequest) */\n              swap1\n              0x01\n              dup3\n              sub\n              swap1\n              0x00\n              mstore\n              keccak256(0x00, 0x20)\n              swap1\n              0x0b\n              mul\n              add\n              0x00\n              swap1\n              swap2\n              swap3\n              swap1\n              swap2\n              swap1\n              swap2\n              pop\n              0x00\n              dup3\n              add\n              mload\n              dup2\n              0x00\n              add\n              exp(0x0100, 0x00)\n              dup2\n              sload\n              dup2\n              0xffffffffffffffffffffffffffffffffffffffff\n              mul\n              not\n              and\n              swap1\n              dup4\n              0xffffffffffffffffffffffffffffffffffffffff\n              and\n              mul\n              or\n              swap1\n              sstore\n              pop\n              0x20\n              dup3\n              add\n              mload\n              dup2\n              0x01\n              add\n              exp(0x0100, 0x00)\n              dup2\n              sload\n              dup2\n              0xffffffffffffffffffffffffffffffffffffffff\n              mul\n              not\n              and\n              swap1\n              dup4\n              0xffffffffffffffffffffffffffffffffffffffff\n              and\n              mul\n              or\n              swap1\n              sstore\n              pop\n              0x40\n              dup3\n              add\n              mload\n              dup2\n              0x02\n              add\n              swap1\n              dup1\n              mload\n              swap1\n              0x20\n              add\n              swap1\n              tag_36\n              swap3\n              swap2\n              swap1\n              tag_37\n              jump\t// in\n            tag_36:\n              pop\n              0x60\n              dup3\n              add\n              mload\n              dup2\n              0x03\n              add\n              swap1\n              dup1\n              mload\n              swap1\n              0x20\n              add\n              swap1\n              tag_38\n              swap3\n              swap2\n              swap1\n              tag_37\n              jump\t// in\n            tag_38:\n              pop\n              0x80\n              dup3\n              add\n              mload\n              dup2\n              0x04\n              add\n              exp(0x0100, 0x00)\n              dup2\n              sload\n              dup2\n              0xff\n              mul\n              not\n              and\n              swap1\n              dup4\n              iszero\n              iszero\n              mul\n              or\n              swap1\n              sstore\n              pop\n              0xa0\n              dup3\n              add\n              mload\n              dup2\n              0x04\n              add\n              exp(0x0100, 0x01)\n              dup2\n              sload\n              dup2\n              0xff\n              mul\n              not\n              and\n              swap1\n              dup4\n              iszero\n              iszero\n              mul\n              or\n              swap1\n              sstore\n              pop\n              0xc0\n              dup3\n              add\n              mload\n              dup2\n              0x05\n              add\n              swap1\n              dup1\n              mload\n              swap1\n              0x20\n              add\n              swap1\n              tag_39\n              swap3\n              swap2\n              swap1\n              tag_37\n              jump\t// in\n            tag_39:\n              pop\n              0xe0\n              dup3\n              add\n              mload\n              dup2\n              0x06\n              add\n              sstore\n              0x0100\n              dup3\n              add\n              mload\n              dup2\n              0x07\n              add\n              sstore\n              0x0120\n              dup3\n              add\n              mload\n              dup2\n              0x08\n              add\n              sstore\n              0x0140\n              dup3\n              add\n              mload\n              dup2\n              0x09\n              add\n              swap1\n              dup1\n              mload\n              swap1\n              0x20\n              add\n              swap1\n              tag_40\n              swap3\n              swap2\n              swap1\n              tag_37\n              jump\t// in\n            tag_40:\n              pop\n              0x0160\n              dup3\n              add\n              mload\n              dup2\n              0x0a\n              add\n              exp(0x0100, 0x00)\n              dup2\n              sload\n              dup2\n              0xff\n              mul\n              not\n              and\n              swap1\n              dup4\n              iszero\n              iszero\n              mul\n              or\n              swap1\n              sstore\n              pop\n              pop\n              pop\n              pop\n                /* \"background.sol\":14750:14765  ChangeOccured() */\n              0x2b94f1e9999ff685f243474c3b8c30563987b8897fecb35c7cea9ac0f4f5c6bd\n              mload(0x40)\n              mload(0x40)\n              dup1\n              swap2\n              sub\n              swap1\n              log1\n                /* \"background.sol\":14161:14777  if(isIssuedInsurance[selfAddd]) {\r... */\n              pop\n            tag_32:\n                /* \"background.sol\":13940:14784  function pendingRequest(address ownerAddd, address selfAddd, string memory titlee, string memory detailss, string memory fileHash, bool doctorr, bool ownerrrr, uint256 index, int aad, string memory doc) public {\r... */\n              pop\n              pop\n              pop\n              pop\n              pop\n              pop\n              pop\n              pop\n              pop\n              pop\n              jump\t// out\n                /* \"background.sol\":12422:12674  function isCorrectPassword(string memory pass) public view returns(bool) {\r... */\n            tag_15:\n                /* \"background.sol\":12489:12493  bool */\n              0x00\n                /* \"background.sol\":12573:12581  password */\n              dup1\n                /* \"background.sol\":12556:12582  abi.encodePacked(password) */\n              add(0x20, mload(0x40))\n              dup1\n              dup3\n              dup1\n              sload\n              0x01\n              dup2\n              0x01\n              and\n              iszero\n              0x0100\n              mul\n              sub\n              and\n              0x02\n              swap1\n              div\n              dup1\n              iszero\n              tag_42\n              jumpi\n              dup1\n              0x1f\n              lt\n              tag_43\n              jumpi\n              0x0100\n              dup1\n              dup4\n              sload\n              div\n              mul\n              dup4\n              mstore\n              swap2\n              dup3\n              add\n              swap2\n              jump(tag_42)\n            tag_43:\n              dup3\n              add\n              swap2\n              swap1\n              0x00\n              mstore\n              keccak256(0x00, 0x20)\n              swap1\n            tag_44:\n              dup2\n              sload\n              dup2\n              mstore\n              swap1\n              0x01\n              add\n              swap1\n              0x20\n              add\n              dup1\n              dup4\n              gt\n              tag_44\n              jumpi\n            tag_42:\n              pop\n              pop\n              swap2\n              pop\n              pop\n              mload(0x40)\n                /* \"--CODEGEN--\":49:53   */\n              0x20\n                /* \"--CODEGEN--\":39:46   */\n              dup2\n                /* \"--CODEGEN--\":30:37   */\n              dup4\n                /* \"--CODEGEN--\":26:47   */\n              sub\n                /* \"--CODEGEN--\":22:54   */\n              sub\n                /* \"--CODEGEN--\":13:20   */\n              dup2\n                /* \"--CODEGEN--\":6:55   */\n              mstore\n                /* \"background.sol\":12556:12582  abi.encodePacked(password) */\n              swap1\n              0x40\n              mstore\n                /* \"background.sol\":12546:12583  keccak256(abi.encodePacked(password)) */\n              dup1\n              mload\n              swap1\n              0x20\n              add\n              keccak256\n                /* \"background.sol\":12536:12540  pass */\n              dup3\n                /* \"background.sol\":12519:12541  abi.encodePacked(pass) */\n              add(0x20, mload(0x40))\n              dup1\n              dup3\n              dup1\n              mload\n              swap1\n              0x20\n              add\n              swap1\n              dup1\n              dup4\n              dup4\n                /* \"--CODEGEN--\":36:189   */\n            tag_45:\n                /* \"--CODEGEN--\":66:68   */\n              0x20\n                /* \"--CODEGEN--\":61:64   */\n              dup4\n                /* \"--CODEGEN--\":58:69   */\n              lt\n                /* \"--CODEGEN--\":51:70   */\n              iszero\n                /* \"--CODEGEN--\":36:189   */\n              iszero\n              tag_46\n              jumpi\n                /* \"--CODEGEN--\":182:185   */\n              dup1\n                /* \"--CODEGEN--\":176:186   */\n              mload\n                /* \"--CODEGEN--\":171:174   */\n              dup3\n                /* \"--CODEGEN--\":164:187   */\n              mstore\n                /* \"--CODEGEN--\":98:100   */\n              0x20\n                /* \"--CODEGEN--\":93:96   */\n              dup3\n                /* \"--CODEGEN--\":89:101   */\n              add\n                /* \"--CODEGEN--\":82:101   */\n              swap2\n              pop\n                /* \"--CODEGEN--\":123:125   */\n              0x20\n                /* \"--CODEGEN--\":118:121   */\n              dup2\n                /* \"--CODEGEN--\":114:126   */\n              add\n                /* \"--CODEGEN--\":107:126   */\n              swap1\n              pop\n                /* \"--CODEGEN--\":148:150   */\n              0x20\n                /* \"--CODEGEN--\":143:146   */\n              dup4\n                /* \"--CODEGEN--\":139:151   */\n              sub\n                /* \"--CODEGEN--\":132:151   */\n              swap3\n              pop\n                /* \"--CODEGEN--\":36:189   */\n              jump(tag_45)\n            tag_46:\n                /* \"--CODEGEN--\":274:275   */\n              0x01\n                /* \"--CODEGEN--\":267:270   */\n              dup4\n                /* \"--CODEGEN--\":263:265   */\n              0x20\n                /* \"--CODEGEN--\":259:271   */\n              sub\n                /* \"--CODEGEN--\":254:257   */\n              0x0100\n                /* \"--CODEGEN--\":250:272   */\n              exp\n                /* \"--CODEGEN--\":246:276   */\n              sub\n                /* \"--CODEGEN--\":315:319   */\n              dup1\n                /* \"--CODEGEN--\":311:320   */\n              not\n                /* \"--CODEGEN--\":305:308   */\n              dup3\n                /* \"--CODEGEN--\":299:309   */\n              mload\n                /* \"--CODEGEN--\":295:321   */\n              and\n                /* \"--CODEGEN--\":356:360   */\n              dup2\n                /* \"--CODEGEN--\":350:353   */\n              dup5\n                /* \"--CODEGEN--\":344:354   */\n              mload\n                /* \"--CODEGEN--\":340:361   */\n              and\n                /* \"--CODEGEN--\":389:396   */\n              dup1\n                /* \"--CODEGEN--\":380:387   */\n              dup3\n                /* \"--CODEGEN--\":377:397   */\n              or\n                /* \"--CODEGEN--\":372:375   */\n              dup6\n                /* \"--CODEGEN--\":365:398   */\n              mstore\n                /* \"--CODEGEN--\":3:402   */\n              pop\n              pop\n              pop\n                /* \"background.sol\":12519:12541  abi.encodePacked(pass) */\n              pop\n              pop\n              pop\n              swap1\n              pop\n              add\n              swap2\n              pop\n              pop\n              mload(0x40)\n                /* \"--CODEGEN--\":49:53   */\n              0x20\n                /* \"--CODEGEN--\":39:46   */\n              dup2\n                /* \"--CODEGEN--\":30:37   */\n              dup4\n                /* \"--CODEGEN--\":26:47   */\n              sub\n                /* \"--CODEGEN--\":22:54   */\n              sub\n                /* \"--CODEGEN--\":13:20   */\n              dup2\n                /* \"--CODEGEN--\":6:55   */\n              mstore\n                /* \"background.sol\":12519:12541  abi.encodePacked(pass) */\n              swap1\n              0x40\n              mstore\n                /* \"background.sol\":12509:12542  keccak256(abi.encodePacked(pass)) */\n              dup1\n              mload\n              swap1\n              0x20\n              add\n              keccak256\n                /* \"background.sol\":12509:12583  keccak256(abi.encodePacked(pass)) == keccak256(abi.encodePacked(password)) */\n              eq\n                /* \"background.sol\":12506:12667  if(keccak256(abi.encodePacked(pass)) == keccak256(abi.encodePacked(password))) {\r... */\n              iszero\n              tag_48\n              jumpi\n                /* \"background.sol\":12607:12611  true */\n              0x01\n                /* \"background.sol\":12600:12611  return true */\n              swap1\n              pop\n              jump(tag_41)\n                /* \"background.sol\":12506:12667  if(keccak256(abi.encodePacked(pass)) == keccak256(abi.encodePacked(password))) {\r... */\n            tag_48:\n                /* \"background.sol\":12650:12655  false */\n              0x00\n                /* \"background.sol\":12643:12655  return false */\n              swap1\n              pop\n                /* \"background.sol\":12422:12674  function isCorrectPassword(string memory pass) public view returns(bool) {\r... */\n            tag_41:\n              swap2\n              swap1\n              pop\n              jump\t// out\n                /* \"background.sol\":14792:15605  function approveCancelRequest(uint256 index, bool flag) public {\r... */\n            tag_21:\n                /* \"background.sol\":14883:14890  manager */\n              0x01\n              0x00\n              swap1\n              sload\n              swap1\n              0x0100\n              exp\n              swap1\n              div\n              0xffffffffffffffffffffffffffffffffffffffff\n              and\n                /* \"background.sol\":14869:14890  msg.sender == manager */\n              0xffffffffffffffffffffffffffffffffffffffff\n              and\n                /* \"background.sol\":14869:14879  msg.sender */\n              caller\n                /* \"background.sol\":14869:14890  msg.sender == manager */\n              0xffffffffffffffffffffffffffffffffffffffff\n              and\n              eq\n                /* \"background.sol\":14866:15598  if(msg.sender == manager) {\r... */\n              iszero\n              tag_51\n              jumpi\n                /* \"background.sol\":14918:14922  true */\n              0x01\n                /* \"background.sol\":14910:14922  flag == true */\n              iszero\n              iszero\n                /* \"background.sol\":14910:14914  flag */\n              dup2\n                /* \"background.sol\":14910:14922  flag == true */\n              iszero\n              iszero\n              eq\n                /* \"background.sol\":14907:15587  if(flag == true) {\r... */\n              iszero\n              tag_52\n              jumpi\n                /* \"background.sol\":14943:14956  Insurance inu */\n              0x00\n                /* \"background.sol\":14977:14985  requests */\n              0x02\n                /* \"background.sol\":14986:14991  index */\n              dup4\n                /* \"background.sol\":14977:14992  requests[index] */\n              dup2\n              sload\n              dup2\n              lt\n              iszero\n              iszero\n              tag_53\n              jumpi\n              invalid\n            tag_53:\n              swap1\n              0x00\n              mstore\n              keccak256(0x00, 0x20)\n              swap1\n              0x0b\n              mul\n              add\n                /* \"background.sol\":14977:15000  requests[index].selfAdd */\n              0x01\n              add\n              0x00\n              swap1\n              sload\n              swap1\n              0x0100\n              exp\n              swap1\n              div\n              0xffffffffffffffffffffffffffffffffffffffff\n              and\n                /* \"background.sol\":14943:15002  Insurance inu = Insurance(address(requests[index].selfAdd)) */\n              swap1\n              pop\n                /* \"background.sol\":15021:15024  inu */\n              dup1\n                /* \"background.sol\":15021:15040  inu.finalizeRequest */\n              0xffffffffffffffffffffffffffffffffffffffff\n              and\n              0x72102d18\n                /* \"background.sol\":15041:15049  requests */\n              0x02\n                /* \"background.sol\":15050:15055  index */\n              dup6\n                /* \"background.sol\":15041:15056  requests[index] */\n              dup2\n              sload\n              dup2\n              lt\n              iszero\n              iszero\n              tag_55\n              jumpi\n              invalid\n            tag_55:\n              swap1\n              0x00\n              mstore\n              keccak256(0x00, 0x20)\n              swap1\n              0x0b\n              mul\n              add\n                /* \"background.sol\":15041:15062  requests[index].index */\n              0x06\n              add\n              sload\n                /* \"background.sol\":15072:15076  this */\n              address\n                /* \"background.sol\":15079:15083  true */\n              0x01\n                /* \"background.sol\":15021:15084  inu.finalizeRequest(requests[index].index, address(this), true) */\n              mload(0x40)\n              dup5\n              0xffffffff\n              and\n              0x0100000000000000000000000000000000000000000000000000000000\n              mul\n              dup2\n              mstore\n              0x04\n              add\n              tag_57\n              swap4\n              swap3\n              swap2\n              swap1\n              jump(tag_58)\n            tag_57:\n              0x00\n              mload(0x40)\n              dup1\n              dup4\n              sub\n              dup2\n              0x00\n              dup8\n              dup1\n              extcodesize\n              iszero\n                /* \"--CODEGEN--\":8:17   */\n              dup1\n                /* \"--CODEGEN--\":5:7   */\n              iszero\n              tag_59\n              jumpi\n                /* \"--CODEGEN--\":30:31   */\n              0x00\n                /* \"--CODEGEN--\":27:28   */\n              dup1\n                /* \"--CODEGEN--\":20:32   */\n              revert\n                /* \"--CODEGEN--\":5:7   */\n            tag_59:\n                /* \"background.sol\":15021:15084  inu.finalizeRequest(requests[index].index, address(this), true) */\n              pop\n              gas\n              call\n              iszero\n                /* \"--CODEGEN--\":8:17   */\n              dup1\n                /* \"--CODEGEN--\":5:7   */\n              iszero\n              tag_60\n              jumpi\n                /* \"--CODEGEN--\":45:61   */\n              returndatasize\n                /* \"--CODEGEN--\":42:43   */\n              0x00\n                /* \"--CODEGEN--\":39:40   */\n              dup1\n                /* \"--CODEGEN--\":24:62   */\n              returndatacopy\n                /* \"--CODEGEN--\":77:93   */\n              returndatasize\n                /* \"--CODEGEN--\":74:75   */\n              0x00\n                /* \"--CODEGEN--\":67:94   */\n              revert\n                /* \"--CODEGEN--\":5:7   */\n            tag_60:\n                /* \"background.sol\":15021:15084  inu.finalizeRequest(requests[index].index, address(this), true) */\n              pop\n              pop\n              pop\n              pop\n                /* \"background.sol\":15127:15131  true */\n              0x01\n                /* \"background.sol\":15103:15111  requests */\n              0x02\n                /* \"background.sol\":15112:15117  index */\n              dup5\n                /* \"background.sol\":15103:15118  requests[index] */\n              dup2\n              sload\n              dup2\n              lt\n              iszero\n              iszero\n              tag_61\n              jumpi\n              invalid\n            tag_61:\n              swap1\n              0x00\n              mstore\n              keccak256(0x00, 0x20)\n              swap1\n              0x0b\n              mul\n              add\n                /* \"background.sol\":15103:15124  requests[index].owner */\n              0x04\n              add\n              0x01\n                /* \"background.sol\":15103:15131  requests[index].owner = true */\n              0x0100\n              exp\n              dup2\n              sload\n              dup2\n              0xff\n              mul\n              not\n              and\n              swap1\n              dup4\n              iszero\n              iszero\n              mul\n              or\n              swap1\n              sstore\n              pop\n                /* \"background.sol\":15177:15181  true */\n              0x01\n                /* \"background.sol\":15150:15158  requests */\n              0x02\n                /* \"background.sol\":15159:15164  index */\n              dup5\n                /* \"background.sol\":15150:15165  requests[index] */\n              dup2\n              sload\n              dup2\n              lt\n              iszero\n              iszero\n              tag_63\n              jumpi\n              invalid\n            tag_63:\n              swap1\n              0x00\n              mstore\n              keccak256(0x00, 0x20)\n              swap1\n              0x0b\n              mul\n              add\n                /* \"background.sol\":15150:15174  requests[index].finalize */\n              0x0a\n              add\n              0x00\n                /* \"background.sol\":15150:15181  requests[index].finalize = true */\n              0x0100\n              exp\n              dup2\n              sload\n              dup2\n              0xff\n              mul\n              not\n              and\n              swap1\n              dup4\n              iszero\n              iszero\n              mul\n              or\n              swap1\n              sstore\n              pop\n                /* \"background.sol\":15205:15220  ChangeOccured() */\n              0x2b94f1e9999ff685f243474c3b8c30563987b8897fecb35c7cea9ac0f4f5c6bd\n              mload(0x40)\n              mload(0x40)\n              dup1\n              swap2\n              sub\n              swap1\n              log1\n                /* \"background.sol\":14907:15587  if(flag == true) {\r... */\n              pop\n              jump(tag_65)\n            tag_52:\n                /* \"background.sol\":15274:15287  Insurance inu */\n              0x00\n                /* \"background.sol\":15308:15316  requests */\n              0x02\n                /* \"background.sol\":15317:15322  index */\n              dup4\n                /* \"background.sol\":15308:15323  requests[index] */\n              dup2\n              sload\n              dup2\n              lt\n              iszero\n              iszero\n              tag_66\n              jumpi\n              invalid\n            tag_66:\n              swap1\n              0x00\n              mstore\n              keccak256(0x00, 0x20)\n              swap1\n              0x0b\n              mul\n              add\n                /* \"background.sol\":15308:15331  requests[index].selfAdd */\n              0x01\n              add\n              0x00\n              swap1\n              sload\n              swap1\n              0x0100\n              exp\n              swap1\n              div\n              0xffffffffffffffffffffffffffffffffffffffff\n              and\n                /* \"background.sol\":15274:15333  Insurance inu = Insurance(address(requests[index].selfAdd)) */\n              swap1\n              pop\n                /* \"background.sol\":15352:15355  inu */\n              dup1\n                /* \"background.sol\":15352:15371  inu.finalizeRequest */\n              0xffffffffffffffffffffffffffffffffffffffff\n              and\n              0x72102d18\n                /* \"background.sol\":15372:15380  requests */\n              0x02\n                /* \"background.sol\":15381:15386  index */\n              dup6\n                /* \"background.sol\":15372:15387  requests[index] */\n              dup2\n              sload\n              dup2\n              lt\n              iszero\n              iszero\n              tag_68\n              jumpi\n              invalid\n            tag_68:\n              swap1\n              0x00\n              mstore\n              keccak256(0x00, 0x20)\n              swap1\n              0x0b\n              mul\n              add\n                /* \"background.sol\":15372:15393  requests[index].index */\n              0x06\n              add\n              sload\n                /* \"background.sol\":15403:15407  this */\n              address\n                /* \"background.sol\":15410:15415  false */\n              0x00\n                /* \"background.sol\":15352:15416  inu.finalizeRequest(requests[index].index, address(this), false) */\n              mload(0x40)\n              dup5\n              0xffffffff\n              and\n              0x0100000000000000000000000000000000000000000000000000000000\n              mul\n              dup2\n              mstore\n              0x04\n              add\n              tag_70\n              swap4\n              swap3\n              swap2\n              swap1\n              jump(tag_58)\n            tag_70:\n              0x00\n              mload(0x40)\n              dup1\n              dup4\n              sub\n              dup2\n              0x00\n              dup8\n              dup1\n              extcodesize\n              iszero\n                /* \"--CODEGEN--\":8:17   */\n              dup1\n                /* \"--CODEGEN--\":5:7   */\n              iszero\n              tag_71\n              jumpi\n                /* \"--CODEGEN--\":30:31   */\n              0x00\n                /* \"--CODEGEN--\":27:28   */\n              dup1\n                /* \"--CODEGEN--\":20:32   */\n              revert\n                /* \"--CODEGEN--\":5:7   */\n            tag_71:\n                /* \"background.sol\":15352:15416  inu.finalizeRequest(requests[index].index, address(this), false) */\n              pop\n              gas\n              call\n              iszero\n                /* \"--CODEGEN--\":8:17   */\n              dup1\n                /* \"--CODEGEN--\":5:7   */\n              iszero\n              tag_72\n              jumpi\n                /* \"--CODEGEN--\":45:61   */\n              returndatasize\n                /* \"--CODEGEN--\":42:43   */\n              0x00\n                /* \"--CODEGEN--\":39:40   */\n              dup1\n                /* \"--CODEGEN--\":24:62   */\n              returndatacopy\n                /* \"--CODEGEN--\":77:93   */\n              returndatasize\n                /* \"--CODEGEN--\":74:75   */\n              0x00\n                /* \"--CODEGEN--\":67:94   */\n              revert\n                /* \"--CODEGEN--\":5:7   */\n            tag_72:\n                /* \"background.sol\":15352:15416  inu.finalizeRequest(requests[index].index, address(this), false) */\n              pop\n              pop\n              pop\n              pop\n                /* \"background.sol\":15459:15464  false */\n              0x00\n                /* \"background.sol\":15435:15443  requests */\n              0x02\n                /* \"background.sol\":15444:15449  index */\n              dup5\n                /* \"background.sol\":15435:15450  requests[index] */\n              dup2\n              sload\n              dup2\n              lt\n              iszero\n              iszero\n              tag_73\n              jumpi\n              invalid\n            tag_73:\n              swap1\n              0x00\n              mstore\n              keccak256(0x00, 0x20)\n              swap1\n              0x0b\n              mul\n              add\n                /* \"background.sol\":15435:15456  requests[index].owner */\n              0x04\n              add\n              0x01\n                /* \"background.sol\":15435:15464  requests[index].owner = false */\n              0x0100\n              exp\n              dup2\n              sload\n              dup2\n              0xff\n              mul\n              not\n              and\n              swap1\n              dup4\n              iszero\n              iszero\n              mul\n              or\n              swap1\n              sstore\n              pop\n                /* \"background.sol\":15510:15514  true */\n              0x01\n                /* \"background.sol\":15483:15491  requests */\n              0x02\n                /* \"background.sol\":15492:15497  index */\n              dup5\n                /* \"background.sol\":15483:15498  requests[index] */\n              dup2\n              sload\n              dup2\n              lt\n              iszero\n              iszero\n              tag_75\n              jumpi\n              invalid\n            tag_75:\n              swap1\n              0x00\n              mstore\n              keccak256(0x00, 0x20)\n              swap1\n              0x0b\n              mul\n              add\n                /* \"background.sol\":15483:15507  requests[index].finalize */\n              0x0a\n              add\n              0x00\n                /* \"background.sol\":15483:15514  requests[index].finalize = true */\n              0x0100\n              exp\n              dup2\n              sload\n              dup2\n              0xff\n              mul\n              not\n              and\n              swap1\n              dup4\n              iszero\n              iszero\n              mul\n              or\n              swap1\n              sstore\n              pop\n                /* \"background.sol\":15538:15553  ChangeOccured() */\n              0x2b94f1e9999ff685f243474c3b8c30563987b8897fecb35c7cea9ac0f4f5c6bd\n              mload(0x40)\n              mload(0x40)\n              dup1\n              swap2\n              sub\n              swap1\n              log1\n                /* \"background.sol\":14907:15587  if(flag == true) {\r... */\n              pop\n            tag_65:\n                /* \"background.sol\":14866:15598  if(msg.sender == manager) {\r... */\n            tag_51:\n                /* \"background.sol\":14792:15605  function approveCancelRequest(uint256 index, bool flag) public {\r... */\n              pop\n              pop\n              jump\t// out\n                /* \"background.sol\":12682:13193  function getData(string memory pass) public view returns(bool, address[] memory, Request[] memory, address) {\r... */\n            tag_24:\n                /* \"background.sol\":12739:12743  bool */\n              0x00\n                /* \"background.sol\":12745:12761  address[] memory */\n              0x60\n                /* \"background.sol\":12763:12779  Request[] memory */\n              dup1\n                /* \"background.sol\":12781:12788  address */\n              0x00\n                /* \"background.sol\":12819:12826  manager */\n              0x01\n              0x00\n              swap1\n              sload\n              swap1\n              0x0100\n              exp\n              swap1\n              div\n              0xffffffffffffffffffffffffffffffffffffffff\n              and\n                /* \"background.sol\":12805:12826  msg.sender == manager */\n              0xffffffffffffffffffffffffffffffffffffffff\n              and\n                /* \"background.sol\":12805:12815  msg.sender */\n              caller\n                /* \"background.sol\":12805:12826  msg.sender == manager */\n              0xffffffffffffffffffffffffffffffffffffffff\n              and\n              eq\n                /* \"background.sol\":12804:12856  (msg.sender == manager) && (isCorrectPassword(pass)) */\n              dup1\n              iszero\n              tag_78\n              jumpi\n              pop\n                /* \"background.sol\":12832:12855  isCorrectPassword(pass) */\n              tag_79\n                /* \"background.sol\":12850:12854  pass */\n              dup6\n                /* \"background.sol\":12832:12849  isCorrectPassword */\n              tag_15\n                /* \"background.sol\":12832:12855  isCorrectPassword(pass) */\n              jump\t// in\n            tag_79:\n                /* \"background.sol\":12804:12856  (msg.sender == manager) && (isCorrectPassword(pass)) */\n            tag_78:\n                /* \"background.sol\":12801:13186  if((msg.sender == manager) && (isCorrectPassword(pass))) {\r... */\n              iszero\n              tag_80\n              jumpi\n                /* \"background.sol\":12881:12885  true */\n              0x01\n                /* \"background.sol\":12887:12902  insuranceIssued */\n              0x03\n                /* \"background.sol\":12904:12912  requests */\n              0x02\n                /* \"background.sol\":12922:12926  this */\n              address\n                /* \"background.sol\":12873:12929  return( true, insuranceIssued, requests, address(this) ) */\n              dup3\n              dup1\n              sload\n              dup1\n              0x20\n              mul\n              0x20\n              add\n              mload(0x40)\n              swap1\n              dup2\n              add\n              0x40\n              mstore\n              dup1\n              swap3\n              swap2\n              swap1\n              dup2\n              dup2\n              mstore\n              0x20\n              add\n              dup3\n              dup1\n              sload\n              dup1\n              iszero\n              tag_81\n              jumpi\n              0x20\n              mul\n              dup3\n              add\n              swap2\n              swap1\n              0x00\n              mstore\n              keccak256(0x00, 0x20)\n              swap1\n            tag_82:\n              dup2\n              0x00\n              swap1\n              sload\n              swap1\n              0x0100\n              exp\n              swap1\n              div\n              0xffffffffffffffffffffffffffffffffffffffff\n              and\n              0xffffffffffffffffffffffffffffffffffffffff\n              and\n              dup2\n              mstore\n              0x20\n              add\n              swap1\n              0x01\n              add\n              swap1\n              dup1\n              dup4\n              gt\n              tag_82\n              jumpi\n            tag_81:\n              pop\n              pop\n              pop\n              pop\n              pop\n              swap3\n              pop\n              dup2\n              dup1\n              sload\n              dup1\n              0x20\n              mul\n              0x20\n              add\n              mload(0x40)\n              swap1\n              dup2\n              add\n              0x40\n              mstore\n              dup1\n              swap3\n              swap2\n              swap1\n              dup2\n              dup2\n              mstore\n              0x20\n              add\n              0x00\n              swap1\n            tag_83:\n              dup3\n              dup3\n              lt\n              iszero\n              tag_84\n              jumpi\n              dup4\n              dup3\n              swap1\n              0x00\n              mstore\n              keccak256(0x00, 0x20)\n              swap1\n              0x0b\n              mul\n              add\n              0x0180\n              mload(0x40)\n              swap1\n              dup2\n              add\n              0x40\n              mstore\n              swap1\n              dup2\n              0x00\n              dup3\n              add\n              0x00\n              swap1\n              sload\n              swap1\n              0x0100\n              exp\n              swap1\n              div\n              0xffffffffffffffffffffffffffffffffffffffff\n              and\n              0xffffffffffffffffffffffffffffffffffffffff\n              and\n              0xffffffffffffffffffffffffffffffffffffffff\n              and\n              dup2\n              mstore\n              0x20\n              add\n              0x01\n              dup3\n              add\n              0x00\n              swap1\n              sload\n              swap1\n              0x0100\n              exp\n              swap1\n              div\n              0xffffffffffffffffffffffffffffffffffffffff\n              and\n              0xffffffffffffffffffffffffffffffffffffffff\n              and\n              0xffffffffffffffffffffffffffffffffffffffff\n              and\n              dup2\n              mstore\n              0x20\n              add\n              0x02\n              dup3\n              add\n              dup1\n              sload\n              0x01\n              dup2\n              0x01\n              and\n              iszero\n              0x0100\n              mul\n              sub\n              and\n              0x02\n              swap1\n              div\n              dup1\n              0x1f\n              add\n              0x20\n              dup1\n              swap2\n              div\n              mul\n              0x20\n              add\n              mload(0x40)\n              swap1\n              dup2\n              add\n              0x40\n              mstore\n              dup1\n              swap3\n              swap2\n              swap1\n              dup2\n              dup2\n              mstore\n              0x20\n              add\n              dup3\n              dup1\n              sload\n              0x01\n              dup2\n              0x01\n              and\n              iszero\n              0x0100\n              mul\n              sub\n              and\n              0x02\n              swap1\n              div\n              dup1\n              iszero\n              tag_86\n              jumpi\n              dup1\n              0x1f\n              lt\n              tag_87\n              jumpi\n              0x0100\n              dup1\n              dup4\n              sload\n              div\n              mul\n              dup4\n              mstore\n              swap2\n              0x20\n              add\n              swap2\n              jump(tag_86)\n            tag_87:\n              dup3\n              add\n              swap2\n              swap1\n              0x00\n              mstore\n              keccak256(0x00, 0x20)\n              swap1\n            tag_88:\n              dup2\n              sload\n              dup2\n              mstore\n              swap1\n              0x01\n              add\n              swap1\n              0x20\n              add\n              dup1\n              dup4\n              gt\n              tag_88\n              jumpi\n              dup3\n              swap1\n              sub\n              0x1f\n              and\n              dup3\n              add\n              swap2\n            tag_86:\n              pop\n              pop\n              pop\n              pop\n              pop\n              dup2\n              mstore\n              0x20\n              add\n              0x03\n              dup3\n              add\n              dup1\n              sload\n              0x01\n              dup2\n              0x01\n              and\n              iszero\n              0x0100\n              mul\n              sub\n              and\n              0x02\n              swap1\n              div\n              dup1\n              0x1f\n              add\n              0x20\n              dup1\n              swap2\n              div\n              mul\n              0x20\n              add\n              mload(0x40)\n              swap1\n              dup2\n              add\n              0x40\n              mstore\n              dup1\n              swap3\n              swap2\n              swap1\n              dup2\n              dup2\n              mstore\n              0x20\n              add\n              dup3\n              dup1\n              sload\n              0x01\n              dup2\n              0x01\n              and\n              iszero\n              0x0100\n              mul\n              sub\n              and\n              0x02\n              swap1\n              div\n              dup1\n              iszero\n              tag_89\n              jumpi\n              dup1\n              0x1f\n              lt\n              tag_90\n              jumpi\n              0x0100\n              dup1\n              dup4\n              sload\n              div\n              mul\n              dup4\n              mstore\n              swap2\n              0x20\n              add\n              swap2\n              jump(tag_89)\n            tag_90:\n              dup3\n              add\n              swap2\n              swap1\n              0x00\n              mstore\n              keccak256(0x00, 0x20)\n              swap1\n            tag_91:\n              dup2\n              sload\n              dup2\n              mstore\n              swap1\n              0x01\n              add\n              swap1\n              0x20\n              add\n              dup1\n              dup4\n              gt\n              tag_91\n              jumpi\n              dup3\n              swap1\n              sub\n              0x1f\n              and\n              dup3\n              add\n              swap2\n            tag_89:\n              pop\n              pop\n              pop\n              pop\n              pop\n              dup2\n              mstore\n              0x20\n              add\n              0x04\n              dup3\n              add\n              0x00\n              swap1\n              sload\n              swap1\n              0x0100\n              exp\n              swap1\n              div\n              0xff\n              and\n              iszero\n              iszero\n              iszero\n              iszero\n              dup2\n              mstore\n              0x20\n              add\n              0x04\n              dup3\n              add\n              0x01\n              swap1\n              sload\n              swap1\n              0x0100\n              exp\n              swap1\n              div\n              0xff\n              and\n              iszero\n              iszero\n              iszero\n              iszero\n              dup2\n              mstore\n              0x20\n              add\n              0x05\n              dup3\n              add\n              dup1\n              sload\n              0x01\n              dup2\n              0x01\n              and\n              iszero\n              0x0100\n              mul\n              sub\n              and\n              0x02\n              swap1\n              div\n              dup1\n              0x1f\n              add\n              0x20\n              dup1\n              swap2\n              div\n              mul\n              0x20\n              add\n              mload(0x40)\n              swap1\n              dup2\n              add\n              0x40\n              mstore\n              dup1\n              swap3\n              swap2\n              swap1\n              dup2\n              dup2\n              mstore\n              0x20\n              add\n              dup3\n              dup1\n              sload\n              0x01\n              dup2\n              0x01\n              and\n              iszero\n              0x0100\n              mul\n              sub\n              and\n              0x02\n              swap1\n              div\n              dup1\n              iszero\n              tag_92\n              jumpi\n              dup1\n              0x1f\n              lt\n              tag_93\n              jumpi\n              0x0100\n              dup1\n              dup4\n              sload\n              div\n              mul\n              dup4\n              mstore\n              swap2\n              0x20\n              add\n              swap2\n              jump(tag_92)\n            tag_93:\n              dup3\n              add\n              swap2\n              swap1\n              0x00\n              mstore\n              keccak256(0x00, 0x20)\n              swap1\n            tag_94:\n              dup2\n              sload\n              dup2\n              mstore\n              swap1\n              0x01\n              add\n              swap1\n              0x20\n              add\n              dup1\n              dup4\n              gt\n              tag_94\n              jumpi\n              dup3\n              swap1\n              sub\n              0x1f\n              and\n              dup3\n              add\n              swap2\n            tag_92:\n              pop\n              pop\n              pop\n              pop\n              pop\n              dup2\n              mstore\n              0x20\n              add\n              0x06\n              dup3\n              add\n              sload\n              dup2\n              mstore\n              0x20\n              add\n              0x07\n              dup3\n              add\n              sload\n              dup2\n              mstore\n              0x20\n              add\n              0x08\n              dup3\n              add\n              sload\n              dup2\n              mstore\n              0x20\n              add\n              0x09\n              dup3\n              add\n              dup1\n              sload\n              0x01\n              dup2\n              0x01\n              and\n              iszero\n              0x0100\n              mul\n              sub\n              and\n              0x02\n              swap1\n              div\n              dup1\n              0x1f\n              add\n              0x20\n              dup1\n              swap2\n              div\n              mul\n              0x20\n              add\n              mload(0x40)\n              swap1\n              dup2\n              add\n              0x40\n              mstore\n              dup1\n              swap3\n              swap2\n              swap1\n              dup2\n              dup2\n              mstore\n              0x20\n              add\n              dup3\n              dup1\n              sload\n              0x01\n              dup2\n              0x01\n              and\n              iszero\n              0x0100\n              mul\n              sub\n              and\n              0x02\n              swap1\n              div\n              dup1\n              iszero\n              tag_95\n              jumpi\n              dup1\n              0x1f\n              lt\n              tag_96\n              jumpi\n              0x0100\n              dup1\n              dup4\n              sload\n              div\n              mul\n              dup4\n              mstore\n              swap2\n              0x20\n              add\n              swap2\n              jump(tag_95)\n            tag_96:\n              dup3\n              add\n              swap2\n              swap1\n              0x00\n              mstore\n              keccak256(0x00, 0x20)\n              swap1\n            tag_97:\n              dup2\n              sload\n              dup2\n              mstore\n              swap1\n              0x01\n              add\n              swap1\n              0x20\n              add\n              dup1\n              dup4\n              gt\n              tag_97\n              jumpi\n              dup3\n              swap1\n              sub\n              0x1f\n              and\n              dup3\n              add\n              swap2\n            tag_95:\n              pop\n              pop\n              pop\n              pop\n              pop\n              dup2\n              mstore\n              0x20\n              add\n              0x0a\n              dup3\n              add\n              0x00\n              swap1\n              sload\n              swap1\n              0x0100\n              exp\n              swap1\n              div\n              0xff\n              and\n              iszero\n              iszero\n              iszero\n              iszero\n              dup2\n              mstore\n              pop\n              pop\n              dup2\n              mstore\n              0x20\n              add\n              swap1\n              0x01\n              add\n              swap1\n              jump(tag_83)\n            tag_84:\n              pop\n              pop\n              pop\n              pop\n              swap2\n              pop\n              swap4\n              pop\n              swap4\n              pop\n              swap4\n              pop\n              swap4\n              pop\n              jump(tag_77)\n                /* \"background.sol\":12801:13186  if((msg.sender == manager) && (isCorrectPassword(pass))) {\r... */\n            tag_80:\n                /* \"background.sol\":12971:12993  address[] memory dummy */\n              0x60\n                /* \"background.sol\":13010:13011  1 */\n              0x01\n                /* \"background.sol\":12996:13012  new address[](1) */\n              mload(0x40)\n              swap1\n              dup1\n              dup3\n              mstore\n              dup1\n              0x20\n              mul\n              0x20\n              add\n              dup3\n              add\n              0x40\n              mstore\n              dup1\n              iszero\n              tag_99\n              jumpi\n              dup2\n              0x20\n              add\n                /* \"--CODEGEN--\":29:31   */\n              0x20\n                /* \"--CODEGEN--\":21:27   */\n              dup3\n                /* \"--CODEGEN--\":17:32   */\n              mul\n                /* \"--CODEGEN--\":117:121   */\n              dup1\n                /* \"--CODEGEN--\":105:115   */\n              codesize\n                /* \"--CODEGEN--\":97:103   */\n              dup4\n                /* \"--CODEGEN--\":88:122   */\n              codecopy\n                /* \"--CODEGEN--\":148:152   */\n              dup1\n                /* \"--CODEGEN--\":140:146   */\n              dup3\n                /* \"--CODEGEN--\":136:153   */\n              add\n                /* \"--CODEGEN--\":126:153   */\n              swap2\n              pop\n                /* \"--CODEGEN--\":0:157   */\n              pop\n                /* \"background.sol\":12996:13012  new address[](1) */\n              swap1\n              pop\n            tag_99:\n              pop\n                /* \"background.sol\":12971:13012  address[] memory dummy = new address[](1) */\n              swap1\n              pop\n                /* \"background.sol\":13027:13057  Request[] memory dummyRequests */\n              0x60\n                /* \"background.sol\":13074:13075  1 */\n              0x01\n                /* \"background.sol\":13060:13076  new Request[](1) */\n              mload(0x40)\n              swap1\n              dup1\n              dup3\n              mstore\n              dup1\n              0x20\n              mul\n              0x20\n              add\n              dup3\n              add\n              0x40\n              mstore\n              dup1\n              iszero\n              tag_100\n              jumpi\n              dup2\n              0x20\n              add\n            tag_101:\n              tag_102\n              tag_103\n              jump\t// in\n            tag_102:\n              dup2\n              mstore\n              0x20\n              add\n              swap1\n              0x01\n              swap1\n              sub\n              swap1\n              dup2\n              tag_101\n              jumpi\n              swap1\n              pop\n            tag_100:\n              pop\n                /* \"background.sol\":13027:13076  Request[] memory dummyRequests = new Request[](1) */\n              swap1\n              pop\n                /* \"background.sol\":13102:13107  false */\n              0x00\n                /* \"background.sol\":13109:13114  dummy */\n              dup3\n                /* \"background.sol\":13116:13129  dummyRequests */\n              dup3\n                /* \"background.sol\":13131:13173  0x0000000000000000000000000000000000000000 */\n              0x00\n                /* \"background.sol\":13093:13174  return ( false, dummy, dummyRequests, 0x0000000000000000000000000000000000000000) */\n              dup1\n              swap1\n              pop\n              swap6\n              pop\n              swap6\n              pop\n              swap6\n              pop\n              swap6\n              pop\n              pop\n              pop\n                /* \"background.sol\":12682:13193  function getData(string memory pass) public view returns(bool, address[] memory, Request[] memory, address) {\r... */\n            tag_77:\n              swap2\n              swap4\n              pop\n              swap2\n              swap4\n              jump\t// out\n                /* \"background.sol\":13201:13932  function createInsurance(string memory name, int aadhar, int amount, string memory insDetailss, string memory documentss, int setInsuranceAddresss, int count) public  {\r... */\n            tag_30:\n                /* \"background.sol\":13397:13404  manager */\n              0x01\n              0x00\n              swap1\n              sload\n              swap1\n              0x0100\n              exp\n              swap1\n              div\n              0xffffffffffffffffffffffffffffffffffffffff\n              and\n                /* \"background.sol\":13383:13404  msg.sender == manager */\n              0xffffffffffffffffffffffffffffffffffffffff\n              and\n                /* \"background.sol\":13383:13393  msg.sender */\n              caller\n                /* \"background.sol\":13383:13404  msg.sender == manager */\n              0xffffffffffffffffffffffffffffffffffffffff\n              and\n              eq\n                /* \"background.sol\":13379:13925  if( msg.sender == manager ) {\r... */\n              iszero\n              tag_105\n              jumpi\n                /* \"background.sol\":13422:13442  address newInsurance */\n              0x00\n                /* \"background.sol\":13475:13479  this */\n              address\n                /* \"background.sol\":13482:13486  name */\n              dup9\n                /* \"background.sol\":13488:13494  aadhar */\n              dup9\n                /* \"background.sol\":13496:13502  amount */\n              dup9\n                /* \"background.sol\":13504:13515  insDetailss */\n              dup9\n                /* \"background.sol\":13517:13527  documentss */\n              dup9\n                /* \"background.sol\":13453:13528  new Insurance(address(this), name, aadhar, amount, insDetailss, documentss) */\n              tag_106\n              tag_107\n              jump\t// in\n            tag_106:\n              tag_108\n              swap7\n              swap6\n              swap5\n              swap4\n              swap3\n              swap2\n              swap1\n              jump(tag_109)\n            tag_108:\n              mload(0x40)\n              dup1\n              swap2\n              sub\n              swap1\n              0x00\n              create\n              dup1\n              iszero\n                /* \"--CODEGEN--\":8:17   */\n              dup1\n                /* \"--CODEGEN--\":5:7   */\n              iszero\n              tag_110\n              jumpi\n                /* \"--CODEGEN--\":45:61   */\n              returndatasize\n                /* \"--CODEGEN--\":42:43   */\n              0x00\n                /* \"--CODEGEN--\":39:40   */\n              dup1\n                /* \"--CODEGEN--\":24:62   */\n              returndatacopy\n                /* \"--CODEGEN--\":77:93   */\n              returndatasize\n                /* \"--CODEGEN--\":74:75   */\n              0x00\n                /* \"--CODEGEN--\":67:94   */\n              revert\n                /* \"--CODEGEN--\":5:7   */\n            tag_110:\n                /* \"background.sol\":13453:13528  new Insurance(address(this), name, aadhar, amount, insDetailss, documentss) */\n              pop\n                /* \"background.sol\":13422:13529  address newInsurance = address(new Insurance(address(this), name, aadhar, amount, insDetailss, documentss)) */\n              swap1\n              pop\n                /* \"background.sol\":13544:13559  insuranceIssued */\n              0x03\n                /* \"background.sol\":13565:13577  newInsurance */\n              dup2\n                /* \"background.sol\":13544:13578  insuranceIssued.push(newInsurance) */\n              swap1\n              dup1\n                /* \"--CODEGEN--\":39:40   */\n              0x01\n                /* \"--CODEGEN--\":33:36   */\n              dup2\n                /* \"--CODEGEN--\":27:37   */\n              sload\n                /* \"--CODEGEN--\":23:41   */\n              add\n                /* \"--CODEGEN--\":57:67   */\n              dup1\n                /* \"--CODEGEN--\":52:55   */\n              dup3\n                /* \"--CODEGEN--\":45:68   */\n              sstore\n                /* \"--CODEGEN--\":79:89   */\n              dup1\n                /* \"--CODEGEN--\":72:89   */\n              swap2\n              pop\n                /* \"--CODEGEN--\":0:93   */\n              pop\n                /* \"background.sol\":13544:13578  insuranceIssued.push(newInsurance) */\n              swap1\n              0x01\n              dup3\n              sub\n              swap1\n              0x00\n              mstore\n              keccak256(0x00, 0x20)\n              add\n              0x00\n              swap1\n              swap2\n              swap3\n              swap1\n              swap2\n              swap1\n              swap2\n              0x0100\n              exp\n              dup2\n              sload\n              dup2\n              0xffffffffffffffffffffffffffffffffffffffff\n              mul\n              not\n              and\n              swap1\n              dup4\n              0xffffffffffffffffffffffffffffffffffffffff\n              and\n              mul\n              or\n              swap1\n              sstore\n              pop\n              pop\n                /* \"background.sol\":13627:13631  true */\n              0x01\n                /* \"background.sol\":13593:13610  isIssuedInsurance */\n              0x04\n                /* \"background.sol\":13593:13624  isIssuedInsurance[newInsurance] */\n              0x00\n                /* \"background.sol\":13611:13623  newInsurance */\n              dup4\n                /* \"background.sol\":13593:13624  isIssuedInsurance[newInsurance] */\n              0xffffffffffffffffffffffffffffffffffffffff\n              and\n              0xffffffffffffffffffffffffffffffffffffffff\n              and\n              dup2\n              mstore\n              0x20\n              add\n              swap1\n              dup2\n              mstore\n              0x20\n              add\n              0x00\n              keccak256\n              0x00\n                /* \"background.sol\":13593:13631  isIssuedInsurance[newInsurance] = true */\n              0x0100\n              exp\n              dup2\n              sload\n              dup2\n              0xff\n              mul\n              not\n              and\n              swap1\n              dup4\n              iszero\n              iszero\n              mul\n              or\n              swap1\n              sstore\n              pop\n                /* \"background.sol\":13646:13656  Mapping mp */\n              0x00\n                /* \"background.sol\":13667:13709  0x034E524e35a165c5d829b2985EAdDe75562Ed15C */\n              0x034e524e35a165c5d829b2985eadde75562ed15c\n                /* \"background.sol\":13646:13710  Mapping mp = Mapping(0x034E524e35a165c5d829b2985EAdDe75562Ed15C) */\n              swap1\n              pop\n                /* \"background.sol\":13725:13742  AddressMapping hh */\n              0x00\n                /* \"background.sol\":13760:13762  mp */\n              dup2\n                /* \"background.sol\":13760:13787  mp.getAddressMappingAddress */\n              0xffffffffffffffffffffffffffffffffffffffff\n              and\n              0xde96b851\n                /* \"background.sol\":13760:13789  mp.getAddressMappingAddress() */\n              mload(0x40)\n              dup2\n              0xffffffff\n              and\n              0x0100000000000000000000000000000000000000000000000000000000\n              mul\n              dup2\n              mstore\n              0x04\n              add\n              0x20\n              mload(0x40)\n              dup1\n              dup4\n              sub\n              dup2\n              dup7\n              dup1\n              extcodesize\n              iszero\n                /* \"--CODEGEN--\":8:17   */\n              dup1\n                /* \"--CODEGEN--\":5:7   */\n              iszero\n              tag_112\n              jumpi\n                /* \"--CODEGEN--\":30:31   */\n              0x00\n                /* \"--CODEGEN--\":27:28   */\n              dup1\n                /* \"--CODEGEN--\":20:32   */\n              revert\n                /* \"--CODEGEN--\":5:7   */\n            tag_112:\n                /* \"background.sol\":13760:13789  mp.getAddressMappingAddress() */\n              pop\n              gas\n              staticcall\n              iszero\n                /* \"--CODEGEN--\":8:17   */\n              dup1\n                /* \"--CODEGEN--\":5:7   */\n              iszero\n              tag_113\n              jumpi\n                /* \"--CODEGEN--\":45:61   */\n              returndatasize\n                /* \"--CODEGEN--\":42:43   */\n              0x00\n                /* \"--CODEGEN--\":39:40   */\n              dup1\n                /* \"--CODEGEN--\":24:62   */\n              returndatacopy\n                /* \"--CODEGEN--\":77:93   */\n              returndatasize\n                /* \"--CODEGEN--\":74:75   */\n              0x00\n                /* \"--CODEGEN--\":67:94   */\n              revert\n                /* \"--CODEGEN--\":5:7   */\n            tag_113:\n                /* \"background.sol\":13760:13789  mp.getAddressMappingAddress() */\n              pop\n              pop\n              pop\n              pop\n              mload(0x40)\n              returndatasize\n                /* \"--CODEGEN--\":101:105   */\n              0x1f\n                /* \"--CODEGEN--\":97:106   */\n              not\n                /* \"--CODEGEN--\":90:94   */\n              0x1f\n                /* \"--CODEGEN--\":84:88   */\n              dup3\n                /* \"--CODEGEN--\":80:95   */\n              add\n                /* \"--CODEGEN--\":76:107   */\n              and\n                /* \"--CODEGEN--\":69:74   */\n              dup3\n                /* \"--CODEGEN--\":65:108   */\n              add\n                /* \"--CODEGEN--\":126:132   */\n              dup1\n                /* \"--CODEGEN--\":120:124   */\n              0x40\n                /* \"--CODEGEN--\":113:133   */\n              mstore\n                /* \"--CODEGEN--\":0:138   */\n              pop\n                /* \"background.sol\":13760:13789  mp.getAddressMappingAddress() */\n              tag_114\n              swap2\n              swap1\n              dup2\n              add\n              swap1\n              jump(tag_115)\n            tag_114:\n                /* \"background.sol\":13725:13790  AddressMapping hh = AddressMapping(mp.getAddressMappingAddress()) */\n              swap1\n              pop\n                /* \"background.sol\":13805:13807  hh */\n              dup1\n                /* \"background.sol\":13805:13827  hh.setInsuranceAddress */\n              0xffffffffffffffffffffffffffffffffffffffff\n              and\n              0x4abeed14\n                /* \"background.sol\":13828:13848  setInsuranceAddresss */\n              dup7\n                /* \"background.sol\":13850:13862  newInsurance */\n              dup6\n                /* \"background.sol\":13864:13870  aadhar */\n              dup13\n                /* \"background.sol\":13872:13877  count */\n              dup9\n                /* \"background.sol\":13805:13878  hh.setInsuranceAddress(setInsuranceAddresss, newInsurance, aadhar, count) */\n              mload(0x40)\n              dup6\n              0xffffffff\n              and\n              0x0100000000000000000000000000000000000000000000000000000000\n              mul\n              dup2\n              mstore\n              0x04\n              add\n              tag_116\n              swap5\n              swap4\n              swap3\n              swap2\n              swap1\n              jump(tag_117)\n            tag_116:\n              0x00\n              mload(0x40)\n              dup1\n              dup4\n              sub\n              dup2\n              0x00\n              dup8\n              dup1\n              extcodesize\n              iszero\n                /* \"--CODEGEN--\":8:17   */\n              dup1\n                /* \"--CODEGEN--\":5:7   */\n              iszero\n              tag_118\n              jumpi\n                /* \"--CODEGEN--\":30:31   */\n              0x00\n                /* \"--CODEGEN--\":27:28   */\n              dup1\n                /* \"--CODEGEN--\":20:32   */\n              revert\n                /* \"--CODEGEN--\":5:7   */\n            tag_118:\n                /* \"background.sol\":13805:13878  hh.setInsuranceAddress(setInsuranceAddresss, newInsurance, aadhar, count) */\n              pop\n              gas\n              call\n              iszero\n                /* \"--CODEGEN--\":8:17   */\n              dup1\n                /* \"--CODEGEN--\":5:7   */\n              iszero\n              tag_119\n              jumpi\n                /* \"--CODEGEN--\":45:61   */\n              returndatasize\n                /* \"--CODEGEN--\":42:43   */\n              0x00\n                /* \"--CODEGEN--\":39:40   */\n              dup1\n                /* \"--CODEGEN--\":24:62   */\n              returndatacopy\n                /* \"--CODEGEN--\":77:93   */\n              returndatasize\n                /* \"--CODEGEN--\":74:75   */\n              0x00\n                /* \"--CODEGEN--\":67:94   */\n              revert\n                /* \"--CODEGEN--\":5:7   */\n            tag_119:\n                /* \"background.sol\":13805:13878  hh.setInsuranceAddress(setInsuranceAddresss, newInsurance, aadhar, count) */\n              pop\n              pop\n              pop\n              pop\n                /* \"background.sol\":13898:13913  ChangeOccured() */\n              0x2b94f1e9999ff685f243474c3b8c30563987b8897fecb35c7cea9ac0f4f5c6bd\n              mload(0x40)\n              mload(0x40)\n              dup1\n              swap2\n              sub\n              swap1\n              log1\n                /* \"background.sol\":13379:13925  if( msg.sender == manager ) {\r... */\n              pop\n              pop\n              pop\n            tag_105:\n                /* \"background.sol\":13201:13932  function createInsurance(string memory name, int aadhar, int amount, string memory insDetailss, string memory documentss, int setInsuranceAddresss, int count) public  {\r... */\n              pop\n              pop\n              pop\n              pop\n              pop\n              pop\n              pop\n              jump\t// out\n                /* \"background.sol\":11761:15612  contract Owner {\r... */\n            tag_34:\n              0x0180\n              mload(0x40)\n              swap1\n              dup2\n              add\n              0x40\n              mstore\n              dup1\n              and(0xffffffffffffffffffffffffffffffffffffffff, 0x00)\n              dup2\n              mstore\n              0x20\n              add\n              and(0xffffffffffffffffffffffffffffffffffffffff, 0x00)\n              dup2\n              mstore\n              0x20\n              add\n              0x60\n              dup2\n              mstore\n              0x20\n              add\n              0x60\n              dup2\n              mstore\n              0x20\n              add\n              iszero(iszero(0x00))\n              dup2\n              mstore\n              0x20\n              add\n              iszero(iszero(0x00))\n              dup2\n              mstore\n              0x20\n              add\n              0x60\n              dup2\n              mstore\n              0x20\n              add\n              0x00\n              dup2\n              mstore\n              0x20\n              add\n              0x00\n              dup2\n              mstore\n              0x20\n              add\n              0x00\n              dup2\n              mstore\n              0x20\n              add\n              0x60\n              dup2\n              mstore\n              0x20\n              add\n              iszero(iszero(0x00))\n              dup2\n              mstore\n              pop\n              swap1\n              jump\t// out\n            tag_37:\n              dup3\n              dup1\n              sload\n              0x01\n              dup2\n              0x01\n              and\n              iszero\n              0x0100\n              mul\n              sub\n              and\n              0x02\n              swap1\n              div\n              swap1\n              0x00\n              mstore\n              keccak256(0x00, 0x20)\n              swap1\n              0x1f\n              add\n              0x20\n              swap1\n              div\n              dup2\n              add\n              swap3\n              dup3\n              0x1f\n              lt\n              tag_121\n              jumpi\n              dup1\n              mload\n              not(0xff)\n              and\n              dup4\n              dup1\n              add\n              or\n              dup6\n              sstore\n              jump(tag_120)\n            tag_121:\n              dup3\n              dup1\n              add\n              0x01\n              add\n              dup6\n              sstore\n              dup3\n              iszero\n              tag_120\n              jumpi\n              swap2\n              dup3\n              add\n            tag_122:\n              dup3\n              dup2\n              gt\n              iszero\n              tag_123\n              jumpi\n              dup3\n              mload\n              dup3\n              sstore\n              swap2\n              0x20\n              add\n              swap2\n              swap1\n              0x01\n              add\n              swap1\n              jump(tag_122)\n            tag_123:\n            tag_120:\n              pop\n              swap1\n              pop\n              tag_124\n              swap2\n              swap1\n              tag_125\n              jump\t// in\n            tag_124:\n              pop\n              swap1\n              jump\t// out\n            tag_103:\n              0x0180\n              mload(0x40)\n              swap1\n              dup2\n              add\n              0x40\n              mstore\n              dup1\n              and(0xffffffffffffffffffffffffffffffffffffffff, 0x00)\n              dup2\n              mstore\n              0x20\n              add\n              and(0xffffffffffffffffffffffffffffffffffffffff, 0x00)\n              dup2\n              mstore\n              0x20\n              add\n              0x60\n              dup2\n              mstore\n              0x20\n              add\n              0x60\n              dup2\n              mstore\n              0x20\n              add\n              iszero(iszero(0x00))\n              dup2\n              mstore\n              0x20\n              add\n              iszero(iszero(0x00))\n              dup2\n              mstore\n              0x20\n              add\n              0x60\n              dup2\n              mstore\n              0x20\n              add\n              0x00\n              dup2\n              mstore\n              0x20\n              add\n              0x00\n              dup2\n              mstore\n              0x20\n              add\n              0x00\n              dup2\n              mstore\n              0x20\n              add\n              0x60\n              dup2\n              mstore\n              0x20\n              add\n              iszero(iszero(0x00))\n              dup2\n              mstore\n              pop\n              swap1\n              jump\t// out\n            tag_107:\n              mload(0x40)\n              dataSize(sub_0)\n              dup1\n              dataOffset(sub_0)\n              dup4\n              codecopy\n              add\n              swap1\n              jump\t// out\n            tag_125:\n              tag_126\n              swap2\n              swap1\n            tag_127:\n              dup1\n              dup3\n              gt\n              iszero\n              tag_128\n              jumpi\n              0x00\n              dup2\n              0x00\n              swap1\n              sstore\n              pop\n              0x01\n              add\n              jump(tag_127)\n            tag_128:\n              pop\n              swap1\n              jump\n            tag_126:\n              swap1\n              jump\t// out\n                /* \"--CODEGEN--\":5:123   */\n            tag_130:\n              0x00\n                /* \"--CODEGEN--\":72:118   */\n              tag_131\n                /* \"--CODEGEN--\":110:116   */\n              dup3\n                /* \"--CODEGEN--\":97:117   */\n              calldataload\n                /* \"--CODEGEN--\":72:118   */\n              jump(tag_132)\n            tag_131:\n                /* \"--CODEGEN--\":63:118   */\n              swap1\n              pop\n                /* \"--CODEGEN--\":57:123   */\n              swap3\n              swap2\n              pop\n              pop\n              jump\n                /* \"--CODEGEN--\":130:252   */\n            tag_134:\n              0x00\n                /* \"--CODEGEN--\":208:247   */\n              tag_135\n                /* \"--CODEGEN--\":239:245   */\n              dup3\n                /* \"--CODEGEN--\":233:246   */\n              mload\n                /* \"--CODEGEN--\":208:247   */\n              jump(tag_132)\n            tag_135:\n                /* \"--CODEGEN--\":199:247   */\n              swap1\n              pop\n                /* \"--CODEGEN--\":193:252   */\n              swap3\n              swap2\n              pop\n              pop\n              jump\n                /* \"--CODEGEN--\":259:371   */\n            tag_137:\n              0x00\n                /* \"--CODEGEN--\":323:366   */\n              tag_138\n                /* \"--CODEGEN--\":358:364   */\n              dup3\n                /* \"--CODEGEN--\":345:365   */\n              calldataload\n                /* \"--CODEGEN--\":323:366   */\n              jump(tag_139)\n            tag_138:\n                /* \"--CODEGEN--\":314:366   */\n              swap1\n              pop\n                /* \"--CODEGEN--\":308:371   */\n              swap3\n              swap2\n              pop\n              pop\n              jump\n                /* \"--CODEGEN--\":378:494   */\n            tag_141:\n              0x00\n                /* \"--CODEGEN--\":444:489   */\n              tag_142\n                /* \"--CODEGEN--\":481:487   */\n              dup3\n                /* \"--CODEGEN--\":468:488   */\n              calldataload\n                /* \"--CODEGEN--\":444:489   */\n              jump(tag_143)\n            tag_142:\n                /* \"--CODEGEN--\":435:489   */\n              swap1\n              pop\n                /* \"--CODEGEN--\":429:494   */\n              swap3\n              swap2\n              pop\n              pop\n              jump\n                /* \"--CODEGEN--\":502:944   */\n            tag_145:\n              0x00\n                /* \"--CODEGEN--\":604:607   */\n              dup3\n                /* \"--CODEGEN--\":597:601   */\n              0x1f\n                /* \"--CODEGEN--\":589:595   */\n              dup4\n                /* \"--CODEGEN--\":585:602   */\n              add\n                /* \"--CODEGEN--\":581:608   */\n              slt\n                /* \"--CODEGEN--\":574:609   */\n              iszero\n                /* \"--CODEGEN--\":571:573   */\n              iszero\n              tag_146\n              jumpi\n                /* \"--CODEGEN--\":622:623   */\n              0x00\n                /* \"--CODEGEN--\":619:620   */\n              dup1\n                /* \"--CODEGEN--\":612:624   */\n              revert\n                /* \"--CODEGEN--\":571:573   */\n            tag_146:\n                /* \"--CODEGEN--\":659:665   */\n              dup2\n                /* \"--CODEGEN--\":646:666   */\n              calldataload\n                /* \"--CODEGEN--\":681:746   */\n              tag_147\n                /* \"--CODEGEN--\":696:745   */\n              tag_148\n                /* \"--CODEGEN--\":738:744   */\n              dup3\n                /* \"--CODEGEN--\":696:745   */\n              jump(tag_149)\n            tag_148:\n                /* \"--CODEGEN--\":681:746   */\n              jump(tag_150)\n            tag_147:\n                /* \"--CODEGEN--\":672:746   */\n              swap2\n              pop\n                /* \"--CODEGEN--\":766:772   */\n              dup1\n                /* \"--CODEGEN--\":759:764   */\n              dup3\n                /* \"--CODEGEN--\":752:773   */\n              mstore\n                /* \"--CODEGEN--\":802:806   */\n              0x20\n                /* \"--CODEGEN--\":794:800   */\n              dup4\n                /* \"--CODEGEN--\":790:807   */\n              add\n                /* \"--CODEGEN--\":835:839   */\n              0x20\n                /* \"--CODEGEN--\":828:833   */\n              dup4\n                /* \"--CODEGEN--\":824:840   */\n              add\n                /* \"--CODEGEN--\":870:873   */\n              dup6\n                /* \"--CODEGEN--\":861:867   */\n              dup4\n                /* \"--CODEGEN--\":856:859   */\n              dup4\n                /* \"--CODEGEN--\":852:868   */\n              add\n                /* \"--CODEGEN--\":849:874   */\n              gt\n                /* \"--CODEGEN--\":846:848   */\n              iszero\n              tag_151\n              jumpi\n                /* \"--CODEGEN--\":887:888   */\n              0x00\n                /* \"--CODEGEN--\":884:885   */\n              dup1\n                /* \"--CODEGEN--\":877:889   */\n              revert\n                /* \"--CODEGEN--\":846:848   */\n            tag_151:\n                /* \"--CODEGEN--\":897:938   */\n              tag_152\n                /* \"--CODEGEN--\":931:937   */\n              dup4\n                /* \"--CODEGEN--\":926:929   */\n              dup3\n                /* \"--CODEGEN--\":921:924   */\n              dup5\n                /* \"--CODEGEN--\":897:938   */\n              jump(tag_153)\n            tag_152:\n                /* \"--CODEGEN--\":564:944   */\n              pop\n              pop\n              pop\n              swap3\n              swap2\n              pop\n              pop\n              jump\n                /* \"--CODEGEN--\":952:1070   */\n            tag_155:\n              0x00\n                /* \"--CODEGEN--\":1019:1065   */\n              tag_156\n                /* \"--CODEGEN--\":1057:1063   */\n              dup3\n                /* \"--CODEGEN--\":1044:1064   */\n              calldataload\n                /* \"--CODEGEN--\":1019:1065   */\n              jump(tag_157)\n            tag_156:\n                /* \"--CODEGEN--\":1010:1065   */\n              swap1\n              pop\n                /* \"--CODEGEN--\":1004:1070   */\n              swap3\n              swap2\n              pop\n              pop\n              jump\n                /* \"--CODEGEN--\":1077:1340   */\n            tag_115:\n              0x00\n                /* \"--CODEGEN--\":1192:1194   */\n              0x20\n                /* \"--CODEGEN--\":1180:1189   */\n              dup3\n                /* \"--CODEGEN--\":1171:1178   */\n              dup5\n                /* \"--CODEGEN--\":1167:1190   */\n              sub\n                /* \"--CODEGEN--\":1163:1195   */\n              slt\n                /* \"--CODEGEN--\":1160:1162   */\n              iszero\n              tag_159\n              jumpi\n                /* \"--CODEGEN--\":1208:1209   */\n              0x00\n                /* \"--CODEGEN--\":1205:1206   */\n              dup1\n                /* \"--CODEGEN--\":1198:1210   */\n              revert\n                /* \"--CODEGEN--\":1160:1162   */\n            tag_159:\n                /* \"--CODEGEN--\":1243:1244   */\n              0x00\n                /* \"--CODEGEN--\":1260:1324   */\n              tag_160\n                /* \"--CODEGEN--\":1316:1323   */\n              dup5\n                /* \"--CODEGEN--\":1307:1313   */\n              dup3\n                /* \"--CODEGEN--\":1296:1305   */\n              dup6\n                /* \"--CODEGEN--\":1292:1314   */\n              add\n                /* \"--CODEGEN--\":1260:1324   */\n              jump(tag_134)\n            tag_160:\n                /* \"--CODEGEN--\":1250:1324   */\n              swap2\n              pop\n                /* \"--CODEGEN--\":1222:1330   */\n              pop\n                /* \"--CODEGEN--\":1154:1340   */\n              swap3\n              swap2\n              pop\n              pop\n              jump\n                /* \"--CODEGEN--\":1347:3130   */\n            tag_10:\n              0x00\n              dup1\n              0x00\n              dup1\n              0x00\n              dup1\n              0x00\n              dup1\n              0x00\n              dup1\n                /* \"--CODEGEN--\":1637:1640   */\n              0x0140\n                /* \"--CODEGEN--\":1625:1634   */\n              dup12\n                /* \"--CODEGEN--\":1616:1623   */\n              dup14\n                /* \"--CODEGEN--\":1612:1635   */\n              sub\n                /* \"--CODEGEN--\":1608:1641   */\n              slt\n                /* \"--CODEGEN--\":1605:1607   */\n              iszero\n              tag_162\n              jumpi\n                /* \"--CODEGEN--\":1654:1655   */\n              0x00\n                /* \"--CODEGEN--\":1651:1652   */\n              dup1\n                /* \"--CODEGEN--\":1644:1656   */\n              revert\n                /* \"--CODEGEN--\":1605:1607   */\n            tag_162:\n                /* \"--CODEGEN--\":1689:1690   */\n              0x00\n                /* \"--CODEGEN--\":1706:1759   */\n              tag_163\n                /* \"--CODEGEN--\":1751:1758   */\n              dup14\n                /* \"--CODEGEN--\":1742:1748   */\n              dup3\n                /* \"--CODEGEN--\":1731:1740   */\n              dup15\n                /* \"--CODEGEN--\":1727:1749   */\n              add\n                /* \"--CODEGEN--\":1706:1759   */\n              jump(tag_130)\n            tag_163:\n                /* \"--CODEGEN--\":1696:1759   */\n              swap11\n              pop\n                /* \"--CODEGEN--\":1668:1765   */\n              pop\n                /* \"--CODEGEN--\":1796:1798   */\n              0x20\n                /* \"--CODEGEN--\":1814:1867   */\n              tag_164\n                /* \"--CODEGEN--\":1859:1866   */\n              dup14\n                /* \"--CODEGEN--\":1850:1856   */\n              dup3\n                /* \"--CODEGEN--\":1839:1848   */\n              dup15\n                /* \"--CODEGEN--\":1835:1857   */\n              add\n                /* \"--CODEGEN--\":1814:1867   */\n              jump(tag_130)\n            tag_164:\n                /* \"--CODEGEN--\":1804:1867   */\n              swap10\n              pop\n                /* \"--CODEGEN--\":1775:1873   */\n              pop\n                /* \"--CODEGEN--\":1932:1934   */\n              0x40\n                /* \"--CODEGEN--\":1921:1930   */\n              dup12\n                /* \"--CODEGEN--\":1917:1935   */\n              add\n                /* \"--CODEGEN--\":1904:1936   */\n              calldataload\n                /* \"--CODEGEN--\":1956:1974   */\n              0xffffffffffffffff\n                /* \"--CODEGEN--\":1948:1954   */\n              dup2\n                /* \"--CODEGEN--\":1945:1975   */\n              gt\n                /* \"--CODEGEN--\":1942:1944   */\n              iszero\n              tag_165\n              jumpi\n                /* \"--CODEGEN--\":1988:1989   */\n              0x00\n                /* \"--CODEGEN--\":1985:1986   */\n              dup1\n                /* \"--CODEGEN--\":1978:1990   */\n              revert\n                /* \"--CODEGEN--\":1942:1944   */\n            tag_165:\n                /* \"--CODEGEN--\":2008:2071   */\n              tag_166\n                /* \"--CODEGEN--\":2063:2070   */\n              dup14\n                /* \"--CODEGEN--\":2054:2060   */\n              dup3\n                /* \"--CODEGEN--\":2043:2052   */\n              dup15\n                /* \"--CODEGEN--\":2039:2061   */\n              add\n                /* \"--CODEGEN--\":2008:2071   */\n              jump(tag_145)\n            tag_166:\n                /* \"--CODEGEN--\":1998:2071   */\n              swap9\n              pop\n                /* \"--CODEGEN--\":1883:2077   */\n              pop\n                /* \"--CODEGEN--\":2136:2138   */\n              0x60\n                /* \"--CODEGEN--\":2125:2134   */\n              dup12\n                /* \"--CODEGEN--\":2121:2139   */\n              add\n                /* \"--CODEGEN--\":2108:2140   */\n              calldataload\n                /* \"--CODEGEN--\":2160:2178   */\n              0xffffffffffffffff\n                /* \"--CODEGEN--\":2152:2158   */\n              dup2\n                /* \"--CODEGEN--\":2149:2179   */\n              gt\n                /* \"--CODEGEN--\":2146:2148   */\n              iszero\n              tag_167\n              jumpi\n                /* \"--CODEGEN--\":2192:2193   */\n              0x00\n                /* \"--CODEGEN--\":2189:2190   */\n              dup1\n                /* \"--CODEGEN--\":2182:2194   */\n              revert\n                /* \"--CODEGEN--\":2146:2148   */\n            tag_167:\n                /* \"--CODEGEN--\":2212:2275   */\n              tag_168\n                /* \"--CODEGEN--\":2267:2274   */\n              dup14\n                /* \"--CODEGEN--\":2258:2264   */\n              dup3\n                /* \"--CODEGEN--\":2247:2256   */\n              dup15\n                /* \"--CODEGEN--\":2243:2265   */\n              add\n                /* \"--CODEGEN--\":2212:2275   */\n              jump(tag_145)\n            tag_168:\n                /* \"--CODEGEN--\":2202:2275   */\n              swap8\n              pop\n                /* \"--CODEGEN--\":2087:2281   */\n              pop\n                /* \"--CODEGEN--\":2340:2343   */\n              0x80\n                /* \"--CODEGEN--\":2329:2338   */\n              dup12\n                /* \"--CODEGEN--\":2325:2344   */\n              add\n                /* \"--CODEGEN--\":2312:2345   */\n              calldataload\n                /* \"--CODEGEN--\":2365:2383   */\n              0xffffffffffffffff\n                /* \"--CODEGEN--\":2357:2363   */\n              dup2\n                /* \"--CODEGEN--\":2354:2384   */\n              gt\n                /* \"--CODEGEN--\":2351:2353   */\n              iszero\n              tag_169\n              jumpi\n                /* \"--CODEGEN--\":2397:2398   */\n              0x00\n                /* \"--CODEGEN--\":2394:2395   */\n              dup1\n                /* \"--CODEGEN--\":2387:2399   */\n              revert\n                /* \"--CODEGEN--\":2351:2353   */\n            tag_169:\n                /* \"--CODEGEN--\":2417:2480   */\n              tag_170\n                /* \"--CODEGEN--\":2472:2479   */\n              dup14\n                /* \"--CODEGEN--\":2463:2469   */\n              dup3\n                /* \"--CODEGEN--\":2452:2461   */\n              dup15\n                /* \"--CODEGEN--\":2448:2470   */\n              add\n                /* \"--CODEGEN--\":2417:2480   */\n              jump(tag_145)\n            tag_170:\n                /* \"--CODEGEN--\":2407:2480   */\n              swap7\n              pop\n                /* \"--CODEGEN--\":2291:2486   */\n              pop\n                /* \"--CODEGEN--\":2517:2520   */\n              0xa0\n                /* \"--CODEGEN--\":2536:2586   */\n              tag_171\n                /* \"--CODEGEN--\":2578:2585   */\n              dup14\n                /* \"--CODEGEN--\":2569:2575   */\n              dup3\n                /* \"--CODEGEN--\":2558:2567   */\n              dup15\n                /* \"--CODEGEN--\":2554:2576   */\n              add\n                /* \"--CODEGEN--\":2536:2586   */\n              jump(tag_137)\n            tag_171:\n                /* \"--CODEGEN--\":2526:2586   */\n              swap6\n              pop\n                /* \"--CODEGEN--\":2496:2592   */\n              pop\n                /* \"--CODEGEN--\":2623:2626   */\n              0xc0\n                /* \"--CODEGEN--\":2642:2692   */\n              tag_172\n                /* \"--CODEGEN--\":2684:2691   */\n              dup14\n                /* \"--CODEGEN--\":2675:2681   */\n              dup3\n                /* \"--CODEGEN--\":2664:2673   */\n              dup15\n                /* \"--CODEGEN--\":2660:2682   */\n              add\n                /* \"--CODEGEN--\":2642:2692   */\n              jump(tag_137)\n            tag_172:\n                /* \"--CODEGEN--\":2632:2692   */\n              swap5\n              pop\n                /* \"--CODEGEN--\":2602:2698   */\n              pop\n                /* \"--CODEGEN--\":2729:2732   */\n              0xe0\n                /* \"--CODEGEN--\":2748:2801   */\n              tag_173\n                /* \"--CODEGEN--\":2793:2800   */\n              dup14\n                /* \"--CODEGEN--\":2784:2790   */\n              dup3\n                /* \"--CODEGEN--\":2773:2782   */\n              dup15\n                /* \"--CODEGEN--\":2769:2791   */\n              add\n                /* \"--CODEGEN--\":2748:2801   */\n              jump(tag_155)\n            tag_173:\n                /* \"--CODEGEN--\":2738:2801   */\n              swap4\n              pop\n                /* \"--CODEGEN--\":2708:2807   */\n              pop\n                /* \"--CODEGEN--\":2838:2841   */\n              0x0100\n                /* \"--CODEGEN--\":2857:2909   */\n              tag_174\n                /* \"--CODEGEN--\":2901:2908   */\n              dup14\n                /* \"--CODEGEN--\":2892:2898   */\n              dup3\n                /* \"--CODEGEN--\":2881:2890   */\n              dup15\n                /* \"--CODEGEN--\":2877:2899   */\n              add\n                /* \"--CODEGEN--\":2857:2909   */\n              jump(tag_141)\n            tag_174:\n                /* \"--CODEGEN--\":2847:2909   */\n              swap3\n              pop\n                /* \"--CODEGEN--\":2817:2915   */\n              pop\n                /* \"--CODEGEN--\":2974:2977   */\n              0x0120\n                /* \"--CODEGEN--\":2963:2972   */\n              dup12\n                /* \"--CODEGEN--\":2959:2978   */\n              add\n                /* \"--CODEGEN--\":2946:2979   */\n              calldataload\n                /* \"--CODEGEN--\":2999:3017   */\n              0xffffffffffffffff\n                /* \"--CODEGEN--\":2991:2997   */\n              dup2\n                /* \"--CODEGEN--\":2988:3018   */\n              gt\n                /* \"--CODEGEN--\":2985:2987   */\n              iszero\n              tag_175\n              jumpi\n                /* \"--CODEGEN--\":3031:3032   */\n              0x00\n                /* \"--CODEGEN--\":3028:3029   */\n              dup1\n                /* \"--CODEGEN--\":3021:3033   */\n              revert\n                /* \"--CODEGEN--\":2985:2987   */\n            tag_175:\n                /* \"--CODEGEN--\":3051:3114   */\n              tag_176\n                /* \"--CODEGEN--\":3106:3113   */\n              dup14\n                /* \"--CODEGEN--\":3097:3103   */\n              dup3\n                /* \"--CODEGEN--\":3086:3095   */\n              dup15\n                /* \"--CODEGEN--\":3082:3104   */\n              add\n                /* \"--CODEGEN--\":3051:3114   */\n              jump(tag_145)\n            tag_176:\n                /* \"--CODEGEN--\":3041:3114   */\n              swap2\n              pop\n                /* \"--CODEGEN--\":2925:3120   */\n              pop\n                /* \"--CODEGEN--\":1599:3130   */\n              swap3\n              swap6\n              swap9\n              swap12\n              swap2\n              swap5\n              swap8\n              swap11\n              pop\n              swap3\n              swap6\n              swap9\n              pop\n              jump\n                /* \"--CODEGEN--\":3137:3484   */\n            tag_14:\n              0x00\n                /* \"--CODEGEN--\":3251:3253   */\n              0x20\n                /* \"--CODEGEN--\":3239:3248   */\n              dup3\n                /* \"--CODEGEN--\":3230:3237   */\n              dup5\n                /* \"--CODEGEN--\":3226:3249   */\n              sub\n                /* \"--CODEGEN--\":3222:3254   */\n              slt\n                /* \"--CODEGEN--\":3219:3221   */\n              iszero\n              tag_178\n              jumpi\n                /* \"--CODEGEN--\":3267:3268   */\n              0x00\n                /* \"--CODEGEN--\":3264:3265   */\n              dup1\n                /* \"--CODEGEN--\":3257:3269   */\n              revert\n                /* \"--CODEGEN--\":3219:3221   */\n            tag_178:\n                /* \"--CODEGEN--\":3330:3331   */\n              0x00\n                /* \"--CODEGEN--\":3319:3328   */\n              dup3\n                /* \"--CODEGEN--\":3315:3332   */\n              add\n                /* \"--CODEGEN--\":3302:3333   */\n              calldataload\n                /* \"--CODEGEN--\":3353:3371   */\n              0xffffffffffffffff\n                /* \"--CODEGEN--\":3345:3351   */\n              dup2\n                /* \"--CODEGEN--\":3342:3372   */\n              gt\n                /* \"--CODEGEN--\":3339:3341   */\n              iszero\n              tag_179\n              jumpi\n                /* \"--CODEGEN--\":3385:3386   */\n              0x00\n                /* \"--CODEGEN--\":3382:3383   */\n              dup1\n                /* \"--CODEGEN--\":3375:3387   */\n              revert\n                /* \"--CODEGEN--\":3339:3341   */\n            tag_179:\n                /* \"--CODEGEN--\":3405:3468   */\n              tag_180\n                /* \"--CODEGEN--\":3460:3467   */\n              dup5\n                /* \"--CODEGEN--\":3451:3457   */\n              dup3\n                /* \"--CODEGEN--\":3440:3449   */\n              dup6\n                /* \"--CODEGEN--\":3436:3458   */\n              add\n                /* \"--CODEGEN--\":3405:3468   */\n              jump(tag_145)\n            tag_180:\n                /* \"--CODEGEN--\":3395:3468   */\n              swap2\n              pop\n                /* \"--CODEGEN--\":3281:3474   */\n              pop\n                /* \"--CODEGEN--\":3213:3484   */\n              swap3\n              swap2\n              pop\n              pop\n              jump\n                /* \"--CODEGEN--\":3491:4796   */\n            tag_29:\n              0x00\n              dup1\n              0x00\n              dup1\n              0x00\n              dup1\n              0x00\n                /* \"--CODEGEN--\":3723:3726   */\n              0xe0\n                /* \"--CODEGEN--\":3711:3720   */\n              dup9\n                /* \"--CODEGEN--\":3702:3709   */\n              dup11\n                /* \"--CODEGEN--\":3698:3721   */\n              sub\n                /* \"--CODEGEN--\":3694:3727   */\n              slt\n                /* \"--CODEGEN--\":3691:3693   */\n              iszero\n              tag_182\n              jumpi\n                /* \"--CODEGEN--\":3740:3741   */\n              0x00\n                /* \"--CODEGEN--\":3737:3738   */\n              dup1\n                /* \"--CODEGEN--\":3730:3742   */\n              revert\n                /* \"--CODEGEN--\":3691:3693   */\n            tag_182:\n                /* \"--CODEGEN--\":3803:3804   */\n              0x00\n                /* \"--CODEGEN--\":3792:3801   */\n              dup9\n                /* \"--CODEGEN--\":3788:3805   */\n              add\n                /* \"--CODEGEN--\":3775:3806   */\n              calldataload\n                /* \"--CODEGEN--\":3826:3844   */\n              0xffffffffffffffff\n                /* \"--CODEGEN--\":3818:3824   */\n              dup2\n                /* \"--CODEGEN--\":3815:3845   */\n              gt\n                /* \"--CODEGEN--\":3812:3814   */\n              iszero\n              tag_183\n              jumpi\n                /* \"--CODEGEN--\":3858:3859   */\n              0x00\n                /* \"--CODEGEN--\":3855:3856   */\n              dup1\n                /* \"--CODEGEN--\":3848:3860   */\n              revert\n                /* \"--CODEGEN--\":3812:3814   */\n            tag_183:\n                /* \"--CODEGEN--\":3878:3941   */\n              tag_184\n                /* \"--CODEGEN--\":3933:3940   */\n              dup11\n                /* \"--CODEGEN--\":3924:3930   */\n              dup3\n                /* \"--CODEGEN--\":3913:3922   */\n              dup12\n                /* \"--CODEGEN--\":3909:3931   */\n              add\n                /* \"--CODEGEN--\":3878:3941   */\n              jump(tag_145)\n            tag_184:\n                /* \"--CODEGEN--\":3868:3941   */\n              swap8\n              pop\n                /* \"--CODEGEN--\":3754:3947   */\n              pop\n                /* \"--CODEGEN--\":3978:3980   */\n              0x20\n                /* \"--CODEGEN--\":3996:4048   */\n              tag_185\n                /* \"--CODEGEN--\":4040:4047   */\n              dup11\n                /* \"--CODEGEN--\":4031:4037   */\n              dup3\n                /* \"--CODEGEN--\":4020:4029   */\n              dup12\n                /* \"--CODEGEN--\":4016:4038   */\n              add\n                /* \"--CODEGEN--\":3996:4048   */\n              jump(tag_141)\n            tag_185:\n                /* \"--CODEGEN--\":3986:4048   */\n              swap7\n              pop\n                /* \"--CODEGEN--\":3957:4054   */\n              pop\n                /* \"--CODEGEN--\":4085:4087   */\n              0x40\n                /* \"--CODEGEN--\":4103:4155   */\n              tag_186\n                /* \"--CODEGEN--\":4147:4154   */\n              dup11\n                /* \"--CODEGEN--\":4138:4144   */\n              dup3\n                /* \"--CODEGEN--\":4127:4136   */\n              dup12\n                /* \"--CODEGEN--\":4123:4145   */\n              add\n                /* \"--CODEGEN--\":4103:4155   */\n              jump(tag_141)\n            tag_186:\n                /* \"--CODEGEN--\":4093:4155   */\n              swap6\n              pop\n                /* \"--CODEGEN--\":4064:4161   */\n              pop\n                /* \"--CODEGEN--\":4220:4222   */\n              0x60\n                /* \"--CODEGEN--\":4209:4218   */\n              dup9\n                /* \"--CODEGEN--\":4205:4223   */\n              add\n                /* \"--CODEGEN--\":4192:4224   */\n              calldataload\n                /* \"--CODEGEN--\":4244:4262   */\n              0xffffffffffffffff\n                /* \"--CODEGEN--\":4236:4242   */\n              dup2\n                /* \"--CODEGEN--\":4233:4263   */\n              gt\n                /* \"--CODEGEN--\":4230:4232   */\n              iszero\n              tag_187\n              jumpi\n                /* \"--CODEGEN--\":4276:4277   */\n              0x00\n                /* \"--CODEGEN--\":4273:4274   */\n              dup1\n                /* \"--CODEGEN--\":4266:4278   */\n              revert\n                /* \"--CODEGEN--\":4230:4232   */\n            tag_187:\n                /* \"--CODEGEN--\":4296:4359   */\n              tag_188\n                /* \"--CODEGEN--\":4351:4358   */\n              dup11\n                /* \"--CODEGEN--\":4342:4348   */\n              dup3\n                /* \"--CODEGEN--\":4331:4340   */\n              dup12\n                /* \"--CODEGEN--\":4327:4349   */\n              add\n                /* \"--CODEGEN--\":4296:4359   */\n              jump(tag_145)\n            tag_188:\n                /* \"--CODEGEN--\":4286:4359   */\n              swap5\n              pop\n                /* \"--CODEGEN--\":4171:4365   */\n              pop\n                /* \"--CODEGEN--\":4424:4427   */\n              0x80\n                /* \"--CODEGEN--\":4413:4422   */\n              dup9\n                /* \"--CODEGEN--\":4409:4428   */\n              add\n                /* \"--CODEGEN--\":4396:4429   */\n              calldataload\n                /* \"--CODEGEN--\":4449:4467   */\n              0xffffffffffffffff\n                /* \"--CODEGEN--\":4441:4447   */\n              dup2\n                /* \"--CODEGEN--\":4438:4468   */\n              gt\n                /* \"--CODEGEN--\":4435:4437   */\n              iszero\n              tag_189\n              jumpi\n                /* \"--CODEGEN--\":4481:4482   */\n              0x00\n                /* \"--CODEGEN--\":4478:4479   */\n              dup1\n                /* \"--CODEGEN--\":4471:4483   */\n              revert\n                /* \"--CODEGEN--\":4435:4437   */\n            tag_189:\n                /* \"--CODEGEN--\":4501:4564   */\n              tag_190\n                /* \"--CODEGEN--\":4556:4563   */\n              dup11\n                /* \"--CODEGEN--\":4547:4553   */\n              dup3\n                /* \"--CODEGEN--\":4536:4545   */\n              dup12\n                /* \"--CODEGEN--\":4532:4554   */\n              add\n                /* \"--CODEGEN--\":4501:4564   */\n              jump(tag_145)\n            tag_190:\n                /* \"--CODEGEN--\":4491:4564   */\n              swap4\n              pop\n                /* \"--CODEGEN--\":4375:4570   */\n              pop\n                /* \"--CODEGEN--\":4601:4604   */\n              0xa0\n                /* \"--CODEGEN--\":4620:4672   */\n              tag_191\n                /* \"--CODEGEN--\":4664:4671   */\n              dup11\n                /* \"--CODEGEN--\":4655:4661   */\n              dup3\n                /* \"--CODEGEN--\":4644:4653   */\n              dup12\n                /* \"--CODEGEN--\":4640:4662   */\n              add\n                /* \"--CODEGEN--\":4620:4672   */\n              jump(tag_141)\n            tag_191:\n                /* \"--CODEGEN--\":4610:4672   */\n              swap3\n              pop\n                /* \"--CODEGEN--\":4580:4678   */\n              pop\n                /* \"--CODEGEN--\":4709:4712   */\n              0xc0\n                /* \"--CODEGEN--\":4728:4780   */\n              tag_192\n                /* \"--CODEGEN--\":4772:4779   */\n              dup11\n                /* \"--CODEGEN--\":4763:4769   */\n              dup3\n                /* \"--CODEGEN--\":4752:4761   */\n              dup12\n                /* \"--CODEGEN--\":4748:4770   */\n              add\n                /* \"--CODEGEN--\":4728:4780   */\n              jump(tag_141)\n            tag_192:\n                /* \"--CODEGEN--\":4718:4780   */\n              swap2\n              pop\n                /* \"--CODEGEN--\":4688:4786   */\n              pop\n                /* \"--CODEGEN--\":3685:4796   */\n              swap3\n              swap6\n              swap9\n              swap2\n              swap5\n              swap8\n              pop\n              swap3\n              swap6\n              pop\n              jump\n                /* \"--CODEGEN--\":4803:5163   */\n            tag_20:\n              0x00\n              dup1\n                /* \"--CODEGEN--\":4921:4923   */\n              0x40\n                /* \"--CODEGEN--\":4909:4918   */\n              dup4\n                /* \"--CODEGEN--\":4900:4907   */\n              dup6\n                /* \"--CODEGEN--\":4896:4919   */\n              sub\n                /* \"--CODEGEN--\":4892:4924   */\n              slt\n                /* \"--CODEGEN--\":4889:4891   */\n              iszero\n              tag_194\n              jumpi\n                /* \"--CODEGEN--\":4937:4938   */\n              0x00\n                /* \"--CODEGEN--\":4934:4935   */\n              dup1\n                /* \"--CODEGEN--\":4927:4939   */\n              revert\n                /* \"--CODEGEN--\":4889:4891   */\n            tag_194:\n                /* \"--CODEGEN--\":4972:4973   */\n              0x00\n                /* \"--CODEGEN--\":4989:5042   */\n              tag_195\n                /* \"--CODEGEN--\":5034:5041   */\n              dup6\n                /* \"--CODEGEN--\":5025:5031   */\n              dup3\n                /* \"--CODEGEN--\":5014:5023   */\n              dup7\n                /* \"--CODEGEN--\":5010:5032   */\n              add\n                /* \"--CODEGEN--\":4989:5042   */\n              jump(tag_155)\n            tag_195:\n                /* \"--CODEGEN--\":4979:5042   */\n              swap3\n              pop\n                /* \"--CODEGEN--\":4951:5048   */\n              pop\n                /* \"--CODEGEN--\":5079:5081   */\n              0x20\n                /* \"--CODEGEN--\":5097:5147   */\n              tag_196\n                /* \"--CODEGEN--\":5139:5146   */\n              dup6\n                /* \"--CODEGEN--\":5130:5136   */\n              dup3\n                /* \"--CODEGEN--\":5119:5128   */\n              dup7\n                /* \"--CODEGEN--\":5115:5137   */\n              add\n                /* \"--CODEGEN--\":5097:5147   */\n              jump(tag_137)\n            tag_196:\n                /* \"--CODEGEN--\":5087:5147   */\n              swap2\n              pop\n                /* \"--CODEGEN--\":5058:5153   */\n              pop\n                /* \"--CODEGEN--\":4883:5163   */\n              swap3\n              pop\n              swap3\n              swap1\n              pop\n              jump\n                /* \"--CODEGEN--\":5170:5280   */\n            tag_198:\n                /* \"--CODEGEN--\":5243:5274   */\n              tag_199\n                /* \"--CODEGEN--\":5268:5273   */\n              dup2\n                /* \"--CODEGEN--\":5243:5274   */\n              jump(tag_200)\n            tag_199:\n                /* \"--CODEGEN--\":5238:5241   */\n              dup3\n                /* \"--CODEGEN--\":5231:5275   */\n              mstore\n                /* \"--CODEGEN--\":5225:5280   */\n              pop\n              pop\n              jump\n                /* \"--CODEGEN--\":5318:5908   */\n            tag_202:\n              0x00\n                /* \"--CODEGEN--\":5453:5507   */\n              tag_203\n                /* \"--CODEGEN--\":5501:5506   */\n              dup3\n                /* \"--CODEGEN--\":5453:5507   */\n              jump(tag_204)\n            tag_203:\n                /* \"--CODEGEN--\":5525:5531   */\n              dup1\n                /* \"--CODEGEN--\":5520:5523   */\n              dup5\n                /* \"--CODEGEN--\":5513:5532   */\n              mstore\n                /* \"--CODEGEN--\":5549:5553   */\n              0x20\n                /* \"--CODEGEN--\":5544:5547   */\n              dup5\n                /* \"--CODEGEN--\":5540:5554   */\n              add\n                /* \"--CODEGEN--\":5533:5554   */\n              swap4\n              pop\n                /* \"--CODEGEN--\":5594:5650   */\n              tag_205\n                /* \"--CODEGEN--\":5644:5649   */\n              dup4\n                /* \"--CODEGEN--\":5594:5650   */\n              jump(tag_206)\n            tag_205:\n                /* \"--CODEGEN--\":5671:5672   */\n              0x00\n                /* \"--CODEGEN--\":5656:5886   */\n            tag_207:\n                /* \"--CODEGEN--\":5681:5687   */\n              dup3\n                /* \"--CODEGEN--\":5678:5679   */\n              dup2\n                /* \"--CODEGEN--\":5675:5688   */\n              lt\n                /* \"--CODEGEN--\":5656:5886   */\n              iszero\n              tag_208\n              jumpi\n                /* \"--CODEGEN--\":5721:5774   */\n              tag_210\n                /* \"--CODEGEN--\":5770:5773   */\n              dup7\n                /* \"--CODEGEN--\":5761:5767   */\n              dup4\n                /* \"--CODEGEN--\":5755:5768   */\n              mload\n                /* \"--CODEGEN--\":5721:5774   */\n              jump(tag_198)\n            tag_210:\n                /* \"--CODEGEN--\":5791:5851   */\n              tag_211\n                /* \"--CODEGEN--\":5844:5850   */\n              dup3\n                /* \"--CODEGEN--\":5791:5851   */\n              jump(tag_212)\n            tag_211:\n                /* \"--CODEGEN--\":5781:5851   */\n              swap2\n              pop\n                /* \"--CODEGEN--\":5874:5878   */\n              0x20\n                /* \"--CODEGEN--\":5869:5872   */\n              dup7\n                /* \"--CODEGEN--\":5865:5879   */\n              add\n                /* \"--CODEGEN--\":5858:5879   */\n              swap6\n              pop\n                /* \"--CODEGEN--\":5703:5704   */\n              0x01\n                /* \"--CODEGEN--\":5700:5701   */\n              dup2\n                /* \"--CODEGEN--\":5696:5705   */\n              add\n                /* \"--CODEGEN--\":5691:5705   */\n              swap1\n              pop\n                /* \"--CODEGEN--\":5656:5886   */\n              jump(tag_207)\n            tag_208:\n                /* \"--CODEGEN--\":5660:5674   */\n              pop\n                /* \"--CODEGEN--\":5899:5902   */\n              dup5\n                /* \"--CODEGEN--\":5892:5902   */\n              swap3\n              pop\n                /* \"--CODEGEN--\":5432:5908   */\n              pop\n              pop\n              swap3\n              swap2\n              pop\n              pop\n              jump\n                /* \"--CODEGEN--\":5973:6851   */\n            tag_214:\n              0x00\n                /* \"--CODEGEN--\":6150:6225   */\n              tag_215\n                /* \"--CODEGEN--\":6219:6224   */\n              dup3\n                /* \"--CODEGEN--\":6150:6225   */\n              jump(tag_216)\n            tag_215:\n                /* \"--CODEGEN--\":6243:6249   */\n              dup1\n                /* \"--CODEGEN--\":6238:6241   */\n              dup5\n                /* \"--CODEGEN--\":6231:6250   */\n              mstore\n                /* \"--CODEGEN--\":6267:6271   */\n              0x20\n                /* \"--CODEGEN--\":6262:6265   */\n              dup5\n                /* \"--CODEGEN--\":6258:6272   */\n              add\n                /* \"--CODEGEN--\":6251:6272   */\n              swap4\n              pop\n                /* \"--CODEGEN--\":6315:6318   */\n              dup4\n                /* \"--CODEGEN--\":6357:6361   */\n              0x20\n                /* \"--CODEGEN--\":6349:6355   */\n              dup3\n                /* \"--CODEGEN--\":6345:6362   */\n              mul\n                /* \"--CODEGEN--\":6340:6343   */\n              dup6\n                /* \"--CODEGEN--\":6336:6363   */\n              add\n                /* \"--CODEGEN--\":6383:6460   */\n              tag_217\n                /* \"--CODEGEN--\":6454:6459   */\n              dup6\n                /* \"--CODEGEN--\":6383:6460   */\n              jump(tag_218)\n            tag_217:\n                /* \"--CODEGEN--\":6481:6482   */\n              0x00\n                /* \"--CODEGEN--\":6466:6812   */\n            tag_219:\n                /* \"--CODEGEN--\":6491:6497   */\n              dup5\n                /* \"--CODEGEN--\":6488:6489   */\n              dup2\n                /* \"--CODEGEN--\":6485:6498   */\n              lt\n                /* \"--CODEGEN--\":6466:6812   */\n              iszero\n              tag_220\n              jumpi\n                /* \"--CODEGEN--\":6553:6562   */\n              dup4\n                /* \"--CODEGEN--\":6547:6551   */\n              dup4\n                /* \"--CODEGEN--\":6543:6563   */\n              sub\n                /* \"--CODEGEN--\":6538:6541   */\n              dup9\n                /* \"--CODEGEN--\":6531:6564   */\n              mstore\n                /* \"--CODEGEN--\":6579:6679   */\n              tag_222\n                /* \"--CODEGEN--\":6674:6678   */\n              dup4\n                /* \"--CODEGEN--\":6665:6671   */\n              dup4\n                /* \"--CODEGEN--\":6659:6672   */\n              mload\n                /* \"--CODEGEN--\":6579:6679   */\n              jump(tag_223)\n            tag_222:\n                /* \"--CODEGEN--\":6571:6679   */\n              swap3\n              pop\n                /* \"--CODEGEN--\":6696:6777   */\n              tag_224\n                /* \"--CODEGEN--\":6770:6776   */\n              dup3\n                /* \"--CODEGEN--\":6696:6777   */\n              jump(tag_225)\n            tag_224:\n                /* \"--CODEGEN--\":6686:6777   */\n              swap2\n              pop\n                /* \"--CODEGEN--\":6800:6804   */\n              0x20\n                /* \"--CODEGEN--\":6795:6798   */\n              dup9\n                /* \"--CODEGEN--\":6791:6805   */\n              add\n                /* \"--CODEGEN--\":6784:6805   */\n              swap8\n              pop\n                /* \"--CODEGEN--\":6513:6514   */\n              0x01\n                /* \"--CODEGEN--\":6510:6511   */\n              dup2\n                /* \"--CODEGEN--\":6506:6515   */\n              add\n                /* \"--CODEGEN--\":6501:6515   */\n              swap1\n              pop\n                /* \"--CODEGEN--\":6466:6812   */\n              jump(tag_219)\n            tag_220:\n                /* \"--CODEGEN--\":6470:6484   */\n              pop\n                /* \"--CODEGEN--\":6825:6829   */\n              dup2\n                /* \"--CODEGEN--\":6818:6829   */\n              swap7\n              pop\n                /* \"--CODEGEN--\":6842:6845   */\n              dup7\n                /* \"--CODEGEN--\":6835:6845   */\n              swap5\n              pop\n                /* \"--CODEGEN--\":6129:6851   */\n              pop\n              pop\n              pop\n              pop\n              swap3\n              swap2\n              pop\n              pop\n              jump\n                /* \"--CODEGEN--\":6859:6960   */\n            tag_227:\n                /* \"--CODEGEN--\":6926:6954   */\n              tag_228\n                /* \"--CODEGEN--\":6948:6953   */\n              dup2\n                /* \"--CODEGEN--\":6926:6954   */\n              jump(tag_229)\n            tag_228:\n                /* \"--CODEGEN--\":6921:6924   */\n              dup3\n                /* \"--CODEGEN--\":6914:6955   */\n              mstore\n                /* \"--CODEGEN--\":6908:6960   */\n              pop\n              pop\n              jump\n                /* \"--CODEGEN--\":6967:7074   */\n            tag_231:\n                /* \"--CODEGEN--\":7038:7068   */\n              tag_232\n                /* \"--CODEGEN--\":7062:7067   */\n              dup2\n                /* \"--CODEGEN--\":7038:7068   */\n              jump(tag_233)\n            tag_232:\n                /* \"--CODEGEN--\":7033:7036   */\n              dup3\n                /* \"--CODEGEN--\":7026:7069   */\n              mstore\n                /* \"--CODEGEN--\":7020:7074   */\n              pop\n              pop\n              jump\n                /* \"--CODEGEN--\":7081:7381   */\n            tag_235:\n              0x00\n                /* \"--CODEGEN--\":7183:7222   */\n              tag_236\n                /* \"--CODEGEN--\":7216:7221   */\n              dup3\n                /* \"--CODEGEN--\":7183:7222   */\n              jump(tag_237)\n            tag_236:\n                /* \"--CODEGEN--\":7239:7245   */\n              dup1\n                /* \"--CODEGEN--\":7234:7237   */\n              dup5\n                /* \"--CODEGEN--\":7227:7246   */\n              mstore\n                /* \"--CODEGEN--\":7251:7314   */\n              tag_238\n                /* \"--CODEGEN--\":7307:7313   */\n              dup2\n                /* \"--CODEGEN--\":7300:7304   */\n              0x20\n                /* \"--CODEGEN--\":7295:7298   */\n              dup7\n                /* \"--CODEGEN--\":7291:7305   */\n              add\n                /* \"--CODEGEN--\":7284:7288   */\n              0x20\n                /* \"--CODEGEN--\":7277:7282   */\n              dup7\n                /* \"--CODEGEN--\":7273:7289   */\n              add\n                /* \"--CODEGEN--\":7251:7314   */\n              jump(tag_239)\n            tag_238:\n                /* \"--CODEGEN--\":7346:7375   */\n              tag_240\n                /* \"--CODEGEN--\":7368:7374   */\n              dup2\n                /* \"--CODEGEN--\":7346:7375   */\n              jump(tag_241)\n            tag_240:\n                /* \"--CODEGEN--\":7339:7343   */\n              0x20\n                /* \"--CODEGEN--\":7334:7337   */\n              dup6\n                /* \"--CODEGEN--\":7330:7344   */\n              add\n                /* \"--CODEGEN--\":7326:7376   */\n              add\n                /* \"--CODEGEN--\":7319:7376   */\n              swap2\n              pop\n                /* \"--CODEGEN--\":7163:7381   */\n              pop\n              swap3\n              swap2\n              pop\n              pop\n              jump\n                /* \"--CODEGEN--\":7388:7680   */\n            tag_243:\n              0x00\n                /* \"--CODEGEN--\":7486:7521   */\n              tag_244\n                /* \"--CODEGEN--\":7515:7520   */\n              dup3\n                /* \"--CODEGEN--\":7486:7521   */\n              jump(tag_245)\n            tag_244:\n                /* \"--CODEGEN--\":7538:7544   */\n              dup1\n                /* \"--CODEGEN--\":7533:7536   */\n              dup5\n                /* \"--CODEGEN--\":7526:7545   */\n              mstore\n                /* \"--CODEGEN--\":7550:7613   */\n              tag_246\n                /* \"--CODEGEN--\":7606:7612   */\n              dup2\n                /* \"--CODEGEN--\":7599:7603   */\n              0x20\n                /* \"--CODEGEN--\":7594:7597   */\n              dup7\n                /* \"--CODEGEN--\":7590:7604   */\n              add\n                /* \"--CODEGEN--\":7583:7587   */\n              0x20\n                /* \"--CODEGEN--\":7576:7581   */\n              dup7\n                /* \"--CODEGEN--\":7572:7588   */\n              add\n                /* \"--CODEGEN--\":7550:7613   */\n              jump(tag_239)\n            tag_246:\n                /* \"--CODEGEN--\":7645:7674   */\n              tag_247\n                /* \"--CODEGEN--\":7667:7673   */\n              dup2\n                /* \"--CODEGEN--\":7645:7674   */\n              jump(tag_241)\n            tag_247:\n                /* \"--CODEGEN--\":7638:7642   */\n              0x20\n                /* \"--CODEGEN--\":7633:7636   */\n              dup6\n                /* \"--CODEGEN--\":7629:7643   */\n              add\n                /* \"--CODEGEN--\":7625:7675   */\n              add\n                /* \"--CODEGEN--\":7618:7675   */\n              swap2\n              pop\n                /* \"--CODEGEN--\":7466:7680   */\n              pop\n              swap3\n              swap2\n              pop\n              pop\n              jump\n                /* \"--CODEGEN--\":7738:10193   */\n            tag_223:\n              0x00\n                /* \"--CODEGEN--\":7875:7880   */\n              0x0180\n                /* \"--CODEGEN--\":7870:7873   */\n              dup4\n                /* \"--CODEGEN--\":7866:7881   */\n              add\n                /* \"--CODEGEN--\":7966:7969   */\n              0x00\n                /* \"--CODEGEN--\":7959:7964   */\n              dup4\n                /* \"--CODEGEN--\":7955:7970   */\n              add\n                /* \"--CODEGEN--\":7949:7971   */\n              mload\n                /* \"--CODEGEN--\":7983:8044   */\n              tag_249\n                /* \"--CODEGEN--\":8039:8042   */\n              0x00\n                /* \"--CODEGEN--\":8034:8037   */\n              dup7\n                /* \"--CODEGEN--\":8030:8043   */\n              add\n                /* \"--CODEGEN--\":8017:8028   */\n              dup3\n                /* \"--CODEGEN--\":7983:8044   */\n              jump(tag_198)\n            tag_249:\n                /* \"--CODEGEN--\":7896:8056   */\n              pop\n                /* \"--CODEGEN--\":8135:8139   */\n              0x20\n                /* \"--CODEGEN--\":8128:8133   */\n              dup4\n                /* \"--CODEGEN--\":8124:8140   */\n              add\n                /* \"--CODEGEN--\":8118:8141   */\n              mload\n                /* \"--CODEGEN--\":8153:8215   */\n              tag_250\n                /* \"--CODEGEN--\":8209:8213   */\n              0x20\n                /* \"--CODEGEN--\":8204:8207   */\n              dup7\n                /* \"--CODEGEN--\":8200:8214   */\n              add\n                /* \"--CODEGEN--\":8187:8198   */\n              dup3\n                /* \"--CODEGEN--\":8153:8215   */\n              jump(tag_198)\n            tag_250:\n                /* \"--CODEGEN--\":8066:8227   */\n              pop\n                /* \"--CODEGEN--\":8304:8308   */\n              0x40\n                /* \"--CODEGEN--\":8297:8302   */\n              dup4\n                /* \"--CODEGEN--\":8293:8309   */\n              add\n                /* \"--CODEGEN--\":8287:8310   */\n              mload\n                /* \"--CODEGEN--\":8355:8358   */\n              dup5\n                /* \"--CODEGEN--\":8349:8353   */\n              dup3\n                /* \"--CODEGEN--\":8345:8359   */\n              sub\n                /* \"--CODEGEN--\":8338:8342   */\n              0x40\n                /* \"--CODEGEN--\":8333:8336   */\n              dup7\n                /* \"--CODEGEN--\":8329:8343   */\n              add\n                /* \"--CODEGEN--\":8322:8360   */\n              mstore\n                /* \"--CODEGEN--\":8375:8443   */\n              tag_251\n                /* \"--CODEGEN--\":8438:8442   */\n              dup3\n                /* \"--CODEGEN--\":8425:8436   */\n              dup3\n                /* \"--CODEGEN--\":8375:8443   */\n              jump(tag_243)\n            tag_251:\n                /* \"--CODEGEN--\":8367:8443   */\n              swap2\n              pop\n                /* \"--CODEGEN--\":8237:8455   */\n              pop\n                /* \"--CODEGEN--\":8534:8538   */\n              0x60\n                /* \"--CODEGEN--\":8527:8532   */\n              dup4\n                /* \"--CODEGEN--\":8523:8539   */\n              add\n                /* \"--CODEGEN--\":8517:8540   */\n              mload\n                /* \"--CODEGEN--\":8585:8588   */\n              dup5\n                /* \"--CODEGEN--\":8579:8583   */\n              dup3\n                /* \"--CODEGEN--\":8575:8589   */\n              sub\n                /* \"--CODEGEN--\":8568:8572   */\n              0x60\n                /* \"--CODEGEN--\":8563:8566   */\n              dup7\n                /* \"--CODEGEN--\":8559:8573   */\n              add\n                /* \"--CODEGEN--\":8552:8590   */\n              mstore\n                /* \"--CODEGEN--\":8605:8673   */\n              tag_252\n                /* \"--CODEGEN--\":8668:8672   */\n              dup3\n                /* \"--CODEGEN--\":8655:8666   */\n              dup3\n                /* \"--CODEGEN--\":8605:8673   */\n              jump(tag_243)\n            tag_252:\n                /* \"--CODEGEN--\":8597:8673   */\n              swap2\n              pop\n                /* \"--CODEGEN--\":8465:8685   */\n              pop\n                /* \"--CODEGEN--\":8763:8767   */\n              0x80\n                /* \"--CODEGEN--\":8756:8761   */\n              dup4\n                /* \"--CODEGEN--\":8752:8768   */\n              add\n                /* \"--CODEGEN--\":8746:8769   */\n              mload\n                /* \"--CODEGEN--\":8781:8837   */\n              tag_253\n                /* \"--CODEGEN--\":8831:8835   */\n              0x80\n                /* \"--CODEGEN--\":8826:8829   */\n              dup7\n                /* \"--CODEGEN--\":8822:8836   */\n              add\n                /* \"--CODEGEN--\":8809:8820   */\n              dup3\n                /* \"--CODEGEN--\":8781:8837   */\n              jump(tag_227)\n            tag_253:\n                /* \"--CODEGEN--\":8695:8849   */\n              pop\n                /* \"--CODEGEN--\":8926:8930   */\n              0xa0\n                /* \"--CODEGEN--\":8919:8924   */\n              dup4\n                /* \"--CODEGEN--\":8915:8931   */\n              add\n                /* \"--CODEGEN--\":8909:8932   */\n              mload\n                /* \"--CODEGEN--\":8944:9000   */\n              tag_254\n                /* \"--CODEGEN--\":8994:8998   */\n              0xa0\n                /* \"--CODEGEN--\":8989:8992   */\n              dup7\n                /* \"--CODEGEN--\":8985:8999   */\n              add\n                /* \"--CODEGEN--\":8972:8983   */\n              dup3\n                /* \"--CODEGEN--\":8944:9000   */\n              jump(tag_227)\n            tag_254:\n                /* \"--CODEGEN--\":8859:9012   */\n              pop\n                /* \"--CODEGEN--\":9089:9093   */\n              0xc0\n                /* \"--CODEGEN--\":9082:9087   */\n              dup4\n                /* \"--CODEGEN--\":9078:9094   */\n              add\n                /* \"--CODEGEN--\":9072:9095   */\n              mload\n                /* \"--CODEGEN--\":9140:9143   */\n              dup5\n                /* \"--CODEGEN--\":9134:9138   */\n              dup3\n                /* \"--CODEGEN--\":9130:9144   */\n              sub\n                /* \"--CODEGEN--\":9123:9127   */\n              0xc0\n                /* \"--CODEGEN--\":9118:9121   */\n              dup7\n                /* \"--CODEGEN--\":9114:9128   */\n              add\n                /* \"--CODEGEN--\":9107:9145   */\n              mstore\n                /* \"--CODEGEN--\":9160:9228   */\n              tag_255\n                /* \"--CODEGEN--\":9223:9227   */\n              dup3\n                /* \"--CODEGEN--\":9210:9221   */\n              dup3\n                /* \"--CODEGEN--\":9160:9228   */\n              jump(tag_243)\n            tag_255:\n                /* \"--CODEGEN--\":9152:9228   */\n              swap2\n              pop\n                /* \"--CODEGEN--\":9022:9240   */\n              pop\n                /* \"--CODEGEN--\":9317:9321   */\n              0xe0\n                /* \"--CODEGEN--\":9310:9315   */\n              dup4\n                /* \"--CODEGEN--\":9306:9322   */\n              add\n                /* \"--CODEGEN--\":9300:9323   */\n              mload\n                /* \"--CODEGEN--\":9335:9397   */\n              tag_256\n                /* \"--CODEGEN--\":9391:9395   */\n              0xe0\n                /* \"--CODEGEN--\":9386:9389   */\n              dup7\n                /* \"--CODEGEN--\":9382:9396   */\n              add\n                /* \"--CODEGEN--\":9369:9380   */\n              dup3\n                /* \"--CODEGEN--\":9335:9397   */\n              jump(tag_257)\n            tag_256:\n                /* \"--CODEGEN--\":9250:9409   */\n              pop\n                /* \"--CODEGEN--\":9501:9506   */\n              0x0100\n                /* \"--CODEGEN--\":9494:9499   */\n              dup4\n                /* \"--CODEGEN--\":9490:9507   */\n              add\n                /* \"--CODEGEN--\":9484:9508   */\n              mload\n                /* \"--CODEGEN--\":9520:9583   */\n              tag_258\n                /* \"--CODEGEN--\":9576:9581   */\n              0x0100\n                /* \"--CODEGEN--\":9571:9574   */\n              dup7\n                /* \"--CODEGEN--\":9567:9582   */\n              add\n                /* \"--CODEGEN--\":9554:9565   */\n              dup3\n                /* \"--CODEGEN--\":9520:9583   */\n              jump(tag_257)\n            tag_258:\n                /* \"--CODEGEN--\":9419:9595   */\n              pop\n                /* \"--CODEGEN--\":9673:9678   */\n              0x0120\n                /* \"--CODEGEN--\":9666:9671   */\n              dup4\n                /* \"--CODEGEN--\":9662:9679   */\n              add\n                /* \"--CODEGEN--\":9656:9680   */\n              mload\n                /* \"--CODEGEN--\":9692:9753   */\n              tag_259\n                /* \"--CODEGEN--\":9746:9751   */\n              0x0120\n                /* \"--CODEGEN--\":9741:9744   */\n              dup7\n                /* \"--CODEGEN--\":9737:9752   */\n              add\n                /* \"--CODEGEN--\":9724:9735   */\n              dup3\n                /* \"--CODEGEN--\":9692:9753   */\n              jump(tag_231)\n            tag_259:\n                /* \"--CODEGEN--\":9605:9765   */\n              pop\n                /* \"--CODEGEN--\":9846:9851   */\n              0x0140\n                /* \"--CODEGEN--\":9839:9844   */\n              dup4\n                /* \"--CODEGEN--\":9835:9852   */\n              add\n                /* \"--CODEGEN--\":9829:9853   */\n              mload\n                /* \"--CODEGEN--\":9899:9902   */\n              dup5\n                /* \"--CODEGEN--\":9893:9897   */\n              dup3\n                /* \"--CODEGEN--\":9889:9903   */\n              sub\n                /* \"--CODEGEN--\":9881:9886   */\n              0x0140\n                /* \"--CODEGEN--\":9876:9879   */\n              dup7\n                /* \"--CODEGEN--\":9872:9887   */\n              add\n                /* \"--CODEGEN--\":9865:9904   */\n              mstore\n                /* \"--CODEGEN--\":9919:9987   */\n              tag_260\n                /* \"--CODEGEN--\":9982:9986   */\n              dup3\n                /* \"--CODEGEN--\":9969:9980   */\n              dup3\n                /* \"--CODEGEN--\":9919:9987   */\n              jump(tag_243)\n            tag_260:\n                /* \"--CODEGEN--\":9911:9987   */\n              swap2\n              pop\n                /* \"--CODEGEN--\":9775:9999   */\n              pop\n                /* \"--CODEGEN--\":10079:10084   */\n              0x0160\n                /* \"--CODEGEN--\":10072:10077   */\n              dup4\n                /* \"--CODEGEN--\":10068:10085   */\n              add\n                /* \"--CODEGEN--\":10062:10086   */\n              mload\n                /* \"--CODEGEN--\":10098:10155   */\n              tag_261\n                /* \"--CODEGEN--\":10148:10153   */\n              0x0160\n                /* \"--CODEGEN--\":10143:10146   */\n              dup7\n                /* \"--CODEGEN--\":10139:10154   */\n              add\n                /* \"--CODEGEN--\":10126:10137   */\n              dup3\n                /* \"--CODEGEN--\":10098:10155   */\n              jump(tag_227)\n            tag_261:\n                /* \"--CODEGEN--\":10009:10167   */\n              pop\n                /* \"--CODEGEN--\":10184:10188   */\n              dup1\n                /* \"--CODEGEN--\":10177:10188   */\n              swap2\n              pop\n                /* \"--CODEGEN--\":7848:10193   */\n              pop\n              swap3\n              swap2\n              pop\n              pop\n              jump\n                /* \"--CODEGEN--\":10200:10310   */\n            tag_257:\n                /* \"--CODEGEN--\":10273:10304   */\n              tag_263\n                /* \"--CODEGEN--\":10298:10303   */\n              dup2\n                /* \"--CODEGEN--\":10273:10304   */\n              jump(tag_264)\n            tag_263:\n                /* \"--CODEGEN--\":10268:10271   */\n              dup3\n                /* \"--CODEGEN--\":10261:10305   */\n              mstore\n                /* \"--CODEGEN--\":10255:10310   */\n              pop\n              pop\n              jump\n                /* \"--CODEGEN--\":10317:11274   */\n            tag_109:\n              0x00\n                /* \"--CODEGEN--\":10621:10624   */\n              0xc0\n                /* \"--CODEGEN--\":10610:10619   */\n              dup3\n                /* \"--CODEGEN--\":10606:10625   */\n              add\n                /* \"--CODEGEN--\":10598:10625   */\n              swap1\n              pop\n                /* \"--CODEGEN--\":10636:10697   */\n              tag_266\n                /* \"--CODEGEN--\":10694:10695   */\n              0x00\n                /* \"--CODEGEN--\":10683:10692   */\n              dup4\n                /* \"--CODEGEN--\":10679:10696   */\n              add\n                /* \"--CODEGEN--\":10670:10676   */\n              dup10\n                /* \"--CODEGEN--\":10636:10697   */\n              jump(tag_198)\n            tag_266:\n                /* \"--CODEGEN--\":10745:10754   */\n              dup2\n                /* \"--CODEGEN--\":10739:10743   */\n              dup2\n                /* \"--CODEGEN--\":10735:10755   */\n              sub\n                /* \"--CODEGEN--\":10730:10732   */\n              0x20\n                /* \"--CODEGEN--\":10719:10728   */\n              dup4\n                /* \"--CODEGEN--\":10715:10733   */\n              add\n                /* \"--CODEGEN--\":10708:10756   */\n              mstore\n                /* \"--CODEGEN--\":10770:10838   */\n              tag_267\n                /* \"--CODEGEN--\":10833:10837   */\n              dup2\n                /* \"--CODEGEN--\":10824:10830   */\n              dup9\n                /* \"--CODEGEN--\":10770:10838   */\n              jump(tag_235)\n            tag_267:\n                /* \"--CODEGEN--\":10762:10838   */\n              swap1\n              pop\n                /* \"--CODEGEN--\":10849:10909   */\n              tag_268\n                /* \"--CODEGEN--\":10905:10907   */\n              0x40\n                /* \"--CODEGEN--\":10894:10903   */\n              dup4\n                /* \"--CODEGEN--\":10890:10908   */\n              add\n                /* \"--CODEGEN--\":10881:10887   */\n              dup8\n                /* \"--CODEGEN--\":10849:10909   */\n              jump(tag_231)\n            tag_268:\n                /* \"--CODEGEN--\":10920:10980   */\n              tag_269\n                /* \"--CODEGEN--\":10976:10978   */\n              0x60\n                /* \"--CODEGEN--\":10965:10974   */\n              dup4\n                /* \"--CODEGEN--\":10961:10979   */\n              add\n                /* \"--CODEGEN--\":10952:10958   */\n              dup7\n                /* \"--CODEGEN--\":10920:10980   */\n              jump(tag_231)\n            tag_269:\n                /* \"--CODEGEN--\":11029:11038   */\n              dup2\n                /* \"--CODEGEN--\":11023:11027   */\n              dup2\n                /* \"--CODEGEN--\":11019:11039   */\n              sub\n                /* \"--CODEGEN--\":11013:11016   */\n              0x80\n                /* \"--CODEGEN--\":11002:11011   */\n              dup4\n                /* \"--CODEGEN--\":10998:11017   */\n              add\n                /* \"--CODEGEN--\":10991:11040   */\n              mstore\n                /* \"--CODEGEN--\":11054:11122   */\n              tag_270\n                /* \"--CODEGEN--\":11117:11121   */\n              dup2\n                /* \"--CODEGEN--\":11108:11114   */\n              dup6\n                /* \"--CODEGEN--\":11054:11122   */\n              jump(tag_235)\n            tag_270:\n                /* \"--CODEGEN--\":11046:11122   */\n              swap1\n              pop\n                /* \"--CODEGEN--\":11171:11180   */\n              dup2\n                /* \"--CODEGEN--\":11165:11169   */\n              dup2\n                /* \"--CODEGEN--\":11161:11181   */\n              sub\n                /* \"--CODEGEN--\":11155:11158   */\n              0xa0\n                /* \"--CODEGEN--\":11144:11153   */\n              dup4\n                /* \"--CODEGEN--\":11140:11159   */\n              add\n                /* \"--CODEGEN--\":11133:11182   */\n              mstore\n                /* \"--CODEGEN--\":11196:11264   */\n              tag_271\n                /* \"--CODEGEN--\":11259:11263   */\n              dup2\n                /* \"--CODEGEN--\":11250:11256   */\n              dup5\n                /* \"--CODEGEN--\":11196:11264   */\n              jump(tag_235)\n            tag_271:\n                /* \"--CODEGEN--\":11188:11264   */\n              swap1\n              pop\n                /* \"--CODEGEN--\":10592:11274   */\n              swap8\n              swap7\n              pop\n              pop\n              pop\n              pop\n              pop\n              pop\n              pop\n              jump\n                /* \"--CODEGEN--\":11281:11462   */\n            tag_17:\n              0x00\n                /* \"--CODEGEN--\":11383:11385   */\n              0x20\n                /* \"--CODEGEN--\":11372:11381   */\n              dup3\n                /* \"--CODEGEN--\":11368:11386   */\n              add\n                /* \"--CODEGEN--\":11360:11386   */\n              swap1\n              pop\n                /* \"--CODEGEN--\":11397:11452   */\n              tag_273\n                /* \"--CODEGEN--\":11449:11450   */\n              0x00\n                /* \"--CODEGEN--\":11438:11447   */\n              dup4\n                /* \"--CODEGEN--\":11434:11451   */\n              add\n                /* \"--CODEGEN--\":11425:11431   */\n              dup5\n                /* \"--CODEGEN--\":11397:11452   */\n              jump(tag_227)\n            tag_273:\n                /* \"--CODEGEN--\":11354:11462   */\n              swap3\n              swap2\n              pop\n              pop\n              jump\n                /* \"--CODEGEN--\":11469:12334   */\n            tag_26:\n              0x00\n                /* \"--CODEGEN--\":11797:11800   */\n              0x80\n                /* \"--CODEGEN--\":11786:11795   */\n              dup3\n                /* \"--CODEGEN--\":11782:11801   */\n              add\n                /* \"--CODEGEN--\":11774:11801   */\n              swap1\n              pop\n                /* \"--CODEGEN--\":11812:11867   */\n              tag_275\n                /* \"--CODEGEN--\":11864:11865   */\n              0x00\n                /* \"--CODEGEN--\":11853:11862   */\n              dup4\n                /* \"--CODEGEN--\":11849:11866   */\n              add\n                /* \"--CODEGEN--\":11840:11846   */\n              dup8\n                /* \"--CODEGEN--\":11812:11867   */\n              jump(tag_227)\n            tag_275:\n                /* \"--CODEGEN--\":11915:11924   */\n              dup2\n                /* \"--CODEGEN--\":11909:11913   */\n              dup2\n                /* \"--CODEGEN--\":11905:11925   */\n              sub\n                /* \"--CODEGEN--\":11900:11902   */\n              0x20\n                /* \"--CODEGEN--\":11889:11898   */\n              dup4\n                /* \"--CODEGEN--\":11885:11903   */\n              add\n                /* \"--CODEGEN--\":11878:11926   */\n              mstore\n                /* \"--CODEGEN--\":11940:12038   */\n              tag_276\n                /* \"--CODEGEN--\":12033:12037   */\n              dup2\n                /* \"--CODEGEN--\":12024:12030   */\n              dup7\n                /* \"--CODEGEN--\":11940:12038   */\n              jump(tag_202)\n            tag_276:\n                /* \"--CODEGEN--\":11932:12038   */\n              swap1\n              pop\n                /* \"--CODEGEN--\":12086:12095   */\n              dup2\n                /* \"--CODEGEN--\":12080:12084   */\n              dup2\n                /* \"--CODEGEN--\":12076:12096   */\n              sub\n                /* \"--CODEGEN--\":12071:12073   */\n              0x40\n                /* \"--CODEGEN--\":12060:12069   */\n              dup4\n                /* \"--CODEGEN--\":12056:12074   */\n              add\n                /* \"--CODEGEN--\":12049:12097   */\n              mstore\n                /* \"--CODEGEN--\":12111:12251   */\n              tag_277\n                /* \"--CODEGEN--\":12246:12250   */\n              dup2\n                /* \"--CODEGEN--\":12237:12243   */\n              dup6\n                /* \"--CODEGEN--\":12111:12251   */\n              jump(tag_214)\n            tag_277:\n                /* \"--CODEGEN--\":12103:12251   */\n              swap1\n              pop\n                /* \"--CODEGEN--\":12262:12324   */\n              tag_278\n                /* \"--CODEGEN--\":12320:12322   */\n              0x60\n                /* \"--CODEGEN--\":12309:12318   */\n              dup4\n                /* \"--CODEGEN--\":12305:12323   */\n              add\n                /* \"--CODEGEN--\":12296:12302   */\n              dup5\n                /* \"--CODEGEN--\":12262:12324   */\n              jump(tag_198)\n            tag_278:\n                /* \"--CODEGEN--\":11768:12334   */\n              swap6\n              swap5\n              pop\n              pop\n              pop\n              pop\n              pop\n              jump\n                /* \"--CODEGEN--\":12341:12826   */\n            tag_117:\n              0x00\n                /* \"--CODEGEN--\":12527:12530   */\n              0x80\n                /* \"--CODEGEN--\":12516:12525   */\n              dup3\n                /* \"--CODEGEN--\":12512:12531   */\n              add\n                /* \"--CODEGEN--\":12504:12531   */\n              swap1\n              pop\n                /* \"--CODEGEN--\":12542:12601   */\n              tag_280\n                /* \"--CODEGEN--\":12598:12599   */\n              0x00\n                /* \"--CODEGEN--\":12587:12596   */\n              dup4\n                /* \"--CODEGEN--\":12583:12600   */\n              add\n                /* \"--CODEGEN--\":12574:12580   */\n              dup8\n                /* \"--CODEGEN--\":12542:12601   */\n              jump(tag_231)\n            tag_280:\n                /* \"--CODEGEN--\":12612:12674   */\n              tag_281\n                /* \"--CODEGEN--\":12670:12672   */\n              0x20\n                /* \"--CODEGEN--\":12659:12668   */\n              dup4\n                /* \"--CODEGEN--\":12655:12673   */\n              add\n                /* \"--CODEGEN--\":12646:12652   */\n              dup7\n                /* \"--CODEGEN--\":12612:12674   */\n              jump(tag_198)\n            tag_281:\n                /* \"--CODEGEN--\":12685:12745   */\n              tag_282\n                /* \"--CODEGEN--\":12741:12743   */\n              0x40\n                /* \"--CODEGEN--\":12730:12739   */\n              dup4\n                /* \"--CODEGEN--\":12726:12744   */\n              add\n                /* \"--CODEGEN--\":12717:12723   */\n              dup6\n                /* \"--CODEGEN--\":12685:12745   */\n              jump(tag_231)\n            tag_282:\n                /* \"--CODEGEN--\":12756:12816   */\n              tag_283\n                /* \"--CODEGEN--\":12812:12814   */\n              0x60\n                /* \"--CODEGEN--\":12801:12810   */\n              dup4\n                /* \"--CODEGEN--\":12797:12815   */\n              add\n                /* \"--CODEGEN--\":12788:12794   */\n              dup5\n                /* \"--CODEGEN--\":12756:12816   */\n              jump(tag_231)\n            tag_283:\n                /* \"--CODEGEN--\":12498:12826   */\n              swap6\n              swap5\n              pop\n              pop\n              pop\n              pop\n              pop\n              jump\n                /* \"--CODEGEN--\":12833:13216   */\n            tag_58:\n              0x00\n                /* \"--CODEGEN--\":12991:12993   */\n              0x60\n                /* \"--CODEGEN--\":12980:12989   */\n              dup3\n                /* \"--CODEGEN--\":12976:12994   */\n              add\n                /* \"--CODEGEN--\":12968:12994   */\n              swap1\n              pop\n                /* \"--CODEGEN--\":13005:13066   */\n              tag_285\n                /* \"--CODEGEN--\":13063:13064   */\n              0x00\n                /* \"--CODEGEN--\":13052:13061   */\n              dup4\n                /* \"--CODEGEN--\":13048:13065   */\n              add\n                /* \"--CODEGEN--\":13039:13045   */\n              dup7\n                /* \"--CODEGEN--\":13005:13066   */\n              jump(tag_257)\n            tag_285:\n                /* \"--CODEGEN--\":13077:13139   */\n              tag_286\n                /* \"--CODEGEN--\":13135:13137   */\n              0x20\n                /* \"--CODEGEN--\":13124:13133   */\n              dup4\n                /* \"--CODEGEN--\":13120:13138   */\n              add\n                /* \"--CODEGEN--\":13111:13117   */\n              dup6\n                /* \"--CODEGEN--\":13077:13139   */\n              jump(tag_198)\n            tag_286:\n                /* \"--CODEGEN--\":13150:13206   */\n              tag_287\n                /* \"--CODEGEN--\":13202:13204   */\n              0x40\n                /* \"--CODEGEN--\":13191:13200   */\n              dup4\n                /* \"--CODEGEN--\":13187:13205   */\n              add\n                /* \"--CODEGEN--\":13178:13184   */\n              dup5\n                /* \"--CODEGEN--\":13150:13206   */\n              jump(tag_227)\n            tag_287:\n                /* \"--CODEGEN--\":12962:13216   */\n              swap5\n              swap4\n              pop\n              pop\n              pop\n              pop\n              jump\n                /* \"--CODEGEN--\":13223:13479   */\n            tag_150:\n              0x00\n                /* \"--CODEGEN--\":13285:13287   */\n              0x40\n                /* \"--CODEGEN--\":13279:13288   */\n              mload\n                /* \"--CODEGEN--\":13269:13288   */\n              swap1\n              pop\n                /* \"--CODEGEN--\":13323:13327   */\n              dup2\n                /* \"--CODEGEN--\":13315:13321   */\n              dup2\n                /* \"--CODEGEN--\":13311:13328   */\n              add\n                /* \"--CODEGEN--\":13422:13428   */\n              dup2\n                /* \"--CODEGEN--\":13410:13420   */\n              dup2\n                /* \"--CODEGEN--\":13407:13429   */\n              lt\n                /* \"--CODEGEN--\":13386:13404   */\n              0xffffffffffffffff\n                /* \"--CODEGEN--\":13374:13384   */\n              dup3\n                /* \"--CODEGEN--\":13371:13405   */\n              gt\n                /* \"--CODEGEN--\":13368:13430   */\n              or\n                /* \"--CODEGEN--\":13365:13367   */\n              iszero\n              tag_289\n              jumpi\n                /* \"--CODEGEN--\":13443:13444   */\n              0x00\n                /* \"--CODEGEN--\":13440:13441   */\n              dup1\n                /* \"--CODEGEN--\":13433:13445   */\n              revert\n                /* \"--CODEGEN--\":13365:13367   */\n            tag_289:\n                /* \"--CODEGEN--\":13463:13473   */\n              dup1\n                /* \"--CODEGEN--\":13459:13461   */\n              0x40\n                /* \"--CODEGEN--\":13452:13474   */\n              mstore\n                /* \"--CODEGEN--\":13263:13479   */\n              pop\n              swap2\n              swap1\n              pop\n              jump\n                /* \"--CODEGEN--\":13486:13745   */\n            tag_149:\n              0x00\n                /* \"--CODEGEN--\":13630:13648   */\n              0xffffffffffffffff\n                /* \"--CODEGEN--\":13622:13628   */\n              dup3\n                /* \"--CODEGEN--\":13619:13649   */\n              gt\n                /* \"--CODEGEN--\":13616:13618   */\n              iszero\n              tag_291\n              jumpi\n                /* \"--CODEGEN--\":13662:13663   */\n              0x00\n                /* \"--CODEGEN--\":13659:13660   */\n              dup1\n                /* \"--CODEGEN--\":13652:13664   */\n              revert\n                /* \"--CODEGEN--\":13616:13618   */\n            tag_291:\n                /* \"--CODEGEN--\":13706:13710   */\n              0x1f\n                /* \"--CODEGEN--\":13702:13711   */\n              not\n                /* \"--CODEGEN--\":13695:13699   */\n              0x1f\n                /* \"--CODEGEN--\":13687:13693   */\n              dup4\n                /* \"--CODEGEN--\":13683:13700   */\n              add\n                /* \"--CODEGEN--\":13679:13712   */\n              and\n                /* \"--CODEGEN--\":13671:13712   */\n              swap1\n              pop\n                /* \"--CODEGEN--\":13735:13739   */\n              0x20\n                /* \"--CODEGEN--\":13729:13733   */\n              dup2\n                /* \"--CODEGEN--\":13725:13740   */\n              add\n                /* \"--CODEGEN--\":13717:13740   */\n              swap1\n              pop\n                /* \"--CODEGEN--\":13553:13745   */\n              swap2\n              swap1\n              pop\n              jump\n                /* \"--CODEGEN--\":13754:13875   */\n            tag_206:\n              0x00\n                /* \"--CODEGEN--\":13863:13867   */\n              0x20\n                /* \"--CODEGEN--\":13855:13861   */\n              dup3\n                /* \"--CODEGEN--\":13851:13868   */\n              add\n                /* \"--CODEGEN--\":13840:13868   */\n              swap1\n              pop\n                /* \"--CODEGEN--\":13832:13875   */\n              swap2\n              swap1\n              pop\n              jump\n                /* \"--CODEGEN--\":13886:14028   */\n            tag_218:\n              0x00\n                /* \"--CODEGEN--\":14016:14020   */\n              0x20\n                /* \"--CODEGEN--\":14008:14014   */\n              dup3\n                /* \"--CODEGEN--\":14004:14021   */\n              add\n                /* \"--CODEGEN--\":13993:14021   */\n              swap1\n              pop\n                /* \"--CODEGEN--\":13985:14028   */\n              swap2\n              swap1\n              pop\n              jump\n                /* \"--CODEGEN--\":14037:14144   */\n            tag_204:\n              0x00\n                /* \"--CODEGEN--\":14133:14138   */\n              dup2\n                /* \"--CODEGEN--\":14127:14139   */\n              mload\n                /* \"--CODEGEN--\":14117:14139   */\n              swap1\n              pop\n                /* \"--CODEGEN--\":14111:14144   */\n              swap2\n              swap1\n              pop\n              jump\n                /* \"--CODEGEN--\":14151:14279   */\n            tag_216:\n              0x00\n                /* \"--CODEGEN--\":14268:14273   */\n              dup2\n                /* \"--CODEGEN--\":14262:14274   */\n              mload\n                /* \"--CODEGEN--\":14252:14274   */\n              swap1\n              pop\n                /* \"--CODEGEN--\":14246:14279   */\n              swap2\n              swap1\n              pop\n              jump\n                /* \"--CODEGEN--\":14286:14374   */\n            tag_245:\n              0x00\n                /* \"--CODEGEN--\":14363:14368   */\n              dup2\n                /* \"--CODEGEN--\":14357:14369   */\n              mload\n                /* \"--CODEGEN--\":14347:14369   */\n              swap1\n              pop\n                /* \"--CODEGEN--\":14341:14374   */\n              swap2\n              swap1\n              pop\n              jump\n                /* \"--CODEGEN--\":14381:14473   */\n            tag_237:\n              0x00\n                /* \"--CODEGEN--\":14462:14467   */\n              dup2\n                /* \"--CODEGEN--\":14456:14468   */\n              mload\n                /* \"--CODEGEN--\":14446:14468   */\n              swap1\n              pop\n                /* \"--CODEGEN--\":14440:14473   */\n              swap2\n              swap1\n              pop\n              jump\n                /* \"--CODEGEN--\":14481:14603   */\n            tag_212:\n              0x00\n                /* \"--CODEGEN--\":14592:14596   */\n              0x20\n                /* \"--CODEGEN--\":14584:14590   */\n              dup3\n                /* \"--CODEGEN--\":14580:14597   */\n              add\n                /* \"--CODEGEN--\":14569:14597   */\n              swap1\n              pop\n                /* \"--CODEGEN--\":14562:14603   */\n              swap2\n              swap1\n              pop\n              jump\n                /* \"--CODEGEN--\":14612:14755   */\n            tag_225:\n              0x00\n                /* \"--CODEGEN--\":14744:14748   */\n              0x20\n                /* \"--CODEGEN--\":14736:14742   */\n              dup3\n                /* \"--CODEGEN--\":14732:14749   */\n              add\n                /* \"--CODEGEN--\":14721:14749   */\n              swap1\n              pop\n                /* \"--CODEGEN--\":14714:14755   */\n              swap2\n              swap1\n              pop\n              jump\n                /* \"--CODEGEN--\":14763:14868   */\n            tag_200:\n              0x00\n                /* \"--CODEGEN--\":14832:14863   */\n              tag_301\n                /* \"--CODEGEN--\":14857:14862   */\n              dup3\n                /* \"--CODEGEN--\":14832:14863   */\n              jump(tag_302)\n            tag_301:\n                /* \"--CODEGEN--\":14821:14863   */\n              swap1\n              pop\n                /* \"--CODEGEN--\":14815:14868   */\n              swap2\n              swap1\n              pop\n              jump\n                /* \"--CODEGEN--\":14875:14967   */\n            tag_229:\n              0x00\n                /* \"--CODEGEN--\":14955:14960   */\n              dup2\n                /* \"--CODEGEN--\":14948:14961   */\n              iszero\n                /* \"--CODEGEN--\":14941:14962   */\n              iszero\n                /* \"--CODEGEN--\":14930:14962   */\n              swap1\n              pop\n                /* \"--CODEGEN--\":14924:14967   */\n              swap2\n              swap1\n              pop\n              jump\n                /* \"--CODEGEN--\":14974:15052   */\n            tag_233:\n              0x00\n                /* \"--CODEGEN--\":15042:15047   */\n              dup2\n                /* \"--CODEGEN--\":15031:15047   */\n              swap1\n              pop\n                /* \"--CODEGEN--\":15025:15052   */\n              swap2\n              swap1\n              pop\n              jump\n                /* \"--CODEGEN--\":15059:15187   */\n            tag_302:\n              0x00\n                /* \"--CODEGEN--\":15139:15181   */\n              0xffffffffffffffffffffffffffffffffffffffff\n                /* \"--CODEGEN--\":15132:15137   */\n              dup3\n                /* \"--CODEGEN--\":15128:15182   */\n              and\n                /* \"--CODEGEN--\":15117:15182   */\n              swap1\n              pop\n                /* \"--CODEGEN--\":15111:15187   */\n              swap2\n              swap1\n              pop\n              jump\n                /* \"--CODEGEN--\":15194:15273   */\n            tag_264:\n              0x00\n                /* \"--CODEGEN--\":15263:15268   */\n              dup2\n                /* \"--CODEGEN--\":15252:15268   */\n              swap1\n              pop\n                /* \"--CODEGEN--\":15246:15273   */\n              swap2\n              swap1\n              pop\n              jump\n                /* \"--CODEGEN--\":15280:15385   */\n            tag_132:\n              0x00\n                /* \"--CODEGEN--\":15349:15380   */\n              tag_308\n                /* \"--CODEGEN--\":15374:15379   */\n              dup3\n                /* \"--CODEGEN--\":15349:15380   */\n              jump(tag_302)\n            tag_308:\n                /* \"--CODEGEN--\":15338:15380   */\n              swap1\n              pop\n                /* \"--CODEGEN--\":15332:15385   */\n              swap2\n              swap1\n              pop\n              jump\n                /* \"--CODEGEN--\":15392:15484   */\n            tag_139:\n              0x00\n                /* \"--CODEGEN--\":15472:15477   */\n              dup2\n                /* \"--CODEGEN--\":15465:15478   */\n              iszero\n                /* \"--CODEGEN--\":15458:15479   */\n              iszero\n                /* \"--CODEGEN--\":15447:15479   */\n              swap1\n              pop\n                /* \"--CODEGEN--\":15441:15484   */\n              swap2\n              swap1\n              pop\n              jump\n                /* \"--CODEGEN--\":15491:15569   */\n            tag_143:\n              0x00\n                /* \"--CODEGEN--\":15559:15564   */\n              dup2\n                /* \"--CODEGEN--\":15548:15564   */\n              swap1\n              pop\n                /* \"--CODEGEN--\":15542:15569   */\n              swap2\n              swap1\n              pop\n              jump\n                /* \"--CODEGEN--\":15576:15655   */\n            tag_157:\n              0x00\n                /* \"--CODEGEN--\":15645:15650   */\n              dup2\n                /* \"--CODEGEN--\":15634:15650   */\n              swap1\n              pop\n                /* \"--CODEGEN--\":15628:15655   */\n              swap2\n              swap1\n              pop\n              jump\n                /* \"--CODEGEN--\":15663:15808   */\n            tag_153:\n                /* \"--CODEGEN--\":15744:15750   */\n              dup3\n                /* \"--CODEGEN--\":15739:15742   */\n              dup2\n                /* \"--CODEGEN--\":15734:15737   */\n              dup4\n                /* \"--CODEGEN--\":15721:15751   */\n              calldatacopy\n                /* \"--CODEGEN--\":15800:15801   */\n              0x00\n                /* \"--CODEGEN--\":15791:15797   */\n              dup4\n                /* \"--CODEGEN--\":15786:15789   */\n              dup4\n                /* \"--CODEGEN--\":15782:15798   */\n              add\n                /* \"--CODEGEN--\":15775:15802   */\n              mstore\n                /* \"--CODEGEN--\":15714:15808   */\n              pop\n              pop\n              pop\n              jump\n                /* \"--CODEGEN--\":15817:16085   */\n            tag_239:\n                /* \"--CODEGEN--\":15882:15883   */\n              0x00\n                /* \"--CODEGEN--\":15889:15990   */\n            tag_314:\n                /* \"--CODEGEN--\":15903:15909   */\n              dup4\n                /* \"--CODEGEN--\":15900:15901   */\n              dup2\n                /* \"--CODEGEN--\":15897:15910   */\n              lt\n                /* \"--CODEGEN--\":15889:15990   */\n              iszero\n              tag_315\n              jumpi\n                /* \"--CODEGEN--\":15979:15980   */\n              dup1\n                /* \"--CODEGEN--\":15974:15977   */\n              dup3\n                /* \"--CODEGEN--\":15970:15981   */\n              add\n                /* \"--CODEGEN--\":15964:15982   */\n              mload\n                /* \"--CODEGEN--\":15960:15961   */\n              dup2\n                /* \"--CODEGEN--\":15955:15958   */\n              dup5\n                /* \"--CODEGEN--\":15951:15962   */\n              add\n                /* \"--CODEGEN--\":15944:15983   */\n              mstore\n                /* \"--CODEGEN--\":15925:15927   */\n              0x20\n                /* \"--CODEGEN--\":15922:15923   */\n              dup2\n                /* \"--CODEGEN--\":15918:15928   */\n              add\n                /* \"--CODEGEN--\":15913:15928   */\n              swap1\n              pop\n                /* \"--CODEGEN--\":15889:15990   */\n              jump(tag_314)\n            tag_315:\n                /* \"--CODEGEN--\":16005:16011   */\n              dup4\n                /* \"--CODEGEN--\":16002:16003   */\n              dup2\n                /* \"--CODEGEN--\":15999:16012   */\n              gt\n                /* \"--CODEGEN--\":15996:15998   */\n              iszero\n              tag_317\n              jumpi\n                /* \"--CODEGEN--\":16070:16071   */\n              0x00\n                /* \"--CODEGEN--\":16061:16067   */\n              dup5\n                /* \"--CODEGEN--\":16056:16059   */\n              dup5\n                /* \"--CODEGEN--\":16052:16068   */\n              add\n                /* \"--CODEGEN--\":16045:16072   */\n              mstore\n                /* \"--CODEGEN--\":15996:15998   */\n            tag_317:\n                /* \"--CODEGEN--\":15866:16085   */\n              pop\n              pop\n              pop\n              pop\n              jump\n                /* \"--CODEGEN--\":16093:16190   */\n            tag_241:\n              0x00\n                /* \"--CODEGEN--\":16181:16183   */\n              0x1f\n                /* \"--CODEGEN--\":16177:16184   */\n              not\n                /* \"--CODEGEN--\":16172:16174   */\n              0x1f\n                /* \"--CODEGEN--\":16165:16170   */\n              dup4\n                /* \"--CODEGEN--\":16161:16175   */\n              add\n                /* \"--CODEGEN--\":16157:16185   */\n              and\n                /* \"--CODEGEN--\":16147:16185   */\n              swap1\n              pop\n                /* \"--CODEGEN--\":16141:16190   */\n              swap2\n              swap1\n              pop\n              jump\n            stop\n\n            sub_0: assembly {\n                    /* \"background.sol\":15616:17982  contract Insurance {\r... */\n                  mstore(0x40, 0x80)\n                    /* \"background.sol\":16121:16123  -1 */\n                  0xffffffffffffffffffffffffffffffffffffffffffffffffffffffffffffffff\n                    /* \"background.sol\":16101:16123  int requestsCount = -1 */\n                  0x07\n                  sstore\n                    /* \"background.sol\":16157:16511  constructor(address ownerrr, string memory namee, int aadharr, int amountt, string memory insDetailss, string memory documentss) public {\r... */\n                  callvalue\n                    /* \"--CODEGEN--\":8:17   */\n                  dup1\n                    /* \"--CODEGEN--\":5:7   */\n                  iszero\n                  tag_1\n                  jumpi\n                    /* \"--CODEGEN--\":30:31   */\n                  0x00\n                    /* \"--CODEGEN--\":27:28   */\n                  dup1\n                    /* \"--CODEGEN--\":20:32   */\n                  revert\n                    /* \"--CODEGEN--\":5:7   */\n                tag_1:\n                    /* \"background.sol\":16157:16511  constructor(address ownerrr, string memory namee, int aadharr, int amountt, string memory insDetailss, string memory documentss) public {\r... */\n                  pop\n                  mload(0x40)\n                  sub(codesize, bytecodeSize)\n                  dup1\n                  bytecodeSize\n                  dup4\n                  codecopy\n                  dup2\n                  add\n                  dup1\n                  0x40\n                  mstore\n                  tag_2\n                  swap2\n                  swap1\n                  dup2\n                  add\n                  swap1\n                  jump(tag_3)\n                tag_2:\n                    /* \"background.sol\":16326:16330  this */\n                  address\n                    /* \"background.sol\":16304:16315  selfAddress */\n                  0x00\n                  dup1\n                    /* \"background.sol\":16304:16331  selfAddress = address(this) */\n                  0x0100\n                  exp\n                  dup2\n                  sload\n                  dup2\n                  0xffffffffffffffffffffffffffffffffffffffff\n                  mul\n                  not\n                  and\n                  swap1\n                  dup4\n                  0xffffffffffffffffffffffffffffffffffffffff\n                  and\n                  mul\n                  or\n                  swap1\n                  sstore\n                  pop\n                    /* \"background.sol\":16351:16358  ownerrr */\n                  dup6\n                    /* \"background.sol\":16342:16348  ownerr */\n                  0x01\n                  0x00\n                    /* \"background.sol\":16342:16358  ownerr = ownerrr */\n                  0x0100\n                  exp\n                  dup2\n                  sload\n                  dup2\n                  0xffffffffffffffffffffffffffffffffffffffff\n                  mul\n                  not\n                  and\n                  swap1\n                  dup4\n                  0xffffffffffffffffffffffffffffffffffffffff\n                  and\n                  mul\n                  or\n                  swap1\n                  sstore\n                  pop\n                    /* \"background.sol\":16376:16381  namee */\n                  dup5\n                    /* \"background.sol\":16369:16373  name */\n                  0x02\n                    /* \"background.sol\":16369:16381  name = namee */\n                  swap1\n                  dup1\n                  mload\n                  swap1\n                  0x20\n                  add\n                  swap1\n                  tag_6\n                  swap3\n                  swap2\n                  swap1\n                  tag_7\n                  jump\t// in\n                tag_6:\n                  pop\n                    /* \"background.sol\":16405:16416  insDetailss */\n                  dup2\n                    /* \"background.sol\":16392:16402  insDetails */\n                  0x04\n                    /* \"background.sol\":16392:16416  insDetails = insDetailss */\n                  swap1\n                  dup1\n                  mload\n                  swap1\n                  0x20\n                  add\n                  swap1\n                  tag_8\n                  swap3\n                  swap2\n                  swap1\n                  tag_7\n                  jump\t// in\n                tag_8:\n                  pop\n                    /* \"background.sol\":16439:16449  documentss */\n                  dup1\n                    /* \"background.sol\":16427:16436  documents */\n                  0x05\n                    /* \"background.sol\":16427:16449  documents = documentss */\n                  swap1\n                  dup1\n                  mload\n                  swap1\n                  0x20\n                  add\n                  swap1\n                  tag_9\n                  swap3\n                  swap2\n                  swap1\n                  tag_7\n                  jump\t// in\n                tag_9:\n                  pop\n                    /* \"background.sol\":16469:16476  aadharr */\n                  dup4\n                    /* \"background.sol\":16460:16466  aadhar */\n                  0x03\n                    /* \"background.sol\":16460:16476  aadhar = aadharr */\n                  dup2\n                  swap1\n                  sstore\n                  pop\n                    /* \"background.sol\":16496:16503  amountt */\n                  dup3\n                    /* \"background.sol\":16487:16493  amount */\n                  0x06\n                    /* \"background.sol\":16487:16503  amount = amountt */\n                  dup2\n                  swap1\n                  sstore\n                  pop\n                    /* \"background.sol\":16157:16511  constructor(address ownerrr, string memory namee, int aadharr, int amountt, string memory insDetailss, string memory documentss) public {\r... */\n                  pop\n                  pop\n                  pop\n                  pop\n                  pop\n                  pop\n                    /* \"background.sol\":15616:17982  contract Insurance {\r... */\n                  jump(tag_10)\n                tag_7:\n                  dup3\n                  dup1\n                  sload\n                  0x01\n                  dup2\n                  0x01\n                  and\n                  iszero\n                  0x0100\n                  mul\n                  sub\n                  and\n                  0x02\n                  swap1\n                  div\n                  swap1\n                  0x00\n                  mstore\n                  keccak256(0x00, 0x20)\n                  swap1\n                  0x1f\n                  add\n                  0x20\n                  swap1\n                  div\n                  dup2\n                  add\n                  swap3\n                  dup3\n                  0x1f\n                  lt\n                  tag_12\n                  jumpi\n                  dup1\n                  mload\n                  not(0xff)\n                  and\n                  dup4\n                  dup1\n                  add\n                  or\n                  dup6\n                  sstore\n                  jump(tag_11)\n                tag_12:\n                  dup3\n                  dup1\n                  add\n                  0x01\n                  add\n                  dup6\n                  sstore\n                  dup3\n                  iszero\n                  tag_11\n                  jumpi\n                  swap2\n                  dup3\n                  add\n                tag_13:\n                  dup3\n                  dup2\n                  gt\n                  iszero\n                  tag_14\n                  jumpi\n                  dup3\n                  mload\n                  dup3\n                  sstore\n                  swap2\n                  0x20\n                  add\n                  swap2\n                  swap1\n                  0x01\n                  add\n                  swap1\n                  jump(tag_13)\n                tag_14:\n                tag_11:\n                  pop\n                  swap1\n                  pop\n                  tag_15\n                  swap2\n                  swap1\n                  tag_16\n                  jump\t// in\n                tag_15:\n                  pop\n                  swap1\n                  jump\t// out\n                tag_16:\n                  tag_17\n                  swap2\n                  swap1\n                tag_18:\n                  dup1\n                  dup3\n                  gt\n                  iszero\n                  tag_19\n                  jumpi\n                  0x00\n                  dup2\n                  0x00\n                  swap1\n                  sstore\n                  pop\n                  0x01\n                  add\n                  jump(tag_18)\n                tag_19:\n                  pop\n                  swap1\n                  jump\n                tag_17:\n                  swap1\n                  jump\t// out\n                    /* \"--CODEGEN--\":5:127   */\n                tag_21:\n                  0x00\n                    /* \"--CODEGEN--\":83:122   */\n                  tag_22\n                    /* \"--CODEGEN--\":114:120   */\n                  dup3\n                    /* \"--CODEGEN--\":108:121   */\n                  mload\n                    /* \"--CODEGEN--\":83:122   */\n                  jump(tag_23)\n                tag_22:\n                    /* \"--CODEGEN--\":74:122   */\n                  swap1\n                  pop\n                    /* \"--CODEGEN--\":68:127   */\n                  swap3\n                  swap2\n                  pop\n                  pop\n                  jump\n                    /* \"--CODEGEN--\":134:254   */\n                tag_25:\n                  0x00\n                    /* \"--CODEGEN--\":211:249   */\n                  tag_26\n                    /* \"--CODEGEN--\":241:247   */\n                  dup3\n                    /* \"--CODEGEN--\":235:248   */\n                  mload\n                    /* \"--CODEGEN--\":211:249   */\n                  jump(tag_27)\n                tag_26:\n                    /* \"--CODEGEN--\":202:249   */\n                  swap1\n                  pop\n                    /* \"--CODEGEN--\":196:254   */\n                  swap3\n                  swap2\n                  pop\n                  pop\n                  jump\n                    /* \"--CODEGEN--\":262:706   */\n                tag_29:\n                  0x00\n                    /* \"--CODEGEN--\":375:378   */\n                  dup3\n                    /* \"--CODEGEN--\":368:372   */\n                  0x1f\n                    /* \"--CODEGEN--\":360:366   */\n                  dup4\n                    /* \"--CODEGEN--\":356:373   */\n                  add\n                    /* \"--CODEGEN--\":352:379   */\n                  slt\n                    /* \"--CODEGEN--\":345:380   */\n                  iszero\n                    /* \"--CODEGEN--\":342:344   */\n                  iszero\n                  tag_30\n                  jumpi\n                    /* \"--CODEGEN--\":393:394   */\n                  0x00\n                    /* \"--CODEGEN--\":390:391   */\n                  dup1\n                    /* \"--CODEGEN--\":383:395   */\n                  revert\n                    /* \"--CODEGEN--\":342:344   */\n                tag_30:\n                    /* \"--CODEGEN--\":423:429   */\n                  dup2\n                    /* \"--CODEGEN--\":417:430   */\n                  mload\n                    /* \"--CODEGEN--\":445:510   */\n                  tag_31\n                    /* \"--CODEGEN--\":460:509   */\n                  tag_32\n                    /* \"--CODEGEN--\":502:508   */\n                  dup3\n                    /* \"--CODEGEN--\":460:509   */\n                  jump(tag_33)\n                tag_32:\n                    /* \"--CODEGEN--\":445:510   */\n                  jump(tag_34)\n                tag_31:\n                    /* \"--CODEGEN--\":436:510   */\n                  swap2\n                  pop\n                    /* \"--CODEGEN--\":530:536   */\n                  dup1\n                    /* \"--CODEGEN--\":523:528   */\n                  dup3\n                    /* \"--CODEGEN--\":516:537   */\n                  mstore\n                    /* \"--CODEGEN--\":566:570   */\n                  0x20\n                    /* \"--CODEGEN--\":558:564   */\n                  dup4\n                    /* \"--CODEGEN--\":554:571   */\n                  add\n                    /* \"--CODEGEN--\":599:603   */\n                  0x20\n                    /* \"--CODEGEN--\":592:597   */\n                  dup4\n                    /* \"--CODEGEN--\":588:604   */\n                  add\n                    /* \"--CODEGEN--\":634:637   */\n                  dup6\n                    /* \"--CODEGEN--\":625:631   */\n                  dup4\n                    /* \"--CODEGEN--\":620:623   */\n                  dup4\n                    /* \"--CODEGEN--\":616:632   */\n                  add\n                    /* \"--CODEGEN--\":613:638   */\n                  gt\n                    /* \"--CODEGEN--\":610:612   */\n                  iszero\n                  tag_35\n                  jumpi\n                    /* \"--CODEGEN--\":651:652   */\n                  0x00\n                    /* \"--CODEGEN--\":648:649   */\n                  dup1\n                    /* \"--CODEGEN--\":641:653   */\n                  revert\n                    /* \"--CODEGEN--\":610:612   */\n                tag_35:\n                    /* \"--CODEGEN--\":661:700   */\n                  tag_36\n                    /* \"--CODEGEN--\":693:699   */\n                  dup4\n                    /* \"--CODEGEN--\":688:691   */\n                  dup3\n                    /* \"--CODEGEN--\":683:686   */\n                  dup5\n                    /* \"--CODEGEN--\":661:700   */\n                  jump(tag_37)\n                tag_36:\n                    /* \"--CODEGEN--\":335:706   */\n                  pop\n                  pop\n                  pop\n                  swap3\n                  swap2\n                  pop\n                  pop\n                  jump\n                    /* \"--CODEGEN--\":714:1953   */\n                tag_3:\n                  0x00\n                  dup1\n                  0x00\n                  dup1\n                  0x00\n                  dup1\n                    /* \"--CODEGEN--\":942:945   */\n                  0xc0\n                    /* \"--CODEGEN--\":930:939   */\n                  dup8\n                    /* \"--CODEGEN--\":921:928   */\n                  dup10\n                    /* \"--CODEGEN--\":917:940   */\n                  sub\n                    /* \"--CODEGEN--\":913:946   */\n                  slt\n                    /* \"--CODEGEN--\":910:912   */\n                  iszero\n                  tag_39\n                  jumpi\n                    /* \"--CODEGEN--\":959:960   */\n                  0x00\n                    /* \"--CODEGEN--\":956:957   */\n                  dup1\n                    /* \"--CODEGEN--\":949:961   */\n                  revert\n                    /* \"--CODEGEN--\":910:912   */\n                tag_39:\n                    /* \"--CODEGEN--\":994:995   */\n                  0x00\n                    /* \"--CODEGEN--\":1011:1075   */\n                  tag_40\n                    /* \"--CODEGEN--\":1067:1074   */\n                  dup10\n                    /* \"--CODEGEN--\":1058:1064   */\n                  dup3\n                    /* \"--CODEGEN--\":1047:1056   */\n                  dup11\n                    /* \"--CODEGEN--\":1043:1065   */\n                  add\n                    /* \"--CODEGEN--\":1011:1075   */\n                  jump(tag_21)\n                tag_40:\n                    /* \"--CODEGEN--\":1001:1075   */\n                  swap7\n                  pop\n                    /* \"--CODEGEN--\":973:1081   */\n                  pop\n                    /* \"--CODEGEN--\":1133:1135   */\n                  0x20\n                    /* \"--CODEGEN--\":1122:1131   */\n                  dup8\n                    /* \"--CODEGEN--\":1118:1136   */\n                  add\n                    /* \"--CODEGEN--\":1112:1137   */\n                  mload\n                    /* \"--CODEGEN--\":1157:1175   */\n                  0xffffffffffffffff\n                    /* \"--CODEGEN--\":1149:1155   */\n                  dup2\n                    /* \"--CODEGEN--\":1146:1176   */\n                  gt\n                    /* \"--CODEGEN--\":1143:1145   */\n                  iszero\n                  tag_41\n                  jumpi\n                    /* \"--CODEGEN--\":1189:1190   */\n                  0x00\n                    /* \"--CODEGEN--\":1186:1187   */\n                  dup1\n                    /* \"--CODEGEN--\":1179:1191   */\n                  revert\n                    /* \"--CODEGEN--\":1143:1145   */\n                tag_41:\n                    /* \"--CODEGEN--\":1209:1283   */\n                  tag_42\n                    /* \"--CODEGEN--\":1275:1282   */\n                  dup10\n                    /* \"--CODEGEN--\":1266:1272   */\n                  dup3\n                    /* \"--CODEGEN--\":1255:1264   */\n                  dup11\n                    /* \"--CODEGEN--\":1251:1273   */\n                  add\n                    /* \"--CODEGEN--\":1209:1283   */\n                  jump(tag_29)\n                tag_42:\n                    /* \"--CODEGEN--\":1199:1283   */\n                  swap6\n                  pop\n                    /* \"--CODEGEN--\":1091:1289   */\n                  pop\n                    /* \"--CODEGEN--\":1320:1322   */\n                  0x40\n                    /* \"--CODEGEN--\":1338:1401   */\n                  tag_43\n                    /* \"--CODEGEN--\":1393:1400   */\n                  dup10\n                    /* \"--CODEGEN--\":1384:1390   */\n                  dup3\n                    /* \"--CODEGEN--\":1373:1382   */\n                  dup11\n                    /* \"--CODEGEN--\":1369:1391   */\n                  add\n                    /* \"--CODEGEN--\":1338:1401   */\n                  jump(tag_25)\n                tag_43:\n                    /* \"--CODEGEN--\":1328:1401   */\n                  swap5\n                  pop\n                    /* \"--CODEGEN--\":1299:1407   */\n                  pop\n                    /* \"--CODEGEN--\":1438:1440   */\n                  0x60\n                    /* \"--CODEGEN--\":1456:1519   */\n                  tag_44\n                    /* \"--CODEGEN--\":1511:1518   */\n                  dup10\n                    /* \"--CODEGEN--\":1502:1508   */\n                  dup3\n                    /* \"--CODEGEN--\":1491:1500   */\n                  dup11\n                    /* \"--CODEGEN--\":1487:1509   */\n                  add\n                    /* \"--CODEGEN--\":1456:1519   */\n                  jump(tag_25)\n                tag_44:\n                    /* \"--CODEGEN--\":1446:1519   */\n                  swap4\n                  pop\n                    /* \"--CODEGEN--\":1417:1525   */\n                  pop\n                    /* \"--CODEGEN--\":1577:1580   */\n                  0x80\n                    /* \"--CODEGEN--\":1566:1575   */\n                  dup8\n                    /* \"--CODEGEN--\":1562:1581   */\n                  add\n                    /* \"--CODEGEN--\":1556:1582   */\n                  mload\n                    /* \"--CODEGEN--\":1602:1620   */\n                  0xffffffffffffffff\n                    /* \"--CODEGEN--\":1594:1600   */\n                  dup2\n                    /* \"--CODEGEN--\":1591:1621   */\n                  gt\n                    /* \"--CODEGEN--\":1588:1590   */\n                  iszero\n                  tag_45\n                  jumpi\n                    /* \"--CODEGEN--\":1634:1635   */\n                  0x00\n                    /* \"--CODEGEN--\":1631:1632   */\n                  dup1\n                    /* \"--CODEGEN--\":1624:1636   */\n                  revert\n                    /* \"--CODEGEN--\":1588:1590   */\n                tag_45:\n                    /* \"--CODEGEN--\":1654:1728   */\n                  tag_46\n                    /* \"--CODEGEN--\":1720:1727   */\n                  dup10\n                    /* \"--CODEGEN--\":1711:1717   */\n                  dup3\n                    /* \"--CODEGEN--\":1700:1709   */\n                  dup11\n                    /* \"--CODEGEN--\":1696:1718   */\n                  add\n                    /* \"--CODEGEN--\":1654:1728   */\n                  jump(tag_29)\n                tag_46:\n                    /* \"--CODEGEN--\":1644:1728   */\n                  swap3\n                  pop\n                    /* \"--CODEGEN--\":1535:1734   */\n                  pop\n                    /* \"--CODEGEN--\":1786:1789   */\n                  0xa0\n                    /* \"--CODEGEN--\":1775:1784   */\n                  dup8\n                    /* \"--CODEGEN--\":1771:1790   */\n                  add\n                    /* \"--CODEGEN--\":1765:1791   */\n                  mload\n                    /* \"--CODEGEN--\":1811:1829   */\n                  0xffffffffffffffff\n                    /* \"--CODEGEN--\":1803:1809   */\n                  dup2\n                    /* \"--CODEGEN--\":1800:1830   */\n                  gt\n                    /* \"--CODEGEN--\":1797:1799   */\n                  iszero\n                  tag_47\n                  jumpi\n                    /* \"--CODEGEN--\":1843:1844   */\n                  0x00\n                    /* \"--CODEGEN--\":1840:1841   */\n                  dup1\n                    /* \"--CODEGEN--\":1833:1845   */\n                  revert\n                    /* \"--CODEGEN--\":1797:1799   */\n                tag_47:\n                    /* \"--CODEGEN--\":1863:1937   */\n                  tag_48\n                    /* \"--CODEGEN--\":1929:1936   */\n                  dup10\n                    /* \"--CODEGEN--\":1920:1926   */\n                  dup3\n                    /* \"--CODEGEN--\":1909:1918   */\n                  dup11\n                    /* \"--CODEGEN--\":1905:1927   */\n                  add\n                    /* \"--CODEGEN--\":1863:1937   */\n                  jump(tag_29)\n                tag_48:\n                    /* \"--CODEGEN--\":1853:1937   */\n                  swap2\n                  pop\n                    /* \"--CODEGEN--\":1744:1943   */\n                  pop\n                    /* \"--CODEGEN--\":904:1953   */\n                  swap3\n                  swap6\n                  pop\n                  swap3\n                  swap6\n                  pop\n                  swap3\n                  swap6\n                  jump\n                    /* \"--CODEGEN--\":1960:2216   */\n                tag_34:\n                  0x00\n                    /* \"--CODEGEN--\":2022:2024   */\n                  0x40\n                    /* \"--CODEGEN--\":2016:2025   */\n                  mload\n                    /* \"--CODEGEN--\":2006:2025   */\n                  swap1\n                  pop\n                    /* \"--CODEGEN--\":2060:2064   */\n                  dup2\n                    /* \"--CODEGEN--\":2052:2058   */\n                  dup2\n                    /* \"--CODEGEN--\":2048:2065   */\n                  add\n                    /* \"--CODEGEN--\":2159:2165   */\n                  dup2\n                    /* \"--CODEGEN--\":2147:2157   */\n                  dup2\n                    /* \"--CODEGEN--\":2144:2166   */\n                  lt\n                    /* \"--CODEGEN--\":2123:2141   */\n                  0xffffffffffffffff\n                    /* \"--CODEGEN--\":2111:2121   */\n                  dup3\n                    /* \"--CODEGEN--\":2108:2142   */\n                  gt\n                    /* \"--CODEGEN--\":2105:2167   */\n                  or\n                    /* \"--CODEGEN--\":2102:2104   */\n                  iszero\n                  tag_50\n                  jumpi\n                    /* \"--CODEGEN--\":2180:2181   */\n                  0x00\n                    /* \"--CODEGEN--\":2177:2178   */\n                  dup1\n                    /* \"--CODEGEN--\":2170:2182   */\n                  revert\n                    /* \"--CODEGEN--\":2102:2104   */\n                tag_50:\n                    /* \"--CODEGEN--\":2200:2210   */\n                  dup1\n                    /* \"--CODEGEN--\":2196:2198   */\n                  0x40\n                    /* \"--CODEGEN--\":2189:2211   */\n                  mstore\n                    /* \"--CODEGEN--\":2000:2216   */\n                  pop\n                  swap2\n                  swap1\n                  pop\n                  jump\n                    /* \"--CODEGEN--\":2223:2482   */\n                tag_33:\n                  0x00\n                    /* \"--CODEGEN--\":2367:2385   */\n                  0xffffffffffffffff\n                    /* \"--CODEGEN--\":2359:2365   */\n                  dup3\n                    /* \"--CODEGEN--\":2356:2386   */\n                  gt\n                    /* \"--CODEGEN--\":2353:2355   */\n                  iszero\n                  tag_52\n                  jumpi\n                    /* \"--CODEGEN--\":2399:2400   */\n                  0x00\n                    /* \"--CODEGEN--\":2396:2397   */\n                  dup1\n                    /* \"--CODEGEN--\":2389:2401   */\n                  revert\n                    /* \"--CODEGEN--\":2353:2355   */\n                tag_52:\n                    /* \"--CODEGEN--\":2443:2447   */\n                  0x1f\n                    /* \"--CODEGEN--\":2439:2448   */\n                  not\n                    /* \"--CODEGEN--\":2432:2436   */\n                  0x1f\n                    /* \"--CODEGEN--\":2424:2430   */\n                  dup4\n                    /* \"--CODEGEN--\":2420:2437   */\n                  add\n                    /* \"--CODEGEN--\":2416:2449   */\n                  and\n                    /* \"--CODEGEN--\":2408:2449   */\n                  swap1\n                  pop\n                    /* \"--CODEGEN--\":2472:2476   */\n                  0x20\n                    /* \"--CODEGEN--\":2466:2470   */\n                  dup2\n                    /* \"--CODEGEN--\":2462:2477   */\n                  add\n                    /* \"--CODEGEN--\":2454:2477   */\n                  swap1\n                  pop\n                    /* \"--CODEGEN--\":2290:2482   */\n                  swap2\n                  swap1\n                  pop\n                  jump\n                    /* \"--CODEGEN--\":2489:2617   */\n                tag_54:\n                  0x00\n                    /* \"--CODEGEN--\":2569:2611   */\n                  0xffffffffffffffffffffffffffffffffffffffff\n                    /* \"--CODEGEN--\":2562:2567   */\n                  dup3\n                    /* \"--CODEGEN--\":2558:2612   */\n                  and\n                    /* \"--CODEGEN--\":2547:2612   */\n                  swap1\n                  pop\n                    /* \"--CODEGEN--\":2541:2617   */\n                  swap2\n                  swap1\n                  pop\n                  jump\n                    /* \"--CODEGEN--\":2624:2729   */\n                tag_23:\n                  0x00\n                    /* \"--CODEGEN--\":2693:2724   */\n                  tag_56\n                    /* \"--CODEGEN--\":2718:2723   */\n                  dup3\n                    /* \"--CODEGEN--\":2693:2724   */\n                  jump(tag_54)\n                tag_56:\n                    /* \"--CODEGEN--\":2682:2724   */\n                  swap1\n                  pop\n                    /* \"--CODEGEN--\":2676:2729   */\n                  swap2\n                  swap1\n                  pop\n                  jump\n                    /* \"--CODEGEN--\":2736:2814   */\n                tag_27:\n                  0x00\n                    /* \"--CODEGEN--\":2804:2809   */\n                  dup2\n                    /* \"--CODEGEN--\":2793:2809   */\n                  swap1\n                  pop\n                    /* \"--CODEGEN--\":2787:2814   */\n                  swap2\n                  swap1\n                  pop\n                  jump\n                    /* \"--CODEGEN--\":2822:3090   */\n                tag_37:\n                    /* \"--CODEGEN--\":2887:2888   */\n                  0x00\n                    /* \"--CODEGEN--\":2894:2995   */\n                tag_59:\n                    /* \"--CODEGEN--\":2908:2914   */\n                  dup4\n                    /* \"--CODEGEN--\":2905:2906   */\n                  dup2\n                    /* \"--CODEGEN--\":2902:2915   */\n                  lt\n                    /* \"--CODEGEN--\":2894:2995   */\n                  iszero\n                  tag_60\n                  jumpi\n                    /* \"--CODEGEN--\":2984:2985   */\n                  dup1\n                    /* \"--CODEGEN--\":2979:2982   */\n                  dup3\n                    /* \"--CODEGEN--\":2975:2986   */\n                  add\n                    /* \"--CODEGEN--\":2969:2987   */\n                  mload\n                    /* \"--CODEGEN--\":2965:2966   */\n                  dup2\n                    /* \"--CODEGEN--\":2960:2963   */\n                  dup5\n                    /* \"--CODEGEN--\":2956:2967   */\n                  add\n                    /* \"--CODEGEN--\":2949:2988   */\n                  mstore\n                    /* \"--CODEGEN--\":2930:2932   */\n                  0x20\n                    /* \"--CODEGEN--\":2927:2928   */\n                  dup2\n                    /* \"--CODEGEN--\":2923:2933   */\n                  add\n                    /* \"--CODEGEN--\":2918:2933   */\n                  swap1\n                  pop\n                    /* \"--CODEGEN--\":2894:2995   */\n                  jump(tag_59)\n                tag_60:\n                    /* \"--CODEGEN--\":3010:3016   */\n                  dup4\n                    /* \"--CODEGEN--\":3007:3008   */\n                  dup2\n                    /* \"--CODEGEN--\":3004:3017   */\n                  gt\n                    /* \"--CODEGEN--\":3001:3003   */\n                  iszero\n                  tag_62\n                  jumpi\n                    /* \"--CODEGEN--\":3075:3076   */\n                  0x00\n                    /* \"--CODEGEN--\":3066:3072   */\n                  dup5\n                    /* \"--CODEGEN--\":3061:3064   */\n                  dup5\n                    /* \"--CODEGEN--\":3057:3073   */\n                  add\n                    /* \"--CODEGEN--\":3050:3077   */\n                  mstore\n                    /* \"--CODEGEN--\":3001:3003   */\n                tag_62:\n                    /* \"--CODEGEN--\":2871:3090   */\n                  pop\n                  pop\n                  pop\n                  pop\n                  jump\n                    /* \"background.sol\":15616:17982  contract Insurance {\r... */\n                tag_10:\n                  dataSize(sub_0)\n                  dup1\n                  dataOffset(sub_0)\n                  0x00\n                  codecopy\n                  0x00\n                  return\n                stop\n\n                sub_0: assembly {\n                        /* \"background.sol\":15616:17982  contract Insurance {\r... */\n                      mstore(0x40, 0x80)\n                      callvalue\n                        /* \"--CODEGEN--\":8:17   */\n                      dup1\n                        /* \"--CODEGEN--\":5:7   */\n                      iszero\n                      tag_1\n                      jumpi\n                        /* \"--CODEGEN--\":30:31   */\n                      0x00\n                        /* \"--CODEGEN--\":27:28   */\n                      dup1\n                        /* \"--CODEGEN--\":20:32   */\n                      revert\n                        /* \"--CODEGEN--\":5:7   */\n                    tag_1:\n                        /* \"background.sol\":15616:17982  contract Insurance {\r... */\n                      pop\n                      jumpi(tag_2, lt(calldatasize, 0x04))\n                      calldataload(0x00)\n                      0x0100000000000000000000000000000000000000000000000000000000\n                      swap1\n                      div\n                      dup1\n                      0x3bc5de30\n                      eq\n                      tag_3\n                      jumpi\n                      dup1\n                      0x72102d18\n                      eq\n                      tag_4\n                      jumpi\n                      dup1\n                      0x83bffb88\n                      eq\n                      tag_5\n                      jumpi\n                    tag_2:\n                      0x00\n                      dup1\n                      revert\n                        /* \"background.sol\":16523:16754  function getData() public view returns(address, address, string memory, int, string memory, string memory, int, Request[] memory) {\r... */\n                    tag_3:\n                      tag_6\n                      tag_7\n                      jump\t// in\n                    tag_6:\n                      mload(0x40)\n                      tag_8\n                      swap9\n                      swap8\n                      swap7\n                      swap6\n                      swap5\n                      swap4\n                      swap3\n                      swap2\n                      swap1\n                      jump(tag_9)\n                    tag_8:\n                      mload(0x40)\n                      dup1\n                      swap2\n                      sub\n                      swap1\n                      return\n                        /* \"background.sol\":17548:17979  function finalizeRequest(uint256 index, address add, bool flag) public {\r... */\n                    tag_4:\n                      tag_10\n                      0x04\n                      dup1\n                      calldatasize\n                      sub\n                      tag_11\n                      swap2\n                      swap1\n                      dup2\n                      add\n                      swap1\n                      jump(tag_12)\n                    tag_11:\n                      tag_13\n                      jump\t// in\n                    tag_10:\n                      stop\n                        /* \"background.sol\":16762:17540  function applyClaim(string memory fileHash, string memory titlee, string memory detailss) public {\r... */\n                    tag_5:\n                      tag_14\n                      0x04\n                      dup1\n                      calldatasize\n                      sub\n                      tag_15\n                      swap2\n                      swap1\n                      dup2\n                      add\n                      swap1\n                      jump(tag_16)\n                    tag_15:\n                      tag_17\n                      jump\t// in\n                    tag_14:\n                      stop\n                        /* \"background.sol\":16523:16754  function getData() public view returns(address, address, string memory, int, string memory, string memory, int, Request[] memory) {\r... */\n                    tag_7:\n                        /* \"background.sol\":16562:16569  address */\n                      0x00\n                        /* \"background.sol\":16571:16578  address */\n                      dup1\n                        /* \"background.sol\":16580:16593  string memory */\n                      0x60\n                        /* \"background.sol\":16595:16598  int */\n                      0x00\n                        /* \"background.sol\":16600:16613  string memory */\n                      0x60\n                        /* \"background.sol\":16615:16628  string memory */\n                      dup1\n                        /* \"background.sol\":16630:16633  int */\n                      0x00\n                        /* \"background.sol\":16635:16651  Request[] memory */\n                      0x60\n                        /* \"background.sol\":16671:16682  selfAddress */\n                      0x00\n                      dup1\n                      swap1\n                      sload\n                      swap1\n                      0x0100\n                      exp\n                      swap1\n                      div\n                      0xffffffffffffffffffffffffffffffffffffffff\n                      and\n                        /* \"background.sol\":16684:16690  ownerr */\n                      0x01\n                      0x00\n                      swap1\n                      sload\n                      swap1\n                      0x0100\n                      exp\n                      swap1\n                      div\n                      0xffffffffffffffffffffffffffffffffffffffff\n                      and\n                        /* \"background.sol\":16692:16696  name */\n                      0x02\n                        /* \"background.sol\":16698:16704  aadhar */\n                      sload(0x03)\n                        /* \"background.sol\":16706:16716  insDetails */\n                      0x04\n                        /* \"background.sol\":16718:16727  documents */\n                      0x05\n                        /* \"background.sol\":16729:16735  amount */\n                      sload(0x06)\n                        /* \"background.sol\":16737:16745  requests */\n                      0x08\n                        /* \"background.sol\":16664:16746  return(selfAddress, ownerr, name, aadhar, insDetails, documents, amount, requests) */\n                      dup6\n                      dup1\n                      sload\n                      0x01\n                      dup2\n                      0x01\n                      and\n                      iszero\n                      0x0100\n                      mul\n                      sub\n                      and\n                      0x02\n                      swap1\n                      div\n                      dup1\n                      0x1f\n                      add\n                      0x20\n                      dup1\n                      swap2\n                      div\n                      mul\n                      0x20\n                      add\n                      mload(0x40)\n                      swap1\n                      dup2\n                      add\n                      0x40\n                      mstore\n                      dup1\n                      swap3\n                      swap2\n                      swap1\n                      dup2\n                      dup2\n                      mstore\n                      0x20\n                      add\n                      dup3\n                      dup1\n                      sload\n                      0x01\n                      dup2\n                      0x01\n                      and\n                      iszero\n                      0x0100\n                      mul\n                      sub\n                      and\n                      0x02\n                      swap1\n                      div\n                      dup1\n                      iszero\n                      tag_19\n                      jumpi\n                      dup1\n                      0x1f\n                      lt\n                      tag_20\n                      jumpi\n                      0x0100\n                      dup1\n                      dup4\n                      sload\n                      div\n                      mul\n                      dup4\n                      mstore\n                      swap2\n                      0x20\n                      add\n                      swap2\n                      jump(tag_19)\n                    tag_20:\n                      dup3\n                      add\n                      swap2\n                      swap1\n                      0x00\n                      mstore\n                      keccak256(0x00, 0x20)\n                      swap1\n                    tag_21:\n                      dup2\n                      sload\n                      dup2\n                      mstore\n                      swap1\n                      0x01\n                      add\n                      swap1\n                      0x20\n                      add\n                      dup1\n                      dup4\n                      gt\n                      tag_21\n                      jumpi\n                      dup3\n                      swap1\n                      sub\n                      0x1f\n                      and\n                      dup3\n                      add\n                      swap2\n                    tag_19:\n                      pop\n                      pop\n                      pop\n                      pop\n                      pop\n                      swap6\n                      pop\n                      dup4\n                      dup1\n                      sload\n                      0x01\n                      dup2\n                      0x01\n                      and\n                      iszero\n                      0x0100\n                      mul\n                      sub\n                      and\n                      0x02\n                      swap1\n                      div\n                      dup1\n                      0x1f\n                      add\n                      0x20\n                      dup1\n                      swap2\n                      div\n                      mul\n                      0x20\n                      add\n                      mload(0x40)\n                      swap1\n                      dup2\n                      add\n                      0x40\n                      mstore\n                      dup1\n                      swap3\n                      swap2\n                      swap1\n                      dup2\n                      dup2\n                      mstore\n                      0x20\n                      add\n                      dup3\n                      dup1\n                      sload\n                      0x01\n                      dup2\n                      0x01\n                      and\n                      iszero\n                      0x0100\n                      mul\n                      sub\n                      and\n                      0x02\n                      swap1\n                      div\n                      dup1\n                      iszero\n                      tag_22\n                      jumpi\n                      dup1\n                      0x1f\n                      lt\n                      tag_23\n                      jumpi\n                      0x0100\n                      dup1\n                      dup4\n                      sload\n                      div\n                      mul\n                      dup4\n                      mstore\n                      swap2\n                      0x20\n                      add\n                      swap2\n                      jump(tag_22)\n                    tag_23:\n                      dup3\n                      add\n                      swap2\n                      swap1\n                      0x00\n                      mstore\n                      keccak256(0x00, 0x20)\n                      swap1\n                    tag_24:\n                      dup2\n                      sload\n                      dup2\n                      mstore\n                      swap1\n                      0x01\n                      add\n                      swap1\n                      0x20\n                      add\n                      dup1\n                      dup4\n                      gt\n                      tag_24\n                      jumpi\n                      dup3\n                      swap1\n                      sub\n                      0x1f\n                      and\n                      dup3\n                      add\n                      swap2\n                    tag_22:\n                      pop\n                      pop\n                      pop\n                      pop\n                      pop\n                      swap4\n                      pop\n                      dup3\n                      dup1\n                      sload\n                      0x01\n                      dup2\n                      0x01\n                      and\n                      iszero\n                      0x0100\n                      mul\n                      sub\n                      and\n                      0x02\n                      swap1\n                      div\n                      dup1\n                      0x1f\n                      add\n                      0x20\n                      dup1\n                      swap2\n                      div\n                      mul\n                      0x20\n                      add\n                      mload(0x40)\n                      swap1\n                      dup2\n                      add\n                      0x40\n                      mstore\n                      dup1\n                      swap3\n                      swap2\n                      swap1\n                      dup2\n                      dup2\n                      mstore\n                      0x20\n                      add\n                      dup3\n                      dup1\n                      sload\n                      0x01\n                      dup2\n                      0x01\n                      and\n                      iszero\n                      0x0100\n                      mul\n                      sub\n                      and\n                      0x02\n                      swap1\n                      div\n                      dup1\n                      iszero\n                      tag_25\n                      jumpi\n                      dup1\n                      0x1f\n                      lt\n                      tag_26\n                      jumpi\n                      0x0100\n                      dup1\n                      dup4\n                      sload\n                      div\n                      mul\n                      dup4\n                      mstore\n                      swap2\n                      0x20\n                      add\n                      swap2\n                      jump(tag_25)\n                    tag_26:\n                      dup3\n                      add\n                      swap2\n                      swap1\n                      0x00\n                      mstore\n                      keccak256(0x00, 0x20)\n                      swap1\n                    tag_27:\n                      dup2\n                      sload\n                      dup2\n                      mstore\n                      swap1\n                      0x01\n                      add\n                      swap1\n                      0x20\n                      add\n                      dup1\n                      dup4\n                      gt\n                      tag_27\n                      jumpi\n                      dup3\n                      swap1\n                      sub\n                      0x1f\n                      and\n                      dup3\n                      add\n                      swap2\n                    tag_25:\n                      pop\n                      pop\n                      pop\n                      pop\n                      pop\n                      swap3\n                      pop\n                      dup1\n                      dup1\n                      sload\n                      dup1\n                      0x20\n                      mul\n                      0x20\n                      add\n                      mload(0x40)\n                      swap1\n                      dup2\n                      add\n                      0x40\n                      mstore\n                      dup1\n                      swap3\n                      swap2\n                      swap1\n                      dup2\n                      dup2\n                      mstore\n                      0x20\n                      add\n                      0x00\n                      swap1\n                    tag_28:\n                      dup3\n                      dup3\n                      lt\n                      iszero\n                      tag_29\n                      jumpi\n                      dup4\n                      dup3\n                      swap1\n                      0x00\n                      mstore\n                      keccak256(0x00, 0x20)\n                      swap1\n                      0x09\n                      mul\n                      add\n                      0x0140\n                      mload(0x40)\n                      swap1\n                      dup2\n                      add\n                      0x40\n                      mstore\n                      swap1\n                      dup2\n                      0x00\n                      dup3\n                      add\n                      0x00\n                      swap1\n                      sload\n                      swap1\n                      0x0100\n                      exp\n                      swap1\n                      div\n                      0xffffffffffffffffffffffffffffffffffffffff\n                      and\n                      0xffffffffffffffffffffffffffffffffffffffff\n                      and\n                      0xffffffffffffffffffffffffffffffffffffffff\n                      and\n                      dup2\n                      mstore\n                      0x20\n                      add\n                      0x01\n                      dup3\n                      add\n                      0x00\n                      swap1\n                      sload\n                      swap1\n                      0x0100\n                      exp\n                      swap1\n                      div\n                      0xffffffffffffffffffffffffffffffffffffffff\n                      and\n                      0xffffffffffffffffffffffffffffffffffffffff\n                      and\n                      0xffffffffffffffffffffffffffffffffffffffff\n                      and\n                      dup2\n                      mstore\n                      0x20\n                      add\n                      0x02\n                      dup3\n                      add\n                      dup1\n                      sload\n                      0x01\n                      dup2\n                      0x01\n                      and\n                      iszero\n                      0x0100\n                      mul\n                      sub\n                      and\n                      0x02\n                      swap1\n                      div\n                      dup1\n                      0x1f\n                      add\n                      0x20\n                      dup1\n                      swap2\n                      div\n                      mul\n                      0x20\n                      add\n                      mload(0x40)\n                      swap1\n                      dup2\n                      add\n                      0x40\n                      mstore\n                      dup1\n                      swap3\n                      swap2\n                      swap1\n                      dup2\n                      dup2\n                      mstore\n                      0x20\n                      add\n                      dup3\n                      dup1\n                      sload\n                      0x01\n                      dup2\n                      0x01\n                      and\n                      iszero\n                      0x0100\n                      mul\n                      sub\n                      and\n                      0x02\n                      swap1\n                      div\n                      dup1\n                      iszero\n                      tag_31\n                      jumpi\n                      dup1\n                      0x1f\n                      lt\n                      tag_32\n                      jumpi\n                      0x0100\n                      dup1\n                      dup4\n                      sload\n                      div\n                      mul\n                      dup4\n                      mstore\n                      swap2\n                      0x20\n                      add\n                      swap2\n                      jump(tag_31)\n                    tag_32:\n                      dup3\n                      add\n                      swap2\n                      swap1\n                      0x00\n                      mstore\n                      keccak256(0x00, 0x20)\n                      swap1\n                    tag_33:\n                      dup2\n                      sload\n                      dup2\n                      mstore\n                      swap1\n                      0x01\n                      add\n                      swap1\n                      0x20\n                      add\n                      dup1\n                      dup4\n                      gt\n                      tag_33\n                      jumpi\n                      dup3\n                      swap1\n                      sub\n                      0x1f\n                      and\n                      dup3\n                      add\n                      swap2\n                    tag_31:\n                      pop\n                      pop\n                      pop\n                      pop\n                      pop\n                      dup2\n                      mstore\n                      0x20\n                      add\n                      0x03\n                      dup3\n                      add\n                      dup1\n                      sload\n                      0x01\n                      dup2\n                      0x01\n                      and\n                      iszero\n                      0x0100\n                      mul\n                      sub\n                      and\n                      0x02\n                      swap1\n                      div\n                      dup1\n                      0x1f\n                      add\n                      0x20\n                      dup1\n                      swap2\n                      div\n                      mul\n                      0x20\n                      add\n                      mload(0x40)\n                      swap1\n                      dup2\n                      add\n                      0x40\n                      mstore\n                      dup1\n                      swap3\n                      swap2\n                      swap1\n                      dup2\n                      dup2\n                      mstore\n                      0x20\n                      add\n                      dup3\n                      dup1\n                      sload\n                      0x01\n                      dup2\n                      0x01\n                      and\n                      iszero\n                      0x0100\n                      mul\n                      sub\n                      and\n                      0x02\n                      swap1\n                      div\n                      dup1\n                      iszero\n                      tag_34\n                      jumpi\n                      dup1\n                      0x1f\n                      lt\n                      tag_35\n                      jumpi\n                      0x0100\n                      dup1\n                      dup4\n                      sload\n                      div\n                      mul\n                      dup4\n                      mstore\n                      swap2\n                      0x20\n                      add\n                      swap2\n                      jump(tag_34)\n                    tag_35:\n                      dup3\n                      add\n                      swap2\n                      swap1\n                      0x00\n                      mstore\n                      keccak256(0x00, 0x20)\n                      swap1\n                    tag_36:\n                      dup2\n                      sload\n                      dup2\n                      mstore\n                      swap1\n                      0x01\n                      add\n                      swap1\n                      0x20\n                      add\n                      dup1\n                      dup4\n                      gt\n                      tag_36\n                      jumpi\n                      dup3\n                      swap1\n                      sub\n                      0x1f\n                      and\n                      dup3\n                      add\n                      swap2\n                    tag_34:\n                      pop\n                      pop\n                      pop\n                      pop\n                      pop\n                      dup2\n                      mstore\n                      0x20\n                      add\n                      0x04\n                      dup3\n                      add\n                      0x00\n                      swap1\n                      sload\n                      swap1\n                      0x0100\n                      exp\n                      swap1\n                      div\n                      0xff\n                      and\n                      iszero\n                      iszero\n                      iszero\n                      iszero\n                      dup2\n                      mstore\n                      0x20\n                      add\n                      0x04\n                      dup3\n                      add\n                      0x01\n                      swap1\n                      sload\n                      swap1\n                      0x0100\n                      exp\n                      swap1\n                      div\n                      0xff\n                      and\n                      iszero\n                      iszero\n                      iszero\n                      iszero\n                      dup2\n                      mstore\n                      0x20\n                      add\n                      0x05\n                      dup3\n                      add\n                      dup1\n                      sload\n                      0x01\n                      dup2\n                      0x01\n                      and\n                      iszero\n                      0x0100\n                      mul\n                      sub\n                      and\n                      0x02\n                      swap1\n                      div\n                      dup1\n                      0x1f\n                      add\n                      0x20\n                      dup1\n                      swap2\n                      div\n                      mul\n                      0x20\n                      add\n                      mload(0x40)\n                      swap1\n                      dup2\n                      add\n                      0x40\n                      mstore\n                      dup1\n                      swap3\n                      swap2\n                      swap1\n                      dup2\n                      dup2\n                      mstore\n                      0x20\n                      add\n                      dup3\n                      dup1\n                      sload\n                      0x01\n                      dup2\n                      0x01\n                      and\n                      iszero\n                      0x0100\n                      mul\n                      sub\n                      and\n                      0x02\n                      swap1\n                      div\n                      dup1\n                      iszero\n                      tag_37\n                      jumpi\n                      dup1\n                      0x1f\n                      lt\n                      tag_38\n                      jumpi\n                      0x0100\n                      dup1\n                      dup4\n                      sload\n                      div\n                      mul\n                      dup4\n                      mstore\n                      swap2\n                      0x20\n                      add\n                      swap2\n                      jump(tag_37)\n                    tag_38:\n                      dup3\n                      add\n                      swap2\n                      swap1\n                      0x00\n                      mstore\n                      keccak256(0x00, 0x20)\n                      swap1\n                    tag_39:\n                      dup2\n                      sload\n                      dup2\n                      mstore\n                      swap1\n                      0x01\n                      add\n                      swap1\n                      0x20\n                      add\n                      dup1\n                      dup4\n                      gt\n                      tag_39\n                      jumpi\n                      dup3\n                      swap1\n                      sub\n                      0x1f\n                      and\n                      dup3\n                      add\n                      swap2\n                    tag_37:\n                      pop\n                      pop\n                      pop\n                      pop\n                      pop\n                      dup2\n                      mstore\n                      0x20\n                      add\n                      0x06\n                      dup3\n                      add\n                      sload\n                      dup2\n                      mstore\n                      0x20\n                      add\n                      0x07\n                      dup3\n                      add\n                      0x00\n                      swap1\n                      sload\n                      swap1\n                      0x0100\n                      exp\n                      swap1\n                      div\n                      0xff\n                      and\n                      iszero\n                      iszero\n                      iszero\n                      iszero\n                      dup2\n                      mstore\n                      0x20\n                      add\n                      0x08\n                      dup3\n                      add\n                      sload\n                      dup2\n                      mstore\n                      pop\n                      pop\n                      dup2\n                      mstore\n                      0x20\n                      add\n                      swap1\n                      0x01\n                      add\n                      swap1\n                      jump(tag_28)\n                    tag_29:\n                      pop\n                      pop\n                      pop\n                      pop\n                      swap1\n                      pop\n                      swap8\n                      pop\n                      swap8\n                      pop\n                      swap8\n                      pop\n                      swap8\n                      pop\n                      swap8\n                      pop\n                      swap8\n                      pop\n                      swap8\n                      pop\n                      swap8\n                      pop\n                        /* \"background.sol\":16523:16754  function getData() public view returns(address, address, string memory, int, string memory, string memory, int, Request[] memory) {\r... */\n                      swap1\n                      swap2\n                      swap3\n                      swap4\n                      swap5\n                      swap6\n                      swap7\n                      swap8\n                      jump\t// out\n                        /* \"background.sol\":17548:17979  function finalizeRequest(uint256 index, address add, bool flag) public {\r... */\n                    tag_13:\n                        /* \"background.sol\":17640:17646  ownerr */\n                      0x01\n                      0x00\n                      swap1\n                      sload\n                      swap1\n                      0x0100\n                      exp\n                      swap1\n                      div\n                      0xffffffffffffffffffffffffffffffffffffffff\n                      and\n                        /* \"background.sol\":17633:17646  add == ownerr */\n                      0xffffffffffffffffffffffffffffffffffffffff\n                      and\n                        /* \"background.sol\":17633:17636  add */\n                      dup3\n                        /* \"background.sol\":17633:17646  add == ownerr */\n                      0xffffffffffffffffffffffffffffffffffffffff\n                      and\n                      eq\n                        /* \"background.sol\":17630:17972  if(add == ownerr) {\r... */\n                      iszero\n                      tag_41\n                      jumpi\n                        /* \"background.sol\":17674:17678  true */\n                      0x01\n                        /* \"background.sol\":17666:17678  flag == true */\n                      iszero\n                      iszero\n                        /* \"background.sol\":17666:17670  flag */\n                      dup2\n                        /* \"background.sol\":17666:17678  flag == true */\n                      iszero\n                      iszero\n                      eq\n                        /* \"background.sol\":17663:17926  if(flag == true) {\r... */\n                      iszero\n                      tag_42\n                      jumpi\n                        /* \"background.sol\":17726:17730  true */\n                      0x01\n                        /* \"background.sol\":17699:17707  requests */\n                      0x08\n                        /* \"background.sol\":17708:17713  index */\n                      dup5\n                        /* \"background.sol\":17699:17714  requests[index] */\n                      dup2\n                      sload\n                      dup2\n                      lt\n                      iszero\n                      iszero\n                      tag_43\n                      jumpi\n                      invalid\n                    tag_43:\n                      swap1\n                      0x00\n                      mstore\n                      keccak256(0x00, 0x20)\n                      swap1\n                      0x09\n                      mul\n                      add\n                        /* \"background.sol\":17699:17723  requests[index].finalize */\n                      0x07\n                      add\n                      0x00\n                        /* \"background.sol\":17699:17730  requests[index].finalize = true */\n                      0x0100\n                      exp\n                      dup2\n                      sload\n                      dup2\n                      0xff\n                      mul\n                      not\n                      and\n                      swap1\n                      dup4\n                      iszero\n                      iszero\n                      mul\n                      or\n                      swap1\n                      sstore\n                      pop\n                        /* \"background.sol\":17773:17777  true */\n                      0x01\n                        /* \"background.sol\":17749:17757  requests */\n                      0x08\n                        /* \"background.sol\":17758:17763  index */\n                      dup5\n                        /* \"background.sol\":17749:17764  requests[index] */\n                      dup2\n                      sload\n                      dup2\n                      lt\n                      iszero\n                      iszero\n                      tag_45\n                      jumpi\n                      invalid\n                    tag_45:\n                      swap1\n                      0x00\n                      mstore\n                      keccak256(0x00, 0x20)\n                      swap1\n                      0x09\n                      mul\n                      add\n                        /* \"background.sol\":17749:17770  requests[index].owner */\n                      0x04\n                      add\n                      0x01\n                        /* \"background.sol\":17749:17777  requests[index].owner = true */\n                      0x0100\n                      exp\n                      dup2\n                      sload\n                      dup2\n                      0xff\n                      mul\n                      not\n                      and\n                      swap1\n                      dup4\n                      iszero\n                      iszero\n                      mul\n                      or\n                      swap1\n                      sstore\n                      pop\n                        /* \"background.sol\":17663:17926  if(flag == true) {\r... */\n                      jump(tag_47)\n                    tag_42:\n                        /* \"background.sol\":17858:17862  true */\n                      0x01\n                        /* \"background.sol\":17831:17839  requests */\n                      0x08\n                        /* \"background.sol\":17840:17845  index */\n                      dup5\n                        /* \"background.sol\":17831:17846  requests[index] */\n                      dup2\n                      sload\n                      dup2\n                      lt\n                      iszero\n                      iszero\n                      tag_48\n                      jumpi\n                      invalid\n                    tag_48:\n                      swap1\n                      0x00\n                      mstore\n                      keccak256(0x00, 0x20)\n                      swap1\n                      0x09\n                      mul\n                      add\n                        /* \"background.sol\":17831:17855  requests[index].finalize */\n                      0x07\n                      add\n                      0x00\n                        /* \"background.sol\":17831:17862  requests[index].finalize = true */\n                      0x0100\n                      exp\n                      dup2\n                      sload\n                      dup2\n                      0xff\n                      mul\n                      not\n                      and\n                      swap1\n                      dup4\n                      iszero\n                      iszero\n                      mul\n                      or\n                      swap1\n                      sstore\n                      pop\n                        /* \"background.sol\":17905:17910  false */\n                      0x00\n                        /* \"background.sol\":17881:17889  requests */\n                      0x08\n                        /* \"background.sol\":17890:17895  index */\n                      dup5\n                        /* \"background.sol\":17881:17896  requests[index] */\n                      dup2\n                      sload\n                      dup2\n                      lt\n                      iszero\n                      iszero\n                      tag_50\n                      jumpi\n                      invalid\n                    tag_50:\n                      swap1\n                      0x00\n                      mstore\n                      keccak256(0x00, 0x20)\n                      swap1\n                      0x09\n                      mul\n                      add\n                        /* \"background.sol\":17881:17902  requests[index].owner */\n                      0x04\n                      add\n                      0x01\n                        /* \"background.sol\":17881:17910  requests[index].owner = false */\n                      0x0100\n                      exp\n                      dup2\n                      sload\n                      dup2\n                      0xff\n                      mul\n                      not\n                      and\n                      swap1\n                      dup4\n                      iszero\n                      iszero\n                      mul\n                      or\n                      swap1\n                      sstore\n                      pop\n                        /* \"background.sol\":17663:17926  if(flag == true) {\r... */\n                    tag_47:\n                        /* \"background.sol\":17945:17960  ChangeOccured() */\n                      0x2b94f1e9999ff685f243474c3b8c30563987b8897fecb35c7cea9ac0f4f5c6bd\n                      mload(0x40)\n                      mload(0x40)\n                      dup1\n                      swap2\n                      sub\n                      swap1\n                      log1\n                        /* \"background.sol\":17630:17972  if(add == ownerr) {\r... */\n                    tag_41:\n                        /* \"background.sol\":17548:17979  function finalizeRequest(uint256 index, address add, bool flag) public {\r... */\n                      pop\n                      pop\n                      pop\n                      jump\t// out\n                        /* \"background.sol\":16762:17540  function applyClaim(string memory fileHash, string memory titlee, string memory detailss) public {\r... */\n                    tag_17:\n                        /* \"background.sol\":16870:16895  Request memory newRequest */\n                      tag_53\n                      tag_54\n                      jump\t// in\n                    tag_53:\n                        /* \"background.sol\":16898:17247  Request( {\r... */\n                      0x0140\n                      mload(0x40)\n                      swap1\n                      dup2\n                      add\n                      0x40\n                      mstore\n                      dup1\n                        /* \"background.sol\":16932:16938  ownerr */\n                      0x01\n                      0x00\n                      swap1\n                      sload\n                      swap1\n                      0x0100\n                      exp\n                      swap1\n                      div\n                      0xffffffffffffffffffffffffffffffffffffffff\n                      and\n                        /* \"background.sol\":16898:17247  Request( {\r... */\n                      0xffffffffffffffffffffffffffffffffffffffff\n                      and\n                      dup2\n                      mstore\n                      0x20\n                      add\n                        /* \"background.sol\":16970:16974  this */\n                      address\n                        /* \"background.sol\":16898:17247  Request( {\r... */\n                      0xffffffffffffffffffffffffffffffffffffffff\n                      and\n                      dup2\n                      mstore\n                      0x20\n                      add\n                        /* \"background.sol\":16997:17003  titlee */\n                      dup5\n                        /* \"background.sol\":16898:17247  Request( {\r... */\n                      dup2\n                      mstore\n                      0x20\n                      add\n                        /* \"background.sol\":17027:17035  detailss */\n                      dup4\n                        /* \"background.sol\":16898:17247  Request( {\r... */\n                      dup2\n                      mstore\n                      0x20\n                      add\n                        /* \"background.sol\":17088:17092  true */\n                      0x01\n                        /* \"background.sol\":16898:17247  Request( {\r... */\n                      iszero\n                      iszero\n                      dup2\n                      mstore\n                      0x20\n                      add\n                        /* \"background.sol\":17114:17119  false */\n                      0x00\n                        /* \"background.sol\":16898:17247  Request( {\r... */\n                      iszero\n                      iszero\n                      dup2\n                      mstore\n                      0x20\n                      add\n                        /* \"background.sol\":17057:17065  fileHash */\n                      dup6\n                        /* \"background.sol\":16898:17247  Request( {\r... */\n                      dup2\n                      mstore\n                      0x20\n                      add\n                        /* \"background.sol\":17165:17166  1 */\n                      0x01\n                        /* \"background.sol\":17149:17162  requestsCount */\n                      sload(0x07)\n                        /* \"background.sol\":17149:17166  requestsCount + 1 */\n                      add\n                        /* \"background.sol\":16898:17247  Request( {\r... */\n                      dup2\n                      mstore\n                      0x20\n                      add\n                        /* \"background.sol\":17192:17197  false */\n                      0x00\n                        /* \"background.sol\":16898:17247  Request( {\r... */\n                      iszero\n                      iszero\n                      dup2\n                      mstore\n                      0x20\n                      add\n                        /* \"background.sol\":17234:17235  0 */\n                      0x00\n                        /* \"background.sol\":16898:17247  Request( {\r... */\n                      dup2\n                      mstore\n                      pop\n                        /* \"background.sol\":16870:17247  Request memory newRequest = Request( {\r... */\n                      swap1\n                      pop\n                        /* \"background.sol\":17258:17266  requests */\n                      0x08\n                        /* \"background.sol\":17272:17282  newRequest */\n                      dup2\n                        /* \"background.sol\":17258:17283  requests.push(newRequest) */\n                      swap1\n                      dup1\n                        /* \"--CODEGEN--\":39:40   */\n                      0x01\n                        /* \"--CODEGEN--\":33:36   */\n                      dup2\n                        /* \"--CODEGEN--\":27:37   */\n                      sload\n                        /* \"--CODEGEN--\":23:41   */\n                      add\n                        /* \"--CODEGEN--\":57:67   */\n                      dup1\n                        /* \"--CODEGEN--\":52:55   */\n                      dup3\n                        /* \"--CODEGEN--\":45:68   */\n                      sstore\n                        /* \"--CODEGEN--\":79:89   */\n                      dup1\n                        /* \"--CODEGEN--\":72:89   */\n                      swap2\n                      pop\n                        /* \"--CODEGEN--\":0:93   */\n                      pop\n                        /* \"background.sol\":17258:17283  requests.push(newRequest) */\n                      swap1\n                      0x01\n                      dup3\n                      sub\n                      swap1\n                      0x00\n                      mstore\n                      keccak256(0x00, 0x20)\n                      swap1\n                      0x09\n                      mul\n                      add\n                      0x00\n                      swap1\n                      swap2\n                      swap3\n                      swap1\n                      swap2\n                      swap1\n                      swap2\n                      pop\n                      0x00\n                      dup3\n                      add\n                      mload\n                      dup2\n                      0x00\n                      add\n                      exp(0x0100, 0x00)\n                      dup2\n                      sload\n                      dup2\n                      0xffffffffffffffffffffffffffffffffffffffff\n                      mul\n                      not\n                      and\n                      swap1\n                      dup4\n                      0xffffffffffffffffffffffffffffffffffffffff\n                      and\n                      mul\n                      or\n                      swap1\n                      sstore\n                      pop\n                      0x20\n                      dup3\n                      add\n                      mload\n                      dup2\n                      0x01\n                      add\n                      exp(0x0100, 0x00)\n                      dup2\n                      sload\n                      dup2\n                      0xffffffffffffffffffffffffffffffffffffffff\n                      mul\n                      not\n                      and\n                      swap1\n                      dup4\n                      0xffffffffffffffffffffffffffffffffffffffff\n                      and\n                      mul\n                      or\n                      swap1\n                      sstore\n                      pop\n                      0x40\n                      dup3\n                      add\n                      mload\n                      dup2\n                      0x02\n                      add\n                      swap1\n                      dup1\n                      mload\n                      swap1\n                      0x20\n                      add\n                      swap1\n                      tag_56\n                      swap3\n                      swap2\n                      swap1\n                      tag_57\n                      jump\t// in\n                    tag_56:\n                      pop\n                      0x60\n                      dup3\n                      add\n                      mload\n                      dup2\n                      0x03\n                      add\n                      swap1\n                      dup1\n                      mload\n                      swap1\n                      0x20\n                      add\n                      swap1\n                      tag_58\n                      swap3\n                      swap2\n                      swap1\n                      tag_57\n                      jump\t// in\n                    tag_58:\n                      pop\n                      0x80\n                      dup3\n                      add\n                      mload\n                      dup2\n                      0x04\n                      add\n                      exp(0x0100, 0x00)\n                      dup2\n                      sload\n                      dup2\n                      0xff\n                      mul\n                      not\n                      and\n                      swap1\n                      dup4\n                      iszero\n                      iszero\n                      mul\n                      or\n                      swap1\n                      sstore\n                      pop\n                      0xa0\n                      dup3\n                      add\n                      mload\n                      dup2\n                      0x04\n                      add\n                      exp(0x0100, 0x01)\n                      dup2\n                      sload\n                      dup2\n                      0xff\n                      mul\n                      not\n                      and\n                      swap1\n                      dup4\n                      iszero\n                      iszero\n                      mul\n                      or\n                      swap1\n                      sstore\n                      pop\n                      0xc0\n                      dup3\n                      add\n                      mload\n                      dup2\n                      0x05\n                      add\n                      swap1\n                      dup1\n                      mload\n                      swap1\n                      0x20\n                      add\n                      swap1\n                      tag_59\n                      swap3\n                      swap2\n                      swap1\n                      tag_57\n                      jump\t// in\n                    tag_59:\n                      pop\n                      0xe0\n                      dup3\n                      add\n                      mload\n                      dup2\n                      0x06\n                      add\n                      sstore\n                      0x0100\n                      dup3\n                      add\n                      mload\n                      dup2\n                      0x07\n                      add\n                      exp(0x0100, 0x00)\n                      dup2\n                      sload\n                      dup2\n                      0xff\n                      mul\n                      not\n                      and\n                      swap1\n                      dup4\n                      iszero\n                      iszero\n                      mul\n                      or\n                      swap1\n                      sstore\n                      pop\n                      0x0120\n                      dup3\n                      add\n                      mload\n                      dup2\n                      0x08\n                      add\n                      sstore\n                      pop\n                      pop\n                      pop\n                        /* \"background.sol\":17294:17302  Owner oo */\n                      0x00\n                        /* \"background.sol\":17311:17317  ownerr */\n                      0x01\n                      0x00\n                      swap1\n                      sload\n                      swap1\n                      0x0100\n                      exp\n                      swap1\n                      div\n                      0xffffffffffffffffffffffffffffffffffffffff\n                      and\n                        /* \"background.sol\":17294:17318  Owner oo = Owner(ownerr) */\n                      swap1\n                      pop\n                        /* \"background.sol\":17329:17331  oo */\n                      dup1\n                        /* \"background.sol\":17329:17346  oo.pendingRequest */\n                      0xffffffffffffffffffffffffffffffffffffffff\n                      and\n                      0x6fc92e73\n                        /* \"background.sol\":17347:17353  ownerr */\n                      0x01\n                      0x00\n                      swap1\n                      sload\n                      swap1\n                      0x0100\n                      exp\n                      swap1\n                      div\n                      0xffffffffffffffffffffffffffffffffffffffff\n                      and\n                        /* \"background.sol\":17363:17367  this */\n                      address\n                        /* \"background.sol\":17370:17376  titlee */\n                      dup8\n                        /* \"background.sol\":17378:17386  detailss */\n                      dup8\n                        /* \"background.sol\":17388:17396  fileHash */\n                      dup11\n                        /* \"background.sol\":17398:17402  true */\n                      0x01\n                        /* \"background.sol\":17404:17409  false */\n                      0x00\n                        /* \"background.sol\":17435:17436  1 */\n                      0x01\n                        /* \"background.sol\":17419:17432  requestsCount */\n                      sload(0x07)\n                        /* \"background.sol\":17419:17436  requestsCount + 1 */\n                      add\n                        /* \"background.sol\":17439:17445  aadhar */\n                      sload(0x03)\n                        /* \"background.sol\":17447:17456  documents */\n                      0x05\n                        /* \"background.sol\":17329:17457  oo.pendingRequest(ownerr, address(this), titlee, detailss, fileHash, true, false, uint256(requestsCount + 1), aadhar, documents) */\n                      mload(0x40)\n                      dup12\n                      0xffffffff\n                      and\n                      0x0100000000000000000000000000000000000000000000000000000000\n                      mul\n                      dup2\n                      mstore\n                      0x04\n                      add\n                      tag_60\n                      swap11\n                      swap10\n                      swap9\n                      swap8\n                      swap7\n                      swap6\n                      swap5\n                      swap4\n                      swap3\n                      swap2\n                      swap1\n                      jump(tag_61)\n                    tag_60:\n                      0x00\n                      mload(0x40)\n                      dup1\n                      dup4\n                      sub\n                      dup2\n                      0x00\n                      dup8\n                      dup1\n                      extcodesize\n                      iszero\n                        /* \"--CODEGEN--\":8:17   */\n                      dup1\n                        /* \"--CODEGEN--\":5:7   */\n                      iszero\n                      tag_62\n                      jumpi\n                        /* \"--CODEGEN--\":30:31   */\n                      0x00\n                        /* \"--CODEGEN--\":27:28   */\n                      dup1\n                        /* \"--CODEGEN--\":20:32   */\n                      revert\n                        /* \"--CODEGEN--\":5:7   */\n                    tag_62:\n                        /* \"background.sol\":17329:17457  oo.pendingRequest(ownerr, address(this), titlee, detailss, fileHash, true, false, uint256(requestsCount + 1), aadhar, documents) */\n                      pop\n                      gas\n                      call\n                      iszero\n                        /* \"--CODEGEN--\":8:17   */\n                      dup1\n                        /* \"--CODEGEN--\":5:7   */\n                      iszero\n                      tag_63\n                      jumpi\n                        /* \"--CODEGEN--\":45:61   */\n                      returndatasize\n                        /* \"--CODEGEN--\":42:43   */\n                      0x00\n                        /* \"--CODEGEN--\":39:40   */\n                      dup1\n                        /* \"--CODEGEN--\":24:62   */\n                      returndatacopy\n                        /* \"--CODEGEN--\":77:93   */\n                      returndatasize\n                        /* \"--CODEGEN--\":74:75   */\n                      0x00\n                        /* \"--CODEGEN--\":67:94   */\n                      revert\n                        /* \"--CODEGEN--\":5:7   */\n                    tag_63:\n                        /* \"background.sol\":17329:17457  oo.pendingRequest(ownerr, address(this), titlee, detailss, fileHash, true, false, uint256(requestsCount + 1), aadhar, documents) */\n                      pop\n                      pop\n                      pop\n                      pop\n                        /* \"background.sol\":17500:17501  1 */\n                      0x01\n                        /* \"background.sol\":17484:17497  requestsCount */\n                      sload(0x07)\n                        /* \"background.sol\":17484:17501  requestsCount + 1 */\n                      add\n                        /* \"background.sol\":17468:17481  requestsCount */\n                      0x07\n                        /* \"background.sol\":17468:17501  requestsCount = requestsCount + 1 */\n                      dup2\n                      swap1\n                      sstore\n                      pop\n                        /* \"background.sol\":17517:17532  ChangeOccured() */\n                      0x2b94f1e9999ff685f243474c3b8c30563987b8897fecb35c7cea9ac0f4f5c6bd\n                      mload(0x40)\n                      mload(0x40)\n                      dup1\n                      swap2\n                      sub\n                      swap1\n                      log1\n                        /* \"background.sol\":16762:17540  function applyClaim(string memory fileHash, string memory titlee, string memory detailss) public {\r... */\n                      pop\n                      pop\n                      pop\n                      pop\n                      pop\n                      jump\t// out\n                        /* \"background.sol\":15616:17982  contract Insurance {\r... */\n                    tag_54:\n                      0x0140\n                      mload(0x40)\n                      swap1\n                      dup2\n                      add\n                      0x40\n                      mstore\n                      dup1\n                      and(0xffffffffffffffffffffffffffffffffffffffff, 0x00)\n                      dup2\n                      mstore\n                      0x20\n                      add\n                      and(0xffffffffffffffffffffffffffffffffffffffff, 0x00)\n                      dup2\n                      mstore\n                      0x20\n                      add\n                      0x60\n                      dup2\n                      mstore\n                      0x20\n                      add\n                      0x60\n                      dup2\n                      mstore\n                      0x20\n                      add\n                      iszero(iszero(0x00))\n                      dup2\n                      mstore\n                      0x20\n                      add\n                      iszero(iszero(0x00))\n                      dup2\n                      mstore\n                      0x20\n                      add\n                      0x60\n                      dup2\n                      mstore\n                      0x20\n                      add\n                      0x00\n                      dup2\n                      mstore\n                      0x20\n                      add\n                      iszero(iszero(0x00))\n                      dup2\n                      mstore\n                      0x20\n                      add\n                      0x00\n                      dup2\n                      mstore\n                      pop\n                      swap1\n                      jump\t// out\n                    tag_57:\n                      dup3\n                      dup1\n                      sload\n                      0x01\n                      dup2\n                      0x01\n                      and\n                      iszero\n                      0x0100\n                      mul\n                      sub\n                      and\n                      0x02\n                      swap1\n                      div\n                      swap1\n                      0x00\n                      mstore\n                      keccak256(0x00, 0x20)\n                      swap1\n                      0x1f\n                      add\n                      0x20\n                      swap1\n                      div\n                      dup2\n                      add\n                      swap3\n                      dup3\n                      0x1f\n                      lt\n                      tag_65\n                      jumpi\n                      dup1\n                      mload\n                      not(0xff)\n                      and\n                      dup4\n                      dup1\n                      add\n                      or\n                      dup6\n                      sstore\n                      jump(tag_64)\n                    tag_65:\n                      dup3\n                      dup1\n                      add\n                      0x01\n                      add\n                      dup6\n                      sstore\n                      dup3\n                      iszero\n                      tag_64\n                      jumpi\n                      swap2\n                      dup3\n                      add\n                    tag_66:\n                      dup3\n                      dup2\n                      gt\n                      iszero\n                      tag_67\n                      jumpi\n                      dup3\n                      mload\n                      dup3\n                      sstore\n                      swap2\n                      0x20\n                      add\n                      swap2\n                      swap1\n                      0x01\n                      add\n                      swap1\n                      jump(tag_66)\n                    tag_67:\n                    tag_64:\n                      pop\n                      swap1\n                      pop\n                      tag_68\n                      swap2\n                      swap1\n                      tag_69\n                      jump\t// in\n                    tag_68:\n                      pop\n                      swap1\n                      jump\t// out\n                    tag_69:\n                      tag_70\n                      swap2\n                      swap1\n                    tag_71:\n                      dup1\n                      dup3\n                      gt\n                      iszero\n                      tag_72\n                      jumpi\n                      0x00\n                      dup2\n                      0x00\n                      swap1\n                      sstore\n                      pop\n                      0x01\n                      add\n                      jump(tag_71)\n                    tag_72:\n                      pop\n                      swap1\n                      jump\n                    tag_70:\n                      swap1\n                      jump\t// out\n                        /* \"--CODEGEN--\":5:123   */\n                    tag_74:\n                      0x00\n                        /* \"--CODEGEN--\":72:118   */\n                      tag_75\n                        /* \"--CODEGEN--\":110:116   */\n                      dup3\n                        /* \"--CODEGEN--\":97:117   */\n                      calldataload\n                        /* \"--CODEGEN--\":72:118   */\n                      jump(tag_76)\n                    tag_75:\n                        /* \"--CODEGEN--\":63:118   */\n                      swap1\n                      pop\n                        /* \"--CODEGEN--\":57:123   */\n                      swap3\n                      swap2\n                      pop\n                      pop\n                      jump\n                        /* \"--CODEGEN--\":130:242   */\n                    tag_78:\n                      0x00\n                        /* \"--CODEGEN--\":194:237   */\n                      tag_79\n                        /* \"--CODEGEN--\":229:235   */\n                      dup3\n                        /* \"--CODEGEN--\":216:236   */\n                      calldataload\n                        /* \"--CODEGEN--\":194:237   */\n                      jump(tag_80)\n                    tag_79:\n                        /* \"--CODEGEN--\":185:237   */\n                      swap1\n                      pop\n                        /* \"--CODEGEN--\":179:242   */\n                      swap3\n                      swap2\n                      pop\n                      pop\n                      jump\n                        /* \"--CODEGEN--\":250:692   */\n                    tag_82:\n                      0x00\n                        /* \"--CODEGEN--\":352:355   */\n                      dup3\n                        /* \"--CODEGEN--\":345:349   */\n                      0x1f\n                        /* \"--CODEGEN--\":337:343   */\n                      dup4\n                        /* \"--CODEGEN--\":333:350   */\n                      add\n                        /* \"--CODEGEN--\":329:356   */\n                      slt\n                        /* \"--CODEGEN--\":322:357   */\n                      iszero\n                        /* \"--CODEGEN--\":319:321   */\n                      iszero\n                      tag_83\n                      jumpi\n                        /* \"--CODEGEN--\":370:371   */\n                      0x00\n                        /* \"--CODEGEN--\":367:368   */\n                      dup1\n                        /* \"--CODEGEN--\":360:372   */\n                      revert\n                        /* \"--CODEGEN--\":319:321   */\n                    tag_83:\n                        /* \"--CODEGEN--\":407:413   */\n                      dup2\n                        /* \"--CODEGEN--\":394:414   */\n                      calldataload\n                        /* \"--CODEGEN--\":429:494   */\n                      tag_84\n                        /* \"--CODEGEN--\":444:493   */\n                      tag_85\n                        /* \"--CODEGEN--\":486:492   */\n                      dup3\n                        /* \"--CODEGEN--\":444:493   */\n                      jump(tag_86)\n                    tag_85:\n                        /* \"--CODEGEN--\":429:494   */\n                      jump(tag_87)\n                    tag_84:\n                        /* \"--CODEGEN--\":420:494   */\n                      swap2\n                      pop\n                        /* \"--CODEGEN--\":514:520   */\n                      dup1\n                        /* \"--CODEGEN--\":507:512   */\n                      dup3\n                        /* \"--CODEGEN--\":500:521   */\n                      mstore\n                        /* \"--CODEGEN--\":550:554   */\n                      0x20\n                        /* \"--CODEGEN--\":542:548   */\n                      dup4\n                        /* \"--CODEGEN--\":538:555   */\n                      add\n                        /* \"--CODEGEN--\":583:587   */\n                      0x20\n                        /* \"--CODEGEN--\":576:581   */\n                      dup4\n                        /* \"--CODEGEN--\":572:588   */\n                      add\n                        /* \"--CODEGEN--\":618:621   */\n                      dup6\n                        /* \"--CODEGEN--\":609:615   */\n                      dup4\n                        /* \"--CODEGEN--\":604:607   */\n                      dup4\n                        /* \"--CODEGEN--\":600:616   */\n                      add\n                        /* \"--CODEGEN--\":597:622   */\n                      gt\n                        /* \"--CODEGEN--\":594:596   */\n                      iszero\n                      tag_88\n                      jumpi\n                        /* \"--CODEGEN--\":635:636   */\n                      0x00\n                        /* \"--CODEGEN--\":632:633   */\n                      dup1\n                        /* \"--CODEGEN--\":625:637   */\n                      revert\n                        /* \"--CODEGEN--\":594:596   */\n                    tag_88:\n                        /* \"--CODEGEN--\":645:686   */\n                      tag_89\n                        /* \"--CODEGEN--\":679:685   */\n                      dup4\n                        /* \"--CODEGEN--\":674:677   */\n                      dup3\n                        /* \"--CODEGEN--\":669:672   */\n                      dup5\n                        /* \"--CODEGEN--\":645:686   */\n                      jump(tag_90)\n                    tag_89:\n                        /* \"--CODEGEN--\":312:692   */\n                      pop\n                      pop\n                      pop\n                      swap3\n                      swap2\n                      pop\n                      pop\n                      jump\n                        /* \"--CODEGEN--\":700:818   */\n                    tag_92:\n                      0x00\n                        /* \"--CODEGEN--\":767:813   */\n                      tag_93\n                        /* \"--CODEGEN--\":805:811   */\n                      dup3\n                        /* \"--CODEGEN--\":792:812   */\n                      calldataload\n                        /* \"--CODEGEN--\":767:813   */\n                      jump(tag_94)\n                    tag_93:\n                        /* \"--CODEGEN--\":758:813   */\n                      swap1\n                      pop\n                        /* \"--CODEGEN--\":752:818   */\n                      swap3\n                      swap2\n                      pop\n                      pop\n                      jump\n                        /* \"--CODEGEN--\":825:1634   */\n                    tag_16:\n                      0x00\n                      dup1\n                      0x00\n                        /* \"--CODEGEN--\":993:995   */\n                      0x60\n                        /* \"--CODEGEN--\":981:990   */\n                      dup5\n                        /* \"--CODEGEN--\":972:979   */\n                      dup7\n                        /* \"--CODEGEN--\":968:991   */\n                      sub\n                        /* \"--CODEGEN--\":964:996   */\n                      slt\n                        /* \"--CODEGEN--\":961:963   */\n                      iszero\n                      tag_96\n                      jumpi\n                        /* \"--CODEGEN--\":1009:1010   */\n                      0x00\n                        /* \"--CODEGEN--\":1006:1007   */\n                      dup1\n                        /* \"--CODEGEN--\":999:1011   */\n                      revert\n                        /* \"--CODEGEN--\":961:963   */\n                    tag_96:\n                        /* \"--CODEGEN--\":1072:1073   */\n                      0x00\n                        /* \"--CODEGEN--\":1061:1070   */\n                      dup5\n                        /* \"--CODEGEN--\":1057:1074   */\n                      add\n                        /* \"--CODEGEN--\":1044:1075   */\n                      calldataload\n                        /* \"--CODEGEN--\":1095:1113   */\n                      0xffffffffffffffff\n                        /* \"--CODEGEN--\":1087:1093   */\n                      dup2\n                        /* \"--CODEGEN--\":1084:1114   */\n                      gt\n                        /* \"--CODEGEN--\":1081:1083   */\n                      iszero\n                      tag_97\n                      jumpi\n                        /* \"--CODEGEN--\":1127:1128   */\n                      0x00\n                        /* \"--CODEGEN--\":1124:1125   */\n                      dup1\n                        /* \"--CODEGEN--\":1117:1129   */\n                      revert\n                        /* \"--CODEGEN--\":1081:1083   */\n                    tag_97:\n                        /* \"--CODEGEN--\":1147:1210   */\n                      tag_98\n                        /* \"--CODEGEN--\":1202:1209   */\n                      dup7\n                        /* \"--CODEGEN--\":1193:1199   */\n                      dup3\n                        /* \"--CODEGEN--\":1182:1191   */\n                      dup8\n                        /* \"--CODEGEN--\":1178:1200   */\n                      add\n                        /* \"--CODEGEN--\":1147:1210   */\n                      jump(tag_82)\n                    tag_98:\n                        /* \"--CODEGEN--\":1137:1210   */\n                      swap4\n                      pop\n                        /* \"--CODEGEN--\":1023:1216   */\n                      pop\n                        /* \"--CODEGEN--\":1275:1277   */\n                      0x20\n                        /* \"--CODEGEN--\":1264:1273   */\n                      dup5\n                        /* \"--CODEGEN--\":1260:1278   */\n                      add\n                        /* \"--CODEGEN--\":1247:1279   */\n                      calldataload\n                        /* \"--CODEGEN--\":1299:1317   */\n                      0xffffffffffffffff\n                        /* \"--CODEGEN--\":1291:1297   */\n                      dup2\n                        /* \"--CODEGEN--\":1288:1318   */\n                      gt\n                        /* \"--CODEGEN--\":1285:1287   */\n                      iszero\n                      tag_99\n                      jumpi\n                        /* \"--CODEGEN--\":1331:1332   */\n                      0x00\n                        /* \"--CODEGEN--\":1328:1329   */\n                      dup1\n                        /* \"--CODEGEN--\":1321:1333   */\n                      revert\n                        /* \"--CODEGEN--\":1285:1287   */\n                    tag_99:\n                        /* \"--CODEGEN--\":1351:1414   */\n                      tag_100\n                        /* \"--CODEGEN--\":1406:1413   */\n                      dup7\n                        /* \"--CODEGEN--\":1397:1403   */\n                      dup3\n                        /* \"--CODEGEN--\":1386:1395   */\n                      dup8\n                        /* \"--CODEGEN--\":1382:1404   */\n                      add\n                        /* \"--CODEGEN--\":1351:1414   */\n                      jump(tag_82)\n                    tag_100:\n                        /* \"--CODEGEN--\":1341:1414   */\n                      swap3\n                      pop\n                        /* \"--CODEGEN--\":1226:1420   */\n                      pop\n                        /* \"--CODEGEN--\":1479:1481   */\n                      0x40\n                        /* \"--CODEGEN--\":1468:1477   */\n                      dup5\n                        /* \"--CODEGEN--\":1464:1482   */\n                      add\n                        /* \"--CODEGEN--\":1451:1483   */\n                      calldataload\n                        /* \"--CODEGEN--\":1503:1521   */\n                      0xffffffffffffffff\n                        /* \"--CODEGEN--\":1495:1501   */\n                      dup2\n                        /* \"--CODEGEN--\":1492:1522   */\n                      gt\n                        /* \"--CODEGEN--\":1489:1491   */\n                      iszero\n                      tag_101\n                      jumpi\n                        /* \"--CODEGEN--\":1535:1536   */\n                      0x00\n                        /* \"--CODEGEN--\":1532:1533   */\n                      dup1\n                        /* \"--CODEGEN--\":1525:1537   */\n                      revert\n                        /* \"--CODEGEN--\":1489:1491   */\n                    tag_101:\n                        /* \"--CODEGEN--\":1555:1618   */\n                      tag_102\n                        /* \"--CODEGEN--\":1610:1617   */\n                      dup7\n                        /* \"--CODEGEN--\":1601:1607   */\n                      dup3\n                        /* \"--CODEGEN--\":1590:1599   */\n                      dup8\n                        /* \"--CODEGEN--\":1586:1608   */\n                      add\n                        /* \"--CODEGEN--\":1555:1618   */\n                      jump(tag_82)\n                    tag_102:\n                        /* \"--CODEGEN--\":1545:1618   */\n                      swap2\n                      pop\n                        /* \"--CODEGEN--\":1430:1624   */\n                      pop\n                        /* \"--CODEGEN--\":955:1634   */\n                      swap3\n                      pop\n                      swap3\n                      pop\n                      swap3\n                      jump\n                        /* \"--CODEGEN--\":1641:2126   */\n                    tag_12:\n                      0x00\n                      dup1\n                      0x00\n                        /* \"--CODEGEN--\":1776:1778   */\n                      0x60\n                        /* \"--CODEGEN--\":1764:1773   */\n                      dup5\n                        /* \"--CODEGEN--\":1755:1762   */\n                      dup7\n                        /* \"--CODEGEN--\":1751:1774   */\n                      sub\n                        /* \"--CODEGEN--\":1747:1779   */\n                      slt\n                        /* \"--CODEGEN--\":1744:1746   */\n                      iszero\n                      tag_104\n                      jumpi\n                        /* \"--CODEGEN--\":1792:1793   */\n                      0x00\n                        /* \"--CODEGEN--\":1789:1790   */\n                      dup1\n                        /* \"--CODEGEN--\":1782:1794   */\n                      revert\n                        /* \"--CODEGEN--\":1744:1746   */\n                    tag_104:\n                        /* \"--CODEGEN--\":1827:1828   */\n                      0x00\n                        /* \"--CODEGEN--\":1844:1897   */\n                      tag_105\n                        /* \"--CODEGEN--\":1889:1896   */\n                      dup7\n                        /* \"--CODEGEN--\":1880:1886   */\n                      dup3\n                        /* \"--CODEGEN--\":1869:1878   */\n                      dup8\n                        /* \"--CODEGEN--\":1865:1887   */\n                      add\n                        /* \"--CODEGEN--\":1844:1897   */\n                      jump(tag_92)\n                    tag_105:\n                        /* \"--CODEGEN--\":1834:1897   */\n                      swap4\n                      pop\n                        /* \"--CODEGEN--\":1806:1903   */\n                      pop\n                        /* \"--CODEGEN--\":1934:1936   */\n                      0x20\n                        /* \"--CODEGEN--\":1952:2005   */\n                      tag_106\n                        /* \"--CODEGEN--\":1997:2004   */\n                      dup7\n                        /* \"--CODEGEN--\":1988:1994   */\n                      dup3\n                        /* \"--CODEGEN--\":1977:1986   */\n                      dup8\n                        /* \"--CODEGEN--\":1973:1995   */\n                      add\n                        /* \"--CODEGEN--\":1952:2005   */\n                      jump(tag_74)\n                    tag_106:\n                        /* \"--CODEGEN--\":1942:2005   */\n                      swap3\n                      pop\n                        /* \"--CODEGEN--\":1913:2011   */\n                      pop\n                        /* \"--CODEGEN--\":2042:2044   */\n                      0x40\n                        /* \"--CODEGEN--\":2060:2110   */\n                      tag_107\n                        /* \"--CODEGEN--\":2102:2109   */\n                      dup7\n                        /* \"--CODEGEN--\":2093:2099   */\n                      dup3\n                        /* \"--CODEGEN--\":2082:2091   */\n                      dup8\n                        /* \"--CODEGEN--\":2078:2100   */\n                      add\n                        /* \"--CODEGEN--\":2060:2110   */\n                      jump(tag_78)\n                    tag_107:\n                        /* \"--CODEGEN--\":2050:2110   */\n                      swap2\n                      pop\n                        /* \"--CODEGEN--\":2021:2116   */\n                      pop\n                        /* \"--CODEGEN--\":1738:2126   */\n                      swap3\n                      pop\n                      swap3\n                      pop\n                      swap3\n                      jump\n                        /* \"--CODEGEN--\":2133:2243   */\n                    tag_109:\n                        /* \"--CODEGEN--\":2206:2237   */\n                      tag_110\n                        /* \"--CODEGEN--\":2231:2236   */\n                      dup2\n                        /* \"--CODEGEN--\":2206:2237   */\n                      jump(tag_111)\n                    tag_110:\n                        /* \"--CODEGEN--\":2201:2204   */\n                      dup3\n                        /* \"--CODEGEN--\":2194:2238   */\n                      mstore\n                        /* \"--CODEGEN--\":2188:2243   */\n                      pop\n                      pop\n                      jump\n                        /* \"--CODEGEN--\":2315:3193   */\n                    tag_113:\n                      0x00\n                        /* \"--CODEGEN--\":2492:2567   */\n                      tag_114\n                        /* \"--CODEGEN--\":2561:2566   */\n                      dup3\n                        /* \"--CODEGEN--\":2492:2567   */\n                      jump(tag_115)\n                    tag_114:\n                        /* \"--CODEGEN--\":2585:2591   */\n                      dup1\n                        /* \"--CODEGEN--\":2580:2583   */\n                      dup5\n                        /* \"--CODEGEN--\":2573:2592   */\n                      mstore\n                        /* \"--CODEGEN--\":2609:2613   */\n                      0x20\n                        /* \"--CODEGEN--\":2604:2607   */\n                      dup5\n                        /* \"--CODEGEN--\":2600:2614   */\n                      add\n                        /* \"--CODEGEN--\":2593:2614   */\n                      swap4\n                      pop\n                        /* \"--CODEGEN--\":2657:2660   */\n                      dup4\n                        /* \"--CODEGEN--\":2699:2703   */\n                      0x20\n                        /* \"--CODEGEN--\":2691:2697   */\n                      dup3\n                        /* \"--CODEGEN--\":2687:2704   */\n                      mul\n                        /* \"--CODEGEN--\":2682:2685   */\n                      dup6\n                        /* \"--CODEGEN--\":2678:2705   */\n                      add\n                        /* \"--CODEGEN--\":2725:2802   */\n                      tag_116\n                        /* \"--CODEGEN--\":2796:2801   */\n                      dup6\n                        /* \"--CODEGEN--\":2725:2802   */\n                      jump(tag_117)\n                    tag_116:\n                        /* \"--CODEGEN--\":2823:2824   */\n                      0x00\n                        /* \"--CODEGEN--\":2808:3154   */\n                    tag_118:\n                        /* \"--CODEGEN--\":2833:2839   */\n                      dup5\n                        /* \"--CODEGEN--\":2830:2831   */\n                      dup2\n                        /* \"--CODEGEN--\":2827:2840   */\n                      lt\n                        /* \"--CODEGEN--\":2808:3154   */\n                      iszero\n                      tag_119\n                      jumpi\n                        /* \"--CODEGEN--\":2895:2904   */\n                      dup4\n                        /* \"--CODEGEN--\":2889:2893   */\n                      dup4\n                        /* \"--CODEGEN--\":2885:2905   */\n                      sub\n                        /* \"--CODEGEN--\":2880:2883   */\n                      dup9\n                        /* \"--CODEGEN--\":2873:2906   */\n                      mstore\n                        /* \"--CODEGEN--\":2921:3021   */\n                      tag_121\n                        /* \"--CODEGEN--\":3016:3020   */\n                      dup4\n                        /* \"--CODEGEN--\":3007:3013   */\n                      dup4\n                        /* \"--CODEGEN--\":3001:3014   */\n                      mload\n                        /* \"--CODEGEN--\":2921:3021   */\n                      jump(tag_122)\n                    tag_121:\n                        /* \"--CODEGEN--\":2913:3021   */\n                      swap3\n                      pop\n                        /* \"--CODEGEN--\":3038:3119   */\n                      tag_123\n                        /* \"--CODEGEN--\":3112:3118   */\n                      dup3\n                        /* \"--CODEGEN--\":3038:3119   */\n                      jump(tag_124)\n                    tag_123:\n                        /* \"--CODEGEN--\":3028:3119   */\n                      swap2\n                      pop\n                        /* \"--CODEGEN--\":3142:3146   */\n                      0x20\n                        /* \"--CODEGEN--\":3137:3140   */\n                      dup9\n                        /* \"--CODEGEN--\":3133:3147   */\n                      add\n                        /* \"--CODEGEN--\":3126:3147   */\n                      swap8\n                      pop\n                        /* \"--CODEGEN--\":2855:2856   */\n                      0x01\n                        /* \"--CODEGEN--\":2852:2853   */\n                      dup2\n                        /* \"--CODEGEN--\":2848:2857   */\n                      add\n                        /* \"--CODEGEN--\":2843:2857   */\n                      swap1\n                      pop\n                        /* \"--CODEGEN--\":2808:3154   */\n                      jump(tag_118)\n                    tag_119:\n                        /* \"--CODEGEN--\":2812:2826   */\n                      pop\n                        /* \"--CODEGEN--\":3167:3171   */\n                      dup2\n                        /* \"--CODEGEN--\":3160:3171   */\n                      swap7\n                      pop\n                        /* \"--CODEGEN--\":3184:3187   */\n                      dup7\n                        /* \"--CODEGEN--\":3177:3187   */\n                      swap5\n                      pop\n                        /* \"--CODEGEN--\":2471:3193   */\n                      pop\n                      pop\n                      pop\n                      pop\n                      swap3\n                      swap2\n                      pop\n                      pop\n                      jump\n                        /* \"--CODEGEN--\":3201:3302   */\n                    tag_126:\n                        /* \"--CODEGEN--\":3268:3296   */\n                      tag_127\n                        /* \"--CODEGEN--\":3290:3295   */\n                      dup2\n                        /* \"--CODEGEN--\":3268:3296   */\n                      jump(tag_128)\n                    tag_127:\n                        /* \"--CODEGEN--\":3263:3266   */\n                      dup3\n                        /* \"--CODEGEN--\":3256:3297   */\n                      mstore\n                        /* \"--CODEGEN--\":3250:3302   */\n                      pop\n                      pop\n                      jump\n                        /* \"--CODEGEN--\":3309:3416   */\n                    tag_130:\n                        /* \"--CODEGEN--\":3380:3410   */\n                      tag_131\n                        /* \"--CODEGEN--\":3404:3409   */\n                      dup2\n                        /* \"--CODEGEN--\":3380:3410   */\n                      jump(tag_132)\n                    tag_131:\n                        /* \"--CODEGEN--\":3375:3378   */\n                      dup3\n                        /* \"--CODEGEN--\":3368:3411   */\n                      mstore\n                        /* \"--CODEGEN--\":3362:3416   */\n                      pop\n                      pop\n                      jump\n                        /* \"--CODEGEN--\":3423:3723   */\n                    tag_134:\n                      0x00\n                        /* \"--CODEGEN--\":3525:3564   */\n                      tag_135\n                        /* \"--CODEGEN--\":3558:3563   */\n                      dup3\n                        /* \"--CODEGEN--\":3525:3564   */\n                      jump(tag_136)\n                    tag_135:\n                        /* \"--CODEGEN--\":3581:3587   */\n                      dup1\n                        /* \"--CODEGEN--\":3576:3579   */\n                      dup5\n                        /* \"--CODEGEN--\":3569:3588   */\n                      mstore\n                        /* \"--CODEGEN--\":3593:3656   */\n                      tag_137\n                        /* \"--CODEGEN--\":3649:3655   */\n                      dup2\n                        /* \"--CODEGEN--\":3642:3646   */\n                      0x20\n                        /* \"--CODEGEN--\":3637:3640   */\n                      dup7\n                        /* \"--CODEGEN--\":3633:3647   */\n                      add\n                        /* \"--CODEGEN--\":3626:3630   */\n                      0x20\n                        /* \"--CODEGEN--\":3619:3624   */\n                      dup7\n                        /* \"--CODEGEN--\":3615:3631   */\n                      add\n                        /* \"--CODEGEN--\":3593:3656   */\n                      jump(tag_138)\n                    tag_137:\n                        /* \"--CODEGEN--\":3688:3717   */\n                      tag_139\n                        /* \"--CODEGEN--\":3710:3716   */\n                      dup2\n                        /* \"--CODEGEN--\":3688:3717   */\n                      jump(tag_140)\n                    tag_139:\n                        /* \"--CODEGEN--\":3681:3685   */\n                      0x20\n                        /* \"--CODEGEN--\":3676:3679   */\n                      dup6\n                        /* \"--CODEGEN--\":3672:3686   */\n                      add\n                        /* \"--CODEGEN--\":3668:3718   */\n                      add\n                        /* \"--CODEGEN--\":3661:3718   */\n                      swap2\n                      pop\n                        /* \"--CODEGEN--\":3505:3723   */\n                      pop\n                      swap3\n                      swap2\n                      pop\n                      pop\n                      jump\n                        /* \"--CODEGEN--\":3730:4022   */\n                    tag_142:\n                      0x00\n                        /* \"--CODEGEN--\":3828:3863   */\n                      tag_143\n                        /* \"--CODEGEN--\":3857:3862   */\n                      dup3\n                        /* \"--CODEGEN--\":3828:3863   */\n                      jump(tag_144)\n                    tag_143:\n                        /* \"--CODEGEN--\":3880:3886   */\n                      dup1\n                        /* \"--CODEGEN--\":3875:3878   */\n                      dup5\n                        /* \"--CODEGEN--\":3868:3887   */\n                      mstore\n                        /* \"--CODEGEN--\":3892:3955   */\n                      tag_145\n                        /* \"--CODEGEN--\":3948:3954   */\n                      dup2\n                        /* \"--CODEGEN--\":3941:3945   */\n                      0x20\n                        /* \"--CODEGEN--\":3936:3939   */\n                      dup7\n                        /* \"--CODEGEN--\":3932:3946   */\n                      add\n                        /* \"--CODEGEN--\":3925:3929   */\n                      0x20\n                        /* \"--CODEGEN--\":3918:3923   */\n                      dup7\n                        /* \"--CODEGEN--\":3914:3930   */\n                      add\n                        /* \"--CODEGEN--\":3892:3955   */\n                      jump(tag_138)\n                    tag_145:\n                        /* \"--CODEGEN--\":3987:4016   */\n                      tag_146\n                        /* \"--CODEGEN--\":4009:4015   */\n                      dup2\n                        /* \"--CODEGEN--\":3987:4016   */\n                      jump(tag_140)\n                    tag_146:\n                        /* \"--CODEGEN--\":3980:3984   */\n                      0x20\n                        /* \"--CODEGEN--\":3975:3978   */\n                      dup6\n                        /* \"--CODEGEN--\":3971:3985   */\n                      add\n                        /* \"--CODEGEN--\":3967:4017   */\n                      add\n                        /* \"--CODEGEN--\":3960:4017   */\n                      swap2\n                      pop\n                        /* \"--CODEGEN--\":3808:4022   */\n                      pop\n                      swap3\n                      swap2\n                      pop\n                      pop\n                      jump\n                        /* \"--CODEGEN--\":4054:4788   */\n                    tag_148:\n                      0x00\n                        /* \"--CODEGEN--\":4163:4168   */\n                      dup2\n                        /* \"--CODEGEN--\":4157:4169   */\n                      sload\n                        /* \"--CODEGEN--\":4197:4198   */\n                      0x01\n                        /* \"--CODEGEN--\":4186:4195   */\n                      dup2\n                        /* \"--CODEGEN--\":4182:4199   */\n                      and\n                        /* \"--CODEGEN--\":4210:4211   */\n                      0x00\n                        /* \"--CODEGEN--\":4205:4405   */\n                      dup2\n                      eq\n                      tag_150\n                      jumpi\n                        /* \"--CODEGEN--\":4416:4417   */\n                      0x01\n                        /* \"--CODEGEN--\":4411:4782   */\n                      dup2\n                      eq\n                      tag_151\n                      jumpi\n                        /* \"--CODEGEN--\":4175:4782   */\n                      jump(tag_149)\n                        /* \"--CODEGEN--\":4205:4405   */\n                    tag_150:\n                        /* \"--CODEGEN--\":4283:4287   */\n                      0x7f\n                        /* \"--CODEGEN--\":4279:4280   */\n                      0x02\n                        /* \"--CODEGEN--\":4268:4277   */\n                      dup4\n                        /* \"--CODEGEN--\":4264:4281   */\n                      div\n                        /* \"--CODEGEN--\":4260:4288   */\n                      and\n                        /* \"--CODEGEN--\":4307:4313   */\n                      dup1\n                        /* \"--CODEGEN--\":4302:4305   */\n                      dup7\n                        /* \"--CODEGEN--\":4295:4314   */\n                      mstore\n                        /* \"--CODEGEN--\":4363:4367   */\n                      0xff\n                        /* \"--CODEGEN--\":4359:4368   */\n                      not\n                        /* \"--CODEGEN--\":4348:4357   */\n                      dup4\n                        /* \"--CODEGEN--\":4344:4369   */\n                      and\n                        /* \"--CODEGEN--\":4337:4341   */\n                      0x20\n                        /* \"--CODEGEN--\":4332:4335   */\n                      dup8\n                        /* \"--CODEGEN--\":4328:4342   */\n                      add\n                        /* \"--CODEGEN--\":4321:4370   */\n                      mstore\n                        /* \"--CODEGEN--\":4393:4397   */\n                      0x40\n                        /* \"--CODEGEN--\":4388:4391   */\n                      dup7\n                        /* \"--CODEGEN--\":4384:4398   */\n                      add\n                        /* \"--CODEGEN--\":4377:4398   */\n                      swap4\n                      pop\n                        /* \"--CODEGEN--\":4212:4405   */\n                      pop\n                        /* \"--CODEGEN--\":4205:4405   */\n                      jump(tag_149)\n                        /* \"--CODEGEN--\":4411:4782   */\n                    tag_151:\n                        /* \"--CODEGEN--\":4480:4481   */\n                      0x02\n                        /* \"--CODEGEN--\":4469:4478   */\n                      dup3\n                        /* \"--CODEGEN--\":4465:4482   */\n                      div\n                        /* \"--CODEGEN--\":4501:4507   */\n                      dup1\n                        /* \"--CODEGEN--\":4496:4499   */\n                      dup7\n                        /* \"--CODEGEN--\":4489:4508   */\n                      mstore\n                        /* \"--CODEGEN--\":4531:4535   */\n                      0x20\n                        /* \"--CODEGEN--\":4526:4529   */\n                      dup7\n                        /* \"--CODEGEN--\":4522:4536   */\n                      add\n                        /* \"--CODEGEN--\":4515:4536   */\n                      swap6\n                      pop\n                        /* \"--CODEGEN--\":4558:4596   */\n                      tag_152\n                        /* \"--CODEGEN--\":4590:4595   */\n                      dup6\n                        /* \"--CODEGEN--\":4558:4596   */\n                      jump(tag_153)\n                    tag_152:\n                        /* \"--CODEGEN--\":4612:4613   */\n                      0x00\n                        /* \"--CODEGEN--\":4620:4750   */\n                    tag_154:\n                        /* \"--CODEGEN--\":4634:4640   */\n                      dup3\n                        /* \"--CODEGEN--\":4631:4632   */\n                      dup2\n                        /* \"--CODEGEN--\":4628:4641   */\n                      lt\n                        /* \"--CODEGEN--\":4620:4750   */\n                      iszero\n                      tag_155\n                      jumpi\n                        /* \"--CODEGEN--\":4699:4706   */\n                      dup2\n                        /* \"--CODEGEN--\":4693:4707   */\n                      sload\n                        /* \"--CODEGEN--\":4689:4690   */\n                      dup2\n                        /* \"--CODEGEN--\":4684:4687   */\n                      dup10\n                        /* \"--CODEGEN--\":4680:4691   */\n                      add\n                        /* \"--CODEGEN--\":4673:4708   */\n                      mstore\n                        /* \"--CODEGEN--\":4740:4741   */\n                      0x01\n                        /* \"--CODEGEN--\":4731:4738   */\n                      dup3\n                        /* \"--CODEGEN--\":4727:4742   */\n                      add\n                        /* \"--CODEGEN--\":4716:4742   */\n                      swap2\n                      pop\n                        /* \"--CODEGEN--\":4656:4660   */\n                      0x20\n                        /* \"--CODEGEN--\":4653:4654   */\n                      dup2\n                        /* \"--CODEGEN--\":4649:4661   */\n                      add\n                        /* \"--CODEGEN--\":4644:4661   */\n                      swap1\n                      pop\n                        /* \"--CODEGEN--\":4620:4750   */\n                      jump(tag_154)\n                    tag_155:\n                        /* \"--CODEGEN--\":4773:4774   */\n                      dup1\n                        /* \"--CODEGEN--\":4768:4771   */\n                      dup9\n                        /* \"--CODEGEN--\":4764:4775   */\n                      add\n                        /* \"--CODEGEN--\":4757:4775   */\n                      swap6\n                      pop\n                        /* \"--CODEGEN--\":4418:4782   */\n                      pop\n                      pop\n                      pop\n                        /* \"--CODEGEN--\":4175:4782   */\n                    tag_149:\n                      pop\n                        /* \"--CODEGEN--\":4133:4788   */\n                      pop\n                      swap3\n                      swap2\n                      pop\n                      pop\n                      jump\n                        /* \"--CODEGEN--\":4855:6906   */\n                    tag_122:\n                      0x00\n                        /* \"--CODEGEN--\":4992:4997   */\n                      0x0140\n                        /* \"--CODEGEN--\":4987:4990   */\n                      dup4\n                        /* \"--CODEGEN--\":4983:4998   */\n                      add\n                        /* \"--CODEGEN--\":5083:5086   */\n                      0x00\n                        /* \"--CODEGEN--\":5076:5081   */\n                      dup4\n                        /* \"--CODEGEN--\":5072:5087   */\n                      add\n                        /* \"--CODEGEN--\":5066:5088   */\n                      mload\n                        /* \"--CODEGEN--\":5100:5161   */\n                      tag_158\n                        /* \"--CODEGEN--\":5156:5159   */\n                      0x00\n                        /* \"--CODEGEN--\":5151:5154   */\n                      dup7\n                        /* \"--CODEGEN--\":5147:5160   */\n                      add\n                        /* \"--CODEGEN--\":5134:5145   */\n                      dup3\n                        /* \"--CODEGEN--\":5100:5161   */\n                      jump(tag_109)\n                    tag_158:\n                        /* \"--CODEGEN--\":5013:5173   */\n                      pop\n                        /* \"--CODEGEN--\":5252:5256   */\n                      0x20\n                        /* \"--CODEGEN--\":5245:5250   */\n                      dup4\n                        /* \"--CODEGEN--\":5241:5257   */\n                      add\n                        /* \"--CODEGEN--\":5235:5258   */\n                      mload\n                        /* \"--CODEGEN--\":5270:5332   */\n                      tag_159\n                        /* \"--CODEGEN--\":5326:5330   */\n                      0x20\n                        /* \"--CODEGEN--\":5321:5324   */\n                      dup7\n                        /* \"--CODEGEN--\":5317:5331   */\n                      add\n                        /* \"--CODEGEN--\":5304:5315   */\n                      dup3\n                        /* \"--CODEGEN--\":5270:5332   */\n                      jump(tag_109)\n                    tag_159:\n                        /* \"--CODEGEN--\":5183:5344   */\n                      pop\n                        /* \"--CODEGEN--\":5421:5425   */\n                      0x40\n                        /* \"--CODEGEN--\":5414:5419   */\n                      dup4\n                        /* \"--CODEGEN--\":5410:5426   */\n                      add\n                        /* \"--CODEGEN--\":5404:5427   */\n                      mload\n                        /* \"--CODEGEN--\":5472:5475   */\n                      dup5\n                        /* \"--CODEGEN--\":5466:5470   */\n                      dup3\n                        /* \"--CODEGEN--\":5462:5476   */\n                      sub\n                        /* \"--CODEGEN--\":5455:5459   */\n                      0x40\n                        /* \"--CODEGEN--\":5450:5453   */\n                      dup7\n                        /* \"--CODEGEN--\":5446:5460   */\n                      add\n                        /* \"--CODEGEN--\":5439:5477   */\n                      mstore\n                        /* \"--CODEGEN--\":5492:5560   */\n                      tag_160\n                        /* \"--CODEGEN--\":5555:5559   */\n                      dup3\n                        /* \"--CODEGEN--\":5542:5553   */\n                      dup3\n                        /* \"--CODEGEN--\":5492:5560   */\n                      jump(tag_142)\n                    tag_160:\n                        /* \"--CODEGEN--\":5484:5560   */\n                      swap2\n                      pop\n                        /* \"--CODEGEN--\":5354:5572   */\n                      pop\n                        /* \"--CODEGEN--\":5651:5655   */\n                      0x60\n                        /* \"--CODEGEN--\":5644:5649   */\n                      dup4\n                        /* \"--CODEGEN--\":5640:5656   */\n                      add\n                        /* \"--CODEGEN--\":5634:5657   */\n                      mload\n                        /* \"--CODEGEN--\":5702:5705   */\n                      dup5\n                        /* \"--CODEGEN--\":5696:5700   */\n                      dup3\n                        /* \"--CODEGEN--\":5692:5706   */\n                      sub\n                        /* \"--CODEGEN--\":5685:5689   */\n                      0x60\n                        /* \"--CODEGEN--\":5680:5683   */\n                      dup7\n                        /* \"--CODEGEN--\":5676:5690   */\n                      add\n                        /* \"--CODEGEN--\":5669:5707   */\n                      mstore\n                        /* \"--CODEGEN--\":5722:5790   */\n                      tag_161\n                        /* \"--CODEGEN--\":5785:5789   */\n                      dup3\n                        /* \"--CODEGEN--\":5772:5783   */\n                      dup3\n                        /* \"--CODEGEN--\":5722:5790   */\n                      jump(tag_142)\n                    tag_161:\n                        /* \"--CODEGEN--\":5714:5790   */\n                      swap2\n                      pop\n                        /* \"--CODEGEN--\":5582:5802   */\n                      pop\n                        /* \"--CODEGEN--\":5880:5884   */\n                      0x80\n                        /* \"--CODEGEN--\":5873:5878   */\n                      dup4\n                        /* \"--CODEGEN--\":5869:5885   */\n                      add\n                        /* \"--CODEGEN--\":5863:5886   */\n                      mload\n                        /* \"--CODEGEN--\":5898:5954   */\n                      tag_162\n                        /* \"--CODEGEN--\":5948:5952   */\n                      0x80\n                        /* \"--CODEGEN--\":5943:5946   */\n                      dup7\n                        /* \"--CODEGEN--\":5939:5953   */\n                      add\n                        /* \"--CODEGEN--\":5926:5937   */\n                      dup3\n                        /* \"--CODEGEN--\":5898:5954   */\n                      jump(tag_126)\n                    tag_162:\n                        /* \"--CODEGEN--\":5812:5966   */\n                      pop\n                        /* \"--CODEGEN--\":6043:6047   */\n                      0xa0\n                        /* \"--CODEGEN--\":6036:6041   */\n                      dup4\n                        /* \"--CODEGEN--\":6032:6048   */\n                      add\n                        /* \"--CODEGEN--\":6026:6049   */\n                      mload\n                        /* \"--CODEGEN--\":6061:6117   */\n                      tag_163\n                        /* \"--CODEGEN--\":6111:6115   */\n                      0xa0\n                        /* \"--CODEGEN--\":6106:6109   */\n                      dup7\n                        /* \"--CODEGEN--\":6102:6116   */\n                      add\n                        /* \"--CODEGEN--\":6089:6100   */\n                      dup3\n                        /* \"--CODEGEN--\":6061:6117   */\n                      jump(tag_126)\n                    tag_163:\n                        /* \"--CODEGEN--\":5976:6129   */\n                      pop\n                        /* \"--CODEGEN--\":6206:6210   */\n                      0xc0\n                        /* \"--CODEGEN--\":6199:6204   */\n                      dup4\n                        /* \"--CODEGEN--\":6195:6211   */\n                      add\n                        /* \"--CODEGEN--\":6189:6212   */\n                      mload\n                        /* \"--CODEGEN--\":6257:6260   */\n                      dup5\n                        /* \"--CODEGEN--\":6251:6255   */\n                      dup3\n                        /* \"--CODEGEN--\":6247:6261   */\n                      sub\n                        /* \"--CODEGEN--\":6240:6244   */\n                      0xc0\n                        /* \"--CODEGEN--\":6235:6238   */\n                      dup7\n                        /* \"--CODEGEN--\":6231:6245   */\n                      add\n                        /* \"--CODEGEN--\":6224:6262   */\n                      mstore\n                        /* \"--CODEGEN--\":6277:6345   */\n                      tag_164\n                        /* \"--CODEGEN--\":6340:6344   */\n                      dup3\n                        /* \"--CODEGEN--\":6327:6338   */\n                      dup3\n                        /* \"--CODEGEN--\":6277:6345   */\n                      jump(tag_142)\n                    tag_164:\n                        /* \"--CODEGEN--\":6269:6345   */\n                      swap2\n                      pop\n                        /* \"--CODEGEN--\":6139:6357   */\n                      pop\n                        /* \"--CODEGEN--\":6434:6438   */\n                      0xe0\n                        /* \"--CODEGEN--\":6427:6432   */\n                      dup4\n                        /* \"--CODEGEN--\":6423:6439   */\n                      add\n                        /* \"--CODEGEN--\":6417:6440   */\n                      mload\n                        /* \"--CODEGEN--\":6452:6514   */\n                      tag_165\n                        /* \"--CODEGEN--\":6508:6512   */\n                      0xe0\n                        /* \"--CODEGEN--\":6503:6506   */\n                      dup7\n                        /* \"--CODEGEN--\":6499:6513   */\n                      add\n                        /* \"--CODEGEN--\":6486:6497   */\n                      dup3\n                        /* \"--CODEGEN--\":6452:6514   */\n                      jump(tag_166)\n                    tag_165:\n                        /* \"--CODEGEN--\":6367:6526   */\n                      pop\n                        /* \"--CODEGEN--\":6606:6611   */\n                      0x0100\n                        /* \"--CODEGEN--\":6599:6604   */\n                      dup4\n                        /* \"--CODEGEN--\":6595:6612   */\n                      add\n                        /* \"--CODEGEN--\":6589:6613   */\n                      mload\n                        /* \"--CODEGEN--\":6625:6682   */\n                      tag_167\n                        /* \"--CODEGEN--\":6675:6680   */\n                      0x0100\n                        /* \"--CODEGEN--\":6670:6673   */\n                      dup7\n                        /* \"--CODEGEN--\":6666:6681   */\n                      add\n                        /* \"--CODEGEN--\":6653:6664   */\n                      dup3\n                        /* \"--CODEGEN--\":6625:6682   */\n                      jump(tag_126)\n                    tag_167:\n                        /* \"--CODEGEN--\":6536:6694   */\n                      pop\n                        /* \"--CODEGEN--\":6786:6791   */\n                      0x0120\n                        /* \"--CODEGEN--\":6779:6784   */\n                      dup4\n                        /* \"--CODEGEN--\":6775:6792   */\n                      add\n                        /* \"--CODEGEN--\":6769:6793   */\n                      mload\n                        /* \"--CODEGEN--\":6805:6868   */\n                      tag_168\n                        /* \"--CODEGEN--\":6861:6866   */\n                      0x0120\n                        /* \"--CODEGEN--\":6856:6859   */\n                      dup7\n                        /* \"--CODEGEN--\":6852:6867   */\n                      add\n                        /* \"--CODEGEN--\":6839:6850   */\n                      dup3\n                        /* \"--CODEGEN--\":6805:6868   */\n                      jump(tag_166)\n                    tag_168:\n                        /* \"--CODEGEN--\":6704:6880   */\n                      pop\n                        /* \"--CODEGEN--\":6897:6901   */\n                      dup1\n                        /* \"--CODEGEN--\":6890:6901   */\n                      swap2\n                      pop\n                        /* \"--CODEGEN--\":4965:6906   */\n                      pop\n                      swap3\n                      swap2\n                      pop\n                      pop\n                      jump\n                        /* \"--CODEGEN--\":6913:7023   */\n                    tag_166:\n                        /* \"--CODEGEN--\":6986:7017   */\n                      tag_170\n                        /* \"--CODEGEN--\":7011:7016   */\n                      dup2\n                        /* \"--CODEGEN--\":6986:7017   */\n                      jump(tag_171)\n                    tag_170:\n                        /* \"--CODEGEN--\":6981:6984   */\n                      dup3\n                        /* \"--CODEGEN--\":6974:7018   */\n                      mstore\n                        /* \"--CODEGEN--\":6968:7023   */\n                      pop\n                      pop\n                      jump\n                        /* \"--CODEGEN--\":7030:8423   */\n                    tag_9:\n                      0x00\n                        /* \"--CODEGEN--\":7482:7485   */\n                      0x0100\n                        /* \"--CODEGEN--\":7471:7480   */\n                      dup3\n                        /* \"--CODEGEN--\":7467:7486   */\n                      add\n                        /* \"--CODEGEN--\":7459:7486   */\n                      swap1\n                      pop\n                        /* \"--CODEGEN--\":7497:7558   */\n                      tag_173\n                        /* \"--CODEGEN--\":7555:7556   */\n                      0x00\n                        /* \"--CODEGEN--\":7544:7553   */\n                      dup4\n                        /* \"--CODEGEN--\":7540:7557   */\n                      add\n                        /* \"--CODEGEN--\":7531:7537   */\n                      dup12\n                        /* \"--CODEGEN--\":7497:7558   */\n                      jump(tag_109)\n                    tag_173:\n                        /* \"--CODEGEN--\":7569:7631   */\n                      tag_174\n                        /* \"--CODEGEN--\":7627:7629   */\n                      0x20\n                        /* \"--CODEGEN--\":7616:7625   */\n                      dup4\n                        /* \"--CODEGEN--\":7612:7630   */\n                      add\n                        /* \"--CODEGEN--\":7603:7609   */\n                      dup11\n                        /* \"--CODEGEN--\":7569:7631   */\n                      jump(tag_109)\n                    tag_174:\n                        /* \"--CODEGEN--\":7679:7688   */\n                      dup2\n                        /* \"--CODEGEN--\":7673:7677   */\n                      dup2\n                        /* \"--CODEGEN--\":7669:7689   */\n                      sub\n                        /* \"--CODEGEN--\":7664:7666   */\n                      0x40\n                        /* \"--CODEGEN--\":7653:7662   */\n                      dup4\n                        /* \"--CODEGEN--\":7649:7667   */\n                      add\n                        /* \"--CODEGEN--\":7642:7690   */\n                      mstore\n                        /* \"--CODEGEN--\":7704:7772   */\n                      tag_175\n                        /* \"--CODEGEN--\":7767:7771   */\n                      dup2\n                        /* \"--CODEGEN--\":7758:7764   */\n                      dup10\n                        /* \"--CODEGEN--\":7704:7772   */\n                      jump(tag_134)\n                    tag_175:\n                        /* \"--CODEGEN--\":7696:7772   */\n                      swap1\n                      pop\n                        /* \"--CODEGEN--\":7783:7843   */\n                      tag_176\n                        /* \"--CODEGEN--\":7839:7841   */\n                      0x60\n                        /* \"--CODEGEN--\":7828:7837   */\n                      dup4\n                        /* \"--CODEGEN--\":7824:7842   */\n                      add\n                        /* \"--CODEGEN--\":7815:7821   */\n                      dup9\n                        /* \"--CODEGEN--\":7783:7843   */\n                      jump(tag_130)\n                    tag_176:\n                        /* \"--CODEGEN--\":7892:7901   */\n                      dup2\n                        /* \"--CODEGEN--\":7886:7890   */\n                      dup2\n                        /* \"--CODEGEN--\":7882:7902   */\n                      sub\n                        /* \"--CODEGEN--\":7876:7879   */\n                      0x80\n                        /* \"--CODEGEN--\":7865:7874   */\n                      dup4\n                        /* \"--CODEGEN--\":7861:7880   */\n                      add\n                        /* \"--CODEGEN--\":7854:7903   */\n                      mstore\n                        /* \"--CODEGEN--\":7917:7985   */\n                      tag_177\n                        /* \"--CODEGEN--\":7980:7984   */\n                      dup2\n                        /* \"--CODEGEN--\":7971:7977   */\n                      dup8\n                        /* \"--CODEGEN--\":7917:7985   */\n                      jump(tag_134)\n                    tag_177:\n                        /* \"--CODEGEN--\":7909:7985   */\n                      swap1\n                      pop\n                        /* \"--CODEGEN--\":8034:8043   */\n                      dup2\n                        /* \"--CODEGEN--\":8028:8032   */\n                      dup2\n                        /* \"--CODEGEN--\":8024:8044   */\n                      sub\n                        /* \"--CODEGEN--\":8018:8021   */\n                      0xa0\n                        /* \"--CODEGEN--\":8007:8016   */\n                      dup4\n                        /* \"--CODEGEN--\":8003:8022   */\n                      add\n                        /* \"--CODEGEN--\":7996:8045   */\n                      mstore\n                        /* \"--CODEGEN--\":8059:8127   */\n                      tag_178\n                        /* \"--CODEGEN--\":8122:8126   */\n                      dup2\n                        /* \"--CODEGEN--\":8113:8119   */\n                      dup7\n                        /* \"--CODEGEN--\":8059:8127   */\n                      jump(tag_134)\n                    tag_178:\n                        /* \"--CODEGEN--\":8051:8127   */\n                      swap1\n                      pop\n                        /* \"--CODEGEN--\":8138:8199   */\n                      tag_179\n                        /* \"--CODEGEN--\":8194:8197   */\n                      0xc0\n                        /* \"--CODEGEN--\":8183:8192   */\n                      dup4\n                        /* \"--CODEGEN--\":8179:8198   */\n                      add\n                        /* \"--CODEGEN--\":8170:8176   */\n                      dup6\n                        /* \"--CODEGEN--\":8138:8199   */\n                      jump(tag_130)\n                    tag_179:\n                        /* \"--CODEGEN--\":8248:8257   */\n                      dup2\n                        /* \"--CODEGEN--\":8242:8246   */\n                      dup2\n                        /* \"--CODEGEN--\":8238:8258   */\n                      sub\n                        /* \"--CODEGEN--\":8232:8235   */\n                      0xe0\n                        /* \"--CODEGEN--\":8221:8230   */\n                      dup4\n                        /* \"--CODEGEN--\":8217:8236   */\n                      add\n                        /* \"--CODEGEN--\":8210:8259   */\n                      mstore\n                        /* \"--CODEGEN--\":8273:8413   */\n                      tag_180\n                        /* \"--CODEGEN--\":8408:8412   */\n                      dup2\n                        /* \"--CODEGEN--\":8399:8405   */\n                      dup5\n                        /* \"--CODEGEN--\":8273:8413   */\n                      jump(tag_113)\n                    tag_180:\n                        /* \"--CODEGEN--\":8265:8413   */\n                      swap1\n                      pop\n                        /* \"--CODEGEN--\":7453:8423   */\n                      swap10\n                      swap9\n                      pop\n                      pop\n                      pop\n                      pop\n                      pop\n                      pop\n                      pop\n                      pop\n                      pop\n                      jump\n                        /* \"--CODEGEN--\":8430:9857   */\n                    tag_61:\n                      0x00\n                        /* \"--CODEGEN--\":8853:8856   */\n                      0x0140\n                        /* \"--CODEGEN--\":8842:8851   */\n                      dup3\n                        /* \"--CODEGEN--\":8838:8857   */\n                      add\n                        /* \"--CODEGEN--\":8830:8857   */\n                      swap1\n                      pop\n                        /* \"--CODEGEN--\":8868:8929   */\n                      tag_182\n                        /* \"--CODEGEN--\":8926:8927   */\n                      0x00\n                        /* \"--CODEGEN--\":8915:8924   */\n                      dup4\n                        /* \"--CODEGEN--\":8911:8928   */\n                      add\n                        /* \"--CODEGEN--\":8902:8908   */\n                      dup14\n                        /* \"--CODEGEN--\":8868:8929   */\n                      jump(tag_109)\n                    tag_182:\n                        /* \"--CODEGEN--\":8940:9002   */\n                      tag_183\n                        /* \"--CODEGEN--\":8998:9000   */\n                      0x20\n                        /* \"--CODEGEN--\":8987:8996   */\n                      dup4\n                        /* \"--CODEGEN--\":8983:9001   */\n                      add\n                        /* \"--CODEGEN--\":8974:8980   */\n                      dup13\n                        /* \"--CODEGEN--\":8940:9002   */\n                      jump(tag_109)\n                    tag_183:\n                        /* \"--CODEGEN--\":9050:9059   */\n                      dup2\n                        /* \"--CODEGEN--\":9044:9048   */\n                      dup2\n                        /* \"--CODEGEN--\":9040:9060   */\n                      sub\n                        /* \"--CODEGEN--\":9035:9037   */\n                      0x40\n                        /* \"--CODEGEN--\":9024:9033   */\n                      dup4\n                        /* \"--CODEGEN--\":9020:9038   */\n                      add\n                        /* \"--CODEGEN--\":9013:9061   */\n                      mstore\n                        /* \"--CODEGEN--\":9075:9143   */\n                      tag_184\n                        /* \"--CODEGEN--\":9138:9142   */\n                      dup2\n                        /* \"--CODEGEN--\":9129:9135   */\n                      dup12\n                        /* \"--CODEGEN--\":9075:9143   */\n                      jump(tag_134)\n                    tag_184:\n                        /* \"--CODEGEN--\":9067:9143   */\n                      swap1\n                      pop\n                        /* \"--CODEGEN--\":9191:9200   */\n                      dup2\n                        /* \"--CODEGEN--\":9185:9189   */\n                      dup2\n                        /* \"--CODEGEN--\":9181:9201   */\n                      sub\n                        /* \"--CODEGEN--\":9176:9178   */\n                      0x60\n                        /* \"--CODEGEN--\":9165:9174   */\n                      dup4\n                        /* \"--CODEGEN--\":9161:9179   */\n                      add\n                        /* \"--CODEGEN--\":9154:9202   */\n                      mstore\n                        /* \"--CODEGEN--\":9216:9284   */\n                      tag_185\n                        /* \"--CODEGEN--\":9279:9283   */\n                      dup2\n                        /* \"--CODEGEN--\":9270:9276   */\n                      dup11\n                        /* \"--CODEGEN--\":9216:9284   */\n                      jump(tag_134)\n                    tag_185:\n                        /* \"--CODEGEN--\":9208:9284   */\n                      swap1\n                      pop\n                        /* \"--CODEGEN--\":9333:9342   */\n                      dup2\n                        /* \"--CODEGEN--\":9327:9331   */\n                      dup2\n                        /* \"--CODEGEN--\":9323:9343   */\n                      sub\n                        /* \"--CODEGEN--\":9317:9320   */\n                      0x80\n                        /* \"--CODEGEN--\":9306:9315   */\n                      dup4\n                        /* \"--CODEGEN--\":9302:9321   */\n                      add\n                        /* \"--CODEGEN--\":9295:9344   */\n                      mstore\n                        /* \"--CODEGEN--\":9358:9426   */\n                      tag_186\n                        /* \"--CODEGEN--\":9421:9425   */\n                      dup2\n                        /* \"--CODEGEN--\":9412:9418   */\n                      dup10\n                        /* \"--CODEGEN--\":9358:9426   */\n                      jump(tag_134)\n                    tag_186:\n                        /* \"--CODEGEN--\":9350:9426   */\n                      swap1\n                      pop\n                        /* \"--CODEGEN--\":9437:9494   */\n                      tag_187\n                        /* \"--CODEGEN--\":9489:9492   */\n                      0xa0\n                        /* \"--CODEGEN--\":9478:9487   */\n                      dup4\n                        /* \"--CODEGEN--\":9474:9493   */\n                      add\n                        /* \"--CODEGEN--\":9465:9471   */\n                      dup9\n                        /* \"--CODEGEN--\":9437:9494   */\n                      jump(tag_126)\n                    tag_187:\n                        /* \"--CODEGEN--\":9505:9562   */\n                      tag_188\n                        /* \"--CODEGEN--\":9557:9560   */\n                      0xc0\n                        /* \"--CODEGEN--\":9546:9555   */\n                      dup4\n                        /* \"--CODEGEN--\":9542:9561   */\n                      add\n                        /* \"--CODEGEN--\":9533:9539   */\n                      dup8\n                        /* \"--CODEGEN--\":9505:9562   */\n                      jump(tag_126)\n                    tag_188:\n                        /* \"--CODEGEN--\":9573:9636   */\n                      tag_189\n                        /* \"--CODEGEN--\":9631:9634   */\n                      0xe0\n                        /* \"--CODEGEN--\":9620:9629   */\n                      dup4\n                        /* \"--CODEGEN--\":9616:9635   */\n                      add\n                        /* \"--CODEGEN--\":9607:9613   */\n                      dup7\n                        /* \"--CODEGEN--\":9573:9636   */\n                      jump(tag_166)\n                    tag_189:\n                        /* \"--CODEGEN--\":9647:9708   */\n                      tag_190\n                        /* \"--CODEGEN--\":9703:9706   */\n                      0x0100\n                        /* \"--CODEGEN--\":9692:9701   */\n                      dup4\n                        /* \"--CODEGEN--\":9688:9707   */\n                      add\n                        /* \"--CODEGEN--\":9679:9685   */\n                      dup6\n                        /* \"--CODEGEN--\":9647:9708   */\n                      jump(tag_130)\n                    tag_190:\n                        /* \"--CODEGEN--\":9757:9766   */\n                      dup2\n                        /* \"--CODEGEN--\":9751:9755   */\n                      dup2\n                        /* \"--CODEGEN--\":9747:9767   */\n                      sub\n                        /* \"--CODEGEN--\":9741:9744   */\n                      0x0120\n                        /* \"--CODEGEN--\":9730:9739   */\n                      dup4\n                        /* \"--CODEGEN--\":9726:9745   */\n                      add\n                        /* \"--CODEGEN--\":9719:9768   */\n                      mstore\n                        /* \"--CODEGEN--\":9782:9847   */\n                      tag_191\n                        /* \"--CODEGEN--\":9842:9846   */\n                      dup2\n                        /* \"--CODEGEN--\":9833:9839   */\n                      dup5\n                        /* \"--CODEGEN--\":9782:9847   */\n                      jump(tag_148)\n                    tag_191:\n                        /* \"--CODEGEN--\":9774:9847   */\n                      swap1\n                      pop\n                        /* \"--CODEGEN--\":8824:9857   */\n                      swap12\n                      swap11\n                      pop\n                      pop\n                      pop\n                      pop\n                      pop\n                      pop\n                      pop\n                      pop\n                      pop\n                      pop\n                      pop\n                      jump\n                        /* \"--CODEGEN--\":9864:10120   */\n                    tag_87:\n                      0x00\n                        /* \"--CODEGEN--\":9926:9928   */\n                      0x40\n                        /* \"--CODEGEN--\":9920:9929   */\n                      mload\n                        /* \"--CODEGEN--\":9910:9929   */\n                      swap1\n                      pop\n                        /* \"--CODEGEN--\":9964:9968   */\n                      dup2\n                        /* \"--CODEGEN--\":9956:9962   */\n                      dup2\n                        /* \"--CODEGEN--\":9952:9969   */\n                      add\n                        /* \"--CODEGEN--\":10063:10069   */\n                      dup2\n                        /* \"--CODEGEN--\":10051:10061   */\n                      dup2\n                        /* \"--CODEGEN--\":10048:10070   */\n                      lt\n                        /* \"--CODEGEN--\":10027:10045   */\n                      0xffffffffffffffff\n                        /* \"--CODEGEN--\":10015:10025   */\n                      dup3\n                        /* \"--CODEGEN--\":10012:10046   */\n                      gt\n                        /* \"--CODEGEN--\":10009:10071   */\n                      or\n                        /* \"--CODEGEN--\":10006:10008   */\n                      iszero\n                      tag_193\n                      jumpi\n                        /* \"--CODEGEN--\":10084:10085   */\n                      0x00\n                        /* \"--CODEGEN--\":10081:10082   */\n                      dup1\n                        /* \"--CODEGEN--\":10074:10086   */\n                      revert\n                        /* \"--CODEGEN--\":10006:10008   */\n                    tag_193:\n                        /* \"--CODEGEN--\":10104:10114   */\n                      dup1\n                        /* \"--CODEGEN--\":10100:10102   */\n                      0x40\n                        /* \"--CODEGEN--\":10093:10115   */\n                      mstore\n                        /* \"--CODEGEN--\":9904:10120   */\n                      pop\n                      swap2\n                      swap1\n                      pop\n                      jump\n                        /* \"--CODEGEN--\":10127:10386   */\n                    tag_86:\n                      0x00\n                        /* \"--CODEGEN--\":10271:10289   */\n                      0xffffffffffffffff\n                        /* \"--CODEGEN--\":10263:10269   */\n                      dup3\n                        /* \"--CODEGEN--\":10260:10290   */\n                      gt\n                        /* \"--CODEGEN--\":10257:10259   */\n                      iszero\n                      tag_195\n                      jumpi\n                        /* \"--CODEGEN--\":10303:10304   */\n                      0x00\n                        /* \"--CODEGEN--\":10300:10301   */\n                      dup1\n                        /* \"--CODEGEN--\":10293:10305   */\n                      revert\n                        /* \"--CODEGEN--\":10257:10259   */\n                    tag_195:\n                        /* \"--CODEGEN--\":10347:10351   */\n                      0x1f\n                        /* \"--CODEGEN--\":10343:10352   */\n                      not\n                        /* \"--CODEGEN--\":10336:10340   */\n                      0x1f\n                        /* \"--CODEGEN--\":10328:10334   */\n                      dup4\n                        /* \"--CODEGEN--\":10324:10341   */\n                      add\n                        /* \"--CODEGEN--\":10320:10353   */\n                      and\n                        /* \"--CODEGEN--\":10312:10353   */\n                      swap1\n                      pop\n                        /* \"--CODEGEN--\":10376:10380   */\n                      0x20\n                        /* \"--CODEGEN--\":10370:10374   */\n                      dup2\n                        /* \"--CODEGEN--\":10366:10381   */\n                      add\n                        /* \"--CODEGEN--\":10358:10381   */\n                      swap1\n                      pop\n                        /* \"--CODEGEN--\":10194:10386   */\n                      swap2\n                      swap1\n                      pop\n                      jump\n                        /* \"--CODEGEN--\":10395:10537   */\n                    tag_117:\n                      0x00\n                        /* \"--CODEGEN--\":10525:10529   */\n                      0x20\n                        /* \"--CODEGEN--\":10517:10523   */\n                      dup3\n                        /* \"--CODEGEN--\":10513:10530   */\n                      add\n                        /* \"--CODEGEN--\":10502:10530   */\n                      swap1\n                      pop\n                        /* \"--CODEGEN--\":10494:10537   */\n                      swap2\n                      swap1\n                      pop\n                      jump\n                        /* \"--CODEGEN--\":10548:10674   */\n                    tag_153:\n                      0x00\n                        /* \"--CODEGEN--\":10625:10629   */\n                      dup2\n                        /* \"--CODEGEN--\":10622:10623   */\n                      0x00\n                        /* \"--CODEGEN--\":10615:10630   */\n                      mstore\n                        /* \"--CODEGEN--\":10662:10666   */\n                      0x20\n                        /* \"--CODEGEN--\":10659:10660   */\n                      0x00\n                        /* \"--CODEGEN--\":10649:10667   */\n                      keccak256\n                        /* \"--CODEGEN--\":10637:10667   */\n                      swap1\n                      pop\n                        /* \"--CODEGEN--\":10607:10674   */\n                      swap2\n                      swap1\n                      pop\n                      jump\n                        /* \"--CODEGEN--\":10683:10811   */\n                    tag_115:\n                      0x00\n                        /* \"--CODEGEN--\":10800:10805   */\n                      dup2\n                        /* \"--CODEGEN--\":10794:10806   */\n                      mload\n                        /* \"--CODEGEN--\":10784:10806   */\n                      swap1\n                      pop\n                        /* \"--CODEGEN--\":10778:10811   */\n                      swap2\n                      swap1\n                      pop\n                      jump\n                        /* \"--CODEGEN--\":10818:10906   */\n                    tag_144:\n                      0x00\n                        /* \"--CODEGEN--\":10895:10900   */\n                      dup2\n                        /* \"--CODEGEN--\":10889:10901   */\n                      mload\n                        /* \"--CODEGEN--\":10879:10901   */\n                      swap1\n                      pop\n                        /* \"--CODEGEN--\":10873:10906   */\n                      swap2\n                      swap1\n                      pop\n                      jump\n                        /* \"--CODEGEN--\":10913:11005   */\n                    tag_136:\n                      0x00\n                        /* \"--CODEGEN--\":10994:10999   */\n                      dup2\n                        /* \"--CODEGEN--\":10988:11000   */\n                      mload\n                        /* \"--CODEGEN--\":10978:11000   */\n                      swap1\n                      pop\n                        /* \"--CODEGEN--\":10972:11005   */\n                      swap2\n                      swap1\n                      pop\n                      jump\n                        /* \"--CODEGEN--\":11013:11156   */\n                    tag_124:\n                      0x00\n                        /* \"--CODEGEN--\":11145:11149   */\n                      0x20\n                        /* \"--CODEGEN--\":11137:11143   */\n                      dup3\n                        /* \"--CODEGEN--\":11133:11150   */\n                      add\n                        /* \"--CODEGEN--\":11122:11150   */\n                      swap1\n                      pop\n                        /* \"--CODEGEN--\":11115:11156   */\n                      swap2\n                      swap1\n                      pop\n                      jump\n                        /* \"--CODEGEN--\":11164:11269   */\n                    tag_111:\n                      0x00\n                        /* \"--CODEGEN--\":11233:11264   */\n                      tag_203\n                        /* \"--CODEGEN--\":11258:11263   */\n                      dup3\n                        /* \"--CODEGEN--\":11233:11264   */\n                      jump(tag_204)\n                    tag_203:\n                        /* \"--CODEGEN--\":11222:11264   */\n                      swap1\n                      pop\n                        /* \"--CODEGEN--\":11216:11269   */\n                      swap2\n                      swap1\n                      pop\n                      jump\n                        /* \"--CODEGEN--\":11276:11368   */\n                    tag_128:\n                      0x00\n                        /* \"--CODEGEN--\":11356:11361   */\n                      dup2\n                        /* \"--CODEGEN--\":11349:11362   */\n                      iszero\n                        /* \"--CODEGEN--\":11342:11363   */\n                      iszero\n                        /* \"--CODEGEN--\":11331:11363   */\n                      swap1\n                      pop\n                        /* \"--CODEGEN--\":11325:11368   */\n                      swap2\n                      swap1\n                      pop\n                      jump\n                        /* \"--CODEGEN--\":11375:11453   */\n                    tag_132:\n                      0x00\n                        /* \"--CODEGEN--\":11443:11448   */\n                      dup2\n                        /* \"--CODEGEN--\":11432:11448   */\n                      swap1\n                      pop\n                        /* \"--CODEGEN--\":11426:11453   */\n                      swap2\n                      swap1\n                      pop\n                      jump\n                        /* \"--CODEGEN--\":11460:11588   */\n                    tag_204:\n                      0x00\n                        /* \"--CODEGEN--\":11540:11582   */\n                      0xffffffffffffffffffffffffffffffffffffffff\n                        /* \"--CODEGEN--\":11533:11538   */\n                      dup3\n                        /* \"--CODEGEN--\":11529:11583   */\n                      and\n                        /* \"--CODEGEN--\":11518:11583   */\n                      swap1\n                      pop\n                        /* \"--CODEGEN--\":11512:11588   */\n                      swap2\n                      swap1\n                      pop\n                      jump\n                        /* \"--CODEGEN--\":11595:11674   */\n                    tag_171:\n                      0x00\n                        /* \"--CODEGEN--\":11664:11669   */\n                      dup2\n                        /* \"--CODEGEN--\":11653:11669   */\n                      swap1\n                      pop\n                        /* \"--CODEGEN--\":11647:11674   */\n                      swap2\n                      swap1\n                      pop\n                      jump\n                        /* \"--CODEGEN--\":11681:11786   */\n                    tag_76:\n                      0x00\n                        /* \"--CODEGEN--\":11750:11781   */\n                      tag_210\n                        /* \"--CODEGEN--\":11775:11780   */\n                      dup3\n                        /* \"--CODEGEN--\":11750:11781   */\n                      jump(tag_204)\n                    tag_210:\n                        /* \"--CODEGEN--\":11739:11781   */\n                      swap1\n                      pop\n                        /* \"--CODEGEN--\":11733:11786   */\n                      swap2\n                      swap1\n                      pop\n                      jump\n                        /* \"--CODEGEN--\":11793:11885   */\n                    tag_80:\n                      0x00\n                        /* \"--CODEGEN--\":11873:11878   */\n                      dup2\n                        /* \"--CODEGEN--\":11866:11879   */\n                      iszero\n                        /* \"--CODEGEN--\":11859:11880   */\n                      iszero\n                        /* \"--CODEGEN--\":11848:11880   */\n                      swap1\n                      pop\n                        /* \"--CODEGEN--\":11842:11885   */\n                      swap2\n                      swap1\n                      pop\n                      jump\n                        /* \"--CODEGEN--\":11892:11971   */\n                    tag_94:\n                      0x00\n                        /* \"--CODEGEN--\":11961:11966   */\n                      dup2\n                        /* \"--CODEGEN--\":11950:11966   */\n                      swap1\n                      pop\n                        /* \"--CODEGEN--\":11944:11971   */\n                      swap2\n                      swap1\n                      pop\n                      jump\n                        /* \"--CODEGEN--\":11979:12124   */\n                    tag_90:\n                        /* \"--CODEGEN--\":12060:12066   */\n                      dup3\n                        /* \"--CODEGEN--\":12055:12058   */\n                      dup2\n                        /* \"--CODEGEN--\":12050:12053   */\n                      dup4\n                        /* \"--CODEGEN--\":12037:12067   */\n                      calldatacopy\n                        /* \"--CODEGEN--\":12116:12117   */\n                      0x00\n                        /* \"--CODEGEN--\":12107:12113   */\n                      dup4\n                        /* \"--CODEGEN--\":12102:12105   */\n                      dup4\n                        /* \"--CODEGEN--\":12098:12114   */\n                      add\n                        /* \"--CODEGEN--\":12091:12118   */\n                      mstore\n                        /* \"--CODEGEN--\":12030:12124   */\n                      pop\n                      pop\n                      pop\n                      jump\n                        /* \"--CODEGEN--\":12133:12401   */\n                    tag_138:\n                        /* \"--CODEGEN--\":12198:12199   */\n                      0x00\n                        /* \"--CODEGEN--\":12205:12306   */\n                    tag_215:\n                        /* \"--CODEGEN--\":12219:12225   */\n                      dup4\n                        /* \"--CODEGEN--\":12216:12217   */\n                      dup2\n                        /* \"--CODEGEN--\":12213:12226   */\n                      lt\n                        /* \"--CODEGEN--\":12205:12306   */\n                      iszero\n                      tag_216\n                      jumpi\n                        /* \"--CODEGEN--\":12295:12296   */\n                      dup1\n                        /* \"--CODEGEN--\":12290:12293   */\n                      dup3\n                        /* \"--CODEGEN--\":12286:12297   */\n                      add\n                        /* \"--CODEGEN--\":12280:12298   */\n                      mload\n                        /* \"--CODEGEN--\":12276:12277   */\n                      dup2\n                        /* \"--CODEGEN--\":12271:12274   */\n                      dup5\n                        /* \"--CODEGEN--\":12267:12278   */\n                      add\n                        /* \"--CODEGEN--\":12260:12299   */\n                      mstore\n                        /* \"--CODEGEN--\":12241:12243   */\n                      0x20\n                        /* \"--CODEGEN--\":12238:12239   */\n                      dup2\n                        /* \"--CODEGEN--\":12234:12244   */\n                      add\n                        /* \"--CODEGEN--\":12229:12244   */\n                      swap1\n                      pop\n                        /* \"--CODEGEN--\":12205:12306   */\n                      jump(tag_215)\n                    tag_216:\n                        /* \"--CODEGEN--\":12321:12327   */\n                      dup4\n                        /* \"--CODEGEN--\":12318:12319   */\n                      dup2\n                        /* \"--CODEGEN--\":12315:12328   */\n                      gt\n                        /* \"--CODEGEN--\":12312:12314   */\n                      iszero\n                      tag_218\n                      jumpi\n                        /* \"--CODEGEN--\":12386:12387   */\n                      0x00\n                        /* \"--CODEGEN--\":12377:12383   */\n                      dup5\n                        /* \"--CODEGEN--\":12372:12375   */\n                      dup5\n                        /* \"--CODEGEN--\":12368:12384   */\n                      add\n                        /* \"--CODEGEN--\":12361:12388   */\n                      mstore\n                        /* \"--CODEGEN--\":12312:12314   */\n                    tag_218:\n                        /* \"--CODEGEN--\":12182:12401   */\n                      pop\n                      pop\n                      pop\n                      pop\n                      jump\n                        /* \"--CODEGEN--\":12409:12506   */\n                    tag_140:\n                      0x00\n                        /* \"--CODEGEN--\":12497:12499   */\n                      0x1f\n                        /* \"--CODEGEN--\":12493:12500   */\n                      not\n                        /* \"--CODEGEN--\":12488:12490   */\n                      0x1f\n                        /* \"--CODEGEN--\":12481:12486   */\n                      dup4\n                        /* \"--CODEGEN--\":12477:12491   */\n                      add\n                        /* \"--CODEGEN--\":12473:12501   */\n                      and\n                        /* \"--CODEGEN--\":12463:12501   */\n                      swap1\n                      pop\n                        /* \"--CODEGEN--\":12457:12506   */\n                      swap2\n                      swap1\n                      pop\n                      jump\n\n                    auxdata: 0xa265627a7a72305820dccf6279354f885251d36908e7cb6e7322545349ea842a71369d26265be9aa436c6578706572696d656e74616cf50037\n                }\n            }\n\n            auxdata: 0xa265627a7a72305820a5e187f13b7bf55180043d712dd63fb0f37189a817b8c3b8ed5f973e1dca96ec6c6578706572696d656e74616cf50037\n        }\n    }\n\n    auxdata: 0xa265627a7a72305820a3afe08e3e13606a2bdc6503e5136b4d92711fe8307f089f4666103e372f5b456c6578706572696d656e74616cf50037\n}\n",
    "bytecode": {
      "linkReferences": {},
      "object": "608060405234801561001057600080fd5b506140f6806100206000396000f3fe60806040523480156200001157600080fd5b5060043610620000a5576000357c0100000000000000000000000000000000000000000000000000000000900480634abeed1411620000805780634abeed141462000138578063510d7f8614620001585780635bab83fb1462000178578063cd1c8675146200019857620000a5565b80630c4f65bd14620000aa57806330c5d74814620000cc578063394555aa1462000102575b600080fd5b620000b4620001ce565b604051620000c3919062000722565b60405180910390f35b620000ea6004803603620000e4919081019062000595565b62000235565b604051620000f9919062000722565b60405180910390f35b6200012060048036036200011a919081019062000595565b62000272565b6040516200012f91906200073f565b60405180910390f35b62000156600480360362000150919081019062000602565b6200028f565b005b620001766004803603620001709190810190620005c1565b620002ff565b005b6200019660048036036200019091908101906200066e565b62000354565b005b620001b66004803603620001b0919081019062000595565b620004be565b604051620001c5919062000722565b60405180910390f35b6000600260003373ffffffffffffffffffffffffffffffffffffffff1673ffffffffffffffffffffffffffffffffffffffff16815260200190815260200160002060009054906101000a900473ffffffffffffffffffffffffffffffffffffffff16905090565b60006001600083815260200190815260200160002060009054906101000a900473ffffffffffffffffffffffffffffffffffffffff169050919050565b600060046000838152602001908152602001600020549050919050565b826001600086815260200190815260200160002060006101000a81548173ffffffffffffffffffffffffffffffffffffffff021916908373ffffffffffffffffffffffffffffffffffffffff16021790555080600460008481526020019081526020016000208190555050505050565b8060008084815260200190815260200160002060006101000a81548173ffffffffffffffffffffffffffffffffffffffff021916908373ffffffffffffffffffffffffffffffffffffffff1602179055505050565b600360003373ffffffffffffffffffffffffffffffffffffffff1673ffffffffffffffffffffffffffffffffffffffff16815260200190815260200160002060009054906101000a900460ff161515620004bb5760008133620003b6620004fa565b620003c39291906200075c565b604051809103906000f080158015620003e0573d6000803e3d6000fd5b50905080600260003373ffffffffffffffffffffffffffffffffffffffff1673ffffffffffffffffffffffffffffffffffffffff16815260200190815260200160002060006101000a81548173ffffffffffffffffffffffffffffffffffffffff021916908373ffffffffffffffffffffffffffffffffffffffff1602179055506001600360003373ffffffffffffffffffffffffffffffffffffffff1673ffffffffffffffffffffffffffffffffffffffff16815260200190815260200160002060006101000a81548160ff021916908315150217905550505b50565b600080600083815260200190815260200160002060009054906101000a900473ffffffffffffffffffffffffffffffffffffffff169050919050565b6040516137d880620008e583390190565b600062000519823562000834565b905092915050565b60006200052f823562000848565b905092915050565b600082601f83011215156200054b57600080fd5b8135620005626200055c82620007be565b62000790565b915080825260208301602083018583830111156200057f57600080fd5b6200058c8382846200088e565b50505092915050565b600060208284031215620005a857600080fd5b6000620005b88482850162000521565b91505092915050565b60008060408385031215620005d557600080fd5b6000620005e58582860162000521565b9250506020620005f8858286016200050b565b9150509250929050565b600080600080608085870312156200061957600080fd5b6000620006298782880162000521565b94505060206200063c878288016200050b565b93505060406200064f8782880162000521565b9250506060620006628782880162000521565b91505092959194509250565b6000602082840312156200068157600080fd5b600082013567ffffffffffffffff8111156200069c57600080fd5b620006aa8482850162000537565b91505092915050565b620006be8162000852565b82525050565b620006cf81620007f6565b82525050565b620006e0816200080a565b82525050565b6000620006f382620007eb565b808452620007098160208601602086016200089d565b6200071481620008d3565b602085010191505092915050565b6000602082019050620007396000830184620006c4565b92915050565b6000602082019050620007566000830184620006d5565b92915050565b60006040820190508181036000830152620007788185620006e6565b9050620007896020830184620006b3565b9392505050565b6000604051905081810181811067ffffffffffffffff82111715620007b457600080fd5b8060405250919050565b600067ffffffffffffffff821115620007d657600080fd5b601f19601f8301169050602081019050919050565b600081519050919050565b6000620008038262000814565b9050919050565b6000819050919050565b600073ffffffffffffffffffffffffffffffffffffffff82169050919050565b6000620008418262000814565b9050919050565b6000819050919050565b60006200085f8262000866565b9050919050565b600062000873826200087a565b9050919050565b6000620008878262000814565b9050919050565b82818337600083830152505050565b60005b83811015620008bd578082015181840152602081019050620008a0565b83811115620008cd576000848401525b50505050565b6000601f19601f830116905091905056fe60806040523480156200001157600080fd5b50604051620037d8380380620037d88339810180604052620000379190810190620001bc565b80600160006101000a81548173ffffffffffffffffffffffffffffffffffffffff021916908373ffffffffffffffffffffffffffffffffffffffff16021790555081600090805190602001906200009092919062000099565b505050620002db565b828054600181600116156101000203166002900490600052602060002090601f016020900481019282601f10620000dc57805160ff19168380011785556200010d565b828001600101855582156200010d579182015b828111156200010c578251825591602001919060010190620000ef565b5b5090506200011c919062000120565b5090565b6200014591905b808211156200014157600081600090555060010162000127565b5090565b90565b600062000156825162000291565b905092915050565b600082601f83011215156200017257600080fd5b815162000189620001838262000244565b62000216565b91508082526020830160208301858383011115620001a657600080fd5b620001b3838284620002a5565b50505092915050565b60008060408385031215620001d057600080fd5b600083015167ffffffffffffffff811115620001eb57600080fd5b620001f9858286016200015e565b92505060206200020c8582860162000148565b9150509250929050565b6000604051905081810181811067ffffffffffffffff821117156200023a57600080fd5b8060405250919050565b600067ffffffffffffffff8211156200025c57600080fd5b601f19601f8301169050602081019050919050565b600073ffffffffffffffffffffffffffffffffffffffff82169050919050565b60006200029e8262000271565b9050919050565b60005b83811015620002c5578082015181840152602081019050620002a8565b83811115620002d5576000848401525b50505050565b6134ed80620002eb6000396000f3fe60806040523480156200001157600080fd5b50600436106200007b576000357c0100000000000000000000000000000000000000000000000000000000900480636fc92e7314620000805780637ec35b0a14620000a05780639d55295c14620000d6578063ae55c88814620000f6578063d5278316146200012f575b600080fd5b6200009e600480360362000098919081019062001455565b6200014f565b005b620000be6004803603620000b89190810190620015a9565b62000430565b604051620000cd919062001a73565b60405180910390f35b620000f46004803603620000ee9190810190620016e6565b62000541565b005b6200011460048036036200010e9190810190620015a9565b620008e2565b60405162000126949392919062001a90565b60405180910390f35b6200014d6004803603620001479190810190620015ee565b62000e98565b005b600460008a73ffffffffffffffffffffffffffffffffffffffff1673ffffffffffffffffffffffffffffffffffffffff16815260200190815260200160002060009054906101000a900460ff16156200042457620001ac62001175565b610180604051908101604052808c73ffffffffffffffffffffffffffffffffffffffff1681526020018b73ffffffffffffffffffffffffffffffffffffffff1681526020018a81526020018981526020018715158152602001861515815260200188815260200185815260200160028054905081526020018481526020018381526020016000151581525090506002819080600181540180825580915050906001820390600052602060002090600b02016000909192909190915060008201518160000160006101000a81548173ffffffffffffffffffffffffffffffffffffffff021916908373ffffffffffffffffffffffffffffffffffffffff16021790555060208201518160010160006101000a81548173ffffffffffffffffffffffffffffffffffffffff021916908373ffffffffffffffffffffffffffffffffffffffff16021790555060408201518160020190805190602001906200031392919062001209565b5060608201518160030190805190602001906200033292919062001209565b5060808201518160040160006101000a81548160ff02191690831515021790555060a08201518160040160016101000a81548160ff02191690831515021790555060c08201518160050190805190602001906200039192919062001209565b5060e0820151816006015561010082015181600701556101208201518160080155610140820151816009019080519060200190620003d192919062001209565b5061016082015181600a0160006101000a81548160ff0219169083151502179055505050507f2b94f1e9999ff685f243474c3b8c30563987b8897fecb35c7cea9ac0f4f5c6bd60405160405180910390a1505b50505050505050505050565b6000806040516020018082805460018160011615610100020316600290048015620004955780601f106200047257610100808354040283529182019162000495565b820191906000526020600020905b81548152906001019060200180831162000480575b505091505060405160208183030381529060405280519060200120826040516020018082805190602001908083835b602083101515620004eb5780518252602082019150602081019050602083039250620004c4565b6001836020036101000a0380198251168184511680821785525050505050509050019150506040516020818303038152906040528051906020012014156200053757600190506200053c565b600090505b919050565b600160009054906101000a900473ffffffffffffffffffffffffffffffffffffffff1673ffffffffffffffffffffffffffffffffffffffff163373ffffffffffffffffffffffffffffffffffffffff161415620008de5760011515811515141562000744576000600283815481101515620005b857fe5b90600052602060002090600b020160010160009054906101000a900473ffffffffffffffffffffffffffffffffffffffff1690508073ffffffffffffffffffffffffffffffffffffffff166372102d186002858154811015156200061857fe5b90600052602060002090600b0201600601543060016040518463ffffffff167c0100000000000000000000000000000000000000000000000000000000028152600401620006699392919062001b38565b600060405180830381600087803b1580156200068457600080fd5b505af115801562000699573d6000803e3d6000fd5b505050506001600284815481101515620006af57fe5b90600052602060002090600b020160040160016101000a81548160ff0219169083151502179055506001600284815481101515620006e957fe5b90600052602060002090600b0201600a0160006101000a81548160ff0219169083151502179055507f2b94f1e9999ff685f243474c3b8c30563987b8897fecb35c7cea9ac0f4f5c6bd60405160405180910390a150620008dd565b60006002838154811015156200075657fe5b90600052602060002090600b020160010160009054906101000a900473ffffffffffffffffffffffffffffffffffffffff1690508073ffffffffffffffffffffffffffffffffffffffff166372102d18600285815481101515620007b657fe5b90600052602060002090600b0201600601543060006040518463ffffffff167c0100000000000000000000000000000000000000000000000000000000028152600401620008079392919062001b38565b600060405180830381600087803b1580156200082257600080fd5b505af115801562000837573d6000803e3d6000fd5b5050505060006002848154811015156200084d57fe5b90600052602060002090600b020160040160016101000a81548160ff02191690831515021790555060016002848154811015156200088757fe5b90600052602060002090600b0201600a0160006101000a81548160ff0219169083151502179055507f2b94f1e9999ff685f243474c3b8c30563987b8897fecb35c7cea9ac0f4f5c6bd60405160405180910390a1505b5b5050565b60006060806000600160009054906101000a900473ffffffffffffffffffffffffffffffffffffffff1673ffffffffffffffffffffffffffffffffffffffff163373ffffffffffffffffffffffffffffffffffffffff161480156200094e57506200094d8562000430565b5b1562000e03576001600360023082805480602002602001604051908101604052809291908181526020018280548015620009de57602002820191906000526020600020905b8160009054906101000a900473ffffffffffffffffffffffffffffffffffffffff1673ffffffffffffffffffffffffffffffffffffffff168152602001906001019080831162000993575b5050505050925081805480602002602001604051908101604052809291908181526020016000905b8282101562000def57838290600052602060002090600b020161018060405190810160405290816000820160009054906101000a900473ffffffffffffffffffffffffffffffffffffffff1673ffffffffffffffffffffffffffffffffffffffff1673ffffffffffffffffffffffffffffffffffffffff1681526020016001820160009054906101000a900473ffffffffffffffffffffffffffffffffffffffff1673ffffffffffffffffffffffffffffffffffffffff1673ffffffffffffffffffffffffffffffffffffffff168152602001600282018054600181600116156101000203166002900480601f01602080910402602001604051908101604052809291908181526020018280546001816001161561010002031660029004801562000b755780601f1062000b495761010080835404028352916020019162000b75565b820191906000526020600020905b81548152906001019060200180831162000b5757829003601f168201915b50505050508152602001600382018054600181600116156101000203166002900480601f01602080910402602001604051908101604052809291908181526020018280546001816001161561010002031660029004801562000c1b5780601f1062000bef5761010080835404028352916020019162000c1b565b820191906000526020600020905b81548152906001019060200180831162000bfd57829003601f168201915b505050505081526020016004820160009054906101000a900460ff161515151581526020016004820160019054906101000a900460ff16151515158152602001600582018054600181600116156101000203166002900480601f01602080910402602001604051908101604052809291908181526020018280546001816001161561010002031660029004801562000cf75780601f1062000ccb5761010080835404028352916020019162000cf7565b820191906000526020600020905b81548152906001019060200180831162000cd957829003601f168201915b50505050508152602001600682015481526020016007820154815260200160088201548152602001600982018054600181600116156101000203166002900480601f01602080910402602001604051908101604052809291908181526020018280546001816001161561010002031660029004801562000dbb5780601f1062000d8f5761010080835404028352916020019162000dbb565b820191906000526020600020905b81548152906001019060200180831162000d9d57829003601f168201915b50505050508152602001600a820160009054906101000a900460ff1615151515815250508152602001906001019062000a06565b505050509150935093509350935062000e91565b6060600160405190808252806020026020018201604052801562000e365781602001602082028038833980820191505090505b5090506060600160405190808252806020026020018201604052801562000e7a57816020015b62000e6662001290565b81526020019060019003908162000e5c5790505b509050600082826000809050955095509550955050505b9193509193565b600160009054906101000a900473ffffffffffffffffffffffffffffffffffffffff1673ffffffffffffffffffffffffffffffffffffffff163373ffffffffffffffffffffffffffffffffffffffff1614156200116c57600030888888888862000f0162001324565b62000f1296959493929190620019f1565b604051809103906000f08015801562000f2f573d6000803e3d6000fd5b50905060038190806001815401808255809150509060018203906000526020600020016000909192909190916101000a81548173ffffffffffffffffffffffffffffffffffffffff021916908373ffffffffffffffffffffffffffffffffffffffff160217905550506001600460008373ffffffffffffffffffffffffffffffffffffffff1673ffffffffffffffffffffffffffffffffffffffff16815260200190815260200160002060006101000a81548160ff021916908315150217905550600073034e524e35a165c5d829b2985eadde75562ed15c905060008173ffffffffffffffffffffffffffffffffffffffff1663de96b8516040518163ffffffff167c010000000000000000000000000000000000000000000000000000000002815260040160206040518083038186803b1580156200106e57600080fd5b505afa15801562001083573d6000803e3d6000fd5b505050506040513d601f19601f82011682018060405250620010a9919081019062001429565b90508073ffffffffffffffffffffffffffffffffffffffff16634abeed1486858c886040518563ffffffff167c010000000000000000000000000000000000000000000000000000000002815260040162001108949392919062001aeb565b600060405180830381600087803b1580156200112357600080fd5b505af115801562001138573d6000803e3d6000fd5b505050507f2b94f1e9999ff685f243474c3b8c30563987b8897fecb35c7cea9ac0f4f5c6bd60405160405180910390a15050505b50505050505050565b61018060405190810160405280600073ffffffffffffffffffffffffffffffffffffffff168152602001600073ffffffffffffffffffffffffffffffffffffffff168152602001606081526020016060815260200160001515815260200160001515815260200160608152602001600081526020016000815260200160008152602001606081526020016000151581525090565b828054600181600116156101000203166002900490600052602060002090601f016020900481019282601f106200124c57805160ff19168380011785556200127d565b828001600101855582156200127d579182015b828111156200127c5782518255916020019190600101906200125f565b5b5090506200128c919062001335565b5090565b61018060405190810160405280600073ffffffffffffffffffffffffffffffffffffffff168152602001600073ffffffffffffffffffffffffffffffffffffffff168152602001606081526020016060815260200160001515815260200160001515815260200160608152602001600081526020016000815260200160008152602001606081526020016000151581525090565b6040516117a58062001d0f83390190565b6200135a91905b80821115620013565760008160009055506001016200133c565b5090565b90565b60006200136b823562001c84565b905092915050565b600062001381825162001c84565b905092915050565b600062001397823562001c98565b905092915050565b6000620013ad823562001ca4565b905092915050565b600082601f8301121515620013c957600080fd5b8135620013e0620013da8262001ba3565b62001b75565b91508082526020830160208301858383011115620013fd57600080fd5b6200140a83828462001cb8565b50505092915050565b600062001421823562001cae565b905092915050565b6000602082840312156200143c57600080fd5b60006200144c8482850162001373565b91505092915050565b6000806000806000806000806000806101408b8d0312156200147657600080fd5b6000620014868d828e016200135d565b9a50506020620014998d828e016200135d565b99505060408b013567ffffffffffffffff811115620014b757600080fd5b620014c58d828e01620013b5565b98505060608b013567ffffffffffffffff811115620014e357600080fd5b620014f18d828e01620013b5565b97505060808b013567ffffffffffffffff8111156200150f57600080fd5b6200151d8d828e01620013b5565b96505060a0620015308d828e0162001389565b95505060c0620015438d828e0162001389565b94505060e0620015568d828e0162001413565b9350506101006200156a8d828e016200139f565b9250506101208b013567ffffffffffffffff8111156200158957600080fd5b620015978d828e01620013b5565b9150509295989b9194979a5092959850565b600060208284031215620015bc57600080fd5b600082013567ffffffffffffffff811115620015d757600080fd5b620015e584828501620013b5565b91505092915050565b600080600080600080600060e0888a0312156200160a57600080fd5b600088013567ffffffffffffffff8111156200162557600080fd5b620016338a828b01620013b5565b9750506020620016468a828b016200139f565b9650506040620016598a828b016200139f565b955050606088013567ffffffffffffffff8111156200167757600080fd5b620016858a828b01620013b5565b945050608088013567ffffffffffffffff811115620016a357600080fd5b620016b18a828b01620013b5565b93505060a0620016c48a828b016200139f565b92505060c0620016d78a828b016200139f565b91505092959891949750929550565b60008060408385031215620016fa57600080fd5b60006200170a8582860162001413565b92505060206200171d8582860162001389565b9150509250929050565b620017328162001c30565b82525050565b6000620017458262001bea565b808452602084019350620017598362001bd0565b60005b8281101562001791576200177286835162001727565b6200177d8262001c16565b91506020860195506001810190506200175c565b50849250505092915050565b6000620017aa8262001bf5565b80845260208401935083602082028501620017c58562001bdd565b60005b8481101562001804578383038852620017e3838351620018af565b9250620017f08262001c23565b9150602088019750600181019050620017c8565b508196508694505050505092915050565b620018208162001c44565b82525050565b620018318162001c50565b82525050565b6000620018448262001c0b565b8084526200185a81602086016020860162001cc7565b620018658162001cfd565b602085010191505092915050565b6000620018808262001c00565b8084526200189681602086016020860162001cc7565b620018a18162001cfd565b602085010191505092915050565b600061018083016000830151620018ca600086018262001727565b506020830151620018df602086018262001727565b5060408301518482036040860152620018f9828262001873565b9150506060830151848203606086015262001915828262001873565b91505060808301516200192c608086018262001815565b5060a08301516200194160a086018262001815565b5060c083015184820360c08601526200195b828262001873565b91505060e08301516200197260e0860182620019e0565b5061010083015162001989610100860182620019e0565b50610120830151620019a061012086018262001826565b50610140830151848203610140860152620019bc828262001873565b915050610160830151620019d561016086018262001815565b508091505092915050565b620019eb8162001c7a565b82525050565b600060c08201905062001a08600083018962001727565b818103602083015262001a1c818862001837565b905062001a2d604083018762001826565b62001a3c606083018662001826565b818103608083015262001a50818562001837565b905081810360a083015262001a66818462001837565b9050979650505050505050565b600060208201905062001a8a600083018462001815565b92915050565b600060808201905062001aa7600083018762001815565b818103602083015262001abb818662001738565b9050818103604083015262001ad181856200179d565b905062001ae2606083018462001727565b95945050505050565b600060808201905062001b02600083018762001826565b62001b11602083018662001727565b62001b20604083018562001826565b62001b2f606083018462001826565b95945050505050565b600060608201905062001b4f6000830186620019e0565b62001b5e602083018562001727565b62001b6d604083018462001815565b949350505050565b6000604051905081810181811067ffffffffffffffff8211171562001b9957600080fd5b8060405250919050565b600067ffffffffffffffff82111562001bbb57600080fd5b601f19601f8301169050602081019050919050565b6000602082019050919050565b6000602082019050919050565b600081519050919050565b600081519050919050565b600081519050919050565b600081519050919050565b6000602082019050919050565b6000602082019050919050565b600062001c3d8262001c5a565b9050919050565b60008115159050919050565b6000819050919050565b600073ffffffffffffffffffffffffffffffffffffffff82169050919050565b6000819050919050565b600062001c918262001c5a565b9050919050565b60008115159050919050565b6000819050919050565b6000819050919050565b82818337600083830152505050565b60005b8381101562001ce757808201518184015260208101905062001cca565b8381111562001cf7576000848401525b50505050565b6000601f19601f830116905091905056fe60806040527fffffffffffffffffffffffffffffffffffffffffffffffffffffffffffffffff6007553480156200003557600080fd5b50604051620017a5380380620017a583398101806040526200005b91908101906200027a565b306000806101000a81548173ffffffffffffffffffffffffffffffffffffffff021916908373ffffffffffffffffffffffffffffffffffffffff16021790555085600160006101000a81548173ffffffffffffffffffffffffffffffffffffffff021916908373ffffffffffffffffffffffffffffffffffffffff1602179055508460029080519060200190620000f492919062000141565b5081600490805190602001906200010d92919062000141565b5080600590805190602001906200012692919062000141565b5083600381905550826006819055505050505050506200042a565b828054600181600116156101000203166002900490600052602060002090601f016020900481019282601f106200018457805160ff1916838001178555620001b5565b82800160010185558215620001b5579182015b82811115620001b457825182559160200191906001019062000197565b5b509050620001c49190620001c8565b5090565b620001ed91905b80821115620001e9576000816000905550600101620001cf565b5090565b90565b6000620001fe8251620003d6565b905092915050565b6000620002148251620003ea565b905092915050565b600082601f83011215156200023057600080fd5b815162000247620002418262000389565b6200035b565b915080825260208301602083018583830111156200026457600080fd5b62000271838284620003f4565b50505092915050565b60008060008060008060c087890312156200029457600080fd5b6000620002a489828a01620001f0565b965050602087015167ffffffffffffffff811115620002c257600080fd5b620002d089828a016200021c565b9550506040620002e389828a0162000206565b9450506060620002f689828a0162000206565b935050608087015167ffffffffffffffff8111156200031457600080fd5b6200032289828a016200021c565b92505060a087015167ffffffffffffffff8111156200034057600080fd5b6200034e89828a016200021c565b9150509295509295509295565b6000604051905081810181811067ffffffffffffffff821117156200037f57600080fd5b8060405250919050565b600067ffffffffffffffff821115620003a157600080fd5b601f19601f8301169050602081019050919050565b600073ffffffffffffffffffffffffffffffffffffffff82169050919050565b6000620003e382620003b6565b9050919050565b6000819050919050565b60005b8381101562000414578082015181840152602081019050620003f7565b8381111562000424576000848401525b50505050565b61136b806200043a6000396000f3fe608060405234801561001057600080fd5b506004361061005e576000357c0100000000000000000000000000000000000000000000000000000000900480633bc5de301461006357806372102d181461008857806383bffb88146100a4575b600080fd5b61006b6100c0565b60405161007f98979695949392919061106c565b60405180910390f35b6100a2600480360361009d9190810190610d99565b610661565b005b6100be60048036036100b99190810190610d02565b6107e0565b005b60008060606000606080600060606000809054906101000a900473ffffffffffffffffffffffffffffffffffffffff16600160009054906101000a900473ffffffffffffffffffffffffffffffffffffffff166002600354600460056006546008858054600181600116156101000203166002900480601f0160208091040260200160405190810160405280929190818152602001828054600181600116156101000203166002900480156101b65780601f1061018b576101008083540402835291602001916101b6565b820191906000526020600020905b81548152906001019060200180831161019957829003601f168201915b50505050509550838054600181600116156101000203166002900480601f0160208091040260200160405190810160405280929190818152602001828054600181600116156101000203166002900480156102525780601f1061022757610100808354040283529160200191610252565b820191906000526020600020905b81548152906001019060200180831161023557829003601f168201915b50505050509350828054600181600116156101000203166002900480601f0160208091040260200160405190810160405280929190818152602001828054600181600116156101000203166002900480156102ee5780601f106102c3576101008083540402835291602001916102ee565b820191906000526020600020905b8154815290600101906020018083116102d157829003601f168201915b5050505050925080805480602002602001604051908101604052809291908181526020016000905b82821015610641578382906000526020600020906009020161014060405190810160405290816000820160009054906101000a900473ffffffffffffffffffffffffffffffffffffffff1673ffffffffffffffffffffffffffffffffffffffff1673ffffffffffffffffffffffffffffffffffffffff1681526020016001820160009054906101000a900473ffffffffffffffffffffffffffffffffffffffff1673ffffffffffffffffffffffffffffffffffffffff1673ffffffffffffffffffffffffffffffffffffffff168152602001600282018054600181600116156101000203166002900480601f0160208091040260200160405190810160405280929190818152602001828054600181600116156101000203166002900480156104805780601f1061045557610100808354040283529160200191610480565b820191906000526020600020905b81548152906001019060200180831161046357829003601f168201915b50505050508152602001600382018054600181600116156101000203166002900480601f0160208091040260200160405190810160405280929190818152602001828054600181600116156101000203166002900480156105225780601f106104f757610100808354040283529160200191610522565b820191906000526020600020905b81548152906001019060200180831161050557829003601f168201915b505050505081526020016004820160009054906101000a900460ff161515151581526020016004820160019054906101000a900460ff16151515158152602001600582018054600181600116156101000203166002900480601f0160208091040260200160405190810160405280929190818152602001828054600181600116156101000203166002900480156105fa5780601f106105cf576101008083540402835291602001916105fa565b820191906000526020600020905b8154815290600101906020018083116105dd57829003601f168201915b50505050508152602001600682015481526020016007820160009054906101000a900460ff1615151515815260200160088201548152505081526020019060010190610316565b505050509050975097509750975097509750975097509091929394959697565b600160009054906101000a900473ffffffffffffffffffffffffffffffffffffffff1673ffffffffffffffffffffffffffffffffffffffff168273ffffffffffffffffffffffffffffffffffffffff1614156107db5760011515811515141561073b5760016008848154811015156106d557fe5b906000526020600020906009020160070160006101000a81548160ff021916908315150217905550600160088481548110151561070e57fe5b906000526020600020906009020160040160016101000a81548160ff0219169083151502179055506107ae565b600160088481548110151561074c57fe5b906000526020600020906009020160070160006101000a81548160ff021916908315150217905550600060088481548110151561078557fe5b906000526020600020906009020160040160016101000a81548160ff0219169083151502179055505b7f2b94f1e9999ff685f243474c3b8c30563987b8897fecb35c7cea9ac0f4f5c6bd60405160405180910390a15b505050565b6107e8610b45565b61014060405190810160405280600160009054906101000a900473ffffffffffffffffffffffffffffffffffffffff1673ffffffffffffffffffffffffffffffffffffffff1681526020013073ffffffffffffffffffffffffffffffffffffffff1681526020018481526020018381526020016001151581526020016000151581526020018581526020016001600754018152602001600015158152602001600081525090506008819080600181540180825580915050906001820390600052602060002090600902016000909192909190915060008201518160000160006101000a81548173ffffffffffffffffffffffffffffffffffffffff021916908373ffffffffffffffffffffffffffffffffffffffff16021790555060208201518160010160006101000a81548173ffffffffffffffffffffffffffffffffffffffff021916908373ffffffffffffffffffffffffffffffffffffffff1602179055506040820151816002019080519060200190610966929190610bcb565b506060820151816003019080519060200190610983929190610bcb565b5060808201518160040160006101000a81548160ff02191690831515021790555060a08201518160040160016101000a81548160ff02191690831515021790555060c08201518160050190805190602001906109e0929190610bcb565b5060e082015181600601556101008201518160070160006101000a81548160ff02191690831515021790555061012082015181600801555050506000600160009054906101000a900473ffffffffffffffffffffffffffffffffffffffff1690508073ffffffffffffffffffffffffffffffffffffffff16636fc92e73600160009054906101000a900473ffffffffffffffffffffffffffffffffffffffff163087878a6001600060016007540160035460056040518b63ffffffff167c0100000000000000000000000000000000000000000000000000000000028152600401610ad49a99989796959493929190611106565b600060405180830381600087803b158015610aee57600080fd5b505af1158015610b02573d6000803e3d6000fd5b505050506001600754016007819055507f2b94f1e9999ff685f243474c3b8c30563987b8897fecb35c7cea9ac0f4f5c6bd60405160405180910390a15050505050565b61014060405190810160405280600073ffffffffffffffffffffffffffffffffffffffff168152602001600073ffffffffffffffffffffffffffffffffffffffff16815260200160608152602001606081526020016000151581526020016000151581526020016060815260200160008152602001600015158152602001600081525090565b828054600181600116156101000203166002900490600052602060002090601f016020900481019282601f10610c0c57805160ff1916838001178555610c3a565b82800160010185558215610c3a579182015b82811115610c39578251825591602001919060010190610c1e565b5b509050610c479190610c4b565b5090565b610c6d91905b80821115610c69576000816000905550600101610c51565b5090565b90565b6000610c7c82356112b6565b905092915050565b6000610c9082356112c8565b905092915050565b600082601f8301121515610cab57600080fd5b8135610cbe610cb9826111eb565b6111be565b91508082526020830160208301858383011115610cda57600080fd5b610ce58382846112de565b50505092915050565b6000610cfa82356112d4565b905092915050565b600080600060608486031215610d1757600080fd5b600084013567ffffffffffffffff811115610d3157600080fd5b610d3d86828701610c98565b935050602084013567ffffffffffffffff811115610d5a57600080fd5b610d6686828701610c98565b925050604084013567ffffffffffffffff811115610d8357600080fd5b610d8f86828701610c98565b9150509250925092565b600080600060608486031215610dae57600080fd5b6000610dbc86828701610cee565b9350506020610dcd86828701610c70565b9250506040610dde86828701610c84565b9150509250925092565b610df181611264565b82525050565b6000610e0282611236565b80845260208401935083602082028501610e1b85611217565b60005b84811015610e54578383038852610e36838351610f75565b9250610e4182611257565b9150602088019750600181019050610e1e565b508196508694505050505092915050565b610e6e81611276565b82525050565b610e7d81611282565b82525050565b6000610e8e8261124c565b808452610ea28160208601602086016112ed565b610eab81611320565b602085010191505092915050565b6000610ec482611241565b808452610ed88160208601602086016112ed565b610ee181611320565b602085010191505092915050565b600081546001811660008114610f0c5760018114610f2c57610f6d565b607f600283041680865260ff198316602087015260408601935050610f6d565b60028204808652602086019550610f4285611224565b60005b82811015610f6457815481890152600182019150602081019050610f45565b80880195505050505b505092915050565b600061014083016000830151610f8e6000860182610de8565b506020830151610fa16020860182610de8565b5060408301518482036040860152610fb98282610eb9565b91505060608301518482036060860152610fd38282610eb9565b9150506080830151610fe86080860182610e65565b5060a0830151610ffb60a0860182610e65565b5060c083015184820360c08601526110138282610eb9565b91505060e083015161102860e086018261105d565b5061010083015161103d610100860182610e65565b5061012083015161105261012086018261105d565b508091505092915050565b611066816112ac565b82525050565b600061010082019050611082600083018b610de8565b61108f602083018a610de8565b81810360408301526110a18189610e83565b90506110b06060830188610e74565b81810360808301526110c28187610e83565b905081810360a08301526110d68186610e83565b90506110e560c0830185610e74565b81810360e08301526110f78184610df7565b90509998505050505050505050565b60006101408201905061111c600083018d610de8565b611129602083018c610de8565b818103604083015261113b818b610e83565b9050818103606083015261114f818a610e83565b905081810360808301526111638189610e83565b905061117260a0830188610e65565b61117f60c0830187610e65565b61118c60e083018661105d565b61119a610100830185610e74565b8181036101208301526111ad8184610eef565b90509b9a5050505050505050505050565b6000604051905081810181811067ffffffffffffffff821117156111e157600080fd5b8060405250919050565b600067ffffffffffffffff82111561120257600080fd5b601f19601f8301169050602081019050919050565b6000602082019050919050565b60008160005260206000209050919050565b600081519050919050565b600081519050919050565b600081519050919050565b6000602082019050919050565b600061126f8261128c565b9050919050565b60008115159050919050565b6000819050919050565b600073ffffffffffffffffffffffffffffffffffffffff82169050919050565b6000819050919050565b60006112c18261128c565b9050919050565b60008115159050919050565b6000819050919050565b82818337600083830152505050565b60005b8381101561130b5780820151818401526020810190506112f0565b8381111561131a576000848401525b50505050565b6000601f19601f830116905091905056fea265627a7a72305820dccf6279354f885251d36908e7cb6e7322545349ea842a71369d26265be9aa436c6578706572696d656e74616cf50037a265627a7a72305820a5e187f13b7bf55180043d712dd63fb0f37189a817b8c3b8ed5f973e1dca96ec6c6578706572696d656e74616cf50037a265627a7a72305820a3afe08e3e13606a2bdc6503e5136b4d92711fe8307f089f4666103e372f5b456c6578706572696d656e74616cf50037",
      "opcodes": "PUSH1 0x80 PUSH1 0x40 MSTORE CALLVALUE DUP1 ISZERO PUSH2 0x10 JUMPI PUSH1 0x0 DUP1 REVERT JUMPDEST POP PUSH2 0x40F6 DUP1 PUSH2 0x20 PUSH1 0x0 CODECOPY PUSH1 0x0 RETURN INVALID PUSH1 0x80 PUSH1 0x40 MSTORE CALLVALUE DUP1 ISZERO PUSH3 0x11 JUMPI PUSH1 0x0 DUP1 REVERT JUMPDEST POP PUSH1 0x4 CALLDATASIZE LT PUSH3 0xA5 JUMPI PUSH1 0x0 CALLDATALOAD PUSH29 0x100000000000000000000000000000000000000000000000000000000 SWAP1 DIV DUP1 PUSH4 0x4ABEED14 GT PUSH3 0x80 JUMPI DUP1 PUSH4 0x4ABEED14 EQ PUSH3 0x138 JUMPI DUP1 PUSH4 0x510D7F86 EQ PUSH3 0x158 JUMPI DUP1 PUSH4 0x5BAB83FB EQ PUSH3 0x178 JUMPI DUP1 PUSH4 0xCD1C8675 EQ PUSH3 0x198 JUMPI PUSH3 0xA5 JUMP JUMPDEST DUP1 PUSH4 0xC4F65BD EQ PUSH3 0xAA JUMPI DUP1 PUSH4 0x30C5D748 EQ PUSH3 0xCC JUMPI DUP1 PUSH4 0x394555AA EQ PUSH3 0x102 JUMPI JUMPDEST PUSH1 0x0 DUP1 REVERT JUMPDEST PUSH3 0xB4 PUSH3 0x1CE JUMP JUMPDEST PUSH1 0x40 MLOAD PUSH3 0xC3 SWAP2 SWAP1 PUSH3 0x722 JUMP JUMPDEST PUSH1 0x40 MLOAD DUP1 SWAP2 SUB SWAP1 RETURN JUMPDEST PUSH3 0xEA PUSH1 0x4 DUP1 CALLDATASIZE SUB PUSH3 0xE4 SWAP2 SWAP1 DUP2 ADD SWAP1 PUSH3 0x595 JUMP JUMPDEST PUSH3 0x235 JUMP JUMPDEST PUSH1 0x40 MLOAD PUSH3 0xF9 SWAP2 SWAP1 PUSH3 0x722 JUMP JUMPDEST PUSH1 0x40 MLOAD DUP1 SWAP2 SUB SWAP1 RETURN JUMPDEST PUSH3 0x120 PUSH1 0x4 DUP1 CALLDATASIZE SUB PUSH3 0x11A SWAP2 SWAP1 DUP2 ADD SWAP1 PUSH3 0x595 JUMP JUMPDEST PUSH3 0x272 JUMP JUMPDEST PUSH1 0x40 MLOAD PUSH3 0x12F SWAP2 SWAP1 PUSH3 0x73F JUMP JUMPDEST PUSH1 0x40 MLOAD DUP1 SWAP2 SUB SWAP1 RETURN JUMPDEST PUSH3 0x156 PUSH1 0x4 DUP1 CALLDATASIZE SUB PUSH3 0x150 SWAP2 SWAP1 DUP2 ADD SWAP1 PUSH3 0x602 JUMP JUMPDEST PUSH3 0x28F JUMP JUMPDEST STOP JUMPDEST PUSH3 0x176 PUSH1 0x4 DUP1 CALLDATASIZE SUB PUSH3 0x170 SWAP2 SWAP1 DUP2 ADD SWAP1 PUSH3 0x5C1 JUMP JUMPDEST PUSH3 0x2FF JUMP JUMPDEST STOP JUMPDEST PUSH3 0x196 PUSH1 0x4 DUP1 CALLDATASIZE SUB PUSH3 0x190 SWAP2 SWAP1 DUP2 ADD SWAP1 PUSH3 0x66E JUMP JUMPDEST PUSH3 0x354 JUMP JUMPDEST STOP JUMPDEST PUSH3 0x1B6 PUSH1 0x4 DUP1 CALLDATASIZE SUB PUSH3 0x1B0 SWAP2 SWAP1 DUP2 ADD SWAP1 PUSH3 0x595 JUMP JUMPDEST PUSH3 0x4BE JUMP JUMPDEST PUSH1 0x40 MLOAD PUSH3 0x1C5 SWAP2 SWAP1 PUSH3 0x722 JUMP JUMPDEST PUSH1 0x40 MLOAD DUP1 SWAP2 SUB SWAP1 RETURN JUMPDEST PUSH1 0x0 PUSH1 0x2 PUSH1 0x0 CALLER PUSH20 0xFFFFFFFFFFFFFFFFFFFFFFFFFFFFFFFFFFFFFFFF AND PUSH20 0xFFFFFFFFFFFFFFFFFFFFFFFFFFFFFFFFFFFFFFFF AND DUP2 MSTORE PUSH1 0x20 ADD SWAP1 DUP2 MSTORE PUSH1 0x20 ADD PUSH1 0x0 KECCAK256 PUSH1 0x0 SWAP1 SLOAD SWAP1 PUSH2 0x100 EXP SWAP1 DIV PUSH20 0xFFFFFFFFFFFFFFFFFFFFFFFFFFFFFFFFFFFFFFFF AND SWAP1 POP SWAP1 JUMP JUMPDEST PUSH1 0x0 PUSH1 0x1 PUSH1 0x0 DUP4 DUP2 MSTORE PUSH1 0x20 ADD SWAP1 DUP2 MSTORE PUSH1 0x20 ADD PUSH1 0x0 KECCAK256 PUSH1 0x0 SWAP1 SLOAD SWAP1 PUSH2 0x100 EXP SWAP1 DIV PUSH20 0xFFFFFFFFFFFFFFFFFFFFFFFFFFFFFFFFFFFFFFFF AND SWAP1 POP SWAP2 SWAP1 POP JUMP JUMPDEST PUSH1 0x0 PUSH1 0x4 PUSH1 0x0 DUP4 DUP2 MSTORE PUSH1 0x20 ADD SWAP1 DUP2 MSTORE PUSH1 0x20 ADD PUSH1 0x0 KECCAK256 SLOAD SWAP1 POP SWAP2 SWAP1 POP JUMP JUMPDEST DUP3 PUSH1 0x1 PUSH1 0x0 DUP7 DUP2 MSTORE PUSH1 0x20 ADD SWAP1 DUP2 MSTORE PUSH1 0x20 ADD PUSH1 0x0 KECCAK256 PUSH1 0x0 PUSH2 0x100 EXP DUP2 SLOAD DUP2 PUSH20 0xFFFFFFFFFFFFFFFFFFFFFFFFFFFFFFFFFFFFFFFF MUL NOT AND SWAP1 DUP4 PUSH20 0xFFFFFFFFFFFFFFFFFFFFFFFFFFFFFFFFFFFFFFFF AND MUL OR SWAP1 SSTORE POP DUP1 PUSH1 0x4 PUSH1 0x0 DUP5 DUP2 MSTORE PUSH1 0x20 ADD SWAP1 DUP2 MSTORE PUSH1 0x20 ADD PUSH1 0x0 KECCAK256 DUP2 SWAP1 SSTORE POP POP POP POP POP JUMP JUMPDEST DUP1 PUSH1 0x0 DUP1 DUP5 DUP2 MSTORE PUSH1 0x20 ADD SWAP1 DUP2 MSTORE PUSH1 0x20 ADD PUSH1 0x0 KECCAK256 PUSH1 0x0 PUSH2 0x100 EXP DUP2 SLOAD DUP2 PUSH20 0xFFFFFFFFFFFFFFFFFFFFFFFFFFFFFFFFFFFFFFFF MUL NOT AND SWAP1 DUP4 PUSH20 0xFFFFFFFFFFFFFFFFFFFFFFFFFFFFFFFFFFFFFFFF AND MUL OR SWAP1 SSTORE POP POP POP JUMP JUMPDEST PUSH1 0x3 PUSH1 0x0 CALLER PUSH20 0xFFFFFFFFFFFFFFFFFFFFFFFFFFFFFFFFFFFFFFFF AND PUSH20 0xFFFFFFFFFFFFFFFFFFFFFFFFFFFFFFFFFFFFFFFF AND DUP2 MSTORE PUSH1 0x20 ADD SWAP1 DUP2 MSTORE PUSH1 0x20 ADD PUSH1 0x0 KECCAK256 PUSH1 0x0 SWAP1 SLOAD SWAP1 PUSH2 0x100 EXP SWAP1 DIV PUSH1 0xFF AND ISZERO ISZERO PUSH3 0x4BB JUMPI PUSH1 0x0 DUP2 CALLER PUSH3 0x3B6 PUSH3 0x4FA JUMP JUMPDEST PUSH3 0x3C3 SWAP3 SWAP2 SWAP1 PUSH3 0x75C JUMP JUMPDEST PUSH1 0x40 MLOAD DUP1 SWAP2 SUB SWAP1 PUSH1 0x0 CREATE DUP1 ISZERO DUP1 ISZERO PUSH3 0x3E0 JUMPI RETURNDATASIZE PUSH1 0x0 DUP1 RETURNDATACOPY RETURNDATASIZE PUSH1 0x0 REVERT JUMPDEST POP SWAP1 POP DUP1 PUSH1 0x2 PUSH1 0x0 CALLER PUSH20 0xFFFFFFFFFFFFFFFFFFFFFFFFFFFFFFFFFFFFFFFF AND PUSH20 0xFFFFFFFFFFFFFFFFFFFFFFFFFFFFFFFFFFFFFFFF AND DUP2 MSTORE PUSH1 0x20 ADD SWAP1 DUP2 MSTORE PUSH1 0x20 ADD PUSH1 0x0 KECCAK256 PUSH1 0x0 PUSH2 0x100 EXP DUP2 SLOAD DUP2 PUSH20 0xFFFFFFFFFFFFFFFFFFFFFFFFFFFFFFFFFFFFFFFF MUL NOT AND SWAP1 DUP4 PUSH20 0xFFFFFFFFFFFFFFFFFFFFFFFFFFFFFFFFFFFFFFFF AND MUL OR SWAP1 SSTORE POP PUSH1 0x1 PUSH1 0x3 PUSH1 0x0 CALLER PUSH20 0xFFFFFFFFFFFFFFFFFFFFFFFFFFFFFFFFFFFFFFFF AND PUSH20 0xFFFFFFFFFFFFFFFFFFFFFFFFFFFFFFFFFFFFFFFF AND DUP2 MSTORE PUSH1 0x20 ADD SWAP1 DUP2 MSTORE PUSH1 0x20 ADD PUSH1 0x0 KECCAK256 PUSH1 0x0 PUSH2 0x100 EXP DUP2 SLOAD DUP2 PUSH1 0xFF MUL NOT AND SWAP1 DUP4 ISZERO ISZERO MUL OR SWAP1 SSTORE POP POP JUMPDEST POP JUMP JUMPDEST PUSH1 0x0 DUP1 PUSH1 0x0 DUP4 DUP2 MSTORE PUSH1 0x20 ADD SWAP1 DUP2 MSTORE PUSH1 0x20 ADD PUSH1 0x0 KECCAK256 PUSH1 0x0 SWAP1 SLOAD SWAP1 PUSH2 0x100 EXP SWAP1 DIV PUSH20 0xFFFFFFFFFFFFFFFFFFFFFFFFFFFFFFFFFFFFFFFF AND SWAP1 POP SWAP2 SWAP1 POP JUMP JUMPDEST PUSH1 0x40 MLOAD PUSH2 0x37D8 DUP1 PUSH3 0x8E5 DUP4 CODECOPY ADD SWAP1 JUMP JUMPDEST PUSH1 0x0 PUSH3 0x519 DUP3 CALLDATALOAD PUSH3 0x834 JUMP JUMPDEST SWAP1 POP SWAP3 SWAP2 POP POP JUMP JUMPDEST PUSH1 0x0 PUSH3 0x52F DUP3 CALLDATALOAD PUSH3 0x848 JUMP JUMPDEST SWAP1 POP SWAP3 SWAP2 POP POP JUMP JUMPDEST PUSH1 0x0 DUP3 PUSH1 0x1F DUP4 ADD SLT ISZERO ISZERO PUSH3 0x54B JUMPI PUSH1 0x0 DUP1 REVERT JUMPDEST DUP2 CALLDATALOAD PUSH3 0x562 PUSH3 0x55C DUP3 PUSH3 0x7BE JUMP JUMPDEST PUSH3 0x790 JUMP JUMPDEST SWAP2 POP DUP1 DUP3 MSTORE PUSH1 0x20 DUP4 ADD PUSH1 0x20 DUP4 ADD DUP6 DUP4 DUP4 ADD GT ISZERO PUSH3 0x57F JUMPI PUSH1 0x0 DUP1 REVERT JUMPDEST PUSH3 0x58C DUP4 DUP3 DUP5 PUSH3 0x88E JUMP JUMPDEST POP POP POP SWAP3 SWAP2 POP POP JUMP JUMPDEST PUSH1 0x0 PUSH1 0x20 DUP3 DUP5 SUB SLT ISZERO PUSH3 0x5A8 JUMPI PUSH1 0x0 DUP1 REVERT JUMPDEST PUSH1 0x0 PUSH3 0x5B8 DUP5 DUP3 DUP6 ADD PUSH3 0x521 JUMP JUMPDEST SWAP2 POP POP SWAP3 SWAP2 POP POP JUMP JUMPDEST PUSH1 0x0 DUP1 PUSH1 0x40 DUP4 DUP6 SUB SLT ISZERO PUSH3 0x5D5 JUMPI PUSH1 0x0 DUP1 REVERT JUMPDEST PUSH1 0x0 PUSH3 0x5E5 DUP6 DUP3 DUP7 ADD PUSH3 0x521 JUMP JUMPDEST SWAP3 POP POP PUSH1 0x20 PUSH3 0x5F8 DUP6 DUP3 DUP7 ADD PUSH3 0x50B JUMP JUMPDEST SWAP2 POP POP SWAP3 POP SWAP3 SWAP1 POP JUMP JUMPDEST PUSH1 0x0 DUP1 PUSH1 0x0 DUP1 PUSH1 0x80 DUP6 DUP8 SUB SLT ISZERO PUSH3 0x619 JUMPI PUSH1 0x0 DUP1 REVERT JUMPDEST PUSH1 0x0 PUSH3 0x629 DUP8 DUP3 DUP9 ADD PUSH3 0x521 JUMP JUMPDEST SWAP5 POP POP PUSH1 0x20 PUSH3 0x63C DUP8 DUP3 DUP9 ADD PUSH3 0x50B JUMP JUMPDEST SWAP4 POP POP PUSH1 0x40 PUSH3 0x64F DUP8 DUP3 DUP9 ADD PUSH3 0x521 JUMP JUMPDEST SWAP3 POP POP PUSH1 0x60 PUSH3 0x662 DUP8 DUP3 DUP9 ADD PUSH3 0x521 JUMP JUMPDEST SWAP2 POP POP SWAP3 SWAP6 SWAP2 SWAP5 POP SWAP3 POP JUMP JUMPDEST PUSH1 0x0 PUSH1 0x20 DUP3 DUP5 SUB SLT ISZERO PUSH3 0x681 JUMPI PUSH1 0x0 DUP1 REVERT JUMPDEST PUSH1 0x0 DUP3 ADD CALLDATALOAD PUSH8 0xFFFFFFFFFFFFFFFF DUP2 GT ISZERO PUSH3 0x69C JUMPI PUSH1 0x0 DUP1 REVERT JUMPDEST PUSH3 0x6AA DUP5 DUP3 DUP6 ADD PUSH3 0x537 JUMP JUMPDEST SWAP2 POP POP SWAP3 SWAP2 POP POP JUMP JUMPDEST PUSH3 0x6BE DUP2 PUSH3 0x852 JUMP JUMPDEST DUP3 MSTORE POP POP JUMP JUMPDEST PUSH3 0x6CF DUP2 PUSH3 0x7F6 JUMP JUMPDEST DUP3 MSTORE POP POP JUMP JUMPDEST PUSH3 0x6E0 DUP2 PUSH3 0x80A JUMP JUMPDEST DUP3 MSTORE POP POP JUMP JUMPDEST PUSH1 0x0 PUSH3 0x6F3 DUP3 PUSH3 0x7EB JUMP JUMPDEST DUP1 DUP5 MSTORE PUSH3 0x709 DUP2 PUSH1 0x20 DUP7 ADD PUSH1 0x20 DUP7 ADD PUSH3 0x89D JUMP JUMPDEST PUSH3 0x714 DUP2 PUSH3 0x8D3 JUMP JUMPDEST PUSH1 0x20 DUP6 ADD ADD SWAP2 POP POP SWAP3 SWAP2 POP POP JUMP JUMPDEST PUSH1 0x0 PUSH1 0x20 DUP3 ADD SWAP1 POP PUSH3 0x739 PUSH1 0x0 DUP4 ADD DUP5 PUSH3 0x6C4 JUMP JUMPDEST SWAP3 SWAP2 POP POP JUMP JUMPDEST PUSH1 0x0 PUSH1 0x20 DUP3 ADD SWAP1 POP PUSH3 0x756 PUSH1 0x0 DUP4 ADD DUP5 PUSH3 0x6D5 JUMP JUMPDEST SWAP3 SWAP2 POP POP JUMP JUMPDEST PUSH1 0x0 PUSH1 0x40 DUP3 ADD SWAP1 POP DUP2 DUP2 SUB PUSH1 0x0 DUP4 ADD MSTORE PUSH3 0x778 DUP2 DUP6 PUSH3 0x6E6 JUMP JUMPDEST SWAP1 POP PUSH3 0x789 PUSH1 0x20 DUP4 ADD DUP5 PUSH3 0x6B3 JUMP JUMPDEST SWAP4 SWAP3 POP POP POP JUMP JUMPDEST PUSH1 0x0 PUSH1 0x40 MLOAD SWAP1 POP DUP2 DUP2 ADD DUP2 DUP2 LT PUSH8 0xFFFFFFFFFFFFFFFF DUP3 GT OR ISZERO PUSH3 0x7B4 JUMPI PUSH1 0x0 DUP1 REVERT JUMPDEST DUP1 PUSH1 0x40 MSTORE POP SWAP2 SWAP1 POP JUMP JUMPDEST PUSH1 0x0 PUSH8 0xFFFFFFFFFFFFFFFF DUP3 GT ISZERO PUSH3 0x7D6 JUMPI PUSH1 0x0 DUP1 REVERT JUMPDEST PUSH1 0x1F NOT PUSH1 0x1F DUP4 ADD AND SWAP1 POP PUSH1 0x20 DUP2 ADD SWAP1 POP SWAP2 SWAP1 POP JUMP JUMPDEST PUSH1 0x0 DUP2 MLOAD SWAP1 POP SWAP2 SWAP1 POP JUMP JUMPDEST PUSH1 0x0 PUSH3 0x803 DUP3 PUSH3 0x814 JUMP JUMPDEST SWAP1 POP SWAP2 SWAP1 POP JUMP JUMPDEST PUSH1 0x0 DUP2 SWAP1 POP SWAP2 SWAP1 POP JUMP JUMPDEST PUSH1 0x0 PUSH20 0xFFFFFFFFFFFFFFFFFFFFFFFFFFFFFFFFFFFFFFFF DUP3 AND SWAP1 POP SWAP2 SWAP1 POP JUMP JUMPDEST PUSH1 0x0 PUSH3 0x841 DUP3 PUSH3 0x814 JUMP JUMPDEST SWAP1 POP SWAP2 SWAP1 POP JUMP JUMPDEST PUSH1 0x0 DUP2 SWAP1 POP SWAP2 SWAP1 POP JUMP JUMPDEST PUSH1 0x0 PUSH3 0x85F DUP3 PUSH3 0x866 JUMP JUMPDEST SWAP1 POP SWAP2 SWAP1 POP JUMP JUMPDEST PUSH1 0x0 PUSH3 0x873 DUP3 PUSH3 0x87A JUMP JUMPDEST SWAP1 POP SWAP2 SWAP1 POP JUMP JUMPDEST PUSH1 0x0 PUSH3 0x887 DUP3 PUSH3 0x814 JUMP JUMPDEST SWAP1 POP SWAP2 SWAP1 POP JUMP JUMPDEST DUP3 DUP2 DUP4 CALLDATACOPY PUSH1 0x0 DUP4 DUP4 ADD MSTORE POP POP POP JUMP JUMPDEST PUSH1 0x0 JUMPDEST DUP4 DUP2 LT ISZERO PUSH3 0x8BD JUMPI DUP1 DUP3 ADD MLOAD DUP2 DUP5 ADD MSTORE PUSH1 0x20 DUP2 ADD SWAP1 POP PUSH3 0x8A0 JUMP JUMPDEST DUP4 DUP2 GT ISZERO PUSH3 0x8CD JUMPI PUSH1 0x0 DUP5 DUP5 ADD MSTORE JUMPDEST POP POP POP POP JUMP JUMPDEST PUSH1 0x0 PUSH1 0x1F NOT PUSH1 0x1F DUP4 ADD AND SWAP1 POP SWAP2 SWAP1 POP JUMP INVALID PUSH1 0x80 PUSH1 0x40 MSTORE CALLVALUE DUP1 ISZERO PUSH3 0x11 JUMPI PUSH1 0x0 DUP1 REVERT JUMPDEST POP PUSH1 0x40 MLOAD PUSH3 0x37D8 CODESIZE SUB DUP1 PUSH3 0x37D8 DUP4 CODECOPY DUP2 ADD DUP1 PUSH1 0x40 MSTORE PUSH3 0x37 SWAP2 SWAP1 DUP2 ADD SWAP1 PUSH3 0x1BC JUMP JUMPDEST DUP1 PUSH1 0x1 PUSH1 0x0 PUSH2 0x100 EXP DUP2 SLOAD DUP2 PUSH20 0xFFFFFFFFFFFFFFFFFFFFFFFFFFFFFFFFFFFFFFFF MUL NOT AND SWAP1 DUP4 PUSH20 0xFFFFFFFFFFFFFFFFFFFFFFFFFFFFFFFFFFFFFFFF AND MUL OR SWAP1 SSTORE POP DUP2 PUSH1 0x0 SWAP1 DUP1 MLOAD SWAP1 PUSH1 0x20 ADD SWAP1 PUSH3 0x90 SWAP3 SWAP2 SWAP1 PUSH3 0x99 JUMP JUMPDEST POP POP POP PUSH3 0x2DB JUMP JUMPDEST DUP3 DUP1 SLOAD PUSH1 0x1 DUP2 PUSH1 0x1 AND ISZERO PUSH2 0x100 MUL SUB AND PUSH1 0x2 SWAP1 DIV SWAP1 PUSH1 0x0 MSTORE PUSH1 0x20 PUSH1 0x0 KECCAK256 SWAP1 PUSH1 0x1F ADD PUSH1 0x20 SWAP1 DIV DUP2 ADD SWAP3 DUP3 PUSH1 0x1F LT PUSH3 0xDC JUMPI DUP1 MLOAD PUSH1 0xFF NOT AND DUP4 DUP1 ADD OR DUP6 SSTORE PUSH3 0x10D JUMP JUMPDEST DUP3 DUP1 ADD PUSH1 0x1 ADD DUP6 SSTORE DUP3 ISZERO PUSH3 0x10D JUMPI SWAP2 DUP3 ADD JUMPDEST DUP3 DUP2 GT ISZERO PUSH3 0x10C JUMPI DUP3 MLOAD DUP3 SSTORE SWAP2 PUSH1 0x20 ADD SWAP2 SWAP1 PUSH1 0x1 ADD SWAP1 PUSH3 0xEF JUMP JUMPDEST JUMPDEST POP SWAP1 POP PUSH3 0x11C SWAP2 SWAP1 PUSH3 0x120 JUMP JUMPDEST POP SWAP1 JUMP JUMPDEST PUSH3 0x145 SWAP2 SWAP1 JUMPDEST DUP1 DUP3 GT ISZERO PUSH3 0x141 JUMPI PUSH1 0x0 DUP2 PUSH1 0x0 SWAP1 SSTORE POP PUSH1 0x1 ADD PUSH3 0x127 JUMP JUMPDEST POP SWAP1 JUMP JUMPDEST SWAP1 JUMP JUMPDEST PUSH1 0x0 PUSH3 0x156 DUP3 MLOAD PUSH3 0x291 JUMP JUMPDEST SWAP1 POP SWAP3 SWAP2 POP POP JUMP JUMPDEST PUSH1 0x0 DUP3 PUSH1 0x1F DUP4 ADD SLT ISZERO ISZERO PUSH3 0x172 JUMPI PUSH1 0x0 DUP1 REVERT JUMPDEST DUP2 MLOAD PUSH3 0x189 PUSH3 0x183 DUP3 PUSH3 0x244 JUMP JUMPDEST PUSH3 0x216 JUMP JUMPDEST SWAP2 POP DUP1 DUP3 MSTORE PUSH1 0x20 DUP4 ADD PUSH1 0x20 DUP4 ADD DUP6 DUP4 DUP4 ADD GT ISZERO PUSH3 0x1A6 JUMPI PUSH1 0x0 DUP1 REVERT JUMPDEST PUSH3 0x1B3 DUP4 DUP3 DUP5 PUSH3 0x2A5 JUMP JUMPDEST POP POP POP SWAP3 SWAP2 POP POP JUMP JUMPDEST PUSH1 0x0 DUP1 PUSH1 0x40 DUP4 DUP6 SUB SLT ISZERO PUSH3 0x1D0 JUMPI PUSH1 0x0 DUP1 REVERT JUMPDEST PUSH1 0x0 DUP4 ADD MLOAD PUSH8 0xFFFFFFFFFFFFFFFF DUP2 GT ISZERO PUSH3 0x1EB JUMPI PUSH1 0x0 DUP1 REVERT JUMPDEST PUSH3 0x1F9 DUP6 DUP3 DUP7 ADD PUSH3 0x15E JUMP JUMPDEST SWAP3 POP POP PUSH1 0x20 PUSH3 0x20C DUP6 DUP3 DUP7 ADD PUSH3 0x148 JUMP JUMPDEST SWAP2 POP POP SWAP3 POP SWAP3 SWAP1 POP JUMP JUMPDEST PUSH1 0x0 PUSH1 0x40 MLOAD SWAP1 POP DUP2 DUP2 ADD DUP2 DUP2 LT PUSH8 0xFFFFFFFFFFFFFFFF DUP3 GT OR ISZERO PUSH3 0x23A JUMPI PUSH1 0x0 DUP1 REVERT JUMPDEST DUP1 PUSH1 0x40 MSTORE POP SWAP2 SWAP1 POP JUMP JUMPDEST PUSH1 0x0 PUSH8 0xFFFFFFFFFFFFFFFF DUP3 GT ISZERO PUSH3 0x25C JUMPI PUSH1 0x0 DUP1 REVERT JUMPDEST PUSH1 0x1F NOT PUSH1 0x1F DUP4 ADD AND SWAP1 POP PUSH1 0x20 DUP2 ADD SWAP1 POP SWAP2 SWAP1 POP JUMP JUMPDEST PUSH1 0x0 PUSH20 0xFFFFFFFFFFFFFFFFFFFFFFFFFFFFFFFFFFFFFFFF DUP3 AND SWAP1 POP SWAP2 SWAP1 POP JUMP JUMPDEST PUSH1 0x0 PUSH3 0x29E DUP3 PUSH3 0x271 JUMP JUMPDEST SWAP1 POP SWAP2 SWAP1 POP JUMP JUMPDEST PUSH1 0x0 JUMPDEST DUP4 DUP2 LT ISZERO PUSH3 0x2C5 JUMPI DUP1 DUP3 ADD MLOAD DUP2 DUP5 ADD MSTORE PUSH1 0x20 DUP2 ADD SWAP1 POP PUSH3 0x2A8 JUMP JUMPDEST DUP4 DUP2 GT ISZERO PUSH3 0x2D5 JUMPI PUSH1 0x0 DUP5 DUP5 ADD MSTORE JUMPDEST POP POP POP POP JUMP JUMPDEST PUSH2 0x34ED DUP1 PUSH3 0x2EB PUSH1 0x0 CODECOPY PUSH1 0x0 RETURN INVALID PUSH1 0x80 PUSH1 0x40 MSTORE CALLVALUE DUP1 ISZERO PUSH3 0x11 JUMPI PUSH1 0x0 DUP1 REVERT JUMPDEST POP PUSH1 0x4 CALLDATASIZE LT PUSH3 0x7B JUMPI PUSH1 0x0 CALLDATALOAD PUSH29 0x100000000000000000000000000000000000000000000000000000000 SWAP1 DIV DUP1 PUSH4 0x6FC92E73 EQ PUSH3 0x80 JUMPI DUP1 PUSH4 0x7EC35B0A EQ PUSH3 0xA0 JUMPI DUP1 PUSH4 0x9D55295C EQ PUSH3 0xD6 JUMPI DUP1 PUSH4 0xAE55C888 EQ PUSH3 0xF6 JUMPI DUP1 PUSH4 0xD5278316 EQ PUSH3 0x12F JUMPI JUMPDEST PUSH1 0x0 DUP1 REVERT JUMPDEST PUSH3 0x9E PUSH1 0x4 DUP1 CALLDATASIZE SUB PUSH3 0x98 SWAP2 SWAP1 DUP2 ADD SWAP1 PUSH3 0x1455 JUMP JUMPDEST PUSH3 0x14F JUMP JUMPDEST STOP JUMPDEST PUSH3 0xBE PUSH1 0x4 DUP1 CALLDATASIZE SUB PUSH3 0xB8 SWAP2 SWAP1 DUP2 ADD SWAP1 PUSH3 0x15A9 JUMP JUMPDEST PUSH3 0x430 JUMP JUMPDEST PUSH1 0x40 MLOAD PUSH3 0xCD SWAP2 SWAP1 PUSH3 0x1A73 JUMP JUMPDEST PUSH1 0x40 MLOAD DUP1 SWAP2 SUB SWAP1 RETURN JUMPDEST PUSH3 0xF4 PUSH1 0x4 DUP1 CALLDATASIZE SUB PUSH3 0xEE SWAP2 SWAP1 DUP2 ADD SWAP1 PUSH3 0x16E6 JUMP JUMPDEST PUSH3 0x541 JUMP JUMPDEST STOP JUMPDEST PUSH3 0x114 PUSH1 0x4 DUP1 CALLDATASIZE SUB PUSH3 0x10E SWAP2 SWAP1 DUP2 ADD SWAP1 PUSH3 0x15A9 JUMP JUMPDEST PUSH3 0x8E2 JUMP JUMPDEST PUSH1 0x40 MLOAD PUSH3 0x126 SWAP5 SWAP4 SWAP3 SWAP2 SWAP1 PUSH3 0x1A90 JUMP JUMPDEST PUSH1 0x40 MLOAD DUP1 SWAP2 SUB SWAP1 RETURN JUMPDEST PUSH3 0x14D PUSH1 0x4 DUP1 CALLDATASIZE SUB PUSH3 0x147 SWAP2 SWAP1 DUP2 ADD SWAP1 PUSH3 0x15EE JUMP JUMPDEST PUSH3 0xE98 JUMP JUMPDEST STOP JUMPDEST PUSH1 0x4 PUSH1 0x0 DUP11 PUSH20 0xFFFFFFFFFFFFFFFFFFFFFFFFFFFFFFFFFFFFFFFF AND PUSH20 0xFFFFFFFFFFFFFFFFFFFFFFFFFFFFFFFFFFFFFFFF AND DUP2 MSTORE PUSH1 0x20 ADD SWAP1 DUP2 MSTORE PUSH1 0x20 ADD PUSH1 0x0 KECCAK256 PUSH1 0x0 SWAP1 SLOAD SWAP1 PUSH2 0x100 EXP SWAP1 DIV PUSH1 0xFF AND ISZERO PUSH3 0x424 JUMPI PUSH3 0x1AC PUSH3 0x1175 JUMP JUMPDEST PUSH2 0x180 PUSH1 0x40 MLOAD SWAP1 DUP2 ADD PUSH1 0x40 MSTORE DUP1 DUP13 PUSH20 0xFFFFFFFFFFFFFFFFFFFFFFFFFFFFFFFFFFFFFFFF AND DUP2 MSTORE PUSH1 0x20 ADD DUP12 PUSH20 0xFFFFFFFFFFFFFFFFFFFFFFFFFFFFFFFFFFFFFFFF AND DUP2 MSTORE PUSH1 0x20 ADD DUP11 DUP2 MSTORE PUSH1 0x20 ADD DUP10 DUP2 MSTORE PUSH1 0x20 ADD DUP8 ISZERO ISZERO DUP2 MSTORE PUSH1 0x20 ADD DUP7 ISZERO ISZERO DUP2 MSTORE PUSH1 0x20 ADD DUP9 DUP2 MSTORE PUSH1 0x20 ADD DUP6 DUP2 MSTORE PUSH1 0x20 ADD PUSH1 0x2 DUP1 SLOAD SWAP1 POP DUP2 MSTORE PUSH1 0x20 ADD DUP5 DUP2 MSTORE PUSH1 0x20 ADD DUP4 DUP2 MSTORE PUSH1 0x20 ADD PUSH1 0x0 ISZERO ISZERO DUP2 MSTORE POP SWAP1 POP PUSH1 0x2 DUP2 SWAP1 DUP1 PUSH1 0x1 DUP2 SLOAD ADD DUP1 DUP3 SSTORE DUP1 SWAP2 POP POP SWAP1 PUSH1 0x1 DUP3 SUB SWAP1 PUSH1 0x0 MSTORE PUSH1 0x20 PUSH1 0x0 KECCAK256 SWAP1 PUSH1 0xB MUL ADD PUSH1 0x0 SWAP1 SWAP2 SWAP3 SWAP1 SWAP2 SWAP1 SWAP2 POP PUSH1 0x0 DUP3 ADD MLOAD DUP2 PUSH1 0x0 ADD PUSH1 0x0 PUSH2 0x100 EXP DUP2 SLOAD DUP2 PUSH20 0xFFFFFFFFFFFFFFFFFFFFFFFFFFFFFFFFFFFFFFFF MUL NOT AND SWAP1 DUP4 PUSH20 0xFFFFFFFFFFFFFFFFFFFFFFFFFFFFFFFFFFFFFFFF AND MUL OR SWAP1 SSTORE POP PUSH1 0x20 DUP3 ADD MLOAD DUP2 PUSH1 0x1 ADD PUSH1 0x0 PUSH2 0x100 EXP DUP2 SLOAD DUP2 PUSH20 0xFFFFFFFFFFFFFFFFFFFFFFFFFFFFFFFFFFFFFFFF MUL NOT AND SWAP1 DUP4 PUSH20 0xFFFFFFFFFFFFFFFFFFFFFFFFFFFFFFFFFFFFFFFF AND MUL OR SWAP1 SSTORE POP PUSH1 0x40 DUP3 ADD MLOAD DUP2 PUSH1 0x2 ADD SWAP1 DUP1 MLOAD SWAP1 PUSH1 0x20 ADD SWAP1 PUSH3 0x313 SWAP3 SWAP2 SWAP1 PUSH3 0x1209 JUMP JUMPDEST POP PUSH1 0x60 DUP3 ADD MLOAD DUP2 PUSH1 0x3 ADD SWAP1 DUP1 MLOAD SWAP1 PUSH1 0x20 ADD SWAP1 PUSH3 0x332 SWAP3 SWAP2 SWAP1 PUSH3 0x1209 JUMP JUMPDEST POP PUSH1 0x80 DUP3 ADD MLOAD DUP2 PUSH1 0x4 ADD PUSH1 0x0 PUSH2 0x100 EXP DUP2 SLOAD DUP2 PUSH1 0xFF MUL NOT AND SWAP1 DUP4 ISZERO ISZERO MUL OR SWAP1 SSTORE POP PUSH1 0xA0 DUP3 ADD MLOAD DUP2 PUSH1 0x4 ADD PUSH1 0x1 PUSH2 0x100 EXP DUP2 SLOAD DUP2 PUSH1 0xFF MUL NOT AND SWAP1 DUP4 ISZERO ISZERO MUL OR SWAP1 SSTORE POP PUSH1 0xC0 DUP3 ADD MLOAD DUP2 PUSH1 0x5 ADD SWAP1 DUP1 MLOAD SWAP1 PUSH1 0x20 ADD SWAP1 PUSH3 0x391 SWAP3 SWAP2 SWAP1 PUSH3 0x1209 JUMP JUMPDEST POP PUSH1 0xE0 DUP3 ADD MLOAD DUP2 PUSH1 0x6 ADD SSTORE PUSH2 0x100 DUP3 ADD MLOAD DUP2 PUSH1 0x7 ADD SSTORE PUSH2 0x120 DUP3 ADD MLOAD DUP2 PUSH1 0x8 ADD SSTORE PUSH2 0x140 DUP3 ADD MLOAD DUP2 PUSH1 0x9 ADD SWAP1 DUP1 MLOAD SWAP1 PUSH1 0x20 ADD SWAP1 PUSH3 0x3D1 SWAP3 SWAP2 SWAP1 PUSH3 0x1209 JUMP JUMPDEST POP PUSH2 0x160 DUP3 ADD MLOAD DUP2 PUSH1 0xA ADD PUSH1 0x0 PUSH2 0x100 EXP DUP2 SLOAD DUP2 PUSH1 0xFF MUL NOT AND SWAP1 DUP4 ISZERO ISZERO MUL OR SWAP1 SSTORE POP POP POP POP PUSH32 0x2B94F1E9999FF685F243474C3B8C30563987B8897FECB35C7CEA9AC0F4F5C6BD PUSH1 0x40 MLOAD PUSH1 0x40 MLOAD DUP1 SWAP2 SUB SWAP1 LOG1 POP JUMPDEST POP POP POP POP POP POP POP POP POP POP JUMP JUMPDEST PUSH1 0x0 DUP1 PUSH1 0x40 MLOAD PUSH1 0x20 ADD DUP1 DUP3 DUP1 SLOAD PUSH1 0x1 DUP2 PUSH1 0x1 AND ISZERO PUSH2 0x100 MUL SUB AND PUSH1 0x2 SWAP1 DIV DUP1 ISZERO PUSH3 0x495 JUMPI DUP1 PUSH1 0x1F LT PUSH3 0x472 JUMPI PUSH2 0x100 DUP1 DUP4 SLOAD DIV MUL DUP4 MSTORE SWAP2 DUP3 ADD SWAP2 PUSH3 0x495 JUMP JUMPDEST DUP3 ADD SWAP2 SWAP1 PUSH1 0x0 MSTORE PUSH1 0x20 PUSH1 0x0 KECCAK256 SWAP1 JUMPDEST DUP2 SLOAD DUP2 MSTORE SWAP1 PUSH1 0x1 ADD SWAP1 PUSH1 0x20 ADD DUP1 DUP4 GT PUSH3 0x480 JUMPI JUMPDEST POP POP SWAP2 POP POP PUSH1 0x40 MLOAD PUSH1 0x20 DUP2 DUP4 SUB SUB DUP2 MSTORE SWAP1 PUSH1 0x40 MSTORE DUP1 MLOAD SWAP1 PUSH1 0x20 ADD KECCAK256 DUP3 PUSH1 0x40 MLOAD PUSH1 0x20 ADD DUP1 DUP3 DUP1 MLOAD SWAP1 PUSH1 0x20 ADD SWAP1 DUP1 DUP4 DUP4 JUMPDEST PUSH1 0x20 DUP4 LT ISZERO ISZERO PUSH3 0x4EB JUMPI DUP1 MLOAD DUP3 MSTORE PUSH1 0x20 DUP3 ADD SWAP2 POP PUSH1 0x20 DUP2 ADD SWAP1 POP PUSH1 0x20 DUP4 SUB SWAP3 POP PUSH3 0x4C4 JUMP JUMPDEST PUSH1 0x1 DUP4 PUSH1 0x20 SUB PUSH2 0x100 EXP SUB DUP1 NOT DUP3 MLOAD AND DUP2 DUP5 MLOAD AND DUP1 DUP3 OR DUP6 MSTORE POP POP POP POP POP POP SWAP1 POP ADD SWAP2 POP POP PUSH1 0x40 MLOAD PUSH1 0x20 DUP2 DUP4 SUB SUB DUP2 MSTORE SWAP1 PUSH1 0x40 MSTORE DUP1 MLOAD SWAP1 PUSH1 0x20 ADD KECCAK256 EQ ISZERO PUSH3 0x537 JUMPI PUSH1 0x1 SWAP1 POP PUSH3 0x53C JUMP JUMPDEST PUSH1 0x0 SWAP1 POP JUMPDEST SWAP2 SWAP1 POP JUMP JUMPDEST PUSH1 0x1 PUSH1 0x0 SWAP1 SLOAD SWAP1 PUSH2 0x100 EXP SWAP1 DIV PUSH20 0xFFFFFFFFFFFFFFFFFFFFFFFFFFFFFFFFFFFFFFFF AND PUSH20 0xFFFFFFFFFFFFFFFFFFFFFFFFFFFFFFFFFFFFFFFF AND CALLER PUSH20 0xFFFFFFFFFFFFFFFFFFFFFFFFFFFFFFFFFFFFFFFF AND EQ ISZERO PUSH3 0x8DE JUMPI PUSH1 0x1 ISZERO ISZERO DUP2 ISZERO ISZERO EQ ISZERO PUSH3 0x744 JUMPI PUSH1 0x0 PUSH1 0x2 DUP4 DUP2 SLOAD DUP2 LT ISZERO ISZERO PUSH3 0x5B8 JUMPI INVALID JUMPDEST SWAP1 PUSH1 0x0 MSTORE PUSH1 0x20 PUSH1 0x0 KECCAK256 SWAP1 PUSH1 0xB MUL ADD PUSH1 0x1 ADD PUSH1 0x0 SWAP1 SLOAD SWAP1 PUSH2 0x100 EXP SWAP1 DIV PUSH20 0xFFFFFFFFFFFFFFFFFFFFFFFFFFFFFFFFFFFFFFFF AND SWAP1 POP DUP1 PUSH20 0xFFFFFFFFFFFFFFFFFFFFFFFFFFFFFFFFFFFFFFFF AND PUSH4 0x72102D18 PUSH1 0x2 DUP6 DUP2 SLOAD DUP2 LT ISZERO ISZERO PUSH3 0x618 JUMPI INVALID JUMPDEST SWAP1 PUSH1 0x0 MSTORE PUSH1 0x20 PUSH1 0x0 KECCAK256 SWAP1 PUSH1 0xB MUL ADD PUSH1 0x6 ADD SLOAD ADDRESS PUSH1 0x1 PUSH1 0x40 MLOAD DUP5 PUSH4 0xFFFFFFFF AND PUSH29 0x100000000000000000000000000000000000000000000000000000000 MUL DUP2 MSTORE PUSH1 0x4 ADD PUSH3 0x669 SWAP4 SWAP3 SWAP2 SWAP1 PUSH3 0x1B38 JUMP JUMPDEST PUSH1 0x0 PUSH1 0x40 MLOAD DUP1 DUP4 SUB DUP2 PUSH1 0x0 DUP8 DUP1 EXTCODESIZE ISZERO DUP1 ISZERO PUSH3 0x684 JUMPI PUSH1 0x0 DUP1 REVERT JUMPDEST POP GAS CALL ISZERO DUP1 ISZERO PUSH3 0x699 JUMPI RETURNDATASIZE PUSH1 0x0 DUP1 RETURNDATACOPY RETURNDATASIZE PUSH1 0x0 REVERT JUMPDEST POP POP POP POP PUSH1 0x1 PUSH1 0x2 DUP5 DUP2 SLOAD DUP2 LT ISZERO ISZERO PUSH3 0x6AF JUMPI INVALID JUMPDEST SWAP1 PUSH1 0x0 MSTORE PUSH1 0x20 PUSH1 0x0 KECCAK256 SWAP1 PUSH1 0xB MUL ADD PUSH1 0x4 ADD PUSH1 0x1 PUSH2 0x100 EXP DUP2 SLOAD DUP2 PUSH1 0xFF MUL NOT AND SWAP1 DUP4 ISZERO ISZERO MUL OR SWAP1 SSTORE POP PUSH1 0x1 PUSH1 0x2 DUP5 DUP2 SLOAD DUP2 LT ISZERO ISZERO PUSH3 0x6E9 JUMPI INVALID JUMPDEST SWAP1 PUSH1 0x0 MSTORE PUSH1 0x20 PUSH1 0x0 KECCAK256 SWAP1 PUSH1 0xB MUL ADD PUSH1 0xA ADD PUSH1 0x0 PUSH2 0x100 EXP DUP2 SLOAD DUP2 PUSH1 0xFF MUL NOT AND SWAP1 DUP4 ISZERO ISZERO MUL OR SWAP1 SSTORE POP PUSH32 0x2B94F1E9999FF685F243474C3B8C30563987B8897FECB35C7CEA9AC0F4F5C6BD PUSH1 0x40 MLOAD PUSH1 0x40 MLOAD DUP1 SWAP2 SUB SWAP1 LOG1 POP PUSH3 0x8DD JUMP JUMPDEST PUSH1 0x0 PUSH1 0x2 DUP4 DUP2 SLOAD DUP2 LT ISZERO ISZERO PUSH3 0x756 JUMPI INVALID JUMPDEST SWAP1 PUSH1 0x0 MSTORE PUSH1 0x20 PUSH1 0x0 KECCAK256 SWAP1 PUSH1 0xB MUL ADD PUSH1 0x1 ADD PUSH1 0x0 SWAP1 SLOAD SWAP1 PUSH2 0x100 EXP SWAP1 DIV PUSH20 0xFFFFFFFFFFFFFFFFFFFFFFFFFFFFFFFFFFFFFFFF AND SWAP1 POP DUP1 PUSH20 0xFFFFFFFFFFFFFFFFFFFFFFFFFFFFFFFFFFFFFFFF AND PUSH4 0x72102D18 PUSH1 0x2 DUP6 DUP2 SLOAD DUP2 LT ISZERO ISZERO PUSH3 0x7B6 JUMPI INVALID JUMPDEST SWAP1 PUSH1 0x0 MSTORE PUSH1 0x20 PUSH1 0x0 KECCAK256 SWAP1 PUSH1 0xB MUL ADD PUSH1 0x6 ADD SLOAD ADDRESS PUSH1 0x0 PUSH1 0x40 MLOAD DUP5 PUSH4 0xFFFFFFFF AND PUSH29 0x100000000000000000000000000000000000000000000000000000000 MUL DUP2 MSTORE PUSH1 0x4 ADD PUSH3 0x807 SWAP4 SWAP3 SWAP2 SWAP1 PUSH3 0x1B38 JUMP JUMPDEST PUSH1 0x0 PUSH1 0x40 MLOAD DUP1 DUP4 SUB DUP2 PUSH1 0x0 DUP8 DUP1 EXTCODESIZE ISZERO DUP1 ISZERO PUSH3 0x822 JUMPI PUSH1 0x0 DUP1 REVERT JUMPDEST POP GAS CALL ISZERO DUP1 ISZERO PUSH3 0x837 JUMPI RETURNDATASIZE PUSH1 0x0 DUP1 RETURNDATACOPY RETURNDATASIZE PUSH1 0x0 REVERT JUMPDEST POP POP POP POP PUSH1 0x0 PUSH1 0x2 DUP5 DUP2 SLOAD DUP2 LT ISZERO ISZERO PUSH3 0x84D JUMPI INVALID JUMPDEST SWAP1 PUSH1 0x0 MSTORE PUSH1 0x20 PUSH1 0x0 KECCAK256 SWAP1 PUSH1 0xB MUL ADD PUSH1 0x4 ADD PUSH1 0x1 PUSH2 0x100 EXP DUP2 SLOAD DUP2 PUSH1 0xFF MUL NOT AND SWAP1 DUP4 ISZERO ISZERO MUL OR SWAP1 SSTORE POP PUSH1 0x1 PUSH1 0x2 DUP5 DUP2 SLOAD DUP2 LT ISZERO ISZERO PUSH3 0x887 JUMPI INVALID JUMPDEST SWAP1 PUSH1 0x0 MSTORE PUSH1 0x20 PUSH1 0x0 KECCAK256 SWAP1 PUSH1 0xB MUL ADD PUSH1 0xA ADD PUSH1 0x0 PUSH2 0x100 EXP DUP2 SLOAD DUP2 PUSH1 0xFF MUL NOT AND SWAP1 DUP4 ISZERO ISZERO MUL OR SWAP1 SSTORE POP PUSH32 0x2B94F1E9999FF685F243474C3B8C30563987B8897FECB35C7CEA9AC0F4F5C6BD PUSH1 0x40 MLOAD PUSH1 0x40 MLOAD DUP1 SWAP2 SUB SWAP1 LOG1 POP JUMPDEST JUMPDEST POP POP JUMP JUMPDEST PUSH1 0x0 PUSH1 0x60 DUP1 PUSH1 0x0 PUSH1 0x1 PUSH1 0x0 SWAP1 SLOAD SWAP1 PUSH2 0x100 EXP SWAP1 DIV PUSH20 0xFFFFFFFFFFFFFFFFFFFFFFFFFFFFFFFFFFFFFFFF AND PUSH20 0xFFFFFFFFFFFFFFFFFFFFFFFFFFFFFFFFFFFFFFFF AND CALLER PUSH20 0xFFFFFFFFFFFFFFFFFFFFFFFFFFFFFFFFFFFFFFFF AND EQ DUP1 ISZERO PUSH3 0x94E JUMPI POP PUSH3 0x94D DUP6 PUSH3 0x430 JUMP JUMPDEST JUMPDEST ISZERO PUSH3 0xE03 JUMPI PUSH1 0x1 PUSH1 0x3 PUSH1 0x2 ADDRESS DUP3 DUP1 SLOAD DUP1 PUSH1 0x20 MUL PUSH1 0x20 ADD PUSH1 0x40 MLOAD SWAP1 DUP2 ADD PUSH1 0x40 MSTORE DUP1 SWAP3 SWAP2 SWAP1 DUP2 DUP2 MSTORE PUSH1 0x20 ADD DUP3 DUP1 SLOAD DUP1 ISZERO PUSH3 0x9DE JUMPI PUSH1 0x20 MUL DUP3 ADD SWAP2 SWAP1 PUSH1 0x0 MSTORE PUSH1 0x20 PUSH1 0x0 KECCAK256 SWAP1 JUMPDEST DUP2 PUSH1 0x0 SWAP1 SLOAD SWAP1 PUSH2 0x100 EXP SWAP1 DIV PUSH20 0xFFFFFFFFFFFFFFFFFFFFFFFFFFFFFFFFFFFFFFFF AND PUSH20 0xFFFFFFFFFFFFFFFFFFFFFFFFFFFFFFFFFFFFFFFF AND DUP2 MSTORE PUSH1 0x20 ADD SWAP1 PUSH1 0x1 ADD SWAP1 DUP1 DUP4 GT PUSH3 0x993 JUMPI JUMPDEST POP POP POP POP POP SWAP3 POP DUP2 DUP1 SLOAD DUP1 PUSH1 0x20 MUL PUSH1 0x20 ADD PUSH1 0x40 MLOAD SWAP1 DUP2 ADD PUSH1 0x40 MSTORE DUP1 SWAP3 SWAP2 SWAP1 DUP2 DUP2 MSTORE PUSH1 0x20 ADD PUSH1 0x0 SWAP1 JUMPDEST DUP3 DUP3 LT ISZERO PUSH3 0xDEF JUMPI DUP4 DUP3 SWAP1 PUSH1 0x0 MSTORE PUSH1 0x20 PUSH1 0x0 KECCAK256 SWAP1 PUSH1 0xB MUL ADD PUSH2 0x180 PUSH1 0x40 MLOAD SWAP1 DUP2 ADD PUSH1 0x40 MSTORE SWAP1 DUP2 PUSH1 0x0 DUP3 ADD PUSH1 0x0 SWAP1 SLOAD SWAP1 PUSH2 0x100 EXP SWAP1 DIV PUSH20 0xFFFFFFFFFFFFFFFFFFFFFFFFFFFFFFFFFFFFFFFF AND PUSH20 0xFFFFFFFFFFFFFFFFFFFFFFFFFFFFFFFFFFFFFFFF AND PUSH20 0xFFFFFFFFFFFFFFFFFFFFFFFFFFFFFFFFFFFFFFFF AND DUP2 MSTORE PUSH1 0x20 ADD PUSH1 0x1 DUP3 ADD PUSH1 0x0 SWAP1 SLOAD SWAP1 PUSH2 0x100 EXP SWAP1 DIV PUSH20 0xFFFFFFFFFFFFFFFFFFFFFFFFFFFFFFFFFFFFFFFF AND PUSH20 0xFFFFFFFFFFFFFFFFFFFFFFFFFFFFFFFFFFFFFFFF AND PUSH20 0xFFFFFFFFFFFFFFFFFFFFFFFFFFFFFFFFFFFFFFFF AND DUP2 MSTORE PUSH1 0x20 ADD PUSH1 0x2 DUP3 ADD DUP1 SLOAD PUSH1 0x1 DUP2 PUSH1 0x1 AND ISZERO PUSH2 0x100 MUL SUB AND PUSH1 0x2 SWAP1 DIV DUP1 PUSH1 0x1F ADD PUSH1 0x20 DUP1 SWAP2 DIV MUL PUSH1 0x20 ADD PUSH1 0x40 MLOAD SWAP1 DUP2 ADD PUSH1 0x40 MSTORE DUP1 SWAP3 SWAP2 SWAP1 DUP2 DUP2 MSTORE PUSH1 0x20 ADD DUP3 DUP1 SLOAD PUSH1 0x1 DUP2 PUSH1 0x1 AND ISZERO PUSH2 0x100 MUL SUB AND PUSH1 0x2 SWAP1 DIV DUP1 ISZERO PUSH3 0xB75 JUMPI DUP1 PUSH1 0x1F LT PUSH3 0xB49 JUMPI PUSH2 0x100 DUP1 DUP4 SLOAD DIV MUL DUP4 MSTORE SWAP2 PUSH1 0x20 ADD SWAP2 PUSH3 0xB75 JUMP JUMPDEST DUP3 ADD SWAP2 SWAP1 PUSH1 0x0 MSTORE PUSH1 0x20 PUSH1 0x0 KECCAK256 SWAP1 JUMPDEST DUP2 SLOAD DUP2 MSTORE SWAP1 PUSH1 0x1 ADD SWAP1 PUSH1 0x20 ADD DUP1 DUP4 GT PUSH3 0xB57 JUMPI DUP3 SWAP1 SUB PUSH1 0x1F AND DUP3 ADD SWAP2 JUMPDEST POP POP POP POP POP DUP2 MSTORE PUSH1 0x20 ADD PUSH1 0x3 DUP3 ADD DUP1 SLOAD PUSH1 0x1 DUP2 PUSH1 0x1 AND ISZERO PUSH2 0x100 MUL SUB AND PUSH1 0x2 SWAP1 DIV DUP1 PUSH1 0x1F ADD PUSH1 0x20 DUP1 SWAP2 DIV MUL PUSH1 0x20 ADD PUSH1 0x40 MLOAD SWAP1 DUP2 ADD PUSH1 0x40 MSTORE DUP1 SWAP3 SWAP2 SWAP1 DUP2 DUP2 MSTORE PUSH1 0x20 ADD DUP3 DUP1 SLOAD PUSH1 0x1 DUP2 PUSH1 0x1 AND ISZERO PUSH2 0x100 MUL SUB AND PUSH1 0x2 SWAP1 DIV DUP1 ISZERO PUSH3 0xC1B JUMPI DUP1 PUSH1 0x1F LT PUSH3 0xBEF JUMPI PUSH2 0x100 DUP1 DUP4 SLOAD DIV MUL DUP4 MSTORE SWAP2 PUSH1 0x20 ADD SWAP2 PUSH3 0xC1B JUMP JUMPDEST DUP3 ADD SWAP2 SWAP1 PUSH1 0x0 MSTORE PUSH1 0x20 PUSH1 0x0 KECCAK256 SWAP1 JUMPDEST DUP2 SLOAD DUP2 MSTORE SWAP1 PUSH1 0x1 ADD SWAP1 PUSH1 0x20 ADD DUP1 DUP4 GT PUSH3 0xBFD JUMPI DUP3 SWAP1 SUB PUSH1 0x1F AND DUP3 ADD SWAP2 JUMPDEST POP POP POP POP POP DUP2 MSTORE PUSH1 0x20 ADD PUSH1 0x4 DUP3 ADD PUSH1 0x0 SWAP1 SLOAD SWAP1 PUSH2 0x100 EXP SWAP1 DIV PUSH1 0xFF AND ISZERO ISZERO ISZERO ISZERO DUP2 MSTORE PUSH1 0x20 ADD PUSH1 0x4 DUP3 ADD PUSH1 0x1 SWAP1 SLOAD SWAP1 PUSH2 0x100 EXP SWAP1 DIV PUSH1 0xFF AND ISZERO ISZERO ISZERO ISZERO DUP2 MSTORE PUSH1 0x20 ADD PUSH1 0x5 DUP3 ADD DUP1 SLOAD PUSH1 0x1 DUP2 PUSH1 0x1 AND ISZERO PUSH2 0x100 MUL SUB AND PUSH1 0x2 SWAP1 DIV DUP1 PUSH1 0x1F ADD PUSH1 0x20 DUP1 SWAP2 DIV MUL PUSH1 0x20 ADD PUSH1 0x40 MLOAD SWAP1 DUP2 ADD PUSH1 0x40 MSTORE DUP1 SWAP3 SWAP2 SWAP1 DUP2 DUP2 MSTORE PUSH1 0x20 ADD DUP3 DUP1 SLOAD PUSH1 0x1 DUP2 PUSH1 0x1 AND ISZERO PUSH2 0x100 MUL SUB AND PUSH1 0x2 SWAP1 DIV DUP1 ISZERO PUSH3 0xCF7 JUMPI DUP1 PUSH1 0x1F LT PUSH3 0xCCB JUMPI PUSH2 0x100 DUP1 DUP4 SLOAD DIV MUL DUP4 MSTORE SWAP2 PUSH1 0x20 ADD SWAP2 PUSH3 0xCF7 JUMP JUMPDEST DUP3 ADD SWAP2 SWAP1 PUSH1 0x0 MSTORE PUSH1 0x20 PUSH1 0x0 KECCAK256 SWAP1 JUMPDEST DUP2 SLOAD DUP2 MSTORE SWAP1 PUSH1 0x1 ADD SWAP1 PUSH1 0x20 ADD DUP1 DUP4 GT PUSH3 0xCD9 JUMPI DUP3 SWAP1 SUB PUSH1 0x1F AND DUP3 ADD SWAP2 JUMPDEST POP POP POP POP POP DUP2 MSTORE PUSH1 0x20 ADD PUSH1 0x6 DUP3 ADD SLOAD DUP2 MSTORE PUSH1 0x20 ADD PUSH1 0x7 DUP3 ADD SLOAD DUP2 MSTORE PUSH1 0x20 ADD PUSH1 0x8 DUP3 ADD SLOAD DUP2 MSTORE PUSH1 0x20 ADD PUSH1 0x9 DUP3 ADD DUP1 SLOAD PUSH1 0x1 DUP2 PUSH1 0x1 AND ISZERO PUSH2 0x100 MUL SUB AND PUSH1 0x2 SWAP1 DIV DUP1 PUSH1 0x1F ADD PUSH1 0x20 DUP1 SWAP2 DIV MUL PUSH1 0x20 ADD PUSH1 0x40 MLOAD SWAP1 DUP2 ADD PUSH1 0x40 MSTORE DUP1 SWAP3 SWAP2 SWAP1 DUP2 DUP2 MSTORE PUSH1 0x20 ADD DUP3 DUP1 SLOAD PUSH1 0x1 DUP2 PUSH1 0x1 AND ISZERO PUSH2 0x100 MUL SUB AND PUSH1 0x2 SWAP1 DIV DUP1 ISZERO PUSH3 0xDBB JUMPI DUP1 PUSH1 0x1F LT PUSH3 0xD8F JUMPI PUSH2 0x100 DUP1 DUP4 SLOAD DIV MUL DUP4 MSTORE SWAP2 PUSH1 0x20 ADD SWAP2 PUSH3 0xDBB JUMP JUMPDEST DUP3 ADD SWAP2 SWAP1 PUSH1 0x0 MSTORE PUSH1 0x20 PUSH1 0x0 KECCAK256 SWAP1 JUMPDEST DUP2 SLOAD DUP2 MSTORE SWAP1 PUSH1 0x1 ADD SWAP1 PUSH1 0x20 ADD DUP1 DUP4 GT PUSH3 0xD9D JUMPI DUP3 SWAP1 SUB PUSH1 0x1F AND DUP3 ADD SWAP2 JUMPDEST POP POP POP POP POP DUP2 MSTORE PUSH1 0x20 ADD PUSH1 0xA DUP3 ADD PUSH1 0x0 SWAP1 SLOAD SWAP1 PUSH2 0x100 EXP SWAP1 DIV PUSH1 0xFF AND ISZERO ISZERO ISZERO ISZERO DUP2 MSTORE POP POP DUP2 MSTORE PUSH1 0x20 ADD SWAP1 PUSH1 0x1 ADD SWAP1 PUSH3 0xA06 JUMP JUMPDEST POP POP POP POP SWAP2 POP SWAP4 POP SWAP4 POP SWAP4 POP SWAP4 POP PUSH3 0xE91 JUMP JUMPDEST PUSH1 0x60 PUSH1 0x1 PUSH1 0x40 MLOAD SWAP1 DUP1 DUP3 MSTORE DUP1 PUSH1 0x20 MUL PUSH1 0x20 ADD DUP3 ADD PUSH1 0x40 MSTORE DUP1 ISZERO PUSH3 0xE36 JUMPI DUP2 PUSH1 0x20 ADD PUSH1 0x20 DUP3 MUL DUP1 CODESIZE DUP4 CODECOPY DUP1 DUP3 ADD SWAP2 POP POP SWAP1 POP JUMPDEST POP SWAP1 POP PUSH1 0x60 PUSH1 0x1 PUSH1 0x40 MLOAD SWAP1 DUP1 DUP3 MSTORE DUP1 PUSH1 0x20 MUL PUSH1 0x20 ADD DUP3 ADD PUSH1 0x40 MSTORE DUP1 ISZERO PUSH3 0xE7A JUMPI DUP2 PUSH1 0x20 ADD JUMPDEST PUSH3 0xE66 PUSH3 0x1290 JUMP JUMPDEST DUP2 MSTORE PUSH1 0x20 ADD SWAP1 PUSH1 0x1 SWAP1 SUB SWAP1 DUP2 PUSH3 0xE5C JUMPI SWAP1 POP JUMPDEST POP SWAP1 POP PUSH1 0x0 DUP3 DUP3 PUSH1 0x0 DUP1 SWAP1 POP SWAP6 POP SWAP6 POP SWAP6 POP SWAP6 POP POP POP JUMPDEST SWAP2 SWAP4 POP SWAP2 SWAP4 JUMP JUMPDEST PUSH1 0x1 PUSH1 0x0 SWAP1 SLOAD SWAP1 PUSH2 0x100 EXP SWAP1 DIV PUSH20 0xFFFFFFFFFFFFFFFFFFFFFFFFFFFFFFFFFFFFFFFF AND PUSH20 0xFFFFFFFFFFFFFFFFFFFFFFFFFFFFFFFFFFFFFFFF AND CALLER PUSH20 0xFFFFFFFFFFFFFFFFFFFFFFFFFFFFFFFFFFFFFFFF AND EQ ISZERO PUSH3 0x116C JUMPI PUSH1 0x0 ADDRESS DUP9 DUP9 DUP9 DUP9 DUP9 PUSH3 0xF01 PUSH3 0x1324 JUMP JUMPDEST PUSH3 0xF12 SWAP7 SWAP6 SWAP5 SWAP4 SWAP3 SWAP2 SWAP1 PUSH3 0x19F1 JUMP JUMPDEST PUSH1 0x40 MLOAD DUP1 SWAP2 SUB SWAP1 PUSH1 0x0 CREATE DUP1 ISZERO DUP1 ISZERO PUSH3 0xF2F JUMPI RETURNDATASIZE PUSH1 0x0 DUP1 RETURNDATACOPY RETURNDATASIZE PUSH1 0x0 REVERT JUMPDEST POP SWAP1 POP PUSH1 0x3 DUP2 SWAP1 DUP1 PUSH1 0x1 DUP2 SLOAD ADD DUP1 DUP3 SSTORE DUP1 SWAP2 POP POP SWAP1 PUSH1 0x1 DUP3 SUB SWAP1 PUSH1 0x0 MSTORE PUSH1 0x20 PUSH1 0x0 KECCAK256 ADD PUSH1 0x0 SWAP1 SWAP2 SWAP3 SWAP1 SWAP2 SWAP1 SWAP2 PUSH2 0x100 EXP DUP2 SLOAD DUP2 PUSH20 0xFFFFFFFFFFFFFFFFFFFFFFFFFFFFFFFFFFFFFFFF MUL NOT AND SWAP1 DUP4 PUSH20 0xFFFFFFFFFFFFFFFFFFFFFFFFFFFFFFFFFFFFFFFF AND MUL OR SWAP1 SSTORE POP POP PUSH1 0x1 PUSH1 0x4 PUSH1 0x0 DUP4 PUSH20 0xFFFFFFFFFFFFFFFFFFFFFFFFFFFFFFFFFFFFFFFF AND PUSH20 0xFFFFFFFFFFFFFFFFFFFFFFFFFFFFFFFFFFFFFFFF AND DUP2 MSTORE PUSH1 0x20 ADD SWAP1 DUP2 MSTORE PUSH1 0x20 ADD PUSH1 0x0 KECCAK256 PUSH1 0x0 PUSH2 0x100 EXP DUP2 SLOAD DUP2 PUSH1 0xFF MUL NOT AND SWAP1 DUP4 ISZERO ISZERO MUL OR SWAP1 SSTORE POP PUSH1 0x0 PUSH20 0x34E524E35A165C5D829B2985EADDE75562ED15C SWAP1 POP PUSH1 0x0 DUP2 PUSH20 0xFFFFFFFFFFFFFFFFFFFFFFFFFFFFFFFFFFFFFFFF AND PUSH4 0xDE96B851 PUSH1 0x40 MLOAD DUP2 PUSH4 0xFFFFFFFF AND PUSH29 0x100000000000000000000000000000000000000000000000000000000 MUL DUP2 MSTORE PUSH1 0x4 ADD PUSH1 0x20 PUSH1 0x40 MLOAD DUP1 DUP4 SUB DUP2 DUP7 DUP1 EXTCODESIZE ISZERO DUP1 ISZERO PUSH3 0x106E JUMPI PUSH1 0x0 DUP1 REVERT JUMPDEST POP GAS STATICCALL ISZERO DUP1 ISZERO PUSH3 0x1083 JUMPI RETURNDATASIZE PUSH1 0x0 DUP1 RETURNDATACOPY RETURNDATASIZE PUSH1 0x0 REVERT JUMPDEST POP POP POP POP PUSH1 0x40 MLOAD RETURNDATASIZE PUSH1 0x1F NOT PUSH1 0x1F DUP3 ADD AND DUP3 ADD DUP1 PUSH1 0x40 MSTORE POP PUSH3 0x10A9 SWAP2 SWAP1 DUP2 ADD SWAP1 PUSH3 0x1429 JUMP JUMPDEST SWAP1 POP DUP1 PUSH20 0xFFFFFFFFFFFFFFFFFFFFFFFFFFFFFFFFFFFFFFFF AND PUSH4 0x4ABEED14 DUP7 DUP6 DUP13 DUP9 PUSH1 0x40 MLOAD DUP6 PUSH4 0xFFFFFFFF AND PUSH29 0x100000000000000000000000000000000000000000000000000000000 MUL DUP2 MSTORE PUSH1 0x4 ADD PUSH3 0x1108 SWAP5 SWAP4 SWAP3 SWAP2 SWAP1 PUSH3 0x1AEB JUMP JUMPDEST PUSH1 0x0 PUSH1 0x40 MLOAD DUP1 DUP4 SUB DUP2 PUSH1 0x0 DUP8 DUP1 EXTCODESIZE ISZERO DUP1 ISZERO PUSH3 0x1123 JUMPI PUSH1 0x0 DUP1 REVERT JUMPDEST POP GAS CALL ISZERO DUP1 ISZERO PUSH3 0x1138 JUMPI RETURNDATASIZE PUSH1 0x0 DUP1 RETURNDATACOPY RETURNDATASIZE PUSH1 0x0 REVERT JUMPDEST POP POP POP POP PUSH32 0x2B94F1E9999FF685F243474C3B8C30563987B8897FECB35C7CEA9AC0F4F5C6BD PUSH1 0x40 MLOAD PUSH1 0x40 MLOAD DUP1 SWAP2 SUB SWAP1 LOG1 POP POP POP JUMPDEST POP POP POP POP POP POP POP JUMP JUMPDEST PUSH2 0x180 PUSH1 0x40 MLOAD SWAP1 DUP2 ADD PUSH1 0x40 MSTORE DUP1 PUSH1 0x0 PUSH20 0xFFFFFFFFFFFFFFFFFFFFFFFFFFFFFFFFFFFFFFFF AND DUP2 MSTORE PUSH1 0x20 ADD PUSH1 0x0 PUSH20 0xFFFFFFFFFFFFFFFFFFFFFFFFFFFFFFFFFFFFFFFF AND DUP2 MSTORE PUSH1 0x20 ADD PUSH1 0x60 DUP2 MSTORE PUSH1 0x20 ADD PUSH1 0x60 DUP2 MSTORE PUSH1 0x20 ADD PUSH1 0x0 ISZERO ISZERO DUP2 MSTORE PUSH1 0x20 ADD PUSH1 0x0 ISZERO ISZERO DUP2 MSTORE PUSH1 0x20 ADD PUSH1 0x60 DUP2 MSTORE PUSH1 0x20 ADD PUSH1 0x0 DUP2 MSTORE PUSH1 0x20 ADD PUSH1 0x0 DUP2 MSTORE PUSH1 0x20 ADD PUSH1 0x0 DUP2 MSTORE PUSH1 0x20 ADD PUSH1 0x60 DUP2 MSTORE PUSH1 0x20 ADD PUSH1 0x0 ISZERO ISZERO DUP2 MSTORE POP SWAP1 JUMP JUMPDEST DUP3 DUP1 SLOAD PUSH1 0x1 DUP2 PUSH1 0x1 AND ISZERO PUSH2 0x100 MUL SUB AND PUSH1 0x2 SWAP1 DIV SWAP1 PUSH1 0x0 MSTORE PUSH1 0x20 PUSH1 0x0 KECCAK256 SWAP1 PUSH1 0x1F ADD PUSH1 0x20 SWAP1 DIV DUP2 ADD SWAP3 DUP3 PUSH1 0x1F LT PUSH3 0x124C JUMPI DUP1 MLOAD PUSH1 0xFF NOT AND DUP4 DUP1 ADD OR DUP6 SSTORE PUSH3 0x127D JUMP JUMPDEST DUP3 DUP1 ADD PUSH1 0x1 ADD DUP6 SSTORE DUP3 ISZERO PUSH3 0x127D JUMPI SWAP2 DUP3 ADD JUMPDEST DUP3 DUP2 GT ISZERO PUSH3 0x127C JUMPI DUP3 MLOAD DUP3 SSTORE SWAP2 PUSH1 0x20 ADD SWAP2 SWAP1 PUSH1 0x1 ADD SWAP1 PUSH3 0x125F JUMP JUMPDEST JUMPDEST POP SWAP1 POP PUSH3 0x128C SWAP2 SWAP1 PUSH3 0x1335 JUMP JUMPDEST POP SWAP1 JUMP JUMPDEST PUSH2 0x180 PUSH1 0x40 MLOAD SWAP1 DUP2 ADD PUSH1 0x40 MSTORE DUP1 PUSH1 0x0 PUSH20 0xFFFFFFFFFFFFFFFFFFFFFFFFFFFFFFFFFFFFFFFF AND DUP2 MSTORE PUSH1 0x20 ADD PUSH1 0x0 PUSH20 0xFFFFFFFFFFFFFFFFFFFFFFFFFFFFFFFFFFFFFFFF AND DUP2 MSTORE PUSH1 0x20 ADD PUSH1 0x60 DUP2 MSTORE PUSH1 0x20 ADD PUSH1 0x60 DUP2 MSTORE PUSH1 0x20 ADD PUSH1 0x0 ISZERO ISZERO DUP2 MSTORE PUSH1 0x20 ADD PUSH1 0x0 ISZERO ISZERO DUP2 MSTORE PUSH1 0x20 ADD PUSH1 0x60 DUP2 MSTORE PUSH1 0x20 ADD PUSH1 0x0 DUP2 MSTORE PUSH1 0x20 ADD PUSH1 0x0 DUP2 MSTORE PUSH1 0x20 ADD PUSH1 0x0 DUP2 MSTORE PUSH1 0x20 ADD PUSH1 0x60 DUP2 MSTORE PUSH1 0x20 ADD PUSH1 0x0 ISZERO ISZERO DUP2 MSTORE POP SWAP1 JUMP JUMPDEST PUSH1 0x40 MLOAD PUSH2 0x17A5 DUP1 PUSH3 0x1D0F DUP4 CODECOPY ADD SWAP1 JUMP JUMPDEST PUSH3 0x135A SWAP2 SWAP1 JUMPDEST DUP1 DUP3 GT ISZERO PUSH3 0x1356 JUMPI PUSH1 0x0 DUP2 PUSH1 0x0 SWAP1 SSTORE POP PUSH1 0x1 ADD PUSH3 0x133C JUMP JUMPDEST POP SWAP1 JUMP JUMPDEST SWAP1 JUMP JUMPDEST PUSH1 0x0 PUSH3 0x136B DUP3 CALLDATALOAD PUSH3 0x1C84 JUMP JUMPDEST SWAP1 POP SWAP3 SWAP2 POP POP JUMP JUMPDEST PUSH1 0x0 PUSH3 0x1381 DUP3 MLOAD PUSH3 0x1C84 JUMP JUMPDEST SWAP1 POP SWAP3 SWAP2 POP POP JUMP JUMPDEST PUSH1 0x0 PUSH3 0x1397 DUP3 CALLDATALOAD PUSH3 0x1C98 JUMP JUMPDEST SWAP1 POP SWAP3 SWAP2 POP POP JUMP JUMPDEST PUSH1 0x0 PUSH3 0x13AD DUP3 CALLDATALOAD PUSH3 0x1CA4 JUMP JUMPDEST SWAP1 POP SWAP3 SWAP2 POP POP JUMP JUMPDEST PUSH1 0x0 DUP3 PUSH1 0x1F DUP4 ADD SLT ISZERO ISZERO PUSH3 0x13C9 JUMPI PUSH1 0x0 DUP1 REVERT JUMPDEST DUP2 CALLDATALOAD PUSH3 0x13E0 PUSH3 0x13DA DUP3 PUSH3 0x1BA3 JUMP JUMPDEST PUSH3 0x1B75 JUMP JUMPDEST SWAP2 POP DUP1 DUP3 MSTORE PUSH1 0x20 DUP4 ADD PUSH1 0x20 DUP4 ADD DUP6 DUP4 DUP4 ADD GT ISZERO PUSH3 0x13FD JUMPI PUSH1 0x0 DUP1 REVERT JUMPDEST PUSH3 0x140A DUP4 DUP3 DUP5 PUSH3 0x1CB8 JUMP JUMPDEST POP POP POP SWAP3 SWAP2 POP POP JUMP JUMPDEST PUSH1 0x0 PUSH3 0x1421 DUP3 CALLDATALOAD PUSH3 0x1CAE JUMP JUMPDEST SWAP1 POP SWAP3 SWAP2 POP POP JUMP JUMPDEST PUSH1 0x0 PUSH1 0x20 DUP3 DUP5 SUB SLT ISZERO PUSH3 0x143C JUMPI PUSH1 0x0 DUP1 REVERT JUMPDEST PUSH1 0x0 PUSH3 0x144C DUP5 DUP3 DUP6 ADD PUSH3 0x1373 JUMP JUMPDEST SWAP2 POP POP SWAP3 SWAP2 POP POP JUMP JUMPDEST PUSH1 0x0 DUP1 PUSH1 0x0 DUP1 PUSH1 0x0 DUP1 PUSH1 0x0 DUP1 PUSH1 0x0 DUP1 PUSH2 0x140 DUP12 DUP14 SUB SLT ISZERO PUSH3 0x1476 JUMPI PUSH1 0x0 DUP1 REVERT JUMPDEST PUSH1 0x0 PUSH3 0x1486 DUP14 DUP3 DUP15 ADD PUSH3 0x135D JUMP JUMPDEST SWAP11 POP POP PUSH1 0x20 PUSH3 0x1499 DUP14 DUP3 DUP15 ADD PUSH3 0x135D JUMP JUMPDEST SWAP10 POP POP PUSH1 0x40 DUP12 ADD CALLDATALOAD PUSH8 0xFFFFFFFFFFFFFFFF DUP2 GT ISZERO PUSH3 0x14B7 JUMPI PUSH1 0x0 DUP1 REVERT JUMPDEST PUSH3 0x14C5 DUP14 DUP3 DUP15 ADD PUSH3 0x13B5 JUMP JUMPDEST SWAP9 POP POP PUSH1 0x60 DUP12 ADD CALLDATALOAD PUSH8 0xFFFFFFFFFFFFFFFF DUP2 GT ISZERO PUSH3 0x14E3 JUMPI PUSH1 0x0 DUP1 REVERT JUMPDEST PUSH3 0x14F1 DUP14 DUP3 DUP15 ADD PUSH3 0x13B5 JUMP JUMPDEST SWAP8 POP POP PUSH1 0x80 DUP12 ADD CALLDATALOAD PUSH8 0xFFFFFFFFFFFFFFFF DUP2 GT ISZERO PUSH3 0x150F JUMPI PUSH1 0x0 DUP1 REVERT JUMPDEST PUSH3 0x151D DUP14 DUP3 DUP15 ADD PUSH3 0x13B5 JUMP JUMPDEST SWAP7 POP POP PUSH1 0xA0 PUSH3 0x1530 DUP14 DUP3 DUP15 ADD PUSH3 0x1389 JUMP JUMPDEST SWAP6 POP POP PUSH1 0xC0 PUSH3 0x1543 DUP14 DUP3 DUP15 ADD PUSH3 0x1389 JUMP JUMPDEST SWAP5 POP POP PUSH1 0xE0 PUSH3 0x1556 DUP14 DUP3 DUP15 ADD PUSH3 0x1413 JUMP JUMPDEST SWAP4 POP POP PUSH2 0x100 PUSH3 0x156A DUP14 DUP3 DUP15 ADD PUSH3 0x139F JUMP JUMPDEST SWAP3 POP POP PUSH2 0x120 DUP12 ADD CALLDATALOAD PUSH8 0xFFFFFFFFFFFFFFFF DUP2 GT ISZERO PUSH3 0x1589 JUMPI PUSH1 0x0 DUP1 REVERT JUMPDEST PUSH3 0x1597 DUP14 DUP3 DUP15 ADD PUSH3 0x13B5 JUMP JUMPDEST SWAP2 POP POP SWAP3 SWAP6 SWAP9 SWAP12 SWAP2 SWAP5 SWAP8 SWAP11 POP SWAP3 SWAP6 SWAP9 POP JUMP JUMPDEST PUSH1 0x0 PUSH1 0x20 DUP3 DUP5 SUB SLT ISZERO PUSH3 0x15BC JUMPI PUSH1 0x0 DUP1 REVERT JUMPDEST PUSH1 0x0 DUP3 ADD CALLDATALOAD PUSH8 0xFFFFFFFFFFFFFFFF DUP2 GT ISZERO PUSH3 0x15D7 JUMPI PUSH1 0x0 DUP1 REVERT JUMPDEST PUSH3 0x15E5 DUP5 DUP3 DUP6 ADD PUSH3 0x13B5 JUMP JUMPDEST SWAP2 POP POP SWAP3 SWAP2 POP POP JUMP JUMPDEST PUSH1 0x0 DUP1 PUSH1 0x0 DUP1 PUSH1 0x0 DUP1 PUSH1 0x0 PUSH1 0xE0 DUP9 DUP11 SUB SLT ISZERO PUSH3 0x160A JUMPI PUSH1 0x0 DUP1 REVERT JUMPDEST PUSH1 0x0 DUP9 ADD CALLDATALOAD PUSH8 0xFFFFFFFFFFFFFFFF DUP2 GT ISZERO PUSH3 0x1625 JUMPI PUSH1 0x0 DUP1 REVERT JUMPDEST PUSH3 0x1633 DUP11 DUP3 DUP12 ADD PUSH3 0x13B5 JUMP JUMPDEST SWAP8 POP POP PUSH1 0x20 PUSH3 0x1646 DUP11 DUP3 DUP12 ADD PUSH3 0x139F JUMP JUMPDEST SWAP7 POP POP PUSH1 0x40 PUSH3 0x1659 DUP11 DUP3 DUP12 ADD PUSH3 0x139F JUMP JUMPDEST SWAP6 POP POP PUSH1 0x60 DUP9 ADD CALLDATALOAD PUSH8 0xFFFFFFFFFFFFFFFF DUP2 GT ISZERO PUSH3 0x1677 JUMPI PUSH1 0x0 DUP1 REVERT JUMPDEST PUSH3 0x1685 DUP11 DUP3 DUP12 ADD PUSH3 0x13B5 JUMP JUMPDEST SWAP5 POP POP PUSH1 0x80 DUP9 ADD CALLDATALOAD PUSH8 0xFFFFFFFFFFFFFFFF DUP2 GT ISZERO PUSH3 0x16A3 JUMPI PUSH1 0x0 DUP1 REVERT JUMPDEST PUSH3 0x16B1 DUP11 DUP3 DUP12 ADD PUSH3 0x13B5 JUMP JUMPDEST SWAP4 POP POP PUSH1 0xA0 PUSH3 0x16C4 DUP11 DUP3 DUP12 ADD PUSH3 0x139F JUMP JUMPDEST SWAP3 POP POP PUSH1 0xC0 PUSH3 0x16D7 DUP11 DUP3 DUP12 ADD PUSH3 0x139F JUMP JUMPDEST SWAP2 POP POP SWAP3 SWAP6 SWAP9 SWAP2 SWAP5 SWAP8 POP SWAP3 SWAP6 POP JUMP JUMPDEST PUSH1 0x0 DUP1 PUSH1 0x40 DUP4 DUP6 SUB SLT ISZERO PUSH3 0x16FA JUMPI PUSH1 0x0 DUP1 REVERT JUMPDEST PUSH1 0x0 PUSH3 0x170A DUP6 DUP3 DUP7 ADD PUSH3 0x1413 JUMP JUMPDEST SWAP3 POP POP PUSH1 0x20 PUSH3 0x171D DUP6 DUP3 DUP7 ADD PUSH3 0x1389 JUMP JUMPDEST SWAP2 POP POP SWAP3 POP SWAP3 SWAP1 POP JUMP JUMPDEST PUSH3 0x1732 DUP2 PUSH3 0x1C30 JUMP JUMPDEST DUP3 MSTORE POP POP JUMP JUMPDEST PUSH1 0x0 PUSH3 0x1745 DUP3 PUSH3 0x1BEA JUMP JUMPDEST DUP1 DUP5 MSTORE PUSH1 0x20 DUP5 ADD SWAP4 POP PUSH3 0x1759 DUP4 PUSH3 0x1BD0 JUMP JUMPDEST PUSH1 0x0 JUMPDEST DUP3 DUP2 LT ISZERO PUSH3 0x1791 JUMPI PUSH3 0x1772 DUP7 DUP4 MLOAD PUSH3 0x1727 JUMP JUMPDEST PUSH3 0x177D DUP3 PUSH3 0x1C16 JUMP JUMPDEST SWAP2 POP PUSH1 0x20 DUP7 ADD SWAP6 POP PUSH1 0x1 DUP2 ADD SWAP1 POP PUSH3 0x175C JUMP JUMPDEST POP DUP5 SWAP3 POP POP POP SWAP3 SWAP2 POP POP JUMP JUMPDEST PUSH1 0x0 PUSH3 0x17AA DUP3 PUSH3 0x1BF5 JUMP JUMPDEST DUP1 DUP5 MSTORE PUSH1 0x20 DUP5 ADD SWAP4 POP DUP4 PUSH1 0x20 DUP3 MUL DUP6 ADD PUSH3 0x17C5 DUP6 PUSH3 0x1BDD JUMP JUMPDEST PUSH1 0x0 JUMPDEST DUP5 DUP2 LT ISZERO PUSH3 0x1804 JUMPI DUP4 DUP4 SUB DUP9 MSTORE PUSH3 0x17E3 DUP4 DUP4 MLOAD PUSH3 0x18AF JUMP JUMPDEST SWAP3 POP PUSH3 0x17F0 DUP3 PUSH3 0x1C23 JUMP JUMPDEST SWAP2 POP PUSH1 0x20 DUP9 ADD SWAP8 POP PUSH1 0x1 DUP2 ADD SWAP1 POP PUSH3 0x17C8 JUMP JUMPDEST POP DUP2 SWAP7 POP DUP7 SWAP5 POP POP POP POP POP SWAP3 SWAP2 POP POP JUMP JUMPDEST PUSH3 0x1820 DUP2 PUSH3 0x1C44 JUMP JUMPDEST DUP3 MSTORE POP POP JUMP JUMPDEST PUSH3 0x1831 DUP2 PUSH3 0x1C50 JUMP JUMPDEST DUP3 MSTORE POP POP JUMP JUMPDEST PUSH1 0x0 PUSH3 0x1844 DUP3 PUSH3 0x1C0B JUMP JUMPDEST DUP1 DUP5 MSTORE PUSH3 0x185A DUP2 PUSH1 0x20 DUP7 ADD PUSH1 0x20 DUP7 ADD PUSH3 0x1CC7 JUMP JUMPDEST PUSH3 0x1865 DUP2 PUSH3 0x1CFD JUMP JUMPDEST PUSH1 0x20 DUP6 ADD ADD SWAP2 POP POP SWAP3 SWAP2 POP POP JUMP JUMPDEST PUSH1 0x0 PUSH3 0x1880 DUP3 PUSH3 0x1C00 JUMP JUMPDEST DUP1 DUP5 MSTORE PUSH3 0x1896 DUP2 PUSH1 0x20 DUP7 ADD PUSH1 0x20 DUP7 ADD PUSH3 0x1CC7 JUMP JUMPDEST PUSH3 0x18A1 DUP2 PUSH3 0x1CFD JUMP JUMPDEST PUSH1 0x20 DUP6 ADD ADD SWAP2 POP POP SWAP3 SWAP2 POP POP JUMP JUMPDEST PUSH1 0x0 PUSH2 0x180 DUP4 ADD PUSH1 0x0 DUP4 ADD MLOAD PUSH3 0x18CA PUSH1 0x0 DUP7 ADD DUP3 PUSH3 0x1727 JUMP JUMPDEST POP PUSH1 0x20 DUP4 ADD MLOAD PUSH3 0x18DF PUSH1 0x20 DUP7 ADD DUP3 PUSH3 0x1727 JUMP JUMPDEST POP PUSH1 0x40 DUP4 ADD MLOAD DUP5 DUP3 SUB PUSH1 0x40 DUP7 ADD MSTORE PUSH3 0x18F9 DUP3 DUP3 PUSH3 0x1873 JUMP JUMPDEST SWAP2 POP POP PUSH1 0x60 DUP4 ADD MLOAD DUP5 DUP3 SUB PUSH1 0x60 DUP7 ADD MSTORE PUSH3 0x1915 DUP3 DUP3 PUSH3 0x1873 JUMP JUMPDEST SWAP2 POP POP PUSH1 0x80 DUP4 ADD MLOAD PUSH3 0x192C PUSH1 0x80 DUP7 ADD DUP3 PUSH3 0x1815 JUMP JUMPDEST POP PUSH1 0xA0 DUP4 ADD MLOAD PUSH3 0x1941 PUSH1 0xA0 DUP7 ADD DUP3 PUSH3 0x1815 JUMP JUMPDEST POP PUSH1 0xC0 DUP4 ADD MLOAD DUP5 DUP3 SUB PUSH1 0xC0 DUP7 ADD MSTORE PUSH3 0x195B DUP3 DUP3 PUSH3 0x1873 JUMP JUMPDEST SWAP2 POP POP PUSH1 0xE0 DUP4 ADD MLOAD PUSH3 0x1972 PUSH1 0xE0 DUP7 ADD DUP3 PUSH3 0x19E0 JUMP JUMPDEST POP PUSH2 0x100 DUP4 ADD MLOAD PUSH3 0x1989 PUSH2 0x100 DUP7 ADD DUP3 PUSH3 0x19E0 JUMP JUMPDEST POP PUSH2 0x120 DUP4 ADD MLOAD PUSH3 0x19A0 PUSH2 0x120 DUP7 ADD DUP3 PUSH3 0x1826 JUMP JUMPDEST POP PUSH2 0x140 DUP4 ADD MLOAD DUP5 DUP3 SUB PUSH2 0x140 DUP7 ADD MSTORE PUSH3 0x19BC DUP3 DUP3 PUSH3 0x1873 JUMP JUMPDEST SWAP2 POP POP PUSH2 0x160 DUP4 ADD MLOAD PUSH3 0x19D5 PUSH2 0x160 DUP7 ADD DUP3 PUSH3 0x1815 JUMP JUMPDEST POP DUP1 SWAP2 POP POP SWAP3 SWAP2 POP POP JUMP JUMPDEST PUSH3 0x19EB DUP2 PUSH3 0x1C7A JUMP JUMPDEST DUP3 MSTORE POP POP JUMP JUMPDEST PUSH1 0x0 PUSH1 0xC0 DUP3 ADD SWAP1 POP PUSH3 0x1A08 PUSH1 0x0 DUP4 ADD DUP10 PUSH3 0x1727 JUMP JUMPDEST DUP2 DUP2 SUB PUSH1 0x20 DUP4 ADD MSTORE PUSH3 0x1A1C DUP2 DUP9 PUSH3 0x1837 JUMP JUMPDEST SWAP1 POP PUSH3 0x1A2D PUSH1 0x40 DUP4 ADD DUP8 PUSH3 0x1826 JUMP JUMPDEST PUSH3 0x1A3C PUSH1 0x60 DUP4 ADD DUP7 PUSH3 0x1826 JUMP JUMPDEST DUP2 DUP2 SUB PUSH1 0x80 DUP4 ADD MSTORE PUSH3 0x1A50 DUP2 DUP6 PUSH3 0x1837 JUMP JUMPDEST SWAP1 POP DUP2 DUP2 SUB PUSH1 0xA0 DUP4 ADD MSTORE PUSH3 0x1A66 DUP2 DUP5 PUSH3 0x1837 JUMP JUMPDEST SWAP1 POP SWAP8 SWAP7 POP POP POP POP POP POP POP JUMP JUMPDEST PUSH1 0x0 PUSH1 0x20 DUP3 ADD SWAP1 POP PUSH3 0x1A8A PUSH1 0x0 DUP4 ADD DUP5 PUSH3 0x1815 JUMP JUMPDEST SWAP3 SWAP2 POP POP JUMP JUMPDEST PUSH1 0x0 PUSH1 0x80 DUP3 ADD SWAP1 POP PUSH3 0x1AA7 PUSH1 0x0 DUP4 ADD DUP8 PUSH3 0x1815 JUMP JUMPDEST DUP2 DUP2 SUB PUSH1 0x20 DUP4 ADD MSTORE PUSH3 0x1ABB DUP2 DUP7 PUSH3 0x1738 JUMP JUMPDEST SWAP1 POP DUP2 DUP2 SUB PUSH1 0x40 DUP4 ADD MSTORE PUSH3 0x1AD1 DUP2 DUP6 PUSH3 0x179D JUMP JUMPDEST SWAP1 POP PUSH3 0x1AE2 PUSH1 0x60 DUP4 ADD DUP5 PUSH3 0x1727 JUMP JUMPDEST SWAP6 SWAP5 POP POP POP POP POP JUMP JUMPDEST PUSH1 0x0 PUSH1 0x80 DUP3 ADD SWAP1 POP PUSH3 0x1B02 PUSH1 0x0 DUP4 ADD DUP8 PUSH3 0x1826 JUMP JUMPDEST PUSH3 0x1B11 PUSH1 0x20 DUP4 ADD DUP7 PUSH3 0x1727 JUMP JUMPDEST PUSH3 0x1B20 PUSH1 0x40 DUP4 ADD DUP6 PUSH3 0x1826 JUMP JUMPDEST PUSH3 0x1B2F PUSH1 0x60 DUP4 ADD DUP5 PUSH3 0x1826 JUMP JUMPDEST SWAP6 SWAP5 POP POP POP POP POP JUMP JUMPDEST PUSH1 0x0 PUSH1 0x60 DUP3 ADD SWAP1 POP PUSH3 0x1B4F PUSH1 0x0 DUP4 ADD DUP7 PUSH3 0x19E0 JUMP JUMPDEST PUSH3 0x1B5E PUSH1 0x20 DUP4 ADD DUP6 PUSH3 0x1727 JUMP JUMPDEST PUSH3 0x1B6D PUSH1 0x40 DUP4 ADD DUP5 PUSH3 0x1815 JUMP JUMPDEST SWAP5 SWAP4 POP POP POP POP JUMP JUMPDEST PUSH1 0x0 PUSH1 0x40 MLOAD SWAP1 POP DUP2 DUP2 ADD DUP2 DUP2 LT PUSH8 0xFFFFFFFFFFFFFFFF DUP3 GT OR ISZERO PUSH3 0x1B99 JUMPI PUSH1 0x0 DUP1 REVERT JUMPDEST DUP1 PUSH1 0x40 MSTORE POP SWAP2 SWAP1 POP JUMP JUMPDEST PUSH1 0x0 PUSH8 0xFFFFFFFFFFFFFFFF DUP3 GT ISZERO PUSH3 0x1BBB JUMPI PUSH1 0x0 DUP1 REVERT JUMPDEST PUSH1 0x1F NOT PUSH1 0x1F DUP4 ADD AND SWAP1 POP PUSH1 0x20 DUP2 ADD SWAP1 POP SWAP2 SWAP1 POP JUMP JUMPDEST PUSH1 0x0 PUSH1 0x20 DUP3 ADD SWAP1 POP SWAP2 SWAP1 POP JUMP JUMPDEST PUSH1 0x0 PUSH1 0x20 DUP3 ADD SWAP1 POP SWAP2 SWAP1 POP JUMP JUMPDEST PUSH1 0x0 DUP2 MLOAD SWAP1 POP SWAP2 SWAP1 POP JUMP JUMPDEST PUSH1 0x0 DUP2 MLOAD SWAP1 POP SWAP2 SWAP1 POP JUMP JUMPDEST PUSH1 0x0 DUP2 MLOAD SWAP1 POP SWAP2 SWAP1 POP JUMP JUMPDEST PUSH1 0x0 DUP2 MLOAD SWAP1 POP SWAP2 SWAP1 POP JUMP JUMPDEST PUSH1 0x0 PUSH1 0x20 DUP3 ADD SWAP1 POP SWAP2 SWAP1 POP JUMP JUMPDEST PUSH1 0x0 PUSH1 0x20 DUP3 ADD SWAP1 POP SWAP2 SWAP1 POP JUMP JUMPDEST PUSH1 0x0 PUSH3 0x1C3D DUP3 PUSH3 0x1C5A JUMP JUMPDEST SWAP1 POP SWAP2 SWAP1 POP JUMP JUMPDEST PUSH1 0x0 DUP2 ISZERO ISZERO SWAP1 POP SWAP2 SWAP1 POP JUMP JUMPDEST PUSH1 0x0 DUP2 SWAP1 POP SWAP2 SWAP1 POP JUMP JUMPDEST PUSH1 0x0 PUSH20 0xFFFFFFFFFFFFFFFFFFFFFFFFFFFFFFFFFFFFFFFF DUP3 AND SWAP1 POP SWAP2 SWAP1 POP JUMP JUMPDEST PUSH1 0x0 DUP2 SWAP1 POP SWAP2 SWAP1 POP JUMP JUMPDEST PUSH1 0x0 PUSH3 0x1C91 DUP3 PUSH3 0x1C5A JUMP JUMPDEST SWAP1 POP SWAP2 SWAP1 POP JUMP JUMPDEST PUSH1 0x0 DUP2 ISZERO ISZERO SWAP1 POP SWAP2 SWAP1 POP JUMP JUMPDEST PUSH1 0x0 DUP2 SWAP1 POP SWAP2 SWAP1 POP JUMP JUMPDEST PUSH1 0x0 DUP2 SWAP1 POP SWAP2 SWAP1 POP JUMP JUMPDEST DUP3 DUP2 DUP4 CALLDATACOPY PUSH1 0x0 DUP4 DUP4 ADD MSTORE POP POP POP JUMP JUMPDEST PUSH1 0x0 JUMPDEST DUP4 DUP2 LT ISZERO PUSH3 0x1CE7 JUMPI DUP1 DUP3 ADD MLOAD DUP2 DUP5 ADD MSTORE PUSH1 0x20 DUP2 ADD SWAP1 POP PUSH3 0x1CCA JUMP JUMPDEST DUP4 DUP2 GT ISZERO PUSH3 0x1CF7 JUMPI PUSH1 0x0 DUP5 DUP5 ADD MSTORE JUMPDEST POP POP POP POP JUMP JUMPDEST PUSH1 0x0 PUSH1 0x1F NOT PUSH1 0x1F DUP4 ADD AND SWAP1 POP SWAP2 SWAP1 POP JUMP INVALID PUSH1 0x80 PUSH1 0x40 MSTORE PUSH32 0xFFFFFFFFFFFFFFFFFFFFFFFFFFFFFFFFFFFFFFFFFFFFFFFFFFFFFFFFFFFFFFFF PUSH1 0x7 SSTORE CALLVALUE DUP1 ISZERO PUSH3 0x35 JUMPI PUSH1 0x0 DUP1 REVERT JUMPDEST POP PUSH1 0x40 MLOAD PUSH3 0x17A5 CODESIZE SUB DUP1 PUSH3 0x17A5 DUP4 CODECOPY DUP2 ADD DUP1 PUSH1 0x40 MSTORE PUSH3 0x5B SWAP2 SWAP1 DUP2 ADD SWAP1 PUSH3 0x27A JUMP JUMPDEST ADDRESS PUSH1 0x0 DUP1 PUSH2 0x100 EXP DUP2 SLOAD DUP2 PUSH20 0xFFFFFFFFFFFFFFFFFFFFFFFFFFFFFFFFFFFFFFFF MUL NOT AND SWAP1 DUP4 PUSH20 0xFFFFFFFFFFFFFFFFFFFFFFFFFFFFFFFFFFFFFFFF AND MUL OR SWAP1 SSTORE POP DUP6 PUSH1 0x1 PUSH1 0x0 PUSH2 0x100 EXP DUP2 SLOAD DUP2 PUSH20 0xFFFFFFFFFFFFFFFFFFFFFFFFFFFFFFFFFFFFFFFF MUL NOT AND SWAP1 DUP4 PUSH20 0xFFFFFFFFFFFFFFFFFFFFFFFFFFFFFFFFFFFFFFFF AND MUL OR SWAP1 SSTORE POP DUP5 PUSH1 0x2 SWAP1 DUP1 MLOAD SWAP1 PUSH1 0x20 ADD SWAP1 PUSH3 0xF4 SWAP3 SWAP2 SWAP1 PUSH3 0x141 JUMP JUMPDEST POP DUP2 PUSH1 0x4 SWAP1 DUP1 MLOAD SWAP1 PUSH1 0x20 ADD SWAP1 PUSH3 0x10D SWAP3 SWAP2 SWAP1 PUSH3 0x141 JUMP JUMPDEST POP DUP1 PUSH1 0x5 SWAP1 DUP1 MLOAD SWAP1 PUSH1 0x20 ADD SWAP1 PUSH3 0x126 SWAP3 SWAP2 SWAP1 PUSH3 0x141 JUMP JUMPDEST POP DUP4 PUSH1 0x3 DUP2 SWAP1 SSTORE POP DUP3 PUSH1 0x6 DUP2 SWAP1 SSTORE POP POP POP POP POP POP POP PUSH3 0x42A JUMP JUMPDEST DUP3 DUP1 SLOAD PUSH1 0x1 DUP2 PUSH1 0x1 AND ISZERO PUSH2 0x100 MUL SUB AND PUSH1 0x2 SWAP1 DIV SWAP1 PUSH1 0x0 MSTORE PUSH1 0x20 PUSH1 0x0 KECCAK256 SWAP1 PUSH1 0x1F ADD PUSH1 0x20 SWAP1 DIV DUP2 ADD SWAP3 DUP3 PUSH1 0x1F LT PUSH3 0x184 JUMPI DUP1 MLOAD PUSH1 0xFF NOT AND DUP4 DUP1 ADD OR DUP6 SSTORE PUSH3 0x1B5 JUMP JUMPDEST DUP3 DUP1 ADD PUSH1 0x1 ADD DUP6 SSTORE DUP3 ISZERO PUSH3 0x1B5 JUMPI SWAP2 DUP3 ADD JUMPDEST DUP3 DUP2 GT ISZERO PUSH3 0x1B4 JUMPI DUP3 MLOAD DUP3 SSTORE SWAP2 PUSH1 0x20 ADD SWAP2 SWAP1 PUSH1 0x1 ADD SWAP1 PUSH3 0x197 JUMP JUMPDEST JUMPDEST POP SWAP1 POP PUSH3 0x1C4 SWAP2 SWAP1 PUSH3 0x1C8 JUMP JUMPDEST POP SWAP1 JUMP JUMPDEST PUSH3 0x1ED SWAP2 SWAP1 JUMPDEST DUP1 DUP3 GT ISZERO PUSH3 0x1E9 JUMPI PUSH1 0x0 DUP2 PUSH1 0x0 SWAP1 SSTORE POP PUSH1 0x1 ADD PUSH3 0x1CF JUMP JUMPDEST POP SWAP1 JUMP JUMPDEST SWAP1 JUMP JUMPDEST PUSH1 0x0 PUSH3 0x1FE DUP3 MLOAD PUSH3 0x3D6 JUMP JUMPDEST SWAP1 POP SWAP3 SWAP2 POP POP JUMP JUMPDEST PUSH1 0x0 PUSH3 0x214 DUP3 MLOAD PUSH3 0x3EA JUMP JUMPDEST SWAP1 POP SWAP3 SWAP2 POP POP JUMP JUMPDEST PUSH1 0x0 DUP3 PUSH1 0x1F DUP4 ADD SLT ISZERO ISZERO PUSH3 0x230 JUMPI PUSH1 0x0 DUP1 REVERT JUMPDEST DUP2 MLOAD PUSH3 0x247 PUSH3 0x241 DUP3 PUSH3 0x389 JUMP JUMPDEST PUSH3 0x35B JUMP JUMPDEST SWAP2 POP DUP1 DUP3 MSTORE PUSH1 0x20 DUP4 ADD PUSH1 0x20 DUP4 ADD DUP6 DUP4 DUP4 ADD GT ISZERO PUSH3 0x264 JUMPI PUSH1 0x0 DUP1 REVERT JUMPDEST PUSH3 0x271 DUP4 DUP3 DUP5 PUSH3 0x3F4 JUMP JUMPDEST POP POP POP SWAP3 SWAP2 POP POP JUMP JUMPDEST PUSH1 0x0 DUP1 PUSH1 0x0 DUP1 PUSH1 0x0 DUP1 PUSH1 0xC0 DUP8 DUP10 SUB SLT ISZERO PUSH3 0x294 JUMPI PUSH1 0x0 DUP1 REVERT JUMPDEST PUSH1 0x0 PUSH3 0x2A4 DUP10 DUP3 DUP11 ADD PUSH3 0x1F0 JUMP JUMPDEST SWAP7 POP POP PUSH1 0x20 DUP8 ADD MLOAD PUSH8 0xFFFFFFFFFFFFFFFF DUP2 GT ISZERO PUSH3 0x2C2 JUMPI PUSH1 0x0 DUP1 REVERT JUMPDEST PUSH3 0x2D0 DUP10 DUP3 DUP11 ADD PUSH3 0x21C JUMP JUMPDEST SWAP6 POP POP PUSH1 0x40 PUSH3 0x2E3 DUP10 DUP3 DUP11 ADD PUSH3 0x206 JUMP JUMPDEST SWAP5 POP POP PUSH1 0x60 PUSH3 0x2F6 DUP10 DUP3 DUP11 ADD PUSH3 0x206 JUMP JUMPDEST SWAP4 POP POP PUSH1 0x80 DUP8 ADD MLOAD PUSH8 0xFFFFFFFFFFFFFFFF DUP2 GT ISZERO PUSH3 0x314 JUMPI PUSH1 0x0 DUP1 REVERT JUMPDEST PUSH3 0x322 DUP10 DUP3 DUP11 ADD PUSH3 0x21C JUMP JUMPDEST SWAP3 POP POP PUSH1 0xA0 DUP8 ADD MLOAD PUSH8 0xFFFFFFFFFFFFFFFF DUP2 GT ISZERO PUSH3 0x340 JUMPI PUSH1 0x0 DUP1 REVERT JUMPDEST PUSH3 0x34E DUP10 DUP3 DUP11 ADD PUSH3 0x21C JUMP JUMPDEST SWAP2 POP POP SWAP3 SWAP6 POP SWAP3 SWAP6 POP SWAP3 SWAP6 JUMP JUMPDEST PUSH1 0x0 PUSH1 0x40 MLOAD SWAP1 POP DUP2 DUP2 ADD DUP2 DUP2 LT PUSH8 0xFFFFFFFFFFFFFFFF DUP3 GT OR ISZERO PUSH3 0x37F JUMPI PUSH1 0x0 DUP1 REVERT JUMPDEST DUP1 PUSH1 0x40 MSTORE POP SWAP2 SWAP1 POP JUMP JUMPDEST PUSH1 0x0 PUSH8 0xFFFFFFFFFFFFFFFF DUP3 GT ISZERO PUSH3 0x3A1 JUMPI PUSH1 0x0 DUP1 REVERT JUMPDEST PUSH1 0x1F NOT PUSH1 0x1F DUP4 ADD AND SWAP1 POP PUSH1 0x20 DUP2 ADD SWAP1 POP SWAP2 SWAP1 POP JUMP JUMPDEST PUSH1 0x0 PUSH20 0xFFFFFFFFFFFFFFFFFFFFFFFFFFFFFFFFFFFFFFFF DUP3 AND SWAP1 POP SWAP2 SWAP1 POP JUMP JUMPDEST PUSH1 0x0 PUSH3 0x3E3 DUP3 PUSH3 0x3B6 JUMP JUMPDEST SWAP1 POP SWAP2 SWAP1 POP JUMP JUMPDEST PUSH1 0x0 DUP2 SWAP1 POP SWAP2 SWAP1 POP JUMP JUMPDEST PUSH1 0x0 JUMPDEST DUP4 DUP2 LT ISZERO PUSH3 0x414 JUMPI DUP1 DUP3 ADD MLOAD DUP2 DUP5 ADD MSTORE PUSH1 0x20 DUP2 ADD SWAP1 POP PUSH3 0x3F7 JUMP JUMPDEST DUP4 DUP2 GT ISZERO PUSH3 0x424 JUMPI PUSH1 0x0 DUP5 DUP5 ADD MSTORE JUMPDEST POP POP POP POP JUMP JUMPDEST PUSH2 0x136B DUP1 PUSH3 0x43A PUSH1 0x0 CODECOPY PUSH1 0x0 RETURN INVALID PUSH1 0x80 PUSH1 0x40 MSTORE CALLVALUE DUP1 ISZERO PUSH2 0x10 JUMPI PUSH1 0x0 DUP1 REVERT JUMPDEST POP PUSH1 0x4 CALLDATASIZE LT PUSH2 0x5E JUMPI PUSH1 0x0 CALLDATALOAD PUSH29 0x100000000000000000000000000000000000000000000000000000000 SWAP1 DIV DUP1 PUSH4 0x3BC5DE30 EQ PUSH2 0x63 JUMPI DUP1 PUSH4 0x72102D18 EQ PUSH2 0x88 JUMPI DUP1 PUSH4 0x83BFFB88 EQ PUSH2 0xA4 JUMPI JUMPDEST PUSH1 0x0 DUP1 REVERT JUMPDEST PUSH2 0x6B PUSH2 0xC0 JUMP JUMPDEST PUSH1 0x40 MLOAD PUSH2 0x7F SWAP9 SWAP8 SWAP7 SWAP6 SWAP5 SWAP4 SWAP3 SWAP2 SWAP1 PUSH2 0x106C JUMP JUMPDEST PUSH1 0x40 MLOAD DUP1 SWAP2 SUB SWAP1 RETURN JUMPDEST PUSH2 0xA2 PUSH1 0x4 DUP1 CALLDATASIZE SUB PUSH2 0x9D SWAP2 SWAP1 DUP2 ADD SWAP1 PUSH2 0xD99 JUMP JUMPDEST PUSH2 0x661 JUMP JUMPDEST STOP JUMPDEST PUSH2 0xBE PUSH1 0x4 DUP1 CALLDATASIZE SUB PUSH2 0xB9 SWAP2 SWAP1 DUP2 ADD SWAP1 PUSH2 0xD02 JUMP JUMPDEST PUSH2 0x7E0 JUMP JUMPDEST STOP JUMPDEST PUSH1 0x0 DUP1 PUSH1 0x60 PUSH1 0x0 PUSH1 0x60 DUP1 PUSH1 0x0 PUSH1 0x60 PUSH1 0x0 DUP1 SWAP1 SLOAD SWAP1 PUSH2 0x100 EXP SWAP1 DIV PUSH20 0xFFFFFFFFFFFFFFFFFFFFFFFFFFFFFFFFFFFFFFFF AND PUSH1 0x1 PUSH1 0x0 SWAP1 SLOAD SWAP1 PUSH2 0x100 EXP SWAP1 DIV PUSH20 0xFFFFFFFFFFFFFFFFFFFFFFFFFFFFFFFFFFFFFFFF AND PUSH1 0x2 PUSH1 0x3 SLOAD PUSH1 0x4 PUSH1 0x5 PUSH1 0x6 SLOAD PUSH1 0x8 DUP6 DUP1 SLOAD PUSH1 0x1 DUP2 PUSH1 0x1 AND ISZERO PUSH2 0x100 MUL SUB AND PUSH1 0x2 SWAP1 DIV DUP1 PUSH1 0x1F ADD PUSH1 0x20 DUP1 SWAP2 DIV MUL PUSH1 0x20 ADD PUSH1 0x40 MLOAD SWAP1 DUP2 ADD PUSH1 0x40 MSTORE DUP1 SWAP3 SWAP2 SWAP1 DUP2 DUP2 MSTORE PUSH1 0x20 ADD DUP3 DUP1 SLOAD PUSH1 0x1 DUP2 PUSH1 0x1 AND ISZERO PUSH2 0x100 MUL SUB AND PUSH1 0x2 SWAP1 DIV DUP1 ISZERO PUSH2 0x1B6 JUMPI DUP1 PUSH1 0x1F LT PUSH2 0x18B JUMPI PUSH2 0x100 DUP1 DUP4 SLOAD DIV MUL DUP4 MSTORE SWAP2 PUSH1 0x20 ADD SWAP2 PUSH2 0x1B6 JUMP JUMPDEST DUP3 ADD SWAP2 SWAP1 PUSH1 0x0 MSTORE PUSH1 0x20 PUSH1 0x0 KECCAK256 SWAP1 JUMPDEST DUP2 SLOAD DUP2 MSTORE SWAP1 PUSH1 0x1 ADD SWAP1 PUSH1 0x20 ADD DUP1 DUP4 GT PUSH2 0x199 JUMPI DUP3 SWAP1 SUB PUSH1 0x1F AND DUP3 ADD SWAP2 JUMPDEST POP POP POP POP POP SWAP6 POP DUP4 DUP1 SLOAD PUSH1 0x1 DUP2 PUSH1 0x1 AND ISZERO PUSH2 0x100 MUL SUB AND PUSH1 0x2 SWAP1 DIV DUP1 PUSH1 0x1F ADD PUSH1 0x20 DUP1 SWAP2 DIV MUL PUSH1 0x20 ADD PUSH1 0x40 MLOAD SWAP1 DUP2 ADD PUSH1 0x40 MSTORE DUP1 SWAP3 SWAP2 SWAP1 DUP2 DUP2 MSTORE PUSH1 0x20 ADD DUP3 DUP1 SLOAD PUSH1 0x1 DUP2 PUSH1 0x1 AND ISZERO PUSH2 0x100 MUL SUB AND PUSH1 0x2 SWAP1 DIV DUP1 ISZERO PUSH2 0x252 JUMPI DUP1 PUSH1 0x1F LT PUSH2 0x227 JUMPI PUSH2 0x100 DUP1 DUP4 SLOAD DIV MUL DUP4 MSTORE SWAP2 PUSH1 0x20 ADD SWAP2 PUSH2 0x252 JUMP JUMPDEST DUP3 ADD SWAP2 SWAP1 PUSH1 0x0 MSTORE PUSH1 0x20 PUSH1 0x0 KECCAK256 SWAP1 JUMPDEST DUP2 SLOAD DUP2 MSTORE SWAP1 PUSH1 0x1 ADD SWAP1 PUSH1 0x20 ADD DUP1 DUP4 GT PUSH2 0x235 JUMPI DUP3 SWAP1 SUB PUSH1 0x1F AND DUP3 ADD SWAP2 JUMPDEST POP POP POP POP POP SWAP4 POP DUP3 DUP1 SLOAD PUSH1 0x1 DUP2 PUSH1 0x1 AND ISZERO PUSH2 0x100 MUL SUB AND PUSH1 0x2 SWAP1 DIV DUP1 PUSH1 0x1F ADD PUSH1 0x20 DUP1 SWAP2 DIV MUL PUSH1 0x20 ADD PUSH1 0x40 MLOAD SWAP1 DUP2 ADD PUSH1 0x40 MSTORE DUP1 SWAP3 SWAP2 SWAP1 DUP2 DUP2 MSTORE PUSH1 0x20 ADD DUP3 DUP1 SLOAD PUSH1 0x1 DUP2 PUSH1 0x1 AND ISZERO PUSH2 0x100 MUL SUB AND PUSH1 0x2 SWAP1 DIV DUP1 ISZERO PUSH2 0x2EE JUMPI DUP1 PUSH1 0x1F LT PUSH2 0x2C3 JUMPI PUSH2 0x100 DUP1 DUP4 SLOAD DIV MUL DUP4 MSTORE SWAP2 PUSH1 0x20 ADD SWAP2 PUSH2 0x2EE JUMP JUMPDEST DUP3 ADD SWAP2 SWAP1 PUSH1 0x0 MSTORE PUSH1 0x20 PUSH1 0x0 KECCAK256 SWAP1 JUMPDEST DUP2 SLOAD DUP2 MSTORE SWAP1 PUSH1 0x1 ADD SWAP1 PUSH1 0x20 ADD DUP1 DUP4 GT PUSH2 0x2D1 JUMPI DUP3 SWAP1 SUB PUSH1 0x1F AND DUP3 ADD SWAP2 JUMPDEST POP POP POP POP POP SWAP3 POP DUP1 DUP1 SLOAD DUP1 PUSH1 0x20 MUL PUSH1 0x20 ADD PUSH1 0x40 MLOAD SWAP1 DUP2 ADD PUSH1 0x40 MSTORE DUP1 SWAP3 SWAP2 SWAP1 DUP2 DUP2 MSTORE PUSH1 0x20 ADD PUSH1 0x0 SWAP1 JUMPDEST DUP3 DUP3 LT ISZERO PUSH2 0x641 JUMPI DUP4 DUP3 SWAP1 PUSH1 0x0 MSTORE PUSH1 0x20 PUSH1 0x0 KECCAK256 SWAP1 PUSH1 0x9 MUL ADD PUSH2 0x140 PUSH1 0x40 MLOAD SWAP1 DUP2 ADD PUSH1 0x40 MSTORE SWAP1 DUP2 PUSH1 0x0 DUP3 ADD PUSH1 0x0 SWAP1 SLOAD SWAP1 PUSH2 0x100 EXP SWAP1 DIV PUSH20 0xFFFFFFFFFFFFFFFFFFFFFFFFFFFFFFFFFFFFFFFF AND PUSH20 0xFFFFFFFFFFFFFFFFFFFFFFFFFFFFFFFFFFFFFFFF AND PUSH20 0xFFFFFFFFFFFFFFFFFFFFFFFFFFFFFFFFFFFFFFFF AND DUP2 MSTORE PUSH1 0x20 ADD PUSH1 0x1 DUP3 ADD PUSH1 0x0 SWAP1 SLOAD SWAP1 PUSH2 0x100 EXP SWAP1 DIV PUSH20 0xFFFFFFFFFFFFFFFFFFFFFFFFFFFFFFFFFFFFFFFF AND PUSH20 0xFFFFFFFFFFFFFFFFFFFFFFFFFFFFFFFFFFFFFFFF AND PUSH20 0xFFFFFFFFFFFFFFFFFFFFFFFFFFFFFFFFFFFFFFFF AND DUP2 MSTORE PUSH1 0x20 ADD PUSH1 0x2 DUP3 ADD DUP1 SLOAD PUSH1 0x1 DUP2 PUSH1 0x1 AND ISZERO PUSH2 0x100 MUL SUB AND PUSH1 0x2 SWAP1 DIV DUP1 PUSH1 0x1F ADD PUSH1 0x20 DUP1 SWAP2 DIV MUL PUSH1 0x20 ADD PUSH1 0x40 MLOAD SWAP1 DUP2 ADD PUSH1 0x40 MSTORE DUP1 SWAP3 SWAP2 SWAP1 DUP2 DUP2 MSTORE PUSH1 0x20 ADD DUP3 DUP1 SLOAD PUSH1 0x1 DUP2 PUSH1 0x1 AND ISZERO PUSH2 0x100 MUL SUB AND PUSH1 0x2 SWAP1 DIV DUP1 ISZERO PUSH2 0x480 JUMPI DUP1 PUSH1 0x1F LT PUSH2 0x455 JUMPI PUSH2 0x100 DUP1 DUP4 SLOAD DIV MUL DUP4 MSTORE SWAP2 PUSH1 0x20 ADD SWAP2 PUSH2 0x480 JUMP JUMPDEST DUP3 ADD SWAP2 SWAP1 PUSH1 0x0 MSTORE PUSH1 0x20 PUSH1 0x0 KECCAK256 SWAP1 JUMPDEST DUP2 SLOAD DUP2 MSTORE SWAP1 PUSH1 0x1 ADD SWAP1 PUSH1 0x20 ADD DUP1 DUP4 GT PUSH2 0x463 JUMPI DUP3 SWAP1 SUB PUSH1 0x1F AND DUP3 ADD SWAP2 JUMPDEST POP POP POP POP POP DUP2 MSTORE PUSH1 0x20 ADD PUSH1 0x3 DUP3 ADD DUP1 SLOAD PUSH1 0x1 DUP2 PUSH1 0x1 AND ISZERO PUSH2 0x100 MUL SUB AND PUSH1 0x2 SWAP1 DIV DUP1 PUSH1 0x1F ADD PUSH1 0x20 DUP1 SWAP2 DIV MUL PUSH1 0x20 ADD PUSH1 0x40 MLOAD SWAP1 DUP2 ADD PUSH1 0x40 MSTORE DUP1 SWAP3 SWAP2 SWAP1 DUP2 DUP2 MSTORE PUSH1 0x20 ADD DUP3 DUP1 SLOAD PUSH1 0x1 DUP2 PUSH1 0x1 AND ISZERO PUSH2 0x100 MUL SUB AND PUSH1 0x2 SWAP1 DIV DUP1 ISZERO PUSH2 0x522 JUMPI DUP1 PUSH1 0x1F LT PUSH2 0x4F7 JUMPI PUSH2 0x100 DUP1 DUP4 SLOAD DIV MUL DUP4 MSTORE SWAP2 PUSH1 0x20 ADD SWAP2 PUSH2 0x522 JUMP JUMPDEST DUP3 ADD SWAP2 SWAP1 PUSH1 0x0 MSTORE PUSH1 0x20 PUSH1 0x0 KECCAK256 SWAP1 JUMPDEST DUP2 SLOAD DUP2 MSTORE SWAP1 PUSH1 0x1 ADD SWAP1 PUSH1 0x20 ADD DUP1 DUP4 GT PUSH2 0x505 JUMPI DUP3 SWAP1 SUB PUSH1 0x1F AND DUP3 ADD SWAP2 JUMPDEST POP POP POP POP POP DUP2 MSTORE PUSH1 0x20 ADD PUSH1 0x4 DUP3 ADD PUSH1 0x0 SWAP1 SLOAD SWAP1 PUSH2 0x100 EXP SWAP1 DIV PUSH1 0xFF AND ISZERO ISZERO ISZERO ISZERO DUP2 MSTORE PUSH1 0x20 ADD PUSH1 0x4 DUP3 ADD PUSH1 0x1 SWAP1 SLOAD SWAP1 PUSH2 0x100 EXP SWAP1 DIV PUSH1 0xFF AND ISZERO ISZERO ISZERO ISZERO DUP2 MSTORE PUSH1 0x20 ADD PUSH1 0x5 DUP3 ADD DUP1 SLOAD PUSH1 0x1 DUP2 PUSH1 0x1 AND ISZERO PUSH2 0x100 MUL SUB AND PUSH1 0x2 SWAP1 DIV DUP1 PUSH1 0x1F ADD PUSH1 0x20 DUP1 SWAP2 DIV MUL PUSH1 0x20 ADD PUSH1 0x40 MLOAD SWAP1 DUP2 ADD PUSH1 0x40 MSTORE DUP1 SWAP3 SWAP2 SWAP1 DUP2 DUP2 MSTORE PUSH1 0x20 ADD DUP3 DUP1 SLOAD PUSH1 0x1 DUP2 PUSH1 0x1 AND ISZERO PUSH2 0x100 MUL SUB AND PUSH1 0x2 SWAP1 DIV DUP1 ISZERO PUSH2 0x5FA JUMPI DUP1 PUSH1 0x1F LT PUSH2 0x5CF JUMPI PUSH2 0x100 DUP1 DUP4 SLOAD DIV MUL DUP4 MSTORE SWAP2 PUSH1 0x20 ADD SWAP2 PUSH2 0x5FA JUMP JUMPDEST DUP3 ADD SWAP2 SWAP1 PUSH1 0x0 MSTORE PUSH1 0x20 PUSH1 0x0 KECCAK256 SWAP1 JUMPDEST DUP2 SLOAD DUP2 MSTORE SWAP1 PUSH1 0x1 ADD SWAP1 PUSH1 0x20 ADD DUP1 DUP4 GT PUSH2 0x5DD JUMPI DUP3 SWAP1 SUB PUSH1 0x1F AND DUP3 ADD SWAP2 JUMPDEST POP POP POP POP POP DUP2 MSTORE PUSH1 0x20 ADD PUSH1 0x6 DUP3 ADD SLOAD DUP2 MSTORE PUSH1 0x20 ADD PUSH1 0x7 DUP3 ADD PUSH1 0x0 SWAP1 SLOAD SWAP1 PUSH2 0x100 EXP SWAP1 DIV PUSH1 0xFF AND ISZERO ISZERO ISZERO ISZERO DUP2 MSTORE PUSH1 0x20 ADD PUSH1 0x8 DUP3 ADD SLOAD DUP2 MSTORE POP POP DUP2 MSTORE PUSH1 0x20 ADD SWAP1 PUSH1 0x1 ADD SWAP1 PUSH2 0x316 JUMP JUMPDEST POP POP POP POP SWAP1 POP SWAP8 POP SWAP8 POP SWAP8 POP SWAP8 POP SWAP8 POP SWAP8 POP SWAP8 POP SWAP8 POP SWAP1 SWAP2 SWAP3 SWAP4 SWAP5 SWAP6 SWAP7 SWAP8 JUMP JUMPDEST PUSH1 0x1 PUSH1 0x0 SWAP1 SLOAD SWAP1 PUSH2 0x100 EXP SWAP1 DIV PUSH20 0xFFFFFFFFFFFFFFFFFFFFFFFFFFFFFFFFFFFFFFFF AND PUSH20 0xFFFFFFFFFFFFFFFFFFFFFFFFFFFFFFFFFFFFFFFF AND DUP3 PUSH20 0xFFFFFFFFFFFFFFFFFFFFFFFFFFFFFFFFFFFFFFFF AND EQ ISZERO PUSH2 0x7DB JUMPI PUSH1 0x1 ISZERO ISZERO DUP2 ISZERO ISZERO EQ ISZERO PUSH2 0x73B JUMPI PUSH1 0x1 PUSH1 0x8 DUP5 DUP2 SLOAD DUP2 LT ISZERO ISZERO PUSH2 0x6D5 JUMPI INVALID JUMPDEST SWAP1 PUSH1 0x0 MSTORE PUSH1 0x20 PUSH1 0x0 KECCAK256 SWAP1 PUSH1 0x9 MUL ADD PUSH1 0x7 ADD PUSH1 0x0 PUSH2 0x100 EXP DUP2 SLOAD DUP2 PUSH1 0xFF MUL NOT AND SWAP1 DUP4 ISZERO ISZERO MUL OR SWAP1 SSTORE POP PUSH1 0x1 PUSH1 0x8 DUP5 DUP2 SLOAD DUP2 LT ISZERO ISZERO PUSH2 0x70E JUMPI INVALID JUMPDEST SWAP1 PUSH1 0x0 MSTORE PUSH1 0x20 PUSH1 0x0 KECCAK256 SWAP1 PUSH1 0x9 MUL ADD PUSH1 0x4 ADD PUSH1 0x1 PUSH2 0x100 EXP DUP2 SLOAD DUP2 PUSH1 0xFF MUL NOT AND SWAP1 DUP4 ISZERO ISZERO MUL OR SWAP1 SSTORE POP PUSH2 0x7AE JUMP JUMPDEST PUSH1 0x1 PUSH1 0x8 DUP5 DUP2 SLOAD DUP2 LT ISZERO ISZERO PUSH2 0x74C JUMPI INVALID JUMPDEST SWAP1 PUSH1 0x0 MSTORE PUSH1 0x20 PUSH1 0x0 KECCAK256 SWAP1 PUSH1 0x9 MUL ADD PUSH1 0x7 ADD PUSH1 0x0 PUSH2 0x100 EXP DUP2 SLOAD DUP2 PUSH1 0xFF MUL NOT AND SWAP1 DUP4 ISZERO ISZERO MUL OR SWAP1 SSTORE POP PUSH1 0x0 PUSH1 0x8 DUP5 DUP2 SLOAD DUP2 LT ISZERO ISZERO PUSH2 0x785 JUMPI INVALID JUMPDEST SWAP1 PUSH1 0x0 MSTORE PUSH1 0x20 PUSH1 0x0 KECCAK256 SWAP1 PUSH1 0x9 MUL ADD PUSH1 0x4 ADD PUSH1 0x1 PUSH2 0x100 EXP DUP2 SLOAD DUP2 PUSH1 0xFF MUL NOT AND SWAP1 DUP4 ISZERO ISZERO MUL OR SWAP1 SSTORE POP JUMPDEST PUSH32 0x2B94F1E9999FF685F243474C3B8C30563987B8897FECB35C7CEA9AC0F4F5C6BD PUSH1 0x40 MLOAD PUSH1 0x40 MLOAD DUP1 SWAP2 SUB SWAP1 LOG1 JUMPDEST POP POP POP JUMP JUMPDEST PUSH2 0x7E8 PUSH2 0xB45 JUMP JUMPDEST PUSH2 0x140 PUSH1 0x40 MLOAD SWAP1 DUP2 ADD PUSH1 0x40 MSTORE DUP1 PUSH1 0x1 PUSH1 0x0 SWAP1 SLOAD SWAP1 PUSH2 0x100 EXP SWAP1 DIV PUSH20 0xFFFFFFFFFFFFFFFFFFFFFFFFFFFFFFFFFFFFFFFF AND PUSH20 0xFFFFFFFFFFFFFFFFFFFFFFFFFFFFFFFFFFFFFFFF AND DUP2 MSTORE PUSH1 0x20 ADD ADDRESS PUSH20 0xFFFFFFFFFFFFFFFFFFFFFFFFFFFFFFFFFFFFFFFF AND DUP2 MSTORE PUSH1 0x20 ADD DUP5 DUP2 MSTORE PUSH1 0x20 ADD DUP4 DUP2 MSTORE PUSH1 0x20 ADD PUSH1 0x1 ISZERO ISZERO DUP2 MSTORE PUSH1 0x20 ADD PUSH1 0x0 ISZERO ISZERO DUP2 MSTORE PUSH1 0x20 ADD DUP6 DUP2 MSTORE PUSH1 0x20 ADD PUSH1 0x1 PUSH1 0x7 SLOAD ADD DUP2 MSTORE PUSH1 0x20 ADD PUSH1 0x0 ISZERO ISZERO DUP2 MSTORE PUSH1 0x20 ADD PUSH1 0x0 DUP2 MSTORE POP SWAP1 POP PUSH1 0x8 DUP2 SWAP1 DUP1 PUSH1 0x1 DUP2 SLOAD ADD DUP1 DUP3 SSTORE DUP1 SWAP2 POP POP SWAP1 PUSH1 0x1 DUP3 SUB SWAP1 PUSH1 0x0 MSTORE PUSH1 0x20 PUSH1 0x0 KECCAK256 SWAP1 PUSH1 0x9 MUL ADD PUSH1 0x0 SWAP1 SWAP2 SWAP3 SWAP1 SWAP2 SWAP1 SWAP2 POP PUSH1 0x0 DUP3 ADD MLOAD DUP2 PUSH1 0x0 ADD PUSH1 0x0 PUSH2 0x100 EXP DUP2 SLOAD DUP2 PUSH20 0xFFFFFFFFFFFFFFFFFFFFFFFFFFFFFFFFFFFFFFFF MUL NOT AND SWAP1 DUP4 PUSH20 0xFFFFFFFFFFFFFFFFFFFFFFFFFFFFFFFFFFFFFFFF AND MUL OR SWAP1 SSTORE POP PUSH1 0x20 DUP3 ADD MLOAD DUP2 PUSH1 0x1 ADD PUSH1 0x0 PUSH2 0x100 EXP DUP2 SLOAD DUP2 PUSH20 0xFFFFFFFFFFFFFFFFFFFFFFFFFFFFFFFFFFFFFFFF MUL NOT AND SWAP1 DUP4 PUSH20 0xFFFFFFFFFFFFFFFFFFFFFFFFFFFFFFFFFFFFFFFF AND MUL OR SWAP1 SSTORE POP PUSH1 0x40 DUP3 ADD MLOAD DUP2 PUSH1 0x2 ADD SWAP1 DUP1 MLOAD SWAP1 PUSH1 0x20 ADD SWAP1 PUSH2 0x966 SWAP3 SWAP2 SWAP1 PUSH2 0xBCB JUMP JUMPDEST POP PUSH1 0x60 DUP3 ADD MLOAD DUP2 PUSH1 0x3 ADD SWAP1 DUP1 MLOAD SWAP1 PUSH1 0x20 ADD SWAP1 PUSH2 0x983 SWAP3 SWAP2 SWAP1 PUSH2 0xBCB JUMP JUMPDEST POP PUSH1 0x80 DUP3 ADD MLOAD DUP2 PUSH1 0x4 ADD PUSH1 0x0 PUSH2 0x100 EXP DUP2 SLOAD DUP2 PUSH1 0xFF MUL NOT AND SWAP1 DUP4 ISZERO ISZERO MUL OR SWAP1 SSTORE POP PUSH1 0xA0 DUP3 ADD MLOAD DUP2 PUSH1 0x4 ADD PUSH1 0x1 PUSH2 0x100 EXP DUP2 SLOAD DUP2 PUSH1 0xFF MUL NOT AND SWAP1 DUP4 ISZERO ISZERO MUL OR SWAP1 SSTORE POP PUSH1 0xC0 DUP3 ADD MLOAD DUP2 PUSH1 0x5 ADD SWAP1 DUP1 MLOAD SWAP1 PUSH1 0x20 ADD SWAP1 PUSH2 0x9E0 SWAP3 SWAP2 SWAP1 PUSH2 0xBCB JUMP JUMPDEST POP PUSH1 0xE0 DUP3 ADD MLOAD DUP2 PUSH1 0x6 ADD SSTORE PUSH2 0x100 DUP3 ADD MLOAD DUP2 PUSH1 0x7 ADD PUSH1 0x0 PUSH2 0x100 EXP DUP2 SLOAD DUP2 PUSH1 0xFF MUL NOT AND SWAP1 DUP4 ISZERO ISZERO MUL OR SWAP1 SSTORE POP PUSH2 0x120 DUP3 ADD MLOAD DUP2 PUSH1 0x8 ADD SSTORE POP POP POP PUSH1 0x0 PUSH1 0x1 PUSH1 0x0 SWAP1 SLOAD SWAP1 PUSH2 0x100 EXP SWAP1 DIV PUSH20 0xFFFFFFFFFFFFFFFFFFFFFFFFFFFFFFFFFFFFFFFF AND SWAP1 POP DUP1 PUSH20 0xFFFFFFFFFFFFFFFFFFFFFFFFFFFFFFFFFFFFFFFF AND PUSH4 0x6FC92E73 PUSH1 0x1 PUSH1 0x0 SWAP1 SLOAD SWAP1 PUSH2 0x100 EXP SWAP1 DIV PUSH20 0xFFFFFFFFFFFFFFFFFFFFFFFFFFFFFFFFFFFFFFFF AND ADDRESS DUP8 DUP8 DUP11 PUSH1 0x1 PUSH1 0x0 PUSH1 0x1 PUSH1 0x7 SLOAD ADD PUSH1 0x3 SLOAD PUSH1 0x5 PUSH1 0x40 MLOAD DUP12 PUSH4 0xFFFFFFFF AND PUSH29 0x100000000000000000000000000000000000000000000000000000000 MUL DUP2 MSTORE PUSH1 0x4 ADD PUSH2 0xAD4 SWAP11 SWAP10 SWAP9 SWAP8 SWAP7 SWAP6 SWAP5 SWAP4 SWAP3 SWAP2 SWAP1 PUSH2 0x1106 JUMP JUMPDEST PUSH1 0x0 PUSH1 0x40 MLOAD DUP1 DUP4 SUB DUP2 PUSH1 0x0 DUP8 DUP1 EXTCODESIZE ISZERO DUP1 ISZERO PUSH2 0xAEE JUMPI PUSH1 0x0 DUP1 REVERT JUMPDEST POP GAS CALL ISZERO DUP1 ISZERO PUSH2 0xB02 JUMPI RETURNDATASIZE PUSH1 0x0 DUP1 RETURNDATACOPY RETURNDATASIZE PUSH1 0x0 REVERT JUMPDEST POP POP POP POP PUSH1 0x1 PUSH1 0x7 SLOAD ADD PUSH1 0x7 DUP2 SWAP1 SSTORE POP PUSH32 0x2B94F1E9999FF685F243474C3B8C30563987B8897FECB35C7CEA9AC0F4F5C6BD PUSH1 0x40 MLOAD PUSH1 0x40 MLOAD DUP1 SWAP2 SUB SWAP1 LOG1 POP POP POP POP POP JUMP JUMPDEST PUSH2 0x140 PUSH1 0x40 MLOAD SWAP1 DUP2 ADD PUSH1 0x40 MSTORE DUP1 PUSH1 0x0 PUSH20 0xFFFFFFFFFFFFFFFFFFFFFFFFFFFFFFFFFFFFFFFF AND DUP2 MSTORE PUSH1 0x20 ADD PUSH1 0x0 PUSH20 0xFFFFFFFFFFFFFFFFFFFFFFFFFFFFFFFFFFFFFFFF AND DUP2 MSTORE PUSH1 0x20 ADD PUSH1 0x60 DUP2 MSTORE PUSH1 0x20 ADD PUSH1 0x60 DUP2 MSTORE PUSH1 0x20 ADD PUSH1 0x0 ISZERO ISZERO DUP2 MSTORE PUSH1 0x20 ADD PUSH1 0x0 ISZERO ISZERO DUP2 MSTORE PUSH1 0x20 ADD PUSH1 0x60 DUP2 MSTORE PUSH1 0x20 ADD PUSH1 0x0 DUP2 MSTORE PUSH1 0x20 ADD PUSH1 0x0 ISZERO ISZERO DUP2 MSTORE PUSH1 0x20 ADD PUSH1 0x0 DUP2 MSTORE POP SWAP1 JUMP JUMPDEST DUP3 DUP1 SLOAD PUSH1 0x1 DUP2 PUSH1 0x1 AND ISZERO PUSH2 0x100 MUL SUB AND PUSH1 0x2 SWAP1 DIV SWAP1 PUSH1 0x0 MSTORE PUSH1 0x20 PUSH1 0x0 KECCAK256 SWAP1 PUSH1 0x1F ADD PUSH1 0x20 SWAP1 DIV DUP2 ADD SWAP3 DUP3 PUSH1 0x1F LT PUSH2 0xC0C JUMPI DUP1 MLOAD PUSH1 0xFF NOT AND DUP4 DUP1 ADD OR DUP6 SSTORE PUSH2 0xC3A JUMP JUMPDEST DUP3 DUP1 ADD PUSH1 0x1 ADD DUP6 SSTORE DUP3 ISZERO PUSH2 0xC3A JUMPI SWAP2 DUP3 ADD JUMPDEST DUP3 DUP2 GT ISZERO PUSH2 0xC39 JUMPI DUP3 MLOAD DUP3 SSTORE SWAP2 PUSH1 0x20 ADD SWAP2 SWAP1 PUSH1 0x1 ADD SWAP1 PUSH2 0xC1E JUMP JUMPDEST JUMPDEST POP SWAP1 POP PUSH2 0xC47 SWAP2 SWAP1 PUSH2 0xC4B JUMP JUMPDEST POP SWAP1 JUMP JUMPDEST PUSH2 0xC6D SWAP2 SWAP1 JUMPDEST DUP1 DUP3 GT ISZERO PUSH2 0xC69 JUMPI PUSH1 0x0 DUP2 PUSH1 0x0 SWAP1 SSTORE POP PUSH1 0x1 ADD PUSH2 0xC51 JUMP JUMPDEST POP SWAP1 JUMP JUMPDEST SWAP1 JUMP JUMPDEST PUSH1 0x0 PUSH2 0xC7C DUP3 CALLDATALOAD PUSH2 0x12B6 JUMP JUMPDEST SWAP1 POP SWAP3 SWAP2 POP POP JUMP JUMPDEST PUSH1 0x0 PUSH2 0xC90 DUP3 CALLDATALOAD PUSH2 0x12C8 JUMP JUMPDEST SWAP1 POP SWAP3 SWAP2 POP POP JUMP JUMPDEST PUSH1 0x0 DUP3 PUSH1 0x1F DUP4 ADD SLT ISZERO ISZERO PUSH2 0xCAB JUMPI PUSH1 0x0 DUP1 REVERT JUMPDEST DUP2 CALLDATALOAD PUSH2 0xCBE PUSH2 0xCB9 DUP3 PUSH2 0x11EB JUMP JUMPDEST PUSH2 0x11BE JUMP JUMPDEST SWAP2 POP DUP1 DUP3 MSTORE PUSH1 0x20 DUP4 ADD PUSH1 0x20 DUP4 ADD DUP6 DUP4 DUP4 ADD GT ISZERO PUSH2 0xCDA JUMPI PUSH1 0x0 DUP1 REVERT JUMPDEST PUSH2 0xCE5 DUP4 DUP3 DUP5 PUSH2 0x12DE JUMP JUMPDEST POP POP POP SWAP3 SWAP2 POP POP JUMP JUMPDEST PUSH1 0x0 PUSH2 0xCFA DUP3 CALLDATALOAD PUSH2 0x12D4 JUMP JUMPDEST SWAP1 POP SWAP3 SWAP2 POP POP JUMP JUMPDEST PUSH1 0x0 DUP1 PUSH1 0x0 PUSH1 0x60 DUP5 DUP7 SUB SLT ISZERO PUSH2 0xD17 JUMPI PUSH1 0x0 DUP1 REVERT JUMPDEST PUSH1 0x0 DUP5 ADD CALLDATALOAD PUSH8 0xFFFFFFFFFFFFFFFF DUP2 GT ISZERO PUSH2 0xD31 JUMPI PUSH1 0x0 DUP1 REVERT JUMPDEST PUSH2 0xD3D DUP7 DUP3 DUP8 ADD PUSH2 0xC98 JUMP JUMPDEST SWAP4 POP POP PUSH1 0x20 DUP5 ADD CALLDATALOAD PUSH8 0xFFFFFFFFFFFFFFFF DUP2 GT ISZERO PUSH2 0xD5A JUMPI PUSH1 0x0 DUP1 REVERT JUMPDEST PUSH2 0xD66 DUP7 DUP3 DUP8 ADD PUSH2 0xC98 JUMP JUMPDEST SWAP3 POP POP PUSH1 0x40 DUP5 ADD CALLDATALOAD PUSH8 0xFFFFFFFFFFFFFFFF DUP2 GT ISZERO PUSH2 0xD83 JUMPI PUSH1 0x0 DUP1 REVERT JUMPDEST PUSH2 0xD8F DUP7 DUP3 DUP8 ADD PUSH2 0xC98 JUMP JUMPDEST SWAP2 POP POP SWAP3 POP SWAP3 POP SWAP3 JUMP JUMPDEST PUSH1 0x0 DUP1 PUSH1 0x0 PUSH1 0x60 DUP5 DUP7 SUB SLT ISZERO PUSH2 0xDAE JUMPI PUSH1 0x0 DUP1 REVERT JUMPDEST PUSH1 0x0 PUSH2 0xDBC DUP7 DUP3 DUP8 ADD PUSH2 0xCEE JUMP JUMPDEST SWAP4 POP POP PUSH1 0x20 PUSH2 0xDCD DUP7 DUP3 DUP8 ADD PUSH2 0xC70 JUMP JUMPDEST SWAP3 POP POP PUSH1 0x40 PUSH2 0xDDE DUP7 DUP3 DUP8 ADD PUSH2 0xC84 JUMP JUMPDEST SWAP2 POP POP SWAP3 POP SWAP3 POP SWAP3 JUMP JUMPDEST PUSH2 0xDF1 DUP2 PUSH2 0x1264 JUMP JUMPDEST DUP3 MSTORE POP POP JUMP JUMPDEST PUSH1 0x0 PUSH2 0xE02 DUP3 PUSH2 0x1236 JUMP JUMPDEST DUP1 DUP5 MSTORE PUSH1 0x20 DUP5 ADD SWAP4 POP DUP4 PUSH1 0x20 DUP3 MUL DUP6 ADD PUSH2 0xE1B DUP6 PUSH2 0x1217 JUMP JUMPDEST PUSH1 0x0 JUMPDEST DUP5 DUP2 LT ISZERO PUSH2 0xE54 JUMPI DUP4 DUP4 SUB DUP9 MSTORE PUSH2 0xE36 DUP4 DUP4 MLOAD PUSH2 0xF75 JUMP JUMPDEST SWAP3 POP PUSH2 0xE41 DUP3 PUSH2 0x1257 JUMP JUMPDEST SWAP2 POP PUSH1 0x20 DUP9 ADD SWAP8 POP PUSH1 0x1 DUP2 ADD SWAP1 POP PUSH2 0xE1E JUMP JUMPDEST POP DUP2 SWAP7 POP DUP7 SWAP5 POP POP POP POP POP SWAP3 SWAP2 POP POP JUMP JUMPDEST PUSH2 0xE6E DUP2 PUSH2 0x1276 JUMP JUMPDEST DUP3 MSTORE POP POP JUMP JUMPDEST PUSH2 0xE7D DUP2 PUSH2 0x1282 JUMP JUMPDEST DUP3 MSTORE POP POP JUMP JUMPDEST PUSH1 0x0 PUSH2 0xE8E DUP3 PUSH2 0x124C JUMP JUMPDEST DUP1 DUP5 MSTORE PUSH2 0xEA2 DUP2 PUSH1 0x20 DUP7 ADD PUSH1 0x20 DUP7 ADD PUSH2 0x12ED JUMP JUMPDEST PUSH2 0xEAB DUP2 PUSH2 0x1320 JUMP JUMPDEST PUSH1 0x20 DUP6 ADD ADD SWAP2 POP POP SWAP3 SWAP2 POP POP JUMP JUMPDEST PUSH1 0x0 PUSH2 0xEC4 DUP3 PUSH2 0x1241 JUMP JUMPDEST DUP1 DUP5 MSTORE PUSH2 0xED8 DUP2 PUSH1 0x20 DUP7 ADD PUSH1 0x20 DUP7 ADD PUSH2 0x12ED JUMP JUMPDEST PUSH2 0xEE1 DUP2 PUSH2 0x1320 JUMP JUMPDEST PUSH1 0x20 DUP6 ADD ADD SWAP2 POP POP SWAP3 SWAP2 POP POP JUMP JUMPDEST PUSH1 0x0 DUP2 SLOAD PUSH1 0x1 DUP2 AND PUSH1 0x0 DUP2 EQ PUSH2 0xF0C JUMPI PUSH1 0x1 DUP2 EQ PUSH2 0xF2C JUMPI PUSH2 0xF6D JUMP JUMPDEST PUSH1 0x7F PUSH1 0x2 DUP4 DIV AND DUP1 DUP7 MSTORE PUSH1 0xFF NOT DUP4 AND PUSH1 0x20 DUP8 ADD MSTORE PUSH1 0x40 DUP7 ADD SWAP4 POP POP PUSH2 0xF6D JUMP JUMPDEST PUSH1 0x2 DUP3 DIV DUP1 DUP7 MSTORE PUSH1 0x20 DUP7 ADD SWAP6 POP PUSH2 0xF42 DUP6 PUSH2 0x1224 JUMP JUMPDEST PUSH1 0x0 JUMPDEST DUP3 DUP2 LT ISZERO PUSH2 0xF64 JUMPI DUP2 SLOAD DUP2 DUP10 ADD MSTORE PUSH1 0x1 DUP3 ADD SWAP2 POP PUSH1 0x20 DUP2 ADD SWAP1 POP PUSH2 0xF45 JUMP JUMPDEST DUP1 DUP9 ADD SWAP6 POP POP POP POP JUMPDEST POP POP SWAP3 SWAP2 POP POP JUMP JUMPDEST PUSH1 0x0 PUSH2 0x140 DUP4 ADD PUSH1 0x0 DUP4 ADD MLOAD PUSH2 0xF8E PUSH1 0x0 DUP7 ADD DUP3 PUSH2 0xDE8 JUMP JUMPDEST POP PUSH1 0x20 DUP4 ADD MLOAD PUSH2 0xFA1 PUSH1 0x20 DUP7 ADD DUP3 PUSH2 0xDE8 JUMP JUMPDEST POP PUSH1 0x40 DUP4 ADD MLOAD DUP5 DUP3 SUB PUSH1 0x40 DUP7 ADD MSTORE PUSH2 0xFB9 DUP3 DUP3 PUSH2 0xEB9 JUMP JUMPDEST SWAP2 POP POP PUSH1 0x60 DUP4 ADD MLOAD DUP5 DUP3 SUB PUSH1 0x60 DUP7 ADD MSTORE PUSH2 0xFD3 DUP3 DUP3 PUSH2 0xEB9 JUMP JUMPDEST SWAP2 POP POP PUSH1 0x80 DUP4 ADD MLOAD PUSH2 0xFE8 PUSH1 0x80 DUP7 ADD DUP3 PUSH2 0xE65 JUMP JUMPDEST POP PUSH1 0xA0 DUP4 ADD MLOAD PUSH2 0xFFB PUSH1 0xA0 DUP7 ADD DUP3 PUSH2 0xE65 JUMP JUMPDEST POP PUSH1 0xC0 DUP4 ADD MLOAD DUP5 DUP3 SUB PUSH1 0xC0 DUP7 ADD MSTORE PUSH2 0x1013 DUP3 DUP3 PUSH2 0xEB9 JUMP JUMPDEST SWAP2 POP POP PUSH1 0xE0 DUP4 ADD MLOAD PUSH2 0x1028 PUSH1 0xE0 DUP7 ADD DUP3 PUSH2 0x105D JUMP JUMPDEST POP PUSH2 0x100 DUP4 ADD MLOAD PUSH2 0x103D PUSH2 0x100 DUP7 ADD DUP3 PUSH2 0xE65 JUMP JUMPDEST POP PUSH2 0x120 DUP4 ADD MLOAD PUSH2 0x1052 PUSH2 0x120 DUP7 ADD DUP3 PUSH2 0x105D JUMP JUMPDEST POP DUP1 SWAP2 POP POP SWAP3 SWAP2 POP POP JUMP JUMPDEST PUSH2 0x1066 DUP2 PUSH2 0x12AC JUMP JUMPDEST DUP3 MSTORE POP POP JUMP JUMPDEST PUSH1 0x0 PUSH2 0x100 DUP3 ADD SWAP1 POP PUSH2 0x1082 PUSH1 0x0 DUP4 ADD DUP12 PUSH2 0xDE8 JUMP JUMPDEST PUSH2 0x108F PUSH1 0x20 DUP4 ADD DUP11 PUSH2 0xDE8 JUMP JUMPDEST DUP2 DUP2 SUB PUSH1 0x40 DUP4 ADD MSTORE PUSH2 0x10A1 DUP2 DUP10 PUSH2 0xE83 JUMP JUMPDEST SWAP1 POP PUSH2 0x10B0 PUSH1 0x60 DUP4 ADD DUP9 PUSH2 0xE74 JUMP JUMPDEST DUP2 DUP2 SUB PUSH1 0x80 DUP4 ADD MSTORE PUSH2 0x10C2 DUP2 DUP8 PUSH2 0xE83 JUMP JUMPDEST SWAP1 POP DUP2 DUP2 SUB PUSH1 0xA0 DUP4 ADD MSTORE PUSH2 0x10D6 DUP2 DUP7 PUSH2 0xE83 JUMP JUMPDEST SWAP1 POP PUSH2 0x10E5 PUSH1 0xC0 DUP4 ADD DUP6 PUSH2 0xE74 JUMP JUMPDEST DUP2 DUP2 SUB PUSH1 0xE0 DUP4 ADD MSTORE PUSH2 0x10F7 DUP2 DUP5 PUSH2 0xDF7 JUMP JUMPDEST SWAP1 POP SWAP10 SWAP9 POP POP POP POP POP POP POP POP POP JUMP JUMPDEST PUSH1 0x0 PUSH2 0x140 DUP3 ADD SWAP1 POP PUSH2 0x111C PUSH1 0x0 DUP4 ADD DUP14 PUSH2 0xDE8 JUMP JUMPDEST PUSH2 0x1129 PUSH1 0x20 DUP4 ADD DUP13 PUSH2 0xDE8 JUMP JUMPDEST DUP2 DUP2 SUB PUSH1 0x40 DUP4 ADD MSTORE PUSH2 0x113B DUP2 DUP12 PUSH2 0xE83 JUMP JUMPDEST SWAP1 POP DUP2 DUP2 SUB PUSH1 0x60 DUP4 ADD MSTORE PUSH2 0x114F DUP2 DUP11 PUSH2 0xE83 JUMP JUMPDEST SWAP1 POP DUP2 DUP2 SUB PUSH1 0x80 DUP4 ADD MSTORE PUSH2 0x1163 DUP2 DUP10 PUSH2 0xE83 JUMP JUMPDEST SWAP1 POP PUSH2 0x1172 PUSH1 0xA0 DUP4 ADD DUP9 PUSH2 0xE65 JUMP JUMPDEST PUSH2 0x117F PUSH1 0xC0 DUP4 ADD DUP8 PUSH2 0xE65 JUMP JUMPDEST PUSH2 0x118C PUSH1 0xE0 DUP4 ADD DUP7 PUSH2 0x105D JUMP JUMPDEST PUSH2 0x119A PUSH2 0x100 DUP4 ADD DUP6 PUSH2 0xE74 JUMP JUMPDEST DUP2 DUP2 SUB PUSH2 0x120 DUP4 ADD MSTORE PUSH2 0x11AD DUP2 DUP5 PUSH2 0xEEF JUMP JUMPDEST SWAP1 POP SWAP12 SWAP11 POP POP POP POP POP POP POP POP POP POP POP JUMP JUMPDEST PUSH1 0x0 PUSH1 0x40 MLOAD SWAP1 POP DUP2 DUP2 ADD DUP2 DUP2 LT PUSH8 0xFFFFFFFFFFFFFFFF DUP3 GT OR ISZERO PUSH2 0x11E1 JUMPI PUSH1 0x0 DUP1 REVERT JUMPDEST DUP1 PUSH1 0x40 MSTORE POP SWAP2 SWAP1 POP JUMP JUMPDEST PUSH1 0x0 PUSH8 0xFFFFFFFFFFFFFFFF DUP3 GT ISZERO PUSH2 0x1202 JUMPI PUSH1 0x0 DUP1 REVERT JUMPDEST PUSH1 0x1F NOT PUSH1 0x1F DUP4 ADD AND SWAP1 POP PUSH1 0x20 DUP2 ADD SWAP1 POP SWAP2 SWAP1 POP JUMP JUMPDEST PUSH1 0x0 PUSH1 0x20 DUP3 ADD SWAP1 POP SWAP2 SWAP1 POP JUMP JUMPDEST PUSH1 0x0 DUP2 PUSH1 0x0 MSTORE PUSH1 0x20 PUSH1 0x0 KECCAK256 SWAP1 POP SWAP2 SWAP1 POP JUMP JUMPDEST PUSH1 0x0 DUP2 MLOAD SWAP1 POP SWAP2 SWAP1 POP JUMP JUMPDEST PUSH1 0x0 DUP2 MLOAD SWAP1 POP SWAP2 SWAP1 POP JUMP JUMPDEST PUSH1 0x0 DUP2 MLOAD SWAP1 POP SWAP2 SWAP1 POP JUMP JUMPDEST PUSH1 0x0 PUSH1 0x20 DUP3 ADD SWAP1 POP SWAP2 SWAP1 POP JUMP JUMPDEST PUSH1 0x0 PUSH2 0x126F DUP3 PUSH2 0x128C JUMP JUMPDEST SWAP1 POP SWAP2 SWAP1 POP JUMP JUMPDEST PUSH1 0x0 DUP2 ISZERO ISZERO SWAP1 POP SWAP2 SWAP1 POP JUMP JUMPDEST PUSH1 0x0 DUP2 SWAP1 POP SWAP2 SWAP1 POP JUMP JUMPDEST PUSH1 0x0 PUSH20 0xFFFFFFFFFFFFFFFFFFFFFFFFFFFFFFFFFFFFFFFF DUP3 AND SWAP1 POP SWAP2 SWAP1 POP JUMP JUMPDEST PUSH1 0x0 DUP2 SWAP1 POP SWAP2 SWAP1 POP JUMP JUMPDEST PUSH1 0x0 PUSH2 0x12C1 DUP3 PUSH2 0x128C JUMP JUMPDEST SWAP1 POP SWAP2 SWAP1 POP JUMP JUMPDEST PUSH1 0x0 DUP2 ISZERO ISZERO SWAP1 POP SWAP2 SWAP1 POP JUMP JUMPDEST PUSH1 0x0 DUP2 SWAP1 POP SWAP2 SWAP1 POP JUMP JUMPDEST DUP3 DUP2 DUP4 CALLDATACOPY PUSH1 0x0 DUP4 DUP4 ADD MSTORE POP POP POP JUMP JUMPDEST PUSH1 0x0 JUMPDEST DUP4 DUP2 LT ISZERO PUSH2 0x130B JUMPI DUP1 DUP3 ADD MLOAD DUP2 DUP5 ADD MSTORE PUSH1 0x20 DUP2 ADD SWAP1 POP PUSH2 0x12F0 JUMP JUMPDEST DUP4 DUP2 GT ISZERO PUSH2 0x131A JUMPI PUSH1 0x0 DUP5 DUP5 ADD MSTORE JUMPDEST POP POP POP POP JUMP JUMPDEST PUSH1 0x0 PUSH1 0x1F NOT PUSH1 0x1F DUP4 ADD AND SWAP1 POP SWAP2 SWAP1 POP JUMP INVALID LOG2 PUSH6 0x627A7A723058 KECCAK256 0xdc 0xcf PUSH3 0x79354F DUP9 MSTORE MLOAD 0xd3 PUSH10 0x8E7CB6E7322545349EA DUP5 0x2a PUSH18 0x369D26265BE9AA436C6578706572696D656E PUSH21 0x616CF50037A265627A7A72305820A5E187F13B7BF5 MLOAD DUP1 DIV RETURNDATASIZE PUSH18 0x2DD63FB0F37189A817B8C3B8ED5F973E1DCA SWAP7 0xec PUSH13 0x6578706572696D656E74616CF5 STOP CALLDATACOPY LOG2 PUSH6 0x627A7A723058 KECCAK256 LOG3 0xaf 0xe0 DUP15 RETURNDATACOPY SGT PUSH1 0x6A 0x2b 0xdc PUSH6 0x3E5136B4D92 PUSH18 0x1FE8307F089F4666103E372F5B456C657870 PUSH6 0x72696D656E74 PUSH2 0x6CF5 STOP CALLDATACOPY "
    },
    "gasEstimates": {
      "creation": {
        "codeDepositCost": "3326000",
        "executionCost": "3699",
        "totalCost": "3329699"
      },
      "external": {
        "createOwner(string)": "infinite",
        "getInsuranceAddress(int256)": "941",
        "getInsuranceNumberCount(int256)": "878",
        "getOwnerAddress()": "717",
        "getRecordAddress(int256)": "984",
        "setInsuranceAddress(int256,address,int256,int256)": "infinite",
        "setRecordAddress(int256,address)": "20896"
      }
    },
    "methodIdentifiers": {
      "createOwner(string)": "5bab83fb",
      "getInsuranceAddress(int256)": "30c5d748",
      "getInsuranceNumberCount(int256)": "394555aa",
      "getOwnerAddress()": "0c4f65bd",
      "getRecordAddress(int256)": "cd1c8675",
      "setInsuranceAddress(int256,address,int256,int256)": "4abeed14",
      "setRecordAddress(int256,address)": "510d7f86"
    }
  },
  "userdoc": {
    "methods": {}
  }
}