{
  "abi": [
    {
      "constant": false,
      "inputs": [
        {
          "name": "aadharr",
          "type": "int256"
        },
        {
          "name": "namee",
          "type": "string"
        },
        {
          "name": "detailss",
          "type": "string"
        }
      ],
      "name": "addDoctor",
      "outputs": [],
      "payable": false,
      "stateMutability": "nonpayable",
      "type": "function"
    },
    {
      "constant": true,
      "inputs": [
        {
          "name": "add",
          "type": "address"
        }
      ],
      "name": "isDoctor",
      "outputs": [
        {
          "name": "",
          "type": "bool"
        }
      ],
      "payable": false,
      "stateMutability": "view",
      "type": "function"
    },
    {
      "constant": false,
      "inputs": [
        {
          "name": "namee",
          "type": "string"
        },
        {
          "name": "genderr",
          "type": "string"
        },
        {
          "name": "dobb",
          "type": "string"
        },
        {
          "name": "mobilee",
          "type": "string"
        },
        {
          "name": "aadharr",
          "type": "int256"
        },
        {
          "name": "paddresss",
          "type": "string"
        },
        {
          "name": "postalcodee",
          "type": "string"
        },
        {
          "name": "countryy",
          "type": "string"
        },
        {
          "name": "passwordd",
          "type": "string"
        },
        {
          "name": "filePassword",
          "type": "string"
        }
      ],
      "name": "createMedicalRecord",
      "outputs": [],
      "payable": false,
      "stateMutability": "nonpayable",
      "type": "function"
    },
    {
      "constant": true,
      "inputs": [
        {
          "name": "",
          "type": "address"
        }
      ],
      "name": "map",
      "outputs": [
        {
          "name": "aadhar",
          "type": "int256"
        },
        {
          "name": "name",
          "type": "string"
        },
        {
          "name": "details",
          "type": "string"
        }
      ],
      "payable": false,
      "stateMutability": "view",
      "type": "function"
    },
    {
      "constant": true,
      "inputs": [
        {
          "name": "",
          "type": "address"
        }
      ],
      "name": "check",
      "outputs": [
        {
          "name": "",
          "type": "bool"
        }
      ],
      "payable": false,
      "stateMutability": "view",
      "type": "function"
    },
    {
      "constant": true,
      "inputs": [
        {
          "name": "aadhar",
          "type": "int256"
        }
      ],
      "name": "getDoctorAddress",
      "outputs": [
        {
          "name": "",
          "type": "address"
        }
      ],
      "payable": false,
      "stateMutability": "view",
      "type": "function"
    },
    {
      "constant": true,
      "inputs": [
        {
          "name": "",
          "type": "int256"
        }
      ],
      "name": "getAddress",
      "outputs": [
        {
          "name": "",
          "type": "address"
        }
      ],
      "payable": false,
      "stateMutability": "view",
      "type": "function"
    }
  ],
  "devdoc": {
    "methods": {}
  },
  "evm": {
    "assembly": "    /* \"background.sol\":592:2200  contract Doctor {\r... */\n  mstore(0x40, 0x80)\n  callvalue\n    /* \"--CODEGEN--\":8:17   */\n  dup1\n    /* \"--CODEGEN--\":5:7   */\n  iszero\n  tag_1\n  jumpi\n    /* \"--CODEGEN--\":30:31   */\n  0x00\n    /* \"--CODEGEN--\":27:28   */\n  dup1\n    /* \"--CODEGEN--\":20:32   */\n  revert\n    /* \"--CODEGEN--\":5:7   */\ntag_1:\n    /* \"background.sol\":592:2200  contract Doctor {\r... */\n  pop\n  dataSize(sub_0)\n  dup1\n  dataOffset(sub_0)\n  0x00\n  codecopy\n  0x00\n  return\nstop\n\nsub_0: assembly {\n        /* \"background.sol\":592:2200  contract Doctor {\r... */\n      mstore(0x40, 0x80)\n      callvalue\n        /* \"--CODEGEN--\":8:17   */\n      dup1\n        /* \"--CODEGEN--\":5:7   */\n      iszero\n      tag_1\n      jumpi\n        /* \"--CODEGEN--\":30:31   */\n      0x00\n        /* \"--CODEGEN--\":27:28   */\n      dup1\n        /* \"--CODEGEN--\":20:32   */\n      revert\n        /* \"--CODEGEN--\":5:7   */\n    tag_1:\n        /* \"background.sol\":592:2200  contract Doctor {\r... */\n      pop\n      jumpi(tag_2, lt(calldatasize, 0x04))\n      calldataload(0x00)\n      0x0100000000000000000000000000000000000000000000000000000000\n      swap1\n      div\n      dup1\n      0xb721ef6e\n      gt\n      tag_10\n      jumpi\n      dup1\n      0xb721ef6e\n      eq\n      tag_6\n      jumpi\n      dup1\n      0xc23697a8\n      eq\n      tag_7\n      jumpi\n      dup1\n      0xca3a82bb\n      eq\n      tag_8\n      jumpi\n      dup1\n      0xf9c40920\n      eq\n      tag_9\n      jumpi\n      jump(tag_2)\n    tag_10:\n      dup1\n      0x5e44b1f6\n      eq\n      tag_3\n      jumpi\n      dup1\n      0x996440c6\n      eq\n      tag_4\n      jumpi\n      dup1\n      0x9a62bbee\n      eq\n      tag_5\n      jumpi\n    tag_2:\n      0x00\n      dup1\n      revert\n        /* \"background.sol\":996:1413  function addDoctor(int aadharr, string memory namee, string memory detailss) public {\r... */\n    tag_3:\n      tag_11\n      0x04\n      dup1\n      calldatasize\n      sub\n      tag_12\n      swap2\n      swap1\n      dup2\n      add\n      swap1\n      jump(tag_13)\n    tag_12:\n      tag_14\n      jump\t// in\n    tag_11:\n      stop\n        /* \"background.sol\":849:988  function isDoctor(address add) public view returns (bool) {\r... */\n    tag_4:\n      tag_15\n      0x04\n      dup1\n      calldatasize\n      sub\n      tag_16\n      swap2\n      swap1\n      dup2\n      add\n      swap1\n      jump(tag_17)\n    tag_16:\n      tag_18\n      jump\t// in\n    tag_15:\n      mload(0x40)\n      tag_19\n      swap2\n      swap1\n      jump(tag_20)\n    tag_19:\n      mload(0x40)\n      dup1\n      swap2\n      sub\n      swap1\n      return\n        /* \"background.sol\":1546:2197  function createMedicalRecord(string memory namee, string memory genderr, string memory dobb, string memory mobilee, int aadharr, string memory paddresss, \r... */\n    tag_5:\n      tag_21\n      0x04\n      dup1\n      calldatasize\n      sub\n      tag_22\n      swap2\n      swap1\n      dup2\n      add\n      swap1\n      jump(tag_23)\n    tag_22:\n      tag_24\n      jump\t// in\n    tag_21:\n      stop\n        /* \"background.sol\":711:748  mapping(address => doctor) public map */\n    tag_6:\n      tag_25\n      0x04\n      dup1\n      calldatasize\n      sub\n      tag_26\n      swap2\n      swap1\n      dup2\n      add\n      swap1\n      jump(tag_17)\n    tag_26:\n      tag_27\n      jump\t// in\n    tag_25:\n      mload(0x40)\n      tag_28\n      swap4\n      swap3\n      swap2\n      swap1\n      jump(tag_29)\n    tag_28:\n      mload(0x40)\n      dup1\n      swap2\n      sub\n      swap1\n      return\n        /* \"background.sol\":755:792  mapping(address => bool) public check */\n    tag_7:\n      tag_30\n      0x04\n      dup1\n      calldatasize\n      sub\n      tag_31\n      swap2\n      swap1\n      dup2\n      add\n      swap1\n      jump(tag_17)\n    tag_31:\n      tag_32\n      jump\t// in\n    tag_30:\n      mload(0x40)\n      tag_33\n      swap2\n      swap1\n      jump(tag_20)\n    tag_33:\n      mload(0x40)\n      dup1\n      swap2\n      sub\n      swap1\n      return\n        /* \"background.sol\":1425:1538  function getDoctorAddress(int aadhar) public view returns(address) {\r... */\n    tag_8:\n      tag_34\n      0x04\n      dup1\n      calldatasize\n      sub\n      tag_35\n      swap2\n      swap1\n      dup2\n      add\n      swap1\n      jump(tag_36)\n    tag_35:\n      tag_37\n      jump\t// in\n    tag_34:\n      mload(0x40)\n      tag_38\n      swap2\n      swap1\n      jump(tag_39)\n    tag_38:\n      mload(0x40)\n      dup1\n      swap2\n      sub\n      swap1\n      return\n        /* \"background.sol\":799:840  mapping(int => address) public getAddress */\n    tag_9:\n      tag_40\n      0x04\n      dup1\n      calldatasize\n      sub\n      tag_41\n      swap2\n      swap1\n      dup2\n      add\n      swap1\n      jump(tag_36)\n    tag_41:\n      tag_42\n      jump\t// in\n    tag_40:\n      mload(0x40)\n      tag_43\n      swap2\n      swap1\n      jump(tag_39)\n    tag_43:\n      mload(0x40)\n      dup1\n      swap2\n      sub\n      swap1\n      return\n        /* \"background.sol\":996:1413  function addDoctor(int aadharr, string memory namee, string memory detailss) public {\r... */\n    tag_14:\n        /* \"background.sol\":1095:1100  check */\n      0x01\n        /* \"background.sol\":1095:1112  check[msg.sender] */\n      0x00\n        /* \"background.sol\":1101:1111  msg.sender */\n      caller\n        /* \"background.sol\":1095:1112  check[msg.sender] */\n      0xffffffffffffffffffffffffffffffffffffffff\n      and\n      0xffffffffffffffffffffffffffffffffffffffff\n      and\n      dup2\n      mstore\n      0x20\n      add\n      swap1\n      dup2\n      mstore\n      0x20\n      add\n      0x00\n      keccak256\n      0x00\n      swap1\n      sload\n      swap1\n      0x0100\n      exp\n      swap1\n      div\n      0xff\n      and\n        /* \"background.sol\":1094:1112  !check[msg.sender] */\n      iszero\n        /* \"background.sol\":1091:1406  if(!check[msg.sender]) {\r... */\n      iszero\n      tag_45\n      jumpi\n        /* \"background.sol\":1129:1146  doctor memory doc */\n      tag_46\n      tag_47\n      jump\t// in\n    tag_46:\n        /* \"background.sol\":1149:1272  doctor({\r... */\n      0x60\n      mload(0x40)\n      swap1\n      dup2\n      add\n      0x40\n      mstore\n      dup1\n        /* \"background.sol\":1183:1190  aadharr */\n      dup6\n        /* \"background.sol\":1149:1272  doctor({\r... */\n      dup2\n      mstore\n      0x20\n      add\n        /* \"background.sol\":1215:1220  namee */\n      dup5\n        /* \"background.sol\":1149:1272  doctor({\r... */\n      dup2\n      mstore\n      0x20\n      add\n        /* \"background.sol\":1248:1256  detailss */\n      dup4\n        /* \"background.sol\":1149:1272  doctor({\r... */\n      dup2\n      mstore\n      pop\n        /* \"background.sol\":1129:1272  doctor memory doc = doctor({\r... */\n      swap1\n      pop\n        /* \"background.sol\":1307:1311  true */\n      0x01\n        /* \"background.sol\":1287:1292  check */\n      dup1\n        /* \"background.sol\":1287:1304  check[msg.sender] */\n      0x00\n        /* \"background.sol\":1293:1303  msg.sender */\n      caller\n        /* \"background.sol\":1287:1304  check[msg.sender] */\n      0xffffffffffffffffffffffffffffffffffffffff\n      and\n      0xffffffffffffffffffffffffffffffffffffffff\n      and\n      dup2\n      mstore\n      0x20\n      add\n      swap1\n      dup2\n      mstore\n      0x20\n      add\n      0x00\n      keccak256\n      0x00\n        /* \"background.sol\":1287:1311  check[msg.sender] = true */\n      0x0100\n      exp\n      dup2\n      sload\n      dup2\n      0xff\n      mul\n      not\n      and\n      swap1\n      dup4\n      iszero\n      iszero\n      mul\n      or\n      swap1\n      sstore\n      pop\n        /* \"background.sol\":1344:1347  doc */\n      dup1\n        /* \"background.sol\":1326:1329  map */\n      0x00\n        /* \"background.sol\":1326:1341  map[msg.sender] */\n      dup1\n        /* \"background.sol\":1330:1340  msg.sender */\n      caller\n        /* \"background.sol\":1326:1341  map[msg.sender] */\n      0xffffffffffffffffffffffffffffffffffffffff\n      and\n      0xffffffffffffffffffffffffffffffffffffffff\n      and\n      dup2\n      mstore\n      0x20\n      add\n      swap1\n      dup2\n      mstore\n      0x20\n      add\n      0x00\n      keccak256\n        /* \"background.sol\":1326:1347  map[msg.sender] = doc */\n      0x00\n      dup3\n      add\n      mload\n      dup2\n      0x00\n      add\n      sstore\n      0x20\n      dup3\n      add\n      mload\n      dup2\n      0x01\n      add\n      swap1\n      dup1\n      mload\n      swap1\n      0x20\n      add\n      swap1\n      tag_48\n      swap3\n      swap2\n      swap1\n      tag_49\n      jump\t// in\n    tag_48:\n      pop\n      0x40\n      dup3\n      add\n      mload\n      dup2\n      0x02\n      add\n      swap1\n      dup1\n      mload\n      swap1\n      0x20\n      add\n      swap1\n      tag_50\n      swap3\n      swap2\n      swap1\n      tag_49\n      jump\t// in\n    tag_50:\n      pop\n      swap1\n      pop\n      pop\n        /* \"background.sol\":1384:1394  msg.sender */\n      caller\n        /* \"background.sol\":1362:1372  getAddress */\n      0x02\n        /* \"background.sol\":1362:1381  getAddress[aadharr] */\n      0x00\n        /* \"background.sol\":1373:1380  aadharr */\n      dup7\n        /* \"background.sol\":1362:1381  getAddress[aadharr] */\n      dup2\n      mstore\n      0x20\n      add\n      swap1\n      dup2\n      mstore\n      0x20\n      add\n      0x00\n      keccak256\n      0x00\n        /* \"background.sol\":1362:1394  getAddress[aadharr] = msg.sender */\n      0x0100\n      exp\n      dup2\n      sload\n      dup2\n      0xffffffffffffffffffffffffffffffffffffffff\n      mul\n      not\n      and\n      swap1\n      dup4\n      0xffffffffffffffffffffffffffffffffffffffff\n      and\n      mul\n      or\n      swap1\n      sstore\n      pop\n        /* \"background.sol\":1091:1406  if(!check[msg.sender]) {\r... */\n      pop\n    tag_45:\n        /* \"background.sol\":996:1413  function addDoctor(int aadharr, string memory namee, string memory detailss) public {\r... */\n      pop\n      pop\n      pop\n      jump\t// out\n        /* \"background.sol\":849:988  function isDoctor(address add) public view returns (bool) {\r... */\n    tag_18:\n        /* \"background.sol\":901:905  bool */\n      0x00\n        /* \"background.sol\":921:926  check */\n      0x01\n        /* \"background.sol\":921:931  check[add] */\n      0x00\n        /* \"background.sol\":927:930  add */\n      dup4\n        /* \"background.sol\":921:931  check[add] */\n      0xffffffffffffffffffffffffffffffffffffffff\n      and\n      0xffffffffffffffffffffffffffffffffffffffff\n      and\n      dup2\n      mstore\n      0x20\n      add\n      swap1\n      dup2\n      mstore\n      0x20\n      add\n      0x00\n      keccak256\n      0x00\n      swap1\n      sload\n      swap1\n      0x0100\n      exp\n      swap1\n      div\n      0xff\n      and\n        /* \"background.sol\":918:957  if(check[add])\r... */\n      iszero\n      tag_52\n      jumpi\n        /* \"background.sol\":953:957  true */\n      0x01\n        /* \"background.sol\":946:957  return true */\n      swap1\n      pop\n      jump(tag_51)\n        /* \"background.sol\":918:957  if(check[add])\r... */\n    tag_52:\n        /* \"background.sol\":975:980  false */\n      0x00\n        /* \"background.sol\":968:980  return false */\n      swap1\n      pop\n        /* \"background.sol\":849:988  function isDoctor(address add) public view returns (bool) {\r... */\n    tag_51:\n      swap2\n      swap1\n      pop\n      jump\t// out\n        /* \"background.sol\":1546:2197  function createMedicalRecord(string memory namee, string memory genderr, string memory dobb, string memory mobilee, int aadharr, string memory paddresss, \r... */\n    tag_24:\n        /* \"background.sol\":1831:1836  check */\n      0x01\n        /* \"background.sol\":1831:1848  check[msg.sender] */\n      0x00\n        /* \"background.sol\":1837:1847  msg.sender */\n      caller\n        /* \"background.sol\":1831:1848  check[msg.sender] */\n      0xffffffffffffffffffffffffffffffffffffffff\n      and\n      0xffffffffffffffffffffffffffffffffffffffff\n      and\n      dup2\n      mstore\n      0x20\n      add\n      swap1\n      dup2\n      mstore\n      0x20\n      add\n      0x00\n      keccak256\n      0x00\n      swap1\n      sload\n      swap1\n      0x0100\n      exp\n      swap1\n      div\n      0xff\n      and\n        /* \"background.sol\":1828:2190  if(check[msg.sender]) {\r... */\n      iszero\n      tag_54\n      jumpi\n        /* \"background.sol\":1865:1882  AddressMapping am */\n      0x00\n        /* \"background.sol\":1900:1942  0xc821543770F3256f9f78354D6193777dA338f6D1 */\n      0xc821543770f3256f9f78354d6193777da338f6d1\n        /* \"background.sol\":1865:1943  AddressMapping am = AddressMapping(0xc821543770F3256f9f78354D6193777dA338f6D1) */\n      swap1\n      pop\n        /* \"background.sol\":1958:1975  address returnAdd */\n      0x00\n        /* \"background.sol\":2004:2009  namee */\n      dup12\n        /* \"background.sol\":2011:2018  genderr */\n      dup12\n        /* \"background.sol\":2020:2024  dobb */\n      dup12\n        /* \"background.sol\":2026:2033  mobilee */\n      dup12\n        /* \"background.sol\":2035:2042  aadharr */\n      dup12\n        /* \"background.sol\":2044:2053  paddresss */\n      dup12\n        /* \"background.sol\":2055:2066  postalcodee */\n      dup12\n        /* \"background.sol\":2068:2076  countryy */\n      dup12\n        /* \"background.sol\":2078:2087  passwordd */\n      dup12\n        /* \"background.sol\":2089:2101  filePassword */\n      dup12\n        /* \"background.sol\":2111:2121  msg.sender */\n      caller\n        /* \"background.sol\":1986:2123  new MedicalRecord(namee, genderr, dobb, mobilee, aadharr, paddresss, postalcodee, countryy, passwordd, filePassword, address(msg.sender)) */\n      tag_55\n      tag_56\n      jump\t// in\n    tag_55:\n      tag_57\n      swap12\n      swap11\n      swap10\n      swap9\n      swap8\n      swap7\n      swap6\n      swap5\n      swap4\n      swap3\n      swap2\n      swap1\n      jump(tag_58)\n    tag_57:\n      mload(0x40)\n      dup1\n      swap2\n      sub\n      swap1\n      0x00\n      create\n      dup1\n      iszero\n        /* \"--CODEGEN--\":8:17   */\n      dup1\n        /* \"--CODEGEN--\":5:7   */\n      iszero\n      tag_59\n      jumpi\n        /* \"--CODEGEN--\":45:61   */\n      returndatasize\n        /* \"--CODEGEN--\":42:43   */\n      0x00\n        /* \"--CODEGEN--\":39:40   */\n      dup1\n        /* \"--CODEGEN--\":24:62   */\n      returndatacopy\n        /* \"--CODEGEN--\":77:93   */\n      returndatasize\n        /* \"--CODEGEN--\":74:75   */\n      0x00\n        /* \"--CODEGEN--\":67:94   */\n      revert\n        /* \"--CODEGEN--\":5:7   */\n    tag_59:\n        /* \"background.sol\":1986:2123  new MedicalRecord(namee, genderr, dobb, mobilee, aadharr, paddresss, postalcodee, countryy, passwordd, filePassword, address(msg.sender)) */\n      pop\n        /* \"background.sol\":1958:2124  address returnAdd = address(new MedicalRecord(namee, genderr, dobb, mobilee, aadharr, paddresss, postalcodee, countryy, passwordd, filePassword, address(msg.sender))) */\n      swap1\n      pop\n        /* \"background.sol\":2139:2141  am */\n      dup2\n        /* \"background.sol\":2139:2158  am.setRecordAddress */\n      0xffffffffffffffffffffffffffffffffffffffff\n      and\n      0x510d7f86\n        /* \"background.sol\":2159:2166  aadharr */\n      dup10\n        /* \"background.sol\":2168:2177  returnAdd */\n      dup4\n        /* \"background.sol\":2139:2178  am.setRecordAddress(aadharr, returnAdd) */\n      mload(0x40)\n      dup4\n      0xffffffff\n      and\n      0x0100000000000000000000000000000000000000000000000000000000\n      mul\n      dup2\n      mstore\n      0x04\n      add\n      tag_60\n      swap3\n      swap2\n      swap1\n      jump(tag_61)\n    tag_60:\n      0x00\n      mload(0x40)\n      dup1\n      dup4\n      sub\n      dup2\n      0x00\n      dup8\n      dup1\n      extcodesize\n      iszero\n        /* \"--CODEGEN--\":8:17   */\n      dup1\n        /* \"--CODEGEN--\":5:7   */\n      iszero\n      tag_62\n      jumpi\n        /* \"--CODEGEN--\":30:31   */\n      0x00\n        /* \"--CODEGEN--\":27:28   */\n      dup1\n        /* \"--CODEGEN--\":20:32   */\n      revert\n        /* \"--CODEGEN--\":5:7   */\n    tag_62:\n        /* \"background.sol\":2139:2178  am.setRecordAddress(aadharr, returnAdd) */\n      pop\n      gas\n      call\n      iszero\n        /* \"--CODEGEN--\":8:17   */\n      dup1\n        /* \"--CODEGEN--\":5:7   */\n      iszero\n      tag_63\n      jumpi\n        /* \"--CODEGEN--\":45:61   */\n      returndatasize\n        /* \"--CODEGEN--\":42:43   */\n      0x00\n        /* \"--CODEGEN--\":39:40   */\n      dup1\n        /* \"--CODEGEN--\":24:62   */\n      returndatacopy\n        /* \"--CODEGEN--\":77:93   */\n      returndatasize\n        /* \"--CODEGEN--\":74:75   */\n      0x00\n        /* \"--CODEGEN--\":67:94   */\n      revert\n        /* \"--CODEGEN--\":5:7   */\n    tag_63:\n        /* \"background.sol\":2139:2178  am.setRecordAddress(aadharr, returnAdd) */\n      pop\n      pop\n      pop\n      pop\n        /* \"background.sol\":1828:2190  if(check[msg.sender]) {\r... */\n      pop\n      pop\n    tag_54:\n        /* \"background.sol\":1546:2197  function createMedicalRecord(string memory namee, string memory genderr, string memory dobb, string memory mobilee, int aadharr, string memory paddresss, \r... */\n      pop\n      pop\n      pop\n      pop\n      pop\n      pop\n      pop\n      pop\n      pop\n      pop\n      jump\t// out\n        /* \"background.sol\":711:748  mapping(address => doctor) public map */\n    tag_27:\n      mstore(0x20, 0x00)\n      dup1\n      0x00\n      mstore\n      keccak256(0x00, 0x40)\n      0x00\n      swap2\n      pop\n      swap1\n      pop\n      dup1\n      0x00\n      add\n      sload\n      swap1\n      dup1\n      0x01\n      add\n      dup1\n      sload\n      0x01\n      dup2\n      0x01\n      and\n      iszero\n      0x0100\n      mul\n      sub\n      and\n      0x02\n      swap1\n      div\n      dup1\n      0x1f\n      add\n      0x20\n      dup1\n      swap2\n      div\n      mul\n      0x20\n      add\n      mload(0x40)\n      swap1\n      dup2\n      add\n      0x40\n      mstore\n      dup1\n      swap3\n      swap2\n      swap1\n      dup2\n      dup2\n      mstore\n      0x20\n      add\n      dup3\n      dup1\n      sload\n      0x01\n      dup2\n      0x01\n      and\n      iszero\n      0x0100\n      mul\n      sub\n      and\n      0x02\n      swap1\n      div\n      dup1\n      iszero\n      tag_64\n      jumpi\n      dup1\n      0x1f\n      lt\n      tag_65\n      jumpi\n      0x0100\n      dup1\n      dup4\n      sload\n      div\n      mul\n      dup4\n      mstore\n      swap2\n      0x20\n      add\n      swap2\n      jump(tag_64)\n    tag_65:\n      dup3\n      add\n      swap2\n      swap1\n      0x00\n      mstore\n      keccak256(0x00, 0x20)\n      swap1\n    tag_66:\n      dup2\n      sload\n      dup2\n      mstore\n      swap1\n      0x01\n      add\n      swap1\n      0x20\n      add\n      dup1\n      dup4\n      gt\n      tag_66\n      jumpi\n      dup3\n      swap1\n      sub\n      0x1f\n      and\n      dup3\n      add\n      swap2\n    tag_64:\n      pop\n      pop\n      pop\n      pop\n      pop\n      swap1\n      dup1\n      0x02\n      add\n      dup1\n      sload\n      0x01\n      dup2\n      0x01\n      and\n      iszero\n      0x0100\n      mul\n      sub\n      and\n      0x02\n      swap1\n      div\n      dup1\n      0x1f\n      add\n      0x20\n      dup1\n      swap2\n      div\n      mul\n      0x20\n      add\n      mload(0x40)\n      swap1\n      dup2\n      add\n      0x40\n      mstore\n      dup1\n      swap3\n      swap2\n      swap1\n      dup2\n      dup2\n      mstore\n      0x20\n      add\n      dup3\n      dup1\n      sload\n      0x01\n      dup2\n      0x01\n      and\n      iszero\n      0x0100\n      mul\n      sub\n      and\n      0x02\n      swap1\n      div\n      dup1\n      iszero\n      tag_67\n      jumpi\n      dup1\n      0x1f\n      lt\n      tag_68\n      jumpi\n      0x0100\n      dup1\n      dup4\n      sload\n      div\n      mul\n      dup4\n      mstore\n      swap2\n      0x20\n      add\n      swap2\n      jump(tag_67)\n    tag_68:\n      dup3\n      add\n      swap2\n      swap1\n      0x00\n      mstore\n      keccak256(0x00, 0x20)\n      swap1\n    tag_69:\n      dup2\n      sload\n      dup2\n      mstore\n      swap1\n      0x01\n      add\n      swap1\n      0x20\n      add\n      dup1\n      dup4\n      gt\n      tag_69\n      jumpi\n      dup3\n      swap1\n      sub\n      0x1f\n      and\n      dup3\n      add\n      swap2\n    tag_67:\n      pop\n      pop\n      pop\n      pop\n      pop\n      swap1\n      pop\n      dup4\n      jump\t// out\n        /* \"background.sol\":755:792  mapping(address => bool) public check */\n    tag_32:\n      mstore(0x20, 0x01)\n      dup1\n      0x00\n      mstore\n      keccak256(0x00, 0x40)\n      0x00\n      swap2\n      pop\n      sload\n      swap1\n      0x0100\n      exp\n      swap1\n      div\n      0xff\n      and\n      dup2\n      jump\t// out\n        /* \"background.sol\":1425:1538  function getDoctorAddress(int aadhar) public view returns(address) {\r... */\n    tag_37:\n        /* \"background.sol\":1483:1490  address */\n      0x00\n        /* \"background.sol\":1511:1521  getAddress */\n      0x02\n        /* \"background.sol\":1511:1529  getAddress[aadhar] */\n      0x00\n        /* \"background.sol\":1522:1528  aadhar */\n      dup4\n        /* \"background.sol\":1511:1529  getAddress[aadhar] */\n      dup2\n      mstore\n      0x20\n      add\n      swap1\n      dup2\n      mstore\n      0x20\n      add\n      0x00\n      keccak256\n      0x00\n      swap1\n      sload\n      swap1\n      0x0100\n      exp\n      swap1\n      div\n      0xffffffffffffffffffffffffffffffffffffffff\n      and\n        /* \"background.sol\":1503:1530  return (getAddress[aadhar]) */\n      swap1\n      pop\n        /* \"background.sol\":1425:1538  function getDoctorAddress(int aadhar) public view returns(address) {\r... */\n      swap2\n      swap1\n      pop\n      jump\t// out\n        /* \"background.sol\":799:840  mapping(int => address) public getAddress */\n    tag_42:\n      mstore(0x20, 0x02)\n      dup1\n      0x00\n      mstore\n      keccak256(0x00, 0x40)\n      0x00\n      swap2\n      pop\n      sload\n      swap1\n      0x0100\n      exp\n      swap1\n      div\n      0xffffffffffffffffffffffffffffffffffffffff\n      and\n      dup2\n      jump\t// out\n        /* \"background.sol\":592:2200  contract Doctor {\r... */\n    tag_47:\n      0x60\n      mload(0x40)\n      swap1\n      dup2\n      add\n      0x40\n      mstore\n      dup1\n      0x00\n      dup2\n      mstore\n      0x20\n      add\n      0x60\n      dup2\n      mstore\n      0x20\n      add\n      0x60\n      dup2\n      mstore\n      pop\n      swap1\n      jump\t// out\n    tag_49:\n      dup3\n      dup1\n      sload\n      0x01\n      dup2\n      0x01\n      and\n      iszero\n      0x0100\n      mul\n      sub\n      and\n      0x02\n      swap1\n      div\n      swap1\n      0x00\n      mstore\n      keccak256(0x00, 0x20)\n      swap1\n      0x1f\n      add\n      0x20\n      swap1\n      div\n      dup2\n      add\n      swap3\n      dup3\n      0x1f\n      lt\n      tag_72\n      jumpi\n      dup1\n      mload\n      not(0xff)\n      and\n      dup4\n      dup1\n      add\n      or\n      dup6\n      sstore\n      jump(tag_71)\n    tag_72:\n      dup3\n      dup1\n      add\n      0x01\n      add\n      dup6\n      sstore\n      dup3\n      iszero\n      tag_71\n      jumpi\n      swap2\n      dup3\n      add\n    tag_73:\n      dup3\n      dup2\n      gt\n      iszero\n      tag_74\n      jumpi\n      dup3\n      mload\n      dup3\n      sstore\n      swap2\n      0x20\n      add\n      swap2\n      swap1\n      0x01\n      add\n      swap1\n      jump(tag_73)\n    tag_74:\n    tag_71:\n      pop\n      swap1\n      pop\n      tag_75\n      swap2\n      swap1\n      tag_76\n      jump\t// in\n    tag_75:\n      pop\n      swap1\n      jump\t// out\n    tag_56:\n      mload(0x40)\n      dataSize(sub_0)\n      dup1\n      dataOffset(sub_0)\n      dup4\n      codecopy\n      add\n      swap1\n      jump\t// out\n    tag_76:\n      tag_77\n      swap2\n      swap1\n    tag_78:\n      dup1\n      dup3\n      gt\n      iszero\n      tag_79\n      jumpi\n      0x00\n      dup2\n      0x00\n      swap1\n      sstore\n      pop\n      0x01\n      add\n      jump(tag_78)\n    tag_79:\n      pop\n      swap1\n      jump\n    tag_77:\n      swap1\n      jump\t// out\n        /* \"--CODEGEN--\":5:123   */\n    tag_81:\n      0x00\n        /* \"--CODEGEN--\":72:118   */\n      tag_82\n        /* \"--CODEGEN--\":110:116   */\n      dup3\n        /* \"--CODEGEN--\":97:117   */\n      calldataload\n        /* \"--CODEGEN--\":72:118   */\n      jump(tag_83)\n    tag_82:\n        /* \"--CODEGEN--\":63:118   */\n      swap1\n      pop\n        /* \"--CODEGEN--\":57:123   */\n      swap3\n      swap2\n      pop\n      pop\n      jump\n        /* \"--CODEGEN--\":130:246   */\n    tag_85:\n      0x00\n        /* \"--CODEGEN--\":196:241   */\n      tag_86\n        /* \"--CODEGEN--\":233:239   */\n      dup3\n        /* \"--CODEGEN--\":220:240   */\n      calldataload\n        /* \"--CODEGEN--\":196:241   */\n      jump(tag_87)\n    tag_86:\n        /* \"--CODEGEN--\":187:241   */\n      swap1\n      pop\n        /* \"--CODEGEN--\":181:246   */\n      swap3\n      swap2\n      pop\n      pop\n      jump\n        /* \"--CODEGEN--\":254:696   */\n    tag_89:\n      0x00\n        /* \"--CODEGEN--\":356:359   */\n      dup3\n        /* \"--CODEGEN--\":349:353   */\n      0x1f\n        /* \"--CODEGEN--\":341:347   */\n      dup4\n        /* \"--CODEGEN--\":337:354   */\n      add\n        /* \"--CODEGEN--\":333:360   */\n      slt\n        /* \"--CODEGEN--\":326:361   */\n      iszero\n        /* \"--CODEGEN--\":323:325   */\n      iszero\n      tag_90\n      jumpi\n        /* \"--CODEGEN--\":374:375   */\n      0x00\n        /* \"--CODEGEN--\":371:372   */\n      dup1\n        /* \"--CODEGEN--\":364:376   */\n      revert\n        /* \"--CODEGEN--\":323:325   */\n    tag_90:\n        /* \"--CODEGEN--\":411:417   */\n      dup2\n        /* \"--CODEGEN--\":398:418   */\n      calldataload\n        /* \"--CODEGEN--\":433:498   */\n      tag_91\n        /* \"--CODEGEN--\":448:497   */\n      tag_92\n        /* \"--CODEGEN--\":490:496   */\n      dup3\n        /* \"--CODEGEN--\":448:497   */\n      jump(tag_93)\n    tag_92:\n        /* \"--CODEGEN--\":433:498   */\n      jump(tag_94)\n    tag_91:\n        /* \"--CODEGEN--\":424:498   */\n      swap2\n      pop\n        /* \"--CODEGEN--\":518:524   */\n      dup1\n        /* \"--CODEGEN--\":511:516   */\n      dup3\n        /* \"--CODEGEN--\":504:525   */\n      mstore\n        /* \"--CODEGEN--\":554:558   */\n      0x20\n        /* \"--CODEGEN--\":546:552   */\n      dup4\n        /* \"--CODEGEN--\":542:559   */\n      add\n        /* \"--CODEGEN--\":587:591   */\n      0x20\n        /* \"--CODEGEN--\":580:585   */\n      dup4\n        /* \"--CODEGEN--\":576:592   */\n      add\n        /* \"--CODEGEN--\":622:625   */\n      dup6\n        /* \"--CODEGEN--\":613:619   */\n      dup4\n        /* \"--CODEGEN--\":608:611   */\n      dup4\n        /* \"--CODEGEN--\":604:620   */\n      add\n        /* \"--CODEGEN--\":601:626   */\n      gt\n        /* \"--CODEGEN--\":598:600   */\n      iszero\n      tag_95\n      jumpi\n        /* \"--CODEGEN--\":639:640   */\n      0x00\n        /* \"--CODEGEN--\":636:637   */\n      dup1\n        /* \"--CODEGEN--\":629:641   */\n      revert\n        /* \"--CODEGEN--\":598:600   */\n    tag_95:\n        /* \"--CODEGEN--\":649:690   */\n      tag_96\n        /* \"--CODEGEN--\":683:689   */\n      dup4\n        /* \"--CODEGEN--\":678:681   */\n      dup3\n        /* \"--CODEGEN--\":673:676   */\n      dup5\n        /* \"--CODEGEN--\":649:690   */\n      jump(tag_97)\n    tag_96:\n        /* \"--CODEGEN--\":316:696   */\n      pop\n      pop\n      pop\n      swap3\n      swap2\n      pop\n      pop\n      jump\n        /* \"--CODEGEN--\":704:945   */\n    tag_17:\n      0x00\n        /* \"--CODEGEN--\":808:810   */\n      0x20\n        /* \"--CODEGEN--\":796:805   */\n      dup3\n        /* \"--CODEGEN--\":787:794   */\n      dup5\n        /* \"--CODEGEN--\":783:806   */\n      sub\n        /* \"--CODEGEN--\":779:811   */\n      slt\n        /* \"--CODEGEN--\":776:778   */\n      iszero\n      tag_99\n      jumpi\n        /* \"--CODEGEN--\":824:825   */\n      0x00\n        /* \"--CODEGEN--\":821:822   */\n      dup1\n        /* \"--CODEGEN--\":814:826   */\n      revert\n        /* \"--CODEGEN--\":776:778   */\n    tag_99:\n        /* \"--CODEGEN--\":859:860   */\n      0x00\n        /* \"--CODEGEN--\":876:929   */\n      tag_100\n        /* \"--CODEGEN--\":921:928   */\n      dup5\n        /* \"--CODEGEN--\":912:918   */\n      dup3\n        /* \"--CODEGEN--\":901:910   */\n      dup6\n        /* \"--CODEGEN--\":897:919   */\n      add\n        /* \"--CODEGEN--\":876:929   */\n      jump(tag_81)\n    tag_100:\n        /* \"--CODEGEN--\":866:929   */\n      swap2\n      pop\n        /* \"--CODEGEN--\":838:935   */\n      pop\n        /* \"--CODEGEN--\":770:945   */\n      swap3\n      swap2\n      pop\n      pop\n      jump\n        /* \"--CODEGEN--\":952:1191   */\n    tag_36:\n      0x00\n        /* \"--CODEGEN--\":1055:1057   */\n      0x20\n        /* \"--CODEGEN--\":1043:1052   */\n      dup3\n        /* \"--CODEGEN--\":1034:1041   */\n      dup5\n        /* \"--CODEGEN--\":1030:1053   */\n      sub\n        /* \"--CODEGEN--\":1026:1058   */\n      slt\n        /* \"--CODEGEN--\":1023:1025   */\n      iszero\n      tag_102\n      jumpi\n        /* \"--CODEGEN--\":1071:1072   */\n      0x00\n        /* \"--CODEGEN--\":1068:1069   */\n      dup1\n        /* \"--CODEGEN--\":1061:1073   */\n      revert\n        /* \"--CODEGEN--\":1023:1025   */\n    tag_102:\n        /* \"--CODEGEN--\":1106:1107   */\n      0x00\n        /* \"--CODEGEN--\":1123:1175   */\n      tag_103\n        /* \"--CODEGEN--\":1167:1174   */\n      dup5\n        /* \"--CODEGEN--\":1158:1164   */\n      dup3\n        /* \"--CODEGEN--\":1147:1156   */\n      dup6\n        /* \"--CODEGEN--\":1143:1165   */\n      add\n        /* \"--CODEGEN--\":1123:1175   */\n      jump(tag_85)\n    tag_103:\n        /* \"--CODEGEN--\":1113:1175   */\n      swap2\n      pop\n        /* \"--CODEGEN--\":1085:1181   */\n      pop\n        /* \"--CODEGEN--\":1017:1191   */\n      swap3\n      swap2\n      pop\n      pop\n      jump\n        /* \"--CODEGEN--\":1198:1899   */\n    tag_13:\n      0x00\n      dup1\n      0x00\n        /* \"--CODEGEN--\":1355:1357   */\n      0x60\n        /* \"--CODEGEN--\":1343:1352   */\n      dup5\n        /* \"--CODEGEN--\":1334:1341   */\n      dup7\n        /* \"--CODEGEN--\":1330:1353   */\n      sub\n        /* \"--CODEGEN--\":1326:1358   */\n      slt\n        /* \"--CODEGEN--\":1323:1325   */\n      iszero\n      tag_105\n      jumpi\n        /* \"--CODEGEN--\":1371:1372   */\n      0x00\n        /* \"--CODEGEN--\":1368:1369   */\n      dup1\n        /* \"--CODEGEN--\":1361:1373   */\n      revert\n        /* \"--CODEGEN--\":1323:1325   */\n    tag_105:\n        /* \"--CODEGEN--\":1406:1407   */\n      0x00\n        /* \"--CODEGEN--\":1423:1475   */\n      tag_106\n        /* \"--CODEGEN--\":1467:1474   */\n      dup7\n        /* \"--CODEGEN--\":1458:1464   */\n      dup3\n        /* \"--CODEGEN--\":1447:1456   */\n      dup8\n        /* \"--CODEGEN--\":1443:1465   */\n      add\n        /* \"--CODEGEN--\":1423:1475   */\n      jump(tag_85)\n    tag_106:\n        /* \"--CODEGEN--\":1413:1475   */\n      swap4\n      pop\n        /* \"--CODEGEN--\":1385:1481   */\n      pop\n        /* \"--CODEGEN--\":1540:1542   */\n      0x20\n        /* \"--CODEGEN--\":1529:1538   */\n      dup5\n        /* \"--CODEGEN--\":1525:1543   */\n      add\n        /* \"--CODEGEN--\":1512:1544   */\n      calldataload\n        /* \"--CODEGEN--\":1564:1582   */\n      0xffffffffffffffff\n        /* \"--CODEGEN--\":1556:1562   */\n      dup2\n        /* \"--CODEGEN--\":1553:1583   */\n      gt\n        /* \"--CODEGEN--\":1550:1552   */\n      iszero\n      tag_107\n      jumpi\n        /* \"--CODEGEN--\":1596:1597   */\n      0x00\n        /* \"--CODEGEN--\":1593:1594   */\n      dup1\n        /* \"--CODEGEN--\":1586:1598   */\n      revert\n        /* \"--CODEGEN--\":1550:1552   */\n    tag_107:\n        /* \"--CODEGEN--\":1616:1679   */\n      tag_108\n        /* \"--CODEGEN--\":1671:1678   */\n      dup7\n        /* \"--CODEGEN--\":1662:1668   */\n      dup3\n        /* \"--CODEGEN--\":1651:1660   */\n      dup8\n        /* \"--CODEGEN--\":1647:1669   */\n      add\n        /* \"--CODEGEN--\":1616:1679   */\n      jump(tag_89)\n    tag_108:\n        /* \"--CODEGEN--\":1606:1679   */\n      swap3\n      pop\n        /* \"--CODEGEN--\":1491:1685   */\n      pop\n        /* \"--CODEGEN--\":1744:1746   */\n      0x40\n        /* \"--CODEGEN--\":1733:1742   */\n      dup5\n        /* \"--CODEGEN--\":1729:1747   */\n      add\n        /* \"--CODEGEN--\":1716:1748   */\n      calldataload\n        /* \"--CODEGEN--\":1768:1786   */\n      0xffffffffffffffff\n        /* \"--CODEGEN--\":1760:1766   */\n      dup2\n        /* \"--CODEGEN--\":1757:1787   */\n      gt\n        /* \"--CODEGEN--\":1754:1756   */\n      iszero\n      tag_109\n      jumpi\n        /* \"--CODEGEN--\":1800:1801   */\n      0x00\n        /* \"--CODEGEN--\":1797:1798   */\n      dup1\n        /* \"--CODEGEN--\":1790:1802   */\n      revert\n        /* \"--CODEGEN--\":1754:1756   */\n    tag_109:\n        /* \"--CODEGEN--\":1820:1883   */\n      tag_110\n        /* \"--CODEGEN--\":1875:1882   */\n      dup7\n        /* \"--CODEGEN--\":1866:1872   */\n      dup3\n        /* \"--CODEGEN--\":1855:1864   */\n      dup8\n        /* \"--CODEGEN--\":1851:1873   */\n      add\n        /* \"--CODEGEN--\":1820:1883   */\n      jump(tag_89)\n    tag_110:\n        /* \"--CODEGEN--\":1810:1883   */\n      swap2\n      pop\n        /* \"--CODEGEN--\":1695:1889   */\n      pop\n        /* \"--CODEGEN--\":1317:1899   */\n      swap3\n      pop\n      swap3\n      pop\n      swap3\n      jump\n        /* \"--CODEGEN--\":1906:4231   */\n    tag_23:\n      0x00\n      dup1\n      0x00\n      dup1\n      0x00\n      dup1\n      0x00\n      dup1\n      0x00\n      dup1\n        /* \"--CODEGEN--\":2252:2255   */\n      0x0140\n        /* \"--CODEGEN--\":2240:2249   */\n      dup12\n        /* \"--CODEGEN--\":2231:2238   */\n      dup14\n        /* \"--CODEGEN--\":2227:2250   */\n      sub\n        /* \"--CODEGEN--\":2223:2256   */\n      slt\n        /* \"--CODEGEN--\":2220:2222   */\n      iszero\n      tag_112\n      jumpi\n        /* \"--CODEGEN--\":2269:2270   */\n      0x00\n        /* \"--CODEGEN--\":2266:2267   */\n      dup1\n        /* \"--CODEGEN--\":2259:2271   */\n      revert\n        /* \"--CODEGEN--\":2220:2222   */\n    tag_112:\n        /* \"--CODEGEN--\":2332:2333   */\n      0x00\n        /* \"--CODEGEN--\":2321:2330   */\n      dup12\n        /* \"--CODEGEN--\":2317:2334   */\n      add\n        /* \"--CODEGEN--\":2304:2335   */\n      calldataload\n        /* \"--CODEGEN--\":2355:2373   */\n      0xffffffffffffffff\n        /* \"--CODEGEN--\":2347:2353   */\n      dup2\n        /* \"--CODEGEN--\":2344:2374   */\n      gt\n        /* \"--CODEGEN--\":2341:2343   */\n      iszero\n      tag_113\n      jumpi\n        /* \"--CODEGEN--\":2387:2388   */\n      0x00\n        /* \"--CODEGEN--\":2384:2385   */\n      dup1\n        /* \"--CODEGEN--\":2377:2389   */\n      revert\n        /* \"--CODEGEN--\":2341:2343   */\n    tag_113:\n        /* \"--CODEGEN--\":2407:2470   */\n      tag_114\n        /* \"--CODEGEN--\":2462:2469   */\n      dup14\n        /* \"--CODEGEN--\":2453:2459   */\n      dup3\n        /* \"--CODEGEN--\":2442:2451   */\n      dup15\n        /* \"--CODEGEN--\":2438:2460   */\n      add\n        /* \"--CODEGEN--\":2407:2470   */\n      jump(tag_89)\n    tag_114:\n        /* \"--CODEGEN--\":2397:2470   */\n      swap11\n      pop\n        /* \"--CODEGEN--\":2283:2476   */\n      pop\n        /* \"--CODEGEN--\":2535:2537   */\n      0x20\n        /* \"--CODEGEN--\":2524:2533   */\n      dup12\n        /* \"--CODEGEN--\":2520:2538   */\n      add\n        /* \"--CODEGEN--\":2507:2539   */\n      calldataload\n        /* \"--CODEGEN--\":2559:2577   */\n      0xffffffffffffffff\n        /* \"--CODEGEN--\":2551:2557   */\n      dup2\n        /* \"--CODEGEN--\":2548:2578   */\n      gt\n        /* \"--CODEGEN--\":2545:2547   */\n      iszero\n      tag_115\n      jumpi\n        /* \"--CODEGEN--\":2591:2592   */\n      0x00\n        /* \"--CODEGEN--\":2588:2589   */\n      dup1\n        /* \"--CODEGEN--\":2581:2593   */\n      revert\n        /* \"--CODEGEN--\":2545:2547   */\n    tag_115:\n        /* \"--CODEGEN--\":2611:2674   */\n      tag_116\n        /* \"--CODEGEN--\":2666:2673   */\n      dup14\n        /* \"--CODEGEN--\":2657:2663   */\n      dup3\n        /* \"--CODEGEN--\":2646:2655   */\n      dup15\n        /* \"--CODEGEN--\":2642:2664   */\n      add\n        /* \"--CODEGEN--\":2611:2674   */\n      jump(tag_89)\n    tag_116:\n        /* \"--CODEGEN--\":2601:2674   */\n      swap10\n      pop\n        /* \"--CODEGEN--\":2486:2680   */\n      pop\n        /* \"--CODEGEN--\":2739:2741   */\n      0x40\n        /* \"--CODEGEN--\":2728:2737   */\n      dup12\n        /* \"--CODEGEN--\":2724:2742   */\n      add\n        /* \"--CODEGEN--\":2711:2743   */\n      calldataload\n        /* \"--CODEGEN--\":2763:2781   */\n      0xffffffffffffffff\n        /* \"--CODEGEN--\":2755:2761   */\n      dup2\n        /* \"--CODEGEN--\":2752:2782   */\n      gt\n        /* \"--CODEGEN--\":2749:2751   */\n      iszero\n      tag_117\n      jumpi\n        /* \"--CODEGEN--\":2795:2796   */\n      0x00\n        /* \"--CODEGEN--\":2792:2793   */\n      dup1\n        /* \"--CODEGEN--\":2785:2797   */\n      revert\n        /* \"--CODEGEN--\":2749:2751   */\n    tag_117:\n        /* \"--CODEGEN--\":2815:2878   */\n      tag_118\n        /* \"--CODEGEN--\":2870:2877   */\n      dup14\n        /* \"--CODEGEN--\":2861:2867   */\n      dup3\n        /* \"--CODEGEN--\":2850:2859   */\n      dup15\n        /* \"--CODEGEN--\":2846:2868   */\n      add\n        /* \"--CODEGEN--\":2815:2878   */\n      jump(tag_89)\n    tag_118:\n        /* \"--CODEGEN--\":2805:2878   */\n      swap9\n      pop\n        /* \"--CODEGEN--\":2690:2884   */\n      pop\n        /* \"--CODEGEN--\":2943:2945   */\n      0x60\n        /* \"--CODEGEN--\":2932:2941   */\n      dup12\n        /* \"--CODEGEN--\":2928:2946   */\n      add\n        /* \"--CODEGEN--\":2915:2947   */\n      calldataload\n        /* \"--CODEGEN--\":2967:2985   */\n      0xffffffffffffffff\n        /* \"--CODEGEN--\":2959:2965   */\n      dup2\n        /* \"--CODEGEN--\":2956:2986   */\n      gt\n        /* \"--CODEGEN--\":2953:2955   */\n      iszero\n      tag_119\n      jumpi\n        /* \"--CODEGEN--\":2999:3000   */\n      0x00\n        /* \"--CODEGEN--\":2996:2997   */\n      dup1\n        /* \"--CODEGEN--\":2989:3001   */\n      revert\n        /* \"--CODEGEN--\":2953:2955   */\n    tag_119:\n        /* \"--CODEGEN--\":3019:3082   */\n      tag_120\n        /* \"--CODEGEN--\":3074:3081   */\n      dup14\n        /* \"--CODEGEN--\":3065:3071   */\n      dup3\n        /* \"--CODEGEN--\":3054:3063   */\n      dup15\n        /* \"--CODEGEN--\":3050:3072   */\n      add\n        /* \"--CODEGEN--\":3019:3082   */\n      jump(tag_89)\n    tag_120:\n        /* \"--CODEGEN--\":3009:3082   */\n      swap8\n      pop\n        /* \"--CODEGEN--\":2894:3088   */\n      pop\n        /* \"--CODEGEN--\":3119:3122   */\n      0x80\n        /* \"--CODEGEN--\":3138:3190   */\n      tag_121\n        /* \"--CODEGEN--\":3182:3189   */\n      dup14\n        /* \"--CODEGEN--\":3173:3179   */\n      dup3\n        /* \"--CODEGEN--\":3162:3171   */\n      dup15\n        /* \"--CODEGEN--\":3158:3180   */\n      add\n        /* \"--CODEGEN--\":3138:3190   */\n      jump(tag_85)\n    tag_121:\n        /* \"--CODEGEN--\":3128:3190   */\n      swap7\n      pop\n        /* \"--CODEGEN--\":3098:3196   */\n      pop\n        /* \"--CODEGEN--\":3255:3258   */\n      0xa0\n        /* \"--CODEGEN--\":3244:3253   */\n      dup12\n        /* \"--CODEGEN--\":3240:3259   */\n      add\n        /* \"--CODEGEN--\":3227:3260   */\n      calldataload\n        /* \"--CODEGEN--\":3280:3298   */\n      0xffffffffffffffff\n        /* \"--CODEGEN--\":3272:3278   */\n      dup2\n        /* \"--CODEGEN--\":3269:3299   */\n      gt\n        /* \"--CODEGEN--\":3266:3268   */\n      iszero\n      tag_122\n      jumpi\n        /* \"--CODEGEN--\":3312:3313   */\n      0x00\n        /* \"--CODEGEN--\":3309:3310   */\n      dup1\n        /* \"--CODEGEN--\":3302:3314   */\n      revert\n        /* \"--CODEGEN--\":3266:3268   */\n    tag_122:\n        /* \"--CODEGEN--\":3332:3395   */\n      tag_123\n        /* \"--CODEGEN--\":3387:3394   */\n      dup14\n        /* \"--CODEGEN--\":3378:3384   */\n      dup3\n        /* \"--CODEGEN--\":3367:3376   */\n      dup15\n        /* \"--CODEGEN--\":3363:3385   */\n      add\n        /* \"--CODEGEN--\":3332:3395   */\n      jump(tag_89)\n    tag_123:\n        /* \"--CODEGEN--\":3322:3395   */\n      swap6\n      pop\n        /* \"--CODEGEN--\":3206:3401   */\n      pop\n        /* \"--CODEGEN--\":3460:3463   */\n      0xc0\n        /* \"--CODEGEN--\":3449:3458   */\n      dup12\n        /* \"--CODEGEN--\":3445:3464   */\n      add\n        /* \"--CODEGEN--\":3432:3465   */\n      calldataload\n        /* \"--CODEGEN--\":3485:3503   */\n      0xffffffffffffffff\n        /* \"--CODEGEN--\":3477:3483   */\n      dup2\n        /* \"--CODEGEN--\":3474:3504   */\n      gt\n        /* \"--CODEGEN--\":3471:3473   */\n      iszero\n      tag_124\n      jumpi\n        /* \"--CODEGEN--\":3517:3518   */\n      0x00\n        /* \"--CODEGEN--\":3514:3515   */\n      dup1\n        /* \"--CODEGEN--\":3507:3519   */\n      revert\n        /* \"--CODEGEN--\":3471:3473   */\n    tag_124:\n        /* \"--CODEGEN--\":3537:3600   */\n      tag_125\n        /* \"--CODEGEN--\":3592:3599   */\n      dup14\n        /* \"--CODEGEN--\":3583:3589   */\n      dup3\n        /* \"--CODEGEN--\":3572:3581   */\n      dup15\n        /* \"--CODEGEN--\":3568:3590   */\n      add\n        /* \"--CODEGEN--\":3537:3600   */\n      jump(tag_89)\n    tag_125:\n        /* \"--CODEGEN--\":3527:3600   */\n      swap5\n      pop\n        /* \"--CODEGEN--\":3411:3606   */\n      pop\n        /* \"--CODEGEN--\":3665:3668   */\n      0xe0\n        /* \"--CODEGEN--\":3654:3663   */\n      dup12\n        /* \"--CODEGEN--\":3650:3669   */\n      add\n        /* \"--CODEGEN--\":3637:3670   */\n      calldataload\n        /* \"--CODEGEN--\":3690:3708   */\n      0xffffffffffffffff\n        /* \"--CODEGEN--\":3682:3688   */\n      dup2\n        /* \"--CODEGEN--\":3679:3709   */\n      gt\n        /* \"--CODEGEN--\":3676:3678   */\n      iszero\n      tag_126\n      jumpi\n        /* \"--CODEGEN--\":3722:3723   */\n      0x00\n        /* \"--CODEGEN--\":3719:3720   */\n      dup1\n        /* \"--CODEGEN--\":3712:3724   */\n      revert\n        /* \"--CODEGEN--\":3676:3678   */\n    tag_126:\n        /* \"--CODEGEN--\":3742:3805   */\n      tag_127\n        /* \"--CODEGEN--\":3797:3804   */\n      dup14\n        /* \"--CODEGEN--\":3788:3794   */\n      dup3\n        /* \"--CODEGEN--\":3777:3786   */\n      dup15\n        /* \"--CODEGEN--\":3773:3795   */\n      add\n        /* \"--CODEGEN--\":3742:3805   */\n      jump(tag_89)\n    tag_127:\n        /* \"--CODEGEN--\":3732:3805   */\n      swap4\n      pop\n        /* \"--CODEGEN--\":3616:3811   */\n      pop\n        /* \"--CODEGEN--\":3870:3873   */\n      0x0100\n        /* \"--CODEGEN--\":3859:3868   */\n      dup12\n        /* \"--CODEGEN--\":3855:3874   */\n      add\n        /* \"--CODEGEN--\":3842:3875   */\n      calldataload\n        /* \"--CODEGEN--\":3895:3913   */\n      0xffffffffffffffff\n        /* \"--CODEGEN--\":3887:3893   */\n      dup2\n        /* \"--CODEGEN--\":3884:3914   */\n      gt\n        /* \"--CODEGEN--\":3881:3883   */\n      iszero\n      tag_128\n      jumpi\n        /* \"--CODEGEN--\":3927:3928   */\n      0x00\n        /* \"--CODEGEN--\":3924:3925   */\n      dup1\n        /* \"--CODEGEN--\":3917:3929   */\n      revert\n        /* \"--CODEGEN--\":3881:3883   */\n    tag_128:\n        /* \"--CODEGEN--\":3947:4010   */\n      tag_129\n        /* \"--CODEGEN--\":4002:4009   */\n      dup14\n        /* \"--CODEGEN--\":3993:3999   */\n      dup3\n        /* \"--CODEGEN--\":3982:3991   */\n      dup15\n        /* \"--CODEGEN--\":3978:4000   */\n      add\n        /* \"--CODEGEN--\":3947:4010   */\n      jump(tag_89)\n    tag_129:\n        /* \"--CODEGEN--\":3937:4010   */\n      swap3\n      pop\n        /* \"--CODEGEN--\":3821:4016   */\n      pop\n        /* \"--CODEGEN--\":4075:4078   */\n      0x0120\n        /* \"--CODEGEN--\":4064:4073   */\n      dup12\n        /* \"--CODEGEN--\":4060:4079   */\n      add\n        /* \"--CODEGEN--\":4047:4080   */\n      calldataload\n        /* \"--CODEGEN--\":4100:4118   */\n      0xffffffffffffffff\n        /* \"--CODEGEN--\":4092:4098   */\n      dup2\n        /* \"--CODEGEN--\":4089:4119   */\n      gt\n        /* \"--CODEGEN--\":4086:4088   */\n      iszero\n      tag_130\n      jumpi\n        /* \"--CODEGEN--\":4132:4133   */\n      0x00\n        /* \"--CODEGEN--\":4129:4130   */\n      dup1\n        /* \"--CODEGEN--\":4122:4134   */\n      revert\n        /* \"--CODEGEN--\":4086:4088   */\n    tag_130:\n        /* \"--CODEGEN--\":4152:4215   */\n      tag_131\n        /* \"--CODEGEN--\":4207:4214   */\n      dup14\n        /* \"--CODEGEN--\":4198:4204   */\n      dup3\n        /* \"--CODEGEN--\":4187:4196   */\n      dup15\n        /* \"--CODEGEN--\":4183:4205   */\n      add\n        /* \"--CODEGEN--\":4152:4215   */\n      jump(tag_89)\n    tag_131:\n        /* \"--CODEGEN--\":4142:4215   */\n      swap2\n      pop\n        /* \"--CODEGEN--\":4026:4221   */\n      pop\n        /* \"--CODEGEN--\":2214:4231   */\n      swap3\n      swap6\n      swap9\n      swap12\n      swap2\n      swap5\n      swap8\n      swap11\n      pop\n      swap3\n      swap6\n      swap9\n      pop\n      jump\n        /* \"--CODEGEN--\":4238:4370   */\n    tag_133:\n        /* \"--CODEGEN--\":4319:4364   */\n      tag_134\n        /* \"--CODEGEN--\":4358:4363   */\n      dup2\n        /* \"--CODEGEN--\":4319:4364   */\n      jump(tag_135)\n    tag_134:\n        /* \"--CODEGEN--\":4314:4317   */\n      dup3\n        /* \"--CODEGEN--\":4307:4365   */\n      mstore\n        /* \"--CODEGEN--\":4301:4370   */\n      pop\n      pop\n      jump\n        /* \"--CODEGEN--\":4377:4487   */\n    tag_137:\n        /* \"--CODEGEN--\":4450:4481   */\n      tag_138\n        /* \"--CODEGEN--\":4475:4480   */\n      dup2\n        /* \"--CODEGEN--\":4450:4481   */\n      jump(tag_139)\n    tag_138:\n        /* \"--CODEGEN--\":4445:4448   */\n      dup3\n        /* \"--CODEGEN--\":4438:4482   */\n      mstore\n        /* \"--CODEGEN--\":4432:4487   */\n      pop\n      pop\n      jump\n        /* \"--CODEGEN--\":4494:4595   */\n    tag_141:\n        /* \"--CODEGEN--\":4561:4589   */\n      tag_142\n        /* \"--CODEGEN--\":4583:4588   */\n      dup2\n        /* \"--CODEGEN--\":4561:4589   */\n      jump(tag_143)\n    tag_142:\n        /* \"--CODEGEN--\":4556:4559   */\n      dup3\n        /* \"--CODEGEN--\":4549:4590   */\n      mstore\n        /* \"--CODEGEN--\":4543:4595   */\n      pop\n      pop\n      jump\n        /* \"--CODEGEN--\":4602:4709   */\n    tag_145:\n        /* \"--CODEGEN--\":4673:4703   */\n      tag_146\n        /* \"--CODEGEN--\":4697:4702   */\n      dup2\n        /* \"--CODEGEN--\":4673:4703   */\n      jump(tag_147)\n    tag_146:\n        /* \"--CODEGEN--\":4668:4671   */\n      dup3\n        /* \"--CODEGEN--\":4661:4704   */\n      mstore\n        /* \"--CODEGEN--\":4655:4709   */\n      pop\n      pop\n      jump\n        /* \"--CODEGEN--\":4716:5016   */\n    tag_149:\n      0x00\n        /* \"--CODEGEN--\":4818:4857   */\n      tag_150\n        /* \"--CODEGEN--\":4851:4856   */\n      dup3\n        /* \"--CODEGEN--\":4818:4857   */\n      jump(tag_151)\n    tag_150:\n        /* \"--CODEGEN--\":4874:4880   */\n      dup1\n        /* \"--CODEGEN--\":4869:4872   */\n      dup5\n        /* \"--CODEGEN--\":4862:4881   */\n      mstore\n        /* \"--CODEGEN--\":4886:4949   */\n      tag_152\n        /* \"--CODEGEN--\":4942:4948   */\n      dup2\n        /* \"--CODEGEN--\":4935:4939   */\n      0x20\n        /* \"--CODEGEN--\":4930:4933   */\n      dup7\n        /* \"--CODEGEN--\":4926:4940   */\n      add\n        /* \"--CODEGEN--\":4919:4923   */\n      0x20\n        /* \"--CODEGEN--\":4912:4917   */\n      dup7\n        /* \"--CODEGEN--\":4908:4924   */\n      add\n        /* \"--CODEGEN--\":4886:4949   */\n      jump(tag_153)\n    tag_152:\n        /* \"--CODEGEN--\":4981:5010   */\n      tag_154\n        /* \"--CODEGEN--\":5003:5009   */\n      dup2\n        /* \"--CODEGEN--\":4981:5010   */\n      jump(tag_155)\n    tag_154:\n        /* \"--CODEGEN--\":4974:4978   */\n      0x20\n        /* \"--CODEGEN--\":4969:4972   */\n      dup6\n        /* \"--CODEGEN--\":4965:4979   */\n      add\n        /* \"--CODEGEN--\":4961:5011   */\n      add\n        /* \"--CODEGEN--\":4954:5011   */\n      swap2\n      pop\n        /* \"--CODEGEN--\":4798:5016   */\n      pop\n      swap3\n      swap2\n      pop\n      pop\n      jump\n        /* \"--CODEGEN--\":5023:5315   */\n    tag_157:\n      0x00\n        /* \"--CODEGEN--\":5121:5156   */\n      tag_158\n        /* \"--CODEGEN--\":5150:5155   */\n      dup3\n        /* \"--CODEGEN--\":5121:5156   */\n      jump(tag_159)\n    tag_158:\n        /* \"--CODEGEN--\":5173:5179   */\n      dup1\n        /* \"--CODEGEN--\":5168:5171   */\n      dup5\n        /* \"--CODEGEN--\":5161:5180   */\n      mstore\n        /* \"--CODEGEN--\":5185:5248   */\n      tag_160\n        /* \"--CODEGEN--\":5241:5247   */\n      dup2\n        /* \"--CODEGEN--\":5234:5238   */\n      0x20\n        /* \"--CODEGEN--\":5229:5232   */\n      dup7\n        /* \"--CODEGEN--\":5225:5239   */\n      add\n        /* \"--CODEGEN--\":5218:5222   */\n      0x20\n        /* \"--CODEGEN--\":5211:5216   */\n      dup7\n        /* \"--CODEGEN--\":5207:5223   */\n      add\n        /* \"--CODEGEN--\":5185:5248   */\n      jump(tag_153)\n    tag_160:\n        /* \"--CODEGEN--\":5280:5309   */\n      tag_161\n        /* \"--CODEGEN--\":5302:5308   */\n      dup2\n        /* \"--CODEGEN--\":5280:5309   */\n      jump(tag_155)\n    tag_161:\n        /* \"--CODEGEN--\":5273:5277   */\n      0x20\n        /* \"--CODEGEN--\":5268:5271   */\n      dup6\n        /* \"--CODEGEN--\":5264:5278   */\n      add\n        /* \"--CODEGEN--\":5260:5310   */\n      add\n        /* \"--CODEGEN--\":5253:5310   */\n      swap2\n      pop\n        /* \"--CODEGEN--\":5101:5315   */\n      pop\n      swap3\n      swap2\n      pop\n      pop\n      jump\n        /* \"--CODEGEN--\":5322:5515   */\n    tag_39:\n      0x00\n        /* \"--CODEGEN--\":5430:5432   */\n      0x20\n        /* \"--CODEGEN--\":5419:5428   */\n      dup3\n        /* \"--CODEGEN--\":5415:5433   */\n      add\n        /* \"--CODEGEN--\":5407:5433   */\n      swap1\n      pop\n        /* \"--CODEGEN--\":5444:5505   */\n      tag_163\n        /* \"--CODEGEN--\":5502:5503   */\n      0x00\n        /* \"--CODEGEN--\":5491:5500   */\n      dup4\n        /* \"--CODEGEN--\":5487:5504   */\n      add\n        /* \"--CODEGEN--\":5478:5484   */\n      dup5\n        /* \"--CODEGEN--\":5444:5505   */\n      jump(tag_137)\n    tag_163:\n        /* \"--CODEGEN--\":5401:5515   */\n      swap3\n      swap2\n      pop\n      pop\n      jump\n        /* \"--CODEGEN--\":5522:5703   */\n    tag_20:\n      0x00\n        /* \"--CODEGEN--\":5624:5626   */\n      0x20\n        /* \"--CODEGEN--\":5613:5622   */\n      dup3\n        /* \"--CODEGEN--\":5609:5627   */\n      add\n        /* \"--CODEGEN--\":5601:5627   */\n      swap1\n      pop\n        /* \"--CODEGEN--\":5638:5693   */\n      tag_165\n        /* \"--CODEGEN--\":5690:5691   */\n      0x00\n        /* \"--CODEGEN--\":5679:5688   */\n      dup4\n        /* \"--CODEGEN--\":5675:5692   */\n      add\n        /* \"--CODEGEN--\":5666:5672   */\n      dup5\n        /* \"--CODEGEN--\":5638:5693   */\n      jump(tag_141)\n    tag_165:\n        /* \"--CODEGEN--\":5595:5703   */\n      swap3\n      swap2\n      pop\n      pop\n      jump\n        /* \"--CODEGEN--\":5710:6000   */\n    tag_61:\n      0x00\n        /* \"--CODEGEN--\":5844:5846   */\n      0x40\n        /* \"--CODEGEN--\":5833:5842   */\n      dup3\n        /* \"--CODEGEN--\":5829:5847   */\n      add\n        /* \"--CODEGEN--\":5821:5847   */\n      swap1\n      pop\n        /* \"--CODEGEN--\":5858:5917   */\n      tag_167\n        /* \"--CODEGEN--\":5914:5915   */\n      0x00\n        /* \"--CODEGEN--\":5903:5912   */\n      dup4\n        /* \"--CODEGEN--\":5899:5916   */\n      add\n        /* \"--CODEGEN--\":5890:5896   */\n      dup6\n        /* \"--CODEGEN--\":5858:5917   */\n      jump(tag_145)\n    tag_167:\n        /* \"--CODEGEN--\":5928:5990   */\n      tag_168\n        /* \"--CODEGEN--\":5986:5988   */\n      0x20\n        /* \"--CODEGEN--\":5975:5984   */\n      dup4\n        /* \"--CODEGEN--\":5971:5989   */\n      add\n        /* \"--CODEGEN--\":5962:5968   */\n      dup5\n        /* \"--CODEGEN--\":5928:5990   */\n      jump(tag_137)\n    tag_168:\n        /* \"--CODEGEN--\":5815:6000   */\n      swap4\n      swap3\n      pop\n      pop\n      pop\n      jump\n        /* \"--CODEGEN--\":6007:6558   */\n    tag_29:\n      0x00\n        /* \"--CODEGEN--\":6201:6203   */\n      0x60\n        /* \"--CODEGEN--\":6190:6199   */\n      dup3\n        /* \"--CODEGEN--\":6186:6204   */\n      add\n        /* \"--CODEGEN--\":6178:6204   */\n      swap1\n      pop\n        /* \"--CODEGEN--\":6215:6274   */\n      tag_170\n        /* \"--CODEGEN--\":6271:6272   */\n      0x00\n        /* \"--CODEGEN--\":6260:6269   */\n      dup4\n        /* \"--CODEGEN--\":6256:6273   */\n      add\n        /* \"--CODEGEN--\":6247:6253   */\n      dup7\n        /* \"--CODEGEN--\":6215:6274   */\n      jump(tag_145)\n    tag_170:\n        /* \"--CODEGEN--\":6322:6331   */\n      dup2\n        /* \"--CODEGEN--\":6316:6320   */\n      dup2\n        /* \"--CODEGEN--\":6312:6332   */\n      sub\n        /* \"--CODEGEN--\":6307:6309   */\n      0x20\n        /* \"--CODEGEN--\":6296:6305   */\n      dup4\n        /* \"--CODEGEN--\":6292:6310   */\n      add\n        /* \"--CODEGEN--\":6285:6333   */\n      mstore\n        /* \"--CODEGEN--\":6347:6411   */\n      tag_171\n        /* \"--CODEGEN--\":6406:6410   */\n      dup2\n        /* \"--CODEGEN--\":6397:6403   */\n      dup6\n        /* \"--CODEGEN--\":6347:6411   */\n      jump(tag_157)\n    tag_171:\n        /* \"--CODEGEN--\":6339:6411   */\n      swap1\n      pop\n        /* \"--CODEGEN--\":6459:6468   */\n      dup2\n        /* \"--CODEGEN--\":6453:6457   */\n      dup2\n        /* \"--CODEGEN--\":6449:6469   */\n      sub\n        /* \"--CODEGEN--\":6444:6446   */\n      0x40\n        /* \"--CODEGEN--\":6433:6442   */\n      dup4\n        /* \"--CODEGEN--\":6429:6447   */\n      add\n        /* \"--CODEGEN--\":6422:6470   */\n      mstore\n        /* \"--CODEGEN--\":6484:6548   */\n      tag_172\n        /* \"--CODEGEN--\":6543:6547   */\n      dup2\n        /* \"--CODEGEN--\":6534:6540   */\n      dup5\n        /* \"--CODEGEN--\":6484:6548   */\n      jump(tag_157)\n    tag_172:\n        /* \"--CODEGEN--\":6476:6548   */\n      swap1\n      pop\n        /* \"--CODEGEN--\":6172:6558   */\n      swap5\n      swap4\n      pop\n      pop\n      pop\n      pop\n      jump\n        /* \"--CODEGEN--\":6565:8582   */\n    tag_58:\n      0x00\n        /* \"--CODEGEN--\":7140:7143   */\n      0x0160\n        /* \"--CODEGEN--\":7129:7138   */\n      dup3\n        /* \"--CODEGEN--\":7125:7144   */\n      add\n        /* \"--CODEGEN--\":7117:7144   */\n      swap1\n      pop\n        /* \"--CODEGEN--\":7191:7200   */\n      dup2\n        /* \"--CODEGEN--\":7185:7189   */\n      dup2\n        /* \"--CODEGEN--\":7181:7201   */\n      sub\n        /* \"--CODEGEN--\":7177:7178   */\n      0x00\n        /* \"--CODEGEN--\":7166:7175   */\n      dup4\n        /* \"--CODEGEN--\":7162:7179   */\n      add\n        /* \"--CODEGEN--\":7155:7202   */\n      mstore\n        /* \"--CODEGEN--\":7216:7284   */\n      tag_174\n        /* \"--CODEGEN--\":7279:7283   */\n      dup2\n        /* \"--CODEGEN--\":7270:7276   */\n      dup15\n        /* \"--CODEGEN--\":7216:7284   */\n      jump(tag_149)\n    tag_174:\n        /* \"--CODEGEN--\":7208:7284   */\n      swap1\n      pop\n        /* \"--CODEGEN--\":7332:7341   */\n      dup2\n        /* \"--CODEGEN--\":7326:7330   */\n      dup2\n        /* \"--CODEGEN--\":7322:7342   */\n      sub\n        /* \"--CODEGEN--\":7317:7319   */\n      0x20\n        /* \"--CODEGEN--\":7306:7315   */\n      dup4\n        /* \"--CODEGEN--\":7302:7320   */\n      add\n        /* \"--CODEGEN--\":7295:7343   */\n      mstore\n        /* \"--CODEGEN--\":7357:7425   */\n      tag_175\n        /* \"--CODEGEN--\":7420:7424   */\n      dup2\n        /* \"--CODEGEN--\":7411:7417   */\n      dup14\n        /* \"--CODEGEN--\":7357:7425   */\n      jump(tag_149)\n    tag_175:\n        /* \"--CODEGEN--\":7349:7425   */\n      swap1\n      pop\n        /* \"--CODEGEN--\":7473:7482   */\n      dup2\n        /* \"--CODEGEN--\":7467:7471   */\n      dup2\n        /* \"--CODEGEN--\":7463:7483   */\n      sub\n        /* \"--CODEGEN--\":7458:7460   */\n      0x40\n        /* \"--CODEGEN--\":7447:7456   */\n      dup4\n        /* \"--CODEGEN--\":7443:7461   */\n      add\n        /* \"--CODEGEN--\":7436:7484   */\n      mstore\n        /* \"--CODEGEN--\":7498:7566   */\n      tag_176\n        /* \"--CODEGEN--\":7561:7565   */\n      dup2\n        /* \"--CODEGEN--\":7552:7558   */\n      dup13\n        /* \"--CODEGEN--\":7498:7566   */\n      jump(tag_149)\n    tag_176:\n        /* \"--CODEGEN--\":7490:7566   */\n      swap1\n      pop\n        /* \"--CODEGEN--\":7614:7623   */\n      dup2\n        /* \"--CODEGEN--\":7608:7612   */\n      dup2\n        /* \"--CODEGEN--\":7604:7624   */\n      sub\n        /* \"--CODEGEN--\":7599:7601   */\n      0x60\n        /* \"--CODEGEN--\":7588:7597   */\n      dup4\n        /* \"--CODEGEN--\":7584:7602   */\n      add\n        /* \"--CODEGEN--\":7577:7625   */\n      mstore\n        /* \"--CODEGEN--\":7639:7707   */\n      tag_177\n        /* \"--CODEGEN--\":7702:7706   */\n      dup2\n        /* \"--CODEGEN--\":7693:7699   */\n      dup12\n        /* \"--CODEGEN--\":7639:7707   */\n      jump(tag_149)\n    tag_177:\n        /* \"--CODEGEN--\":7631:7707   */\n      swap1\n      pop\n        /* \"--CODEGEN--\":7718:7779   */\n      tag_178\n        /* \"--CODEGEN--\":7774:7777   */\n      0x80\n        /* \"--CODEGEN--\":7763:7772   */\n      dup4\n        /* \"--CODEGEN--\":7759:7778   */\n      add\n        /* \"--CODEGEN--\":7750:7756   */\n      dup11\n        /* \"--CODEGEN--\":7718:7779   */\n      jump(tag_145)\n    tag_178:\n        /* \"--CODEGEN--\":7828:7837   */\n      dup2\n        /* \"--CODEGEN--\":7822:7826   */\n      dup2\n        /* \"--CODEGEN--\":7818:7838   */\n      sub\n        /* \"--CODEGEN--\":7812:7815   */\n      0xa0\n        /* \"--CODEGEN--\":7801:7810   */\n      dup4\n        /* \"--CODEGEN--\":7797:7816   */\n      add\n        /* \"--CODEGEN--\":7790:7839   */\n      mstore\n        /* \"--CODEGEN--\":7853:7921   */\n      tag_179\n        /* \"--CODEGEN--\":7916:7920   */\n      dup2\n        /* \"--CODEGEN--\":7907:7913   */\n      dup10\n        /* \"--CODEGEN--\":7853:7921   */\n      jump(tag_149)\n    tag_179:\n        /* \"--CODEGEN--\":7845:7921   */\n      swap1\n      pop\n        /* \"--CODEGEN--\":7970:7979   */\n      dup2\n        /* \"--CODEGEN--\":7964:7968   */\n      dup2\n        /* \"--CODEGEN--\":7960:7980   */\n      sub\n        /* \"--CODEGEN--\":7954:7957   */\n      0xc0\n        /* \"--CODEGEN--\":7943:7952   */\n      dup4\n        /* \"--CODEGEN--\":7939:7958   */\n      add\n        /* \"--CODEGEN--\":7932:7981   */\n      mstore\n        /* \"--CODEGEN--\":7995:8063   */\n      tag_180\n        /* \"--CODEGEN--\":8058:8062   */\n      dup2\n        /* \"--CODEGEN--\":8049:8055   */\n      dup9\n        /* \"--CODEGEN--\":7995:8063   */\n      jump(tag_149)\n    tag_180:\n        /* \"--CODEGEN--\":7987:8063   */\n      swap1\n      pop\n        /* \"--CODEGEN--\":8112:8121   */\n      dup2\n        /* \"--CODEGEN--\":8106:8110   */\n      dup2\n        /* \"--CODEGEN--\":8102:8122   */\n      sub\n        /* \"--CODEGEN--\":8096:8099   */\n      0xe0\n        /* \"--CODEGEN--\":8085:8094   */\n      dup4\n        /* \"--CODEGEN--\":8081:8100   */\n      add\n        /* \"--CODEGEN--\":8074:8123   */\n      mstore\n        /* \"--CODEGEN--\":8137:8205   */\n      tag_181\n        /* \"--CODEGEN--\":8200:8204   */\n      dup2\n        /* \"--CODEGEN--\":8191:8197   */\n      dup8\n        /* \"--CODEGEN--\":8137:8205   */\n      jump(tag_149)\n    tag_181:\n        /* \"--CODEGEN--\":8129:8205   */\n      swap1\n      pop\n        /* \"--CODEGEN--\":8254:8263   */\n      dup2\n        /* \"--CODEGEN--\":8248:8252   */\n      dup2\n        /* \"--CODEGEN--\":8244:8264   */\n      sub\n        /* \"--CODEGEN--\":8238:8241   */\n      0x0100\n        /* \"--CODEGEN--\":8227:8236   */\n      dup4\n        /* \"--CODEGEN--\":8223:8242   */\n      add\n        /* \"--CODEGEN--\":8216:8265   */\n      mstore\n        /* \"--CODEGEN--\":8279:8347   */\n      tag_182\n        /* \"--CODEGEN--\":8342:8346   */\n      dup2\n        /* \"--CODEGEN--\":8333:8339   */\n      dup7\n        /* \"--CODEGEN--\":8279:8347   */\n      jump(tag_149)\n    tag_182:\n        /* \"--CODEGEN--\":8271:8347   */\n      swap1\n      pop\n        /* \"--CODEGEN--\":8396:8405   */\n      dup2\n        /* \"--CODEGEN--\":8390:8394   */\n      dup2\n        /* \"--CODEGEN--\":8386:8406   */\n      sub\n        /* \"--CODEGEN--\":8380:8383   */\n      0x0120\n        /* \"--CODEGEN--\":8369:8378   */\n      dup4\n        /* \"--CODEGEN--\":8365:8384   */\n      add\n        /* \"--CODEGEN--\":8358:8407   */\n      mstore\n        /* \"--CODEGEN--\":8421:8489   */\n      tag_183\n        /* \"--CODEGEN--\":8484:8488   */\n      dup2\n        /* \"--CODEGEN--\":8475:8481   */\n      dup6\n        /* \"--CODEGEN--\":8421:8489   */\n      jump(tag_149)\n    tag_183:\n        /* \"--CODEGEN--\":8413:8489   */\n      swap1\n      pop\n        /* \"--CODEGEN--\":8500:8572   */\n      tag_184\n        /* \"--CODEGEN--\":8567:8570   */\n      0x0140\n        /* \"--CODEGEN--\":8556:8565   */\n      dup4\n        /* \"--CODEGEN--\":8552:8571   */\n      add\n        /* \"--CODEGEN--\":8542:8549   */\n      dup5\n        /* \"--CODEGEN--\":8500:8572   */\n      jump(tag_133)\n    tag_184:\n        /* \"--CODEGEN--\":7111:8582   */\n      swap13\n      swap12\n      pop\n      pop\n      pop\n      pop\n      pop\n      pop\n      pop\n      pop\n      pop\n      pop\n      pop\n      pop\n      jump\n        /* \"--CODEGEN--\":8589:8845   */\n    tag_94:\n      0x00\n        /* \"--CODEGEN--\":8651:8653   */\n      0x40\n        /* \"--CODEGEN--\":8645:8654   */\n      mload\n        /* \"--CODEGEN--\":8635:8654   */\n      swap1\n      pop\n        /* \"--CODEGEN--\":8689:8693   */\n      dup2\n        /* \"--CODEGEN--\":8681:8687   */\n      dup2\n        /* \"--CODEGEN--\":8677:8694   */\n      add\n        /* \"--CODEGEN--\":8788:8794   */\n      dup2\n        /* \"--CODEGEN--\":8776:8786   */\n      dup2\n        /* \"--CODEGEN--\":8773:8795   */\n      lt\n        /* \"--CODEGEN--\":8752:8770   */\n      0xffffffffffffffff\n        /* \"--CODEGEN--\":8740:8750   */\n      dup3\n        /* \"--CODEGEN--\":8737:8771   */\n      gt\n        /* \"--CODEGEN--\":8734:8796   */\n      or\n        /* \"--CODEGEN--\":8731:8733   */\n      iszero\n      tag_186\n      jumpi\n        /* \"--CODEGEN--\":8809:8810   */\n      0x00\n        /* \"--CODEGEN--\":8806:8807   */\n      dup1\n        /* \"--CODEGEN--\":8799:8811   */\n      revert\n        /* \"--CODEGEN--\":8731:8733   */\n    tag_186:\n        /* \"--CODEGEN--\":8829:8839   */\n      dup1\n        /* \"--CODEGEN--\":8825:8827   */\n      0x40\n        /* \"--CODEGEN--\":8818:8840   */\n      mstore\n        /* \"--CODEGEN--\":8629:8845   */\n      pop\n      swap2\n      swap1\n      pop\n      jump\n        /* \"--CODEGEN--\":8852:9111   */\n    tag_93:\n      0x00\n        /* \"--CODEGEN--\":8996:9014   */\n      0xffffffffffffffff\n        /* \"--CODEGEN--\":8988:8994   */\n      dup3\n        /* \"--CODEGEN--\":8985:9015   */\n      gt\n        /* \"--CODEGEN--\":8982:8984   */\n      iszero\n      tag_188\n      jumpi\n        /* \"--CODEGEN--\":9028:9029   */\n      0x00\n        /* \"--CODEGEN--\":9025:9026   */\n      dup1\n        /* \"--CODEGEN--\":9018:9030   */\n      revert\n        /* \"--CODEGEN--\":8982:8984   */\n    tag_188:\n        /* \"--CODEGEN--\":9072:9076   */\n      0x1f\n        /* \"--CODEGEN--\":9068:9077   */\n      not\n        /* \"--CODEGEN--\":9061:9065   */\n      0x1f\n        /* \"--CODEGEN--\":9053:9059   */\n      dup4\n        /* \"--CODEGEN--\":9049:9066   */\n      add\n        /* \"--CODEGEN--\":9045:9078   */\n      and\n        /* \"--CODEGEN--\":9037:9078   */\n      swap1\n      pop\n        /* \"--CODEGEN--\":9101:9105   */\n      0x20\n        /* \"--CODEGEN--\":9095:9099   */\n      dup2\n        /* \"--CODEGEN--\":9091:9106   */\n      add\n        /* \"--CODEGEN--\":9083:9106   */\n      swap1\n      pop\n        /* \"--CODEGEN--\":8919:9111   */\n      swap2\n      swap1\n      pop\n      jump\n        /* \"--CODEGEN--\":9118:9206   */\n    tag_159:\n      0x00\n        /* \"--CODEGEN--\":9195:9200   */\n      dup2\n        /* \"--CODEGEN--\":9189:9201   */\n      mload\n        /* \"--CODEGEN--\":9179:9201   */\n      swap1\n      pop\n        /* \"--CODEGEN--\":9173:9206   */\n      swap2\n      swap1\n      pop\n      jump\n        /* \"--CODEGEN--\":9213:9305   */\n    tag_151:\n      0x00\n        /* \"--CODEGEN--\":9294:9299   */\n      dup2\n        /* \"--CODEGEN--\":9288:9300   */\n      mload\n        /* \"--CODEGEN--\":9278:9300   */\n      swap1\n      pop\n        /* \"--CODEGEN--\":9272:9305   */\n      swap2\n      swap1\n      pop\n      jump\n        /* \"--CODEGEN--\":9312:9417   */\n    tag_139:\n      0x00\n        /* \"--CODEGEN--\":9381:9412   */\n      tag_192\n        /* \"--CODEGEN--\":9406:9411   */\n      dup3\n        /* \"--CODEGEN--\":9381:9412   */\n      jump(tag_193)\n    tag_192:\n        /* \"--CODEGEN--\":9370:9412   */\n      swap1\n      pop\n        /* \"--CODEGEN--\":9364:9417   */\n      swap2\n      swap1\n      pop\n      jump\n        /* \"--CODEGEN--\":9424:9516   */\n    tag_143:\n      0x00\n        /* \"--CODEGEN--\":9504:9509   */\n      dup2\n        /* \"--CODEGEN--\":9497:9510   */\n      iszero\n        /* \"--CODEGEN--\":9490:9511   */\n      iszero\n        /* \"--CODEGEN--\":9479:9511   */\n      swap1\n      pop\n        /* \"--CODEGEN--\":9473:9516   */\n      swap2\n      swap1\n      pop\n      jump\n        /* \"--CODEGEN--\":9523:9601   */\n    tag_147:\n      0x00\n        /* \"--CODEGEN--\":9591:9596   */\n      dup2\n        /* \"--CODEGEN--\":9580:9596   */\n      swap1\n      pop\n        /* \"--CODEGEN--\":9574:9601   */\n      swap2\n      swap1\n      pop\n      jump\n        /* \"--CODEGEN--\":9608:9736   */\n    tag_193:\n      0x00\n        /* \"--CODEGEN--\":9688:9730   */\n      0xffffffffffffffffffffffffffffffffffffffff\n        /* \"--CODEGEN--\":9681:9686   */\n      dup3\n        /* \"--CODEGEN--\":9677:9731   */\n      and\n        /* \"--CODEGEN--\":9666:9731   */\n      swap1\n      pop\n        /* \"--CODEGEN--\":9660:9736   */\n      swap2\n      swap1\n      pop\n      jump\n        /* \"--CODEGEN--\":9743:9848   */\n    tag_83:\n      0x00\n        /* \"--CODEGEN--\":9812:9843   */\n      tag_198\n        /* \"--CODEGEN--\":9837:9842   */\n      dup3\n        /* \"--CODEGEN--\":9812:9843   */\n      jump(tag_193)\n    tag_198:\n        /* \"--CODEGEN--\":9801:9843   */\n      swap1\n      pop\n        /* \"--CODEGEN--\":9795:9848   */\n      swap2\n      swap1\n      pop\n      jump\n        /* \"--CODEGEN--\":9855:9933   */\n    tag_87:\n      0x00\n        /* \"--CODEGEN--\":9923:9928   */\n      dup2\n        /* \"--CODEGEN--\":9912:9928   */\n      swap1\n      pop\n        /* \"--CODEGEN--\":9906:9933   */\n      swap2\n      swap1\n      pop\n      jump\n        /* \"--CODEGEN--\":9940:10069   */\n    tag_135:\n      0x00\n        /* \"--CODEGEN--\":10027:10064   */\n      tag_201\n        /* \"--CODEGEN--\":10058:10063   */\n      dup3\n        /* \"--CODEGEN--\":10027:10064   */\n      jump(tag_202)\n    tag_201:\n        /* \"--CODEGEN--\":10014:10064   */\n      swap1\n      pop\n        /* \"--CODEGEN--\":10008:10069   */\n      swap2\n      swap1\n      pop\n      jump\n        /* \"--CODEGEN--\":10076:10197   */\n    tag_202:\n      0x00\n        /* \"--CODEGEN--\":10155:10192   */\n      tag_204\n        /* \"--CODEGEN--\":10186:10191   */\n      dup3\n        /* \"--CODEGEN--\":10155:10192   */\n      jump(tag_205)\n    tag_204:\n        /* \"--CODEGEN--\":10142:10192   */\n      swap1\n      pop\n        /* \"--CODEGEN--\":10136:10197   */\n      swap2\n      swap1\n      pop\n      jump\n        /* \"--CODEGEN--\":10204:10319   */\n    tag_205:\n      0x00\n        /* \"--CODEGEN--\":10283:10314   */\n      tag_207\n        /* \"--CODEGEN--\":10308:10313   */\n      dup3\n        /* \"--CODEGEN--\":10283:10314   */\n      jump(tag_193)\n    tag_207:\n        /* \"--CODEGEN--\":10270:10314   */\n      swap1\n      pop\n        /* \"--CODEGEN--\":10264:10319   */\n      swap2\n      swap1\n      pop\n      jump\n        /* \"--CODEGEN--\":10327:10472   */\n    tag_97:\n        /* \"--CODEGEN--\":10408:10414   */\n      dup3\n        /* \"--CODEGEN--\":10403:10406   */\n      dup2\n        /* \"--CODEGEN--\":10398:10401   */\n      dup4\n        /* \"--CODEGEN--\":10385:10415   */\n      calldatacopy\n        /* \"--CODEGEN--\":10464:10465   */\n      0x00\n        /* \"--CODEGEN--\":10455:10461   */\n      dup4\n        /* \"--CODEGEN--\":10450:10453   */\n      dup4\n        /* \"--CODEGEN--\":10446:10462   */\n      add\n        /* \"--CODEGEN--\":10439:10466   */\n      mstore\n        /* \"--CODEGEN--\":10378:10472   */\n      pop\n      pop\n      pop\n      jump\n        /* \"--CODEGEN--\":10481:10749   */\n    tag_153:\n        /* \"--CODEGEN--\":10546:10547   */\n      0x00\n        /* \"--CODEGEN--\":10553:10654   */\n    tag_210:\n        /* \"--CODEGEN--\":10567:10573   */\n      dup4\n        /* \"--CODEGEN--\":10564:10565   */\n      dup2\n        /* \"--CODEGEN--\":10561:10574   */\n      lt\n        /* \"--CODEGEN--\":10553:10654   */\n      iszero\n      tag_211\n      jumpi\n        /* \"--CODEGEN--\":10643:10644   */\n      dup1\n        /* \"--CODEGEN--\":10638:10641   */\n      dup3\n        /* \"--CODEGEN--\":10634:10645   */\n      add\n        /* \"--CODEGEN--\":10628:10646   */\n      mload\n        /* \"--CODEGEN--\":10624:10625   */\n      dup2\n        /* \"--CODEGEN--\":10619:10622   */\n      dup5\n        /* \"--CODEGEN--\":10615:10626   */\n      add\n        /* \"--CODEGEN--\":10608:10647   */\n      mstore\n        /* \"--CODEGEN--\":10589:10591   */\n      0x20\n        /* \"--CODEGEN--\":10586:10587   */\n      dup2\n        /* \"--CODEGEN--\":10582:10592   */\n      add\n        /* \"--CODEGEN--\":10577:10592   */\n      swap1\n      pop\n        /* \"--CODEGEN--\":10553:10654   */\n      jump(tag_210)\n    tag_211:\n        /* \"--CODEGEN--\":10669:10675   */\n      dup4\n        /* \"--CODEGEN--\":10666:10667   */\n      dup2\n        /* \"--CODEGEN--\":10663:10676   */\n      gt\n        /* \"--CODEGEN--\":10660:10662   */\n      iszero\n      tag_213\n      jumpi\n        /* \"--CODEGEN--\":10734:10735   */\n      0x00\n        /* \"--CODEGEN--\":10725:10731   */\n      dup5\n        /* \"--CODEGEN--\":10720:10723   */\n      dup5\n        /* \"--CODEGEN--\":10716:10732   */\n      add\n        /* \"--CODEGEN--\":10709:10736   */\n      mstore\n        /* \"--CODEGEN--\":10660:10662   */\n    tag_213:\n        /* \"--CODEGEN--\":10530:10749   */\n      pop\n      pop\n      pop\n      pop\n      jump\n        /* \"--CODEGEN--\":10757:10854   */\n    tag_155:\n      0x00\n        /* \"--CODEGEN--\":10845:10847   */\n      0x1f\n        /* \"--CODEGEN--\":10841:10848   */\n      not\n        /* \"--CODEGEN--\":10836:10838   */\n      0x1f\n        /* \"--CODEGEN--\":10829:10834   */\n      dup4\n        /* \"--CODEGEN--\":10825:10839   */\n      add\n        /* \"--CODEGEN--\":10821:10849   */\n      and\n        /* \"--CODEGEN--\":10811:10849   */\n      swap1\n      pop\n        /* \"--CODEGEN--\":10805:10854   */\n      swap2\n      swap1\n      pop\n      jump\n    stop\n\n    sub_0: assembly {\n            /* \"background.sol\":2204:10440  contract MedicalRecord {\r... */\n          mstore(0x40, 0x80)\n            /* \"background.sol\":3224:3997  constructor(string memory namee, string memory genderr, string memory dobb, string memory mobilee, int aadharr, string memory paddresss, \r... */\n          callvalue\n            /* \"--CODEGEN--\":8:17   */\n          dup1\n            /* \"--CODEGEN--\":5:7   */\n          iszero\n          tag_1\n          jumpi\n            /* \"--CODEGEN--\":30:31   */\n          0x00\n            /* \"--CODEGEN--\":27:28   */\n          dup1\n            /* \"--CODEGEN--\":20:32   */\n          revert\n            /* \"--CODEGEN--\":5:7   */\n        tag_1:\n            /* \"background.sol\":3224:3997  constructor(string memory namee, string memory genderr, string memory dobb, string memory mobilee, int aadharr, string memory paddresss, \r... */\n          pop\n          mload(0x40)\n          sub(codesize, bytecodeSize)\n          dup1\n          bytecodeSize\n          dup4\n          codecopy\n          dup2\n          add\n          dup1\n          0x40\n          mstore\n          tag_2\n          swap2\n          swap1\n          dup2\n          add\n          swap1\n          jump(tag_3)\n        tag_2:\n            /* \"background.sol\":3519:3549  PatientDemographics memory pat */\n          tag_6\n          tag_7\n          jump\t// in\n        tag_6:\n            /* \"background.sol\":3552:3830  PatientDemographics( { \r... */\n          0x0100\n          mload(0x40)\n          swap1\n          dup2\n          add\n          0x40\n          mstore\n          dup1\n            /* \"background.sol\":3595:3600  namee */\n          dup14\n            /* \"background.sol\":3552:3830  PatientDemographics( { \r... */\n          dup2\n          mstore\n          0x20\n          add\n            /* \"background.sol\":3623:3630  genderr */\n          dup13\n            /* \"background.sol\":3552:3830  PatientDemographics( { \r... */\n          dup2\n          mstore\n          0x20\n          add\n            /* \"background.sol\":3650:3654  dobb */\n          dup12\n            /* \"background.sol\":3552:3830  PatientDemographics( { \r... */\n          dup2\n          mstore\n          0x20\n          add\n            /* \"background.sol\":3677:3684  mobilee */\n          dup11\n            /* \"background.sol\":3552:3830  PatientDemographics( { \r... */\n          dup2\n          mstore\n          0x20\n          add\n            /* \"background.sol\":3707:3714  aadharr */\n          dup10\n            /* \"background.sol\":3552:3830  PatientDemographics( { \r... */\n          dup2\n          mstore\n          0x20\n          add\n            /* \"background.sol\":3739:3748  paddresss */\n          dup9\n            /* \"background.sol\":3552:3830  PatientDemographics( { \r... */\n          dup2\n          mstore\n          0x20\n          add\n            /* \"background.sol\":3775:3786  postalcodee */\n          dup8\n            /* \"background.sol\":3552:3830  PatientDemographics( { \r... */\n          dup2\n          mstore\n          0x20\n          add\n            /* \"background.sol\":3810:3818  countryy */\n          dup7\n            /* \"background.sol\":3552:3830  PatientDemographics( { \r... */\n          dup2\n          mstore\n          pop\n            /* \"background.sol\":3519:3830  PatientDemographics memory pat = PatientDemographics( { \r... */\n          swap1\n          pop\n            /* \"background.sol\":3873:3876  pat */\n          dup1\n            /* \"background.sol\":3851:3870  patientDemographics */\n          0x00\n            /* \"background.sol\":3851:3876  patientDemographics = pat */\n          dup1\n          dup3\n          add\n          mload\n          dup2\n          0x00\n          add\n          swap1\n          dup1\n          mload\n          swap1\n          0x20\n          add\n          swap1\n          tag_8\n          swap3\n          swap2\n          swap1\n          tag_9\n          jump\t// in\n        tag_8:\n          pop\n          0x20\n          dup3\n          add\n          mload\n          dup2\n          0x01\n          add\n          swap1\n          dup1\n          mload\n          swap1\n          0x20\n          add\n          swap1\n          tag_10\n          swap3\n          swap2\n          swap1\n          tag_9\n          jump\t// in\n        tag_10:\n          pop\n          0x40\n          dup3\n          add\n          mload\n          dup2\n          0x02\n          add\n          swap1\n          dup1\n          mload\n          swap1\n          0x20\n          add\n          swap1\n          tag_11\n          swap3\n          swap2\n          swap1\n          tag_9\n          jump\t// in\n        tag_11:\n          pop\n          0x60\n          dup3\n          add\n          mload\n          dup2\n          0x03\n          add\n          swap1\n          dup1\n          mload\n          swap1\n          0x20\n          add\n          swap1\n          tag_12\n          swap3\n          swap2\n          swap1\n          tag_9\n          jump\t// in\n        tag_12:\n          pop\n          0x80\n          dup3\n          add\n          mload\n          dup2\n          0x04\n          add\n          sstore\n          0xa0\n          dup3\n          add\n          mload\n          dup2\n          0x05\n          add\n          swap1\n          dup1\n          mload\n          swap1\n          0x20\n          add\n          swap1\n          tag_13\n          swap3\n          swap2\n          swap1\n          tag_9\n          jump\t// in\n        tag_13:\n          pop\n          0xc0\n          dup3\n          add\n          mload\n          dup2\n          0x06\n          add\n          swap1\n          dup1\n          mload\n          swap1\n          0x20\n          add\n          swap1\n          tag_14\n          swap3\n          swap2\n          swap1\n          tag_9\n          jump\t// in\n        tag_14:\n          pop\n          0xe0\n          dup3\n          add\n          mload\n          dup2\n          0x07\n          add\n          swap1\n          dup1\n          mload\n          swap1\n          0x20\n          add\n          swap1\n          tag_15\n          swap3\n          swap2\n          swap1\n          tag_9\n          jump\t// in\n        tag_15:\n          pop\n          swap1\n          pop\n          pop\n            /* \"background.sol\":3898:3907  passwordd */\n          dup4\n            /* \"background.sol\":3887:3895  password */\n          0x15\n            /* \"background.sol\":3887:3907  password = passwordd */\n          swap1\n          dup1\n          mload\n          swap1\n          0x20\n          add\n          swap1\n          tag_16\n          swap3\n          swap2\n          swap1\n          tag_17\n          jump\t// in\n        tag_16:\n          pop\n            /* \"background.sol\":3933:3941  filePass */\n          dup3\n            /* \"background.sol\":3918:3930  filePassword */\n          0x16\n            /* \"background.sol\":3918:3941  filePassword = filePass */\n          swap1\n          dup1\n          mload\n          swap1\n          0x20\n          add\n          swap1\n          tag_18\n          swap3\n          swap2\n          swap1\n          tag_17\n          jump\t// in\n        tag_18:\n          pop\n            /* \"background.sol\":3985:3989  true */\n          0x01\n            /* \"background.sol\":3952:3966  doctorsAllowed */\n          0x14\n            /* \"background.sol\":3952:3982  doctorsAllowed[doctorsAddress] */\n          0x00\n            /* \"background.sol\":3967:3981  doctorsAddress */\n          dup5\n            /* \"background.sol\":3952:3982  doctorsAllowed[doctorsAddress] */\n          0xffffffffffffffffffffffffffffffffffffffff\n          and\n          0xffffffffffffffffffffffffffffffffffffffff\n          and\n          dup2\n          mstore\n          0x20\n          add\n          swap1\n          dup2\n          mstore\n          0x20\n          add\n          0x00\n          keccak256\n          0x00\n            /* \"background.sol\":3952:3989  doctorsAllowed[doctorsAddress] = true */\n          0x0100\n          exp\n          dup2\n          sload\n          dup2\n          0xff\n          mul\n          not\n          and\n          swap1\n          dup4\n          iszero\n          iszero\n          mul\n          or\n          swap1\n          sstore\n          pop\n            /* \"background.sol\":3224:3997  constructor(string memory namee, string memory genderr, string memory dobb, string memory mobilee, int aadharr, string memory paddresss, \r... */\n          pop\n          pop\n          pop\n          pop\n          pop\n          pop\n          pop\n          pop\n          pop\n          pop\n          pop\n          pop\n            /* \"background.sol\":2204:10440  contract MedicalRecord {\r... */\n          jump(tag_19)\n        tag_7:\n          0x0100\n          mload(0x40)\n          swap1\n          dup2\n          add\n          0x40\n          mstore\n          dup1\n          0x60\n          dup2\n          mstore\n          0x20\n          add\n          0x60\n          dup2\n          mstore\n          0x20\n          add\n          0x60\n          dup2\n          mstore\n          0x20\n          add\n          0x60\n          dup2\n          mstore\n          0x20\n          add\n          0x00\n          dup2\n          mstore\n          0x20\n          add\n          0x60\n          dup2\n          mstore\n          0x20\n          add\n          0x60\n          dup2\n          mstore\n          0x20\n          add\n          0x60\n          dup2\n          mstore\n          pop\n          swap1\n          jump\t// out\n        tag_9:\n          dup3\n          dup1\n          sload\n          0x01\n          dup2\n          0x01\n          and\n          iszero\n          0x0100\n          mul\n          sub\n          and\n          0x02\n          swap1\n          div\n          swap1\n          0x00\n          mstore\n          keccak256(0x00, 0x20)\n          swap1\n          0x1f\n          add\n          0x20\n          swap1\n          div\n          dup2\n          add\n          swap3\n          dup3\n          0x1f\n          lt\n          tag_21\n          jumpi\n          dup1\n          mload\n          not(0xff)\n          and\n          dup4\n          dup1\n          add\n          or\n          dup6\n          sstore\n          jump(tag_20)\n        tag_21:\n          dup3\n          dup1\n          add\n          0x01\n          add\n          dup6\n          sstore\n          dup3\n          iszero\n          tag_20\n          jumpi\n          swap2\n          dup3\n          add\n        tag_22:\n          dup3\n          dup2\n          gt\n          iszero\n          tag_23\n          jumpi\n          dup3\n          mload\n          dup3\n          sstore\n          swap2\n          0x20\n          add\n          swap2\n          swap1\n          0x01\n          add\n          swap1\n          jump(tag_22)\n        tag_23:\n        tag_20:\n          pop\n          swap1\n          pop\n          tag_24\n          swap2\n          swap1\n          tag_25\n          jump\t// in\n        tag_24:\n          pop\n          swap1\n          jump\t// out\n        tag_17:\n          dup3\n          dup1\n          sload\n          0x01\n          dup2\n          0x01\n          and\n          iszero\n          0x0100\n          mul\n          sub\n          and\n          0x02\n          swap1\n          div\n          swap1\n          0x00\n          mstore\n          keccak256(0x00, 0x20)\n          swap1\n          0x1f\n          add\n          0x20\n          swap1\n          div\n          dup2\n          add\n          swap3\n          dup3\n          0x1f\n          lt\n          tag_27\n          jumpi\n          dup1\n          mload\n          not(0xff)\n          and\n          dup4\n          dup1\n          add\n          or\n          dup6\n          sstore\n          jump(tag_26)\n        tag_27:\n          dup3\n          dup1\n          add\n          0x01\n          add\n          dup6\n          sstore\n          dup3\n          iszero\n          tag_26\n          jumpi\n          swap2\n          dup3\n          add\n        tag_28:\n          dup3\n          dup2\n          gt\n          iszero\n          tag_29\n          jumpi\n          dup3\n          mload\n          dup3\n          sstore\n          swap2\n          0x20\n          add\n          swap2\n          swap1\n          0x01\n          add\n          swap1\n          jump(tag_28)\n        tag_29:\n        tag_26:\n          pop\n          swap1\n          pop\n          tag_30\n          swap2\n          swap1\n          tag_25\n          jump\t// in\n        tag_30:\n          pop\n          swap1\n          jump\t// out\n        tag_25:\n          tag_31\n          swap2\n          swap1\n        tag_32:\n          dup1\n          dup3\n          gt\n          iszero\n          tag_33\n          jumpi\n          0x00\n          dup2\n          0x00\n          swap1\n          sstore\n          pop\n          0x01\n          add\n          jump(tag_32)\n        tag_33:\n          pop\n          swap1\n          jump\n        tag_31:\n          swap1\n          jump\t// out\n            /* \"--CODEGEN--\":5:127   */\n        tag_35:\n          0x00\n            /* \"--CODEGEN--\":83:122   */\n          tag_36\n            /* \"--CODEGEN--\":114:120   */\n          dup3\n            /* \"--CODEGEN--\":108:121   */\n          mload\n            /* \"--CODEGEN--\":83:122   */\n          jump(tag_37)\n        tag_36:\n            /* \"--CODEGEN--\":74:122   */\n          swap1\n          pop\n            /* \"--CODEGEN--\":68:127   */\n          swap3\n          swap2\n          pop\n          pop\n          jump\n            /* \"--CODEGEN--\":134:254   */\n        tag_39:\n          0x00\n            /* \"--CODEGEN--\":211:249   */\n          tag_40\n            /* \"--CODEGEN--\":241:247   */\n          dup3\n            /* \"--CODEGEN--\":235:248   */\n          mload\n            /* \"--CODEGEN--\":211:249   */\n          jump(tag_41)\n        tag_40:\n            /* \"--CODEGEN--\":202:249   */\n          swap1\n          pop\n            /* \"--CODEGEN--\":196:254   */\n          swap3\n          swap2\n          pop\n          pop\n          jump\n            /* \"--CODEGEN--\":262:706   */\n        tag_43:\n          0x00\n            /* \"--CODEGEN--\":375:378   */\n          dup3\n            /* \"--CODEGEN--\":368:372   */\n          0x1f\n            /* \"--CODEGEN--\":360:366   */\n          dup4\n            /* \"--CODEGEN--\":356:373   */\n          add\n            /* \"--CODEGEN--\":352:379   */\n          slt\n            /* \"--CODEGEN--\":345:380   */\n          iszero\n            /* \"--CODEGEN--\":342:344   */\n          iszero\n          tag_44\n          jumpi\n            /* \"--CODEGEN--\":393:394   */\n          0x00\n            /* \"--CODEGEN--\":390:391   */\n          dup1\n            /* \"--CODEGEN--\":383:395   */\n          revert\n            /* \"--CODEGEN--\":342:344   */\n        tag_44:\n            /* \"--CODEGEN--\":423:429   */\n          dup2\n            /* \"--CODEGEN--\":417:430   */\n          mload\n            /* \"--CODEGEN--\":445:510   */\n          tag_45\n            /* \"--CODEGEN--\":460:509   */\n          tag_46\n            /* \"--CODEGEN--\":502:508   */\n          dup3\n            /* \"--CODEGEN--\":460:509   */\n          jump(tag_47)\n        tag_46:\n            /* \"--CODEGEN--\":445:510   */\n          jump(tag_48)\n        tag_45:\n            /* \"--CODEGEN--\":436:510   */\n          swap2\n          pop\n            /* \"--CODEGEN--\":530:536   */\n          dup1\n            /* \"--CODEGEN--\":523:528   */\n          dup3\n            /* \"--CODEGEN--\":516:537   */\n          mstore\n            /* \"--CODEGEN--\":566:570   */\n          0x20\n            /* \"--CODEGEN--\":558:564   */\n          dup4\n            /* \"--CODEGEN--\":554:571   */\n          add\n            /* \"--CODEGEN--\":599:603   */\n          0x20\n            /* \"--CODEGEN--\":592:597   */\n          dup4\n            /* \"--CODEGEN--\":588:604   */\n          add\n            /* \"--CODEGEN--\":634:637   */\n          dup6\n            /* \"--CODEGEN--\":625:631   */\n          dup4\n            /* \"--CODEGEN--\":620:623   */\n          dup4\n            /* \"--CODEGEN--\":616:632   */\n          add\n            /* \"--CODEGEN--\":613:638   */\n          gt\n            /* \"--CODEGEN--\":610:612   */\n          iszero\n          tag_49\n          jumpi\n            /* \"--CODEGEN--\":651:652   */\n          0x00\n            /* \"--CODEGEN--\":648:649   */\n          dup1\n            /* \"--CODEGEN--\":641:653   */\n          revert\n            /* \"--CODEGEN--\":610:612   */\n        tag_49:\n            /* \"--CODEGEN--\":661:700   */\n          tag_50\n            /* \"--CODEGEN--\":693:699   */\n          dup4\n            /* \"--CODEGEN--\":688:691   */\n          dup3\n            /* \"--CODEGEN--\":683:686   */\n          dup5\n            /* \"--CODEGEN--\":661:700   */\n          jump(tag_51)\n        tag_50:\n            /* \"--CODEGEN--\":335:706   */\n          pop\n          pop\n          pop\n          swap3\n          swap2\n          pop\n          pop\n          jump\n            /* \"--CODEGEN--\":714:3236   */\n        tag_3:\n          0x00\n          dup1\n          0x00\n          dup1\n          0x00\n          dup1\n          0x00\n          dup1\n          0x00\n          dup1\n          0x00\n            /* \"--CODEGEN--\":1089:1092   */\n          0x0160\n            /* \"--CODEGEN--\":1077:1086   */\n          dup13\n            /* \"--CODEGEN--\":1068:1075   */\n          dup15\n            /* \"--CODEGEN--\":1064:1087   */\n          sub\n            /* \"--CODEGEN--\":1060:1093   */\n          slt\n            /* \"--CODEGEN--\":1057:1059   */\n          iszero\n          tag_53\n          jumpi\n            /* \"--CODEGEN--\":1106:1107   */\n          0x00\n            /* \"--CODEGEN--\":1103:1104   */\n          dup1\n            /* \"--CODEGEN--\":1096:1108   */\n          revert\n            /* \"--CODEGEN--\":1057:1059   */\n        tag_53:\n            /* \"--CODEGEN--\":1162:1163   */\n          0x00\n            /* \"--CODEGEN--\":1151:1160   */\n          dup13\n            /* \"--CODEGEN--\":1147:1164   */\n          add\n            /* \"--CODEGEN--\":1141:1165   */\n          mload\n            /* \"--CODEGEN--\":1185:1203   */\n          0xffffffffffffffff\n            /* \"--CODEGEN--\":1177:1183   */\n          dup2\n            /* \"--CODEGEN--\":1174:1204   */\n          gt\n            /* \"--CODEGEN--\":1171:1173   */\n          iszero\n          tag_54\n          jumpi\n            /* \"--CODEGEN--\":1217:1218   */\n          0x00\n            /* \"--CODEGEN--\":1214:1215   */\n          dup1\n            /* \"--CODEGEN--\":1207:1219   */\n          revert\n            /* \"--CODEGEN--\":1171:1173   */\n        tag_54:\n            /* \"--CODEGEN--\":1237:1311   */\n          tag_55\n            /* \"--CODEGEN--\":1303:1310   */\n          dup15\n            /* \"--CODEGEN--\":1294:1300   */\n          dup3\n            /* \"--CODEGEN--\":1283:1292   */\n          dup16\n            /* \"--CODEGEN--\":1279:1301   */\n          add\n            /* \"--CODEGEN--\":1237:1311   */\n          jump(tag_43)\n        tag_55:\n            /* \"--CODEGEN--\":1227:1311   */\n          swap12\n          pop\n            /* \"--CODEGEN--\":1120:1317   */\n          pop\n            /* \"--CODEGEN--\":1369:1371   */\n          0x20\n            /* \"--CODEGEN--\":1358:1367   */\n          dup13\n            /* \"--CODEGEN--\":1354:1372   */\n          add\n            /* \"--CODEGEN--\":1348:1373   */\n          mload\n            /* \"--CODEGEN--\":1393:1411   */\n          0xffffffffffffffff\n            /* \"--CODEGEN--\":1385:1391   */\n          dup2\n            /* \"--CODEGEN--\":1382:1412   */\n          gt\n            /* \"--CODEGEN--\":1379:1381   */\n          iszero\n          tag_56\n          jumpi\n            /* \"--CODEGEN--\":1425:1426   */\n          0x00\n            /* \"--CODEGEN--\":1422:1423   */\n          dup1\n            /* \"--CODEGEN--\":1415:1427   */\n          revert\n            /* \"--CODEGEN--\":1379:1381   */\n        tag_56:\n            /* \"--CODEGEN--\":1445:1519   */\n          tag_57\n            /* \"--CODEGEN--\":1511:1518   */\n          dup15\n            /* \"--CODEGEN--\":1502:1508   */\n          dup3\n            /* \"--CODEGEN--\":1491:1500   */\n          dup16\n            /* \"--CODEGEN--\":1487:1509   */\n          add\n            /* \"--CODEGEN--\":1445:1519   */\n          jump(tag_43)\n        tag_57:\n            /* \"--CODEGEN--\":1435:1519   */\n          swap11\n          pop\n            /* \"--CODEGEN--\":1327:1525   */\n          pop\n            /* \"--CODEGEN--\":1577:1579   */\n          0x40\n            /* \"--CODEGEN--\":1566:1575   */\n          dup13\n            /* \"--CODEGEN--\":1562:1580   */\n          add\n            /* \"--CODEGEN--\":1556:1581   */\n          mload\n            /* \"--CODEGEN--\":1601:1619   */\n          0xffffffffffffffff\n            /* \"--CODEGEN--\":1593:1599   */\n          dup2\n            /* \"--CODEGEN--\":1590:1620   */\n          gt\n            /* \"--CODEGEN--\":1587:1589   */\n          iszero\n          tag_58\n          jumpi\n            /* \"--CODEGEN--\":1633:1634   */\n          0x00\n            /* \"--CODEGEN--\":1630:1631   */\n          dup1\n            /* \"--CODEGEN--\":1623:1635   */\n          revert\n            /* \"--CODEGEN--\":1587:1589   */\n        tag_58:\n            /* \"--CODEGEN--\":1653:1727   */\n          tag_59\n            /* \"--CODEGEN--\":1719:1726   */\n          dup15\n            /* \"--CODEGEN--\":1710:1716   */\n          dup3\n            /* \"--CODEGEN--\":1699:1708   */\n          dup16\n            /* \"--CODEGEN--\":1695:1717   */\n          add\n            /* \"--CODEGEN--\":1653:1727   */\n          jump(tag_43)\n        tag_59:\n            /* \"--CODEGEN--\":1643:1727   */\n          swap10\n          pop\n            /* \"--CODEGEN--\":1535:1733   */\n          pop\n            /* \"--CODEGEN--\":1785:1787   */\n          0x60\n            /* \"--CODEGEN--\":1774:1783   */\n          dup13\n            /* \"--CODEGEN--\":1770:1788   */\n          add\n            /* \"--CODEGEN--\":1764:1789   */\n          mload\n            /* \"--CODEGEN--\":1809:1827   */\n          0xffffffffffffffff\n            /* \"--CODEGEN--\":1801:1807   */\n          dup2\n            /* \"--CODEGEN--\":1798:1828   */\n          gt\n            /* \"--CODEGEN--\":1795:1797   */\n          iszero\n          tag_60\n          jumpi\n            /* \"--CODEGEN--\":1841:1842   */\n          0x00\n            /* \"--CODEGEN--\":1838:1839   */\n          dup1\n            /* \"--CODEGEN--\":1831:1843   */\n          revert\n            /* \"--CODEGEN--\":1795:1797   */\n        tag_60:\n            /* \"--CODEGEN--\":1861:1935   */\n          tag_61\n            /* \"--CODEGEN--\":1927:1934   */\n          dup15\n            /* \"--CODEGEN--\":1918:1924   */\n          dup3\n            /* \"--CODEGEN--\":1907:1916   */\n          dup16\n            /* \"--CODEGEN--\":1903:1925   */\n          add\n            /* \"--CODEGEN--\":1861:1935   */\n          jump(tag_43)\n        tag_61:\n            /* \"--CODEGEN--\":1851:1935   */\n          swap9\n          pop\n            /* \"--CODEGEN--\":1743:1941   */\n          pop\n            /* \"--CODEGEN--\":1972:1975   */\n          0x80\n            /* \"--CODEGEN--\":1991:2054   */\n          tag_62\n            /* \"--CODEGEN--\":2046:2053   */\n          dup15\n            /* \"--CODEGEN--\":2037:2043   */\n          dup3\n            /* \"--CODEGEN--\":2026:2035   */\n          dup16\n            /* \"--CODEGEN--\":2022:2044   */\n          add\n            /* \"--CODEGEN--\":1991:2054   */\n          jump(tag_39)\n        tag_62:\n            /* \"--CODEGEN--\":1981:2054   */\n          swap8\n          pop\n            /* \"--CODEGEN--\":1951:2060   */\n          pop\n            /* \"--CODEGEN--\":2112:2115   */\n          0xa0\n            /* \"--CODEGEN--\":2101:2110   */\n          dup13\n            /* \"--CODEGEN--\":2097:2116   */\n          add\n            /* \"--CODEGEN--\":2091:2117   */\n          mload\n            /* \"--CODEGEN--\":2137:2155   */\n          0xffffffffffffffff\n            /* \"--CODEGEN--\":2129:2135   */\n          dup2\n            /* \"--CODEGEN--\":2126:2156   */\n          gt\n            /* \"--CODEGEN--\":2123:2125   */\n          iszero\n          tag_63\n          jumpi\n            /* \"--CODEGEN--\":2169:2170   */\n          0x00\n            /* \"--CODEGEN--\":2166:2167   */\n          dup1\n            /* \"--CODEGEN--\":2159:2171   */\n          revert\n            /* \"--CODEGEN--\":2123:2125   */\n        tag_63:\n            /* \"--CODEGEN--\":2189:2263   */\n          tag_64\n            /* \"--CODEGEN--\":2255:2262   */\n          dup15\n            /* \"--CODEGEN--\":2246:2252   */\n          dup3\n            /* \"--CODEGEN--\":2235:2244   */\n          dup16\n            /* \"--CODEGEN--\":2231:2253   */\n          add\n            /* \"--CODEGEN--\":2189:2263   */\n          jump(tag_43)\n        tag_64:\n            /* \"--CODEGEN--\":2179:2263   */\n          swap7\n          pop\n            /* \"--CODEGEN--\":2070:2269   */\n          pop\n            /* \"--CODEGEN--\":2321:2324   */\n          0xc0\n            /* \"--CODEGEN--\":2310:2319   */\n          dup13\n            /* \"--CODEGEN--\":2306:2325   */\n          add\n            /* \"--CODEGEN--\":2300:2326   */\n          mload\n            /* \"--CODEGEN--\":2346:2364   */\n          0xffffffffffffffff\n            /* \"--CODEGEN--\":2338:2344   */\n          dup2\n            /* \"--CODEGEN--\":2335:2365   */\n          gt\n            /* \"--CODEGEN--\":2332:2334   */\n          iszero\n          tag_65\n          jumpi\n            /* \"--CODEGEN--\":2378:2379   */\n          0x00\n            /* \"--CODEGEN--\":2375:2376   */\n          dup1\n            /* \"--CODEGEN--\":2368:2380   */\n          revert\n            /* \"--CODEGEN--\":2332:2334   */\n        tag_65:\n            /* \"--CODEGEN--\":2398:2472   */\n          tag_66\n            /* \"--CODEGEN--\":2464:2471   */\n          dup15\n            /* \"--CODEGEN--\":2455:2461   */\n          dup3\n            /* \"--CODEGEN--\":2444:2453   */\n          dup16\n            /* \"--CODEGEN--\":2440:2462   */\n          add\n            /* \"--CODEGEN--\":2398:2472   */\n          jump(tag_43)\n        tag_66:\n            /* \"--CODEGEN--\":2388:2472   */\n          swap6\n          pop\n            /* \"--CODEGEN--\":2279:2478   */\n          pop\n            /* \"--CODEGEN--\":2530:2533   */\n          0xe0\n            /* \"--CODEGEN--\":2519:2528   */\n          dup13\n            /* \"--CODEGEN--\":2515:2534   */\n          add\n            /* \"--CODEGEN--\":2509:2535   */\n          mload\n            /* \"--CODEGEN--\":2555:2573   */\n          0xffffffffffffffff\n            /* \"--CODEGEN--\":2547:2553   */\n          dup2\n            /* \"--CODEGEN--\":2544:2574   */\n          gt\n            /* \"--CODEGEN--\":2541:2543   */\n          iszero\n          tag_67\n          jumpi\n            /* \"--CODEGEN--\":2587:2588   */\n          0x00\n            /* \"--CODEGEN--\":2584:2585   */\n          dup1\n            /* \"--CODEGEN--\":2577:2589   */\n          revert\n            /* \"--CODEGEN--\":2541:2543   */\n        tag_67:\n            /* \"--CODEGEN--\":2607:2681   */\n          tag_68\n            /* \"--CODEGEN--\":2673:2680   */\n          dup15\n            /* \"--CODEGEN--\":2664:2670   */\n          dup3\n            /* \"--CODEGEN--\":2653:2662   */\n          dup16\n            /* \"--CODEGEN--\":2649:2671   */\n          add\n            /* \"--CODEGEN--\":2607:2681   */\n          jump(tag_43)\n        tag_68:\n            /* \"--CODEGEN--\":2597:2681   */\n          swap5\n          pop\n            /* \"--CODEGEN--\":2488:2687   */\n          pop\n            /* \"--CODEGEN--\":2739:2742   */\n          0x0100\n            /* \"--CODEGEN--\":2728:2737   */\n          dup13\n            /* \"--CODEGEN--\":2724:2743   */\n          add\n            /* \"--CODEGEN--\":2718:2744   */\n          mload\n            /* \"--CODEGEN--\":2764:2782   */\n          0xffffffffffffffff\n            /* \"--CODEGEN--\":2756:2762   */\n          dup2\n            /* \"--CODEGEN--\":2753:2783   */\n          gt\n            /* \"--CODEGEN--\":2750:2752   */\n          iszero\n          tag_69\n          jumpi\n            /* \"--CODEGEN--\":2796:2797   */\n          0x00\n            /* \"--CODEGEN--\":2793:2794   */\n          dup1\n            /* \"--CODEGEN--\":2786:2798   */\n          revert\n            /* \"--CODEGEN--\":2750:2752   */\n        tag_69:\n            /* \"--CODEGEN--\":2816:2890   */\n          tag_70\n            /* \"--CODEGEN--\":2882:2889   */\n          dup15\n            /* \"--CODEGEN--\":2873:2879   */\n          dup3\n            /* \"--CODEGEN--\":2862:2871   */\n          dup16\n            /* \"--CODEGEN--\":2858:2880   */\n          add\n            /* \"--CODEGEN--\":2816:2890   */\n          jump(tag_43)\n        tag_70:\n            /* \"--CODEGEN--\":2806:2890   */\n          swap4\n          pop\n            /* \"--CODEGEN--\":2697:2896   */\n          pop\n            /* \"--CODEGEN--\":2948:2951   */\n          0x0120\n            /* \"--CODEGEN--\":2937:2946   */\n          dup13\n            /* \"--CODEGEN--\":2933:2952   */\n          add\n            /* \"--CODEGEN--\":2927:2953   */\n          mload\n            /* \"--CODEGEN--\":2973:2991   */\n          0xffffffffffffffff\n            /* \"--CODEGEN--\":2965:2971   */\n          dup2\n            /* \"--CODEGEN--\":2962:2992   */\n          gt\n            /* \"--CODEGEN--\":2959:2961   */\n          iszero\n          tag_71\n          jumpi\n            /* \"--CODEGEN--\":3005:3006   */\n          0x00\n            /* \"--CODEGEN--\":3002:3003   */\n          dup1\n            /* \"--CODEGEN--\":2995:3007   */\n          revert\n            /* \"--CODEGEN--\":2959:2961   */\n        tag_71:\n            /* \"--CODEGEN--\":3025:3099   */\n          tag_72\n            /* \"--CODEGEN--\":3091:3098   */\n          dup15\n            /* \"--CODEGEN--\":3082:3088   */\n          dup3\n            /* \"--CODEGEN--\":3071:3080   */\n          dup16\n            /* \"--CODEGEN--\":3067:3089   */\n          add\n            /* \"--CODEGEN--\":3025:3099   */\n          jump(tag_43)\n        tag_72:\n            /* \"--CODEGEN--\":3015:3099   */\n          swap3\n          pop\n            /* \"--CODEGEN--\":2906:3105   */\n          pop\n            /* \"--CODEGEN--\":3136:3139   */\n          0x0140\n            /* \"--CODEGEN--\":3156:3220   */\n          tag_73\n            /* \"--CODEGEN--\":3212:3219   */\n          dup15\n            /* \"--CODEGEN--\":3203:3209   */\n          dup3\n            /* \"--CODEGEN--\":3192:3201   */\n          dup16\n            /* \"--CODEGEN--\":3188:3210   */\n          add\n            /* \"--CODEGEN--\":3156:3220   */\n          jump(tag_35)\n        tag_73:\n            /* \"--CODEGEN--\":3145:3220   */\n          swap2\n          pop\n            /* \"--CODEGEN--\":3115:3226   */\n          pop\n            /* \"--CODEGEN--\":1051:3236   */\n          swap3\n          swap6\n          swap9\n          swap12\n          pop\n          swap3\n          swap6\n          swap9\n          swap12\n          swap1\n          swap4\n          swap7\n          swap10\n          pop\n          jump\n            /* \"--CODEGEN--\":3243:3499   */\n        tag_48:\n          0x00\n            /* \"--CODEGEN--\":3305:3307   */\n          0x40\n            /* \"--CODEGEN--\":3299:3308   */\n          mload\n            /* \"--CODEGEN--\":3289:3308   */\n          swap1\n          pop\n            /* \"--CODEGEN--\":3343:3347   */\n          dup2\n            /* \"--CODEGEN--\":3335:3341   */\n          dup2\n            /* \"--CODEGEN--\":3331:3348   */\n          add\n            /* \"--CODEGEN--\":3442:3448   */\n          dup2\n            /* \"--CODEGEN--\":3430:3440   */\n          dup2\n            /* \"--CODEGEN--\":3427:3449   */\n          lt\n            /* \"--CODEGEN--\":3406:3424   */\n          0xffffffffffffffff\n            /* \"--CODEGEN--\":3394:3404   */\n          dup3\n            /* \"--CODEGEN--\":3391:3425   */\n          gt\n            /* \"--CODEGEN--\":3388:3450   */\n          or\n            /* \"--CODEGEN--\":3385:3387   */\n          iszero\n          tag_75\n          jumpi\n            /* \"--CODEGEN--\":3463:3464   */\n          0x00\n            /* \"--CODEGEN--\":3460:3461   */\n          dup1\n            /* \"--CODEGEN--\":3453:3465   */\n          revert\n            /* \"--CODEGEN--\":3385:3387   */\n        tag_75:\n            /* \"--CODEGEN--\":3483:3493   */\n          dup1\n            /* \"--CODEGEN--\":3479:3481   */\n          0x40\n            /* \"--CODEGEN--\":3472:3494   */\n          mstore\n            /* \"--CODEGEN--\":3283:3499   */\n          pop\n          swap2\n          swap1\n          pop\n          jump\n            /* \"--CODEGEN--\":3506:3765   */\n        tag_47:\n          0x00\n            /* \"--CODEGEN--\":3650:3668   */\n          0xffffffffffffffff\n            /* \"--CODEGEN--\":3642:3648   */\n          dup3\n            /* \"--CODEGEN--\":3639:3669   */\n          gt\n            /* \"--CODEGEN--\":3636:3638   */\n          iszero\n          tag_77\n          jumpi\n            /* \"--CODEGEN--\":3682:3683   */\n          0x00\n            /* \"--CODEGEN--\":3679:3680   */\n          dup1\n            /* \"--CODEGEN--\":3672:3684   */\n          revert\n            /* \"--CODEGEN--\":3636:3638   */\n        tag_77:\n            /* \"--CODEGEN--\":3726:3730   */\n          0x1f\n            /* \"--CODEGEN--\":3722:3731   */\n          not\n            /* \"--CODEGEN--\":3715:3719   */\n          0x1f\n            /* \"--CODEGEN--\":3707:3713   */\n          dup4\n            /* \"--CODEGEN--\":3703:3720   */\n          add\n            /* \"--CODEGEN--\":3699:3732   */\n          and\n            /* \"--CODEGEN--\":3691:3732   */\n          swap1\n          pop\n            /* \"--CODEGEN--\":3755:3759   */\n          0x20\n            /* \"--CODEGEN--\":3749:3753   */\n          dup2\n            /* \"--CODEGEN--\":3745:3760   */\n          add\n            /* \"--CODEGEN--\":3737:3760   */\n          swap1\n          pop\n            /* \"--CODEGEN--\":3573:3765   */\n          swap2\n          swap1\n          pop\n          jump\n            /* \"--CODEGEN--\":3772:3900   */\n        tag_79:\n          0x00\n            /* \"--CODEGEN--\":3852:3894   */\n          0xffffffffffffffffffffffffffffffffffffffff\n            /* \"--CODEGEN--\":3845:3850   */\n          dup3\n            /* \"--CODEGEN--\":3841:3895   */\n          and\n            /* \"--CODEGEN--\":3830:3895   */\n          swap1\n          pop\n            /* \"--CODEGEN--\":3824:3900   */\n          swap2\n          swap1\n          pop\n          jump\n            /* \"--CODEGEN--\":3907:4012   */\n        tag_37:\n          0x00\n            /* \"--CODEGEN--\":3976:4007   */\n          tag_81\n            /* \"--CODEGEN--\":4001:4006   */\n          dup3\n            /* \"--CODEGEN--\":3976:4007   */\n          jump(tag_79)\n        tag_81:\n            /* \"--CODEGEN--\":3965:4007   */\n          swap1\n          pop\n            /* \"--CODEGEN--\":3959:4012   */\n          swap2\n          swap1\n          pop\n          jump\n            /* \"--CODEGEN--\":4019:4097   */\n        tag_41:\n          0x00\n            /* \"--CODEGEN--\":4087:4092   */\n          dup2\n            /* \"--CODEGEN--\":4076:4092   */\n          swap1\n          pop\n            /* \"--CODEGEN--\":4070:4097   */\n          swap2\n          swap1\n          pop\n          jump\n            /* \"--CODEGEN--\":4105:4373   */\n        tag_51:\n            /* \"--CODEGEN--\":4170:4171   */\n          0x00\n            /* \"--CODEGEN--\":4177:4278   */\n        tag_84:\n            /* \"--CODEGEN--\":4191:4197   */\n          dup4\n            /* \"--CODEGEN--\":4188:4189   */\n          dup2\n            /* \"--CODEGEN--\":4185:4198   */\n          lt\n            /* \"--CODEGEN--\":4177:4278   */\n          iszero\n          tag_85\n          jumpi\n            /* \"--CODEGEN--\":4267:4268   */\n          dup1\n            /* \"--CODEGEN--\":4262:4265   */\n          dup3\n            /* \"--CODEGEN--\":4258:4269   */\n          add\n            /* \"--CODEGEN--\":4252:4270   */\n          mload\n            /* \"--CODEGEN--\":4248:4249   */\n          dup2\n            /* \"--CODEGEN--\":4243:4246   */\n          dup5\n            /* \"--CODEGEN--\":4239:4250   */\n          add\n            /* \"--CODEGEN--\":4232:4271   */\n          mstore\n            /* \"--CODEGEN--\":4213:4215   */\n          0x20\n            /* \"--CODEGEN--\":4210:4211   */\n          dup2\n            /* \"--CODEGEN--\":4206:4216   */\n          add\n            /* \"--CODEGEN--\":4201:4216   */\n          swap1\n          pop\n            /* \"--CODEGEN--\":4177:4278   */\n          jump(tag_84)\n        tag_85:\n            /* \"--CODEGEN--\":4293:4299   */\n          dup4\n            /* \"--CODEGEN--\":4290:4291   */\n          dup2\n            /* \"--CODEGEN--\":4287:4300   */\n          gt\n            /* \"--CODEGEN--\":4284:4286   */\n          iszero\n          tag_87\n          jumpi\n            /* \"--CODEGEN--\":4358:4359   */\n          0x00\n            /* \"--CODEGEN--\":4349:4355   */\n          dup5\n            /* \"--CODEGEN--\":4344:4347   */\n          dup5\n            /* \"--CODEGEN--\":4340:4356   */\n          add\n            /* \"--CODEGEN--\":4333:4360   */\n          mstore\n            /* \"--CODEGEN--\":4284:4286   */\n        tag_87:\n            /* \"--CODEGEN--\":4154:4373   */\n          pop\n          pop\n          pop\n          pop\n          jump\n            /* \"background.sol\":2204:10440  contract MedicalRecord {\r... */\n        tag_19:\n          dataSize(sub_0)\n          dup1\n          dataOffset(sub_0)\n          0x00\n          codecopy\n          0x00\n          return\n        stop\n\n        sub_0: assembly {\n                /* \"background.sol\":2204:10440  contract MedicalRecord {\r... */\n              mstore(0x40, 0x80)\n              callvalue\n                /* \"--CODEGEN--\":8:17   */\n              dup1\n                /* \"--CODEGEN--\":5:7   */\n              iszero\n              tag_1\n              jumpi\n                /* \"--CODEGEN--\":30:31   */\n              0x00\n                /* \"--CODEGEN--\":27:28   */\n              dup1\n                /* \"--CODEGEN--\":20:32   */\n              revert\n                /* \"--CODEGEN--\":5:7   */\n            tag_1:\n                /* \"background.sol\":2204:10440  contract MedicalRecord {\r... */\n              pop\n              jumpi(tag_2, lt(calldatasize, 0x04))\n              calldataload(0x00)\n              0x0100000000000000000000000000000000000000000000000000000000\n              swap1\n              div\n              dup1\n              0x6a828812\n              gt\n              tag_14\n              jumpi\n              dup1\n              0x6a828812\n              eq\n              tag_8\n              jumpi\n              dup1\n              0x74222ff3\n              eq\n              tag_9\n              jumpi\n              dup1\n              0x7ec35b0a\n              eq\n              tag_10\n              jumpi\n              dup1\n              0xc88039f2\n              eq\n              tag_11\n              jumpi\n              dup1\n              0xd7065558\n              eq\n              tag_12\n              jumpi\n              dup1\n              0xf851c44c\n              eq\n              tag_13\n              jumpi\n              jump(tag_2)\n            tag_14:\n              dup1\n              0x10be6c33\n              eq\n              tag_3\n              jumpi\n              dup1\n              0x26ef8ef4\n              eq\n              tag_4\n              jumpi\n              dup1\n              0x3a6a7c9d\n              eq\n              tag_5\n              jumpi\n              dup1\n              0x3ef7b4fd\n              eq\n              tag_6\n              jumpi\n              dup1\n              0x4344b743\n              eq\n              tag_7\n              jumpi\n            tag_2:\n              0x00\n              dup1\n              revert\n                /* \"background.sol\":6903:7212  function addDoctor(address doc, string memory pass, string memory logHeader, string memory logDetails) public {\r... */\n            tag_3:\n              tag_15\n              0x04\n              dup1\n              calldatasize\n              sub\n              tag_16\n              swap2\n              swap1\n              dup2\n              add\n              swap1\n              jump(tag_17)\n            tag_16:\n              tag_18\n              jump\t// in\n            tag_15:\n              stop\n                /* \"background.sol\":7735:9097  function getPatientDataPassword(string memory passworddd) public view returns(bool, PatientDemographics memory, PatientNonDemographics memory, Files memory) {\r... */\n            tag_4:\n              tag_19\n              0x04\n              dup1\n              calldatasize\n              sub\n              tag_20\n              swap2\n              swap1\n              dup2\n              add\n              swap1\n              jump(tag_21)\n            tag_20:\n              tag_22\n              jump\t// in\n            tag_19:\n              mload(0x40)\n              tag_23\n              swap5\n              swap4\n              swap3\n              swap2\n              swap1\n              jump(tag_24)\n            tag_23:\n              mload(0x40)\n              dup1\n              swap2\n              sub\n              swap1\n              return\n                /* \"background.sol\":4009:4167  function getFilePassword() public view returns(string memory) {\r... */\n            tag_5:\n              tag_25\n              tag_26\n              jump\t// in\n            tag_25:\n              mload(0x40)\n              tag_27\n              swap2\n              swap1\n              jump(tag_28)\n            tag_27:\n              mload(0x40)\n              dup1\n              swap2\n              sub\n              swap1\n              return\n                /* \"background.sol\":4179:4367  function getFilePasswordPassword(string memory password) public view returns(string memory) {\r... */\n            tag_6:\n              tag_29\n              0x04\n              dup1\n              calldatasize\n              sub\n              tag_30\n              swap2\n              swap1\n              dup2\n              add\n              swap1\n              jump(tag_21)\n            tag_30:\n              tag_31\n              jump\t// in\n            tag_29:\n              mload(0x40)\n              tag_32\n              swap2\n              swap1\n              jump(tag_28)\n            tag_32:\n              mload(0x40)\n              dup1\n              swap2\n              sub\n              swap1\n              return\n                /* \"background.sol\":9109:10437  function getPatientData() public view returns(bool, PatientDemographics memory, PatientNonDemographics memory, Files memory) {\r... */\n            tag_7:\n              tag_33\n              tag_34\n              jump\t// in\n            tag_33:\n              mload(0x40)\n              tag_35\n              swap5\n              swap4\n              swap3\n              swap2\n              swap1\n              jump(tag_24)\n            tag_35:\n              mload(0x40)\n              dup1\n              swap2\n              sub\n              swap1\n              return\n                /* \"background.sol\":5216:6185  function updateNondemographics(string memory medicalHistoryy, string memory diagnosiss, string memory medicationss,\r... */\n            tag_8:\n              tag_36\n              0x04\n              dup1\n              calldatasize\n              sub\n              tag_37\n              swap2\n              swap1\n              dup2\n              add\n              swap1\n              jump(tag_38)\n            tag_37:\n              tag_39\n              jump\t// in\n            tag_36:\n              stop\n                /* \"background.sol\":4379:5204  function addFiles(string memory billingDataa, string memory radiologyImagess, string memory labResultss, string memory logHeader, string memory logDetails) public {\r... */\n            tag_9:\n              tag_40\n              0x04\n              dup1\n              calldatasize\n              sub\n              tag_41\n              swap2\n              swap1\n              dup2\n              add\n              swap1\n              jump(tag_42)\n            tag_41:\n              tag_43\n              jump\t// in\n            tag_40:\n              stop\n                /* \"background.sol\":6639:6891  function isCorrectPassword(string memory pass) public view returns(bool) {\r... */\n            tag_10:\n              tag_44\n              0x04\n              dup1\n              calldatasize\n              sub\n              tag_45\n              swap2\n              swap1\n              dup2\n              add\n              swap1\n              jump(tag_21)\n            tag_45:\n              tag_46\n              jump\t// in\n            tag_44:\n              mload(0x40)\n              tag_47\n              swap2\n              swap1\n              jump(tag_48)\n            tag_47:\n              mload(0x40)\n              dup1\n              swap2\n              sub\n              swap1\n              return\n                /* \"background.sol\":7357:7723  function addInsurance(string memory insurancee, string memory pass, string memory logHeader, string memory logDetails) public {\r... */\n            tag_11:\n              tag_49\n              0x04\n              dup1\n              calldatasize\n              sub\n              tag_50\n              swap2\n              swap1\n              dup2\n              add\n              swap1\n              jump(tag_51)\n            tag_50:\n              tag_52\n              jump\t// in\n            tag_49:\n              stop\n                /* \"background.sol\":6197:6627  function isDoctorAllowed(address add) public view returns(bool) {\r... */\n            tag_12:\n              tag_53\n              0x04\n              dup1\n              calldatasize\n              sub\n              tag_54\n              swap2\n              swap1\n              dup2\n              add\n              swap1\n              jump(tag_55)\n            tag_54:\n              tag_56\n              jump\t// in\n            tag_53:\n              mload(0x40)\n              tag_57\n              swap2\n              swap1\n              jump(tag_48)\n            tag_57:\n              mload(0x40)\n              dup1\n              swap2\n              sub\n              swap1\n              return\n                /* \"background.sol\":7224:7345  function getEmergencyData() public view returns(string memory) {\r... */\n            tag_13:\n              tag_58\n              tag_59\n              jump\t// in\n            tag_58:\n              mload(0x40)\n              tag_60\n              swap2\n              swap1\n              jump(tag_28)\n            tag_60:\n              mload(0x40)\n              dup1\n              swap2\n              sub\n              swap1\n              return\n                /* \"background.sol\":6903:7212  function addDoctor(address doc, string memory pass, string memory logHeader, string memory logDetails) public {\r... */\n            tag_18:\n                /* \"background.sol\":7091:7099  password */\n              0x15\n                /* \"background.sol\":7074:7100  abi.encodePacked(password) */\n              add(0x20, mload(0x40))\n              dup1\n              dup3\n              dup1\n              sload\n              0x01\n              dup2\n              0x01\n              and\n              iszero\n              0x0100\n              mul\n              sub\n              and\n              0x02\n              swap1\n              div\n              dup1\n              iszero\n              tag_62\n              jumpi\n              dup1\n              0x1f\n              lt\n              tag_63\n              jumpi\n              0x0100\n              dup1\n              dup4\n              sload\n              div\n              mul\n              dup4\n              mstore\n              swap2\n              dup3\n              add\n              swap2\n              jump(tag_62)\n            tag_63:\n              dup3\n              add\n              swap2\n              swap1\n              0x00\n              mstore\n              keccak256(0x00, 0x20)\n              swap1\n            tag_64:\n              dup2\n              sload\n              dup2\n              mstore\n              swap1\n              0x01\n              add\n              swap1\n              0x20\n              add\n              dup1\n              dup4\n              gt\n              tag_64\n              jumpi\n            tag_62:\n              pop\n              pop\n              swap2\n              pop\n              pop\n              mload(0x40)\n                /* \"--CODEGEN--\":49:53   */\n              0x20\n                /* \"--CODEGEN--\":39:46   */\n              dup2\n                /* \"--CODEGEN--\":30:37   */\n              dup4\n                /* \"--CODEGEN--\":26:47   */\n              sub\n                /* \"--CODEGEN--\":22:54   */\n              sub\n                /* \"--CODEGEN--\":13:20   */\n              dup2\n                /* \"--CODEGEN--\":6:55   */\n              mstore\n                /* \"background.sol\":7074:7100  abi.encodePacked(password) */\n              swap1\n              0x40\n              mstore\n                /* \"background.sol\":7064:7101  keccak256(abi.encodePacked(password)) */\n              dup1\n              mload\n              swap1\n              0x20\n              add\n              keccak256\n                /* \"background.sol\":7054:7058  pass */\n              dup4\n                /* \"background.sol\":7037:7059  abi.encodePacked(pass) */\n              add(0x20, mload(0x40))\n              dup1\n              dup3\n              dup1\n              mload\n              swap1\n              0x20\n              add\n              swap1\n              dup1\n              dup4\n              dup4\n                /* \"--CODEGEN--\":36:189   */\n            tag_65:\n                /* \"--CODEGEN--\":66:68   */\n              0x20\n                /* \"--CODEGEN--\":61:64   */\n              dup4\n                /* \"--CODEGEN--\":58:69   */\n              lt\n                /* \"--CODEGEN--\":51:70   */\n              iszero\n                /* \"--CODEGEN--\":36:189   */\n              iszero\n              tag_66\n              jumpi\n                /* \"--CODEGEN--\":182:185   */\n              dup1\n                /* \"--CODEGEN--\":176:186   */\n              mload\n                /* \"--CODEGEN--\":171:174   */\n              dup3\n                /* \"--CODEGEN--\":164:187   */\n              mstore\n                /* \"--CODEGEN--\":98:100   */\n              0x20\n                /* \"--CODEGEN--\":93:96   */\n              dup3\n                /* \"--CODEGEN--\":89:101   */\n              add\n                /* \"--CODEGEN--\":82:101   */\n              swap2\n              pop\n                /* \"--CODEGEN--\":123:125   */\n              0x20\n                /* \"--CODEGEN--\":118:121   */\n              dup2\n                /* \"--CODEGEN--\":114:126   */\n              add\n                /* \"--CODEGEN--\":107:126   */\n              swap1\n              pop\n                /* \"--CODEGEN--\":148:150   */\n              0x20\n                /* \"--CODEGEN--\":143:146   */\n              dup4\n                /* \"--CODEGEN--\":139:151   */\n              sub\n                /* \"--CODEGEN--\":132:151   */\n              swap3\n              pop\n                /* \"--CODEGEN--\":36:189   */\n              jump(tag_65)\n            tag_66:\n                /* \"--CODEGEN--\":274:275   */\n              0x01\n                /* \"--CODEGEN--\":267:270   */\n              dup4\n                /* \"--CODEGEN--\":263:265   */\n              0x20\n                /* \"--CODEGEN--\":259:271   */\n              sub\n                /* \"--CODEGEN--\":254:257   */\n              0x0100\n                /* \"--CODEGEN--\":250:272   */\n              exp\n                /* \"--CODEGEN--\":246:276   */\n              sub\n                /* \"--CODEGEN--\":315:319   */\n              dup1\n                /* \"--CODEGEN--\":311:320   */\n              not\n                /* \"--CODEGEN--\":305:308   */\n              dup3\n                /* \"--CODEGEN--\":299:309   */\n              mload\n                /* \"--CODEGEN--\":295:321   */\n              and\n                /* \"--CODEGEN--\":356:360   */\n              dup2\n                /* \"--CODEGEN--\":350:353   */\n              dup5\n                /* \"--CODEGEN--\":344:354   */\n              mload\n                /* \"--CODEGEN--\":340:361   */\n              and\n                /* \"--CODEGEN--\":389:396   */\n              dup1\n                /* \"--CODEGEN--\":380:387   */\n              dup3\n                /* \"--CODEGEN--\":377:397   */\n              or\n                /* \"--CODEGEN--\":372:375   */\n              dup6\n                /* \"--CODEGEN--\":365:398   */\n              mstore\n                /* \"--CODEGEN--\":3:402   */\n              pop\n              pop\n              pop\n                /* \"background.sol\":7037:7059  abi.encodePacked(pass) */\n              pop\n              pop\n              pop\n              swap1\n              pop\n              add\n              swap2\n              pop\n              pop\n              mload(0x40)\n                /* \"--CODEGEN--\":49:53   */\n              0x20\n                /* \"--CODEGEN--\":39:46   */\n              dup2\n                /* \"--CODEGEN--\":30:37   */\n              dup4\n                /* \"--CODEGEN--\":26:47   */\n              sub\n                /* \"--CODEGEN--\":22:54   */\n              sub\n                /* \"--CODEGEN--\":13:20   */\n              dup2\n                /* \"--CODEGEN--\":6:55   */\n              mstore\n                /* \"background.sol\":7037:7059  abi.encodePacked(pass) */\n              swap1\n              0x40\n              mstore\n                /* \"background.sol\":7027:7060  keccak256(abi.encodePacked(pass)) */\n              dup1\n              mload\n              swap1\n              0x20\n              add\n              keccak256\n                /* \"background.sol\":7027:7101  keccak256(abi.encodePacked(pass)) == keccak256(abi.encodePacked(password)) */\n              eq\n                /* \"background.sol\":7024:7205  if(keccak256(abi.encodePacked(pass)) == keccak256(abi.encodePacked(password))) {\r... */\n              iszero\n              tag_68\n              jumpi\n                /* \"background.sol\":7140:7144  true */\n              0x01\n                /* \"background.sol\":7118:7132  doctorsAllowed */\n              0x14\n                /* \"background.sol\":7118:7137  doctorsAllowed[doc] */\n              0x00\n                /* \"background.sol\":7133:7136  doc */\n              dup7\n                /* \"background.sol\":7118:7137  doctorsAllowed[doc] */\n              0xffffffffffffffffffffffffffffffffffffffff\n              and\n              0xffffffffffffffffffffffffffffffffffffffff\n              and\n              dup2\n              mstore\n              0x20\n              add\n              swap1\n              dup2\n              mstore\n              0x20\n              add\n              0x00\n              keccak256\n              0x00\n                /* \"background.sol\":7118:7144  doctorsAllowed[doc] = true */\n              0x0100\n              exp\n              dup2\n              sload\n              dup2\n              0xff\n              mul\n              not\n              and\n              swap1\n              dup4\n              iszero\n              iszero\n              mul\n              or\n              swap1\n              sstore\n              pop\n                /* \"background.sol\":7164:7193  LogBook(logHeader,logDetails) */\n              0xef0f252fa7157cbc267992e6ffb0392cef11ce000a6e683e67df6b4c493ec5dd\n                /* \"background.sol\":7172:7181  logHeader */\n              dup3\n                /* \"background.sol\":7182:7192  logDetails */\n              dup3\n                /* \"background.sol\":7164:7193  LogBook(logHeader,logDetails) */\n              mload(0x40)\n              tag_69\n              swap3\n              swap2\n              swap1\n              jump(tag_70)\n            tag_69:\n              mload(0x40)\n              dup1\n              swap2\n              sub\n              swap1\n              log1\n                /* \"background.sol\":7024:7205  if(keccak256(abi.encodePacked(pass)) == keccak256(abi.encodePacked(password))) {\r... */\n            tag_68:\n                /* \"background.sol\":6903:7212  function addDoctor(address doc, string memory pass, string memory logHeader, string memory logDetails) public {\r... */\n              pop\n              pop\n              pop\n              pop\n              jump\t// out\n                /* \"background.sol\":7735:9097  function getPatientDataPassword(string memory passworddd) public view returns(bool, PatientDemographics memory, PatientNonDemographics memory, Files memory) {\r... */\n            tag_22:\n                /* \"background.sol\":7813:7817  bool */\n              0x00\n                /* \"background.sol\":7819:7845  PatientDemographics memory */\n              tag_71\n              tag_72\n              jump\t// in\n            tag_71:\n                /* \"background.sol\":7847:7876  PatientNonDemographics memory */\n              tag_73\n              tag_74\n              jump\t// in\n            tag_73:\n                /* \"background.sol\":7878:7890  Files memory */\n              tag_75\n              tag_76\n              jump\t// in\n            tag_75:\n                /* \"background.sol\":7906:7935  isCorrectPassword(passworddd) */\n              tag_78\n                /* \"background.sol\":7924:7934  passworddd */\n              dup6\n                /* \"background.sol\":7906:7923  isCorrectPassword */\n              tag_46\n                /* \"background.sol\":7906:7935  isCorrectPassword(passworddd) */\n              jump\t// in\n            tag_78:\n                /* \"background.sol\":7903:9090  if(isCorrectPassword(passworddd)) {\r... */\n              iszero\n              tag_79\n              jumpi\n                /* \"background.sol\":7960:7964  true */\n              0x01\n                /* \"background.sol\":7966:7985  patientDemographics */\n              0x00\n                /* \"background.sol\":7987:8009  patientNonDemographics */\n              0x08\n                /* \"background.sol\":8011:8016  files */\n              0x10\n                /* \"background.sol\":7952:8018  return( true, patientDemographics, patientNonDemographics, files ) */\n              dup3\n              0x0100\n              mload(0x40)\n              swap1\n              dup2\n              add\n              0x40\n              mstore\n              swap1\n              dup2\n              0x00\n              dup3\n              add\n              dup1\n              sload\n              0x01\n              dup2\n              0x01\n              and\n              iszero\n              0x0100\n              mul\n              sub\n              and\n              0x02\n              swap1\n              div\n              dup1\n              0x1f\n              add\n              0x20\n              dup1\n              swap2\n              div\n              mul\n              0x20\n              add\n              mload(0x40)\n              swap1\n              dup2\n              add\n              0x40\n              mstore\n              dup1\n              swap3\n              swap2\n              swap1\n              dup2\n              dup2\n              mstore\n              0x20\n              add\n              dup3\n              dup1\n              sload\n              0x01\n              dup2\n              0x01\n              and\n              iszero\n              0x0100\n              mul\n              sub\n              and\n              0x02\n              swap1\n              div\n              dup1\n              iszero\n              tag_80\n              jumpi\n              dup1\n              0x1f\n              lt\n              tag_81\n              jumpi\n              0x0100\n              dup1\n              dup4\n              sload\n              div\n              mul\n              dup4\n              mstore\n              swap2\n              0x20\n              add\n              swap2\n              jump(tag_80)\n            tag_81:\n              dup3\n              add\n              swap2\n              swap1\n              0x00\n              mstore\n              keccak256(0x00, 0x20)\n              swap1\n            tag_82:\n              dup2\n              sload\n              dup2\n              mstore\n              swap1\n              0x01\n              add\n              swap1\n              0x20\n              add\n              dup1\n              dup4\n              gt\n              tag_82\n              jumpi\n              dup3\n              swap1\n              sub\n              0x1f\n              and\n              dup3\n              add\n              swap2\n            tag_80:\n              pop\n              pop\n              pop\n              pop\n              pop\n              dup2\n              mstore\n              0x20\n              add\n              0x01\n              dup3\n              add\n              dup1\n              sload\n              0x01\n              dup2\n              0x01\n              and\n              iszero\n              0x0100\n              mul\n              sub\n              and\n              0x02\n              swap1\n              div\n              dup1\n              0x1f\n              add\n              0x20\n              dup1\n              swap2\n              div\n              mul\n              0x20\n              add\n              mload(0x40)\n              swap1\n              dup2\n              add\n              0x40\n              mstore\n              dup1\n              swap3\n              swap2\n              swap1\n              dup2\n              dup2\n              mstore\n              0x20\n              add\n              dup3\n              dup1\n              sload\n              0x01\n              dup2\n              0x01\n              and\n              iszero\n              0x0100\n              mul\n              sub\n              and\n              0x02\n              swap1\n              div\n              dup1\n              iszero\n              tag_83\n              jumpi\n              dup1\n              0x1f\n              lt\n              tag_84\n              jumpi\n              0x0100\n              dup1\n              dup4\n              sload\n              div\n              mul\n              dup4\n              mstore\n              swap2\n              0x20\n              add\n              swap2\n              jump(tag_83)\n            tag_84:\n              dup3\n              add\n              swap2\n              swap1\n              0x00\n              mstore\n              keccak256(0x00, 0x20)\n              swap1\n            tag_85:\n              dup2\n              sload\n              dup2\n              mstore\n              swap1\n              0x01\n              add\n              swap1\n              0x20\n              add\n              dup1\n              dup4\n              gt\n              tag_85\n              jumpi\n              dup3\n              swap1\n              sub\n              0x1f\n              and\n              dup3\n              add\n              swap2\n            tag_83:\n              pop\n              pop\n              pop\n              pop\n              pop\n              dup2\n              mstore\n              0x20\n              add\n              0x02\n              dup3\n              add\n              dup1\n              sload\n              0x01\n              dup2\n              0x01\n              and\n              iszero\n              0x0100\n              mul\n              sub\n              and\n              0x02\n              swap1\n              div\n              dup1\n              0x1f\n              add\n              0x20\n              dup1\n              swap2\n              div\n              mul\n              0x20\n              add\n              mload(0x40)\n              swap1\n              dup2\n              add\n              0x40\n              mstore\n              dup1\n              swap3\n              swap2\n              swap1\n              dup2\n              dup2\n              mstore\n              0x20\n              add\n              dup3\n              dup1\n              sload\n              0x01\n              dup2\n              0x01\n              and\n              iszero\n              0x0100\n              mul\n              sub\n              and\n              0x02\n              swap1\n              div\n              dup1\n              iszero\n              tag_86\n              jumpi\n              dup1\n              0x1f\n              lt\n              tag_87\n              jumpi\n              0x0100\n              dup1\n              dup4\n              sload\n              div\n              mul\n              dup4\n              mstore\n              swap2\n              0x20\n              add\n              swap2\n              jump(tag_86)\n            tag_87:\n              dup3\n              add\n              swap2\n              swap1\n              0x00\n              mstore\n              keccak256(0x00, 0x20)\n              swap1\n            tag_88:\n              dup2\n              sload\n              dup2\n              mstore\n              swap1\n              0x01\n              add\n              swap1\n              0x20\n              add\n              dup1\n              dup4\n              gt\n              tag_88\n              jumpi\n              dup3\n              swap1\n              sub\n              0x1f\n              and\n              dup3\n              add\n              swap2\n            tag_86:\n              pop\n              pop\n              pop\n              pop\n              pop\n              dup2\n              mstore\n              0x20\n              add\n              0x03\n              dup3\n              add\n              dup1\n              sload\n              0x01\n              dup2\n              0x01\n              and\n              iszero\n              0x0100\n              mul\n              sub\n              and\n              0x02\n              swap1\n              div\n              dup1\n              0x1f\n              add\n              0x20\n              dup1\n              swap2\n              div\n              mul\n              0x20\n              add\n              mload(0x40)\n              swap1\n              dup2\n              add\n              0x40\n              mstore\n              dup1\n              swap3\n              swap2\n              swap1\n              dup2\n              dup2\n              mstore\n              0x20\n              add\n              dup3\n              dup1\n              sload\n              0x01\n              dup2\n              0x01\n              and\n              iszero\n              0x0100\n              mul\n              sub\n              and\n              0x02\n              swap1\n              div\n              dup1\n              iszero\n              tag_89\n              jumpi\n              dup1\n              0x1f\n              lt\n              tag_90\n              jumpi\n              0x0100\n              dup1\n              dup4\n              sload\n              div\n              mul\n              dup4\n              mstore\n              swap2\n              0x20\n              add\n              swap2\n              jump(tag_89)\n            tag_90:\n              dup3\n              add\n              swap2\n              swap1\n              0x00\n              mstore\n              keccak256(0x00, 0x20)\n              swap1\n            tag_91:\n              dup2\n              sload\n              dup2\n              mstore\n              swap1\n              0x01\n              add\n              swap1\n              0x20\n              add\n              dup1\n              dup4\n              gt\n              tag_91\n              jumpi\n              dup3\n              swap1\n              sub\n              0x1f\n              and\n              dup3\n              add\n              swap2\n            tag_89:\n              pop\n              pop\n              pop\n              pop\n              pop\n              dup2\n              mstore\n              0x20\n              add\n              0x04\n              dup3\n              add\n              sload\n              dup2\n              mstore\n              0x20\n              add\n              0x05\n              dup3\n              add\n              dup1\n              sload\n              0x01\n              dup2\n              0x01\n              and\n              iszero\n              0x0100\n              mul\n              sub\n              and\n              0x02\n              swap1\n              div\n              dup1\n              0x1f\n              add\n              0x20\n              dup1\n              swap2\n              div\n              mul\n              0x20\n              add\n              mload(0x40)\n              swap1\n              dup2\n              add\n              0x40\n              mstore\n              dup1\n              swap3\n              swap2\n              swap1\n              dup2\n              dup2\n              mstore\n              0x20\n              add\n              dup3\n              dup1\n              sload\n              0x01\n              dup2\n              0x01\n              and\n              iszero\n              0x0100\n              mul\n              sub\n              and\n              0x02\n              swap1\n              div\n              dup1\n              iszero\n              tag_92\n              jumpi\n              dup1\n              0x1f\n              lt\n              tag_93\n              jumpi\n              0x0100\n              dup1\n              dup4\n              sload\n              div\n              mul\n              dup4\n              mstore\n              swap2\n              0x20\n              add\n              swap2\n              jump(tag_92)\n            tag_93:\n              dup3\n              add\n              swap2\n              swap1\n              0x00\n              mstore\n              keccak256(0x00, 0x20)\n              swap1\n            tag_94:\n              dup2\n              sload\n              dup2\n              mstore\n              swap1\n              0x01\n              add\n              swap1\n              0x20\n              add\n              dup1\n              dup4\n              gt\n              tag_94\n              jumpi\n              dup3\n              swap1\n              sub\n              0x1f\n              and\n              dup3\n              add\n              swap2\n            tag_92:\n              pop\n              pop\n              pop\n              pop\n              pop\n              dup2\n              mstore\n              0x20\n              add\n              0x06\n              dup3\n              add\n              dup1\n              sload\n              0x01\n              dup2\n              0x01\n              and\n              iszero\n              0x0100\n              mul\n              sub\n              and\n              0x02\n              swap1\n              div\n              dup1\n              0x1f\n              add\n              0x20\n              dup1\n              swap2\n              div\n              mul\n              0x20\n              add\n              mload(0x40)\n              swap1\n              dup2\n              add\n              0x40\n              mstore\n              dup1\n              swap3\n              swap2\n              swap1\n              dup2\n              dup2\n              mstore\n              0x20\n              add\n              dup3\n              dup1\n              sload\n              0x01\n              dup2\n              0x01\n              and\n              iszero\n              0x0100\n              mul\n              sub\n              and\n              0x02\n              swap1\n              div\n              dup1\n              iszero\n              tag_95\n              jumpi\n              dup1\n              0x1f\n              lt\n              tag_96\n              jumpi\n              0x0100\n              dup1\n              dup4\n              sload\n              div\n              mul\n              dup4\n              mstore\n              swap2\n              0x20\n              add\n              swap2\n              jump(tag_95)\n            tag_96:\n              dup3\n              add\n              swap2\n              swap1\n              0x00\n              mstore\n              keccak256(0x00, 0x20)\n              swap1\n            tag_97:\n              dup2\n              sload\n              dup2\n              mstore\n              swap1\n              0x01\n              add\n              swap1\n              0x20\n              add\n              dup1\n              dup4\n              gt\n              tag_97\n              jumpi\n              dup3\n              swap1\n              sub\n              0x1f\n              and\n              dup3\n              add\n              swap2\n            tag_95:\n              pop\n              pop\n              pop\n              pop\n              pop\n              dup2\n              mstore\n              0x20\n              add\n              0x07\n              dup3\n              add\n              dup1\n              sload\n              0x01\n              dup2\n              0x01\n              and\n              iszero\n              0x0100\n              mul\n              sub\n              and\n              0x02\n              swap1\n              div\n              dup1\n              0x1f\n              add\n              0x20\n              dup1\n              swap2\n              div\n              mul\n              0x20\n              add\n              mload(0x40)\n              swap1\n              dup2\n              add\n              0x40\n              mstore\n              dup1\n              swap3\n              swap2\n              swap1\n              dup2\n              dup2\n              mstore\n              0x20\n              add\n              dup3\n              dup1\n              sload\n              0x01\n              dup2\n              0x01\n              and\n              iszero\n              0x0100\n              mul\n              sub\n              and\n              0x02\n              swap1\n              div\n              dup1\n              iszero\n              tag_98\n              jumpi\n              dup1\n              0x1f\n              lt\n              tag_99\n              jumpi\n              0x0100\n              dup1\n              dup4\n              sload\n              div\n              mul\n              dup4\n              mstore\n              swap2\n              0x20\n              add\n              swap2\n              jump(tag_98)\n            tag_99:\n              dup3\n              add\n              swap2\n              swap1\n              0x00\n              mstore\n              keccak256(0x00, 0x20)\n              swap1\n            tag_100:\n              dup2\n              sload\n              dup2\n              mstore\n              swap1\n              0x01\n              add\n              swap1\n              0x20\n              add\n              dup1\n              dup4\n              gt\n              tag_100\n              jumpi\n              dup3\n              swap1\n              sub\n              0x1f\n              and\n              dup3\n              add\n              swap2\n            tag_98:\n              pop\n              pop\n              pop\n              pop\n              pop\n              dup2\n              mstore\n              pop\n              pop\n              swap3\n              pop\n              dup2\n              0x0100\n              mload(0x40)\n              swap1\n              dup2\n              add\n              0x40\n              mstore\n              swap1\n              dup2\n              0x00\n              dup3\n              add\n              dup1\n              sload\n              0x01\n              dup2\n              0x01\n              and\n              iszero\n              0x0100\n              mul\n              sub\n              and\n              0x02\n              swap1\n              div\n              dup1\n              0x1f\n              add\n              0x20\n              dup1\n              swap2\n              div\n              mul\n              0x20\n              add\n              mload(0x40)\n              swap1\n              dup2\n              add\n              0x40\n              mstore\n              dup1\n              swap3\n              swap2\n              swap1\n              dup2\n              dup2\n              mstore\n              0x20\n              add\n              dup3\n              dup1\n              sload\n              0x01\n              dup2\n              0x01\n              and\n              iszero\n              0x0100\n              mul\n              sub\n              and\n              0x02\n              swap1\n              div\n              dup1\n              iszero\n              tag_101\n              jumpi\n              dup1\n              0x1f\n              lt\n              tag_102\n              jumpi\n              0x0100\n              dup1\n              dup4\n              sload\n              div\n              mul\n              dup4\n              mstore\n              swap2\n              0x20\n              add\n              swap2\n              jump(tag_101)\n            tag_102:\n              dup3\n              add\n              swap2\n              swap1\n              0x00\n              mstore\n              keccak256(0x00, 0x20)\n              swap1\n            tag_103:\n              dup2\n              sload\n              dup2\n              mstore\n              swap1\n              0x01\n              add\n              swap1\n              0x20\n              add\n              dup1\n              dup4\n              gt\n              tag_103\n              jumpi\n              dup3\n              swap1\n              sub\n              0x1f\n              and\n              dup3\n              add\n              swap2\n            tag_101:\n              pop\n              pop\n              pop\n              pop\n              pop\n              dup2\n              mstore\n              0x20\n              add\n              0x01\n              dup3\n              add\n              dup1\n              sload\n              0x01\n              dup2\n              0x01\n              and\n              iszero\n              0x0100\n              mul\n              sub\n              and\n              0x02\n              swap1\n              div\n              dup1\n              0x1f\n              add\n              0x20\n              dup1\n              swap2\n              div\n              mul\n              0x20\n              add\n              mload(0x40)\n              swap1\n              dup2\n              add\n              0x40\n              mstore\n              dup1\n              swap3\n              swap2\n              swap1\n              dup2\n              dup2\n              mstore\n              0x20\n              add\n              dup3\n              dup1\n              sload\n              0x01\n              dup2\n              0x01\n              and\n              iszero\n              0x0100\n              mul\n              sub\n              and\n              0x02\n              swap1\n              div\n              dup1\n              iszero\n              tag_104\n              jumpi\n              dup1\n              0x1f\n              lt\n              tag_105\n              jumpi\n              0x0100\n              dup1\n              dup4\n              sload\n              div\n              mul\n              dup4\n              mstore\n              swap2\n              0x20\n              add\n              swap2\n              jump(tag_104)\n            tag_105:\n              dup3\n              add\n              swap2\n              swap1\n              0x00\n              mstore\n              keccak256(0x00, 0x20)\n              swap1\n            tag_106:\n              dup2\n              sload\n              dup2\n              mstore\n              swap1\n              0x01\n              add\n              swap1\n              0x20\n              add\n              dup1\n              dup4\n              gt\n              tag_106\n              jumpi\n              dup3\n              swap1\n              sub\n              0x1f\n              and\n              dup3\n              add\n              swap2\n            tag_104:\n              pop\n              pop\n              pop\n              pop\n              pop\n              dup2\n              mstore\n              0x20\n              add\n              0x02\n              dup3\n              add\n              dup1\n              sload\n              0x01\n              dup2\n              0x01\n              and\n              iszero\n              0x0100\n              mul\n              sub\n              and\n              0x02\n              swap1\n              div\n              dup1\n              0x1f\n              add\n              0x20\n              dup1\n              swap2\n              div\n              mul\n              0x20\n              add\n              mload(0x40)\n              swap1\n              dup2\n              add\n              0x40\n              mstore\n              dup1\n              swap3\n              swap2\n              swap1\n              dup2\n              dup2\n              mstore\n              0x20\n              add\n              dup3\n              dup1\n              sload\n              0x01\n              dup2\n              0x01\n              and\n              iszero\n              0x0100\n              mul\n              sub\n              and\n              0x02\n              swap1\n              div\n              dup1\n              iszero\n              tag_107\n              jumpi\n              dup1\n              0x1f\n              lt\n              tag_108\n              jumpi\n              0x0100\n              dup1\n              dup4\n              sload\n              div\n              mul\n              dup4\n              mstore\n              swap2\n              0x20\n              add\n              swap2\n              jump(tag_107)\n            tag_108:\n              dup3\n              add\n              swap2\n              swap1\n              0x00\n              mstore\n              keccak256(0x00, 0x20)\n              swap1\n            tag_109:\n              dup2\n              sload\n              dup2\n              mstore\n              swap1\n              0x01\n              add\n              swap1\n              0x20\n              add\n              dup1\n              dup4\n              gt\n              tag_109\n              jumpi\n              dup3\n              swap1\n              sub\n              0x1f\n              and\n              dup3\n              add\n              swap2\n            tag_107:\n              pop\n              pop\n              pop\n              pop\n              pop\n              dup2\n              mstore\n              0x20\n              add\n              0x03\n              dup3\n              add\n              dup1\n              sload\n              0x01\n              dup2\n              0x01\n              and\n              iszero\n              0x0100\n              mul\n              sub\n              and\n              0x02\n              swap1\n              div\n              dup1\n              0x1f\n              add\n              0x20\n              dup1\n              swap2\n              div\n              mul\n              0x20\n              add\n              mload(0x40)\n              swap1\n              dup2\n              add\n              0x40\n              mstore\n              dup1\n              swap3\n              swap2\n              swap1\n              dup2\n              dup2\n              mstore\n              0x20\n              add\n              dup3\n              dup1\n              sload\n              0x01\n              dup2\n              0x01\n              and\n              iszero\n              0x0100\n              mul\n              sub\n              and\n              0x02\n              swap1\n              div\n              dup1\n              iszero\n              tag_110\n              jumpi\n              dup1\n              0x1f\n              lt\n              tag_111\n              jumpi\n              0x0100\n              dup1\n              dup4\n              sload\n              div\n              mul\n              dup4\n              mstore\n              swap2\n              0x20\n              add\n              swap2\n              jump(tag_110)\n            tag_111:\n              dup3\n              add\n              swap2\n              swap1\n              0x00\n              mstore\n              keccak256(0x00, 0x20)\n              swap1\n            tag_112:\n              dup2\n              sload\n              dup2\n              mstore\n              swap1\n              0x01\n              add\n              swap1\n              0x20\n              add\n              dup1\n              dup4\n              gt\n              tag_112\n              jumpi\n              dup3\n              swap1\n              sub\n              0x1f\n              and\n              dup3\n              add\n              swap2\n            tag_110:\n              pop\n              pop\n              pop\n              pop\n              pop\n              dup2\n              mstore\n              0x20\n              add\n              0x04\n              dup3\n              add\n              dup1\n              sload\n              0x01\n              dup2\n              0x01\n              and\n              iszero\n              0x0100\n              mul\n              sub\n              and\n              0x02\n              swap1\n              div\n              dup1\n              0x1f\n              add\n              0x20\n              dup1\n              swap2\n              div\n              mul\n              0x20\n              add\n              mload(0x40)\n              swap1\n              dup2\n              add\n              0x40\n              mstore\n              dup1\n              swap3\n              swap2\n              swap1\n              dup2\n              dup2\n              mstore\n              0x20\n              add\n              dup3\n              dup1\n              sload\n              0x01\n              dup2\n              0x01\n              and\n              iszero\n              0x0100\n              mul\n              sub\n              and\n              0x02\n              swap1\n              div\n              dup1\n              iszero\n              tag_113\n              jumpi\n              dup1\n              0x1f\n              lt\n              tag_114\n              jumpi\n              0x0100\n              dup1\n              dup4\n              sload\n              div\n              mul\n              dup4\n              mstore\n              swap2\n              0x20\n              add\n              swap2\n              jump(tag_113)\n            tag_114:\n              dup3\n              add\n              swap2\n              swap1\n              0x00\n              mstore\n              keccak256(0x00, 0x20)\n              swap1\n            tag_115:\n              dup2\n              sload\n              dup2\n              mstore\n              swap1\n              0x01\n              add\n              swap1\n              0x20\n              add\n              dup1\n              dup4\n              gt\n              tag_115\n              jumpi\n              dup3\n              swap1\n              sub\n              0x1f\n              and\n              dup3\n              add\n              swap2\n            tag_113:\n              pop\n              pop\n              pop\n              pop\n              pop\n              dup2\n              mstore\n              0x20\n              add\n              0x05\n              dup3\n              add\n              dup1\n              sload\n              0x01\n              dup2\n              0x01\n              and\n              iszero\n              0x0100\n              mul\n              sub\n              and\n              0x02\n              swap1\n              div\n              dup1\n              0x1f\n              add\n              0x20\n              dup1\n              swap2\n              div\n              mul\n              0x20\n              add\n              mload(0x40)\n              swap1\n              dup2\n              add\n              0x40\n              mstore\n              dup1\n              swap3\n              swap2\n              swap1\n              dup2\n              dup2\n              mstore\n              0x20\n              add\n              dup3\n              dup1\n              sload\n              0x01\n              dup2\n              0x01\n              and\n              iszero\n              0x0100\n              mul\n              sub\n              and\n              0x02\n              swap1\n              div\n              dup1\n              iszero\n              tag_116\n              jumpi\n              dup1\n              0x1f\n              lt\n              tag_117\n              jumpi\n              0x0100\n              dup1\n              dup4\n              sload\n              div\n              mul\n              dup4\n              mstore\n              swap2\n              0x20\n              add\n              swap2\n              jump(tag_116)\n            tag_117:\n              dup3\n              add\n              swap2\n              swap1\n              0x00\n              mstore\n              keccak256(0x00, 0x20)\n              swap1\n            tag_118:\n              dup2\n              sload\n              dup2\n              mstore\n              swap1\n              0x01\n              add\n              swap1\n              0x20\n              add\n              dup1\n              dup4\n              gt\n              tag_118\n              jumpi\n              dup3\n              swap1\n              sub\n              0x1f\n              and\n              dup3\n              add\n              swap2\n            tag_116:\n              pop\n              pop\n              pop\n              pop\n              pop\n              dup2\n              mstore\n              0x20\n              add\n              0x06\n              dup3\n              add\n              dup1\n              sload\n              0x01\n              dup2\n              0x01\n              and\n              iszero\n              0x0100\n              mul\n              sub\n              and\n              0x02\n              swap1\n              div\n              dup1\n              0x1f\n              add\n              0x20\n              dup1\n              swap2\n              div\n              mul\n              0x20\n              add\n              mload(0x40)\n              swap1\n              dup2\n              add\n              0x40\n              mstore\n              dup1\n              swap3\n              swap2\n              swap1\n              dup2\n              dup2\n              mstore\n              0x20\n              add\n              dup3\n              dup1\n              sload\n              0x01\n              dup2\n              0x01\n              and\n              iszero\n              0x0100\n              mul\n              sub\n              and\n              0x02\n              swap1\n              div\n              dup1\n              iszero\n              tag_119\n              jumpi\n              dup1\n              0x1f\n              lt\n              tag_120\n              jumpi\n              0x0100\n              dup1\n              dup4\n              sload\n              div\n              mul\n              dup4\n              mstore\n              swap2\n              0x20\n              add\n              swap2\n              jump(tag_119)\n            tag_120:\n              dup3\n              add\n              swap2\n              swap1\n              0x00\n              mstore\n              keccak256(0x00, 0x20)\n              swap1\n            tag_121:\n              dup2\n              sload\n              dup2\n              mstore\n              swap1\n              0x01\n              add\n              swap1\n              0x20\n              add\n              dup1\n              dup4\n              gt\n              tag_121\n              jumpi\n              dup3\n              swap1\n              sub\n              0x1f\n              and\n              dup3\n              add\n              swap2\n            tag_119:\n              pop\n              pop\n              pop\n              pop\n              pop\n              dup2\n              mstore\n              0x20\n              add\n              0x07\n              dup3\n              add\n              dup1\n              sload\n              0x01\n              dup2\n              0x01\n              and\n              iszero\n              0x0100\n              mul\n              sub\n              and\n              0x02\n              swap1\n              div\n              dup1\n              0x1f\n              add\n              0x20\n              dup1\n              swap2\n              div\n              mul\n              0x20\n              add\n              mload(0x40)\n              swap1\n              dup2\n              add\n              0x40\n              mstore\n              dup1\n              swap3\n              swap2\n              swap1\n              dup2\n              dup2\n              mstore\n              0x20\n              add\n              dup3\n              dup1\n              sload\n              0x01\n              dup2\n              0x01\n              and\n              iszero\n              0x0100\n              mul\n              sub\n              and\n              0x02\n              swap1\n              div\n              dup1\n              iszero\n              tag_122\n              jumpi\n              dup1\n              0x1f\n              lt\n              tag_123\n              jumpi\n              0x0100\n              dup1\n              dup4\n              sload\n              div\n              mul\n              dup4\n              mstore\n              swap2\n              0x20\n              add\n              swap2\n              jump(tag_122)\n            tag_123:\n              dup3\n              add\n              swap2\n              swap1\n              0x00\n              mstore\n              keccak256(0x00, 0x20)\n              swap1\n            tag_124:\n              dup2\n              sload\n              dup2\n              mstore\n              swap1\n              0x01\n              add\n              swap1\n              0x20\n              add\n              dup1\n              dup4\n              gt\n              tag_124\n              jumpi\n              dup3\n              swap1\n              sub\n              0x1f\n              and\n              dup3\n              add\n              swap2\n            tag_122:\n              pop\n              pop\n              pop\n              pop\n              pop\n              dup2\n              mstore\n              pop\n              pop\n              swap2\n              pop\n              dup1\n              0x80\n              mload(0x40)\n              swap1\n              dup2\n              add\n              0x40\n              mstore\n              swap1\n              dup2\n              0x00\n              dup3\n              add\n              dup1\n              sload\n              dup1\n              0x20\n              mul\n              0x20\n              add\n              mload(0x40)\n              swap1\n              dup2\n              add\n              0x40\n              mstore\n              dup1\n              swap3\n              swap2\n              swap1\n              dup2\n              dup2\n              mstore\n              0x20\n              add\n              0x00\n              swap1\n            tag_125:\n              dup3\n              dup3\n              lt\n              iszero\n              tag_126\n              jumpi\n              dup4\n              dup3\n              swap1\n              0x00\n              mstore\n              keccak256(0x00, 0x20)\n              add\n              dup1\n              sload\n              0x01\n              dup2\n              0x01\n              and\n              iszero\n              0x0100\n              mul\n              sub\n              and\n              0x02\n              swap1\n              div\n              dup1\n              0x1f\n              add\n              0x20\n              dup1\n              swap2\n              div\n              mul\n              0x20\n              add\n              mload(0x40)\n              swap1\n              dup2\n              add\n              0x40\n              mstore\n              dup1\n              swap3\n              swap2\n              swap1\n              dup2\n              dup2\n              mstore\n              0x20\n              add\n              dup3\n              dup1\n              sload\n              0x01\n              dup2\n              0x01\n              and\n              iszero\n              0x0100\n              mul\n              sub\n              and\n              0x02\n              swap1\n              div\n              dup1\n              iszero\n              tag_128\n              jumpi\n              dup1\n              0x1f\n              lt\n              tag_129\n              jumpi\n              0x0100\n              dup1\n              dup4\n              sload\n              div\n              mul\n              dup4\n              mstore\n              swap2\n              0x20\n              add\n              swap2\n              jump(tag_128)\n            tag_129:\n              dup3\n              add\n              swap2\n              swap1\n              0x00\n              mstore\n              keccak256(0x00, 0x20)\n              swap1\n            tag_130:\n              dup2\n              sload\n              dup2\n              mstore\n              swap1\n              0x01\n              add\n              swap1\n              0x20\n              add\n              dup1\n              dup4\n              gt\n              tag_130\n              jumpi\n              dup3\n              swap1\n              sub\n              0x1f\n              and\n              dup3\n              add\n              swap2\n            tag_128:\n              pop\n              pop\n              pop\n              pop\n              pop\n              dup2\n              mstore\n              0x20\n              add\n              swap1\n              0x01\n              add\n              swap1\n              jump(tag_125)\n            tag_126:\n              pop\n              pop\n              pop\n              pop\n              dup2\n              mstore\n              0x20\n              add\n              0x01\n              dup3\n              add\n              dup1\n              sload\n              dup1\n              0x20\n              mul\n              0x20\n              add\n              mload(0x40)\n              swap1\n              dup2\n              add\n              0x40\n              mstore\n              dup1\n              swap3\n              swap2\n              swap1\n              dup2\n              dup2\n              mstore\n              0x20\n              add\n              0x00\n              swap1\n            tag_131:\n              dup3\n              dup3\n              lt\n              iszero\n              tag_132\n              jumpi\n              dup4\n              dup3\n              swap1\n              0x00\n              mstore\n              keccak256(0x00, 0x20)\n              add\n              dup1\n              sload\n              0x01\n              dup2\n              0x01\n              and\n              iszero\n              0x0100\n              mul\n              sub\n              and\n              0x02\n              swap1\n              div\n              dup1\n              0x1f\n              add\n              0x20\n              dup1\n              swap2\n              div\n              mul\n              0x20\n              add\n              mload(0x40)\n              swap1\n              dup2\n              add\n              0x40\n              mstore\n              dup1\n              swap3\n              swap2\n              swap1\n              dup2\n              dup2\n              mstore\n              0x20\n              add\n              dup3\n              dup1\n              sload\n              0x01\n              dup2\n              0x01\n              and\n              iszero\n              0x0100\n              mul\n              sub\n              and\n              0x02\n              swap1\n              div\n              dup1\n              iszero\n              tag_134\n              jumpi\n              dup1\n              0x1f\n              lt\n              tag_135\n              jumpi\n              0x0100\n              dup1\n              dup4\n              sload\n              div\n              mul\n              dup4\n              mstore\n              swap2\n              0x20\n              add\n              swap2\n              jump(tag_134)\n            tag_135:\n              dup3\n              add\n              swap2\n              swap1\n              0x00\n              mstore\n              keccak256(0x00, 0x20)\n              swap1\n            tag_136:\n              dup2\n              sload\n              dup2\n              mstore\n              swap1\n              0x01\n              add\n              swap1\n              0x20\n              add\n              dup1\n              dup4\n              gt\n              tag_136\n              jumpi\n              dup3\n              swap1\n              sub\n              0x1f\n              and\n              dup3\n              add\n              swap2\n            tag_134:\n              pop\n              pop\n              pop\n              pop\n              pop\n              dup2\n              mstore\n              0x20\n              add\n              swap1\n              0x01\n              add\n              swap1\n              jump(tag_131)\n            tag_132:\n              pop\n              pop\n              pop\n              pop\n              dup2\n              mstore\n              0x20\n              add\n              0x02\n              dup3\n              add\n              dup1\n              sload\n              dup1\n              0x20\n              mul\n              0x20\n              add\n              mload(0x40)\n              swap1\n              dup2\n              add\n              0x40\n              mstore\n              dup1\n              swap3\n              swap2\n              swap1\n              dup2\n              dup2\n              mstore\n              0x20\n              add\n              0x00\n              swap1\n            tag_137:\n              dup3\n              dup3\n              lt\n              iszero\n              tag_138\n              jumpi\n              dup4\n              dup3\n              swap1\n              0x00\n              mstore\n              keccak256(0x00, 0x20)\n              add\n              dup1\n              sload\n              0x01\n              dup2\n              0x01\n              and\n              iszero\n              0x0100\n              mul\n              sub\n              and\n              0x02\n              swap1\n              div\n              dup1\n              0x1f\n              add\n              0x20\n              dup1\n              swap2\n              div\n              mul\n              0x20\n              add\n              mload(0x40)\n              swap1\n              dup2\n              add\n              0x40\n              mstore\n              dup1\n              swap3\n              swap2\n              swap1\n              dup2\n              dup2\n              mstore\n              0x20\n              add\n              dup3\n              dup1\n              sload\n              0x01\n              dup2\n              0x01\n              and\n              iszero\n              0x0100\n              mul\n              sub\n              and\n              0x02\n              swap1\n              div\n              dup1\n              iszero\n              tag_140\n              jumpi\n              dup1\n              0x1f\n              lt\n              tag_141\n              jumpi\n              0x0100\n              dup1\n              dup4\n              sload\n              div\n              mul\n              dup4\n              mstore\n              swap2\n              0x20\n              add\n              swap2\n              jump(tag_140)\n            tag_141:\n              dup3\n              add\n              swap2\n              swap1\n              0x00\n              mstore\n              keccak256(0x00, 0x20)\n              swap1\n            tag_142:\n              dup2\n              sload\n              dup2\n              mstore\n              swap1\n              0x01\n              add\n              swap1\n              0x20\n              add\n              dup1\n              dup4\n              gt\n              tag_142\n              jumpi\n              dup3\n              swap1\n              sub\n              0x1f\n              and\n              dup3\n              add\n              swap2\n            tag_140:\n              pop\n              pop\n              pop\n              pop\n              pop\n              dup2\n              mstore\n              0x20\n              add\n              swap1\n              0x01\n              add\n              swap1\n              jump(tag_137)\n            tag_138:\n              pop\n              pop\n              pop\n              pop\n              dup2\n              mstore\n              0x20\n              add\n              0x03\n              dup3\n              add\n              dup1\n              sload\n              dup1\n              0x20\n              mul\n              0x20\n              add\n              mload(0x40)\n              swap1\n              dup2\n              add\n              0x40\n              mstore\n              dup1\n              swap3\n              swap2\n              swap1\n              dup2\n              dup2\n              mstore\n              0x20\n              add\n              0x00\n              swap1\n            tag_143:\n              dup3\n              dup3\n              lt\n              iszero\n              tag_144\n              jumpi\n              dup4\n              dup3\n              swap1\n              0x00\n              mstore\n              keccak256(0x00, 0x20)\n              add\n              dup1\n              sload\n              0x01\n              dup2\n              0x01\n              and\n              iszero\n              0x0100\n              mul\n              sub\n              and\n              0x02\n              swap1\n              div\n              dup1\n              0x1f\n              add\n              0x20\n              dup1\n              swap2\n              div\n              mul\n              0x20\n              add\n              mload(0x40)\n              swap1\n              dup2\n              add\n              0x40\n              mstore\n              dup1\n              swap3\n              swap2\n              swap1\n              dup2\n              dup2\n              mstore\n              0x20\n              add\n              dup3\n              dup1\n              sload\n              0x01\n              dup2\n              0x01\n              and\n              iszero\n              0x0100\n              mul\n              sub\n              and\n              0x02\n              swap1\n              div\n              dup1\n              iszero\n              tag_146\n              jumpi\n              dup1\n              0x1f\n              lt\n              tag_147\n              jumpi\n              0x0100\n              dup1\n              dup4\n              sload\n              div\n              mul\n              dup4\n              mstore\n              swap2\n              0x20\n              add\n              swap2\n              jump(tag_146)\n            tag_147:\n              dup3\n              add\n              swap2\n              swap1\n              0x00\n              mstore\n              keccak256(0x00, 0x20)\n              swap1\n            tag_148:\n              dup2\n              sload\n              dup2\n              mstore\n              swap1\n              0x01\n              add\n              swap1\n              0x20\n              add\n              dup1\n              dup4\n              gt\n              tag_148\n              jumpi\n              dup3\n              swap1\n              sub\n              0x1f\n              and\n              dup3\n              add\n              swap2\n            tag_146:\n              pop\n              pop\n              pop\n              pop\n              pop\n              dup2\n              mstore\n              0x20\n              add\n              swap1\n              0x01\n              add\n              swap1\n              jump(tag_143)\n            tag_144:\n              pop\n              pop\n              pop\n              pop\n              dup2\n              mstore\n              pop\n              pop\n              swap1\n              pop\n              swap4\n              pop\n              swap4\n              pop\n              swap4\n              pop\n              swap4\n              pop\n              jump(tag_77)\n                /* \"background.sol\":7903:9090  if(isCorrectPassword(passworddd)) {\r... */\n            tag_79:\n                /* \"background.sol\":8060:8092  PatientDemographics memory dummy */\n              tag_150\n              tag_72\n              jump\t// in\n            tag_150:\n                /* \"background.sol\":8095:8388  PatientDemographics({\r... */\n              0x0100\n              mload(0x40)\n              swap1\n              dup2\n              add\n              0x40\n              mstore\n              dup1\n              0x40\n              dup1\n              mload\n              swap1\n              dup2\n              add\n              0x40\n              mstore\n              dup1\n              0x03\n              dup2\n              mstore\n              0x20\n              add\n              0x7878780000000000000000000000000000000000000000000000000000000000\n              dup2\n              mstore\n              pop\n              dup2\n              mstore\n              0x20\n              add\n              0x40\n              dup1\n              mload\n              swap1\n              dup2\n              add\n              0x40\n              mstore\n              dup1\n              0x03\n              dup2\n              mstore\n              0x20\n              add\n              0x7878780000000000000000000000000000000000000000000000000000000000\n              dup2\n              mstore\n              pop\n              dup2\n              mstore\n              0x20\n              add\n              0x40\n              dup1\n              mload\n              swap1\n              dup2\n              add\n              0x40\n              mstore\n              dup1\n              0x03\n              dup2\n              mstore\n              0x20\n              add\n              0x7878780000000000000000000000000000000000000000000000000000000000\n              dup2\n              mstore\n              pop\n              dup2\n              mstore\n              0x20\n              add\n              0x40\n              dup1\n              mload\n              swap1\n              dup2\n              add\n              0x40\n              mstore\n              dup1\n              0x03\n              dup2\n              mstore\n              0x20\n              add\n              0x7878780000000000000000000000000000000000000000000000000000000000\n              dup2\n              mstore\n              pop\n              dup2\n              mstore\n              0x20\n              add\n                /* \"background.sol\":8266:8269  999 */\n              0x03e7\n                /* \"background.sol\":8095:8388  PatientDemographics({\r... */\n              dup2\n              mstore\n              0x20\n              add\n              0x40\n              dup1\n              mload\n              swap1\n              dup2\n              add\n              0x40\n              mstore\n              dup1\n              0x03\n              dup2\n              mstore\n              0x20\n              add\n              0x7878780000000000000000000000000000000000000000000000000000000000\n              dup2\n              mstore\n              pop\n              dup2\n              mstore\n              0x20\n              add\n              0x40\n              dup1\n              mload\n              swap1\n              dup2\n              add\n              0x40\n              mstore\n              dup1\n              0x03\n              dup2\n              mstore\n              0x20\n              add\n              0x7878780000000000000000000000000000000000000000000000000000000000\n              dup2\n              mstore\n              pop\n              dup2\n              mstore\n              0x20\n              add\n              0x40\n              dup1\n              mload\n              swap1\n              dup2\n              add\n              0x40\n              mstore\n              dup1\n              0x03\n              dup2\n              mstore\n              0x20\n              add\n              0x7878780000000000000000000000000000000000000000000000000000000000\n              dup2\n              mstore\n              pop\n              dup2\n              mstore\n              pop\n                /* \"background.sol\":8060:8388  PatientDemographics memory dummy = PatientDemographics({\r... */\n              swap1\n              pop\n                /* \"background.sol\":8403:8436  PatientNonDemographics memory dum */\n              tag_151\n              tag_74\n              jump\t// in\n            tag_151:\n                /* \"background.sol\":8439:8778  PatientNonDemographics({\r... */\n              0x0100\n              mload(0x40)\n              swap1\n              dup2\n              add\n              0x40\n              mstore\n              dup1\n              0x40\n              dup1\n              mload\n              swap1\n              dup2\n              add\n              0x40\n              mstore\n              dup1\n              0x03\n              dup2\n              mstore\n              0x20\n              add\n              0x7878780000000000000000000000000000000000000000000000000000000000\n              dup2\n              mstore\n              pop\n              dup2\n              mstore\n              0x20\n              add\n              0x40\n              dup1\n              mload\n              swap1\n              dup2\n              add\n              0x40\n              mstore\n              dup1\n              0x03\n              dup2\n              mstore\n              0x20\n              add\n              0x7878780000000000000000000000000000000000000000000000000000000000\n              dup2\n              mstore\n              pop\n              dup2\n              mstore\n              0x20\n              add\n              0x40\n              dup1\n              mload\n              swap1\n              dup2\n              add\n              0x40\n              mstore\n              dup1\n              0x03\n              dup2\n              mstore\n              0x20\n              add\n              0x7878780000000000000000000000000000000000000000000000000000000000\n              dup2\n              mstore\n              pop\n              dup2\n              mstore\n              0x20\n              add\n              0x40\n              dup1\n              mload\n              swap1\n              dup2\n              add\n              0x40\n              mstore\n              dup1\n              0x03\n              dup2\n              mstore\n              0x20\n              add\n              0x7878780000000000000000000000000000000000000000000000000000000000\n              dup2\n              mstore\n              pop\n              dup2\n              mstore\n              0x20\n              add\n              0x40\n              dup1\n              mload\n              swap1\n              dup2\n              add\n              0x40\n              mstore\n              dup1\n              0x03\n              dup2\n              mstore\n              0x20\n              add\n              0x7878780000000000000000000000000000000000000000000000000000000000\n              dup2\n              mstore\n              pop\n              dup2\n              mstore\n              0x20\n              add\n              0x40\n              dup1\n              mload\n              swap1\n              dup2\n              add\n              0x40\n              mstore\n              dup1\n              0x03\n              dup2\n              mstore\n              0x20\n              add\n              0x7878780000000000000000000000000000000000000000000000000000000000\n              dup2\n              mstore\n              pop\n              dup2\n              mstore\n              0x20\n              add\n              0x40\n              dup1\n              mload\n              swap1\n              dup2\n              add\n              0x40\n              mstore\n              dup1\n              0x03\n              dup2\n              mstore\n              0x20\n              add\n              0x7878780000000000000000000000000000000000000000000000000000000000\n              dup2\n              mstore\n              pop\n              dup2\n              mstore\n              0x20\n              add\n              0x40\n              dup1\n              mload\n              swap1\n              dup2\n              add\n              0x40\n              mstore\n              dup1\n              0x03\n              dup2\n              mstore\n              0x20\n              add\n              0x7878780000000000000000000000000000000000000000000000000000000000\n              dup2\n              mstore\n              pop\n              dup2\n              mstore\n              pop\n                /* \"background.sol\":8403:8778  PatientNonDemographics memory dum = PatientNonDemographics({\r... */\n              swap1\n              pop\n                /* \"background.sol\":8793:8814  Files memory dumFiles */\n              tag_152\n              tag_76\n              jump\t// in\n            tag_152:\n                /* \"background.sol\":8817:9028  Files({\r... */\n              0x80\n              mload(0x40)\n              swap1\n              dup2\n              add\n              0x40\n              mstore\n              dup1\n                /* \"background.sol\":8868:8869  1 */\n              0x01\n                /* \"background.sol\":8855:8870  new string[](1) */\n              mload(0x40)\n              swap1\n              dup1\n              dup3\n              mstore\n              dup1\n              0x20\n              mul\n              0x20\n              add\n              dup3\n              add\n              0x40\n              mstore\n              dup1\n              iszero\n              tag_153\n              jumpi\n              dup2\n              0x20\n              add\n            tag_154:\n              0x60\n              dup2\n              mstore\n              0x20\n              add\n              swap1\n              0x01\n              swap1\n              sub\n              swap1\n              dup2\n              tag_154\n              jumpi\n              swap1\n              pop\n            tag_153:\n              pop\n                /* \"background.sol\":8817:9028  Files({\r... */\n              dup2\n              mstore\n              0x20\n              add\n                /* \"background.sol\":8919:8920  1 */\n              0x01\n                /* \"background.sol\":8906:8921  new string[](1) */\n              mload(0x40)\n              swap1\n              dup1\n              dup3\n              mstore\n              dup1\n              0x20\n              mul\n              0x20\n              add\n              dup3\n              add\n              0x40\n              mstore\n              dup1\n              iszero\n              tag_155\n              jumpi\n              dup2\n              0x20\n              add\n            tag_156:\n              0x60\n              dup2\n              mstore\n              0x20\n              add\n              swap1\n              0x01\n              swap1\n              sub\n              swap1\n              dup2\n              tag_156\n              jumpi\n              swap1\n              pop\n            tag_155:\n              pop\n                /* \"background.sol\":8817:9028  Files({\r... */\n              dup2\n              mstore\n              0x20\n              add\n                /* \"background.sol\":8965:8966  1 */\n              0x01\n                /* \"background.sol\":8952:8967  new string[](1) */\n              mload(0x40)\n              swap1\n              dup1\n              dup3\n              mstore\n              dup1\n              0x20\n              mul\n              0x20\n              add\n              dup3\n              add\n              0x40\n              mstore\n              dup1\n              iszero\n              tag_157\n              jumpi\n              dup2\n              0x20\n              add\n            tag_158:\n              0x60\n              dup2\n              mstore\n              0x20\n              add\n              swap1\n              0x01\n              swap1\n              sub\n              swap1\n              dup2\n              tag_158\n              jumpi\n              swap1\n              pop\n            tag_157:\n              pop\n                /* \"background.sol\":8817:9028  Files({\r... */\n              dup2\n              mstore\n              0x20\n              add\n                /* \"background.sol\":9010:9011  1 */\n              0x01\n                /* \"background.sol\":8997:9012  new string[](1) */\n              mload(0x40)\n              swap1\n              dup1\n              dup3\n              mstore\n              dup1\n              0x20\n              mul\n              0x20\n              add\n              dup3\n              add\n              0x40\n              mstore\n              dup1\n              iszero\n              tag_159\n              jumpi\n              dup2\n              0x20\n              add\n            tag_160:\n              0x60\n              dup2\n              mstore\n              0x20\n              add\n              swap1\n              0x01\n              swap1\n              sub\n              swap1\n              dup2\n              tag_160\n              jumpi\n              swap1\n              pop\n            tag_159:\n              pop\n                /* \"background.sol\":8817:9028  Files({\r... */\n              dup2\n              mstore\n              pop\n                /* \"background.sol\":8793:9028  Files memory dumFiles = Files({\r... */\n              swap1\n              pop\n                /* \"background.sol\":9050:9055  false */\n              0x00\n                /* \"background.sol\":9057:9062  dummy */\n              dup4\n                /* \"background.sol\":9064:9067  dum */\n              dup4\n                /* \"background.sol\":9069:9077  dumFiles */\n              dup4\n                /* \"background.sol\":9043:9078  return(false, dummy, dum, dumFiles) */\n              swap7\n              pop\n              swap7\n              pop\n              swap7\n              pop\n              swap7\n              pop\n              pop\n              pop\n              pop\n                /* \"background.sol\":7735:9097  function getPatientDataPassword(string memory passworddd) public view returns(bool, PatientDemographics memory, PatientNonDemographics memory, Files memory) {\r... */\n            tag_77:\n              swap2\n              swap4\n              pop\n              swap2\n              swap4\n              jump\t// out\n                /* \"background.sol\":4009:4167  function getFilePassword() public view returns(string memory) {\r... */\n            tag_26:\n                /* \"background.sol\":4056:4069  string memory */\n              0x60\n                /* \"background.sol\":4085:4112  isDoctorAllowed(msg.sender) */\n              tag_162\n                /* \"background.sol\":4101:4111  msg.sender */\n              caller\n                /* \"background.sol\":4085:4100  isDoctorAllowed */\n              tag_56\n                /* \"background.sol\":4085:4112  isDoctorAllowed(msg.sender) */\n              jump\t// in\n            tag_162:\n                /* \"background.sol\":4082:4160  if(isDoctorAllowed(msg.sender)) {\r... */\n              iszero\n              tag_163\n              jumpi\n                /* \"background.sol\":4136:4148  filePassword */\n              0x16\n                /* \"background.sol\":4129:4148  return filePassword */\n              dup1\n              sload\n              0x01\n              dup2\n              0x01\n              and\n              iszero\n              0x0100\n              mul\n              sub\n              and\n              0x02\n              swap1\n              div\n              dup1\n              0x1f\n              add\n              0x20\n              dup1\n              swap2\n              div\n              mul\n              0x20\n              add\n              mload(0x40)\n              swap1\n              dup2\n              add\n              0x40\n              mstore\n              dup1\n              swap3\n              swap2\n              swap1\n              dup2\n              dup2\n              mstore\n              0x20\n              add\n              dup3\n              dup1\n              sload\n              0x01\n              dup2\n              0x01\n              and\n              iszero\n              0x0100\n              mul\n              sub\n              and\n              0x02\n              swap1\n              div\n              dup1\n              iszero\n              tag_164\n              jumpi\n              dup1\n              0x1f\n              lt\n              tag_165\n              jumpi\n              0x0100\n              dup1\n              dup4\n              sload\n              div\n              mul\n              dup4\n              mstore\n              swap2\n              0x20\n              add\n              swap2\n              jump(tag_164)\n            tag_165:\n              dup3\n              add\n              swap2\n              swap1\n              0x00\n              mstore\n              keccak256(0x00, 0x20)\n              swap1\n            tag_166:\n              dup2\n              sload\n              dup2\n              mstore\n              swap1\n              0x01\n              add\n              swap1\n              0x20\n              add\n              dup1\n              dup4\n              gt\n              tag_166\n              jumpi\n              dup3\n              swap1\n              sub\n              0x1f\n              and\n              dup3\n              add\n              swap2\n            tag_164:\n              pop\n              pop\n              pop\n              pop\n              pop\n              swap1\n              pop\n              jump(tag_161)\n                /* \"background.sol\":4082:4160  if(isDoctorAllowed(msg.sender)) {\r... */\n            tag_163:\n                /* \"background.sol\":4009:4167  function getFilePassword() public view returns(string memory) {\r... */\n            tag_161:\n              swap1\n              jump\t// out\n                /* \"background.sol\":4179:4367  function getFilePasswordPassword(string memory password) public view returns(string memory) {\r... */\n            tag_31:\n                /* \"background.sol\":4256:4269  string memory */\n              0x60\n                /* \"background.sol\":4285:4312  isCorrectPassword(password) */\n              tag_168\n                /* \"background.sol\":4303:4311  password */\n              dup3\n                /* \"background.sol\":4285:4302  isCorrectPassword */\n              tag_46\n                /* \"background.sol\":4285:4312  isCorrectPassword(password) */\n              jump\t// in\n            tag_168:\n                /* \"background.sol\":4282:4360  if(isCorrectPassword(password)) {\r... */\n              iszero\n              tag_169\n              jumpi\n                /* \"background.sol\":4336:4348  filePassword */\n              0x16\n                /* \"background.sol\":4329:4348  return filePassword */\n              dup1\n              sload\n              0x01\n              dup2\n              0x01\n              and\n              iszero\n              0x0100\n              mul\n              sub\n              and\n              0x02\n              swap1\n              div\n              dup1\n              0x1f\n              add\n              0x20\n              dup1\n              swap2\n              div\n              mul\n              0x20\n              add\n              mload(0x40)\n              swap1\n              dup2\n              add\n              0x40\n              mstore\n              dup1\n              swap3\n              swap2\n              swap1\n              dup2\n              dup2\n              mstore\n              0x20\n              add\n              dup3\n              dup1\n              sload\n              0x01\n              dup2\n              0x01\n              and\n              iszero\n              0x0100\n              mul\n              sub\n              and\n              0x02\n              swap1\n              div\n              dup1\n              iszero\n              tag_170\n              jumpi\n              dup1\n              0x1f\n              lt\n              tag_171\n              jumpi\n              0x0100\n              dup1\n              dup4\n              sload\n              div\n              mul\n              dup4\n              mstore\n              swap2\n              0x20\n              add\n              swap2\n              jump(tag_170)\n            tag_171:\n              dup3\n              add\n              swap2\n              swap1\n              0x00\n              mstore\n              keccak256(0x00, 0x20)\n              swap1\n            tag_172:\n              dup2\n              sload\n              dup2\n              mstore\n              swap1\n              0x01\n              add\n              swap1\n              0x20\n              add\n              dup1\n              dup4\n              gt\n              tag_172\n              jumpi\n              dup3\n              swap1\n              sub\n              0x1f\n              and\n              dup3\n              add\n              swap2\n            tag_170:\n              pop\n              pop\n              pop\n              pop\n              pop\n              swap1\n              pop\n              jump(tag_167)\n                /* \"background.sol\":4282:4360  if(isCorrectPassword(password)) {\r... */\n            tag_169:\n                /* \"background.sol\":4179:4367  function getFilePasswordPassword(string memory password) public view returns(string memory) {\r... */\n            tag_167:\n              swap2\n              swap1\n              pop\n              jump\t// out\n                /* \"background.sol\":9109:10437  function getPatientData() public view returns(bool, PatientDemographics memory, PatientNonDemographics memory, Files memory) {\r... */\n            tag_34:\n                /* \"background.sol\":9155:9159  bool */\n              0x00\n                /* \"background.sol\":9161:9187  PatientDemographics memory */\n              tag_173\n              tag_72\n              jump\t// in\n            tag_173:\n                /* \"background.sol\":9189:9218  PatientNonDemographics memory */\n              tag_174\n              tag_74\n              jump\t// in\n            tag_174:\n                /* \"background.sol\":9220:9232  Files memory */\n              tag_175\n              tag_76\n              jump\t// in\n            tag_175:\n                /* \"background.sol\":9248:9275  isDoctorAllowed(msg.sender) */\n              tag_177\n                /* \"background.sol\":9264:9274  msg.sender */\n              caller\n                /* \"background.sol\":9248:9263  isDoctorAllowed */\n              tag_56\n                /* \"background.sol\":9248:9275  isDoctorAllowed(msg.sender) */\n              jump\t// in\n            tag_177:\n                /* \"background.sol\":9245:10430  if(isDoctorAllowed(msg.sender)) {\r... */\n              iszero\n              tag_178\n              jumpi\n                /* \"background.sol\":9300:9304  true */\n              0x01\n                /* \"background.sol\":9306:9325  patientDemographics */\n              0x00\n                /* \"background.sol\":9327:9349  patientNonDemographics */\n              0x08\n                /* \"background.sol\":9351:9356  files */\n              0x10\n                /* \"background.sol\":9292:9358  return( true, patientDemographics, patientNonDemographics, files ) */\n              dup3\n              0x0100\n              mload(0x40)\n              swap1\n              dup2\n              add\n              0x40\n              mstore\n              swap1\n              dup2\n              0x00\n              dup3\n              add\n              dup1\n              sload\n              0x01\n              dup2\n              0x01\n              and\n              iszero\n              0x0100\n              mul\n              sub\n              and\n              0x02\n              swap1\n              div\n              dup1\n              0x1f\n              add\n              0x20\n              dup1\n              swap2\n              div\n              mul\n              0x20\n              add\n              mload(0x40)\n              swap1\n              dup2\n              add\n              0x40\n              mstore\n              dup1\n              swap3\n              swap2\n              swap1\n              dup2\n              dup2\n              mstore\n              0x20\n              add\n              dup3\n              dup1\n              sload\n              0x01\n              dup2\n              0x01\n              and\n              iszero\n              0x0100\n              mul\n              sub\n              and\n              0x02\n              swap1\n              div\n              dup1\n              iszero\n              tag_179\n              jumpi\n              dup1\n              0x1f\n              lt\n              tag_180\n              jumpi\n              0x0100\n              dup1\n              dup4\n              sload\n              div\n              mul\n              dup4\n              mstore\n              swap2\n              0x20\n              add\n              swap2\n              jump(tag_179)\n            tag_180:\n              dup3\n              add\n              swap2\n              swap1\n              0x00\n              mstore\n              keccak256(0x00, 0x20)\n              swap1\n            tag_181:\n              dup2\n              sload\n              dup2\n              mstore\n              swap1\n              0x01\n              add\n              swap1\n              0x20\n              add\n              dup1\n              dup4\n              gt\n              tag_181\n              jumpi\n              dup3\n              swap1\n              sub\n              0x1f\n              and\n              dup3\n              add\n              swap2\n            tag_179:\n              pop\n              pop\n              pop\n              pop\n              pop\n              dup2\n              mstore\n              0x20\n              add\n              0x01\n              dup3\n              add\n              dup1\n              sload\n              0x01\n              dup2\n              0x01\n              and\n              iszero\n              0x0100\n              mul\n              sub\n              and\n              0x02\n              swap1\n              div\n              dup1\n              0x1f\n              add\n              0x20\n              dup1\n              swap2\n              div\n              mul\n              0x20\n              add\n              mload(0x40)\n              swap1\n              dup2\n              add\n              0x40\n              mstore\n              dup1\n              swap3\n              swap2\n              swap1\n              dup2\n              dup2\n              mstore\n              0x20\n              add\n              dup3\n              dup1\n              sload\n              0x01\n              dup2\n              0x01\n              and\n              iszero\n              0x0100\n              mul\n              sub\n              and\n              0x02\n              swap1\n              div\n              dup1\n              iszero\n              tag_182\n              jumpi\n              dup1\n              0x1f\n              lt\n              tag_183\n              jumpi\n              0x0100\n              dup1\n              dup4\n              sload\n              div\n              mul\n              dup4\n              mstore\n              swap2\n              0x20\n              add\n              swap2\n              jump(tag_182)\n            tag_183:\n              dup3\n              add\n              swap2\n              swap1\n              0x00\n              mstore\n              keccak256(0x00, 0x20)\n              swap1\n            tag_184:\n              dup2\n              sload\n              dup2\n              mstore\n              swap1\n              0x01\n              add\n              swap1\n              0x20\n              add\n              dup1\n              dup4\n              gt\n              tag_184\n              jumpi\n              dup3\n              swap1\n              sub\n              0x1f\n              and\n              dup3\n              add\n              swap2\n            tag_182:\n              pop\n              pop\n              pop\n              pop\n              pop\n              dup2\n              mstore\n              0x20\n              add\n              0x02\n              dup3\n              add\n              dup1\n              sload\n              0x01\n              dup2\n              0x01\n              and\n              iszero\n              0x0100\n              mul\n              sub\n              and\n              0x02\n              swap1\n              div\n              dup1\n              0x1f\n              add\n              0x20\n              dup1\n              swap2\n              div\n              mul\n              0x20\n              add\n              mload(0x40)\n              swap1\n              dup2\n              add\n              0x40\n              mstore\n              dup1\n              swap3\n              swap2\n              swap1\n              dup2\n              dup2\n              mstore\n              0x20\n              add\n              dup3\n              dup1\n              sload\n              0x01\n              dup2\n              0x01\n              and\n              iszero\n              0x0100\n              mul\n              sub\n              and\n              0x02\n              swap1\n              div\n              dup1\n              iszero\n              tag_185\n              jumpi\n              dup1\n              0x1f\n              lt\n              tag_186\n              jumpi\n              0x0100\n              dup1\n              dup4\n              sload\n              div\n              mul\n              dup4\n              mstore\n              swap2\n              0x20\n              add\n              swap2\n              jump(tag_185)\n            tag_186:\n              dup3\n              add\n              swap2\n              swap1\n              0x00\n              mstore\n              keccak256(0x00, 0x20)\n              swap1\n            tag_187:\n              dup2\n              sload\n              dup2\n              mstore\n              swap1\n              0x01\n              add\n              swap1\n              0x20\n              add\n              dup1\n              dup4\n              gt\n              tag_187\n              jumpi\n              dup3\n              swap1\n              sub\n              0x1f\n              and\n              dup3\n              add\n              swap2\n            tag_185:\n              pop\n              pop\n              pop\n              pop\n              pop\n              dup2\n              mstore\n              0x20\n              add\n              0x03\n              dup3\n              add\n              dup1\n              sload\n              0x01\n              dup2\n              0x01\n              and\n              iszero\n              0x0100\n              mul\n              sub\n              and\n              0x02\n              swap1\n              div\n              dup1\n              0x1f\n              add\n              0x20\n              dup1\n              swap2\n              div\n              mul\n              0x20\n              add\n              mload(0x40)\n              swap1\n              dup2\n              add\n              0x40\n              mstore\n              dup1\n              swap3\n              swap2\n              swap1\n              dup2\n              dup2\n              mstore\n              0x20\n              add\n              dup3\n              dup1\n              sload\n              0x01\n              dup2\n              0x01\n              and\n              iszero\n              0x0100\n              mul\n              sub\n              and\n              0x02\n              swap1\n              div\n              dup1\n              iszero\n              tag_188\n              jumpi\n              dup1\n              0x1f\n              lt\n              tag_189\n              jumpi\n              0x0100\n              dup1\n              dup4\n              sload\n              div\n              mul\n              dup4\n              mstore\n              swap2\n              0x20\n              add\n              swap2\n              jump(tag_188)\n            tag_189:\n              dup3\n              add\n              swap2\n              swap1\n              0x00\n              mstore\n              keccak256(0x00, 0x20)\n              swap1\n            tag_190:\n              dup2\n              sload\n              dup2\n              mstore\n              swap1\n              0x01\n              add\n              swap1\n              0x20\n              add\n              dup1\n              dup4\n              gt\n              tag_190\n              jumpi\n              dup3\n              swap1\n              sub\n              0x1f\n              and\n              dup3\n              add\n              swap2\n            tag_188:\n              pop\n              pop\n              pop\n              pop\n              pop\n              dup2\n              mstore\n              0x20\n              add\n              0x04\n              dup3\n              add\n              sload\n              dup2\n              mstore\n              0x20\n              add\n              0x05\n              dup3\n              add\n              dup1\n              sload\n              0x01\n              dup2\n              0x01\n              and\n              iszero\n              0x0100\n              mul\n              sub\n              and\n              0x02\n              swap1\n              div\n              dup1\n              0x1f\n              add\n              0x20\n              dup1\n              swap2\n              div\n              mul\n              0x20\n              add\n              mload(0x40)\n              swap1\n              dup2\n              add\n              0x40\n              mstore\n              dup1\n              swap3\n              swap2\n              swap1\n              dup2\n              dup2\n              mstore\n              0x20\n              add\n              dup3\n              dup1\n              sload\n              0x01\n              dup2\n              0x01\n              and\n              iszero\n              0x0100\n              mul\n              sub\n              and\n              0x02\n              swap1\n              div\n              dup1\n              iszero\n              tag_191\n              jumpi\n              dup1\n              0x1f\n              lt\n              tag_192\n              jumpi\n              0x0100\n              dup1\n              dup4\n              sload\n              div\n              mul\n              dup4\n              mstore\n              swap2\n              0x20\n              add\n              swap2\n              jump(tag_191)\n            tag_192:\n              dup3\n              add\n              swap2\n              swap1\n              0x00\n              mstore\n              keccak256(0x00, 0x20)\n              swap1\n            tag_193:\n              dup2\n              sload\n              dup2\n              mstore\n              swap1\n              0x01\n              add\n              swap1\n              0x20\n              add\n              dup1\n              dup4\n              gt\n              tag_193\n              jumpi\n              dup3\n              swap1\n              sub\n              0x1f\n              and\n              dup3\n              add\n              swap2\n            tag_191:\n              pop\n              pop\n              pop\n              pop\n              pop\n              dup2\n              mstore\n              0x20\n              add\n              0x06\n              dup3\n              add\n              dup1\n              sload\n              0x01\n              dup2\n              0x01\n              and\n              iszero\n              0x0100\n              mul\n              sub\n              and\n              0x02\n              swap1\n              div\n              dup1\n              0x1f\n              add\n              0x20\n              dup1\n              swap2\n              div\n              mul\n              0x20\n              add\n              mload(0x40)\n              swap1\n              dup2\n              add\n              0x40\n              mstore\n              dup1\n              swap3\n              swap2\n              swap1\n              dup2\n              dup2\n              mstore\n              0x20\n              add\n              dup3\n              dup1\n              sload\n              0x01\n              dup2\n              0x01\n              and\n              iszero\n              0x0100\n              mul\n              sub\n              and\n              0x02\n              swap1\n              div\n              dup1\n              iszero\n              tag_194\n              jumpi\n              dup1\n              0x1f\n              lt\n              tag_195\n              jumpi\n              0x0100\n              dup1\n              dup4\n              sload\n              div\n              mul\n              dup4\n              mstore\n              swap2\n              0x20\n              add\n              swap2\n              jump(tag_194)\n            tag_195:\n              dup3\n              add\n              swap2\n              swap1\n              0x00\n              mstore\n              keccak256(0x00, 0x20)\n              swap1\n            tag_196:\n              dup2\n              sload\n              dup2\n              mstore\n              swap1\n              0x01\n              add\n              swap1\n              0x20\n              add\n              dup1\n              dup4\n              gt\n              tag_196\n              jumpi\n              dup3\n              swap1\n              sub\n              0x1f\n              and\n              dup3\n              add\n              swap2\n            tag_194:\n              pop\n              pop\n              pop\n              pop\n              pop\n              dup2\n              mstore\n              0x20\n              add\n              0x07\n              dup3\n              add\n              dup1\n              sload\n              0x01\n              dup2\n              0x01\n              and\n              iszero\n              0x0100\n              mul\n              sub\n              and\n              0x02\n              swap1\n              div\n              dup1\n              0x1f\n              add\n              0x20\n              dup1\n              swap2\n              div\n              mul\n              0x20\n              add\n              mload(0x40)\n              swap1\n              dup2\n              add\n              0x40\n              mstore\n              dup1\n              swap3\n              swap2\n              swap1\n              dup2\n              dup2\n              mstore\n              0x20\n              add\n              dup3\n              dup1\n              sload\n              0x01\n              dup2\n              0x01\n              and\n              iszero\n              0x0100\n              mul\n              sub\n              and\n              0x02\n              swap1\n              div\n              dup1\n              iszero\n              tag_197\n              jumpi\n              dup1\n              0x1f\n              lt\n              tag_198\n              jumpi\n              0x0100\n              dup1\n              dup4\n              sload\n              div\n              mul\n              dup4\n              mstore\n              swap2\n              0x20\n              add\n              swap2\n              jump(tag_197)\n            tag_198:\n              dup3\n              add\n              swap2\n              swap1\n              0x00\n              mstore\n              keccak256(0x00, 0x20)\n              swap1\n            tag_199:\n              dup2\n              sload\n              dup2\n              mstore\n              swap1\n              0x01\n              add\n              swap1\n              0x20\n              add\n              dup1\n              dup4\n              gt\n              tag_199\n              jumpi\n              dup3\n              swap1\n              sub\n              0x1f\n              and\n              dup3\n              add\n              swap2\n            tag_197:\n              pop\n              pop\n              pop\n              pop\n              pop\n              dup2\n              mstore\n              pop\n              pop\n              swap3\n              pop\n              dup2\n              0x0100\n              mload(0x40)\n              swap1\n              dup2\n              add\n              0x40\n              mstore\n              swap1\n              dup2\n              0x00\n              dup3\n              add\n              dup1\n              sload\n              0x01\n              dup2\n              0x01\n              and\n              iszero\n              0x0100\n              mul\n              sub\n              and\n              0x02\n              swap1\n              div\n              dup1\n              0x1f\n              add\n              0x20\n              dup1\n              swap2\n              div\n              mul\n              0x20\n              add\n              mload(0x40)\n              swap1\n              dup2\n              add\n              0x40\n              mstore\n              dup1\n              swap3\n              swap2\n              swap1\n              dup2\n              dup2\n              mstore\n              0x20\n              add\n              dup3\n              dup1\n              sload\n              0x01\n              dup2\n              0x01\n              and\n              iszero\n              0x0100\n              mul\n              sub\n              and\n              0x02\n              swap1\n              div\n              dup1\n              iszero\n              tag_200\n              jumpi\n              dup1\n              0x1f\n              lt\n              tag_201\n              jumpi\n              0x0100\n              dup1\n              dup4\n              sload\n              div\n              mul\n              dup4\n              mstore\n              swap2\n              0x20\n              add\n              swap2\n              jump(tag_200)\n            tag_201:\n              dup3\n              add\n              swap2\n              swap1\n              0x00\n              mstore\n              keccak256(0x00, 0x20)\n              swap1\n            tag_202:\n              dup2\n              sload\n              dup2\n              mstore\n              swap1\n              0x01\n              add\n              swap1\n              0x20\n              add\n              dup1\n              dup4\n              gt\n              tag_202\n              jumpi\n              dup3\n              swap1\n              sub\n              0x1f\n              and\n              dup3\n              add\n              swap2\n            tag_200:\n              pop\n              pop\n              pop\n              pop\n              pop\n              dup2\n              mstore\n              0x20\n              add\n              0x01\n              dup3\n              add\n              dup1\n              sload\n              0x01\n              dup2\n              0x01\n              and\n              iszero\n              0x0100\n              mul\n              sub\n              and\n              0x02\n              swap1\n              div\n              dup1\n              0x1f\n              add\n              0x20\n              dup1\n              swap2\n              div\n              mul\n              0x20\n              add\n              mload(0x40)\n              swap1\n              dup2\n              add\n              0x40\n              mstore\n              dup1\n              swap3\n              swap2\n              swap1\n              dup2\n              dup2\n              mstore\n              0x20\n              add\n              dup3\n              dup1\n              sload\n              0x01\n              dup2\n              0x01\n              and\n              iszero\n              0x0100\n              mul\n              sub\n              and\n              0x02\n              swap1\n              div\n              dup1\n              iszero\n              tag_203\n              jumpi\n              dup1\n              0x1f\n              lt\n              tag_204\n              jumpi\n              0x0100\n              dup1\n              dup4\n              sload\n              div\n              mul\n              dup4\n              mstore\n              swap2\n              0x20\n              add\n              swap2\n              jump(tag_203)\n            tag_204:\n              dup3\n              add\n              swap2\n              swap1\n              0x00\n              mstore\n              keccak256(0x00, 0x20)\n              swap1\n            tag_205:\n              dup2\n              sload\n              dup2\n              mstore\n              swap1\n              0x01\n              add\n              swap1\n              0x20\n              add\n              dup1\n              dup4\n              gt\n              tag_205\n              jumpi\n              dup3\n              swap1\n              sub\n              0x1f\n              and\n              dup3\n              add\n              swap2\n            tag_203:\n              pop\n              pop\n              pop\n              pop\n              pop\n              dup2\n              mstore\n              0x20\n              add\n              0x02\n              dup3\n              add\n              dup1\n              sload\n              0x01\n              dup2\n              0x01\n              and\n              iszero\n              0x0100\n              mul\n              sub\n              and\n              0x02\n              swap1\n              div\n              dup1\n              0x1f\n              add\n              0x20\n              dup1\n              swap2\n              div\n              mul\n              0x20\n              add\n              mload(0x40)\n              swap1\n              dup2\n              add\n              0x40\n              mstore\n              dup1\n              swap3\n              swap2\n              swap1\n              dup2\n              dup2\n              mstore\n              0x20\n              add\n              dup3\n              dup1\n              sload\n              0x01\n              dup2\n              0x01\n              and\n              iszero\n              0x0100\n              mul\n              sub\n              and\n              0x02\n              swap1\n              div\n              dup1\n              iszero\n              tag_206\n              jumpi\n              dup1\n              0x1f\n              lt\n              tag_207\n              jumpi\n              0x0100\n              dup1\n              dup4\n              sload\n              div\n              mul\n              dup4\n              mstore\n              swap2\n              0x20\n              add\n              swap2\n              jump(tag_206)\n            tag_207:\n              dup3\n              add\n              swap2\n              swap1\n              0x00\n              mstore\n              keccak256(0x00, 0x20)\n              swap1\n            tag_208:\n              dup2\n              sload\n              dup2\n              mstore\n              swap1\n              0x01\n              add\n              swap1\n              0x20\n              add\n              dup1\n              dup4\n              gt\n              tag_208\n              jumpi\n              dup3\n              swap1\n              sub\n              0x1f\n              and\n              dup3\n              add\n              swap2\n            tag_206:\n              pop\n              pop\n              pop\n              pop\n              pop\n              dup2\n              mstore\n              0x20\n              add\n              0x03\n              dup3\n              add\n              dup1\n              sload\n              0x01\n              dup2\n              0x01\n              and\n              iszero\n              0x0100\n              mul\n              sub\n              and\n              0x02\n              swap1\n              div\n              dup1\n              0x1f\n              add\n              0x20\n              dup1\n              swap2\n              div\n              mul\n              0x20\n              add\n              mload(0x40)\n              swap1\n              dup2\n              add\n              0x40\n              mstore\n              dup1\n              swap3\n              swap2\n              swap1\n              dup2\n              dup2\n              mstore\n              0x20\n              add\n              dup3\n              dup1\n              sload\n              0x01\n              dup2\n              0x01\n              and\n              iszero\n              0x0100\n              mul\n              sub\n              and\n              0x02\n              swap1\n              div\n              dup1\n              iszero\n              tag_209\n              jumpi\n              dup1\n              0x1f\n              lt\n              tag_210\n              jumpi\n              0x0100\n              dup1\n              dup4\n              sload\n              div\n              mul\n              dup4\n              mstore\n              swap2\n              0x20\n              add\n              swap2\n              jump(tag_209)\n            tag_210:\n              dup3\n              add\n              swap2\n              swap1\n              0x00\n              mstore\n              keccak256(0x00, 0x20)\n              swap1\n            tag_211:\n              dup2\n              sload\n              dup2\n              mstore\n              swap1\n              0x01\n              add\n              swap1\n              0x20\n              add\n              dup1\n              dup4\n              gt\n              tag_211\n              jumpi\n              dup3\n              swap1\n              sub\n              0x1f\n              and\n              dup3\n              add\n              swap2\n            tag_209:\n              pop\n              pop\n              pop\n              pop\n              pop\n              dup2\n              mstore\n              0x20\n              add\n              0x04\n              dup3\n              add\n              dup1\n              sload\n              0x01\n              dup2\n              0x01\n              and\n              iszero\n              0x0100\n              mul\n              sub\n              and\n              0x02\n              swap1\n              div\n              dup1\n              0x1f\n              add\n              0x20\n              dup1\n              swap2\n              div\n              mul\n              0x20\n              add\n              mload(0x40)\n              swap1\n              dup2\n              add\n              0x40\n              mstore\n              dup1\n              swap3\n              swap2\n              swap1\n              dup2\n              dup2\n              mstore\n              0x20\n              add\n              dup3\n              dup1\n              sload\n              0x01\n              dup2\n              0x01\n              and\n              iszero\n              0x0100\n              mul\n              sub\n              and\n              0x02\n              swap1\n              div\n              dup1\n              iszero\n              tag_212\n              jumpi\n              dup1\n              0x1f\n              lt\n              tag_213\n              jumpi\n              0x0100\n              dup1\n              dup4\n              sload\n              div\n              mul\n              dup4\n              mstore\n              swap2\n              0x20\n              add\n              swap2\n              jump(tag_212)\n            tag_213:\n              dup3\n              add\n              swap2\n              swap1\n              0x00\n              mstore\n              keccak256(0x00, 0x20)\n              swap1\n            tag_214:\n              dup2\n              sload\n              dup2\n              mstore\n              swap1\n              0x01\n              add\n              swap1\n              0x20\n              add\n              dup1\n              dup4\n              gt\n              tag_214\n              jumpi\n              dup3\n              swap1\n              sub\n              0x1f\n              and\n              dup3\n              add\n              swap2\n            tag_212:\n              pop\n              pop\n              pop\n              pop\n              pop\n              dup2\n              mstore\n              0x20\n              add\n              0x05\n              dup3\n              add\n              dup1\n              sload\n              0x01\n              dup2\n              0x01\n              and\n              iszero\n              0x0100\n              mul\n              sub\n              and\n              0x02\n              swap1\n              div\n              dup1\n              0x1f\n              add\n              0x20\n              dup1\n              swap2\n              div\n              mul\n              0x20\n              add\n              mload(0x40)\n              swap1\n              dup2\n              add\n              0x40\n              mstore\n              dup1\n              swap3\n              swap2\n              swap1\n              dup2\n              dup2\n              mstore\n              0x20\n              add\n              dup3\n              dup1\n              sload\n              0x01\n              dup2\n              0x01\n              and\n              iszero\n              0x0100\n              mul\n              sub\n              and\n              0x02\n              swap1\n              div\n              dup1\n              iszero\n              tag_215\n              jumpi\n              dup1\n              0x1f\n              lt\n              tag_216\n              jumpi\n              0x0100\n              dup1\n              dup4\n              sload\n              div\n              mul\n              dup4\n              mstore\n              swap2\n              0x20\n              add\n              swap2\n              jump(tag_215)\n            tag_216:\n              dup3\n              add\n              swap2\n              swap1\n              0x00\n              mstore\n              keccak256(0x00, 0x20)\n              swap1\n            tag_217:\n              dup2\n              sload\n              dup2\n              mstore\n              swap1\n              0x01\n              add\n              swap1\n              0x20\n              add\n              dup1\n              dup4\n              gt\n              tag_217\n              jumpi\n              dup3\n              swap1\n              sub\n              0x1f\n              and\n              dup3\n              add\n              swap2\n            tag_215:\n              pop\n              pop\n              pop\n              pop\n              pop\n              dup2\n              mstore\n              0x20\n              add\n              0x06\n              dup3\n              add\n              dup1\n              sload\n              0x01\n              dup2\n              0x01\n              and\n              iszero\n              0x0100\n              mul\n              sub\n              and\n              0x02\n              swap1\n              div\n              dup1\n              0x1f\n              add\n              0x20\n              dup1\n              swap2\n              div\n              mul\n              0x20\n              add\n              mload(0x40)\n              swap1\n              dup2\n              add\n              0x40\n              mstore\n              dup1\n              swap3\n              swap2\n              swap1\n              dup2\n              dup2\n              mstore\n              0x20\n              add\n              dup3\n              dup1\n              sload\n              0x01\n              dup2\n              0x01\n              and\n              iszero\n              0x0100\n              mul\n              sub\n              and\n              0x02\n              swap1\n              div\n              dup1\n              iszero\n              tag_218\n              jumpi\n              dup1\n              0x1f\n              lt\n              tag_219\n              jumpi\n              0x0100\n              dup1\n              dup4\n              sload\n              div\n              mul\n              dup4\n              mstore\n              swap2\n              0x20\n              add\n              swap2\n              jump(tag_218)\n            tag_219:\n              dup3\n              add\n              swap2\n              swap1\n              0x00\n              mstore\n              keccak256(0x00, 0x20)\n              swap1\n            tag_220:\n              dup2\n              sload\n              dup2\n              mstore\n              swap1\n              0x01\n              add\n              swap1\n              0x20\n              add\n              dup1\n              dup4\n              gt\n              tag_220\n              jumpi\n              dup3\n              swap1\n              sub\n              0x1f\n              and\n              dup3\n              add\n              swap2\n            tag_218:\n              pop\n              pop\n              pop\n              pop\n              pop\n              dup2\n              mstore\n              0x20\n              add\n              0x07\n              dup3\n              add\n              dup1\n              sload\n              0x01\n              dup2\n              0x01\n              and\n              iszero\n              0x0100\n              mul\n              sub\n              and\n              0x02\n              swap1\n              div\n              dup1\n              0x1f\n              add\n              0x20\n              dup1\n              swap2\n              div\n              mul\n              0x20\n              add\n              mload(0x40)\n              swap1\n              dup2\n              add\n              0x40\n              mstore\n              dup1\n              swap3\n              swap2\n              swap1\n              dup2\n              dup2\n              mstore\n              0x20\n              add\n              dup3\n              dup1\n              sload\n              0x01\n              dup2\n              0x01\n              and\n              iszero\n              0x0100\n              mul\n              sub\n              and\n              0x02\n              swap1\n              div\n              dup1\n              iszero\n              tag_221\n              jumpi\n              dup1\n              0x1f\n              lt\n              tag_222\n              jumpi\n              0x0100\n              dup1\n              dup4\n              sload\n              div\n              mul\n              dup4\n              mstore\n              swap2\n              0x20\n              add\n              swap2\n              jump(tag_221)\n            tag_222:\n              dup3\n              add\n              swap2\n              swap1\n              0x00\n              mstore\n              keccak256(0x00, 0x20)\n              swap1\n            tag_223:\n              dup2\n              sload\n              dup2\n              mstore\n              swap1\n              0x01\n              add\n              swap1\n              0x20\n              add\n              dup1\n              dup4\n              gt\n              tag_223\n              jumpi\n              dup3\n              swap1\n              sub\n              0x1f\n              and\n              dup3\n              add\n              swap2\n            tag_221:\n              pop\n              pop\n              pop\n              pop\n              pop\n              dup2\n              mstore\n              pop\n              pop\n              swap2\n              pop\n              dup1\n              0x80\n              mload(0x40)\n              swap1\n              dup2\n              add\n              0x40\n              mstore\n              swap1\n              dup2\n              0x00\n              dup3\n              add\n              dup1\n              sload\n              dup1\n              0x20\n              mul\n              0x20\n              add\n              mload(0x40)\n              swap1\n              dup2\n              add\n              0x40\n              mstore\n              dup1\n              swap3\n              swap2\n              swap1\n              dup2\n              dup2\n              mstore\n              0x20\n              add\n              0x00\n              swap1\n            tag_224:\n              dup3\n              dup3\n              lt\n              iszero\n              tag_225\n              jumpi\n              dup4\n              dup3\n              swap1\n              0x00\n              mstore\n              keccak256(0x00, 0x20)\n              add\n              dup1\n              sload\n              0x01\n              dup2\n              0x01\n              and\n              iszero\n              0x0100\n              mul\n              sub\n              and\n              0x02\n              swap1\n              div\n              dup1\n              0x1f\n              add\n              0x20\n              dup1\n              swap2\n              div\n              mul\n              0x20\n              add\n              mload(0x40)\n              swap1\n              dup2\n              add\n              0x40\n              mstore\n              dup1\n              swap3\n              swap2\n              swap1\n              dup2\n              dup2\n              mstore\n              0x20\n              add\n              dup3\n              dup1\n              sload\n              0x01\n              dup2\n              0x01\n              and\n              iszero\n              0x0100\n              mul\n              sub\n              and\n              0x02\n              swap1\n              div\n              dup1\n              iszero\n              tag_227\n              jumpi\n              dup1\n              0x1f\n              lt\n              tag_228\n              jumpi\n              0x0100\n              dup1\n              dup4\n              sload\n              div\n              mul\n              dup4\n              mstore\n              swap2\n              0x20\n              add\n              swap2\n              jump(tag_227)\n            tag_228:\n              dup3\n              add\n              swap2\n              swap1\n              0x00\n              mstore\n              keccak256(0x00, 0x20)\n              swap1\n            tag_229:\n              dup2\n              sload\n              dup2\n              mstore\n              swap1\n              0x01\n              add\n              swap1\n              0x20\n              add\n              dup1\n              dup4\n              gt\n              tag_229\n              jumpi\n              dup3\n              swap1\n              sub\n              0x1f\n              and\n              dup3\n              add\n              swap2\n            tag_227:\n              pop\n              pop\n              pop\n              pop\n              pop\n              dup2\n              mstore\n              0x20\n              add\n              swap1\n              0x01\n              add\n              swap1\n              jump(tag_224)\n            tag_225:\n              pop\n              pop\n              pop\n              pop\n              dup2\n              mstore\n              0x20\n              add\n              0x01\n              dup3\n              add\n              dup1\n              sload\n              dup1\n              0x20\n              mul\n              0x20\n              add\n              mload(0x40)\n              swap1\n              dup2\n              add\n              0x40\n              mstore\n              dup1\n              swap3\n              swap2\n              swap1\n              dup2\n              dup2\n              mstore\n              0x20\n              add\n              0x00\n              swap1\n            tag_230:\n              dup3\n              dup3\n              lt\n              iszero\n              tag_231\n              jumpi\n              dup4\n              dup3\n              swap1\n              0x00\n              mstore\n              keccak256(0x00, 0x20)\n              add\n              dup1\n              sload\n              0x01\n              dup2\n              0x01\n              and\n              iszero\n              0x0100\n              mul\n              sub\n              and\n              0x02\n              swap1\n              div\n              dup1\n              0x1f\n              add\n              0x20\n              dup1\n              swap2\n              div\n              mul\n              0x20\n              add\n              mload(0x40)\n              swap1\n              dup2\n              add\n              0x40\n              mstore\n              dup1\n              swap3\n              swap2\n              swap1\n              dup2\n              dup2\n              mstore\n              0x20\n              add\n              dup3\n              dup1\n              sload\n              0x01\n              dup2\n              0x01\n              and\n              iszero\n              0x0100\n              mul\n              sub\n              and\n              0x02\n              swap1\n              div\n              dup1\n              iszero\n              tag_233\n              jumpi\n              dup1\n              0x1f\n              lt\n              tag_234\n              jumpi\n              0x0100\n              dup1\n              dup4\n              sload\n              div\n              mul\n              dup4\n              mstore\n              swap2\n              0x20\n              add\n              swap2\n              jump(tag_233)\n            tag_234:\n              dup3\n              add\n              swap2\n              swap1\n              0x00\n              mstore\n              keccak256(0x00, 0x20)\n              swap1\n            tag_235:\n              dup2\n              sload\n              dup2\n              mstore\n              swap1\n              0x01\n              add\n              swap1\n              0x20\n              add\n              dup1\n              dup4\n              gt\n              tag_235\n              jumpi\n              dup3\n              swap1\n              sub\n              0x1f\n              and\n              dup3\n              add\n              swap2\n            tag_233:\n              pop\n              pop\n              pop\n              pop\n              pop\n              dup2\n              mstore\n              0x20\n              add\n              swap1\n              0x01\n              add\n              swap1\n              jump(tag_230)\n            tag_231:\n              pop\n              pop\n              pop\n              pop\n              dup2\n              mstore\n              0x20\n              add\n              0x02\n              dup3\n              add\n              dup1\n              sload\n              dup1\n              0x20\n              mul\n              0x20\n              add\n              mload(0x40)\n              swap1\n              dup2\n              add\n              0x40\n              mstore\n              dup1\n              swap3\n              swap2\n              swap1\n              dup2\n              dup2\n              mstore\n              0x20\n              add\n              0x00\n              swap1\n            tag_236:\n              dup3\n              dup3\n              lt\n              iszero\n              tag_237\n              jumpi\n              dup4\n              dup3\n              swap1\n              0x00\n              mstore\n              keccak256(0x00, 0x20)\n              add\n              dup1\n              sload\n              0x01\n              dup2\n              0x01\n              and\n              iszero\n              0x0100\n              mul\n              sub\n              and\n              0x02\n              swap1\n              div\n              dup1\n              0x1f\n              add\n              0x20\n              dup1\n              swap2\n              div\n              mul\n              0x20\n              add\n              mload(0x40)\n              swap1\n              dup2\n              add\n              0x40\n              mstore\n              dup1\n              swap3\n              swap2\n              swap1\n              dup2\n              dup2\n              mstore\n              0x20\n              add\n              dup3\n              dup1\n              sload\n              0x01\n              dup2\n              0x01\n              and\n              iszero\n              0x0100\n              mul\n              sub\n              and\n              0x02\n              swap1\n              div\n              dup1\n              iszero\n              tag_239\n              jumpi\n              dup1\n              0x1f\n              lt\n              tag_240\n              jumpi\n              0x0100\n              dup1\n              dup4\n              sload\n              div\n              mul\n              dup4\n              mstore\n              swap2\n              0x20\n              add\n              swap2\n              jump(tag_239)\n            tag_240:\n              dup3\n              add\n              swap2\n              swap1\n              0x00\n              mstore\n              keccak256(0x00, 0x20)\n              swap1\n            tag_241:\n              dup2\n              sload\n              dup2\n              mstore\n              swap1\n              0x01\n              add\n              swap1\n              0x20\n              add\n              dup1\n              dup4\n              gt\n              tag_241\n              jumpi\n              dup3\n              swap1\n              sub\n              0x1f\n              and\n              dup3\n              add\n              swap2\n            tag_239:\n              pop\n              pop\n              pop\n              pop\n              pop\n              dup2\n              mstore\n              0x20\n              add\n              swap1\n              0x01\n              add\n              swap1\n              jump(tag_236)\n            tag_237:\n              pop\n              pop\n              pop\n              pop\n              dup2\n              mstore\n              0x20\n              add\n              0x03\n              dup3\n              add\n              dup1\n              sload\n              dup1\n              0x20\n              mul\n              0x20\n              add\n              mload(0x40)\n              swap1\n              dup2\n              add\n              0x40\n              mstore\n              dup1\n              swap3\n              swap2\n              swap1\n              dup2\n              dup2\n              mstore\n              0x20\n              add\n              0x00\n              swap1\n            tag_242:\n              dup3\n              dup3\n              lt\n              iszero\n              tag_243\n              jumpi\n              dup4\n              dup3\n              swap1\n              0x00\n              mstore\n              keccak256(0x00, 0x20)\n              add\n              dup1\n              sload\n              0x01\n              dup2\n              0x01\n              and\n              iszero\n              0x0100\n              mul\n              sub\n              and\n              0x02\n              swap1\n              div\n              dup1\n              0x1f\n              add\n              0x20\n              dup1\n              swap2\n              div\n              mul\n              0x20\n              add\n              mload(0x40)\n              swap1\n              dup2\n              add\n              0x40\n              mstore\n              dup1\n              swap3\n              swap2\n              swap1\n              dup2\n              dup2\n              mstore\n              0x20\n              add\n              dup3\n              dup1\n              sload\n              0x01\n              dup2\n              0x01\n              and\n              iszero\n              0x0100\n              mul\n              sub\n              and\n              0x02\n              swap1\n              div\n              dup1\n              iszero\n              tag_245\n              jumpi\n              dup1\n              0x1f\n              lt\n              tag_246\n              jumpi\n              0x0100\n              dup1\n              dup4\n              sload\n              div\n              mul\n              dup4\n              mstore\n              swap2\n              0x20\n              add\n              swap2\n              jump(tag_245)\n            tag_246:\n              dup3\n              add\n              swap2\n              swap1\n              0x00\n              mstore\n              keccak256(0x00, 0x20)\n              swap1\n            tag_247:\n              dup2\n              sload\n              dup2\n              mstore\n              swap1\n              0x01\n              add\n              swap1\n              0x20\n              add\n              dup1\n              dup4\n              gt\n              tag_247\n              jumpi\n              dup3\n              swap1\n              sub\n              0x1f\n              and\n              dup3\n              add\n              swap2\n            tag_245:\n              pop\n              pop\n              pop\n              pop\n              pop\n              dup2\n              mstore\n              0x20\n              add\n              swap1\n              0x01\n              add\n              swap1\n              jump(tag_242)\n            tag_243:\n              pop\n              pop\n              pop\n              pop\n              dup2\n              mstore\n              pop\n              pop\n              swap1\n              pop\n              swap4\n              pop\n              swap4\n              pop\n              swap4\n              pop\n              swap4\n              pop\n              jump(tag_176)\n                /* \"background.sol\":9245:10430  if(isDoctorAllowed(msg.sender)) {\r... */\n            tag_178:\n                /* \"background.sol\":9400:9432  PatientDemographics memory dummy */\n              tag_249\n              tag_72\n              jump\t// in\n            tag_249:\n                /* \"background.sol\":9435:9728  PatientDemographics({\r... */\n              0x0100\n              mload(0x40)\n              swap1\n              dup2\n              add\n              0x40\n              mstore\n              dup1\n              0x40\n              dup1\n              mload\n              swap1\n              dup2\n              add\n              0x40\n              mstore\n              dup1\n              0x03\n              dup2\n              mstore\n              0x20\n              add\n              0x7878780000000000000000000000000000000000000000000000000000000000\n              dup2\n              mstore\n              pop\n              dup2\n              mstore\n              0x20\n              add\n              0x40\n              dup1\n              mload\n              swap1\n              dup2\n              add\n              0x40\n              mstore\n              dup1\n              0x03\n              dup2\n              mstore\n              0x20\n              add\n              0x7878780000000000000000000000000000000000000000000000000000000000\n              dup2\n              mstore\n              pop\n              dup2\n              mstore\n              0x20\n              add\n              0x40\n              dup1\n              mload\n              swap1\n              dup2\n              add\n              0x40\n              mstore\n              dup1\n              0x03\n              dup2\n              mstore\n              0x20\n              add\n              0x7878780000000000000000000000000000000000000000000000000000000000\n              dup2\n              mstore\n              pop\n              dup2\n              mstore\n              0x20\n              add\n              0x40\n              dup1\n              mload\n              swap1\n              dup2\n              add\n              0x40\n              mstore\n              dup1\n              0x03\n              dup2\n              mstore\n              0x20\n              add\n              0x7878780000000000000000000000000000000000000000000000000000000000\n              dup2\n              mstore\n              pop\n              dup2\n              mstore\n              0x20\n              add\n                /* \"background.sol\":9606:9609  999 */\n              0x03e7\n                /* \"background.sol\":9435:9728  PatientDemographics({\r... */\n              dup2\n              mstore\n              0x20\n              add\n              0x40\n              dup1\n              mload\n              swap1\n              dup2\n              add\n              0x40\n              mstore\n              dup1\n              0x03\n              dup2\n              mstore\n              0x20\n              add\n              0x7878780000000000000000000000000000000000000000000000000000000000\n              dup2\n              mstore\n              pop\n              dup2\n              mstore\n              0x20\n              add\n              0x40\n              dup1\n              mload\n              swap1\n              dup2\n              add\n              0x40\n              mstore\n              dup1\n              0x03\n              dup2\n              mstore\n              0x20\n              add\n              0x7878780000000000000000000000000000000000000000000000000000000000\n              dup2\n              mstore\n              pop\n              dup2\n              mstore\n              0x20\n              add\n              0x40\n              dup1\n              mload\n              swap1\n              dup2\n              add\n              0x40\n              mstore\n              dup1\n              0x03\n              dup2\n              mstore\n              0x20\n              add\n              0x7878780000000000000000000000000000000000000000000000000000000000\n              dup2\n              mstore\n              pop\n              dup2\n              mstore\n              pop\n                /* \"background.sol\":9400:9728  PatientDemographics memory dummy = PatientDemographics({\r... */\n              swap1\n              pop\n                /* \"background.sol\":9743:9776  PatientNonDemographics memory dum */\n              tag_250\n              tag_74\n              jump\t// in\n            tag_250:\n                /* \"background.sol\":9779:10118  PatientNonDemographics({\r... */\n              0x0100\n              mload(0x40)\n              swap1\n              dup2\n              add\n              0x40\n              mstore\n              dup1\n              0x40\n              dup1\n              mload\n              swap1\n              dup2\n              add\n              0x40\n              mstore\n              dup1\n              0x03\n              dup2\n              mstore\n              0x20\n              add\n              0x7878780000000000000000000000000000000000000000000000000000000000\n              dup2\n              mstore\n              pop\n              dup2\n              mstore\n              0x20\n              add\n              0x40\n              dup1\n              mload\n              swap1\n              dup2\n              add\n              0x40\n              mstore\n              dup1\n              0x03\n              dup2\n              mstore\n              0x20\n              add\n              0x7878780000000000000000000000000000000000000000000000000000000000\n              dup2\n              mstore\n              pop\n              dup2\n              mstore\n              0x20\n              add\n              0x40\n              dup1\n              mload\n              swap1\n              dup2\n              add\n              0x40\n              mstore\n              dup1\n              0x03\n              dup2\n              mstore\n              0x20\n              add\n              0x7878780000000000000000000000000000000000000000000000000000000000\n              dup2\n              mstore\n              pop\n              dup2\n              mstore\n              0x20\n              add\n              0x40\n              dup1\n              mload\n              swap1\n              dup2\n              add\n              0x40\n              mstore\n              dup1\n              0x03\n              dup2\n              mstore\n              0x20\n              add\n              0x7878780000000000000000000000000000000000000000000000000000000000\n              dup2\n              mstore\n              pop\n              dup2\n              mstore\n              0x20\n              add\n              0x40\n              dup1\n              mload\n              swap1\n              dup2\n              add\n              0x40\n              mstore\n              dup1\n              0x03\n              dup2\n              mstore\n              0x20\n              add\n              0x7878780000000000000000000000000000000000000000000000000000000000\n              dup2\n              mstore\n              pop\n              dup2\n              mstore\n              0x20\n              add\n              0x40\n              dup1\n              mload\n              swap1\n              dup2\n              add\n              0x40\n              mstore\n              dup1\n              0x03\n              dup2\n              mstore\n              0x20\n              add\n              0x7878780000000000000000000000000000000000000000000000000000000000\n              dup2\n              mstore\n              pop\n              dup2\n              mstore\n              0x20\n              add\n              0x40\n              dup1\n              mload\n              swap1\n              dup2\n              add\n              0x40\n              mstore\n              dup1\n              0x03\n              dup2\n              mstore\n              0x20\n              add\n              0x7878780000000000000000000000000000000000000000000000000000000000\n              dup2\n              mstore\n              pop\n              dup2\n              mstore\n              0x20\n              add\n              0x40\n              dup1\n              mload\n              swap1\n              dup2\n              add\n              0x40\n              mstore\n              dup1\n              0x03\n              dup2\n              mstore\n              0x20\n              add\n              0x7878780000000000000000000000000000000000000000000000000000000000\n              dup2\n              mstore\n              pop\n              dup2\n              mstore\n              pop\n                /* \"background.sol\":9743:10118  PatientNonDemographics memory dum = PatientNonDemographics({\r... */\n              swap1\n              pop\n                /* \"background.sol\":10133:10154  Files memory dumFiles */\n              tag_251\n              tag_76\n              jump\t// in\n            tag_251:\n                /* \"background.sol\":10157:10368  Files({\r... */\n              0x80\n              mload(0x40)\n              swap1\n              dup2\n              add\n              0x40\n              mstore\n              dup1\n                /* \"background.sol\":10208:10209  1 */\n              0x01\n                /* \"background.sol\":10195:10210  new string[](1) */\n              mload(0x40)\n              swap1\n              dup1\n              dup3\n              mstore\n              dup1\n              0x20\n              mul\n              0x20\n              add\n              dup3\n              add\n              0x40\n              mstore\n              dup1\n              iszero\n              tag_252\n              jumpi\n              dup2\n              0x20\n              add\n            tag_253:\n              0x60\n              dup2\n              mstore\n              0x20\n              add\n              swap1\n              0x01\n              swap1\n              sub\n              swap1\n              dup2\n              tag_253\n              jumpi\n              swap1\n              pop\n            tag_252:\n              pop\n                /* \"background.sol\":10157:10368  Files({\r... */\n              dup2\n              mstore\n              0x20\n              add\n                /* \"background.sol\":10259:10260  1 */\n              0x01\n                /* \"background.sol\":10246:10261  new string[](1) */\n              mload(0x40)\n              swap1\n              dup1\n              dup3\n              mstore\n              dup1\n              0x20\n              mul\n              0x20\n              add\n              dup3\n              add\n              0x40\n              mstore\n              dup1\n              iszero\n              tag_254\n              jumpi\n              dup2\n              0x20\n              add\n            tag_255:\n              0x60\n              dup2\n              mstore\n              0x20\n              add\n              swap1\n              0x01\n              swap1\n              sub\n              swap1\n              dup2\n              tag_255\n              jumpi\n              swap1\n              pop\n            tag_254:\n              pop\n                /* \"background.sol\":10157:10368  Files({\r... */\n              dup2\n              mstore\n              0x20\n              add\n                /* \"background.sol\":10305:10306  1 */\n              0x01\n                /* \"background.sol\":10292:10307  new string[](1) */\n              mload(0x40)\n              swap1\n              dup1\n              dup3\n              mstore\n              dup1\n              0x20\n              mul\n              0x20\n              add\n              dup3\n              add\n              0x40\n              mstore\n              dup1\n              iszero\n              tag_256\n              jumpi\n              dup2\n              0x20\n              add\n            tag_257:\n              0x60\n              dup2\n              mstore\n              0x20\n              add\n              swap1\n              0x01\n              swap1\n              sub\n              swap1\n              dup2\n              tag_257\n              jumpi\n              swap1\n              pop\n            tag_256:\n              pop\n                /* \"background.sol\":10157:10368  Files({\r... */\n              dup2\n              mstore\n              0x20\n              add\n                /* \"background.sol\":10350:10351  1 */\n              0x01\n                /* \"background.sol\":10337:10352  new string[](1) */\n              mload(0x40)\n              swap1\n              dup1\n              dup3\n              mstore\n              dup1\n              0x20\n              mul\n              0x20\n              add\n              dup3\n              add\n              0x40\n              mstore\n              dup1\n              iszero\n              tag_258\n              jumpi\n              dup2\n              0x20\n              add\n            tag_259:\n              0x60\n              dup2\n              mstore\n              0x20\n              add\n              swap1\n              0x01\n              swap1\n              sub\n              swap1\n              dup2\n              tag_259\n              jumpi\n              swap1\n              pop\n            tag_258:\n              pop\n                /* \"background.sol\":10157:10368  Files({\r... */\n              dup2\n              mstore\n              pop\n                /* \"background.sol\":10133:10368  Files memory dumFiles = Files({\r... */\n              swap1\n              pop\n                /* \"background.sol\":10390:10395  false */\n              0x00\n                /* \"background.sol\":10397:10402  dummy */\n              dup4\n                /* \"background.sol\":10404:10407  dum */\n              dup4\n                /* \"background.sol\":10409:10417  dumFiles */\n              dup4\n                /* \"background.sol\":10383:10418  return(false, dummy, dum, dumFiles) */\n              swap7\n              pop\n              swap7\n              pop\n              swap7\n              pop\n              swap7\n              pop\n              pop\n              pop\n              pop\n                /* \"background.sol\":9109:10437  function getPatientData() public view returns(bool, PatientDemographics memory, PatientNonDemographics memory, Files memory) {\r... */\n            tag_176:\n              swap1\n              swap2\n              swap3\n              swap4\n              jump\t// out\n                /* \"background.sol\":5216:6185  function updateNondemographics(string memory medicalHistoryy, string memory diagnosiss, string memory medicationss,\r... */\n            tag_39:\n                /* \"background.sol\":5558:5585  isDoctorAllowed(msg.sender) */\n              tag_261\n                /* \"background.sol\":5574:5584  msg.sender */\n              caller\n                /* \"background.sol\":5558:5573  isDoctorAllowed */\n              tag_56\n                /* \"background.sol\":5558:5585  isDoctorAllowed(msg.sender) */\n              jump\t// in\n            tag_261:\n                /* \"background.sol\":5555:6178  if(isDoctorAllowed(msg.sender)) {\r... */\n              iszero\n              tag_262\n              jumpi\n                /* \"background.sol\":5602:5635  PatientNonDemographics memory pat */\n              tag_263\n              tag_74\n              jump\t// in\n            tag_263:\n                /* \"background.sol\":5638:6039  PatientNonDemographics( { \r... */\n              0x0100\n              mload(0x40)\n              swap1\n              dup2\n              add\n              0x40\n              mstore\n              dup1\n                /* \"background.sol\":5698:5713  medicalHistoryy */\n              dup13\n                /* \"background.sol\":5638:6039  PatientNonDemographics( { \r... */\n              dup2\n              mstore\n              0x20\n              add\n                /* \"background.sol\":5743:5753  diagnosiss */\n              dup12\n                /* \"background.sol\":5638:6039  PatientNonDemographics( { \r... */\n              dup2\n              mstore\n              0x20\n              add\n                /* \"background.sol\":5785:5797  medicationss */\n              dup11\n                /* \"background.sol\":5638:6039  PatientNonDemographics( { \r... */\n              dup2\n              mstore\n              0x20\n              add\n                /* \"background.sol\":5827:5837  allergiess */\n              dup10\n                /* \"background.sol\":5638:6039  PatientNonDemographics( { \r... */\n              dup2\n              mstore\n              0x20\n              add\n                /* \"background.sol\":5871:5885  progressNotess */\n              dup9\n                /* \"background.sol\":5638:6039  PatientNonDemographics( { \r... */\n              dup2\n              mstore\n              0x20\n              add\n                /* \"background.sol\":5916:5927  vitalSignss */\n              dup8\n                /* \"background.sol\":5638:6039  PatientNonDemographics( { \r... */\n              dup2\n              mstore\n              0x20\n              add\n                /* \"background.sol\":5965:5983  immunizationDatess */\n              dup7\n                /* \"background.sol\":5638:6039  PatientNonDemographics( { \r... */\n              dup2\n              mstore\n              0x20\n              add\n                /* \"background.sol\":6013:6023  emergencyy */\n              dup6\n                /* \"background.sol\":5638:6039  PatientNonDemographics( { \r... */\n              dup2\n              mstore\n              pop\n                /* \"background.sol\":5602:6039  PatientNonDemographics memory pat = PatientNonDemographics( { \r... */\n              swap1\n              pop\n                /* \"background.sol\":6079:6082  pat */\n              dup1\n                /* \"background.sol\":6054:6076  patientNonDemographics */\n              0x08\n                /* \"background.sol\":6054:6082  patientNonDemographics = pat */\n              0x00\n              dup3\n              add\n              mload\n              dup2\n              0x00\n              add\n              swap1\n              dup1\n              mload\n              swap1\n              0x20\n              add\n              swap1\n              tag_264\n              swap3\n              swap2\n              swap1\n              tag_265\n              jump\t// in\n            tag_264:\n              pop\n              0x20\n              dup3\n              add\n              mload\n              dup2\n              0x01\n              add\n              swap1\n              dup1\n              mload\n              swap1\n              0x20\n              add\n              swap1\n              tag_266\n              swap3\n              swap2\n              swap1\n              tag_265\n              jump\t// in\n            tag_266:\n              pop\n              0x40\n              dup3\n              add\n              mload\n              dup2\n              0x02\n              add\n              swap1\n              dup1\n              mload\n              swap1\n              0x20\n              add\n              swap1\n              tag_267\n              swap3\n              swap2\n              swap1\n              tag_265\n              jump\t// in\n            tag_267:\n              pop\n              0x60\n              dup3\n              add\n              mload\n              dup2\n              0x03\n              add\n              swap1\n              dup1\n              mload\n              swap1\n              0x20\n              add\n              swap1\n              tag_268\n              swap3\n              swap2\n              swap1\n              tag_265\n              jump\t// in\n            tag_268:\n              pop\n              0x80\n              dup3\n              add\n              mload\n              dup2\n              0x04\n              add\n              swap1\n              dup1\n              mload\n              swap1\n              0x20\n              add\n              swap1\n              tag_269\n              swap3\n              swap2\n              swap1\n              tag_265\n              jump\t// in\n            tag_269:\n              pop\n              0xa0\n              dup3\n              add\n              mload\n              dup2\n              0x05\n              add\n              swap1\n              dup1\n              mload\n              swap1\n              0x20\n              add\n              swap1\n              tag_270\n              swap3\n              swap2\n              swap1\n              tag_265\n              jump\t// in\n            tag_270:\n              pop\n              0xc0\n              dup3\n              add\n              mload\n              dup2\n              0x06\n              add\n              swap1\n              dup1\n              mload\n              swap1\n              0x20\n              add\n              swap1\n              tag_271\n              swap3\n              swap2\n              swap1\n              tag_265\n              jump\t// in\n            tag_271:\n              pop\n              0xe0\n              dup3\n              add\n              mload\n              dup2\n              0x07\n              add\n              swap1\n              dup1\n              mload\n              swap1\n              0x20\n              add\n              swap1\n              tag_272\n              swap3\n              swap2\n              swap1\n              tag_265\n              jump\t// in\n            tag_272:\n              pop\n              swap1\n              pop\n              pop\n                /* \"background.sol\":6102:6117  ChangeOccured() */\n              0x2b94f1e9999ff685f243474c3b8c30563987b8897fecb35c7cea9ac0f4f5c6bd\n              mload(0x40)\n              mload(0x40)\n              dup1\n              swap2\n              sub\n              swap1\n              log1\n                /* \"background.sol\":6137:6166  LogBook(logHeader,logDetails) */\n              0xef0f252fa7157cbc267992e6ffb0392cef11ce000a6e683e67df6b4c493ec5dd\n                /* \"background.sol\":6145:6154  logHeader */\n              dup4\n                /* \"background.sol\":6155:6165  logDetails */\n              dup4\n                /* \"background.sol\":6137:6166  LogBook(logHeader,logDetails) */\n              mload(0x40)\n              tag_273\n              swap3\n              swap2\n              swap1\n              jump(tag_70)\n            tag_273:\n              mload(0x40)\n              dup1\n              swap2\n              sub\n              swap1\n              log1\n                /* \"background.sol\":5555:6178  if(isDoctorAllowed(msg.sender)) {\r... */\n              pop\n            tag_262:\n                /* \"background.sol\":5216:6185  function updateNondemographics(string memory medicalHistoryy, string memory diagnosiss, string memory medicationss,\r... */\n              pop\n              pop\n              pop\n              pop\n              pop\n              pop\n              pop\n              pop\n              pop\n              pop\n              jump\t// out\n                /* \"background.sol\":4379:5204  function addFiles(string memory billingDataa, string memory radiologyImagess, string memory labResultss, string memory logHeader, string memory logDetails) public {\r... */\n            tag_43:\n                /* \"background.sol\":4556:4583  isDoctorAllowed(msg.sender) */\n              tag_275\n                /* \"background.sol\":4572:4582  msg.sender */\n              caller\n                /* \"background.sol\":4556:4571  isDoctorAllowed */\n              tag_56\n                /* \"background.sol\":4556:4583  isDoctorAllowed(msg.sender) */\n              jump\t// in\n            tag_275:\n                /* \"background.sol\":4553:5197  if(isDoctorAllowed(msg.sender)) {\r... */\n              iszero\n              tag_276\n              jumpi\n                /* \"background.sol\":4660:4680  abi.encodePacked(\"\") */\n              add(0x20, mload(0x40))\n              dup1\n              0x00\n              add\n              swap1\n              pop\n              mload(0x40)\n                /* \"--CODEGEN--\":49:53   */\n              0x20\n                /* \"--CODEGEN--\":39:46   */\n              dup2\n                /* \"--CODEGEN--\":30:37   */\n              dup4\n                /* \"--CODEGEN--\":26:47   */\n              sub\n                /* \"--CODEGEN--\":22:54   */\n              sub\n                /* \"--CODEGEN--\":13:20   */\n              dup2\n                /* \"--CODEGEN--\":6:55   */\n              mstore\n                /* \"background.sol\":4660:4680  abi.encodePacked(\"\") */\n              swap1\n              0x40\n              mstore\n                /* \"background.sol\":4650:4681  keccak256(abi.encodePacked(\"\")) */\n              dup1\n              mload\n              swap1\n              0x20\n              add\n              keccak256\n                /* \"background.sol\":4632:4644  billingDataa */\n              dup6\n                /* \"background.sol\":4615:4645  abi.encodePacked(billingDataa) */\n              add(0x20, mload(0x40))\n              dup1\n              dup3\n              dup1\n              mload\n              swap1\n              0x20\n              add\n              swap1\n              dup1\n              dup4\n              dup4\n                /* \"--CODEGEN--\":36:189   */\n            tag_277:\n                /* \"--CODEGEN--\":66:68   */\n              0x20\n                /* \"--CODEGEN--\":61:64   */\n              dup4\n                /* \"--CODEGEN--\":58:69   */\n              lt\n                /* \"--CODEGEN--\":51:70   */\n              iszero\n                /* \"--CODEGEN--\":36:189   */\n              iszero\n              tag_278\n              jumpi\n                /* \"--CODEGEN--\":182:185   */\n              dup1\n                /* \"--CODEGEN--\":176:186   */\n              mload\n                /* \"--CODEGEN--\":171:174   */\n              dup3\n                /* \"--CODEGEN--\":164:187   */\n              mstore\n                /* \"--CODEGEN--\":98:100   */\n              0x20\n                /* \"--CODEGEN--\":93:96   */\n              dup3\n                /* \"--CODEGEN--\":89:101   */\n              add\n                /* \"--CODEGEN--\":82:101   */\n              swap2\n              pop\n                /* \"--CODEGEN--\":123:125   */\n              0x20\n                /* \"--CODEGEN--\":118:121   */\n              dup2\n                /* \"--CODEGEN--\":114:126   */\n              add\n                /* \"--CODEGEN--\":107:126   */\n              swap1\n              pop\n                /* \"--CODEGEN--\":148:150   */\n              0x20\n                /* \"--CODEGEN--\":143:146   */\n              dup4\n                /* \"--CODEGEN--\":139:151   */\n              sub\n                /* \"--CODEGEN--\":132:151   */\n              swap3\n              pop\n                /* \"--CODEGEN--\":36:189   */\n              jump(tag_277)\n            tag_278:\n                /* \"--CODEGEN--\":274:275   */\n              0x01\n                /* \"--CODEGEN--\":267:270   */\n              dup4\n                /* \"--CODEGEN--\":263:265   */\n              0x20\n                /* \"--CODEGEN--\":259:271   */\n              sub\n                /* \"--CODEGEN--\":254:257   */\n              0x0100\n                /* \"--CODEGEN--\":250:272   */\n              exp\n                /* \"--CODEGEN--\":246:276   */\n              sub\n                /* \"--CODEGEN--\":315:319   */\n              dup1\n                /* \"--CODEGEN--\":311:320   */\n              not\n                /* \"--CODEGEN--\":305:308   */\n              dup3\n                /* \"--CODEGEN--\":299:309   */\n              mload\n                /* \"--CODEGEN--\":295:321   */\n              and\n                /* \"--CODEGEN--\":356:360   */\n              dup2\n                /* \"--CODEGEN--\":350:353   */\n              dup5\n                /* \"--CODEGEN--\":344:354   */\n              mload\n                /* \"--CODEGEN--\":340:361   */\n              and\n                /* \"--CODEGEN--\":389:396   */\n              dup1\n                /* \"--CODEGEN--\":380:387   */\n              dup3\n                /* \"--CODEGEN--\":377:397   */\n              or\n                /* \"--CODEGEN--\":372:375   */\n              dup6\n                /* \"--CODEGEN--\":365:398   */\n              mstore\n                /* \"--CODEGEN--\":3:402   */\n              pop\n              pop\n              pop\n                /* \"background.sol\":4615:4645  abi.encodePacked(billingDataa) */\n              pop\n              pop\n              pop\n              swap1\n              pop\n              add\n              swap2\n              pop\n              pop\n              mload(0x40)\n                /* \"--CODEGEN--\":49:53   */\n              0x20\n                /* \"--CODEGEN--\":39:46   */\n              dup2\n                /* \"--CODEGEN--\":30:37   */\n              dup4\n                /* \"--CODEGEN--\":26:47   */\n              sub\n                /* \"--CODEGEN--\":22:54   */\n              sub\n                /* \"--CODEGEN--\":13:20   */\n              dup2\n                /* \"--CODEGEN--\":6:55   */\n              mstore\n                /* \"background.sol\":4615:4645  abi.encodePacked(billingDataa) */\n              swap1\n              0x40\n              mstore\n                /* \"background.sol\":4605:4646  keccak256(abi.encodePacked(billingDataa)) */\n              dup1\n              mload\n              swap1\n              0x20\n              add\n              keccak256\n                /* \"background.sol\":4605:4681  keccak256(abi.encodePacked(billingDataa)) == keccak256(abi.encodePacked(\"\")) */\n              eq\n                /* \"background.sol\":4603:4682  !(keccak256(abi.encodePacked(billingDataa)) == keccak256(abi.encodePacked(\"\"))) */\n              iszero\n                /* \"background.sol\":4600:4755  if(!(keccak256(abi.encodePacked(billingDataa)) == keccak256(abi.encodePacked(\"\")))) {\r... */\n              iszero\n              tag_280\n              jumpi\n                /* \"background.sol\":4703:4708  files */\n              0x10\n                /* \"background.sol\":4703:4720  files.billingData */\n              0x00\n              add\n                /* \"background.sol\":4726:4738  billingDataa */\n              dup6\n                /* \"background.sol\":4703:4739  files.billingData.push(billingDataa) */\n              swap1\n              dup1\n                /* \"--CODEGEN--\":39:40   */\n              0x01\n                /* \"--CODEGEN--\":33:36   */\n              dup2\n                /* \"--CODEGEN--\":27:37   */\n              sload\n                /* \"--CODEGEN--\":23:41   */\n              add\n                /* \"--CODEGEN--\":57:67   */\n              dup1\n                /* \"--CODEGEN--\":52:55   */\n              dup3\n                /* \"--CODEGEN--\":45:68   */\n              sstore\n                /* \"--CODEGEN--\":79:89   */\n              dup1\n                /* \"--CODEGEN--\":72:89   */\n              swap2\n              pop\n                /* \"--CODEGEN--\":0:93   */\n              pop\n                /* \"background.sol\":4703:4739  files.billingData.push(billingDataa) */\n              swap1\n              0x01\n              dup3\n              sub\n              swap1\n              0x00\n              mstore\n              keccak256(0x00, 0x20)\n              add\n              0x00\n              swap1\n              swap2\n              swap3\n              swap1\n              swap2\n              swap1\n              swap2\n              pop\n              swap1\n              dup1\n              mload\n              swap1\n              0x20\n              add\n              swap1\n              tag_282\n              swap3\n              swap2\n              swap1\n              tag_283\n              jump\t// in\n            tag_282:\n              pop\n              pop\n                /* \"background.sol\":4600:4755  if(!(keccak256(abi.encodePacked(billingDataa)) == keccak256(abi.encodePacked(\"\")))) {\r... */\n            tag_280:\n                /* \"background.sol\":4833:4853  abi.encodePacked(\"\") */\n              add(0x20, mload(0x40))\n              dup1\n              0x00\n              add\n              swap1\n              pop\n              mload(0x40)\n                /* \"--CODEGEN--\":49:53   */\n              0x20\n                /* \"--CODEGEN--\":39:46   */\n              dup2\n                /* \"--CODEGEN--\":30:37   */\n              dup4\n                /* \"--CODEGEN--\":26:47   */\n              sub\n                /* \"--CODEGEN--\":22:54   */\n              sub\n                /* \"--CODEGEN--\":13:20   */\n              dup2\n                /* \"--CODEGEN--\":6:55   */\n              mstore\n                /* \"background.sol\":4833:4853  abi.encodePacked(\"\") */\n              swap1\n              0x40\n              mstore\n                /* \"background.sol\":4823:4854  keccak256(abi.encodePacked(\"\")) */\n              dup1\n              mload\n              swap1\n              0x20\n              add\n              keccak256\n                /* \"background.sol\":4801:4817  radiologyImagess */\n              dup5\n                /* \"background.sol\":4784:4818  abi.encodePacked(radiologyImagess) */\n              add(0x20, mload(0x40))\n              dup1\n              dup3\n              dup1\n              mload\n              swap1\n              0x20\n              add\n              swap1\n              dup1\n              dup4\n              dup4\n                /* \"--CODEGEN--\":36:189   */\n            tag_284:\n                /* \"--CODEGEN--\":66:68   */\n              0x20\n                /* \"--CODEGEN--\":61:64   */\n              dup4\n                /* \"--CODEGEN--\":58:69   */\n              lt\n                /* \"--CODEGEN--\":51:70   */\n              iszero\n                /* \"--CODEGEN--\":36:189   */\n              iszero\n              tag_285\n              jumpi\n                /* \"--CODEGEN--\":182:185   */\n              dup1\n                /* \"--CODEGEN--\":176:186   */\n              mload\n                /* \"--CODEGEN--\":171:174   */\n              dup3\n                /* \"--CODEGEN--\":164:187   */\n              mstore\n                /* \"--CODEGEN--\":98:100   */\n              0x20\n                /* \"--CODEGEN--\":93:96   */\n              dup3\n                /* \"--CODEGEN--\":89:101   */\n              add\n                /* \"--CODEGEN--\":82:101   */\n              swap2\n              pop\n                /* \"--CODEGEN--\":123:125   */\n              0x20\n                /* \"--CODEGEN--\":118:121   */\n              dup2\n                /* \"--CODEGEN--\":114:126   */\n              add\n                /* \"--CODEGEN--\":107:126   */\n              swap1\n              pop\n                /* \"--CODEGEN--\":148:150   */\n              0x20\n                /* \"--CODEGEN--\":143:146   */\n              dup4\n                /* \"--CODEGEN--\":139:151   */\n              sub\n                /* \"--CODEGEN--\":132:151   */\n              swap3\n              pop\n                /* \"--CODEGEN--\":36:189   */\n              jump(tag_284)\n            tag_285:\n                /* \"--CODEGEN--\":274:275   */\n              0x01\n                /* \"--CODEGEN--\":267:270   */\n              dup4\n                /* \"--CODEGEN--\":263:265   */\n              0x20\n                /* \"--CODEGEN--\":259:271   */\n              sub\n                /* \"--CODEGEN--\":254:257   */\n              0x0100\n                /* \"--CODEGEN--\":250:272   */\n              exp\n                /* \"--CODEGEN--\":246:276   */\n              sub\n                /* \"--CODEGEN--\":315:319   */\n              dup1\n                /* \"--CODEGEN--\":311:320   */\n              not\n                /* \"--CODEGEN--\":305:308   */\n              dup3\n                /* \"--CODEGEN--\":299:309   */\n              mload\n                /* \"--CODEGEN--\":295:321   */\n              and\n                /* \"--CODEGEN--\":356:360   */\n              dup2\n                /* \"--CODEGEN--\":350:353   */\n              dup5\n                /* \"--CODEGEN--\":344:354   */\n              mload\n                /* \"--CODEGEN--\":340:361   */\n              and\n                /* \"--CODEGEN--\":389:396   */\n              dup1\n                /* \"--CODEGEN--\":380:387   */\n              dup3\n                /* \"--CODEGEN--\":377:397   */\n              or\n                /* \"--CODEGEN--\":372:375   */\n              dup6\n                /* \"--CODEGEN--\":365:398   */\n              mstore\n                /* \"--CODEGEN--\":3:402   */\n              pop\n              pop\n              pop\n                /* \"background.sol\":4784:4818  abi.encodePacked(radiologyImagess) */\n              pop\n              pop\n              pop\n              swap1\n              pop\n              add\n              swap2\n              pop\n              pop\n              mload(0x40)\n                /* \"--CODEGEN--\":49:53   */\n              0x20\n                /* \"--CODEGEN--\":39:46   */\n              dup2\n                /* \"--CODEGEN--\":30:37   */\n              dup4\n                /* \"--CODEGEN--\":26:47   */\n              sub\n                /* \"--CODEGEN--\":22:54   */\n              sub\n                /* \"--CODEGEN--\":13:20   */\n              dup2\n                /* \"--CODEGEN--\":6:55   */\n              mstore\n                /* \"background.sol\":4784:4818  abi.encodePacked(radiologyImagess) */\n              swap1\n              0x40\n              mstore\n                /* \"background.sol\":4774:4819  keccak256(abi.encodePacked(radiologyImagess)) */\n              dup1\n              mload\n              swap1\n              0x20\n              add\n              keccak256\n                /* \"background.sol\":4774:4854  keccak256(abi.encodePacked(radiologyImagess)) == keccak256(abi.encodePacked(\"\")) */\n              eq\n                /* \"background.sol\":4772:4855  !(keccak256(abi.encodePacked(radiologyImagess)) == keccak256(abi.encodePacked(\"\"))) */\n              iszero\n                /* \"background.sol\":4769:4936  if(!(keccak256(abi.encodePacked(radiologyImagess)) == keccak256(abi.encodePacked(\"\")))) {\r... */\n              iszero\n              tag_287\n              jumpi\n                /* \"background.sol\":4876:4881  files */\n              0x10\n                /* \"background.sol\":4876:4897  files.radiologyImages */\n              0x01\n              add\n                /* \"background.sol\":4903:4919  radiologyImagess */\n              dup5\n                /* \"background.sol\":4876:4920  files.radiologyImages.push(radiologyImagess) */\n              swap1\n              dup1\n                /* \"--CODEGEN--\":39:40   */\n              0x01\n                /* \"--CODEGEN--\":33:36   */\n              dup2\n                /* \"--CODEGEN--\":27:37   */\n              sload\n                /* \"--CODEGEN--\":23:41   */\n              add\n                /* \"--CODEGEN--\":57:67   */\n              dup1\n                /* \"--CODEGEN--\":52:55   */\n              dup3\n                /* \"--CODEGEN--\":45:68   */\n              sstore\n                /* \"--CODEGEN--\":79:89   */\n              dup1\n                /* \"--CODEGEN--\":72:89   */\n              swap2\n              pop\n                /* \"--CODEGEN--\":0:93   */\n              pop\n                /* \"background.sol\":4876:4920  files.radiologyImages.push(radiologyImagess) */\n              swap1\n              0x01\n              dup3\n              sub\n              swap1\n              0x00\n              mstore\n              keccak256(0x00, 0x20)\n              add\n              0x00\n              swap1\n              swap2\n              swap3\n              swap1\n              swap2\n              swap1\n              swap2\n              pop\n              swap1\n              dup1\n              mload\n              swap1\n              0x20\n              add\n              swap1\n              tag_289\n              swap3\n              swap2\n              swap1\n              tag_283\n              jump\t// in\n            tag_289:\n              pop\n              pop\n                /* \"background.sol\":4769:4936  if(!(keccak256(abi.encodePacked(radiologyImagess)) == keccak256(abi.encodePacked(\"\")))) {\r... */\n            tag_287:\n                /* \"background.sol\":5009:5029  abi.encodePacked(\"\") */\n              add(0x20, mload(0x40))\n              dup1\n              0x00\n              add\n              swap1\n              pop\n              mload(0x40)\n                /* \"--CODEGEN--\":49:53   */\n              0x20\n                /* \"--CODEGEN--\":39:46   */\n              dup2\n                /* \"--CODEGEN--\":30:37   */\n              dup4\n                /* \"--CODEGEN--\":26:47   */\n              sub\n                /* \"--CODEGEN--\":22:54   */\n              sub\n                /* \"--CODEGEN--\":13:20   */\n              dup2\n                /* \"--CODEGEN--\":6:55   */\n              mstore\n                /* \"background.sol\":5009:5029  abi.encodePacked(\"\") */\n              swap1\n              0x40\n              mstore\n                /* \"background.sol\":4999:5030  keccak256(abi.encodePacked(\"\")) */\n              dup1\n              mload\n              swap1\n              0x20\n              add\n              keccak256\n                /* \"background.sol\":4982:4993  labResultss */\n              dup4\n                /* \"background.sol\":4965:4994  abi.encodePacked(labResultss) */\n              add(0x20, mload(0x40))\n              dup1\n              dup3\n              dup1\n              mload\n              swap1\n              0x20\n              add\n              swap1\n              dup1\n              dup4\n              dup4\n                /* \"--CODEGEN--\":36:189   */\n            tag_290:\n                /* \"--CODEGEN--\":66:68   */\n              0x20\n                /* \"--CODEGEN--\":61:64   */\n              dup4\n                /* \"--CODEGEN--\":58:69   */\n              lt\n                /* \"--CODEGEN--\":51:70   */\n              iszero\n                /* \"--CODEGEN--\":36:189   */\n              iszero\n              tag_291\n              jumpi\n                /* \"--CODEGEN--\":182:185   */\n              dup1\n                /* \"--CODEGEN--\":176:186   */\n              mload\n                /* \"--CODEGEN--\":171:174   */\n              dup3\n                /* \"--CODEGEN--\":164:187   */\n              mstore\n                /* \"--CODEGEN--\":98:100   */\n              0x20\n                /* \"--CODEGEN--\":93:96   */\n              dup3\n                /* \"--CODEGEN--\":89:101   */\n              add\n                /* \"--CODEGEN--\":82:101   */\n              swap2\n              pop\n                /* \"--CODEGEN--\":123:125   */\n              0x20\n                /* \"--CODEGEN--\":118:121   */\n              dup2\n                /* \"--CODEGEN--\":114:126   */\n              add\n                /* \"--CODEGEN--\":107:126   */\n              swap1\n              pop\n                /* \"--CODEGEN--\":148:150   */\n              0x20\n                /* \"--CODEGEN--\":143:146   */\n              dup4\n                /* \"--CODEGEN--\":139:151   */\n              sub\n                /* \"--CODEGEN--\":132:151   */\n              swap3\n              pop\n                /* \"--CODEGEN--\":36:189   */\n              jump(tag_290)\n            tag_291:\n                /* \"--CODEGEN--\":274:275   */\n              0x01\n                /* \"--CODEGEN--\":267:270   */\n              dup4\n                /* \"--CODEGEN--\":263:265   */\n              0x20\n                /* \"--CODEGEN--\":259:271   */\n              sub\n                /* \"--CODEGEN--\":254:257   */\n              0x0100\n                /* \"--CODEGEN--\":250:272   */\n              exp\n                /* \"--CODEGEN--\":246:276   */\n              sub\n                /* \"--CODEGEN--\":315:319   */\n              dup1\n                /* \"--CODEGEN--\":311:320   */\n              not\n                /* \"--CODEGEN--\":305:308   */\n              dup3\n                /* \"--CODEGEN--\":299:309   */\n              mload\n                /* \"--CODEGEN--\":295:321   */\n              and\n                /* \"--CODEGEN--\":356:360   */\n              dup2\n                /* \"--CODEGEN--\":350:353   */\n              dup5\n                /* \"--CODEGEN--\":344:354   */\n              mload\n                /* \"--CODEGEN--\":340:361   */\n              and\n                /* \"--CODEGEN--\":389:396   */\n              dup1\n                /* \"--CODEGEN--\":380:387   */\n              dup3\n                /* \"--CODEGEN--\":377:397   */\n              or\n                /* \"--CODEGEN--\":372:375   */\n              dup6\n                /* \"--CODEGEN--\":365:398   */\n              mstore\n                /* \"--CODEGEN--\":3:402   */\n              pop\n              pop\n              pop\n                /* \"background.sol\":4965:4994  abi.encodePacked(labResultss) */\n              pop\n              pop\n              pop\n              swap1\n              pop\n              add\n              swap2\n              pop\n              pop\n              mload(0x40)\n                /* \"--CODEGEN--\":49:53   */\n              0x20\n                /* \"--CODEGEN--\":39:46   */\n              dup2\n                /* \"--CODEGEN--\":30:37   */\n              dup4\n                /* \"--CODEGEN--\":26:47   */\n              sub\n                /* \"--CODEGEN--\":22:54   */\n              sub\n                /* \"--CODEGEN--\":13:20   */\n              dup2\n                /* \"--CODEGEN--\":6:55   */\n              mstore\n                /* \"background.sol\":4965:4994  abi.encodePacked(labResultss) */\n              swap1\n              0x40\n              mstore\n                /* \"background.sol\":4955:4995  keccak256(abi.encodePacked(labResultss)) */\n              dup1\n              mload\n              swap1\n              0x20\n              add\n              keccak256\n                /* \"background.sol\":4955:5030  keccak256(abi.encodePacked(labResultss)) == keccak256(abi.encodePacked(\"\")) */\n              eq\n                /* \"background.sol\":4953:5031  !(keccak256(abi.encodePacked(labResultss)) == keccak256(abi.encodePacked(\"\"))) */\n              iszero\n                /* \"background.sol\":4950:5102  if(!(keccak256(abi.encodePacked(labResultss)) == keccak256(abi.encodePacked(\"\")))) {\r... */\n              iszero\n              tag_293\n              jumpi\n                /* \"background.sol\":5052:5057  files */\n              0x10\n                /* \"background.sol\":5052:5068  files.labResults */\n              0x02\n              add\n                /* \"background.sol\":5074:5085  labResultss */\n              dup4\n                /* \"background.sol\":5052:5086  files.labResults.push(labResultss) */\n              swap1\n              dup1\n                /* \"--CODEGEN--\":39:40   */\n              0x01\n                /* \"--CODEGEN--\":33:36   */\n              dup2\n                /* \"--CODEGEN--\":27:37   */\n              sload\n                /* \"--CODEGEN--\":23:41   */\n              add\n                /* \"--CODEGEN--\":57:67   */\n              dup1\n                /* \"--CODEGEN--\":52:55   */\n              dup3\n                /* \"--CODEGEN--\":45:68   */\n              sstore\n                /* \"--CODEGEN--\":79:89   */\n              dup1\n                /* \"--CODEGEN--\":72:89   */\n              swap2\n              pop\n                /* \"--CODEGEN--\":0:93   */\n              pop\n                /* \"background.sol\":5052:5086  files.labResults.push(labResultss) */\n              swap1\n              0x01\n              dup3\n              sub\n              swap1\n              0x00\n              mstore\n              keccak256(0x00, 0x20)\n              add\n              0x00\n              swap1\n              swap2\n              swap3\n              swap1\n              swap2\n              swap1\n              swap2\n              pop\n              swap1\n              dup1\n              mload\n              swap1\n              0x20\n              add\n              swap1\n              tag_295\n              swap3\n              swap2\n              swap1\n              tag_283\n              jump\t// in\n            tag_295:\n              pop\n              pop\n                /* \"background.sol\":4950:5102  if(!(keccak256(abi.encodePacked(labResultss)) == keccak256(abi.encodePacked(\"\")))) {\r... */\n            tag_293:\n                /* \"background.sol\":5121:5136  ChangeOccured() */\n              0x2b94f1e9999ff685f243474c3b8c30563987b8897fecb35c7cea9ac0f4f5c6bd\n              mload(0x40)\n              mload(0x40)\n              dup1\n              swap2\n              sub\n              swap1\n              log1\n                /* \"background.sol\":5156:5185  LogBook(logHeader,logDetails) */\n              0xef0f252fa7157cbc267992e6ffb0392cef11ce000a6e683e67df6b4c493ec5dd\n                /* \"background.sol\":5164:5173  logHeader */\n              dup3\n                /* \"background.sol\":5174:5184  logDetails */\n              dup3\n                /* \"background.sol\":5156:5185  LogBook(logHeader,logDetails) */\n              mload(0x40)\n              tag_296\n              swap3\n              swap2\n              swap1\n              jump(tag_70)\n            tag_296:\n              mload(0x40)\n              dup1\n              swap2\n              sub\n              swap1\n              log1\n                /* \"background.sol\":4553:5197  if(isDoctorAllowed(msg.sender)) {\r... */\n            tag_276:\n                /* \"background.sol\":4379:5204  function addFiles(string memory billingDataa, string memory radiologyImagess, string memory labResultss, string memory logHeader, string memory logDetails) public {\r... */\n              pop\n              pop\n              pop\n              pop\n              pop\n              jump\t// out\n                /* \"background.sol\":6639:6891  function isCorrectPassword(string memory pass) public view returns(bool) {\r... */\n            tag_46:\n                /* \"background.sol\":6706:6710  bool */\n              0x00\n                /* \"background.sol\":6790:6798  password */\n              0x15\n                /* \"background.sol\":6773:6799  abi.encodePacked(password) */\n              add(0x20, mload(0x40))\n              dup1\n              dup3\n              dup1\n              sload\n              0x01\n              dup2\n              0x01\n              and\n              iszero\n              0x0100\n              mul\n              sub\n              and\n              0x02\n              swap1\n              div\n              dup1\n              iszero\n              tag_298\n              jumpi\n              dup1\n              0x1f\n              lt\n              tag_299\n              jumpi\n              0x0100\n              dup1\n              dup4\n              sload\n              div\n              mul\n              dup4\n              mstore\n              swap2\n              dup3\n              add\n              swap2\n              jump(tag_298)\n            tag_299:\n              dup3\n              add\n              swap2\n              swap1\n              0x00\n              mstore\n              keccak256(0x00, 0x20)\n              swap1\n            tag_300:\n              dup2\n              sload\n              dup2\n              mstore\n              swap1\n              0x01\n              add\n              swap1\n              0x20\n              add\n              dup1\n              dup4\n              gt\n              tag_300\n              jumpi\n            tag_298:\n              pop\n              pop\n              swap2\n              pop\n              pop\n              mload(0x40)\n                /* \"--CODEGEN--\":49:53   */\n              0x20\n                /* \"--CODEGEN--\":39:46   */\n              dup2\n                /* \"--CODEGEN--\":30:37   */\n              dup4\n                /* \"--CODEGEN--\":26:47   */\n              sub\n                /* \"--CODEGEN--\":22:54   */\n              sub\n                /* \"--CODEGEN--\":13:20   */\n              dup2\n                /* \"--CODEGEN--\":6:55   */\n              mstore\n                /* \"background.sol\":6773:6799  abi.encodePacked(password) */\n              swap1\n              0x40\n              mstore\n                /* \"background.sol\":6763:6800  keccak256(abi.encodePacked(password)) */\n              dup1\n              mload\n              swap1\n              0x20\n              add\n              keccak256\n                /* \"background.sol\":6753:6757  pass */\n              dup3\n                /* \"background.sol\":6736:6758  abi.encodePacked(pass) */\n              add(0x20, mload(0x40))\n              dup1\n              dup3\n              dup1\n              mload\n              swap1\n              0x20\n              add\n              swap1\n              dup1\n              dup4\n              dup4\n                /* \"--CODEGEN--\":36:189   */\n            tag_301:\n                /* \"--CODEGEN--\":66:68   */\n              0x20\n                /* \"--CODEGEN--\":61:64   */\n              dup4\n                /* \"--CODEGEN--\":58:69   */\n              lt\n                /* \"--CODEGEN--\":51:70   */\n              iszero\n                /* \"--CODEGEN--\":36:189   */\n              iszero\n              tag_302\n              jumpi\n                /* \"--CODEGEN--\":182:185   */\n              dup1\n                /* \"--CODEGEN--\":176:186   */\n              mload\n                /* \"--CODEGEN--\":171:174   */\n              dup3\n                /* \"--CODEGEN--\":164:187   */\n              mstore\n                /* \"--CODEGEN--\":98:100   */\n              0x20\n                /* \"--CODEGEN--\":93:96   */\n              dup3\n                /* \"--CODEGEN--\":89:101   */\n              add\n                /* \"--CODEGEN--\":82:101   */\n              swap2\n              pop\n                /* \"--CODEGEN--\":123:125   */\n              0x20\n                /* \"--CODEGEN--\":118:121   */\n              dup2\n                /* \"--CODEGEN--\":114:126   */\n              add\n                /* \"--CODEGEN--\":107:126   */\n              swap1\n              pop\n                /* \"--CODEGEN--\":148:150   */\n              0x20\n                /* \"--CODEGEN--\":143:146   */\n              dup4\n                /* \"--CODEGEN--\":139:151   */\n              sub\n                /* \"--CODEGEN--\":132:151   */\n              swap3\n              pop\n                /* \"--CODEGEN--\":36:189   */\n              jump(tag_301)\n            tag_302:\n                /* \"--CODEGEN--\":274:275   */\n              0x01\n                /* \"--CODEGEN--\":267:270   */\n              dup4\n                /* \"--CODEGEN--\":263:265   */\n              0x20\n                /* \"--CODEGEN--\":259:271   */\n              sub\n                /* \"--CODEGEN--\":254:257   */\n              0x0100\n                /* \"--CODEGEN--\":250:272   */\n              exp\n                /* \"--CODEGEN--\":246:276   */\n              sub\n                /* \"--CODEGEN--\":315:319   */\n              dup1\n                /* \"--CODEGEN--\":311:320   */\n              not\n                /* \"--CODEGEN--\":305:308   */\n              dup3\n                /* \"--CODEGEN--\":299:309   */\n              mload\n                /* \"--CODEGEN--\":295:321   */\n              and\n                /* \"--CODEGEN--\":356:360   */\n              dup2\n                /* \"--CODEGEN--\":350:353   */\n              dup5\n                /* \"--CODEGEN--\":344:354   */\n              mload\n                /* \"--CODEGEN--\":340:361   */\n              and\n                /* \"--CODEGEN--\":389:396   */\n              dup1\n                /* \"--CODEGEN--\":380:387   */\n              dup3\n                /* \"--CODEGEN--\":377:397   */\n              or\n                /* \"--CODEGEN--\":372:375   */\n              dup6\n                /* \"--CODEGEN--\":365:398   */\n              mstore\n                /* \"--CODEGEN--\":3:402   */\n              pop\n              pop\n              pop\n                /* \"background.sol\":6736:6758  abi.encodePacked(pass) */\n              pop\n              pop\n              pop\n              swap1\n              pop\n              add\n              swap2\n              pop\n              pop\n              mload(0x40)\n                /* \"--CODEGEN--\":49:53   */\n              0x20\n                /* \"--CODEGEN--\":39:46   */\n              dup2\n                /* \"--CODEGEN--\":30:37   */\n              dup4\n                /* \"--CODEGEN--\":26:47   */\n              sub\n                /* \"--CODEGEN--\":22:54   */\n              sub\n                /* \"--CODEGEN--\":13:20   */\n              dup2\n                /* \"--CODEGEN--\":6:55   */\n              mstore\n                /* \"background.sol\":6736:6758  abi.encodePacked(pass) */\n              swap1\n              0x40\n              mstore\n                /* \"background.sol\":6726:6759  keccak256(abi.encodePacked(pass)) */\n              dup1\n              mload\n              swap1\n              0x20\n              add\n              keccak256\n                /* \"background.sol\":6726:6800  keccak256(abi.encodePacked(pass)) == keccak256(abi.encodePacked(password)) */\n              eq\n                /* \"background.sol\":6723:6884  if(keccak256(abi.encodePacked(pass)) == keccak256(abi.encodePacked(password))) {\r... */\n              iszero\n              tag_304\n              jumpi\n                /* \"background.sol\":6824:6828  true */\n              0x01\n                /* \"background.sol\":6817:6828  return true */\n              swap1\n              pop\n              jump(tag_297)\n                /* \"background.sol\":6723:6884  if(keccak256(abi.encodePacked(pass)) == keccak256(abi.encodePacked(password))) {\r... */\n            tag_304:\n                /* \"background.sol\":6867:6872  false */\n              0x00\n                /* \"background.sol\":6860:6872  return false */\n              swap1\n              pop\n                /* \"background.sol\":6639:6891  function isCorrectPassword(string memory pass) public view returns(bool) {\r... */\n            tag_297:\n              swap2\n              swap1\n              pop\n              jump\t// out\n                /* \"background.sol\":7357:7723  function addInsurance(string memory insurancee, string memory pass, string memory logHeader, string memory logDetails) public {\r... */\n            tag_52:\n                /* \"background.sol\":7561:7569  password */\n              0x15\n                /* \"background.sol\":7544:7570  abi.encodePacked(password) */\n              add(0x20, mload(0x40))\n              dup1\n              dup3\n              dup1\n              sload\n              0x01\n              dup2\n              0x01\n              and\n              iszero\n              0x0100\n              mul\n              sub\n              and\n              0x02\n              swap1\n              div\n              dup1\n              iszero\n              tag_307\n              jumpi\n              dup1\n              0x1f\n              lt\n              tag_308\n              jumpi\n              0x0100\n              dup1\n              dup4\n              sload\n              div\n              mul\n              dup4\n              mstore\n              swap2\n              dup3\n              add\n              swap2\n              jump(tag_307)\n            tag_308:\n              dup3\n              add\n              swap2\n              swap1\n              0x00\n              mstore\n              keccak256(0x00, 0x20)\n              swap1\n            tag_309:\n              dup2\n              sload\n              dup2\n              mstore\n              swap1\n              0x01\n              add\n              swap1\n              0x20\n              add\n              dup1\n              dup4\n              gt\n              tag_309\n              jumpi\n            tag_307:\n              pop\n              pop\n              swap2\n              pop\n              pop\n              mload(0x40)\n                /* \"--CODEGEN--\":49:53   */\n              0x20\n                /* \"--CODEGEN--\":39:46   */\n              dup2\n                /* \"--CODEGEN--\":30:37   */\n              dup4\n                /* \"--CODEGEN--\":26:47   */\n              sub\n                /* \"--CODEGEN--\":22:54   */\n              sub\n                /* \"--CODEGEN--\":13:20   */\n              dup2\n                /* \"--CODEGEN--\":6:55   */\n              mstore\n                /* \"background.sol\":7544:7570  abi.encodePacked(password) */\n              swap1\n              0x40\n              mstore\n                /* \"background.sol\":7534:7571  keccak256(abi.encodePacked(password)) */\n              dup1\n              mload\n              swap1\n              0x20\n              add\n              keccak256\n                /* \"background.sol\":7524:7528  pass */\n              dup4\n                /* \"background.sol\":7507:7529  abi.encodePacked(pass) */\n              add(0x20, mload(0x40))\n              dup1\n              dup3\n              dup1\n              mload\n              swap1\n              0x20\n              add\n              swap1\n              dup1\n              dup4\n              dup4\n                /* \"--CODEGEN--\":36:189   */\n            tag_310:\n                /* \"--CODEGEN--\":66:68   */\n              0x20\n                /* \"--CODEGEN--\":61:64   */\n              dup4\n                /* \"--CODEGEN--\":58:69   */\n              lt\n                /* \"--CODEGEN--\":51:70   */\n              iszero\n                /* \"--CODEGEN--\":36:189   */\n              iszero\n              tag_311\n              jumpi\n                /* \"--CODEGEN--\":182:185   */\n              dup1\n                /* \"--CODEGEN--\":176:186   */\n              mload\n                /* \"--CODEGEN--\":171:174   */\n              dup3\n                /* \"--CODEGEN--\":164:187   */\n              mstore\n                /* \"--CODEGEN--\":98:100   */\n              0x20\n                /* \"--CODEGEN--\":93:96   */\n              dup3\n                /* \"--CODEGEN--\":89:101   */\n              add\n                /* \"--CODEGEN--\":82:101   */\n              swap2\n              pop\n                /* \"--CODEGEN--\":123:125   */\n              0x20\n                /* \"--CODEGEN--\":118:121   */\n              dup2\n                /* \"--CODEGEN--\":114:126   */\n              add\n                /* \"--CODEGEN--\":107:126   */\n              swap1\n              pop\n                /* \"--CODEGEN--\":148:150   */\n              0x20\n                /* \"--CODEGEN--\":143:146   */\n              dup4\n                /* \"--CODEGEN--\":139:151   */\n              sub\n                /* \"--CODEGEN--\":132:151   */\n              swap3\n              pop\n                /* \"--CODEGEN--\":36:189   */\n              jump(tag_310)\n            tag_311:\n                /* \"--CODEGEN--\":274:275   */\n              0x01\n                /* \"--CODEGEN--\":267:270   */\n              dup4\n                /* \"--CODEGEN--\":263:265   */\n              0x20\n                /* \"--CODEGEN--\":259:271   */\n              sub\n                /* \"--CODEGEN--\":254:257   */\n              0x0100\n                /* \"--CODEGEN--\":250:272   */\n              exp\n                /* \"--CODEGEN--\":246:276   */\n              sub\n                /* \"--CODEGEN--\":315:319   */\n              dup1\n                /* \"--CODEGEN--\":311:320   */\n              not\n                /* \"--CODEGEN--\":305:308   */\n              dup3\n                /* \"--CODEGEN--\":299:309   */\n              mload\n                /* \"--CODEGEN--\":295:321   */\n              and\n                /* \"--CODEGEN--\":356:360   */\n              dup2\n                /* \"--CODEGEN--\":350:353   */\n              dup5\n                /* \"--CODEGEN--\":344:354   */\n              mload\n                /* \"--CODEGEN--\":340:361   */\n              and\n                /* \"--CODEGEN--\":389:396   */\n              dup1\n                /* \"--CODEGEN--\":380:387   */\n              dup3\n                /* \"--CODEGEN--\":377:397   */\n              or\n                /* \"--CODEGEN--\":372:375   */\n              dup6\n                /* \"--CODEGEN--\":365:398   */\n              mstore\n                /* \"--CODEGEN--\":3:402   */\n              pop\n              pop\n              pop\n                /* \"background.sol\":7507:7529  abi.encodePacked(pass) */\n              pop\n              pop\n              pop\n              swap1\n              pop\n              add\n              swap2\n              pop\n              pop\n              mload(0x40)\n                /* \"--CODEGEN--\":49:53   */\n              0x20\n                /* \"--CODEGEN--\":39:46   */\n              dup2\n                /* \"--CODEGEN--\":30:37   */\n              dup4\n                /* \"--CODEGEN--\":26:47   */\n              sub\n                /* \"--CODEGEN--\":22:54   */\n              sub\n                /* \"--CODEGEN--\":13:20   */\n              dup2\n                /* \"--CODEGEN--\":6:55   */\n              mstore\n                /* \"background.sol\":7507:7529  abi.encodePacked(pass) */\n              swap1\n              0x40\n              mstore\n                /* \"background.sol\":7497:7530  keccak256(abi.encodePacked(pass)) */\n              dup1\n              mload\n              swap1\n              0x20\n              add\n              keccak256\n                /* \"background.sol\":7497:7571  keccak256(abi.encodePacked(pass)) == keccak256(abi.encodePacked(password)) */\n              eq\n                /* \"background.sol\":7494:7716  if(keccak256(abi.encodePacked(pass)) == keccak256(abi.encodePacked(password))) {\r... */\n              iszero\n              tag_313\n              jumpi\n                /* \"background.sol\":7588:7593  files */\n              0x10\n                /* \"background.sol\":7588:7603  files.insurance */\n              0x03\n              add\n                /* \"background.sol\":7609:7619  insurancee */\n              dup5\n                /* \"background.sol\":7588:7620  files.insurance.push(insurancee) */\n              swap1\n              dup1\n                /* \"--CODEGEN--\":39:40   */\n              0x01\n                /* \"--CODEGEN--\":33:36   */\n              dup2\n                /* \"--CODEGEN--\":27:37   */\n              sload\n                /* \"--CODEGEN--\":23:41   */\n              add\n                /* \"--CODEGEN--\":57:67   */\n              dup1\n                /* \"--CODEGEN--\":52:55   */\n              dup3\n                /* \"--CODEGEN--\":45:68   */\n              sstore\n                /* \"--CODEGEN--\":79:89   */\n              dup1\n                /* \"--CODEGEN--\":72:89   */\n              swap2\n              pop\n                /* \"--CODEGEN--\":0:93   */\n              pop\n                /* \"background.sol\":7588:7620  files.insurance.push(insurancee) */\n              swap1\n              0x01\n              dup3\n              sub\n              swap1\n              0x00\n              mstore\n              keccak256(0x00, 0x20)\n              add\n              0x00\n              swap1\n              swap2\n              swap3\n              swap1\n              swap2\n              swap1\n              swap2\n              pop\n              swap1\n              dup1\n              mload\n              swap1\n              0x20\n              add\n              swap1\n              tag_315\n              swap3\n              swap2\n              swap1\n              tag_283\n              jump\t// in\n            tag_315:\n              pop\n              pop\n                /* \"background.sol\":7640:7655  ChangeOccured() */\n              0x2b94f1e9999ff685f243474c3b8c30563987b8897fecb35c7cea9ac0f4f5c6bd\n              mload(0x40)\n              mload(0x40)\n              dup1\n              swap2\n              sub\n              swap1\n              log1\n                /* \"background.sol\":7675:7704  LogBook(logHeader,logDetails) */\n              0xef0f252fa7157cbc267992e6ffb0392cef11ce000a6e683e67df6b4c493ec5dd\n                /* \"background.sol\":7683:7692  logHeader */\n              dup3\n                /* \"background.sol\":7693:7703  logDetails */\n              dup3\n                /* \"background.sol\":7675:7704  LogBook(logHeader,logDetails) */\n              mload(0x40)\n              tag_316\n              swap3\n              swap2\n              swap1\n              jump(tag_70)\n            tag_316:\n              mload(0x40)\n              dup1\n              swap2\n              sub\n              swap1\n              log1\n                /* \"background.sol\":7494:7716  if(keccak256(abi.encodePacked(pass)) == keccak256(abi.encodePacked(password))) {\r... */\n            tag_313:\n                /* \"background.sol\":7357:7723  function addInsurance(string memory insurancee, string memory pass, string memory logHeader, string memory logDetails) public {\r... */\n              pop\n              pop\n              pop\n              pop\n              jump\t// out\n                /* \"background.sol\":6197:6627  function isDoctorAllowed(address add) public view returns(bool) {\r... */\n            tag_56:\n                /* \"background.sol\":6255:6259  bool */\n              0x00\n                /* \"background.sol\":6272:6282  Mapping mp */\n              dup1\n                /* \"background.sol\":6293:6335  0x034E524e35a165c5d829b2985EAdDe75562Ed15C */\n              0x034e524e35a165c5d829b2985eadde75562ed15c\n                /* \"background.sol\":6272:6336  Mapping mp = Mapping(0x034E524e35a165c5d829b2985EAdDe75562Ed15C) */\n              swap1\n              pop\n                /* \"background.sol\":6347:6356  Doctor dc */\n              0x00\n                /* \"background.sol\":6366:6368  mp */\n              dup2\n                /* \"background.sol\":6366:6385  mp.getDoctorAddress */\n              0xffffffffffffffffffffffffffffffffffffffff\n              and\n              0xff76a739\n                /* \"background.sol\":6366:6387  mp.getDoctorAddress() */\n              mload(0x40)\n              dup2\n              0xffffffff\n              and\n              0x0100000000000000000000000000000000000000000000000000000000\n              mul\n              dup2\n              mstore\n              0x04\n              add\n              0x20\n              mload(0x40)\n              dup1\n              dup4\n              sub\n              dup2\n              dup7\n              dup1\n              extcodesize\n              iszero\n                /* \"--CODEGEN--\":8:17   */\n              dup1\n                /* \"--CODEGEN--\":5:7   */\n              iszero\n              tag_318\n              jumpi\n                /* \"--CODEGEN--\":30:31   */\n              0x00\n                /* \"--CODEGEN--\":27:28   */\n              dup1\n                /* \"--CODEGEN--\":20:32   */\n              revert\n                /* \"--CODEGEN--\":5:7   */\n            tag_318:\n                /* \"background.sol\":6366:6387  mp.getDoctorAddress() */\n              pop\n              gas\n              staticcall\n              iszero\n                /* \"--CODEGEN--\":8:17   */\n              dup1\n                /* \"--CODEGEN--\":5:7   */\n              iszero\n              tag_319\n              jumpi\n                /* \"--CODEGEN--\":45:61   */\n              returndatasize\n                /* \"--CODEGEN--\":42:43   */\n              0x00\n                /* \"--CODEGEN--\":39:40   */\n              dup1\n                /* \"--CODEGEN--\":24:62   */\n              returndatacopy\n                /* \"--CODEGEN--\":77:93   */\n              returndatasize\n                /* \"--CODEGEN--\":74:75   */\n              0x00\n                /* \"--CODEGEN--\":67:94   */\n              revert\n                /* \"--CODEGEN--\":5:7   */\n            tag_319:\n                /* \"background.sol\":6366:6387  mp.getDoctorAddress() */\n              pop\n              pop\n              pop\n              pop\n              mload(0x40)\n              returndatasize\n                /* \"--CODEGEN--\":101:105   */\n              0x1f\n                /* \"--CODEGEN--\":97:106   */\n              not\n                /* \"--CODEGEN--\":90:94   */\n              0x1f\n                /* \"--CODEGEN--\":84:88   */\n              dup3\n                /* \"--CODEGEN--\":80:95   */\n              add\n                /* \"--CODEGEN--\":76:107   */\n              and\n                /* \"--CODEGEN--\":69:74   */\n              dup3\n                /* \"--CODEGEN--\":65:108   */\n              add\n                /* \"--CODEGEN--\":126:132   */\n              dup1\n                /* \"--CODEGEN--\":120:124   */\n              0x40\n                /* \"--CODEGEN--\":113:133   */\n              mstore\n                /* \"--CODEGEN--\":0:138   */\n              pop\n                /* \"background.sol\":6366:6387  mp.getDoctorAddress() */\n              tag_320\n              swap2\n              swap1\n              dup2\n              add\n              swap1\n              jump(tag_321)\n            tag_320:\n                /* \"background.sol\":6347:6388  Doctor dc = Doctor(mp.getDoctorAddress()) */\n              swap1\n              pop\n                /* \"background.sol\":6402:6404  dc */\n              dup1\n                /* \"background.sol\":6402:6413  dc.isDoctor */\n              0xffffffffffffffffffffffffffffffffffffffff\n              and\n              0x996440c6\n                /* \"background.sol\":6414:6417  add */\n              dup6\n                /* \"background.sol\":6402:6418  dc.isDoctor(add) */\n              mload(0x40)\n              dup3\n              0xffffffff\n              and\n              0x0100000000000000000000000000000000000000000000000000000000\n              mul\n              dup2\n              mstore\n              0x04\n              add\n              tag_322\n              swap2\n              swap1\n              jump(tag_323)\n            tag_322:\n              0x20\n              mload(0x40)\n              dup1\n              dup4\n              sub\n              dup2\n              dup7\n              dup1\n              extcodesize\n              iszero\n                /* \"--CODEGEN--\":8:17   */\n              dup1\n                /* \"--CODEGEN--\":5:7   */\n              iszero\n              tag_324\n              jumpi\n                /* \"--CODEGEN--\":30:31   */\n              0x00\n                /* \"--CODEGEN--\":27:28   */\n              dup1\n                /* \"--CODEGEN--\":20:32   */\n              revert\n                /* \"--CODEGEN--\":5:7   */\n            tag_324:\n                /* \"background.sol\":6402:6418  dc.isDoctor(add) */\n              pop\n              gas\n              staticcall\n              iszero\n                /* \"--CODEGEN--\":8:17   */\n              dup1\n                /* \"--CODEGEN--\":5:7   */\n              iszero\n              tag_325\n              jumpi\n                /* \"--CODEGEN--\":45:61   */\n              returndatasize\n                /* \"--CODEGEN--\":42:43   */\n              0x00\n                /* \"--CODEGEN--\":39:40   */\n              dup1\n                /* \"--CODEGEN--\":24:62   */\n              returndatacopy\n                /* \"--CODEGEN--\":77:93   */\n              returndatasize\n                /* \"--CODEGEN--\":74:75   */\n              0x00\n                /* \"--CODEGEN--\":67:94   */\n              revert\n                /* \"--CODEGEN--\":5:7   */\n            tag_325:\n                /* \"background.sol\":6402:6418  dc.isDoctor(add) */\n              pop\n              pop\n              pop\n              pop\n              mload(0x40)\n              returndatasize\n                /* \"--CODEGEN--\":101:105   */\n              0x1f\n                /* \"--CODEGEN--\":97:106   */\n              not\n                /* \"--CODEGEN--\":90:94   */\n              0x1f\n                /* \"--CODEGEN--\":84:88   */\n              dup3\n                /* \"--CODEGEN--\":80:95   */\n              add\n                /* \"--CODEGEN--\":76:107   */\n              and\n                /* \"--CODEGEN--\":69:74   */\n              dup3\n                /* \"--CODEGEN--\":65:108   */\n              add\n                /* \"--CODEGEN--\":126:132   */\n              dup1\n                /* \"--CODEGEN--\":120:124   */\n              0x40\n                /* \"--CODEGEN--\":113:133   */\n              mstore\n                /* \"--CODEGEN--\":0:138   */\n              pop\n                /* \"background.sol\":6402:6418  dc.isDoctor(add) */\n              tag_326\n              swap2\n              swap1\n              dup2\n              add\n              swap1\n              jump(tag_327)\n            tag_326:\n                /* \"background.sol\":6399:6620  if(dc.isDoctor(add)) {\r... */\n              iszero\n              tag_328\n              jumpi\n                /* \"background.sol\":6461:6465  true */\n              0x01\n                /* \"background.sol\":6438:6465  doctorsAllowed[add] == true */\n              iszero\n              iszero\n                /* \"background.sol\":6438:6452  doctorsAllowed */\n              0x14\n                /* \"background.sol\":6438:6457  doctorsAllowed[add] */\n              0x00\n                /* \"background.sol\":6453:6456  add */\n              dup7\n                /* \"background.sol\":6438:6457  doctorsAllowed[add] */\n              0xffffffffffffffffffffffffffffffffffffffff\n              and\n              0xffffffffffffffffffffffffffffffffffffffff\n              and\n              dup2\n              mstore\n              0x20\n              add\n              swap1\n              dup2\n              mstore\n              0x20\n              add\n              0x00\n              keccak256\n              0x00\n              swap1\n              sload\n              swap1\n              0x0100\n              exp\n              swap1\n              div\n              0xff\n              and\n                /* \"background.sol\":6438:6465  doctorsAllowed[add] == true */\n              iszero\n              iszero\n              eq\n                /* \"background.sol\":6435:6565  if(doctorsAllowed[add] == true) {\r... */\n              iszero\n              tag_329\n              jumpi\n                /* \"background.sol\":6493:6497  true */\n              0x01\n                /* \"background.sol\":6486:6497  return true */\n              swap3\n              pop\n              pop\n              pop\n              jump(tag_317)\n                /* \"background.sol\":6435:6565  if(doctorsAllowed[add] == true) {\r... */\n            tag_329:\n                /* \"background.sol\":6544:6549  false */\n              0x00\n                /* \"background.sol\":6537:6549  return false */\n              swap3\n              pop\n              pop\n              pop\n              jump(tag_317)\n                /* \"background.sol\":6399:6620  if(dc.isDoctor(add)) {\r... */\n            tag_328:\n                /* \"background.sol\":6603:6608  false */\n              0x00\n                /* \"background.sol\":6596:6608  return false */\n              swap3\n              pop\n              pop\n              pop\n                /* \"background.sol\":6197:6627  function isDoctorAllowed(address add) public view returns(bool) {\r... */\n            tag_317:\n              swap2\n              swap1\n              pop\n              jump\t// out\n                /* \"background.sol\":7224:7345  function getEmergencyData() public view returns(string memory) {\r... */\n            tag_59:\n                /* \"background.sol\":7272:7285  string memory */\n              0x60\n                /* \"background.sol\":7305:7327  patientNonDemographics */\n              0x08\n                /* \"background.sol\":7305:7337  patientNonDemographics.emergency */\n              0x07\n              add\n                /* \"background.sol\":7298:7337  return patientNonDemographics.emergency */\n              dup1\n              sload\n              0x01\n              dup2\n              0x01\n              and\n              iszero\n              0x0100\n              mul\n              sub\n              and\n              0x02\n              swap1\n              div\n              dup1\n              0x1f\n              add\n              0x20\n              dup1\n              swap2\n              div\n              mul\n              0x20\n              add\n              mload(0x40)\n              swap1\n              dup2\n              add\n              0x40\n              mstore\n              dup1\n              swap3\n              swap2\n              swap1\n              dup2\n              dup2\n              mstore\n              0x20\n              add\n              dup3\n              dup1\n              sload\n              0x01\n              dup2\n              0x01\n              and\n              iszero\n              0x0100\n              mul\n              sub\n              and\n              0x02\n              swap1\n              div\n              dup1\n              iszero\n              tag_333\n              jumpi\n              dup1\n              0x1f\n              lt\n              tag_334\n              jumpi\n              0x0100\n              dup1\n              dup4\n              sload\n              div\n              mul\n              dup4\n              mstore\n              swap2\n              0x20\n              add\n              swap2\n              jump(tag_333)\n            tag_334:\n              dup3\n              add\n              swap2\n              swap1\n              0x00\n              mstore\n              keccak256(0x00, 0x20)\n              swap1\n            tag_335:\n              dup2\n              sload\n              dup2\n              mstore\n              swap1\n              0x01\n              add\n              swap1\n              0x20\n              add\n              dup1\n              dup4\n              gt\n              tag_335\n              jumpi\n              dup3\n              swap1\n              sub\n              0x1f\n              and\n              dup3\n              add\n              swap2\n            tag_333:\n              pop\n              pop\n              pop\n              pop\n              pop\n              swap1\n              pop\n                /* \"background.sol\":7224:7345  function getEmergencyData() public view returns(string memory) {\r... */\n              swap1\n              jump\t// out\n                /* \"background.sol\":2204:10440  contract MedicalRecord {\r... */\n            tag_72:\n              0x0100\n              mload(0x40)\n              swap1\n              dup2\n              add\n              0x40\n              mstore\n              dup1\n              0x60\n              dup2\n              mstore\n              0x20\n              add\n              0x60\n              dup2\n              mstore\n              0x20\n              add\n              0x60\n              dup2\n              mstore\n              0x20\n              add\n              0x60\n              dup2\n              mstore\n              0x20\n              add\n              0x00\n              dup2\n              mstore\n              0x20\n              add\n              0x60\n              dup2\n              mstore\n              0x20\n              add\n              0x60\n              dup2\n              mstore\n              0x20\n              add\n              0x60\n              dup2\n              mstore\n              pop\n              swap1\n              jump\t// out\n            tag_74:\n              0x0100\n              mload(0x40)\n              swap1\n              dup2\n              add\n              0x40\n              mstore\n              dup1\n              0x60\n              dup2\n              mstore\n              0x20\n              add\n              0x60\n              dup2\n              mstore\n              0x20\n              add\n              0x60\n              dup2\n              mstore\n              0x20\n              add\n              0x60\n              dup2\n              mstore\n              0x20\n              add\n              0x60\n              dup2\n              mstore\n              0x20\n              add\n              0x60\n              dup2\n              mstore\n              0x20\n              add\n              0x60\n              dup2\n              mstore\n              0x20\n              add\n              0x60\n              dup2\n              mstore\n              pop\n              swap1\n              jump\t// out\n            tag_76:\n              0x80\n              mload(0x40)\n              swap1\n              dup2\n              add\n              0x40\n              mstore\n              dup1\n              0x60\n              dup2\n              mstore\n              0x20\n              add\n              0x60\n              dup2\n              mstore\n              0x20\n              add\n              0x60\n              dup2\n              mstore\n              0x20\n              add\n              0x60\n              dup2\n              mstore\n              pop\n              swap1\n              jump\t// out\n            tag_265:\n              dup3\n              dup1\n              sload\n              0x01\n              dup2\n              0x01\n              and\n              iszero\n              0x0100\n              mul\n              sub\n              and\n              0x02\n              swap1\n              div\n              swap1\n              0x00\n              mstore\n              keccak256(0x00, 0x20)\n              swap1\n              0x1f\n              add\n              0x20\n              swap1\n              div\n              dup2\n              add\n              swap3\n              dup3\n              0x1f\n              lt\n              tag_337\n              jumpi\n              dup1\n              mload\n              not(0xff)\n              and\n              dup4\n              dup1\n              add\n              or\n              dup6\n              sstore\n              jump(tag_336)\n            tag_337:\n              dup3\n              dup1\n              add\n              0x01\n              add\n              dup6\n              sstore\n              dup3\n              iszero\n              tag_336\n              jumpi\n              swap2\n              dup3\n              add\n            tag_338:\n              dup3\n              dup2\n              gt\n              iszero\n              tag_339\n              jumpi\n              dup3\n              mload\n              dup3\n              sstore\n              swap2\n              0x20\n              add\n              swap2\n              swap1\n              0x01\n              add\n              swap1\n              jump(tag_338)\n            tag_339:\n            tag_336:\n              pop\n              swap1\n              pop\n              tag_340\n              swap2\n              swap1\n              tag_341\n              jump\t// in\n            tag_340:\n              pop\n              swap1\n              jump\t// out\n            tag_283:\n              dup3\n              dup1\n              sload\n              0x01\n              dup2\n              0x01\n              and\n              iszero\n              0x0100\n              mul\n              sub\n              and\n              0x02\n              swap1\n              div\n              swap1\n              0x00\n              mstore\n              keccak256(0x00, 0x20)\n              swap1\n              0x1f\n              add\n              0x20\n              swap1\n              div\n              dup2\n              add\n              swap3\n              dup3\n              0x1f\n              lt\n              tag_343\n              jumpi\n              dup1\n              mload\n              not(0xff)\n              and\n              dup4\n              dup1\n              add\n              or\n              dup6\n              sstore\n              jump(tag_342)\n            tag_343:\n              dup3\n              dup1\n              add\n              0x01\n              add\n              dup6\n              sstore\n              dup3\n              iszero\n              tag_342\n              jumpi\n              swap2\n              dup3\n              add\n            tag_344:\n              dup3\n              dup2\n              gt\n              iszero\n              tag_345\n              jumpi\n              dup3\n              mload\n              dup3\n              sstore\n              swap2\n              0x20\n              add\n              swap2\n              swap1\n              0x01\n              add\n              swap1\n              jump(tag_344)\n            tag_345:\n            tag_342:\n              pop\n              swap1\n              pop\n              tag_346\n              swap2\n              swap1\n              tag_341\n              jump\t// in\n            tag_346:\n              pop\n              swap1\n              jump\t// out\n            tag_341:\n              tag_347\n              swap2\n              swap1\n            tag_348:\n              dup1\n              dup3\n              gt\n              iszero\n              tag_349\n              jumpi\n              0x00\n              dup2\n              0x00\n              swap1\n              sstore\n              pop\n              0x01\n              add\n              jump(tag_348)\n            tag_349:\n              pop\n              swap1\n              jump\n            tag_347:\n              swap1\n              jump\t// out\n                /* \"--CODEGEN--\":5:123   */\n            tag_351:\n              0x00\n                /* \"--CODEGEN--\":72:118   */\n              tag_352\n                /* \"--CODEGEN--\":110:116   */\n              dup3\n                /* \"--CODEGEN--\":97:117   */\n              calldataload\n                /* \"--CODEGEN--\":72:118   */\n              jump(tag_353)\n            tag_352:\n                /* \"--CODEGEN--\":63:118   */\n              swap1\n              pop\n                /* \"--CODEGEN--\":57:123   */\n              swap3\n              swap2\n              pop\n              pop\n              jump\n                /* \"--CODEGEN--\":130:252   */\n            tag_355:\n              0x00\n                /* \"--CODEGEN--\":208:247   */\n              tag_356\n                /* \"--CODEGEN--\":239:245   */\n              dup3\n                /* \"--CODEGEN--\":233:246   */\n              mload\n                /* \"--CODEGEN--\":208:247   */\n              jump(tag_353)\n            tag_356:\n                /* \"--CODEGEN--\":199:247   */\n              swap1\n              pop\n                /* \"--CODEGEN--\":193:252   */\n              swap3\n              swap2\n              pop\n              pop\n              jump\n                /* \"--CODEGEN--\":259:375   */\n            tag_358:\n              0x00\n                /* \"--CODEGEN--\":334:370   */\n              tag_359\n                /* \"--CODEGEN--\":362:368   */\n              dup3\n                /* \"--CODEGEN--\":356:369   */\n              mload\n                /* \"--CODEGEN--\":334:370   */\n              jump(tag_360)\n            tag_359:\n                /* \"--CODEGEN--\":325:370   */\n              swap1\n              pop\n                /* \"--CODEGEN--\":319:375   */\n              swap3\n              swap2\n              pop\n              pop\n              jump\n                /* \"--CODEGEN--\":383:825   */\n            tag_362:\n              0x00\n                /* \"--CODEGEN--\":485:488   */\n              dup3\n                /* \"--CODEGEN--\":478:482   */\n              0x1f\n                /* \"--CODEGEN--\":470:476   */\n              dup4\n                /* \"--CODEGEN--\":466:483   */\n              add\n                /* \"--CODEGEN--\":462:489   */\n              slt\n                /* \"--CODEGEN--\":455:490   */\n              iszero\n                /* \"--CODEGEN--\":452:454   */\n              iszero\n              tag_363\n              jumpi\n                /* \"--CODEGEN--\":503:504   */\n              0x00\n                /* \"--CODEGEN--\":500:501   */\n              dup1\n                /* \"--CODEGEN--\":493:505   */\n              revert\n                /* \"--CODEGEN--\":452:454   */\n            tag_363:\n                /* \"--CODEGEN--\":540:546   */\n              dup2\n                /* \"--CODEGEN--\":527:547   */\n              calldataload\n                /* \"--CODEGEN--\":562:627   */\n              tag_364\n                /* \"--CODEGEN--\":577:626   */\n              tag_365\n                /* \"--CODEGEN--\":619:625   */\n              dup3\n                /* \"--CODEGEN--\":577:626   */\n              jump(tag_366)\n            tag_365:\n                /* \"--CODEGEN--\":562:627   */\n              jump(tag_367)\n            tag_364:\n                /* \"--CODEGEN--\":553:627   */\n              swap2\n              pop\n                /* \"--CODEGEN--\":647:653   */\n              dup1\n                /* \"--CODEGEN--\":640:645   */\n              dup3\n                /* \"--CODEGEN--\":633:654   */\n              mstore\n                /* \"--CODEGEN--\":683:687   */\n              0x20\n                /* \"--CODEGEN--\":675:681   */\n              dup4\n                /* \"--CODEGEN--\":671:688   */\n              add\n                /* \"--CODEGEN--\":716:720   */\n              0x20\n                /* \"--CODEGEN--\":709:714   */\n              dup4\n                /* \"--CODEGEN--\":705:721   */\n              add\n                /* \"--CODEGEN--\":751:754   */\n              dup6\n                /* \"--CODEGEN--\":742:748   */\n              dup4\n                /* \"--CODEGEN--\":737:740   */\n              dup4\n                /* \"--CODEGEN--\":733:749   */\n              add\n                /* \"--CODEGEN--\":730:755   */\n              gt\n                /* \"--CODEGEN--\":727:729   */\n              iszero\n              tag_368\n              jumpi\n                /* \"--CODEGEN--\":768:769   */\n              0x00\n                /* \"--CODEGEN--\":765:766   */\n              dup1\n                /* \"--CODEGEN--\":758:770   */\n              revert\n                /* \"--CODEGEN--\":727:729   */\n            tag_368:\n                /* \"--CODEGEN--\":778:819   */\n              tag_369\n                /* \"--CODEGEN--\":812:818   */\n              dup4\n                /* \"--CODEGEN--\":807:810   */\n              dup3\n                /* \"--CODEGEN--\":802:805   */\n              dup5\n                /* \"--CODEGEN--\":778:819   */\n              jump(tag_370)\n            tag_369:\n                /* \"--CODEGEN--\":445:825   */\n              pop\n              pop\n              pop\n              swap3\n              swap2\n              pop\n              pop\n              jump\n                /* \"--CODEGEN--\":833:1074   */\n            tag_55:\n              0x00\n                /* \"--CODEGEN--\":937:939   */\n              0x20\n                /* \"--CODEGEN--\":925:934   */\n              dup3\n                /* \"--CODEGEN--\":916:923   */\n              dup5\n                /* \"--CODEGEN--\":912:935   */\n              sub\n                /* \"--CODEGEN--\":908:940   */\n              slt\n                /* \"--CODEGEN--\":905:907   */\n              iszero\n              tag_372\n              jumpi\n                /* \"--CODEGEN--\":953:954   */\n              0x00\n                /* \"--CODEGEN--\":950:951   */\n              dup1\n                /* \"--CODEGEN--\":943:955   */\n              revert\n                /* \"--CODEGEN--\":905:907   */\n            tag_372:\n                /* \"--CODEGEN--\":988:989   */\n              0x00\n                /* \"--CODEGEN--\":1005:1058   */\n              tag_373\n                /* \"--CODEGEN--\":1050:1057   */\n              dup5\n                /* \"--CODEGEN--\":1041:1047   */\n              dup3\n                /* \"--CODEGEN--\":1030:1039   */\n              dup6\n                /* \"--CODEGEN--\":1026:1048   */\n              add\n                /* \"--CODEGEN--\":1005:1058   */\n              jump(tag_351)\n            tag_373:\n                /* \"--CODEGEN--\":995:1058   */\n              swap2\n              pop\n                /* \"--CODEGEN--\":967:1064   */\n              pop\n                /* \"--CODEGEN--\":899:1074   */\n              swap3\n              swap2\n              pop\n              pop\n              jump\n                /* \"--CODEGEN--\":1081:1344   */\n            tag_321:\n              0x00\n                /* \"--CODEGEN--\":1196:1198   */\n              0x20\n                /* \"--CODEGEN--\":1184:1193   */\n              dup3\n                /* \"--CODEGEN--\":1175:1182   */\n              dup5\n                /* \"--CODEGEN--\":1171:1194   */\n              sub\n                /* \"--CODEGEN--\":1167:1199   */\n              slt\n                /* \"--CODEGEN--\":1164:1166   */\n              iszero\n              tag_375\n              jumpi\n                /* \"--CODEGEN--\":1212:1213   */\n              0x00\n                /* \"--CODEGEN--\":1209:1210   */\n              dup1\n                /* \"--CODEGEN--\":1202:1214   */\n              revert\n                /* \"--CODEGEN--\":1164:1166   */\n            tag_375:\n                /* \"--CODEGEN--\":1247:1248   */\n              0x00\n                /* \"--CODEGEN--\":1264:1328   */\n              tag_376\n                /* \"--CODEGEN--\":1320:1327   */\n              dup5\n                /* \"--CODEGEN--\":1311:1317   */\n              dup3\n                /* \"--CODEGEN--\":1300:1309   */\n              dup6\n                /* \"--CODEGEN--\":1296:1318   */\n              add\n                /* \"--CODEGEN--\":1264:1328   */\n              jump(tag_355)\n            tag_376:\n                /* \"--CODEGEN--\":1254:1328   */\n              swap2\n              pop\n                /* \"--CODEGEN--\":1226:1334   */\n              pop\n                /* \"--CODEGEN--\":1158:1344   */\n              swap3\n              swap2\n              pop\n              pop\n              jump\n                /* \"--CODEGEN--\":1351:2286   */\n            tag_17:\n              0x00\n              dup1\n              0x00\n              dup1\n                /* \"--CODEGEN--\":1536:1539   */\n              0x80\n                /* \"--CODEGEN--\":1524:1533   */\n              dup6\n                /* \"--CODEGEN--\":1515:1522   */\n              dup8\n                /* \"--CODEGEN--\":1511:1534   */\n              sub\n                /* \"--CODEGEN--\":1507:1540   */\n              slt\n                /* \"--CODEGEN--\":1504:1506   */\n              iszero\n              tag_378\n              jumpi\n                /* \"--CODEGEN--\":1553:1554   */\n              0x00\n                /* \"--CODEGEN--\":1550:1551   */\n              dup1\n                /* \"--CODEGEN--\":1543:1555   */\n              revert\n                /* \"--CODEGEN--\":1504:1506   */\n            tag_378:\n                /* \"--CODEGEN--\":1588:1589   */\n              0x00\n                /* \"--CODEGEN--\":1605:1658   */\n              tag_379\n                /* \"--CODEGEN--\":1650:1657   */\n              dup8\n                /* \"--CODEGEN--\":1641:1647   */\n              dup3\n                /* \"--CODEGEN--\":1630:1639   */\n              dup9\n                /* \"--CODEGEN--\":1626:1648   */\n              add\n                /* \"--CODEGEN--\":1605:1658   */\n              jump(tag_351)\n            tag_379:\n                /* \"--CODEGEN--\":1595:1658   */\n              swap5\n              pop\n                /* \"--CODEGEN--\":1567:1664   */\n              pop\n                /* \"--CODEGEN--\":1723:1725   */\n              0x20\n                /* \"--CODEGEN--\":1712:1721   */\n              dup6\n                /* \"--CODEGEN--\":1708:1726   */\n              add\n                /* \"--CODEGEN--\":1695:1727   */\n              calldataload\n                /* \"--CODEGEN--\":1747:1765   */\n              0xffffffffffffffff\n                /* \"--CODEGEN--\":1739:1745   */\n              dup2\n                /* \"--CODEGEN--\":1736:1766   */\n              gt\n                /* \"--CODEGEN--\":1733:1735   */\n              iszero\n              tag_380\n              jumpi\n                /* \"--CODEGEN--\":1779:1780   */\n              0x00\n                /* \"--CODEGEN--\":1776:1777   */\n              dup1\n                /* \"--CODEGEN--\":1769:1781   */\n              revert\n                /* \"--CODEGEN--\":1733:1735   */\n            tag_380:\n                /* \"--CODEGEN--\":1799:1862   */\n              tag_381\n                /* \"--CODEGEN--\":1854:1861   */\n              dup8\n                /* \"--CODEGEN--\":1845:1851   */\n              dup3\n                /* \"--CODEGEN--\":1834:1843   */\n              dup9\n                /* \"--CODEGEN--\":1830:1852   */\n              add\n                /* \"--CODEGEN--\":1799:1862   */\n              jump(tag_362)\n            tag_381:\n                /* \"--CODEGEN--\":1789:1862   */\n              swap4\n              pop\n                /* \"--CODEGEN--\":1674:1868   */\n              pop\n                /* \"--CODEGEN--\":1927:1929   */\n              0x40\n                /* \"--CODEGEN--\":1916:1925   */\n              dup6\n                /* \"--CODEGEN--\":1912:1930   */\n              add\n                /* \"--CODEGEN--\":1899:1931   */\n              calldataload\n                /* \"--CODEGEN--\":1951:1969   */\n              0xffffffffffffffff\n                /* \"--CODEGEN--\":1943:1949   */\n              dup2\n                /* \"--CODEGEN--\":1940:1970   */\n              gt\n                /* \"--CODEGEN--\":1937:1939   */\n              iszero\n              tag_382\n              jumpi\n                /* \"--CODEGEN--\":1983:1984   */\n              0x00\n                /* \"--CODEGEN--\":1980:1981   */\n              dup1\n                /* \"--CODEGEN--\":1973:1985   */\n              revert\n                /* \"--CODEGEN--\":1937:1939   */\n            tag_382:\n                /* \"--CODEGEN--\":2003:2066   */\n              tag_383\n                /* \"--CODEGEN--\":2058:2065   */\n              dup8\n                /* \"--CODEGEN--\":2049:2055   */\n              dup3\n                /* \"--CODEGEN--\":2038:2047   */\n              dup9\n                /* \"--CODEGEN--\":2034:2056   */\n              add\n                /* \"--CODEGEN--\":2003:2066   */\n              jump(tag_362)\n            tag_383:\n                /* \"--CODEGEN--\":1993:2066   */\n              swap3\n              pop\n                /* \"--CODEGEN--\":1878:2072   */\n              pop\n                /* \"--CODEGEN--\":2131:2133   */\n              0x60\n                /* \"--CODEGEN--\":2120:2129   */\n              dup6\n                /* \"--CODEGEN--\":2116:2134   */\n              add\n                /* \"--CODEGEN--\":2103:2135   */\n              calldataload\n                /* \"--CODEGEN--\":2155:2173   */\n              0xffffffffffffffff\n                /* \"--CODEGEN--\":2147:2153   */\n              dup2\n                /* \"--CODEGEN--\":2144:2174   */\n              gt\n                /* \"--CODEGEN--\":2141:2143   */\n              iszero\n              tag_384\n              jumpi\n                /* \"--CODEGEN--\":2187:2188   */\n              0x00\n                /* \"--CODEGEN--\":2184:2185   */\n              dup1\n                /* \"--CODEGEN--\":2177:2189   */\n              revert\n                /* \"--CODEGEN--\":2141:2143   */\n            tag_384:\n                /* \"--CODEGEN--\":2207:2270   */\n              tag_385\n                /* \"--CODEGEN--\":2262:2269   */\n              dup8\n                /* \"--CODEGEN--\":2253:2259   */\n              dup3\n                /* \"--CODEGEN--\":2242:2251   */\n              dup9\n                /* \"--CODEGEN--\":2238:2260   */\n              add\n                /* \"--CODEGEN--\":2207:2270   */\n              jump(tag_362)\n            tag_385:\n                /* \"--CODEGEN--\":2197:2270   */\n              swap2\n              pop\n                /* \"--CODEGEN--\":2082:2276   */\n              pop\n                /* \"--CODEGEN--\":1498:2286   */\n              swap3\n              swap6\n              swap2\n              swap5\n              pop\n              swap3\n              pop\n              jump\n                /* \"--CODEGEN--\":2293:2550   */\n            tag_327:\n              0x00\n                /* \"--CODEGEN--\":2405:2407   */\n              0x20\n                /* \"--CODEGEN--\":2393:2402   */\n              dup3\n                /* \"--CODEGEN--\":2384:2391   */\n              dup5\n                /* \"--CODEGEN--\":2380:2403   */\n              sub\n                /* \"--CODEGEN--\":2376:2408   */\n              slt\n                /* \"--CODEGEN--\":2373:2375   */\n              iszero\n              tag_387\n              jumpi\n                /* \"--CODEGEN--\":2421:2422   */\n              0x00\n                /* \"--CODEGEN--\":2418:2419   */\n              dup1\n                /* \"--CODEGEN--\":2411:2423   */\n              revert\n                /* \"--CODEGEN--\":2373:2375   */\n            tag_387:\n                /* \"--CODEGEN--\":2456:2457   */\n              0x00\n                /* \"--CODEGEN--\":2473:2534   */\n              tag_388\n                /* \"--CODEGEN--\":2526:2533   */\n              dup5\n                /* \"--CODEGEN--\":2517:2523   */\n              dup3\n                /* \"--CODEGEN--\":2506:2515   */\n              dup6\n                /* \"--CODEGEN--\":2502:2524   */\n              add\n                /* \"--CODEGEN--\":2473:2534   */\n              jump(tag_358)\n            tag_388:\n                /* \"--CODEGEN--\":2463:2534   */\n              swap2\n              pop\n                /* \"--CODEGEN--\":2435:2540   */\n              pop\n                /* \"--CODEGEN--\":2367:2550   */\n              swap3\n              swap2\n              pop\n              pop\n              jump\n                /* \"--CODEGEN--\":2557:2904   */\n            tag_21:\n              0x00\n                /* \"--CODEGEN--\":2671:2673   */\n              0x20\n                /* \"--CODEGEN--\":2659:2668   */\n              dup3\n                /* \"--CODEGEN--\":2650:2657   */\n              dup5\n                /* \"--CODEGEN--\":2646:2669   */\n              sub\n                /* \"--CODEGEN--\":2642:2674   */\n              slt\n                /* \"--CODEGEN--\":2639:2641   */\n              iszero\n              tag_390\n              jumpi\n                /* \"--CODEGEN--\":2687:2688   */\n              0x00\n                /* \"--CODEGEN--\":2684:2685   */\n              dup1\n                /* \"--CODEGEN--\":2677:2689   */\n              revert\n                /* \"--CODEGEN--\":2639:2641   */\n            tag_390:\n                /* \"--CODEGEN--\":2750:2751   */\n              0x00\n                /* \"--CODEGEN--\":2739:2748   */\n              dup3\n                /* \"--CODEGEN--\":2735:2752   */\n              add\n                /* \"--CODEGEN--\":2722:2753   */\n              calldataload\n                /* \"--CODEGEN--\":2773:2791   */\n              0xffffffffffffffff\n                /* \"--CODEGEN--\":2765:2771   */\n              dup2\n                /* \"--CODEGEN--\":2762:2792   */\n              gt\n                /* \"--CODEGEN--\":2759:2761   */\n              iszero\n              tag_391\n              jumpi\n                /* \"--CODEGEN--\":2805:2806   */\n              0x00\n                /* \"--CODEGEN--\":2802:2803   */\n              dup1\n                /* \"--CODEGEN--\":2795:2807   */\n              revert\n                /* \"--CODEGEN--\":2759:2761   */\n            tag_391:\n                /* \"--CODEGEN--\":2825:2888   */\n              tag_392\n                /* \"--CODEGEN--\":2880:2887   */\n              dup5\n                /* \"--CODEGEN--\":2871:2877   */\n              dup3\n                /* \"--CODEGEN--\":2860:2869   */\n              dup6\n                /* \"--CODEGEN--\":2856:2878   */\n              add\n                /* \"--CODEGEN--\":2825:2888   */\n              jump(tag_362)\n            tag_392:\n                /* \"--CODEGEN--\":2815:2888   */\n              swap2\n              pop\n                /* \"--CODEGEN--\":2701:2894   */\n              pop\n                /* \"--CODEGEN--\":2633:2904   */\n              swap3\n              swap2\n              pop\n              pop\n              jump\n                /* \"--CODEGEN--\":2911:3952   */\n            tag_51:\n              0x00\n              dup1\n              0x00\n              dup1\n                /* \"--CODEGEN--\":3106:3109   */\n              0x80\n                /* \"--CODEGEN--\":3094:3103   */\n              dup6\n                /* \"--CODEGEN--\":3085:3092   */\n              dup8\n                /* \"--CODEGEN--\":3081:3104   */\n              sub\n                /* \"--CODEGEN--\":3077:3110   */\n              slt\n                /* \"--CODEGEN--\":3074:3076   */\n              iszero\n              tag_394\n              jumpi\n                /* \"--CODEGEN--\":3123:3124   */\n              0x00\n                /* \"--CODEGEN--\":3120:3121   */\n              dup1\n                /* \"--CODEGEN--\":3113:3125   */\n              revert\n                /* \"--CODEGEN--\":3074:3076   */\n            tag_394:\n                /* \"--CODEGEN--\":3186:3187   */\n              0x00\n                /* \"--CODEGEN--\":3175:3184   */\n              dup6\n                /* \"--CODEGEN--\":3171:3188   */\n              add\n                /* \"--CODEGEN--\":3158:3189   */\n              calldataload\n                /* \"--CODEGEN--\":3209:3227   */\n              0xffffffffffffffff\n                /* \"--CODEGEN--\":3201:3207   */\n              dup2\n                /* \"--CODEGEN--\":3198:3228   */\n              gt\n                /* \"--CODEGEN--\":3195:3197   */\n              iszero\n              tag_395\n              jumpi\n                /* \"--CODEGEN--\":3241:3242   */\n              0x00\n                /* \"--CODEGEN--\":3238:3239   */\n              dup1\n                /* \"--CODEGEN--\":3231:3243   */\n              revert\n                /* \"--CODEGEN--\":3195:3197   */\n            tag_395:\n                /* \"--CODEGEN--\":3261:3324   */\n              tag_396\n                /* \"--CODEGEN--\":3316:3323   */\n              dup8\n                /* \"--CODEGEN--\":3307:3313   */\n              dup3\n                /* \"--CODEGEN--\":3296:3305   */\n              dup9\n                /* \"--CODEGEN--\":3292:3314   */\n              add\n                /* \"--CODEGEN--\":3261:3324   */\n              jump(tag_362)\n            tag_396:\n                /* \"--CODEGEN--\":3251:3324   */\n              swap5\n              pop\n                /* \"--CODEGEN--\":3137:3330   */\n              pop\n                /* \"--CODEGEN--\":3389:3391   */\n              0x20\n                /* \"--CODEGEN--\":3378:3387   */\n              dup6\n                /* \"--CODEGEN--\":3374:3392   */\n              add\n                /* \"--CODEGEN--\":3361:3393   */\n              calldataload\n                /* \"--CODEGEN--\":3413:3431   */\n              0xffffffffffffffff\n                /* \"--CODEGEN--\":3405:3411   */\n              dup2\n                /* \"--CODEGEN--\":3402:3432   */\n              gt\n                /* \"--CODEGEN--\":3399:3401   */\n              iszero\n              tag_397\n              jumpi\n                /* \"--CODEGEN--\":3445:3446   */\n              0x00\n                /* \"--CODEGEN--\":3442:3443   */\n              dup1\n                /* \"--CODEGEN--\":3435:3447   */\n              revert\n                /* \"--CODEGEN--\":3399:3401   */\n            tag_397:\n                /* \"--CODEGEN--\":3465:3528   */\n              tag_398\n                /* \"--CODEGEN--\":3520:3527   */\n              dup8\n                /* \"--CODEGEN--\":3511:3517   */\n              dup3\n                /* \"--CODEGEN--\":3500:3509   */\n              dup9\n                /* \"--CODEGEN--\":3496:3518   */\n              add\n                /* \"--CODEGEN--\":3465:3528   */\n              jump(tag_362)\n            tag_398:\n                /* \"--CODEGEN--\":3455:3528   */\n              swap4\n              pop\n                /* \"--CODEGEN--\":3340:3534   */\n              pop\n                /* \"--CODEGEN--\":3593:3595   */\n              0x40\n                /* \"--CODEGEN--\":3582:3591   */\n              dup6\n                /* \"--CODEGEN--\":3578:3596   */\n              add\n                /* \"--CODEGEN--\":3565:3597   */\n              calldataload\n                /* \"--CODEGEN--\":3617:3635   */\n              0xffffffffffffffff\n                /* \"--CODEGEN--\":3609:3615   */\n              dup2\n                /* \"--CODEGEN--\":3606:3636   */\n              gt\n                /* \"--CODEGEN--\":3603:3605   */\n              iszero\n              tag_399\n              jumpi\n                /* \"--CODEGEN--\":3649:3650   */\n              0x00\n                /* \"--CODEGEN--\":3646:3647   */\n              dup1\n                /* \"--CODEGEN--\":3639:3651   */\n              revert\n                /* \"--CODEGEN--\":3603:3605   */\n            tag_399:\n                /* \"--CODEGEN--\":3669:3732   */\n              tag_400\n                /* \"--CODEGEN--\":3724:3731   */\n              dup8\n                /* \"--CODEGEN--\":3715:3721   */\n              dup3\n                /* \"--CODEGEN--\":3704:3713   */\n              dup9\n                /* \"--CODEGEN--\":3700:3722   */\n              add\n                /* \"--CODEGEN--\":3669:3732   */\n              jump(tag_362)\n            tag_400:\n                /* \"--CODEGEN--\":3659:3732   */\n              swap3\n              pop\n                /* \"--CODEGEN--\":3544:3738   */\n              pop\n                /* \"--CODEGEN--\":3797:3799   */\n              0x60\n                /* \"--CODEGEN--\":3786:3795   */\n              dup6\n                /* \"--CODEGEN--\":3782:3800   */\n              add\n                /* \"--CODEGEN--\":3769:3801   */\n              calldataload\n                /* \"--CODEGEN--\":3821:3839   */\n              0xffffffffffffffff\n                /* \"--CODEGEN--\":3813:3819   */\n              dup2\n                /* \"--CODEGEN--\":3810:3840   */\n              gt\n                /* \"--CODEGEN--\":3807:3809   */\n              iszero\n              tag_401\n              jumpi\n                /* \"--CODEGEN--\":3853:3854   */\n              0x00\n                /* \"--CODEGEN--\":3850:3851   */\n              dup1\n                /* \"--CODEGEN--\":3843:3855   */\n              revert\n                /* \"--CODEGEN--\":3807:3809   */\n            tag_401:\n                /* \"--CODEGEN--\":3873:3936   */\n              tag_402\n                /* \"--CODEGEN--\":3928:3935   */\n              dup8\n                /* \"--CODEGEN--\":3919:3925   */\n              dup3\n                /* \"--CODEGEN--\":3908:3917   */\n              dup9\n                /* \"--CODEGEN--\":3904:3926   */\n              add\n                /* \"--CODEGEN--\":3873:3936   */\n              jump(tag_362)\n            tag_402:\n                /* \"--CODEGEN--\":3863:3936   */\n              swap2\n              pop\n                /* \"--CODEGEN--\":3748:3942   */\n              pop\n                /* \"--CODEGEN--\":3068:3952   */\n              swap3\n              swap6\n              swap2\n              swap5\n              pop\n              swap3\n              pop\n              jump\n                /* \"--CODEGEN--\":3959:5232   */\n            tag_42:\n              0x00\n              dup1\n              0x00\n              dup1\n              0x00\n                /* \"--CODEGEN--\":4181:4184   */\n              0xa0\n                /* \"--CODEGEN--\":4169:4178   */\n              dup7\n                /* \"--CODEGEN--\":4160:4167   */\n              dup9\n                /* \"--CODEGEN--\":4156:4179   */\n              sub\n                /* \"--CODEGEN--\":4152:4185   */\n              slt\n                /* \"--CODEGEN--\":4149:4151   */\n              iszero\n              tag_404\n              jumpi\n                /* \"--CODEGEN--\":4198:4199   */\n              0x00\n                /* \"--CODEGEN--\":4195:4196   */\n              dup1\n                /* \"--CODEGEN--\":4188:4200   */\n              revert\n                /* \"--CODEGEN--\":4149:4151   */\n            tag_404:\n                /* \"--CODEGEN--\":4261:4262   */\n              0x00\n                /* \"--CODEGEN--\":4250:4259   */\n              dup7\n                /* \"--CODEGEN--\":4246:4263   */\n              add\n                /* \"--CODEGEN--\":4233:4264   */\n              calldataload\n                /* \"--CODEGEN--\":4284:4302   */\n              0xffffffffffffffff\n                /* \"--CODEGEN--\":4276:4282   */\n              dup2\n                /* \"--CODEGEN--\":4273:4303   */\n              gt\n                /* \"--CODEGEN--\":4270:4272   */\n              iszero\n              tag_405\n              jumpi\n                /* \"--CODEGEN--\":4316:4317   */\n              0x00\n                /* \"--CODEGEN--\":4313:4314   */\n              dup1\n                /* \"--CODEGEN--\":4306:4318   */\n              revert\n                /* \"--CODEGEN--\":4270:4272   */\n            tag_405:\n                /* \"--CODEGEN--\":4336:4399   */\n              tag_406\n                /* \"--CODEGEN--\":4391:4398   */\n              dup9\n                /* \"--CODEGEN--\":4382:4388   */\n              dup3\n                /* \"--CODEGEN--\":4371:4380   */\n              dup10\n                /* \"--CODEGEN--\":4367:4389   */\n              add\n                /* \"--CODEGEN--\":4336:4399   */\n              jump(tag_362)\n            tag_406:\n                /* \"--CODEGEN--\":4326:4399   */\n              swap6\n              pop\n                /* \"--CODEGEN--\":4212:4405   */\n              pop\n                /* \"--CODEGEN--\":4464:4466   */\n              0x20\n                /* \"--CODEGEN--\":4453:4462   */\n              dup7\n                /* \"--CODEGEN--\":4449:4467   */\n              add\n                /* \"--CODEGEN--\":4436:4468   */\n              calldataload\n                /* \"--CODEGEN--\":4488:4506   */\n              0xffffffffffffffff\n                /* \"--CODEGEN--\":4480:4486   */\n              dup2\n                /* \"--CODEGEN--\":4477:4507   */\n              gt\n                /* \"--CODEGEN--\":4474:4476   */\n              iszero\n              tag_407\n              jumpi\n                /* \"--CODEGEN--\":4520:4521   */\n              0x00\n                /* \"--CODEGEN--\":4517:4518   */\n              dup1\n                /* \"--CODEGEN--\":4510:4522   */\n              revert\n                /* \"--CODEGEN--\":4474:4476   */\n            tag_407:\n                /* \"--CODEGEN--\":4540:4603   */\n              tag_408\n                /* \"--CODEGEN--\":4595:4602   */\n              dup9\n                /* \"--CODEGEN--\":4586:4592   */\n              dup3\n                /* \"--CODEGEN--\":4575:4584   */\n              dup10\n                /* \"--CODEGEN--\":4571:4593   */\n              add\n                /* \"--CODEGEN--\":4540:4603   */\n              jump(tag_362)\n            tag_408:\n                /* \"--CODEGEN--\":4530:4603   */\n              swap5\n              pop\n                /* \"--CODEGEN--\":4415:4609   */\n              pop\n                /* \"--CODEGEN--\":4668:4670   */\n              0x40\n                /* \"--CODEGEN--\":4657:4666   */\n              dup7\n                /* \"--CODEGEN--\":4653:4671   */\n              add\n                /* \"--CODEGEN--\":4640:4672   */\n              calldataload\n                /* \"--CODEGEN--\":4692:4710   */\n              0xffffffffffffffff\n                /* \"--CODEGEN--\":4684:4690   */\n              dup2\n                /* \"--CODEGEN--\":4681:4711   */\n              gt\n                /* \"--CODEGEN--\":4678:4680   */\n              iszero\n              tag_409\n              jumpi\n                /* \"--CODEGEN--\":4724:4725   */\n              0x00\n                /* \"--CODEGEN--\":4721:4722   */\n              dup1\n                /* \"--CODEGEN--\":4714:4726   */\n              revert\n                /* \"--CODEGEN--\":4678:4680   */\n            tag_409:\n                /* \"--CODEGEN--\":4744:4807   */\n              tag_410\n                /* \"--CODEGEN--\":4799:4806   */\n              dup9\n                /* \"--CODEGEN--\":4790:4796   */\n              dup3\n                /* \"--CODEGEN--\":4779:4788   */\n              dup10\n                /* \"--CODEGEN--\":4775:4797   */\n              add\n                /* \"--CODEGEN--\":4744:4807   */\n              jump(tag_362)\n            tag_410:\n                /* \"--CODEGEN--\":4734:4807   */\n              swap4\n              pop\n                /* \"--CODEGEN--\":4619:4813   */\n              pop\n                /* \"--CODEGEN--\":4872:4874   */\n              0x60\n                /* \"--CODEGEN--\":4861:4870   */\n              dup7\n                /* \"--CODEGEN--\":4857:4875   */\n              add\n                /* \"--CODEGEN--\":4844:4876   */\n              calldataload\n                /* \"--CODEGEN--\":4896:4914   */\n              0xffffffffffffffff\n                /* \"--CODEGEN--\":4888:4894   */\n              dup2\n                /* \"--CODEGEN--\":4885:4915   */\n              gt\n                /* \"--CODEGEN--\":4882:4884   */\n              iszero\n              tag_411\n              jumpi\n                /* \"--CODEGEN--\":4928:4929   */\n              0x00\n                /* \"--CODEGEN--\":4925:4926   */\n              dup1\n                /* \"--CODEGEN--\":4918:4930   */\n              revert\n                /* \"--CODEGEN--\":4882:4884   */\n            tag_411:\n                /* \"--CODEGEN--\":4948:5011   */\n              tag_412\n                /* \"--CODEGEN--\":5003:5010   */\n              dup9\n                /* \"--CODEGEN--\":4994:5000   */\n              dup3\n                /* \"--CODEGEN--\":4983:4992   */\n              dup10\n                /* \"--CODEGEN--\":4979:5001   */\n              add\n                /* \"--CODEGEN--\":4948:5011   */\n              jump(tag_362)\n            tag_412:\n                /* \"--CODEGEN--\":4938:5011   */\n              swap3\n              pop\n                /* \"--CODEGEN--\":4823:5017   */\n              pop\n                /* \"--CODEGEN--\":5076:5079   */\n              0x80\n                /* \"--CODEGEN--\":5065:5074   */\n              dup7\n                /* \"--CODEGEN--\":5061:5080   */\n              add\n                /* \"--CODEGEN--\":5048:5081   */\n              calldataload\n                /* \"--CODEGEN--\":5101:5119   */\n              0xffffffffffffffff\n                /* \"--CODEGEN--\":5093:5099   */\n              dup2\n                /* \"--CODEGEN--\":5090:5120   */\n              gt\n                /* \"--CODEGEN--\":5087:5089   */\n              iszero\n              tag_413\n              jumpi\n                /* \"--CODEGEN--\":5133:5134   */\n              0x00\n                /* \"--CODEGEN--\":5130:5131   */\n              dup1\n                /* \"--CODEGEN--\":5123:5135   */\n              revert\n                /* \"--CODEGEN--\":5087:5089   */\n            tag_413:\n                /* \"--CODEGEN--\":5153:5216   */\n              tag_414\n                /* \"--CODEGEN--\":5208:5215   */\n              dup9\n                /* \"--CODEGEN--\":5199:5205   */\n              dup3\n                /* \"--CODEGEN--\":5188:5197   */\n              dup10\n                /* \"--CODEGEN--\":5184:5206   */\n              add\n                /* \"--CODEGEN--\":5153:5216   */\n              jump(tag_362)\n            tag_414:\n                /* \"--CODEGEN--\":5143:5216   */\n              swap2\n              pop\n                /* \"--CODEGEN--\":5027:5222   */\n              pop\n                /* \"--CODEGEN--\":4143:5232   */\n              swap3\n              swap6\n              pop\n              swap3\n              swap6\n              swap1\n              swap4\n              pop\n              jump\n                /* \"--CODEGEN--\":5239:7672   */\n            tag_38:\n              0x00\n              dup1\n              0x00\n              dup1\n              0x00\n              dup1\n              0x00\n              dup1\n              0x00\n              dup1\n                /* \"--CODEGEN--\":5596:5599   */\n              0x0140\n                /* \"--CODEGEN--\":5584:5593   */\n              dup12\n                /* \"--CODEGEN--\":5575:5582   */\n              dup14\n                /* \"--CODEGEN--\":5571:5594   */\n              sub\n                /* \"--CODEGEN--\":5567:5600   */\n              slt\n                /* \"--CODEGEN--\":5564:5566   */\n              iszero\n              tag_416\n              jumpi\n                /* \"--CODEGEN--\":5613:5614   */\n              0x00\n                /* \"--CODEGEN--\":5610:5611   */\n              dup1\n                /* \"--CODEGEN--\":5603:5615   */\n              revert\n                /* \"--CODEGEN--\":5564:5566   */\n            tag_416:\n                /* \"--CODEGEN--\":5676:5677   */\n              0x00\n                /* \"--CODEGEN--\":5665:5674   */\n              dup12\n                /* \"--CODEGEN--\":5661:5678   */\n              add\n                /* \"--CODEGEN--\":5648:5679   */\n              calldataload\n                /* \"--CODEGEN--\":5699:5717   */\n              0xffffffffffffffff\n                /* \"--CODEGEN--\":5691:5697   */\n              dup2\n                /* \"--CODEGEN--\":5688:5718   */\n              gt\n                /* \"--CODEGEN--\":5685:5687   */\n              iszero\n              tag_417\n              jumpi\n                /* \"--CODEGEN--\":5731:5732   */\n              0x00\n                /* \"--CODEGEN--\":5728:5729   */\n              dup1\n                /* \"--CODEGEN--\":5721:5733   */\n              revert\n                /* \"--CODEGEN--\":5685:5687   */\n            tag_417:\n                /* \"--CODEGEN--\":5751:5814   */\n              tag_418\n                /* \"--CODEGEN--\":5806:5813   */\n              dup14\n                /* \"--CODEGEN--\":5797:5803   */\n              dup3\n                /* \"--CODEGEN--\":5786:5795   */\n              dup15\n                /* \"--CODEGEN--\":5782:5804   */\n              add\n                /* \"--CODEGEN--\":5751:5814   */\n              jump(tag_362)\n            tag_418:\n                /* \"--CODEGEN--\":5741:5814   */\n              swap11\n              pop\n                /* \"--CODEGEN--\":5627:5820   */\n              pop\n                /* \"--CODEGEN--\":5879:5881   */\n              0x20\n                /* \"--CODEGEN--\":5868:5877   */\n              dup12\n                /* \"--CODEGEN--\":5864:5882   */\n              add\n                /* \"--CODEGEN--\":5851:5883   */\n              calldataload\n                /* \"--CODEGEN--\":5903:5921   */\n              0xffffffffffffffff\n                /* \"--CODEGEN--\":5895:5901   */\n              dup2\n                /* \"--CODEGEN--\":5892:5922   */\n              gt\n                /* \"--CODEGEN--\":5889:5891   */\n              iszero\n              tag_419\n              jumpi\n                /* \"--CODEGEN--\":5935:5936   */\n              0x00\n                /* \"--CODEGEN--\":5932:5933   */\n              dup1\n                /* \"--CODEGEN--\":5925:5937   */\n              revert\n                /* \"--CODEGEN--\":5889:5891   */\n            tag_419:\n                /* \"--CODEGEN--\":5955:6018   */\n              tag_420\n                /* \"--CODEGEN--\":6010:6017   */\n              dup14\n                /* \"--CODEGEN--\":6001:6007   */\n              dup3\n                /* \"--CODEGEN--\":5990:5999   */\n              dup15\n                /* \"--CODEGEN--\":5986:6008   */\n              add\n                /* \"--CODEGEN--\":5955:6018   */\n              jump(tag_362)\n            tag_420:\n                /* \"--CODEGEN--\":5945:6018   */\n              swap10\n              pop\n                /* \"--CODEGEN--\":5830:6024   */\n              pop\n                /* \"--CODEGEN--\":6083:6085   */\n              0x40\n                /* \"--CODEGEN--\":6072:6081   */\n              dup12\n                /* \"--CODEGEN--\":6068:6086   */\n              add\n                /* \"--CODEGEN--\":6055:6087   */\n              calldataload\n                /* \"--CODEGEN--\":6107:6125   */\n              0xffffffffffffffff\n                /* \"--CODEGEN--\":6099:6105   */\n              dup2\n                /* \"--CODEGEN--\":6096:6126   */\n              gt\n                /* \"--CODEGEN--\":6093:6095   */\n              iszero\n              tag_421\n              jumpi\n                /* \"--CODEGEN--\":6139:6140   */\n              0x00\n                /* \"--CODEGEN--\":6136:6137   */\n              dup1\n                /* \"--CODEGEN--\":6129:6141   */\n              revert\n                /* \"--CODEGEN--\":6093:6095   */\n            tag_421:\n                /* \"--CODEGEN--\":6159:6222   */\n              tag_422\n                /* \"--CODEGEN--\":6214:6221   */\n              dup14\n                /* \"--CODEGEN--\":6205:6211   */\n              dup3\n                /* \"--CODEGEN--\":6194:6203   */\n              dup15\n                /* \"--CODEGEN--\":6190:6212   */\n              add\n                /* \"--CODEGEN--\":6159:6222   */\n              jump(tag_362)\n            tag_422:\n                /* \"--CODEGEN--\":6149:6222   */\n              swap9\n              pop\n                /* \"--CODEGEN--\":6034:6228   */\n              pop\n                /* \"--CODEGEN--\":6287:6289   */\n              0x60\n                /* \"--CODEGEN--\":6276:6285   */\n              dup12\n                /* \"--CODEGEN--\":6272:6290   */\n              add\n                /* \"--CODEGEN--\":6259:6291   */\n              calldataload\n                /* \"--CODEGEN--\":6311:6329   */\n              0xffffffffffffffff\n                /* \"--CODEGEN--\":6303:6309   */\n              dup2\n                /* \"--CODEGEN--\":6300:6330   */\n              gt\n                /* \"--CODEGEN--\":6297:6299   */\n              iszero\n              tag_423\n              jumpi\n                /* \"--CODEGEN--\":6343:6344   */\n              0x00\n                /* \"--CODEGEN--\":6340:6341   */\n              dup1\n                /* \"--CODEGEN--\":6333:6345   */\n              revert\n                /* \"--CODEGEN--\":6297:6299   */\n            tag_423:\n                /* \"--CODEGEN--\":6363:6426   */\n              tag_424\n                /* \"--CODEGEN--\":6418:6425   */\n              dup14\n                /* \"--CODEGEN--\":6409:6415   */\n              dup3\n                /* \"--CODEGEN--\":6398:6407   */\n              dup15\n                /* \"--CODEGEN--\":6394:6416   */\n              add\n                /* \"--CODEGEN--\":6363:6426   */\n              jump(tag_362)\n            tag_424:\n                /* \"--CODEGEN--\":6353:6426   */\n              swap8\n              pop\n                /* \"--CODEGEN--\":6238:6432   */\n              pop\n                /* \"--CODEGEN--\":6491:6494   */\n              0x80\n                /* \"--CODEGEN--\":6480:6489   */\n              dup12\n                /* \"--CODEGEN--\":6476:6495   */\n              add\n                /* \"--CODEGEN--\":6463:6496   */\n              calldataload\n                /* \"--CODEGEN--\":6516:6534   */\n              0xffffffffffffffff\n                /* \"--CODEGEN--\":6508:6514   */\n              dup2\n                /* \"--CODEGEN--\":6505:6535   */\n              gt\n                /* \"--CODEGEN--\":6502:6504   */\n              iszero\n              tag_425\n              jumpi\n                /* \"--CODEGEN--\":6548:6549   */\n              0x00\n                /* \"--CODEGEN--\":6545:6546   */\n              dup1\n                /* \"--CODEGEN--\":6538:6550   */\n              revert\n                /* \"--CODEGEN--\":6502:6504   */\n            tag_425:\n                /* \"--CODEGEN--\":6568:6631   */\n              tag_426\n                /* \"--CODEGEN--\":6623:6630   */\n              dup14\n                /* \"--CODEGEN--\":6614:6620   */\n              dup3\n                /* \"--CODEGEN--\":6603:6612   */\n              dup15\n                /* \"--CODEGEN--\":6599:6621   */\n              add\n                /* \"--CODEGEN--\":6568:6631   */\n              jump(tag_362)\n            tag_426:\n                /* \"--CODEGEN--\":6558:6631   */\n              swap7\n              pop\n                /* \"--CODEGEN--\":6442:6637   */\n              pop\n                /* \"--CODEGEN--\":6696:6699   */\n              0xa0\n                /* \"--CODEGEN--\":6685:6694   */\n              dup12\n                /* \"--CODEGEN--\":6681:6700   */\n              add\n                /* \"--CODEGEN--\":6668:6701   */\n              calldataload\n                /* \"--CODEGEN--\":6721:6739   */\n              0xffffffffffffffff\n                /* \"--CODEGEN--\":6713:6719   */\n              dup2\n                /* \"--CODEGEN--\":6710:6740   */\n              gt\n                /* \"--CODEGEN--\":6707:6709   */\n              iszero\n              tag_427\n              jumpi\n                /* \"--CODEGEN--\":6753:6754   */\n              0x00\n                /* \"--CODEGEN--\":6750:6751   */\n              dup1\n                /* \"--CODEGEN--\":6743:6755   */\n              revert\n                /* \"--CODEGEN--\":6707:6709   */\n            tag_427:\n                /* \"--CODEGEN--\":6773:6836   */\n              tag_428\n                /* \"--CODEGEN--\":6828:6835   */\n              dup14\n                /* \"--CODEGEN--\":6819:6825   */\n              dup3\n                /* \"--CODEGEN--\":6808:6817   */\n              dup15\n                /* \"--CODEGEN--\":6804:6826   */\n              add\n                /* \"--CODEGEN--\":6773:6836   */\n              jump(tag_362)\n            tag_428:\n                /* \"--CODEGEN--\":6763:6836   */\n              swap6\n              pop\n                /* \"--CODEGEN--\":6647:6842   */\n              pop\n                /* \"--CODEGEN--\":6901:6904   */\n              0xc0\n                /* \"--CODEGEN--\":6890:6899   */\n              dup12\n                /* \"--CODEGEN--\":6886:6905   */\n              add\n                /* \"--CODEGEN--\":6873:6906   */\n              calldataload\n                /* \"--CODEGEN--\":6926:6944   */\n              0xffffffffffffffff\n                /* \"--CODEGEN--\":6918:6924   */\n              dup2\n                /* \"--CODEGEN--\":6915:6945   */\n              gt\n                /* \"--CODEGEN--\":6912:6914   */\n              iszero\n              tag_429\n              jumpi\n                /* \"--CODEGEN--\":6958:6959   */\n              0x00\n                /* \"--CODEGEN--\":6955:6956   */\n              dup1\n                /* \"--CODEGEN--\":6948:6960   */\n              revert\n                /* \"--CODEGEN--\":6912:6914   */\n            tag_429:\n                /* \"--CODEGEN--\":6978:7041   */\n              tag_430\n                /* \"--CODEGEN--\":7033:7040   */\n              dup14\n                /* \"--CODEGEN--\":7024:7030   */\n              dup3\n                /* \"--CODEGEN--\":7013:7022   */\n              dup15\n                /* \"--CODEGEN--\":7009:7031   */\n              add\n                /* \"--CODEGEN--\":6978:7041   */\n              jump(tag_362)\n            tag_430:\n                /* \"--CODEGEN--\":6968:7041   */\n              swap5\n              pop\n                /* \"--CODEGEN--\":6852:7047   */\n              pop\n                /* \"--CODEGEN--\":7106:7109   */\n              0xe0\n                /* \"--CODEGEN--\":7095:7104   */\n              dup12\n                /* \"--CODEGEN--\":7091:7110   */\n              add\n                /* \"--CODEGEN--\":7078:7111   */\n              calldataload\n                /* \"--CODEGEN--\":7131:7149   */\n              0xffffffffffffffff\n                /* \"--CODEGEN--\":7123:7129   */\n              dup2\n                /* \"--CODEGEN--\":7120:7150   */\n              gt\n                /* \"--CODEGEN--\":7117:7119   */\n              iszero\n              tag_431\n              jumpi\n                /* \"--CODEGEN--\":7163:7164   */\n              0x00\n                /* \"--CODEGEN--\":7160:7161   */\n              dup1\n                /* \"--CODEGEN--\":7153:7165   */\n              revert\n                /* \"--CODEGEN--\":7117:7119   */\n            tag_431:\n                /* \"--CODEGEN--\":7183:7246   */\n              tag_432\n                /* \"--CODEGEN--\":7238:7245   */\n              dup14\n                /* \"--CODEGEN--\":7229:7235   */\n              dup3\n                /* \"--CODEGEN--\":7218:7227   */\n              dup15\n                /* \"--CODEGEN--\":7214:7236   */\n              add\n                /* \"--CODEGEN--\":7183:7246   */\n              jump(tag_362)\n            tag_432:\n                /* \"--CODEGEN--\":7173:7246   */\n              swap4\n              pop\n                /* \"--CODEGEN--\":7057:7252   */\n              pop\n                /* \"--CODEGEN--\":7311:7314   */\n              0x0100\n                /* \"--CODEGEN--\":7300:7309   */\n              dup12\n                /* \"--CODEGEN--\":7296:7315   */\n              add\n                /* \"--CODEGEN--\":7283:7316   */\n              calldataload\n                /* \"--CODEGEN--\":7336:7354   */\n              0xffffffffffffffff\n                /* \"--CODEGEN--\":7328:7334   */\n              dup2\n                /* \"--CODEGEN--\":7325:7355   */\n              gt\n                /* \"--CODEGEN--\":7322:7324   */\n              iszero\n              tag_433\n              jumpi\n                /* \"--CODEGEN--\":7368:7369   */\n              0x00\n                /* \"--CODEGEN--\":7365:7366   */\n              dup1\n                /* \"--CODEGEN--\":7358:7370   */\n              revert\n                /* \"--CODEGEN--\":7322:7324   */\n            tag_433:\n                /* \"--CODEGEN--\":7388:7451   */\n              tag_434\n                /* \"--CODEGEN--\":7443:7450   */\n              dup14\n                /* \"--CODEGEN--\":7434:7440   */\n              dup3\n                /* \"--CODEGEN--\":7423:7432   */\n              dup15\n                /* \"--CODEGEN--\":7419:7441   */\n              add\n                /* \"--CODEGEN--\":7388:7451   */\n              jump(tag_362)\n            tag_434:\n                /* \"--CODEGEN--\":7378:7451   */\n              swap3\n              pop\n                /* \"--CODEGEN--\":7262:7457   */\n              pop\n                /* \"--CODEGEN--\":7516:7519   */\n              0x0120\n                /* \"--CODEGEN--\":7505:7514   */\n              dup12\n                /* \"--CODEGEN--\":7501:7520   */\n              add\n                /* \"--CODEGEN--\":7488:7521   */\n              calldataload\n                /* \"--CODEGEN--\":7541:7559   */\n              0xffffffffffffffff\n                /* \"--CODEGEN--\":7533:7539   */\n              dup2\n                /* \"--CODEGEN--\":7530:7560   */\n              gt\n                /* \"--CODEGEN--\":7527:7529   */\n              iszero\n              tag_435\n              jumpi\n                /* \"--CODEGEN--\":7573:7574   */\n              0x00\n                /* \"--CODEGEN--\":7570:7571   */\n              dup1\n                /* \"--CODEGEN--\":7563:7575   */\n              revert\n                /* \"--CODEGEN--\":7527:7529   */\n            tag_435:\n                /* \"--CODEGEN--\":7593:7656   */\n              tag_436\n                /* \"--CODEGEN--\":7648:7655   */\n              dup14\n                /* \"--CODEGEN--\":7639:7645   */\n              dup3\n                /* \"--CODEGEN--\":7628:7637   */\n              dup15\n                /* \"--CODEGEN--\":7624:7646   */\n              add\n                /* \"--CODEGEN--\":7593:7656   */\n              jump(tag_362)\n            tag_436:\n                /* \"--CODEGEN--\":7583:7656   */\n              swap2\n              pop\n                /* \"--CODEGEN--\":7467:7662   */\n              pop\n                /* \"--CODEGEN--\":5558:7672   */\n              swap3\n              swap6\n              swap9\n              swap12\n              swap2\n              swap5\n              swap8\n              swap11\n              pop\n              swap3\n              swap6\n              swap9\n              pop\n              jump\n                /* \"--CODEGEN--\":7679:7789   */\n            tag_438:\n                /* \"--CODEGEN--\":7752:7783   */\n              tag_439\n                /* \"--CODEGEN--\":7777:7782   */\n              dup2\n                /* \"--CODEGEN--\":7752:7783   */\n              jump(tag_440)\n            tag_439:\n                /* \"--CODEGEN--\":7747:7750   */\n              dup3\n                /* \"--CODEGEN--\":7740:7784   */\n              mstore\n                /* \"--CODEGEN--\":7734:7789   */\n              pop\n              pop\n              jump\n                /* \"--CODEGEN--\":7825:8582   */\n            tag_442:\n              0x00\n                /* \"--CODEGEN--\":7968:8024   */\n              tag_443\n                /* \"--CODEGEN--\":8018:8023   */\n              dup3\n                /* \"--CODEGEN--\":7968:8024   */\n              jump(tag_444)\n            tag_443:\n                /* \"--CODEGEN--\":8042:8048   */\n              dup1\n                /* \"--CODEGEN--\":8037:8040   */\n              dup5\n                /* \"--CODEGEN--\":8030:8049   */\n              mstore\n                /* \"--CODEGEN--\":8066:8070   */\n              0x20\n                /* \"--CODEGEN--\":8061:8064   */\n              dup5\n                /* \"--CODEGEN--\":8057:8071   */\n              add\n                /* \"--CODEGEN--\":8050:8071   */\n              swap4\n              pop\n                /* \"--CODEGEN--\":8114:8117   */\n              dup4\n                /* \"--CODEGEN--\":8156:8160   */\n              0x20\n                /* \"--CODEGEN--\":8148:8154   */\n              dup3\n                /* \"--CODEGEN--\":8144:8161   */\n              mul\n                /* \"--CODEGEN--\":8139:8142   */\n              dup6\n                /* \"--CODEGEN--\":8135:8162   */\n              add\n                /* \"--CODEGEN--\":8182:8240   */\n              tag_445\n                /* \"--CODEGEN--\":8234:8239   */\n              dup6\n                /* \"--CODEGEN--\":8182:8240   */\n              jump(tag_446)\n            tag_445:\n                /* \"--CODEGEN--\":8261:8262   */\n              0x00\n                /* \"--CODEGEN--\":8246:8543   */\n            tag_447:\n                /* \"--CODEGEN--\":8271:8277   */\n              dup5\n                /* \"--CODEGEN--\":8268:8269   */\n              dup2\n                /* \"--CODEGEN--\":8265:8278   */\n              lt\n                /* \"--CODEGEN--\":8246:8543   */\n              iszero\n              tag_448\n              jumpi\n                /* \"--CODEGEN--\":8333:8342   */\n              dup4\n                /* \"--CODEGEN--\":8327:8331   */\n              dup4\n                /* \"--CODEGEN--\":8323:8343   */\n              sub\n                /* \"--CODEGEN--\":8318:8321   */\n              dup9\n                /* \"--CODEGEN--\":8311:8344   */\n              mstore\n                /* \"--CODEGEN--\":8359:8429   */\n              tag_450\n                /* \"--CODEGEN--\":8424:8428   */\n              dup4\n                /* \"--CODEGEN--\":8415:8421   */\n              dup4\n                /* \"--CODEGEN--\":8409:8422   */\n              mload\n                /* \"--CODEGEN--\":8359:8429   */\n              jump(tag_451)\n            tag_450:\n                /* \"--CODEGEN--\":8351:8429   */\n              swap3\n              pop\n                /* \"--CODEGEN--\":8446:8508   */\n              tag_452\n                /* \"--CODEGEN--\":8501:8507   */\n              dup3\n                /* \"--CODEGEN--\":8446:8508   */\n              jump(tag_453)\n            tag_452:\n                /* \"--CODEGEN--\":8436:8508   */\n              swap2\n              pop\n                /* \"--CODEGEN--\":8531:8535   */\n              0x20\n                /* \"--CODEGEN--\":8526:8529   */\n              dup9\n                /* \"--CODEGEN--\":8522:8536   */\n              add\n                /* \"--CODEGEN--\":8515:8536   */\n              swap8\n              pop\n                /* \"--CODEGEN--\":8293:8294   */\n              0x01\n                /* \"--CODEGEN--\":8290:8291   */\n              dup2\n                /* \"--CODEGEN--\":8286:8295   */\n              add\n                /* \"--CODEGEN--\":8281:8295   */\n              swap1\n              pop\n                /* \"--CODEGEN--\":8246:8543   */\n              jump(tag_447)\n            tag_448:\n                /* \"--CODEGEN--\":8250:8264   */\n              pop\n                /* \"--CODEGEN--\":8556:8560   */\n              dup2\n                /* \"--CODEGEN--\":8549:8560   */\n              swap7\n              pop\n                /* \"--CODEGEN--\":8573:8576   */\n              dup7\n                /* \"--CODEGEN--\":8566:8576   */\n              swap5\n              pop\n                /* \"--CODEGEN--\":7947:8582   */\n              pop\n              pop\n              pop\n              pop\n              swap3\n              swap2\n              pop\n              pop\n              jump\n                /* \"--CODEGEN--\":8590:8691   */\n            tag_455:\n                /* \"--CODEGEN--\":8657:8685   */\n              tag_456\n                /* \"--CODEGEN--\":8679:8684   */\n              dup2\n                /* \"--CODEGEN--\":8657:8685   */\n              jump(tag_457)\n            tag_456:\n                /* \"--CODEGEN--\":8652:8655   */\n              dup3\n                /* \"--CODEGEN--\":8645:8686   */\n              mstore\n                /* \"--CODEGEN--\":8639:8691   */\n              pop\n              pop\n              jump\n                /* \"--CODEGEN--\":8698:8805   */\n            tag_459:\n                /* \"--CODEGEN--\":8769:8799   */\n              tag_460\n                /* \"--CODEGEN--\":8793:8798   */\n              dup2\n                /* \"--CODEGEN--\":8769:8799   */\n              jump(tag_461)\n            tag_460:\n                /* \"--CODEGEN--\":8764:8767   */\n              dup3\n                /* \"--CODEGEN--\":8757:8800   */\n              mstore\n                /* \"--CODEGEN--\":8751:8805   */\n              pop\n              pop\n              jump\n                /* \"--CODEGEN--\":8812:9112   */\n            tag_463:\n              0x00\n                /* \"--CODEGEN--\":8914:8953   */\n              tag_464\n                /* \"--CODEGEN--\":8947:8952   */\n              dup3\n                /* \"--CODEGEN--\":8914:8953   */\n              jump(tag_465)\n            tag_464:\n                /* \"--CODEGEN--\":8970:8976   */\n              dup1\n                /* \"--CODEGEN--\":8965:8968   */\n              dup5\n                /* \"--CODEGEN--\":8958:8977   */\n              mstore\n                /* \"--CODEGEN--\":8982:9045   */\n              tag_466\n                /* \"--CODEGEN--\":9038:9044   */\n              dup2\n                /* \"--CODEGEN--\":9031:9035   */\n              0x20\n                /* \"--CODEGEN--\":9026:9029   */\n              dup7\n                /* \"--CODEGEN--\":9022:9036   */\n              add\n                /* \"--CODEGEN--\":9015:9019   */\n              0x20\n                /* \"--CODEGEN--\":9008:9013   */\n              dup7\n                /* \"--CODEGEN--\":9004:9020   */\n              add\n                /* \"--CODEGEN--\":8982:9045   */\n              jump(tag_467)\n            tag_466:\n                /* \"--CODEGEN--\":9077:9106   */\n              tag_468\n                /* \"--CODEGEN--\":9099:9105   */\n              dup2\n                /* \"--CODEGEN--\":9077:9106   */\n              jump(tag_469)\n            tag_468:\n                /* \"--CODEGEN--\":9070:9074   */\n              0x20\n                /* \"--CODEGEN--\":9065:9068   */\n              dup6\n                /* \"--CODEGEN--\":9061:9075   */\n              add\n                /* \"--CODEGEN--\":9057:9107   */\n              add\n                /* \"--CODEGEN--\":9050:9107   */\n              swap2\n              pop\n                /* \"--CODEGEN--\":8894:9112   */\n              pop\n              swap3\n              swap2\n              pop\n              pop\n              jump\n                /* \"--CODEGEN--\":9119:9411   */\n            tag_451:\n              0x00\n                /* \"--CODEGEN--\":9217:9252   */\n              tag_471\n                /* \"--CODEGEN--\":9246:9251   */\n              dup3\n                /* \"--CODEGEN--\":9217:9252   */\n              jump(tag_472)\n            tag_471:\n                /* \"--CODEGEN--\":9269:9275   */\n              dup1\n                /* \"--CODEGEN--\":9264:9267   */\n              dup5\n                /* \"--CODEGEN--\":9257:9276   */\n              mstore\n                /* \"--CODEGEN--\":9281:9344   */\n              tag_473\n                /* \"--CODEGEN--\":9337:9343   */\n              dup2\n                /* \"--CODEGEN--\":9330:9334   */\n              0x20\n                /* \"--CODEGEN--\":9325:9328   */\n              dup7\n                /* \"--CODEGEN--\":9321:9335   */\n              add\n                /* \"--CODEGEN--\":9314:9318   */\n              0x20\n                /* \"--CODEGEN--\":9307:9312   */\n              dup7\n                /* \"--CODEGEN--\":9303:9319   */\n              add\n                /* \"--CODEGEN--\":9281:9344   */\n              jump(tag_467)\n            tag_473:\n                /* \"--CODEGEN--\":9376:9405   */\n              tag_474\n                /* \"--CODEGEN--\":9398:9404   */\n              dup2\n                /* \"--CODEGEN--\":9376:9405   */\n              jump(tag_469)\n            tag_474:\n                /* \"--CODEGEN--\":9369:9373   */\n              0x20\n                /* \"--CODEGEN--\":9364:9367   */\n              dup6\n                /* \"--CODEGEN--\":9360:9374   */\n              add\n                /* \"--CODEGEN--\":9356:9406   */\n              add\n                /* \"--CODEGEN--\":9349:9406   */\n              swap2\n              pop\n                /* \"--CODEGEN--\":9197:9411   */\n              pop\n              swap3\n              swap2\n              pop\n              pop\n              jump\n                /* \"--CODEGEN--\":9481:10755   */\n            tag_476:\n              0x00\n                /* \"--CODEGEN--\":9616:9620   */\n              0x80\n                /* \"--CODEGEN--\":9611:9614   */\n              dup4\n                /* \"--CODEGEN--\":9607:9621   */\n              add\n                /* \"--CODEGEN--\":9709:9712   */\n              0x00\n                /* \"--CODEGEN--\":9702:9707   */\n              dup4\n                /* \"--CODEGEN--\":9698:9713   */\n              add\n                /* \"--CODEGEN--\":9692:9714   */\n              mload\n                /* \"--CODEGEN--\":9758:9761   */\n              dup5\n                /* \"--CODEGEN--\":9752:9756   */\n              dup3\n                /* \"--CODEGEN--\":9748:9762   */\n              sub\n                /* \"--CODEGEN--\":9742:9745   */\n              0x00\n                /* \"--CODEGEN--\":9737:9740   */\n              dup7\n                /* \"--CODEGEN--\":9733:9746   */\n              add\n                /* \"--CODEGEN--\":9726:9763   */\n              mstore\n                /* \"--CODEGEN--\":9778:9888   */\n              tag_477\n                /* \"--CODEGEN--\":9883:9887   */\n              dup3\n                /* \"--CODEGEN--\":9870:9881   */\n              dup3\n                /* \"--CODEGEN--\":9778:9888   */\n              jump(tag_442)\n            tag_477:\n                /* \"--CODEGEN--\":9770:9888   */\n              swap2\n              pop\n                /* \"--CODEGEN--\":9636:9900   */\n              pop\n                /* \"--CODEGEN--\":9987:9991   */\n              0x20\n                /* \"--CODEGEN--\":9980:9985   */\n              dup4\n                /* \"--CODEGEN--\":9976:9992   */\n              add\n                /* \"--CODEGEN--\":9970:9993   */\n              mload\n                /* \"--CODEGEN--\":10038:10041   */\n              dup5\n                /* \"--CODEGEN--\":10032:10036   */\n              dup3\n                /* \"--CODEGEN--\":10028:10042   */\n              sub\n                /* \"--CODEGEN--\":10021:10025   */\n              0x20\n                /* \"--CODEGEN--\":10016:10019   */\n              dup7\n                /* \"--CODEGEN--\":10012:10026   */\n              add\n                /* \"--CODEGEN--\":10005:10043   */\n              mstore\n                /* \"--CODEGEN--\":10058:10168   */\n              tag_478\n                /* \"--CODEGEN--\":10163:10167   */\n              dup3\n                /* \"--CODEGEN--\":10150:10161   */\n              dup3\n                /* \"--CODEGEN--\":10058:10168   */\n              jump(tag_442)\n            tag_478:\n                /* \"--CODEGEN--\":10050:10168   */\n              swap2\n              pop\n                /* \"--CODEGEN--\":9910:10180   */\n              pop\n                /* \"--CODEGEN--\":10262:10266   */\n              0x40\n                /* \"--CODEGEN--\":10255:10260   */\n              dup4\n                /* \"--CODEGEN--\":10251:10267   */\n              add\n                /* \"--CODEGEN--\":10245:10268   */\n              mload\n                /* \"--CODEGEN--\":10313:10316   */\n              dup5\n                /* \"--CODEGEN--\":10307:10311   */\n              dup3\n                /* \"--CODEGEN--\":10303:10317   */\n              sub\n                /* \"--CODEGEN--\":10296:10300   */\n              0x40\n                /* \"--CODEGEN--\":10291:10294   */\n              dup7\n                /* \"--CODEGEN--\":10287:10301   */\n              add\n                /* \"--CODEGEN--\":10280:10318   */\n              mstore\n                /* \"--CODEGEN--\":10333:10443   */\n              tag_479\n                /* \"--CODEGEN--\":10438:10442   */\n              dup3\n                /* \"--CODEGEN--\":10425:10436   */\n              dup3\n                /* \"--CODEGEN--\":10333:10443   */\n              jump(tag_442)\n            tag_479:\n                /* \"--CODEGEN--\":10325:10443   */\n              swap2\n              pop\n                /* \"--CODEGEN--\":10190:10455   */\n              pop\n                /* \"--CODEGEN--\":10536:10540   */\n              0x60\n                /* \"--CODEGEN--\":10529:10534   */\n              dup4\n                /* \"--CODEGEN--\":10525:10541   */\n              add\n                /* \"--CODEGEN--\":10519:10542   */\n              mload\n                /* \"--CODEGEN--\":10587:10590   */\n              dup5\n                /* \"--CODEGEN--\":10581:10585   */\n              dup3\n                /* \"--CODEGEN--\":10577:10591   */\n              sub\n                /* \"--CODEGEN--\":10570:10574   */\n              0x60\n                /* \"--CODEGEN--\":10565:10568   */\n              dup7\n                /* \"--CODEGEN--\":10561:10575   */\n              add\n                /* \"--CODEGEN--\":10554:10592   */\n              mstore\n                /* \"--CODEGEN--\":10607:10717   */\n              tag_480\n                /* \"--CODEGEN--\":10712:10716   */\n              dup3\n                /* \"--CODEGEN--\":10699:10710   */\n              dup3\n                /* \"--CODEGEN--\":10607:10717   */\n              jump(tag_442)\n            tag_480:\n                /* \"--CODEGEN--\":10599:10717   */\n              swap2\n              pop\n                /* \"--CODEGEN--\":10465:10729   */\n              pop\n                /* \"--CODEGEN--\":10746:10750   */\n              dup1\n                /* \"--CODEGEN--\":10739:10750   */\n              swap2\n              pop\n                /* \"--CODEGEN--\":9589:10755   */\n              pop\n              swap3\n              swap2\n              pop\n              pop\n              jump\n                /* \"--CODEGEN--\":10853:12824   */\n            tag_482:\n              0x00\n                /* \"--CODEGEN--\":11016:11021   */\n              0x0100\n                /* \"--CODEGEN--\":11011:11014   */\n              dup4\n                /* \"--CODEGEN--\":11007:11022   */\n              add\n                /* \"--CODEGEN--\":11103:11106   */\n              0x00\n                /* \"--CODEGEN--\":11096:11101   */\n              dup4\n                /* \"--CODEGEN--\":11092:11107   */\n              add\n                /* \"--CODEGEN--\":11086:11108   */\n              mload\n                /* \"--CODEGEN--\":11152:11155   */\n              dup5\n                /* \"--CODEGEN--\":11146:11150   */\n              dup3\n                /* \"--CODEGEN--\":11142:11156   */\n              sub\n                /* \"--CODEGEN--\":11136:11139   */\n              0x00\n                /* \"--CODEGEN--\":11131:11134   */\n              dup7\n                /* \"--CODEGEN--\":11127:11140   */\n              add\n                /* \"--CODEGEN--\":11120:11157   */\n              mstore\n                /* \"--CODEGEN--\":11172:11240   */\n              tag_483\n                /* \"--CODEGEN--\":11235:11239   */\n              dup3\n                /* \"--CODEGEN--\":11222:11233   */\n              dup3\n                /* \"--CODEGEN--\":11172:11240   */\n              jump(tag_451)\n            tag_483:\n                /* \"--CODEGEN--\":11164:11240   */\n              swap2\n              pop\n                /* \"--CODEGEN--\":11037:11252   */\n              pop\n                /* \"--CODEGEN--\":11330:11334   */\n              0x20\n                /* \"--CODEGEN--\":11323:11328   */\n              dup4\n                /* \"--CODEGEN--\":11319:11335   */\n              add\n                /* \"--CODEGEN--\":11313:11336   */\n              mload\n                /* \"--CODEGEN--\":11381:11384   */\n              dup5\n                /* \"--CODEGEN--\":11375:11379   */\n              dup3\n                /* \"--CODEGEN--\":11371:11385   */\n              sub\n                /* \"--CODEGEN--\":11364:11368   */\n              0x20\n                /* \"--CODEGEN--\":11359:11362   */\n              dup7\n                /* \"--CODEGEN--\":11355:11369   */\n              add\n                /* \"--CODEGEN--\":11348:11386   */\n              mstore\n                /* \"--CODEGEN--\":11401:11469   */\n              tag_484\n                /* \"--CODEGEN--\":11464:11468   */\n              dup3\n                /* \"--CODEGEN--\":11451:11462   */\n              dup3\n                /* \"--CODEGEN--\":11401:11469   */\n              jump(tag_451)\n            tag_484:\n                /* \"--CODEGEN--\":11393:11469   */\n              swap2\n              pop\n                /* \"--CODEGEN--\":11262:11481   */\n              pop\n                /* \"--CODEGEN--\":11556:11560   */\n              0x40\n                /* \"--CODEGEN--\":11549:11554   */\n              dup4\n                /* \"--CODEGEN--\":11545:11561   */\n              add\n                /* \"--CODEGEN--\":11539:11562   */\n              mload\n                /* \"--CODEGEN--\":11607:11610   */\n              dup5\n                /* \"--CODEGEN--\":11601:11605   */\n              dup3\n                /* \"--CODEGEN--\":11597:11611   */\n              sub\n                /* \"--CODEGEN--\":11590:11594   */\n              0x40\n                /* \"--CODEGEN--\":11585:11588   */\n              dup7\n                /* \"--CODEGEN--\":11581:11595   */\n              add\n                /* \"--CODEGEN--\":11574:11612   */\n              mstore\n                /* \"--CODEGEN--\":11627:11695   */\n              tag_485\n                /* \"--CODEGEN--\":11690:11694   */\n              dup3\n                /* \"--CODEGEN--\":11677:11688   */\n              dup3\n                /* \"--CODEGEN--\":11627:11695   */\n              jump(tag_451)\n            tag_485:\n                /* \"--CODEGEN--\":11619:11695   */\n              swap2\n              pop\n                /* \"--CODEGEN--\":11491:11707   */\n              pop\n                /* \"--CODEGEN--\":11785:11789   */\n              0x60\n                /* \"--CODEGEN--\":11778:11783   */\n              dup4\n                /* \"--CODEGEN--\":11774:11790   */\n              add\n                /* \"--CODEGEN--\":11768:11791   */\n              mload\n                /* \"--CODEGEN--\":11836:11839   */\n              dup5\n                /* \"--CODEGEN--\":11830:11834   */\n              dup3\n                /* \"--CODEGEN--\":11826:11840   */\n              sub\n                /* \"--CODEGEN--\":11819:11823   */\n              0x60\n                /* \"--CODEGEN--\":11814:11817   */\n              dup7\n                /* \"--CODEGEN--\":11810:11824   */\n              add\n                /* \"--CODEGEN--\":11803:11841   */\n              mstore\n                /* \"--CODEGEN--\":11856:11924   */\n              tag_486\n                /* \"--CODEGEN--\":11919:11923   */\n              dup3\n                /* \"--CODEGEN--\":11906:11917   */\n              dup3\n                /* \"--CODEGEN--\":11856:11924   */\n              jump(tag_451)\n            tag_486:\n                /* \"--CODEGEN--\":11848:11924   */\n              swap2\n              pop\n                /* \"--CODEGEN--\":11717:11936   */\n              pop\n                /* \"--CODEGEN--\":12014:12018   */\n              0x80\n                /* \"--CODEGEN--\":12007:12012   */\n              dup4\n                /* \"--CODEGEN--\":12003:12019   */\n              add\n                /* \"--CODEGEN--\":11997:12020   */\n              mload\n                /* \"--CODEGEN--\":12032:12092   */\n              tag_487\n                /* \"--CODEGEN--\":12086:12090   */\n              0x80\n                /* \"--CODEGEN--\":12081:12084   */\n              dup7\n                /* \"--CODEGEN--\":12077:12091   */\n              add\n                /* \"--CODEGEN--\":12064:12075   */\n              dup3\n                /* \"--CODEGEN--\":12032:12092   */\n              jump(tag_459)\n            tag_487:\n                /* \"--CODEGEN--\":11946:12104   */\n              pop\n                /* \"--CODEGEN--\":12184:12188   */\n              0xa0\n                /* \"--CODEGEN--\":12177:12182   */\n              dup4\n                /* \"--CODEGEN--\":12173:12189   */\n              add\n                /* \"--CODEGEN--\":12167:12190   */\n              mload\n                /* \"--CODEGEN--\":12235:12238   */\n              dup5\n                /* \"--CODEGEN--\":12229:12233   */\n              dup3\n                /* \"--CODEGEN--\":12225:12239   */\n              sub\n                /* \"--CODEGEN--\":12218:12222   */\n              0xa0\n                /* \"--CODEGEN--\":12213:12216   */\n              dup7\n                /* \"--CODEGEN--\":12209:12223   */\n              add\n                /* \"--CODEGEN--\":12202:12240   */\n              mstore\n                /* \"--CODEGEN--\":12255:12323   */\n              tag_488\n                /* \"--CODEGEN--\":12318:12322   */\n              dup3\n                /* \"--CODEGEN--\":12305:12316   */\n              dup3\n                /* \"--CODEGEN--\":12255:12323   */\n              jump(tag_451)\n            tag_488:\n                /* \"--CODEGEN--\":12247:12323   */\n              swap2\n              pop\n                /* \"--CODEGEN--\":12114:12335   */\n              pop\n                /* \"--CODEGEN--\":12417:12421   */\n              0xc0\n                /* \"--CODEGEN--\":12410:12415   */\n              dup4\n                /* \"--CODEGEN--\":12406:12422   */\n              add\n                /* \"--CODEGEN--\":12400:12423   */\n              mload\n                /* \"--CODEGEN--\":12468:12471   */\n              dup5\n                /* \"--CODEGEN--\":12462:12466   */\n              dup3\n                /* \"--CODEGEN--\":12458:12472   */\n              sub\n                /* \"--CODEGEN--\":12451:12455   */\n              0xc0\n                /* \"--CODEGEN--\":12446:12449   */\n              dup7\n                /* \"--CODEGEN--\":12442:12456   */\n              add\n                /* \"--CODEGEN--\":12435:12473   */\n              mstore\n                /* \"--CODEGEN--\":12488:12556   */\n              tag_489\n                /* \"--CODEGEN--\":12551:12555   */\n              dup3\n                /* \"--CODEGEN--\":12538:12549   */\n              dup3\n                /* \"--CODEGEN--\":12488:12556   */\n              jump(tag_451)\n            tag_489:\n                /* \"--CODEGEN--\":12480:12556   */\n              swap2\n              pop\n                /* \"--CODEGEN--\":12345:12568   */\n              pop\n                /* \"--CODEGEN--\":12647:12651   */\n              0xe0\n                /* \"--CODEGEN--\":12640:12645   */\n              dup4\n                /* \"--CODEGEN--\":12636:12652   */\n              add\n                /* \"--CODEGEN--\":12630:12653   */\n              mload\n                /* \"--CODEGEN--\":12698:12701   */\n              dup5\n                /* \"--CODEGEN--\":12692:12696   */\n              dup3\n                /* \"--CODEGEN--\":12688:12702   */\n              sub\n                /* \"--CODEGEN--\":12681:12685   */\n              0xe0\n                /* \"--CODEGEN--\":12676:12679   */\n              dup7\n                /* \"--CODEGEN--\":12672:12686   */\n              add\n                /* \"--CODEGEN--\":12665:12703   */\n              mstore\n                /* \"--CODEGEN--\":12718:12786   */\n              tag_490\n                /* \"--CODEGEN--\":12781:12785   */\n              dup3\n                /* \"--CODEGEN--\":12768:12779   */\n              dup3\n                /* \"--CODEGEN--\":12718:12786   */\n              jump(tag_451)\n            tag_490:\n                /* \"--CODEGEN--\":12710:12786   */\n              swap2\n              pop\n                /* \"--CODEGEN--\":12578:12798   */\n              pop\n                /* \"--CODEGEN--\":12815:12819   */\n              dup1\n                /* \"--CODEGEN--\":12808:12819   */\n              swap2\n              pop\n                /* \"--CODEGEN--\":10989:12824   */\n              pop\n              swap3\n              swap2\n              pop\n              pop\n              jump\n                /* \"--CODEGEN--\":12928:15008   */\n            tag_492:\n              0x00\n                /* \"--CODEGEN--\":13097:13102   */\n              0x0100\n                /* \"--CODEGEN--\":13092:13095   */\n              dup4\n                /* \"--CODEGEN--\":13088:13103   */\n              add\n                /* \"--CODEGEN--\":13194:13197   */\n              0x00\n                /* \"--CODEGEN--\":13187:13192   */\n              dup4\n                /* \"--CODEGEN--\":13183:13198   */\n              add\n                /* \"--CODEGEN--\":13177:13199   */\n              mload\n                /* \"--CODEGEN--\":13243:13246   */\n              dup5\n                /* \"--CODEGEN--\":13237:13241   */\n              dup3\n                /* \"--CODEGEN--\":13233:13247   */\n              sub\n                /* \"--CODEGEN--\":13227:13230   */\n              0x00\n                /* \"--CODEGEN--\":13222:13225   */\n              dup7\n                /* \"--CODEGEN--\":13218:13231   */\n              add\n                /* \"--CODEGEN--\":13211:13248   */\n              mstore\n                /* \"--CODEGEN--\":13263:13331   */\n              tag_493\n                /* \"--CODEGEN--\":13326:13330   */\n              dup3\n                /* \"--CODEGEN--\":13313:13324   */\n              dup3\n                /* \"--CODEGEN--\":13263:13331   */\n              jump(tag_451)\n            tag_493:\n                /* \"--CODEGEN--\":13255:13331   */\n              swap2\n              pop\n                /* \"--CODEGEN--\":13118:13343   */\n              pop\n                /* \"--CODEGEN--\":13424:13428   */\n              0x20\n                /* \"--CODEGEN--\":13417:13422   */\n              dup4\n                /* \"--CODEGEN--\":13413:13429   */\n              add\n                /* \"--CODEGEN--\":13407:13430   */\n              mload\n                /* \"--CODEGEN--\":13475:13478   */\n              dup5\n                /* \"--CODEGEN--\":13469:13473   */\n              dup3\n                /* \"--CODEGEN--\":13465:13479   */\n              sub\n                /* \"--CODEGEN--\":13458:13462   */\n              0x20\n                /* \"--CODEGEN--\":13453:13456   */\n              dup7\n                /* \"--CODEGEN--\":13449:13463   */\n              add\n                /* \"--CODEGEN--\":13442:13480   */\n              mstore\n                /* \"--CODEGEN--\":13495:13563   */\n              tag_494\n                /* \"--CODEGEN--\":13558:13562   */\n              dup3\n                /* \"--CODEGEN--\":13545:13556   */\n              dup3\n                /* \"--CODEGEN--\":13495:13563   */\n              jump(tag_451)\n            tag_494:\n                /* \"--CODEGEN--\":13487:13563   */\n              swap2\n              pop\n                /* \"--CODEGEN--\":13353:13575   */\n              pop\n                /* \"--CODEGEN--\":13658:13662   */\n              0x40\n                /* \"--CODEGEN--\":13651:13656   */\n              dup4\n                /* \"--CODEGEN--\":13647:13663   */\n              add\n                /* \"--CODEGEN--\":13641:13664   */\n              mload\n                /* \"--CODEGEN--\":13709:13712   */\n              dup5\n                /* \"--CODEGEN--\":13703:13707   */\n              dup3\n                /* \"--CODEGEN--\":13699:13713   */\n              sub\n                /* \"--CODEGEN--\":13692:13696   */\n              0x40\n                /* \"--CODEGEN--\":13687:13690   */\n              dup7\n                /* \"--CODEGEN--\":13683:13697   */\n              add\n                /* \"--CODEGEN--\":13676:13714   */\n              mstore\n                /* \"--CODEGEN--\":13729:13797   */\n              tag_495\n                /* \"--CODEGEN--\":13792:13796   */\n              dup3\n                /* \"--CODEGEN--\":13779:13790   */\n              dup3\n                /* \"--CODEGEN--\":13729:13797   */\n              jump(tag_451)\n            tag_495:\n                /* \"--CODEGEN--\":13721:13797   */\n              swap2\n              pop\n                /* \"--CODEGEN--\":13585:13809   */\n              pop\n                /* \"--CODEGEN--\":13890:13894   */\n              0x60\n                /* \"--CODEGEN--\":13883:13888   */\n              dup4\n                /* \"--CODEGEN--\":13879:13895   */\n              add\n                /* \"--CODEGEN--\":13873:13896   */\n              mload\n                /* \"--CODEGEN--\":13941:13944   */\n              dup5\n                /* \"--CODEGEN--\":13935:13939   */\n              dup3\n                /* \"--CODEGEN--\":13931:13945   */\n              sub\n                /* \"--CODEGEN--\":13924:13928   */\n              0x60\n                /* \"--CODEGEN--\":13919:13922   */\n              dup7\n                /* \"--CODEGEN--\":13915:13929   */\n              add\n                /* \"--CODEGEN--\":13908:13946   */\n              mstore\n                /* \"--CODEGEN--\":13961:14029   */\n              tag_496\n                /* \"--CODEGEN--\":14024:14028   */\n              dup3\n                /* \"--CODEGEN--\":14011:14022   */\n              dup3\n                /* \"--CODEGEN--\":13961:14029   */\n              jump(tag_451)\n            tag_496:\n                /* \"--CODEGEN--\":13953:14029   */\n              swap2\n              pop\n                /* \"--CODEGEN--\":13819:14041   */\n              pop\n                /* \"--CODEGEN--\":14126:14130   */\n              0x80\n                /* \"--CODEGEN--\":14119:14124   */\n              dup4\n                /* \"--CODEGEN--\":14115:14131   */\n              add\n                /* \"--CODEGEN--\":14109:14132   */\n              mload\n                /* \"--CODEGEN--\":14177:14180   */\n              dup5\n                /* \"--CODEGEN--\":14171:14175   */\n              dup3\n                /* \"--CODEGEN--\":14167:14181   */\n              sub\n                /* \"--CODEGEN--\":14160:14164   */\n              0x80\n                /* \"--CODEGEN--\":14155:14158   */\n              dup7\n                /* \"--CODEGEN--\":14151:14165   */\n              add\n                /* \"--CODEGEN--\":14144:14182   */\n              mstore\n                /* \"--CODEGEN--\":14197:14265   */\n              tag_497\n                /* \"--CODEGEN--\":14260:14264   */\n              dup3\n                /* \"--CODEGEN--\":14247:14258   */\n              dup3\n                /* \"--CODEGEN--\":14197:14265   */\n              jump(tag_451)\n            tag_497:\n                /* \"--CODEGEN--\":14189:14265   */\n              swap2\n              pop\n                /* \"--CODEGEN--\":14051:14277   */\n              pop\n                /* \"--CODEGEN--\":14359:14363   */\n              0xa0\n                /* \"--CODEGEN--\":14352:14357   */\n              dup4\n                /* \"--CODEGEN--\":14348:14364   */\n              add\n                /* \"--CODEGEN--\":14342:14365   */\n              mload\n                /* \"--CODEGEN--\":14410:14413   */\n              dup5\n                /* \"--CODEGEN--\":14404:14408   */\n              dup3\n                /* \"--CODEGEN--\":14400:14414   */\n              sub\n                /* \"--CODEGEN--\":14393:14397   */\n              0xa0\n                /* \"--CODEGEN--\":14388:14391   */\n              dup7\n                /* \"--CODEGEN--\":14384:14398   */\n              add\n                /* \"--CODEGEN--\":14377:14415   */\n              mstore\n                /* \"--CODEGEN--\":14430:14498   */\n              tag_498\n                /* \"--CODEGEN--\":14493:14497   */\n              dup3\n                /* \"--CODEGEN--\":14480:14491   */\n              dup3\n                /* \"--CODEGEN--\":14430:14498   */\n              jump(tag_451)\n            tag_498:\n                /* \"--CODEGEN--\":14422:14498   */\n              swap2\n              pop\n                /* \"--CODEGEN--\":14287:14510   */\n              pop\n                /* \"--CODEGEN--\":14599:14603   */\n              0xc0\n                /* \"--CODEGEN--\":14592:14597   */\n              dup4\n                /* \"--CODEGEN--\":14588:14604   */\n              add\n                /* \"--CODEGEN--\":14582:14605   */\n              mload\n                /* \"--CODEGEN--\":14650:14653   */\n              dup5\n                /* \"--CODEGEN--\":14644:14648   */\n              dup3\n                /* \"--CODEGEN--\":14640:14654   */\n              sub\n                /* \"--CODEGEN--\":14633:14637   */\n              0xc0\n                /* \"--CODEGEN--\":14628:14631   */\n              dup7\n                /* \"--CODEGEN--\":14624:14638   */\n              add\n                /* \"--CODEGEN--\":14617:14655   */\n              mstore\n                /* \"--CODEGEN--\":14670:14738   */\n              tag_499\n                /* \"--CODEGEN--\":14733:14737   */\n              dup3\n                /* \"--CODEGEN--\":14720:14731   */\n              dup3\n                /* \"--CODEGEN--\":14670:14738   */\n              jump(tag_451)\n            tag_499:\n                /* \"--CODEGEN--\":14662:14738   */\n              swap2\n              pop\n                /* \"--CODEGEN--\":14520:14750   */\n              pop\n                /* \"--CODEGEN--\":14831:14835   */\n              0xe0\n                /* \"--CODEGEN--\":14824:14829   */\n              dup4\n                /* \"--CODEGEN--\":14820:14836   */\n              add\n                /* \"--CODEGEN--\":14814:14837   */\n              mload\n                /* \"--CODEGEN--\":14882:14885   */\n              dup5\n                /* \"--CODEGEN--\":14876:14880   */\n              dup3\n                /* \"--CODEGEN--\":14872:14886   */\n              sub\n                /* \"--CODEGEN--\":14865:14869   */\n              0xe0\n                /* \"--CODEGEN--\":14860:14863   */\n              dup7\n                /* \"--CODEGEN--\":14856:14870   */\n              add\n                /* \"--CODEGEN--\":14849:14887   */\n              mstore\n                /* \"--CODEGEN--\":14902:14970   */\n              tag_500\n                /* \"--CODEGEN--\":14965:14969   */\n              dup3\n                /* \"--CODEGEN--\":14952:14963   */\n              dup3\n                /* \"--CODEGEN--\":14902:14970   */\n              jump(tag_451)\n            tag_500:\n                /* \"--CODEGEN--\":14894:14970   */\n              swap2\n              pop\n                /* \"--CODEGEN--\":14760:14982   */\n              pop\n                /* \"--CODEGEN--\":14999:15003   */\n              dup1\n                /* \"--CODEGEN--\":14992:15003   */\n              swap2\n              pop\n                /* \"--CODEGEN--\":13070:15008   */\n              pop\n              swap3\n              swap2\n              pop\n              pop\n              jump\n                /* \"--CODEGEN--\":15015:15208   */\n            tag_323:\n              0x00\n                /* \"--CODEGEN--\":15123:15125   */\n              0x20\n                /* \"--CODEGEN--\":15112:15121   */\n              dup3\n                /* \"--CODEGEN--\":15108:15126   */\n              add\n                /* \"--CODEGEN--\":15100:15126   */\n              swap1\n              pop\n                /* \"--CODEGEN--\":15137:15198   */\n              tag_502\n                /* \"--CODEGEN--\":15195:15196   */\n              0x00\n                /* \"--CODEGEN--\":15184:15193   */\n              dup4\n                /* \"--CODEGEN--\":15180:15197   */\n              add\n                /* \"--CODEGEN--\":15171:15177   */\n              dup5\n                /* \"--CODEGEN--\":15137:15198   */\n              jump(tag_438)\n            tag_502:\n                /* \"--CODEGEN--\":15094:15208   */\n              swap3\n              swap2\n              pop\n              pop\n              jump\n                /* \"--CODEGEN--\":15215:15396   */\n            tag_48:\n              0x00\n                /* \"--CODEGEN--\":15317:15319   */\n              0x20\n                /* \"--CODEGEN--\":15306:15315   */\n              dup3\n                /* \"--CODEGEN--\":15302:15320   */\n              add\n                /* \"--CODEGEN--\":15294:15320   */\n              swap1\n              pop\n                /* \"--CODEGEN--\":15331:15386   */\n              tag_504\n                /* \"--CODEGEN--\":15383:15384   */\n              0x00\n                /* \"--CODEGEN--\":15372:15381   */\n              dup4\n                /* \"--CODEGEN--\":15368:15385   */\n              add\n                /* \"--CODEGEN--\":15359:15365   */\n              dup5\n                /* \"--CODEGEN--\":15331:15386   */\n              jump(tag_455)\n            tag_504:\n                /* \"--CODEGEN--\":15288:15396   */\n              swap3\n              swap2\n              pop\n              pop\n              jump\n                /* \"--CODEGEN--\":15403:16420   */\n            tag_24:\n              0x00\n                /* \"--CODEGEN--\":15783:15786   */\n              0x80\n                /* \"--CODEGEN--\":15772:15781   */\n              dup3\n                /* \"--CODEGEN--\":15768:15787   */\n              add\n                /* \"--CODEGEN--\":15760:15787   */\n              swap1\n              pop\n                /* \"--CODEGEN--\":15798:15853   */\n              tag_506\n                /* \"--CODEGEN--\":15850:15851   */\n              0x00\n                /* \"--CODEGEN--\":15839:15848   */\n              dup4\n                /* \"--CODEGEN--\":15835:15852   */\n              add\n                /* \"--CODEGEN--\":15826:15832   */\n              dup8\n                /* \"--CODEGEN--\":15798:15853   */\n              jump(tag_455)\n            tag_506:\n                /* \"--CODEGEN--\":15901:15910   */\n              dup2\n                /* \"--CODEGEN--\":15895:15899   */\n              dup2\n                /* \"--CODEGEN--\":15891:15911   */\n              sub\n                /* \"--CODEGEN--\":15886:15888   */\n              0x20\n                /* \"--CODEGEN--\":15875:15884   */\n              dup4\n                /* \"--CODEGEN--\":15871:15889   */\n              add\n                /* \"--CODEGEN--\":15864:15912   */\n              mstore\n                /* \"--CODEGEN--\":15926:16046   */\n              tag_507\n                /* \"--CODEGEN--\":16041:16045   */\n              dup2\n                /* \"--CODEGEN--\":16032:16038   */\n              dup7\n                /* \"--CODEGEN--\":15926:16046   */\n              jump(tag_482)\n            tag_507:\n                /* \"--CODEGEN--\":15918:16046   */\n              swap1\n              pop\n                /* \"--CODEGEN--\":16094:16103   */\n              dup2\n                /* \"--CODEGEN--\":16088:16092   */\n              dup2\n                /* \"--CODEGEN--\":16084:16104   */\n              sub\n                /* \"--CODEGEN--\":16079:16081   */\n              0x40\n                /* \"--CODEGEN--\":16068:16077   */\n              dup4\n                /* \"--CODEGEN--\":16064:16082   */\n              add\n                /* \"--CODEGEN--\":16057:16105   */\n              mstore\n                /* \"--CODEGEN--\":16119:16245   */\n              tag_508\n                /* \"--CODEGEN--\":16240:16244   */\n              dup2\n                /* \"--CODEGEN--\":16231:16237   */\n              dup6\n                /* \"--CODEGEN--\":16119:16245   */\n              jump(tag_492)\n            tag_508:\n                /* \"--CODEGEN--\":16111:16245   */\n              swap1\n              pop\n                /* \"--CODEGEN--\":16293:16302   */\n              dup2\n                /* \"--CODEGEN--\":16287:16291   */\n              dup2\n                /* \"--CODEGEN--\":16283:16303   */\n              sub\n                /* \"--CODEGEN--\":16278:16280   */\n              0x60\n                /* \"--CODEGEN--\":16267:16276   */\n              dup4\n                /* \"--CODEGEN--\":16263:16281   */\n              add\n                /* \"--CODEGEN--\":16256:16304   */\n              mstore\n                /* \"--CODEGEN--\":16318:16410   */\n              tag_509\n                /* \"--CODEGEN--\":16405:16409   */\n              dup2\n                /* \"--CODEGEN--\":16396:16402   */\n              dup5\n                /* \"--CODEGEN--\":16318:16410   */\n              jump(tag_476)\n            tag_509:\n                /* \"--CODEGEN--\":16310:16410   */\n              swap1\n              pop\n                /* \"--CODEGEN--\":15754:16420   */\n              swap6\n              swap5\n              pop\n              pop\n              pop\n              pop\n              pop\n              jump\n                /* \"--CODEGEN--\":16427:16708   */\n            tag_28:\n              0x00\n                /* \"--CODEGEN--\":16555:16557   */\n              0x20\n                /* \"--CODEGEN--\":16544:16553   */\n              dup3\n                /* \"--CODEGEN--\":16540:16558   */\n              add\n                /* \"--CODEGEN--\":16532:16558   */\n              swap1\n              pop\n                /* \"--CODEGEN--\":16605:16614   */\n              dup2\n                /* \"--CODEGEN--\":16599:16603   */\n              dup2\n                /* \"--CODEGEN--\":16595:16615   */\n              sub\n                /* \"--CODEGEN--\":16591:16592   */\n              0x00\n                /* \"--CODEGEN--\":16580:16589   */\n              dup4\n                /* \"--CODEGEN--\":16576:16593   */\n              add\n                /* \"--CODEGEN--\":16569:16616   */\n              mstore\n                /* \"--CODEGEN--\":16630:16698   */\n              tag_511\n                /* \"--CODEGEN--\":16693:16697   */\n              dup2\n                /* \"--CODEGEN--\":16684:16690   */\n              dup5\n                /* \"--CODEGEN--\":16630:16698   */\n              jump(tag_463)\n            tag_511:\n                /* \"--CODEGEN--\":16622:16698   */\n              swap1\n              pop\n                /* \"--CODEGEN--\":16526:16708   */\n              swap3\n              swap2\n              pop\n              pop\n              jump\n                /* \"--CODEGEN--\":16715:17185   */\n            tag_70:\n              0x00\n                /* \"--CODEGEN--\":16891:16893   */\n              0x40\n                /* \"--CODEGEN--\":16880:16889   */\n              dup3\n                /* \"--CODEGEN--\":16876:16894   */\n              add\n                /* \"--CODEGEN--\":16868:16894   */\n              swap1\n              pop\n                /* \"--CODEGEN--\":16941:16950   */\n              dup2\n                /* \"--CODEGEN--\":16935:16939   */\n              dup2\n                /* \"--CODEGEN--\":16931:16951   */\n              sub\n                /* \"--CODEGEN--\":16927:16928   */\n              0x00\n                /* \"--CODEGEN--\":16916:16925   */\n              dup4\n                /* \"--CODEGEN--\":16912:16929   */\n              add\n                /* \"--CODEGEN--\":16905:16952   */\n              mstore\n                /* \"--CODEGEN--\":16966:17034   */\n              tag_513\n                /* \"--CODEGEN--\":17029:17033   */\n              dup2\n                /* \"--CODEGEN--\":17020:17026   */\n              dup6\n                /* \"--CODEGEN--\":16966:17034   */\n              jump(tag_463)\n            tag_513:\n                /* \"--CODEGEN--\":16958:17034   */\n              swap1\n              pop\n                /* \"--CODEGEN--\":17082:17091   */\n              dup2\n                /* \"--CODEGEN--\":17076:17080   */\n              dup2\n                /* \"--CODEGEN--\":17072:17092   */\n              sub\n                /* \"--CODEGEN--\":17067:17069   */\n              0x20\n                /* \"--CODEGEN--\":17056:17065   */\n              dup4\n                /* \"--CODEGEN--\":17052:17070   */\n              add\n                /* \"--CODEGEN--\":17045:17093   */\n              mstore\n                /* \"--CODEGEN--\":17107:17175   */\n              tag_514\n                /* \"--CODEGEN--\":17170:17174   */\n              dup2\n                /* \"--CODEGEN--\":17161:17167   */\n              dup5\n                /* \"--CODEGEN--\":17107:17175   */\n              jump(tag_463)\n            tag_514:\n                /* \"--CODEGEN--\":17099:17175   */\n              swap1\n              pop\n                /* \"--CODEGEN--\":16862:17185   */\n              swap4\n              swap3\n              pop\n              pop\n              pop\n              jump\n                /* \"--CODEGEN--\":17192:17448   */\n            tag_367:\n              0x00\n                /* \"--CODEGEN--\":17254:17256   */\n              0x40\n                /* \"--CODEGEN--\":17248:17257   */\n              mload\n                /* \"--CODEGEN--\":17238:17257   */\n              swap1\n              pop\n                /* \"--CODEGEN--\":17292:17296   */\n              dup2\n                /* \"--CODEGEN--\":17284:17290   */\n              dup2\n                /* \"--CODEGEN--\":17280:17297   */\n              add\n                /* \"--CODEGEN--\":17391:17397   */\n              dup2\n                /* \"--CODEGEN--\":17379:17389   */\n              dup2\n                /* \"--CODEGEN--\":17376:17398   */\n              lt\n                /* \"--CODEGEN--\":17355:17373   */\n              0xffffffffffffffff\n                /* \"--CODEGEN--\":17343:17353   */\n              dup3\n                /* \"--CODEGEN--\":17340:17374   */\n              gt\n                /* \"--CODEGEN--\":17337:17399   */\n              or\n                /* \"--CODEGEN--\":17334:17336   */\n              iszero\n              tag_516\n              jumpi\n                /* \"--CODEGEN--\":17412:17413   */\n              0x00\n                /* \"--CODEGEN--\":17409:17410   */\n              dup1\n                /* \"--CODEGEN--\":17402:17414   */\n              revert\n                /* \"--CODEGEN--\":17334:17336   */\n            tag_516:\n                /* \"--CODEGEN--\":17432:17442   */\n              dup1\n                /* \"--CODEGEN--\":17428:17430   */\n              0x40\n                /* \"--CODEGEN--\":17421:17443   */\n              mstore\n                /* \"--CODEGEN--\":17232:17448   */\n              pop\n              swap2\n              swap1\n              pop\n              jump\n                /* \"--CODEGEN--\":17455:17714   */\n            tag_366:\n              0x00\n                /* \"--CODEGEN--\":17599:17617   */\n              0xffffffffffffffff\n                /* \"--CODEGEN--\":17591:17597   */\n              dup3\n                /* \"--CODEGEN--\":17588:17618   */\n              gt\n                /* \"--CODEGEN--\":17585:17587   */\n              iszero\n              tag_518\n              jumpi\n                /* \"--CODEGEN--\":17631:17632   */\n              0x00\n                /* \"--CODEGEN--\":17628:17629   */\n              dup1\n                /* \"--CODEGEN--\":17621:17633   */\n              revert\n                /* \"--CODEGEN--\":17585:17587   */\n            tag_518:\n                /* \"--CODEGEN--\":17675:17679   */\n              0x1f\n                /* \"--CODEGEN--\":17671:17680   */\n              not\n                /* \"--CODEGEN--\":17664:17668   */\n              0x1f\n                /* \"--CODEGEN--\":17656:17662   */\n              dup4\n                /* \"--CODEGEN--\":17652:17669   */\n              add\n                /* \"--CODEGEN--\":17648:17681   */\n              and\n                /* \"--CODEGEN--\":17640:17681   */\n              swap1\n              pop\n                /* \"--CODEGEN--\":17704:17708   */\n              0x20\n                /* \"--CODEGEN--\":17698:17702   */\n              dup2\n                /* \"--CODEGEN--\":17694:17709   */\n              add\n                /* \"--CODEGEN--\":17686:17709   */\n              swap1\n              pop\n                /* \"--CODEGEN--\":17522:17714   */\n              swap2\n              swap1\n              pop\n              jump\n                /* \"--CODEGEN--\":17723:17846   */\n            tag_446:\n              0x00\n                /* \"--CODEGEN--\":17834:17838   */\n              0x20\n                /* \"--CODEGEN--\":17826:17832   */\n              dup3\n                /* \"--CODEGEN--\":17822:17839   */\n              add\n                /* \"--CODEGEN--\":17811:17839   */\n              swap1\n              pop\n                /* \"--CODEGEN--\":17803:17846   */\n              swap2\n              swap1\n              pop\n              jump\n                /* \"--CODEGEN--\":17855:17964   */\n            tag_444:\n              0x00\n                /* \"--CODEGEN--\":17953:17958   */\n              dup2\n                /* \"--CODEGEN--\":17947:17959   */\n              mload\n                /* \"--CODEGEN--\":17937:17959   */\n              swap1\n              pop\n                /* \"--CODEGEN--\":17931:17964   */\n              swap2\n              swap1\n              pop\n              jump\n                /* \"--CODEGEN--\":17971:18059   */\n            tag_472:\n              0x00\n                /* \"--CODEGEN--\":18048:18053   */\n              dup2\n                /* \"--CODEGEN--\":18042:18054   */\n              mload\n                /* \"--CODEGEN--\":18032:18054   */\n              swap1\n              pop\n                /* \"--CODEGEN--\":18026:18059   */\n              swap2\n              swap1\n              pop\n              jump\n                /* \"--CODEGEN--\":18066:18158   */\n            tag_465:\n              0x00\n                /* \"--CODEGEN--\":18147:18152   */\n              dup2\n                /* \"--CODEGEN--\":18141:18153   */\n              mload\n                /* \"--CODEGEN--\":18131:18153   */\n              swap1\n              pop\n                /* \"--CODEGEN--\":18125:18158   */\n              swap2\n              swap1\n              pop\n              jump\n                /* \"--CODEGEN--\":18166:18290   */\n            tag_453:\n              0x00\n                /* \"--CODEGEN--\":18279:18283   */\n              0x20\n                /* \"--CODEGEN--\":18271:18277   */\n              dup3\n                /* \"--CODEGEN--\":18267:18284   */\n              add\n                /* \"--CODEGEN--\":18256:18284   */\n              swap1\n              pop\n                /* \"--CODEGEN--\":18249:18290   */\n              swap2\n              swap1\n              pop\n              jump\n                /* \"--CODEGEN--\":18298:18403   */\n            tag_440:\n              0x00\n                /* \"--CODEGEN--\":18367:18398   */\n              tag_525\n                /* \"--CODEGEN--\":18392:18397   */\n              dup3\n                /* \"--CODEGEN--\":18367:18398   */\n              jump(tag_526)\n            tag_525:\n                /* \"--CODEGEN--\":18356:18398   */\n              swap1\n              pop\n                /* \"--CODEGEN--\":18350:18403   */\n              swap2\n              swap1\n              pop\n              jump\n                /* \"--CODEGEN--\":18410:18502   */\n            tag_457:\n              0x00\n                /* \"--CODEGEN--\":18490:18495   */\n              dup2\n                /* \"--CODEGEN--\":18483:18496   */\n              iszero\n                /* \"--CODEGEN--\":18476:18497   */\n              iszero\n                /* \"--CODEGEN--\":18465:18497   */\n              swap1\n              pop\n                /* \"--CODEGEN--\":18459:18502   */\n              swap2\n              swap1\n              pop\n              jump\n                /* \"--CODEGEN--\":18509:18587   */\n            tag_461:\n              0x00\n                /* \"--CODEGEN--\":18577:18582   */\n              dup2\n                /* \"--CODEGEN--\":18566:18582   */\n              swap1\n              pop\n                /* \"--CODEGEN--\":18560:18587   */\n              swap2\n              swap1\n              pop\n              jump\n                /* \"--CODEGEN--\":18594:18722   */\n            tag_526:\n              0x00\n                /* \"--CODEGEN--\":18674:18716   */\n              0xffffffffffffffffffffffffffffffffffffffff\n                /* \"--CODEGEN--\":18667:18672   */\n              dup3\n                /* \"--CODEGEN--\":18663:18717   */\n              and\n                /* \"--CODEGEN--\":18652:18717   */\n              swap1\n              pop\n                /* \"--CODEGEN--\":18646:18722   */\n              swap2\n              swap1\n              pop\n              jump\n                /* \"--CODEGEN--\":18729:18834   */\n            tag_353:\n              0x00\n                /* \"--CODEGEN--\":18798:18829   */\n              tag_531\n                /* \"--CODEGEN--\":18823:18828   */\n              dup3\n                /* \"--CODEGEN--\":18798:18829   */\n              jump(tag_526)\n            tag_531:\n                /* \"--CODEGEN--\":18787:18829   */\n              swap1\n              pop\n                /* \"--CODEGEN--\":18781:18834   */\n              swap2\n              swap1\n              pop\n              jump\n                /* \"--CODEGEN--\":18841:18933   */\n            tag_360:\n              0x00\n                /* \"--CODEGEN--\":18921:18926   */\n              dup2\n                /* \"--CODEGEN--\":18914:18927   */\n              iszero\n                /* \"--CODEGEN--\":18907:18928   */\n              iszero\n                /* \"--CODEGEN--\":18896:18928   */\n              swap1\n              pop\n                /* \"--CODEGEN--\":18890:18933   */\n              swap2\n              swap1\n              pop\n              jump\n                /* \"--CODEGEN--\":18941:19086   */\n            tag_370:\n                /* \"--CODEGEN--\":19022:19028   */\n              dup3\n                /* \"--CODEGEN--\":19017:19020   */\n              dup2\n                /* \"--CODEGEN--\":19012:19015   */\n              dup4\n                /* \"--CODEGEN--\":18999:19029   */\n              calldatacopy\n                /* \"--CODEGEN--\":19078:19079   */\n              0x00\n                /* \"--CODEGEN--\":19069:19075   */\n              dup4\n                /* \"--CODEGEN--\":19064:19067   */\n              dup4\n                /* \"--CODEGEN--\":19060:19076   */\n              add\n                /* \"--CODEGEN--\":19053:19080   */\n              mstore\n                /* \"--CODEGEN--\":18992:19086   */\n              pop\n              pop\n              pop\n              jump\n                /* \"--CODEGEN--\":19095:19363   */\n            tag_467:\n                /* \"--CODEGEN--\":19160:19161   */\n              0x00\n                /* \"--CODEGEN--\":19167:19268   */\n            tag_535:\n                /* \"--CODEGEN--\":19181:19187   */\n              dup4\n                /* \"--CODEGEN--\":19178:19179   */\n              dup2\n                /* \"--CODEGEN--\":19175:19188   */\n              lt\n                /* \"--CODEGEN--\":19167:19268   */\n              iszero\n              tag_536\n              jumpi\n                /* \"--CODEGEN--\":19257:19258   */\n              dup1\n                /* \"--CODEGEN--\":19252:19255   */\n              dup3\n                /* \"--CODEGEN--\":19248:19259   */\n              add\n                /* \"--CODEGEN--\":19242:19260   */\n              mload\n                /* \"--CODEGEN--\":19238:19239   */\n              dup2\n                /* \"--CODEGEN--\":19233:19236   */\n              dup5\n                /* \"--CODEGEN--\":19229:19240   */\n              add\n                /* \"--CODEGEN--\":19222:19261   */\n              mstore\n                /* \"--CODEGEN--\":19203:19205   */\n              0x20\n                /* \"--CODEGEN--\":19200:19201   */\n              dup2\n                /* \"--CODEGEN--\":19196:19206   */\n              add\n                /* \"--CODEGEN--\":19191:19206   */\n              swap1\n              pop\n                /* \"--CODEGEN--\":19167:19268   */\n              jump(tag_535)\n            tag_536:\n                /* \"--CODEGEN--\":19283:19289   */\n              dup4\n                /* \"--CODEGEN--\":19280:19281   */\n              dup2\n                /* \"--CODEGEN--\":19277:19290   */\n              gt\n                /* \"--CODEGEN--\":19274:19276   */\n              iszero\n              tag_538\n              jumpi\n                /* \"--CODEGEN--\":19348:19349   */\n              0x00\n                /* \"--CODEGEN--\":19339:19345   */\n              dup5\n                /* \"--CODEGEN--\":19334:19337   */\n              dup5\n                /* \"--CODEGEN--\":19330:19346   */\n              add\n                /* \"--CODEGEN--\":19323:19350   */\n              mstore\n                /* \"--CODEGEN--\":19274:19276   */\n            tag_538:\n                /* \"--CODEGEN--\":19144:19363   */\n              pop\n              pop\n              pop\n              pop\n              jump\n                /* \"--CODEGEN--\":19371:19468   */\n            tag_469:\n              0x00\n                /* \"--CODEGEN--\":19459:19461   */\n              0x1f\n                /* \"--CODEGEN--\":19455:19462   */\n              not\n                /* \"--CODEGEN--\":19450:19452   */\n              0x1f\n                /* \"--CODEGEN--\":19443:19448   */\n              dup4\n                /* \"--CODEGEN--\":19439:19453   */\n              add\n                /* \"--CODEGEN--\":19435:19463   */\n              and\n                /* \"--CODEGEN--\":19425:19463   */\n              swap1\n              pop\n                /* \"--CODEGEN--\":19419:19468   */\n              swap2\n              swap1\n              pop\n              jump\n\n            auxdata: 0xa265627a7a72305820dbf401886fd87f67790c85c7f79b93272fe77c64dc3547fdde407c33929cf2db6c6578706572696d656e74616cf50037\n        }\n    }\n\n    auxdata: 0xa265627a7a72305820a6770f694341e901e53d4caccb31372edb3af84e49c2bc7b8f0fc14f6f05d2906c6578706572696d656e74616cf50037\n}\n",
    "bytecode": {
      "linkReferences": {},
      "object": "608060405234801561001057600080fd5b5061575a806100206000396000f3fe60806040523480156200001157600080fd5b5060043610620000a5576000357c010000000000000000000000000000000000000000000000000000000090048063b721ef6e1162000080578063b721ef6e1462000120578063c23697a81462000158578063ca3a82bb146200018e578063f9c4092014620001c457620000a5565b80635e44b1f614620000aa578063996440c614620000ca5780639a62bbee1462000100575b600080fd5b620000c86004803603620000c2919081019062000924565b620001fa565b005b620000e86004803603620000e29190810190620008cc565b620003b0565b604051620000f7919062000c56565b60405180910390f35b6200011e6004803603620001189190810190620009ac565b62000419565b005b6200013e6004803603620001389190810190620008cc565b6200056e565b6040516200014f9392919062000ca0565b60405180910390f35b620001766004803603620001709190810190620008cc565b620006d0565b60405162000185919062000c56565b60405180910390f35b620001ac6004803603620001a69190810190620008f8565b620006f0565b604051620001bb919062000c39565b60405180910390f35b620001e26004803603620001dc9190810190620008f8565b6200072d565b604051620001f1919062000c39565b60405180910390f35b600160003373ffffffffffffffffffffffffffffffffffffffff1673ffffffffffffffffffffffffffffffffffffffff16815260200190815260200160002060009054906101000a900460ff161515620003ab576200025862000760565b60606040519081016040528085815260200184815260200183815250905060018060003373ffffffffffffffffffffffffffffffffffffffff1673ffffffffffffffffffffffffffffffffffffffff16815260200190815260200160002060006101000a81548160ff021916908315150217905550806000803373ffffffffffffffffffffffffffffffffffffffff1673ffffffffffffffffffffffffffffffffffffffff1681526020019081526020016000206000820151816000015560208201518160010190805190602001906200033492919062000782565b5060408201518160020190805190602001906200035392919062000782565b50905050336002600086815260200190815260200160002060006101000a81548173ffffffffffffffffffffffffffffffffffffffff021916908373ffffffffffffffffffffffffffffffffffffffff160217905550505b505050565b6000600160008373ffffffffffffffffffffffffffffffffffffffff1673ffffffffffffffffffffffffffffffffffffffff16815260200190815260200160002060009054906101000a900460ff16156200040f576001905062000414565b600090505b919050565b600160003373ffffffffffffffffffffffffffffffffffffffff1673ffffffffffffffffffffffffffffffffffffffff16815260200190815260200160002060009054906101000a900460ff16156200056257600073c821543770f3256f9f78354d6193777da338f6d1905060008b8b8b8b8b8b8b8b8b8b336200049c62000809565b620004b29b9a9998979695949392919062000ceb565b604051809103906000f080158015620004cf573d6000803e3d6000fd5b5090508173ffffffffffffffffffffffffffffffffffffffff1663510d7f8689836040518363ffffffff167c01000000000000000000000000000000000000000000000000000000000281526004016200052b92919062000c73565b600060405180830381600087803b1580156200054657600080fd5b505af11580156200055b573d6000803e3d6000fd5b5050505050505b50505050505050505050565b6000602052806000526040600020600091509050806000015490806001018054600181600116156101000203166002900480601f016020809104026020016040519081016040528092919081815260200182805460018160011615610100020316600290048015620006245780601f10620005f85761010080835404028352916020019162000624565b820191906000526020600020905b8154815290600101906020018083116200060657829003601f168201915b505050505090806002018054600181600116156101000203166002900480601f016020809104026020016040519081016040528092919081815260200182805460018160011615610100020316600290048015620006c65780601f106200069a57610100808354040283529160200191620006c6565b820191906000526020600020905b815481529060010190602001808311620006a857829003601f168201915b5050505050905083565b60016020528060005260406000206000915054906101000a900460ff1681565b60006002600083815260200190815260200160002060009054906101000a900473ffffffffffffffffffffffffffffffffffffffff169050919050565b60026020528060005260406000206000915054906101000a900473ffffffffffffffffffffffffffffffffffffffff1681565b6060604051908101604052806000815260200160608152602001606081525090565b828054600181600116156101000203166002900490600052602060002090601f016020900481019282601f10620007c557805160ff1916838001178555620007f6565b82800160010185558215620007f6579182015b82811115620007f5578251825591602001919060010190620007d8565b5b5090506200080591906200081a565b5090565b6040516147ca8062000f5783390190565b6200083f91905b808211156200083b57600081600090555060010162000821565b5090565b90565b600062000850823562000ea6565b905092915050565b600062000866823562000eba565b905092915050565b600082601f83011215156200088257600080fd5b813562000899620008938262000e19565b62000deb565b91508082526020830160208301858383011115620008b657600080fd5b620008c383828462000f00565b50505092915050565b600060208284031215620008df57600080fd5b6000620008ef8482850162000842565b91505092915050565b6000602082840312156200090b57600080fd5b60006200091b8482850162000858565b91505092915050565b6000806000606084860312156200093a57600080fd5b60006200094a8682870162000858565b935050602084013567ffffffffffffffff8111156200096857600080fd5b62000976868287016200086e565b925050604084013567ffffffffffffffff8111156200099457600080fd5b620009a2868287016200086e565b9150509250925092565b6000806000806000806000806000806101408b8d031215620009cd57600080fd5b60008b013567ffffffffffffffff811115620009e857600080fd5b620009f68d828e016200086e565b9a505060208b013567ffffffffffffffff81111562000a1457600080fd5b62000a228d828e016200086e565b99505060408b013567ffffffffffffffff81111562000a4057600080fd5b62000a4e8d828e016200086e565b98505060608b013567ffffffffffffffff81111562000a6c57600080fd5b62000a7a8d828e016200086e565b975050608062000a8d8d828e0162000858565b96505060a08b013567ffffffffffffffff81111562000aab57600080fd5b62000ab98d828e016200086e565b95505060c08b013567ffffffffffffffff81111562000ad757600080fd5b62000ae58d828e016200086e565b94505060e08b013567ffffffffffffffff81111562000b0357600080fd5b62000b118d828e016200086e565b9350506101008b013567ffffffffffffffff81111562000b3057600080fd5b62000b3e8d828e016200086e565b9250506101208b013567ffffffffffffffff81111562000b5d57600080fd5b62000b6b8d828e016200086e565b9150509295989b9194979a5092959850565b62000b888162000ec4565b82525050565b62000b998162000e5c565b82525050565b62000baa8162000e70565b82525050565b62000bbb8162000e7c565b82525050565b600062000bce8262000e51565b80845262000be481602086016020860162000f0f565b62000bef8162000f45565b602085010191505092915050565b600062000c0a8262000e46565b80845262000c2081602086016020860162000f0f565b62000c2b8162000f45565b602085010191505092915050565b600060208201905062000c50600083018462000b8e565b92915050565b600060208201905062000c6d600083018462000b9f565b92915050565b600060408201905062000c8a600083018562000bb0565b62000c99602083018462000b8e565b9392505050565b600060608201905062000cb7600083018662000bb0565b818103602083015262000ccb818562000bfd565b9050818103604083015262000ce1818462000bfd565b9050949350505050565b600061016082019050818103600083015262000d08818e62000bc1565b9050818103602083015262000d1e818d62000bc1565b9050818103604083015262000d34818c62000bc1565b9050818103606083015262000d4a818b62000bc1565b905062000d5b608083018a62000bb0565b81810360a083015262000d6f818962000bc1565b905081810360c083015262000d85818862000bc1565b905081810360e083015262000d9b818762000bc1565b905081810361010083015262000db2818662000bc1565b905081810361012083015262000dc9818562000bc1565b905062000ddb61014083018462000b7d565b9c9b505050505050505050505050565b6000604051905081810181811067ffffffffffffffff8211171562000e0f57600080fd5b8060405250919050565b600067ffffffffffffffff82111562000e3157600080fd5b601f19601f8301169050602081019050919050565b600081519050919050565b600081519050919050565b600062000e698262000e86565b9050919050565b60008115159050919050565b6000819050919050565b600073ffffffffffffffffffffffffffffffffffffffff82169050919050565b600062000eb38262000e86565b9050919050565b6000819050919050565b600062000ed18262000ed8565b9050919050565b600062000ee58262000eec565b9050919050565b600062000ef98262000e86565b9050919050565b82818337600083830152505050565b60005b8381101562000f2f57808201518184015260208101905062000f12565b8381111562000f3f576000848401525b50505050565b6000601f19601f830116905091905056fe60806040523480156200001157600080fd5b50604051620047ca380380620047ca833981018060405262000037919081019062000408565b6200004162000202565b610100604051908101604052808d81526020018c81526020018b81526020018a8152602001898152602001888152602001878152602001868152509050806000808201518160000190805190602001906200009e92919062000248565b506020820151816001019080519060200190620000bd92919062000248565b506040820151816002019080519060200190620000dc92919062000248565b506060820151816003019080519060200190620000fb92919062000248565b506080820151816004015560a08201518160050190805190602001906200012492919062000248565b5060c08201518160060190805190602001906200014392919062000248565b5060e08201518160070190805190602001906200016292919062000248565b5090505083601590805190602001906200017e929190620002cf565b50826016908051906020019062000197929190620002cf565b506001601460008473ffffffffffffffffffffffffffffffffffffffff1673ffffffffffffffffffffffffffffffffffffffff16815260200190815260200160002060006101000a81548160ff021916908315150217905550505050505050505050505050620006bf565b6101006040519081016040528060608152602001606081526020016060815260200160608152602001600081526020016060815260200160608152602001606081525090565b828054600181600116156101000203166002900490600052602060002090601f016020900481019282601f106200028b57805160ff1916838001178555620002bc565b82800160010185558215620002bc579182015b82811115620002bb5782518255916020019190600101906200029e565b5b509050620002cb919062000356565b5090565b828054600181600116156101000203166002900490600052602060002090601f016020900481019282601f106200031257805160ff191683800117855562000343565b8280016001018555821562000343579182015b828111156200034257825182559160200191906001019062000325565b5b50905062000352919062000356565b5090565b6200037b91905b80821115620003775760008160009055506001016200035d565b5090565b90565b60006200038c82516200066b565b905092915050565b6000620003a282516200067f565b905092915050565b600082601f8301121515620003be57600080fd5b8151620003d5620003cf826200061e565b620005f0565b91508082526020830160208301858383011115620003f257600080fd5b620003ff83828462000689565b50505092915050565b60008060008060008060008060008060006101608c8e0312156200042b57600080fd5b60008c015167ffffffffffffffff8111156200044657600080fd5b620004548e828f01620003aa565b9b505060208c015167ffffffffffffffff8111156200047257600080fd5b620004808e828f01620003aa565b9a505060408c015167ffffffffffffffff8111156200049e57600080fd5b620004ac8e828f01620003aa565b99505060608c015167ffffffffffffffff811115620004ca57600080fd5b620004d88e828f01620003aa565b9850506080620004eb8e828f0162000394565b97505060a08c015167ffffffffffffffff8111156200050957600080fd5b620005178e828f01620003aa565b96505060c08c015167ffffffffffffffff8111156200053557600080fd5b620005438e828f01620003aa565b95505060e08c015167ffffffffffffffff8111156200056157600080fd5b6200056f8e828f01620003aa565b9450506101008c015167ffffffffffffffff8111156200058e57600080fd5b6200059c8e828f01620003aa565b9350506101208c015167ffffffffffffffff811115620005bb57600080fd5b620005c98e828f01620003aa565b925050610140620005dd8e828f016200037e565b9150509295989b509295989b9093969950565b6000604051905081810181811067ffffffffffffffff821117156200061457600080fd5b8060405250919050565b600067ffffffffffffffff8211156200063657600080fd5b601f19601f8301169050602081019050919050565b600073ffffffffffffffffffffffffffffffffffffffff82169050919050565b600062000678826200064b565b9050919050565b6000819050919050565b60005b83811015620006a95780820151818401526020810190506200068c565b83811115620006b9576000848401525b50505050565b6140fb80620006cf6000396000f3fe608060405234801561001057600080fd5b50600436106100c6576000357c0100000000000000000000000000000000000000000000000000000000900480636a8288121161008e5780636a8288121461018957806374222ff3146101a55780637ec35b0a146101c1578063c88039f2146101f1578063d70655581461020d578063f851c44c1461023d576100c6565b806310be6c33146100cb57806326ef8ef4146100e75780633a6a7c9d1461011a5780633ef7b4fd146101385780634344b74314610168575b600080fd5b6100e560048036036100e091908101906136bf565b61025b565b005b61010160048036036100fc9190810190613793565b6103e8565b6040516101119493929190613ec1565b60405180910390f35b61012261163f565b60405161012f9190613f1b565b60405180910390f35b610152600480360361014d9190810190613793565b6116f5565b60405161015f9190613f1b565b60405180910390f35b6101706117ad565b6040516101809493929190613ec1565b60405180910390f35b6101a3600480360361019e9190810190613986565b612a03565b005b6101bf60048036036101ba9190810190613897565b612bb7565b005b6101db60048036036101d69190810190613793565b612ed2565b6040516101e89190613ea6565b60405180910390f35b61020b600480360361020691908101906137d4565b612fdc565b005b6102276004803603610222919081019061366d565b61317f565b6040516102349190613ea6565b60405180910390f35b61024561335c565b6040516102529190613f1b565b60405180910390f35b601560405160200180828054600181600116156101000203166002900480156102bb5780601f106102995761010080835404028352918201916102bb565b820191906000526020600020905b8154815290600101906020018083116102a7575b505091505060405160208183030381529060405280519060200120836040516020018082805190602001908083835b60208310151561030f57805182526020820191506020810190506020830392506102ea565b6001836020036101000a0380198251168184511680821785525050505050509050019150506040516020818303038152906040528051906020012014156103e2576001601460008673ffffffffffffffffffffffffffffffffffffffff1673ffffffffffffffffffffffffffffffffffffffff16815260200190815260200160002060006101000a81548160ff0219169083151502179055507fef0f252fa7157cbc267992e6ffb0392cef11ce000a6e683e67df6b4c493ec5dd82826040516103d9929190613f3d565b60405180910390a15b50505050565b60006103f2613401565b6103fa613447565b61040261348d565b61040b85612ed2565b15611180576001600060086010826101006040519081016040529081600082018054600181600116156101000203166002900480601f0160208091040260200160405190810160405280929190818152602001828054600181600116156101000203166002900480156104bf5780601f10610494576101008083540402835291602001916104bf565b820191906000526020600020905b8154815290600101906020018083116104a257829003601f168201915b50505050508152602001600182018054600181600116156101000203166002900480601f0160208091040260200160405190810160405280929190818152602001828054600181600116156101000203166002900480156105615780601f1061053657610100808354040283529160200191610561565b820191906000526020600020905b81548152906001019060200180831161054457829003601f168201915b50505050508152602001600282018054600181600116156101000203166002900480601f0160208091040260200160405190810160405280929190818152602001828054600181600116156101000203166002900480156106035780601f106105d857610100808354040283529160200191610603565b820191906000526020600020905b8154815290600101906020018083116105e657829003601f168201915b50505050508152602001600382018054600181600116156101000203166002900480601f0160208091040260200160405190810160405280929190818152602001828054600181600116156101000203166002900480156106a55780601f1061067a576101008083540402835291602001916106a5565b820191906000526020600020905b81548152906001019060200180831161068857829003601f168201915b5050505050815260200160048201548152602001600582018054600181600116156101000203166002900480601f0160208091040260200160405190810160405280929190818152602001828054600181600116156101000203166002900480156107515780601f1061072657610100808354040283529160200191610751565b820191906000526020600020905b81548152906001019060200180831161073457829003601f168201915b50505050508152602001600682018054600181600116156101000203166002900480601f0160208091040260200160405190810160405280929190818152602001828054600181600116156101000203166002900480156107f35780601f106107c8576101008083540402835291602001916107f3565b820191906000526020600020905b8154815290600101906020018083116107d657829003601f168201915b50505050508152602001600782018054600181600116156101000203166002900480601f0160208091040260200160405190810160405280929190818152602001828054600181600116156101000203166002900480156108955780601f1061086a57610100808354040283529160200191610895565b820191906000526020600020905b81548152906001019060200180831161087857829003601f168201915b5050505050815250509250816101006040519081016040529081600082018054600181600116156101000203166002900480601f0160208091040260200160405190810160405280929190818152602001828054600181600116156101000203166002900480156109475780601f1061091c57610100808354040283529160200191610947565b820191906000526020600020905b81548152906001019060200180831161092a57829003601f168201915b50505050508152602001600182018054600181600116156101000203166002900480601f0160208091040260200160405190810160405280929190818152602001828054600181600116156101000203166002900480156109e95780601f106109be576101008083540402835291602001916109e9565b820191906000526020600020905b8154815290600101906020018083116109cc57829003601f168201915b50505050508152602001600282018054600181600116156101000203166002900480601f016020809104026020016040519081016040528092919081815260200182805460018160011615610100020316600290048015610a8b5780601f10610a6057610100808354040283529160200191610a8b565b820191906000526020600020905b815481529060010190602001808311610a6e57829003601f168201915b50505050508152602001600382018054600181600116156101000203166002900480601f016020809104026020016040519081016040528092919081815260200182805460018160011615610100020316600290048015610b2d5780601f10610b0257610100808354040283529160200191610b2d565b820191906000526020600020905b815481529060010190602001808311610b1057829003601f168201915b50505050508152602001600482018054600181600116156101000203166002900480601f016020809104026020016040519081016040528092919081815260200182805460018160011615610100020316600290048015610bcf5780601f10610ba457610100808354040283529160200191610bcf565b820191906000526020600020905b815481529060010190602001808311610bb257829003601f168201915b50505050508152602001600582018054600181600116156101000203166002900480601f016020809104026020016040519081016040528092919081815260200182805460018160011615610100020316600290048015610c715780601f10610c4657610100808354040283529160200191610c71565b820191906000526020600020905b815481529060010190602001808311610c5457829003601f168201915b50505050508152602001600682018054600181600116156101000203166002900480601f016020809104026020016040519081016040528092919081815260200182805460018160011615610100020316600290048015610d135780601f10610ce857610100808354040283529160200191610d13565b820191906000526020600020905b815481529060010190602001808311610cf657829003601f168201915b50505050508152602001600782018054600181600116156101000203166002900480601f016020809104026020016040519081016040528092919081815260200182805460018160011615610100020316600290048015610db55780601f10610d8a57610100808354040283529160200191610db5565b820191906000526020600020905b815481529060010190602001808311610d9857829003601f168201915b5050505050815250509150806080604051908101604052908160008201805480602002602001604051908101604052809291908181526020016000905b82821015610eae578382906000526020600020018054600181600116156101000203166002900480601f016020809104026020016040519081016040528092919081815260200182805460018160011615610100020316600290048015610e9a5780601f10610e6f57610100808354040283529160200191610e9a565b820191906000526020600020905b815481529060010190602001808311610e7d57829003601f168201915b505050505081526020019060010190610df2565b50505050815260200160018201805480602002602001604051908101604052809291908181526020016000905b82821015610f97578382906000526020600020018054600181600116156101000203166002900480601f016020809104026020016040519081016040528092919081815260200182805460018160011615610100020316600290048015610f835780601f10610f5857610100808354040283529160200191610f83565b820191906000526020600020905b815481529060010190602001808311610f6657829003601f168201915b505050505081526020019060010190610edb565b50505050815260200160028201805480602002602001604051908101604052809291908181526020016000905b82821015611080578382906000526020600020018054600181600116156101000203166002900480601f01602080910402602001604051908101604052809291908181526020018280546001816001161561010002031660029004801561106c5780601f106110415761010080835404028352916020019161106c565b820191906000526020600020905b81548152906001019060200180831161104f57829003601f168201915b505050505081526020019060010190610fc4565b50505050815260200160038201805480602002602001604051908101604052809291908181526020016000905b82821015611169578382906000526020600020018054600181600116156101000203166002900480601f0160208091040260200160405190810160405280929190818152602001828054600181600116156101000203166002900480156111555780601f1061112a57610100808354040283529160200191611155565b820191906000526020600020905b81548152906001019060200180831161113857829003601f168201915b5050505050815260200190600101906110ad565b505050508152505090509350935093509350611638565b611188613401565b610100604051908101604052806040805190810160405280600381526020017f787878000000000000000000000000000000000000000000000000000000000081525081526020016040805190810160405280600381526020017f787878000000000000000000000000000000000000000000000000000000000081525081526020016040805190810160405280600381526020017f787878000000000000000000000000000000000000000000000000000000000081525081526020016040805190810160405280600381526020017f787878000000000000000000000000000000000000000000000000000000000081525081526020016103e781526020016040805190810160405280600381526020017f787878000000000000000000000000000000000000000000000000000000000081525081526020016040805190810160405280600381526020017f787878000000000000000000000000000000000000000000000000000000000081525081526020016040805190810160405280600381526020017f78787800000000000000000000000000000000000000000000000000000000008152508152509050611342613447565b610100604051908101604052806040805190810160405280600381526020017f787878000000000000000000000000000000000000000000000000000000000081525081526020016040805190810160405280600381526020017f787878000000000000000000000000000000000000000000000000000000000081525081526020016040805190810160405280600381526020017f787878000000000000000000000000000000000000000000000000000000000081525081526020016040805190810160405280600381526020017f787878000000000000000000000000000000000000000000000000000000000081525081526020016040805190810160405280600381526020017f787878000000000000000000000000000000000000000000000000000000000081525081526020016040805190810160405280600381526020017f787878000000000000000000000000000000000000000000000000000000000081525081526020016040805190810160405280600381526020017f787878000000000000000000000000000000000000000000000000000000000081525081526020016040805190810160405280600381526020017f7878780000000000000000000000000000000000000000000000000000000000815250815250905061152f61348d565b608060405190810160405280600160405190808252806020026020018201604052801561157057816020015b606081526020019060019003908161155b5790505b50815260200160016040519080825280602002602001820160405280156115ab57816020015b60608152602001906001900390816115965790505b50815260200160016040519080825280602002602001820160405280156115e657816020015b60608152602001906001900390816115d15790505b508152602001600160405190808252806020026020018201604052801561162157816020015b606081526020019060019003908161160c5790505b508152509050600083838396509650965096505050505b9193509193565b606061164a3361317f565b156116f15760168054600181600116156101000203166002900480601f0160208091040260200160405190810160405280929190818152602001828054600181600116156101000203166002900480156116e55780601f106116ba576101008083540402835291602001916116e5565b820191906000526020600020905b8154815290600101906020018083116116c857829003601f168201915b505050505090506116f2565b5b90565b606061170082612ed2565b156117a75760168054600181600116156101000203166002900480601f01602080910402602001604051908101604052809291908181526020018280546001816001161561010002031660029004801561179b5780601f106117705761010080835404028352916020019161179b565b820191906000526020600020905b81548152906001019060200180831161177e57829003601f168201915b505050505090506117a8565b5b919050565b60006117b7613401565b6117bf613447565b6117c761348d565b6117d03361317f565b15612545576001600060086010826101006040519081016040529081600082018054600181600116156101000203166002900480601f0160208091040260200160405190810160405280929190818152602001828054600181600116156101000203166002900480156118845780601f1061185957610100808354040283529160200191611884565b820191906000526020600020905b81548152906001019060200180831161186757829003601f168201915b50505050508152602001600182018054600181600116156101000203166002900480601f0160208091040260200160405190810160405280929190818152602001828054600181600116156101000203166002900480156119265780601f106118fb57610100808354040283529160200191611926565b820191906000526020600020905b81548152906001019060200180831161190957829003601f168201915b50505050508152602001600282018054600181600116156101000203166002900480601f0160208091040260200160405190810160405280929190818152602001828054600181600116156101000203166002900480156119c85780601f1061199d576101008083540402835291602001916119c8565b820191906000526020600020905b8154815290600101906020018083116119ab57829003601f168201915b50505050508152602001600382018054600181600116156101000203166002900480601f016020809104026020016040519081016040528092919081815260200182805460018160011615610100020316600290048015611a6a5780601f10611a3f57610100808354040283529160200191611a6a565b820191906000526020600020905b815481529060010190602001808311611a4d57829003601f168201915b5050505050815260200160048201548152602001600582018054600181600116156101000203166002900480601f016020809104026020016040519081016040528092919081815260200182805460018160011615610100020316600290048015611b165780601f10611aeb57610100808354040283529160200191611b16565b820191906000526020600020905b815481529060010190602001808311611af957829003601f168201915b50505050508152602001600682018054600181600116156101000203166002900480601f016020809104026020016040519081016040528092919081815260200182805460018160011615610100020316600290048015611bb85780601f10611b8d57610100808354040283529160200191611bb8565b820191906000526020600020905b815481529060010190602001808311611b9b57829003601f168201915b50505050508152602001600782018054600181600116156101000203166002900480601f016020809104026020016040519081016040528092919081815260200182805460018160011615610100020316600290048015611c5a5780601f10611c2f57610100808354040283529160200191611c5a565b820191906000526020600020905b815481529060010190602001808311611c3d57829003601f168201915b5050505050815250509250816101006040519081016040529081600082018054600181600116156101000203166002900480601f016020809104026020016040519081016040528092919081815260200182805460018160011615610100020316600290048015611d0c5780601f10611ce157610100808354040283529160200191611d0c565b820191906000526020600020905b815481529060010190602001808311611cef57829003601f168201915b50505050508152602001600182018054600181600116156101000203166002900480601f016020809104026020016040519081016040528092919081815260200182805460018160011615610100020316600290048015611dae5780601f10611d8357610100808354040283529160200191611dae565b820191906000526020600020905b815481529060010190602001808311611d9157829003601f168201915b50505050508152602001600282018054600181600116156101000203166002900480601f016020809104026020016040519081016040528092919081815260200182805460018160011615610100020316600290048015611e505780601f10611e2557610100808354040283529160200191611e50565b820191906000526020600020905b815481529060010190602001808311611e3357829003601f168201915b50505050508152602001600382018054600181600116156101000203166002900480601f016020809104026020016040519081016040528092919081815260200182805460018160011615610100020316600290048015611ef25780601f10611ec757610100808354040283529160200191611ef2565b820191906000526020600020905b815481529060010190602001808311611ed557829003601f168201915b50505050508152602001600482018054600181600116156101000203166002900480601f016020809104026020016040519081016040528092919081815260200182805460018160011615610100020316600290048015611f945780601f10611f6957610100808354040283529160200191611f94565b820191906000526020600020905b815481529060010190602001808311611f7757829003601f168201915b50505050508152602001600582018054600181600116156101000203166002900480601f0160208091040260200160405190810160405280929190818152602001828054600181600116156101000203166002900480156120365780601f1061200b57610100808354040283529160200191612036565b820191906000526020600020905b81548152906001019060200180831161201957829003601f168201915b50505050508152602001600682018054600181600116156101000203166002900480601f0160208091040260200160405190810160405280929190818152602001828054600181600116156101000203166002900480156120d85780601f106120ad576101008083540402835291602001916120d8565b820191906000526020600020905b8154815290600101906020018083116120bb57829003601f168201915b50505050508152602001600782018054600181600116156101000203166002900480601f01602080910402602001604051908101604052809291908181526020018280546001816001161561010002031660029004801561217a5780601f1061214f5761010080835404028352916020019161217a565b820191906000526020600020905b81548152906001019060200180831161215d57829003601f168201915b5050505050815250509150806080604051908101604052908160008201805480602002602001604051908101604052809291908181526020016000905b82821015612273578382906000526020600020018054600181600116156101000203166002900480601f01602080910402602001604051908101604052809291908181526020018280546001816001161561010002031660029004801561225f5780601f106122345761010080835404028352916020019161225f565b820191906000526020600020905b81548152906001019060200180831161224257829003601f168201915b5050505050815260200190600101906121b7565b50505050815260200160018201805480602002602001604051908101604052809291908181526020016000905b8282101561235c578382906000526020600020018054600181600116156101000203166002900480601f0160208091040260200160405190810160405280929190818152602001828054600181600116156101000203166002900480156123485780601f1061231d57610100808354040283529160200191612348565b820191906000526020600020905b81548152906001019060200180831161232b57829003601f168201915b5050505050815260200190600101906122a0565b50505050815260200160028201805480602002602001604051908101604052809291908181526020016000905b82821015612445578382906000526020600020018054600181600116156101000203166002900480601f0160208091040260200160405190810160405280929190818152602001828054600181600116156101000203166002900480156124315780601f1061240657610100808354040283529160200191612431565b820191906000526020600020905b81548152906001019060200180831161241457829003601f168201915b505050505081526020019060010190612389565b50505050815260200160038201805480602002602001604051908101604052809291908181526020016000905b8282101561252e578382906000526020600020018054600181600116156101000203166002900480601f01602080910402602001604051908101604052809291908181526020018280546001816001161561010002031660029004801561251a5780601f106124ef5761010080835404028352916020019161251a565b820191906000526020600020905b8154815290600101906020018083116124fd57829003601f168201915b505050505081526020019060010190612472565b5050505081525050905093509350935093506129fd565b61254d613401565b610100604051908101604052806040805190810160405280600381526020017f787878000000000000000000000000000000000000000000000000000000000081525081526020016040805190810160405280600381526020017f787878000000000000000000000000000000000000000000000000000000000081525081526020016040805190810160405280600381526020017f787878000000000000000000000000000000000000000000000000000000000081525081526020016040805190810160405280600381526020017f787878000000000000000000000000000000000000000000000000000000000081525081526020016103e781526020016040805190810160405280600381526020017f787878000000000000000000000000000000000000000000000000000000000081525081526020016040805190810160405280600381526020017f787878000000000000000000000000000000000000000000000000000000000081525081526020016040805190810160405280600381526020017f78787800000000000000000000000000000000000000000000000000000000008152508152509050612707613447565b610100604051908101604052806040805190810160405280600381526020017f787878000000000000000000000000000000000000000000000000000000000081525081526020016040805190810160405280600381526020017f787878000000000000000000000000000000000000000000000000000000000081525081526020016040805190810160405280600381526020017f787878000000000000000000000000000000000000000000000000000000000081525081526020016040805190810160405280600381526020017f787878000000000000000000000000000000000000000000000000000000000081525081526020016040805190810160405280600381526020017f787878000000000000000000000000000000000000000000000000000000000081525081526020016040805190810160405280600381526020017f787878000000000000000000000000000000000000000000000000000000000081525081526020016040805190810160405280600381526020017f787878000000000000000000000000000000000000000000000000000000000081525081526020016040805190810160405280600381526020017f787878000000000000000000000000000000000000000000000000000000000081525081525090506128f461348d565b608060405190810160405280600160405190808252806020026020018201604052801561293557816020015b60608152602001906001900390816129205790505b508152602001600160405190808252806020026020018201604052801561297057816020015b606081526020019060019003908161295b5790505b50815260200160016040519080825280602002602001820160405280156129ab57816020015b60608152602001906001900390816129965790505b50815260200160016040519080825280602002602001820160405280156129e657816020015b60608152602001906001900390816129d15790505b508152509050600083838396509650965096505050505b90919293565b612a0c3361317f565b15612bab57612a19613447565b610100604051908101604052808c81526020018b81526020018a81526020018981526020018881526020018781526020018681526020018581525090508060086000820151816000019080519060200190612a759291906134b6565b506020820151816001019080519060200190612a929291906134b6565b506040820151816002019080519060200190612aaf9291906134b6565b506060820151816003019080519060200190612acc9291906134b6565b506080820151816004019080519060200190612ae99291906134b6565b5060a0820151816005019080519060200190612b069291906134b6565b5060c0820151816006019080519060200190612b239291906134b6565b5060e0820151816007019080519060200190612b409291906134b6565b509050507f2b94f1e9999ff685f243474c3b8c30563987b8897fecb35c7cea9ac0f4f5c6bd60405160405180910390a17fef0f252fa7157cbc267992e6ffb0392cef11ce000a6e683e67df6b4c493ec5dd8383604051612ba1929190613f3d565b60405180910390a1505b50505050505050505050565b612bc03361317f565b15612ecb5760405160200180600001905060405160208183030381529060405280519060200120856040516020018082805190602001908083835b602083101515612c205780518252602082019150602081019050602083039250612bfb565b6001836020036101000a03801982511681845116808217855250505050505090500191505060405160208183030381529060405280519060200120141515612ca5576010600001859080600181540180825580915050906001820390600052602060002001600090919290919091509080519060200190612ca2929190613536565b50505b60405160200180600001905060405160208183030381529060405280519060200120846040516020018082805190602001908083835b602083101515612d005780518252602082019150602081019050602083039250612cdb565b6001836020036101000a03801982511681845116808217855250505050505090500191505060405160208183030381529060405280519060200120141515612d85576010600101849080600181540180825580915050906001820390600052602060002001600090919290919091509080519060200190612d82929190613536565b50505b60405160200180600001905060405160208183030381529060405280519060200120836040516020018082805190602001908083835b602083101515612de05780518252602082019150602081019050602083039250612dbb565b6001836020036101000a03801982511681845116808217855250505050505090500191505060405160208183030381529060405280519060200120141515612e65576010600201839080600181540180825580915050906001820390600052602060002001600090919290919091509080519060200190612e62929190613536565b50505b7f2b94f1e9999ff685f243474c3b8c30563987b8897fecb35c7cea9ac0f4f5c6bd60405160405180910390a17fef0f252fa7157cbc267992e6ffb0392cef11ce000a6e683e67df6b4c493ec5dd8282604051612ec2929190613f3d565b60405180910390a15b5050505050565b600060156040516020018082805460018160011615610100020316600290048015612f345780601f10612f12576101008083540402835291820191612f34565b820191906000526020600020905b815481529060010190602001808311612f20575b505091505060405160208183030381529060405280519060200120826040516020018082805190602001908083835b602083101515612f885780518252602082019150602081019050602083039250612f63565b6001836020036101000a038019825116818451168082178552505050505050905001915050604051602081830303815290604052805190602001201415612fd25760019050612fd7565b600090505b919050565b6015604051602001808280546001816001161561010002031660029004801561303c5780601f1061301a57610100808354040283529182019161303c565b820191906000526020600020905b815481529060010190602001808311613028575b505091505060405160208183030381529060405280519060200120836040516020018082805190602001908083835b602083101515613090578051825260208201915060208101905060208303925061306b565b6001836020036101000a038019825116818451168082178552505050505050905001915050604051602081830303815290604052805190602001201415613179576010600301849080600181540180825580915050906001820390600052602060002001600090919290919091509080519060200190613111929190613536565b50507f2b94f1e9999ff685f243474c3b8c30563987b8897fecb35c7cea9ac0f4f5c6bd60405160405180910390a17fef0f252fa7157cbc267992e6ffb0392cef11ce000a6e683e67df6b4c493ec5dd8282604051613170929190613f3d565b60405180910390a15b50505050565b60008073034e524e35a165c5d829b2985eadde75562ed15c905060008173ffffffffffffffffffffffffffffffffffffffff1663ff76a7396040518163ffffffff167c010000000000000000000000000000000000000000000000000000000002815260040160206040518083038186803b1580156131fd57600080fd5b505afa158015613211573d6000803e3d6000fd5b505050506040513d601f19601f820116820180604052506132359190810190613696565b90508073ffffffffffffffffffffffffffffffffffffffff1663996440c6856040518263ffffffff167c010000000000000000000000000000000000000000000000000000000002815260040161328c9190613e8b565b60206040518083038186803b1580156132a457600080fd5b505afa1580156132b8573d6000803e3d6000fd5b505050506040513d601f19601f820116820180604052506132dc919081019061376a565b156133505760011515601460008673ffffffffffffffffffffffffffffffffffffffff1673ffffffffffffffffffffffffffffffffffffffff16815260200190815260200160002060009054906101000a900460ff161515141561334557600192505050613357565b600092505050613357565b6000925050505b919050565b606060086007018054600181600116156101000203166002900480601f0160208091040260200160405190810160405280929190818152602001828054600181600116156101000203166002900480156133f75780601f106133cc576101008083540402835291602001916133f7565b820191906000526020600020905b8154815290600101906020018083116133da57829003601f168201915b5050505050905090565b6101006040519081016040528060608152602001606081526020016060815260200160608152602001600081526020016060815260200160608152602001606081525090565b6101006040519081016040528060608152602001606081526020016060815260200160608152602001606081526020016060815260200160608152602001606081525090565b608060405190810160405280606081526020016060815260200160608152602001606081525090565b828054600181600116156101000203166002900490600052602060002090601f016020900481019282601f106134f757805160ff1916838001178555613525565b82800160010185558215613525579182015b82811115613524578251825591602001919060010190613509565b5b50905061353291906135b6565b5090565b828054600181600116156101000203166002900490600052602060002090601f016020900481019282601f1061357757805160ff19168380011785556135a5565b828001600101855582156135a5579182015b828111156135a4578251825591602001919060010190613589565b5b5090506135b291906135b6565b5090565b6135d891905b808211156135d45760008160009055506001016135bc565b5090565b90565b60006135e78235614050565b905092915050565b60006135fb8251614050565b905092915050565b600061360f8251614062565b905092915050565b600082601f830112151561362a57600080fd5b813561363d61363882613fa1565b613f74565b9150808252602083016020830185838301111561365957600080fd5b61366483828461406e565b50505092915050565b60006020828403121561367f57600080fd5b600061368d848285016135db565b91505092915050565b6000602082840312156136a857600080fd5b60006136b6848285016135ef565b91505092915050565b600080600080608085870312156136d557600080fd5b60006136e3878288016135db565b945050602085013567ffffffffffffffff81111561370057600080fd5b61370c87828801613617565b935050604085013567ffffffffffffffff81111561372957600080fd5b61373587828801613617565b925050606085013567ffffffffffffffff81111561375257600080fd5b61375e87828801613617565b91505092959194509250565b60006020828403121561377c57600080fd5b600061378a84828501613603565b91505092915050565b6000602082840312156137a557600080fd5b600082013567ffffffffffffffff8111156137bf57600080fd5b6137cb84828501613617565b91505092915050565b600080600080608085870312156137ea57600080fd5b600085013567ffffffffffffffff81111561380457600080fd5b61381087828801613617565b945050602085013567ffffffffffffffff81111561382d57600080fd5b61383987828801613617565b935050604085013567ffffffffffffffff81111561385657600080fd5b61386287828801613617565b925050606085013567ffffffffffffffff81111561387f57600080fd5b61388b87828801613617565b91505092959194509250565b600080600080600060a086880312156138af57600080fd5b600086013567ffffffffffffffff8111156138c957600080fd5b6138d588828901613617565b955050602086013567ffffffffffffffff8111156138f257600080fd5b6138fe88828901613617565b945050604086013567ffffffffffffffff81111561391b57600080fd5b61392788828901613617565b935050606086013567ffffffffffffffff81111561394457600080fd5b61395088828901613617565b925050608086013567ffffffffffffffff81111561396d57600080fd5b61397988828901613617565b9150509295509295909350565b6000806000806000806000806000806101408b8d0312156139a657600080fd5b60008b013567ffffffffffffffff8111156139c057600080fd5b6139cc8d828e01613617565b9a505060208b013567ffffffffffffffff8111156139e957600080fd5b6139f58d828e01613617565b99505060408b013567ffffffffffffffff811115613a1257600080fd5b613a1e8d828e01613617565b98505060608b013567ffffffffffffffff811115613a3b57600080fd5b613a478d828e01613617565b97505060808b013567ffffffffffffffff811115613a6457600080fd5b613a708d828e01613617565b96505060a08b013567ffffffffffffffff811115613a8d57600080fd5b613a998d828e01613617565b95505060c08b013567ffffffffffffffff811115613ab657600080fd5b613ac28d828e01613617565b94505060e08b013567ffffffffffffffff811115613adf57600080fd5b613aeb8d828e01613617565b9350506101008b013567ffffffffffffffff811115613b0957600080fd5b613b158d828e01613617565b9250506101208b013567ffffffffffffffff811115613b3357600080fd5b613b3f8d828e01613617565b9150509295989b9194979a5092959850565b613b5a81614008565b82525050565b6000613b6b82613fda565b80845260208401935083602082028501613b8485613fcd565b60005b84811015613bbd578383038852613b9f838351613c22565b9250613baa82613ffb565b9150602088019750600181019050613b87565b508196508694505050505092915050565b613bd78161401a565b82525050565b613be681614026565b82525050565b6000613bf782613ff0565b808452613c0b81602086016020860161407d565b613c14816140b0565b602085010191505092915050565b6000613c2d82613fe5565b808452613c4181602086016020860161407d565b613c4a816140b0565b602085010191505092915050565b60006080830160008301518482036000860152613c758282613b60565b91505060208301518482036020860152613c8f8282613b60565b91505060408301518482036040860152613ca98282613b60565b91505060608301518482036060860152613cc38282613b60565b9150508091505092915050565b6000610100830160008301518482036000860152613cee8282613c22565b91505060208301518482036020860152613d088282613c22565b91505060408301518482036040860152613d228282613c22565b91505060608301518482036060860152613d3c8282613c22565b9150506080830151613d516080860182613bdd565b5060a083015184820360a0860152613d698282613c22565b91505060c083015184820360c0860152613d838282613c22565b91505060e083015184820360e0860152613d9d8282613c22565b9150508091505092915050565b6000610100830160008301518482036000860152613dc88282613c22565b91505060208301518482036020860152613de28282613c22565b91505060408301518482036040860152613dfc8282613c22565b91505060608301518482036060860152613e168282613c22565b91505060808301518482036080860152613e308282613c22565b91505060a083015184820360a0860152613e4a8282613c22565b91505060c083015184820360c0860152613e648282613c22565b91505060e083015184820360e0860152613e7e8282613c22565b9150508091505092915050565b6000602082019050613ea06000830184613b51565b92915050565b6000602082019050613ebb6000830184613bce565b92915050565b6000608082019050613ed66000830187613bce565b8181036020830152613ee88186613cd0565b90508181036040830152613efc8185613daa565b90508181036060830152613f108184613c58565b905095945050505050565b60006020820190508181036000830152613f358184613bec565b905092915050565b60006040820190508181036000830152613f578185613bec565b90508181036020830152613f6b8184613bec565b90509392505050565b6000604051905081810181811067ffffffffffffffff82111715613f9757600080fd5b8060405250919050565b600067ffffffffffffffff821115613fb857600080fd5b601f19601f8301169050602081019050919050565b6000602082019050919050565b600081519050919050565b600081519050919050565b600081519050919050565b6000602082019050919050565b600061401382614030565b9050919050565b60008115159050919050565b6000819050919050565b600073ffffffffffffffffffffffffffffffffffffffff82169050919050565b600061405b82614030565b9050919050565b60008115159050919050565b82818337600083830152505050565b60005b8381101561409b578082015181840152602081019050614080565b838111156140aa576000848401525b50505050565b6000601f19601f830116905091905056fea265627a7a72305820dbf401886fd87f67790c85c7f79b93272fe77c64dc3547fdde407c33929cf2db6c6578706572696d656e74616cf50037a265627a7a72305820a6770f694341e901e53d4caccb31372edb3af84e49c2bc7b8f0fc14f6f05d2906c6578706572696d656e74616cf50037",
      "opcodes": "PUSH1 0x80 PUSH1 0x40 MSTORE CALLVALUE DUP1 ISZERO PUSH2 0x10 JUMPI PUSH1 0x0 DUP1 REVERT JUMPDEST POP PUSH2 0x575A DUP1 PUSH2 0x20 PUSH1 0x0 CODECOPY PUSH1 0x0 RETURN INVALID PUSH1 0x80 PUSH1 0x40 MSTORE CALLVALUE DUP1 ISZERO PUSH3 0x11 JUMPI PUSH1 0x0 DUP1 REVERT JUMPDEST POP PUSH1 0x4 CALLDATASIZE LT PUSH3 0xA5 JUMPI PUSH1 0x0 CALLDATALOAD PUSH29 0x100000000000000000000000000000000000000000000000000000000 SWAP1 DIV DUP1 PUSH4 0xB721EF6E GT PUSH3 0x80 JUMPI DUP1 PUSH4 0xB721EF6E EQ PUSH3 0x120 JUMPI DUP1 PUSH4 0xC23697A8 EQ PUSH3 0x158 JUMPI DUP1 PUSH4 0xCA3A82BB EQ PUSH3 0x18E JUMPI DUP1 PUSH4 0xF9C40920 EQ PUSH3 0x1C4 JUMPI PUSH3 0xA5 JUMP JUMPDEST DUP1 PUSH4 0x5E44B1F6 EQ PUSH3 0xAA JUMPI DUP1 PUSH4 0x996440C6 EQ PUSH3 0xCA JUMPI DUP1 PUSH4 0x9A62BBEE EQ PUSH3 0x100 JUMPI JUMPDEST PUSH1 0x0 DUP1 REVERT JUMPDEST PUSH3 0xC8 PUSH1 0x4 DUP1 CALLDATASIZE SUB PUSH3 0xC2 SWAP2 SWAP1 DUP2 ADD SWAP1 PUSH3 0x924 JUMP JUMPDEST PUSH3 0x1FA JUMP JUMPDEST STOP JUMPDEST PUSH3 0xE8 PUSH1 0x4 DUP1 CALLDATASIZE SUB PUSH3 0xE2 SWAP2 SWAP1 DUP2 ADD SWAP1 PUSH3 0x8CC JUMP JUMPDEST PUSH3 0x3B0 JUMP JUMPDEST PUSH1 0x40 MLOAD PUSH3 0xF7 SWAP2 SWAP1 PUSH3 0xC56 JUMP JUMPDEST PUSH1 0x40 MLOAD DUP1 SWAP2 SUB SWAP1 RETURN JUMPDEST PUSH3 0x11E PUSH1 0x4 DUP1 CALLDATASIZE SUB PUSH3 0x118 SWAP2 SWAP1 DUP2 ADD SWAP1 PUSH3 0x9AC JUMP JUMPDEST PUSH3 0x419 JUMP JUMPDEST STOP JUMPDEST PUSH3 0x13E PUSH1 0x4 DUP1 CALLDATASIZE SUB PUSH3 0x138 SWAP2 SWAP1 DUP2 ADD SWAP1 PUSH3 0x8CC JUMP JUMPDEST PUSH3 0x56E JUMP JUMPDEST PUSH1 0x40 MLOAD PUSH3 0x14F SWAP4 SWAP3 SWAP2 SWAP1 PUSH3 0xCA0 JUMP JUMPDEST PUSH1 0x40 MLOAD DUP1 SWAP2 SUB SWAP1 RETURN JUMPDEST PUSH3 0x176 PUSH1 0x4 DUP1 CALLDATASIZE SUB PUSH3 0x170 SWAP2 SWAP1 DUP2 ADD SWAP1 PUSH3 0x8CC JUMP JUMPDEST PUSH3 0x6D0 JUMP JUMPDEST PUSH1 0x40 MLOAD PUSH3 0x185 SWAP2 SWAP1 PUSH3 0xC56 JUMP JUMPDEST PUSH1 0x40 MLOAD DUP1 SWAP2 SUB SWAP1 RETURN JUMPDEST PUSH3 0x1AC PUSH1 0x4 DUP1 CALLDATASIZE SUB PUSH3 0x1A6 SWAP2 SWAP1 DUP2 ADD SWAP1 PUSH3 0x8F8 JUMP JUMPDEST PUSH3 0x6F0 JUMP JUMPDEST PUSH1 0x40 MLOAD PUSH3 0x1BB SWAP2 SWAP1 PUSH3 0xC39 JUMP JUMPDEST PUSH1 0x40 MLOAD DUP1 SWAP2 SUB SWAP1 RETURN JUMPDEST PUSH3 0x1E2 PUSH1 0x4 DUP1 CALLDATASIZE SUB PUSH3 0x1DC SWAP2 SWAP1 DUP2 ADD SWAP1 PUSH3 0x8F8 JUMP JUMPDEST PUSH3 0x72D JUMP JUMPDEST PUSH1 0x40 MLOAD PUSH3 0x1F1 SWAP2 SWAP1 PUSH3 0xC39 JUMP JUMPDEST PUSH1 0x40 MLOAD DUP1 SWAP2 SUB SWAP1 RETURN JUMPDEST PUSH1 0x1 PUSH1 0x0 CALLER PUSH20 0xFFFFFFFFFFFFFFFFFFFFFFFFFFFFFFFFFFFFFFFF AND PUSH20 0xFFFFFFFFFFFFFFFFFFFFFFFFFFFFFFFFFFFFFFFF AND DUP2 MSTORE PUSH1 0x20 ADD SWAP1 DUP2 MSTORE PUSH1 0x20 ADD PUSH1 0x0 KECCAK256 PUSH1 0x0 SWAP1 SLOAD SWAP1 PUSH2 0x100 EXP SWAP1 DIV PUSH1 0xFF AND ISZERO ISZERO PUSH3 0x3AB JUMPI PUSH3 0x258 PUSH3 0x760 JUMP JUMPDEST PUSH1 0x60 PUSH1 0x40 MLOAD SWAP1 DUP2 ADD PUSH1 0x40 MSTORE DUP1 DUP6 DUP2 MSTORE PUSH1 0x20 ADD DUP5 DUP2 MSTORE PUSH1 0x20 ADD DUP4 DUP2 MSTORE POP SWAP1 POP PUSH1 0x1 DUP1 PUSH1 0x0 CALLER PUSH20 0xFFFFFFFFFFFFFFFFFFFFFFFFFFFFFFFFFFFFFFFF AND PUSH20 0xFFFFFFFFFFFFFFFFFFFFFFFFFFFFFFFFFFFFFFFF AND DUP2 MSTORE PUSH1 0x20 ADD SWAP1 DUP2 MSTORE PUSH1 0x20 ADD PUSH1 0x0 KECCAK256 PUSH1 0x0 PUSH2 0x100 EXP DUP2 SLOAD DUP2 PUSH1 0xFF MUL NOT AND SWAP1 DUP4 ISZERO ISZERO MUL OR SWAP1 SSTORE POP DUP1 PUSH1 0x0 DUP1 CALLER PUSH20 0xFFFFFFFFFFFFFFFFFFFFFFFFFFFFFFFFFFFFFFFF AND PUSH20 0xFFFFFFFFFFFFFFFFFFFFFFFFFFFFFFFFFFFFFFFF AND DUP2 MSTORE PUSH1 0x20 ADD SWAP1 DUP2 MSTORE PUSH1 0x20 ADD PUSH1 0x0 KECCAK256 PUSH1 0x0 DUP3 ADD MLOAD DUP2 PUSH1 0x0 ADD SSTORE PUSH1 0x20 DUP3 ADD MLOAD DUP2 PUSH1 0x1 ADD SWAP1 DUP1 MLOAD SWAP1 PUSH1 0x20 ADD SWAP1 PUSH3 0x334 SWAP3 SWAP2 SWAP1 PUSH3 0x782 JUMP JUMPDEST POP PUSH1 0x40 DUP3 ADD MLOAD DUP2 PUSH1 0x2 ADD SWAP1 DUP1 MLOAD SWAP1 PUSH1 0x20 ADD SWAP1 PUSH3 0x353 SWAP3 SWAP2 SWAP1 PUSH3 0x782 JUMP JUMPDEST POP SWAP1 POP POP CALLER PUSH1 0x2 PUSH1 0x0 DUP7 DUP2 MSTORE PUSH1 0x20 ADD SWAP1 DUP2 MSTORE PUSH1 0x20 ADD PUSH1 0x0 KECCAK256 PUSH1 0x0 PUSH2 0x100 EXP DUP2 SLOAD DUP2 PUSH20 0xFFFFFFFFFFFFFFFFFFFFFFFFFFFFFFFFFFFFFFFF MUL NOT AND SWAP1 DUP4 PUSH20 0xFFFFFFFFFFFFFFFFFFFFFFFFFFFFFFFFFFFFFFFF AND MUL OR SWAP1 SSTORE POP POP JUMPDEST POP POP POP JUMP JUMPDEST PUSH1 0x0 PUSH1 0x1 PUSH1 0x0 DUP4 PUSH20 0xFFFFFFFFFFFFFFFFFFFFFFFFFFFFFFFFFFFFFFFF AND PUSH20 0xFFFFFFFFFFFFFFFFFFFFFFFFFFFFFFFFFFFFFFFF AND DUP2 MSTORE PUSH1 0x20 ADD SWAP1 DUP2 MSTORE PUSH1 0x20 ADD PUSH1 0x0 KECCAK256 PUSH1 0x0 SWAP1 SLOAD SWAP1 PUSH2 0x100 EXP SWAP1 DIV PUSH1 0xFF AND ISZERO PUSH3 0x40F JUMPI PUSH1 0x1 SWAP1 POP PUSH3 0x414 JUMP JUMPDEST PUSH1 0x0 SWAP1 POP JUMPDEST SWAP2 SWAP1 POP JUMP JUMPDEST PUSH1 0x1 PUSH1 0x0 CALLER PUSH20 0xFFFFFFFFFFFFFFFFFFFFFFFFFFFFFFFFFFFFFFFF AND PUSH20 0xFFFFFFFFFFFFFFFFFFFFFFFFFFFFFFFFFFFFFFFF AND DUP2 MSTORE PUSH1 0x20 ADD SWAP1 DUP2 MSTORE PUSH1 0x20 ADD PUSH1 0x0 KECCAK256 PUSH1 0x0 SWAP1 SLOAD SWAP1 PUSH2 0x100 EXP SWAP1 DIV PUSH1 0xFF AND ISZERO PUSH3 0x562 JUMPI PUSH1 0x0 PUSH20 0xC821543770F3256F9F78354D6193777DA338F6D1 SWAP1 POP PUSH1 0x0 DUP12 DUP12 DUP12 DUP12 DUP12 DUP12 DUP12 DUP12 DUP12 DUP12 CALLER PUSH3 0x49C PUSH3 0x809 JUMP JUMPDEST PUSH3 0x4B2 SWAP12 SWAP11 SWAP10 SWAP9 SWAP8 SWAP7 SWAP6 SWAP5 SWAP4 SWAP3 SWAP2 SWAP1 PUSH3 0xCEB JUMP JUMPDEST PUSH1 0x40 MLOAD DUP1 SWAP2 SUB SWAP1 PUSH1 0x0 CREATE DUP1 ISZERO DUP1 ISZERO PUSH3 0x4CF JUMPI RETURNDATASIZE PUSH1 0x0 DUP1 RETURNDATACOPY RETURNDATASIZE PUSH1 0x0 REVERT JUMPDEST POP SWAP1 POP DUP2 PUSH20 0xFFFFFFFFFFFFFFFFFFFFFFFFFFFFFFFFFFFFFFFF AND PUSH4 0x510D7F86 DUP10 DUP4 PUSH1 0x40 MLOAD DUP4 PUSH4 0xFFFFFFFF AND PUSH29 0x100000000000000000000000000000000000000000000000000000000 MUL DUP2 MSTORE PUSH1 0x4 ADD PUSH3 0x52B SWAP3 SWAP2 SWAP1 PUSH3 0xC73 JUMP JUMPDEST PUSH1 0x0 PUSH1 0x40 MLOAD DUP1 DUP4 SUB DUP2 PUSH1 0x0 DUP8 DUP1 EXTCODESIZE ISZERO DUP1 ISZERO PUSH3 0x546 JUMPI PUSH1 0x0 DUP1 REVERT JUMPDEST POP GAS CALL ISZERO DUP1 ISZERO PUSH3 0x55B JUMPI RETURNDATASIZE PUSH1 0x0 DUP1 RETURNDATACOPY RETURNDATASIZE PUSH1 0x0 REVERT JUMPDEST POP POP POP POP POP POP JUMPDEST POP POP POP POP POP POP POP POP POP POP JUMP JUMPDEST PUSH1 0x0 PUSH1 0x20 MSTORE DUP1 PUSH1 0x0 MSTORE PUSH1 0x40 PUSH1 0x0 KECCAK256 PUSH1 0x0 SWAP2 POP SWAP1 POP DUP1 PUSH1 0x0 ADD SLOAD SWAP1 DUP1 PUSH1 0x1 ADD DUP1 SLOAD PUSH1 0x1 DUP2 PUSH1 0x1 AND ISZERO PUSH2 0x100 MUL SUB AND PUSH1 0x2 SWAP1 DIV DUP1 PUSH1 0x1F ADD PUSH1 0x20 DUP1 SWAP2 DIV MUL PUSH1 0x20 ADD PUSH1 0x40 MLOAD SWAP1 DUP2 ADD PUSH1 0x40 MSTORE DUP1 SWAP3 SWAP2 SWAP1 DUP2 DUP2 MSTORE PUSH1 0x20 ADD DUP3 DUP1 SLOAD PUSH1 0x1 DUP2 PUSH1 0x1 AND ISZERO PUSH2 0x100 MUL SUB AND PUSH1 0x2 SWAP1 DIV DUP1 ISZERO PUSH3 0x624 JUMPI DUP1 PUSH1 0x1F LT PUSH3 0x5F8 JUMPI PUSH2 0x100 DUP1 DUP4 SLOAD DIV MUL DUP4 MSTORE SWAP2 PUSH1 0x20 ADD SWAP2 PUSH3 0x624 JUMP JUMPDEST DUP3 ADD SWAP2 SWAP1 PUSH1 0x0 MSTORE PUSH1 0x20 PUSH1 0x0 KECCAK256 SWAP1 JUMPDEST DUP2 SLOAD DUP2 MSTORE SWAP1 PUSH1 0x1 ADD SWAP1 PUSH1 0x20 ADD DUP1 DUP4 GT PUSH3 0x606 JUMPI DUP3 SWAP1 SUB PUSH1 0x1F AND DUP3 ADD SWAP2 JUMPDEST POP POP POP POP POP SWAP1 DUP1 PUSH1 0x2 ADD DUP1 SLOAD PUSH1 0x1 DUP2 PUSH1 0x1 AND ISZERO PUSH2 0x100 MUL SUB AND PUSH1 0x2 SWAP1 DIV DUP1 PUSH1 0x1F ADD PUSH1 0x20 DUP1 SWAP2 DIV MUL PUSH1 0x20 ADD PUSH1 0x40 MLOAD SWAP1 DUP2 ADD PUSH1 0x40 MSTORE DUP1 SWAP3 SWAP2 SWAP1 DUP2 DUP2 MSTORE PUSH1 0x20 ADD DUP3 DUP1 SLOAD PUSH1 0x1 DUP2 PUSH1 0x1 AND ISZERO PUSH2 0x100 MUL SUB AND PUSH1 0x2 SWAP1 DIV DUP1 ISZERO PUSH3 0x6C6 JUMPI DUP1 PUSH1 0x1F LT PUSH3 0x69A JUMPI PUSH2 0x100 DUP1 DUP4 SLOAD DIV MUL DUP4 MSTORE SWAP2 PUSH1 0x20 ADD SWAP2 PUSH3 0x6C6 JUMP JUMPDEST DUP3 ADD SWAP2 SWAP1 PUSH1 0x0 MSTORE PUSH1 0x20 PUSH1 0x0 KECCAK256 SWAP1 JUMPDEST DUP2 SLOAD DUP2 MSTORE SWAP1 PUSH1 0x1 ADD SWAP1 PUSH1 0x20 ADD DUP1 DUP4 GT PUSH3 0x6A8 JUMPI DUP3 SWAP1 SUB PUSH1 0x1F AND DUP3 ADD SWAP2 JUMPDEST POP POP POP POP POP SWAP1 POP DUP4 JUMP JUMPDEST PUSH1 0x1 PUSH1 0x20 MSTORE DUP1 PUSH1 0x0 MSTORE PUSH1 0x40 PUSH1 0x0 KECCAK256 PUSH1 0x0 SWAP2 POP SLOAD SWAP1 PUSH2 0x100 EXP SWAP1 DIV PUSH1 0xFF AND DUP2 JUMP JUMPDEST PUSH1 0x0 PUSH1 0x2 PUSH1 0x0 DUP4 DUP2 MSTORE PUSH1 0x20 ADD SWAP1 DUP2 MSTORE PUSH1 0x20 ADD PUSH1 0x0 KECCAK256 PUSH1 0x0 SWAP1 SLOAD SWAP1 PUSH2 0x100 EXP SWAP1 DIV PUSH20 0xFFFFFFFFFFFFFFFFFFFFFFFFFFFFFFFFFFFFFFFF AND SWAP1 POP SWAP2 SWAP1 POP JUMP JUMPDEST PUSH1 0x2 PUSH1 0x20 MSTORE DUP1 PUSH1 0x0 MSTORE PUSH1 0x40 PUSH1 0x0 KECCAK256 PUSH1 0x0 SWAP2 POP SLOAD SWAP1 PUSH2 0x100 EXP SWAP1 DIV PUSH20 0xFFFFFFFFFFFFFFFFFFFFFFFFFFFFFFFFFFFFFFFF AND DUP2 JUMP JUMPDEST PUSH1 0x60 PUSH1 0x40 MLOAD SWAP1 DUP2 ADD PUSH1 0x40 MSTORE DUP1 PUSH1 0x0 DUP2 MSTORE PUSH1 0x20 ADD PUSH1 0x60 DUP2 MSTORE PUSH1 0x20 ADD PUSH1 0x60 DUP2 MSTORE POP SWAP1 JUMP JUMPDEST DUP3 DUP1 SLOAD PUSH1 0x1 DUP2 PUSH1 0x1 AND ISZERO PUSH2 0x100 MUL SUB AND PUSH1 0x2 SWAP1 DIV SWAP1 PUSH1 0x0 MSTORE PUSH1 0x20 PUSH1 0x0 KECCAK256 SWAP1 PUSH1 0x1F ADD PUSH1 0x20 SWAP1 DIV DUP2 ADD SWAP3 DUP3 PUSH1 0x1F LT PUSH3 0x7C5 JUMPI DUP1 MLOAD PUSH1 0xFF NOT AND DUP4 DUP1 ADD OR DUP6 SSTORE PUSH3 0x7F6 JUMP JUMPDEST DUP3 DUP1 ADD PUSH1 0x1 ADD DUP6 SSTORE DUP3 ISZERO PUSH3 0x7F6 JUMPI SWAP2 DUP3 ADD JUMPDEST DUP3 DUP2 GT ISZERO PUSH3 0x7F5 JUMPI DUP3 MLOAD DUP3 SSTORE SWAP2 PUSH1 0x20 ADD SWAP2 SWAP1 PUSH1 0x1 ADD SWAP1 PUSH3 0x7D8 JUMP JUMPDEST JUMPDEST POP SWAP1 POP PUSH3 0x805 SWAP2 SWAP1 PUSH3 0x81A JUMP JUMPDEST POP SWAP1 JUMP JUMPDEST PUSH1 0x40 MLOAD PUSH2 0x47CA DUP1 PUSH3 0xF57 DUP4 CODECOPY ADD SWAP1 JUMP JUMPDEST PUSH3 0x83F SWAP2 SWAP1 JUMPDEST DUP1 DUP3 GT ISZERO PUSH3 0x83B JUMPI PUSH1 0x0 DUP2 PUSH1 0x0 SWAP1 SSTORE POP PUSH1 0x1 ADD PUSH3 0x821 JUMP JUMPDEST POP SWAP1 JUMP JUMPDEST SWAP1 JUMP JUMPDEST PUSH1 0x0 PUSH3 0x850 DUP3 CALLDATALOAD PUSH3 0xEA6 JUMP JUMPDEST SWAP1 POP SWAP3 SWAP2 POP POP JUMP JUMPDEST PUSH1 0x0 PUSH3 0x866 DUP3 CALLDATALOAD PUSH3 0xEBA JUMP JUMPDEST SWAP1 POP SWAP3 SWAP2 POP POP JUMP JUMPDEST PUSH1 0x0 DUP3 PUSH1 0x1F DUP4 ADD SLT ISZERO ISZERO PUSH3 0x882 JUMPI PUSH1 0x0 DUP1 REVERT JUMPDEST DUP2 CALLDATALOAD PUSH3 0x899 PUSH3 0x893 DUP3 PUSH3 0xE19 JUMP JUMPDEST PUSH3 0xDEB JUMP JUMPDEST SWAP2 POP DUP1 DUP3 MSTORE PUSH1 0x20 DUP4 ADD PUSH1 0x20 DUP4 ADD DUP6 DUP4 DUP4 ADD GT ISZERO PUSH3 0x8B6 JUMPI PUSH1 0x0 DUP1 REVERT JUMPDEST PUSH3 0x8C3 DUP4 DUP3 DUP5 PUSH3 0xF00 JUMP JUMPDEST POP POP POP SWAP3 SWAP2 POP POP JUMP JUMPDEST PUSH1 0x0 PUSH1 0x20 DUP3 DUP5 SUB SLT ISZERO PUSH3 0x8DF JUMPI PUSH1 0x0 DUP1 REVERT JUMPDEST PUSH1 0x0 PUSH3 0x8EF DUP5 DUP3 DUP6 ADD PUSH3 0x842 JUMP JUMPDEST SWAP2 POP POP SWAP3 SWAP2 POP POP JUMP JUMPDEST PUSH1 0x0 PUSH1 0x20 DUP3 DUP5 SUB SLT ISZERO PUSH3 0x90B JUMPI PUSH1 0x0 DUP1 REVERT JUMPDEST PUSH1 0x0 PUSH3 0x91B DUP5 DUP3 DUP6 ADD PUSH3 0x858 JUMP JUMPDEST SWAP2 POP POP SWAP3 SWAP2 POP POP JUMP JUMPDEST PUSH1 0x0 DUP1 PUSH1 0x0 PUSH1 0x60 DUP5 DUP7 SUB SLT ISZERO PUSH3 0x93A JUMPI PUSH1 0x0 DUP1 REVERT JUMPDEST PUSH1 0x0 PUSH3 0x94A DUP7 DUP3 DUP8 ADD PUSH3 0x858 JUMP JUMPDEST SWAP4 POP POP PUSH1 0x20 DUP5 ADD CALLDATALOAD PUSH8 0xFFFFFFFFFFFFFFFF DUP2 GT ISZERO PUSH3 0x968 JUMPI PUSH1 0x0 DUP1 REVERT JUMPDEST PUSH3 0x976 DUP7 DUP3 DUP8 ADD PUSH3 0x86E JUMP JUMPDEST SWAP3 POP POP PUSH1 0x40 DUP5 ADD CALLDATALOAD PUSH8 0xFFFFFFFFFFFFFFFF DUP2 GT ISZERO PUSH3 0x994 JUMPI PUSH1 0x0 DUP1 REVERT JUMPDEST PUSH3 0x9A2 DUP7 DUP3 DUP8 ADD PUSH3 0x86E JUMP JUMPDEST SWAP2 POP POP SWAP3 POP SWAP3 POP SWAP3 JUMP JUMPDEST PUSH1 0x0 DUP1 PUSH1 0x0 DUP1 PUSH1 0x0 DUP1 PUSH1 0x0 DUP1 PUSH1 0x0 DUP1 PUSH2 0x140 DUP12 DUP14 SUB SLT ISZERO PUSH3 0x9CD JUMPI PUSH1 0x0 DUP1 REVERT JUMPDEST PUSH1 0x0 DUP12 ADD CALLDATALOAD PUSH8 0xFFFFFFFFFFFFFFFF DUP2 GT ISZERO PUSH3 0x9E8 JUMPI PUSH1 0x0 DUP1 REVERT JUMPDEST PUSH3 0x9F6 DUP14 DUP3 DUP15 ADD PUSH3 0x86E JUMP JUMPDEST SWAP11 POP POP PUSH1 0x20 DUP12 ADD CALLDATALOAD PUSH8 0xFFFFFFFFFFFFFFFF DUP2 GT ISZERO PUSH3 0xA14 JUMPI PUSH1 0x0 DUP1 REVERT JUMPDEST PUSH3 0xA22 DUP14 DUP3 DUP15 ADD PUSH3 0x86E JUMP JUMPDEST SWAP10 POP POP PUSH1 0x40 DUP12 ADD CALLDATALOAD PUSH8 0xFFFFFFFFFFFFFFFF DUP2 GT ISZERO PUSH3 0xA40 JUMPI PUSH1 0x0 DUP1 REVERT JUMPDEST PUSH3 0xA4E DUP14 DUP3 DUP15 ADD PUSH3 0x86E JUMP JUMPDEST SWAP9 POP POP PUSH1 0x60 DUP12 ADD CALLDATALOAD PUSH8 0xFFFFFFFFFFFFFFFF DUP2 GT ISZERO PUSH3 0xA6C JUMPI PUSH1 0x0 DUP1 REVERT JUMPDEST PUSH3 0xA7A DUP14 DUP3 DUP15 ADD PUSH3 0x86E JUMP JUMPDEST SWAP8 POP POP PUSH1 0x80 PUSH3 0xA8D DUP14 DUP3 DUP15 ADD PUSH3 0x858 JUMP JUMPDEST SWAP7 POP POP PUSH1 0xA0 DUP12 ADD CALLDATALOAD PUSH8 0xFFFFFFFFFFFFFFFF DUP2 GT ISZERO PUSH3 0xAAB JUMPI PUSH1 0x0 DUP1 REVERT JUMPDEST PUSH3 0xAB9 DUP14 DUP3 DUP15 ADD PUSH3 0x86E JUMP JUMPDEST SWAP6 POP POP PUSH1 0xC0 DUP12 ADD CALLDATALOAD PUSH8 0xFFFFFFFFFFFFFFFF DUP2 GT ISZERO PUSH3 0xAD7 JUMPI PUSH1 0x0 DUP1 REVERT JUMPDEST PUSH3 0xAE5 DUP14 DUP3 DUP15 ADD PUSH3 0x86E JUMP JUMPDEST SWAP5 POP POP PUSH1 0xE0 DUP12 ADD CALLDATALOAD PUSH8 0xFFFFFFFFFFFFFFFF DUP2 GT ISZERO PUSH3 0xB03 JUMPI PUSH1 0x0 DUP1 REVERT JUMPDEST PUSH3 0xB11 DUP14 DUP3 DUP15 ADD PUSH3 0x86E JUMP JUMPDEST SWAP4 POP POP PUSH2 0x100 DUP12 ADD CALLDATALOAD PUSH8 0xFFFFFFFFFFFFFFFF DUP2 GT ISZERO PUSH3 0xB30 JUMPI PUSH1 0x0 DUP1 REVERT JUMPDEST PUSH3 0xB3E DUP14 DUP3 DUP15 ADD PUSH3 0x86E JUMP JUMPDEST SWAP3 POP POP PUSH2 0x120 DUP12 ADD CALLDATALOAD PUSH8 0xFFFFFFFFFFFFFFFF DUP2 GT ISZERO PUSH3 0xB5D JUMPI PUSH1 0x0 DUP1 REVERT JUMPDEST PUSH3 0xB6B DUP14 DUP3 DUP15 ADD PUSH3 0x86E JUMP JUMPDEST SWAP2 POP POP SWAP3 SWAP6 SWAP9 SWAP12 SWAP2 SWAP5 SWAP8 SWAP11 POP SWAP3 SWAP6 SWAP9 POP JUMP JUMPDEST PUSH3 0xB88 DUP2 PUSH3 0xEC4 JUMP JUMPDEST DUP3 MSTORE POP POP JUMP JUMPDEST PUSH3 0xB99 DUP2 PUSH3 0xE5C JUMP JUMPDEST DUP3 MSTORE POP POP JUMP JUMPDEST PUSH3 0xBAA DUP2 PUSH3 0xE70 JUMP JUMPDEST DUP3 MSTORE POP POP JUMP JUMPDEST PUSH3 0xBBB DUP2 PUSH3 0xE7C JUMP JUMPDEST DUP3 MSTORE POP POP JUMP JUMPDEST PUSH1 0x0 PUSH3 0xBCE DUP3 PUSH3 0xE51 JUMP JUMPDEST DUP1 DUP5 MSTORE PUSH3 0xBE4 DUP2 PUSH1 0x20 DUP7 ADD PUSH1 0x20 DUP7 ADD PUSH3 0xF0F JUMP JUMPDEST PUSH3 0xBEF DUP2 PUSH3 0xF45 JUMP JUMPDEST PUSH1 0x20 DUP6 ADD ADD SWAP2 POP POP SWAP3 SWAP2 POP POP JUMP JUMPDEST PUSH1 0x0 PUSH3 0xC0A DUP3 PUSH3 0xE46 JUMP JUMPDEST DUP1 DUP5 MSTORE PUSH3 0xC20 DUP2 PUSH1 0x20 DUP7 ADD PUSH1 0x20 DUP7 ADD PUSH3 0xF0F JUMP JUMPDEST PUSH3 0xC2B DUP2 PUSH3 0xF45 JUMP JUMPDEST PUSH1 0x20 DUP6 ADD ADD SWAP2 POP POP SWAP3 SWAP2 POP POP JUMP JUMPDEST PUSH1 0x0 PUSH1 0x20 DUP3 ADD SWAP1 POP PUSH3 0xC50 PUSH1 0x0 DUP4 ADD DUP5 PUSH3 0xB8E JUMP JUMPDEST SWAP3 SWAP2 POP POP JUMP JUMPDEST PUSH1 0x0 PUSH1 0x20 DUP3 ADD SWAP1 POP PUSH3 0xC6D PUSH1 0x0 DUP4 ADD DUP5 PUSH3 0xB9F JUMP JUMPDEST SWAP3 SWAP2 POP POP JUMP JUMPDEST PUSH1 0x0 PUSH1 0x40 DUP3 ADD SWAP1 POP PUSH3 0xC8A PUSH1 0x0 DUP4 ADD DUP6 PUSH3 0xBB0 JUMP JUMPDEST PUSH3 0xC99 PUSH1 0x20 DUP4 ADD DUP5 PUSH3 0xB8E JUMP JUMPDEST SWAP4 SWAP3 POP POP POP JUMP JUMPDEST PUSH1 0x0 PUSH1 0x60 DUP3 ADD SWAP1 POP PUSH3 0xCB7 PUSH1 0x0 DUP4 ADD DUP7 PUSH3 0xBB0 JUMP JUMPDEST DUP2 DUP2 SUB PUSH1 0x20 DUP4 ADD MSTORE PUSH3 0xCCB DUP2 DUP6 PUSH3 0xBFD JUMP JUMPDEST SWAP1 POP DUP2 DUP2 SUB PUSH1 0x40 DUP4 ADD MSTORE PUSH3 0xCE1 DUP2 DUP5 PUSH3 0xBFD JUMP JUMPDEST SWAP1 POP SWAP5 SWAP4 POP POP POP POP JUMP JUMPDEST PUSH1 0x0 PUSH2 0x160 DUP3 ADD SWAP1 POP DUP2 DUP2 SUB PUSH1 0x0 DUP4 ADD MSTORE PUSH3 0xD08 DUP2 DUP15 PUSH3 0xBC1 JUMP JUMPDEST SWAP1 POP DUP2 DUP2 SUB PUSH1 0x20 DUP4 ADD MSTORE PUSH3 0xD1E DUP2 DUP14 PUSH3 0xBC1 JUMP JUMPDEST SWAP1 POP DUP2 DUP2 SUB PUSH1 0x40 DUP4 ADD MSTORE PUSH3 0xD34 DUP2 DUP13 PUSH3 0xBC1 JUMP JUMPDEST SWAP1 POP DUP2 DUP2 SUB PUSH1 0x60 DUP4 ADD MSTORE PUSH3 0xD4A DUP2 DUP12 PUSH3 0xBC1 JUMP JUMPDEST SWAP1 POP PUSH3 0xD5B PUSH1 0x80 DUP4 ADD DUP11 PUSH3 0xBB0 JUMP JUMPDEST DUP2 DUP2 SUB PUSH1 0xA0 DUP4 ADD MSTORE PUSH3 0xD6F DUP2 DUP10 PUSH3 0xBC1 JUMP JUMPDEST SWAP1 POP DUP2 DUP2 SUB PUSH1 0xC0 DUP4 ADD MSTORE PUSH3 0xD85 DUP2 DUP9 PUSH3 0xBC1 JUMP JUMPDEST SWAP1 POP DUP2 DUP2 SUB PUSH1 0xE0 DUP4 ADD MSTORE PUSH3 0xD9B DUP2 DUP8 PUSH3 0xBC1 JUMP JUMPDEST SWAP1 POP DUP2 DUP2 SUB PUSH2 0x100 DUP4 ADD MSTORE PUSH3 0xDB2 DUP2 DUP7 PUSH3 0xBC1 JUMP JUMPDEST SWAP1 POP DUP2 DUP2 SUB PUSH2 0x120 DUP4 ADD MSTORE PUSH3 0xDC9 DUP2 DUP6 PUSH3 0xBC1 JUMP JUMPDEST SWAP1 POP PUSH3 0xDDB PUSH2 0x140 DUP4 ADD DUP5 PUSH3 0xB7D JUMP JUMPDEST SWAP13 SWAP12 POP POP POP POP POP POP POP POP POP POP POP POP JUMP JUMPDEST PUSH1 0x0 PUSH1 0x40 MLOAD SWAP1 POP DUP2 DUP2 ADD DUP2 DUP2 LT PUSH8 0xFFFFFFFFFFFFFFFF DUP3 GT OR ISZERO PUSH3 0xE0F JUMPI PUSH1 0x0 DUP1 REVERT JUMPDEST DUP1 PUSH1 0x40 MSTORE POP SWAP2 SWAP1 POP JUMP JUMPDEST PUSH1 0x0 PUSH8 0xFFFFFFFFFFFFFFFF DUP3 GT ISZERO PUSH3 0xE31 JUMPI PUSH1 0x0 DUP1 REVERT JUMPDEST PUSH1 0x1F NOT PUSH1 0x1F DUP4 ADD AND SWAP1 POP PUSH1 0x20 DUP2 ADD SWAP1 POP SWAP2 SWAP1 POP JUMP JUMPDEST PUSH1 0x0 DUP2 MLOAD SWAP1 POP SWAP2 SWAP1 POP JUMP JUMPDEST PUSH1 0x0 DUP2 MLOAD SWAP1 POP SWAP2 SWAP1 POP JUMP JUMPDEST PUSH1 0x0 PUSH3 0xE69 DUP3 PUSH3 0xE86 JUMP JUMPDEST SWAP1 POP SWAP2 SWAP1 POP JUMP JUMPDEST PUSH1 0x0 DUP2 ISZERO ISZERO SWAP1 POP SWAP2 SWAP1 POP JUMP JUMPDEST PUSH1 0x0 DUP2 SWAP1 POP SWAP2 SWAP1 POP JUMP JUMPDEST PUSH1 0x0 PUSH20 0xFFFFFFFFFFFFFFFFFFFFFFFFFFFFFFFFFFFFFFFF DUP3 AND SWAP1 POP SWAP2 SWAP1 POP JUMP JUMPDEST PUSH1 0x0 PUSH3 0xEB3 DUP3 PUSH3 0xE86 JUMP JUMPDEST SWAP1 POP SWAP2 SWAP1 POP JUMP JUMPDEST PUSH1 0x0 DUP2 SWAP1 POP SWAP2 SWAP1 POP JUMP JUMPDEST PUSH1 0x0 PUSH3 0xED1 DUP3 PUSH3 0xED8 JUMP JUMPDEST SWAP1 POP SWAP2 SWAP1 POP JUMP JUMPDEST PUSH1 0x0 PUSH3 0xEE5 DUP3 PUSH3 0xEEC JUMP JUMPDEST SWAP1 POP SWAP2 SWAP1 POP JUMP JUMPDEST PUSH1 0x0 PUSH3 0xEF9 DUP3 PUSH3 0xE86 JUMP JUMPDEST SWAP1 POP SWAP2 SWAP1 POP JUMP JUMPDEST DUP3 DUP2 DUP4 CALLDATACOPY PUSH1 0x0 DUP4 DUP4 ADD MSTORE POP POP POP JUMP JUMPDEST PUSH1 0x0 JUMPDEST DUP4 DUP2 LT ISZERO PUSH3 0xF2F JUMPI DUP1 DUP3 ADD MLOAD DUP2 DUP5 ADD MSTORE PUSH1 0x20 DUP2 ADD SWAP1 POP PUSH3 0xF12 JUMP JUMPDEST DUP4 DUP2 GT ISZERO PUSH3 0xF3F JUMPI PUSH1 0x0 DUP5 DUP5 ADD MSTORE JUMPDEST POP POP POP POP JUMP JUMPDEST PUSH1 0x0 PUSH1 0x1F NOT PUSH1 0x1F DUP4 ADD AND SWAP1 POP SWAP2 SWAP1 POP JUMP INVALID PUSH1 0x80 PUSH1 0x40 MSTORE CALLVALUE DUP1 ISZERO PUSH3 0x11 JUMPI PUSH1 0x0 DUP1 REVERT JUMPDEST POP PUSH1 0x40 MLOAD PUSH3 0x47CA CODESIZE SUB DUP1 PUSH3 0x47CA DUP4 CODECOPY DUP2 ADD DUP1 PUSH1 0x40 MSTORE PUSH3 0x37 SWAP2 SWAP1 DUP2 ADD SWAP1 PUSH3 0x408 JUMP JUMPDEST PUSH3 0x41 PUSH3 0x202 JUMP JUMPDEST PUSH2 0x100 PUSH1 0x40 MLOAD SWAP1 DUP2 ADD PUSH1 0x40 MSTORE DUP1 DUP14 DUP2 MSTORE PUSH1 0x20 ADD DUP13 DUP2 MSTORE PUSH1 0x20 ADD DUP12 DUP2 MSTORE PUSH1 0x20 ADD DUP11 DUP2 MSTORE PUSH1 0x20 ADD DUP10 DUP2 MSTORE PUSH1 0x20 ADD DUP9 DUP2 MSTORE PUSH1 0x20 ADD DUP8 DUP2 MSTORE PUSH1 0x20 ADD DUP7 DUP2 MSTORE POP SWAP1 POP DUP1 PUSH1 0x0 DUP1 DUP3 ADD MLOAD DUP2 PUSH1 0x0 ADD SWAP1 DUP1 MLOAD SWAP1 PUSH1 0x20 ADD SWAP1 PUSH3 0x9E SWAP3 SWAP2 SWAP1 PUSH3 0x248 JUMP JUMPDEST POP PUSH1 0x20 DUP3 ADD MLOAD DUP2 PUSH1 0x1 ADD SWAP1 DUP1 MLOAD SWAP1 PUSH1 0x20 ADD SWAP1 PUSH3 0xBD SWAP3 SWAP2 SWAP1 PUSH3 0x248 JUMP JUMPDEST POP PUSH1 0x40 DUP3 ADD MLOAD DUP2 PUSH1 0x2 ADD SWAP1 DUP1 MLOAD SWAP1 PUSH1 0x20 ADD SWAP1 PUSH3 0xDC SWAP3 SWAP2 SWAP1 PUSH3 0x248 JUMP JUMPDEST POP PUSH1 0x60 DUP3 ADD MLOAD DUP2 PUSH1 0x3 ADD SWAP1 DUP1 MLOAD SWAP1 PUSH1 0x20 ADD SWAP1 PUSH3 0xFB SWAP3 SWAP2 SWAP1 PUSH3 0x248 JUMP JUMPDEST POP PUSH1 0x80 DUP3 ADD MLOAD DUP2 PUSH1 0x4 ADD SSTORE PUSH1 0xA0 DUP3 ADD MLOAD DUP2 PUSH1 0x5 ADD SWAP1 DUP1 MLOAD SWAP1 PUSH1 0x20 ADD SWAP1 PUSH3 0x124 SWAP3 SWAP2 SWAP1 PUSH3 0x248 JUMP JUMPDEST POP PUSH1 0xC0 DUP3 ADD MLOAD DUP2 PUSH1 0x6 ADD SWAP1 DUP1 MLOAD SWAP1 PUSH1 0x20 ADD SWAP1 PUSH3 0x143 SWAP3 SWAP2 SWAP1 PUSH3 0x248 JUMP JUMPDEST POP PUSH1 0xE0 DUP3 ADD MLOAD DUP2 PUSH1 0x7 ADD SWAP1 DUP1 MLOAD SWAP1 PUSH1 0x20 ADD SWAP1 PUSH3 0x162 SWAP3 SWAP2 SWAP1 PUSH3 0x248 JUMP JUMPDEST POP SWAP1 POP POP DUP4 PUSH1 0x15 SWAP1 DUP1 MLOAD SWAP1 PUSH1 0x20 ADD SWAP1 PUSH3 0x17E SWAP3 SWAP2 SWAP1 PUSH3 0x2CF JUMP JUMPDEST POP DUP3 PUSH1 0x16 SWAP1 DUP1 MLOAD SWAP1 PUSH1 0x20 ADD SWAP1 PUSH3 0x197 SWAP3 SWAP2 SWAP1 PUSH3 0x2CF JUMP JUMPDEST POP PUSH1 0x1 PUSH1 0x14 PUSH1 0x0 DUP5 PUSH20 0xFFFFFFFFFFFFFFFFFFFFFFFFFFFFFFFFFFFFFFFF AND PUSH20 0xFFFFFFFFFFFFFFFFFFFFFFFFFFFFFFFFFFFFFFFF AND DUP2 MSTORE PUSH1 0x20 ADD SWAP1 DUP2 MSTORE PUSH1 0x20 ADD PUSH1 0x0 KECCAK256 PUSH1 0x0 PUSH2 0x100 EXP DUP2 SLOAD DUP2 PUSH1 0xFF MUL NOT AND SWAP1 DUP4 ISZERO ISZERO MUL OR SWAP1 SSTORE POP POP POP POP POP POP POP POP POP POP POP POP POP PUSH3 0x6BF JUMP JUMPDEST PUSH2 0x100 PUSH1 0x40 MLOAD SWAP1 DUP2 ADD PUSH1 0x40 MSTORE DUP1 PUSH1 0x60 DUP2 MSTORE PUSH1 0x20 ADD PUSH1 0x60 DUP2 MSTORE PUSH1 0x20 ADD PUSH1 0x60 DUP2 MSTORE PUSH1 0x20 ADD PUSH1 0x60 DUP2 MSTORE PUSH1 0x20 ADD PUSH1 0x0 DUP2 MSTORE PUSH1 0x20 ADD PUSH1 0x60 DUP2 MSTORE PUSH1 0x20 ADD PUSH1 0x60 DUP2 MSTORE PUSH1 0x20 ADD PUSH1 0x60 DUP2 MSTORE POP SWAP1 JUMP JUMPDEST DUP3 DUP1 SLOAD PUSH1 0x1 DUP2 PUSH1 0x1 AND ISZERO PUSH2 0x100 MUL SUB AND PUSH1 0x2 SWAP1 DIV SWAP1 PUSH1 0x0 MSTORE PUSH1 0x20 PUSH1 0x0 KECCAK256 SWAP1 PUSH1 0x1F ADD PUSH1 0x20 SWAP1 DIV DUP2 ADD SWAP3 DUP3 PUSH1 0x1F LT PUSH3 0x28B JUMPI DUP1 MLOAD PUSH1 0xFF NOT AND DUP4 DUP1 ADD OR DUP6 SSTORE PUSH3 0x2BC JUMP JUMPDEST DUP3 DUP1 ADD PUSH1 0x1 ADD DUP6 SSTORE DUP3 ISZERO PUSH3 0x2BC JUMPI SWAP2 DUP3 ADD JUMPDEST DUP3 DUP2 GT ISZERO PUSH3 0x2BB JUMPI DUP3 MLOAD DUP3 SSTORE SWAP2 PUSH1 0x20 ADD SWAP2 SWAP1 PUSH1 0x1 ADD SWAP1 PUSH3 0x29E JUMP JUMPDEST JUMPDEST POP SWAP1 POP PUSH3 0x2CB SWAP2 SWAP1 PUSH3 0x356 JUMP JUMPDEST POP SWAP1 JUMP JUMPDEST DUP3 DUP1 SLOAD PUSH1 0x1 DUP2 PUSH1 0x1 AND ISZERO PUSH2 0x100 MUL SUB AND PUSH1 0x2 SWAP1 DIV SWAP1 PUSH1 0x0 MSTORE PUSH1 0x20 PUSH1 0x0 KECCAK256 SWAP1 PUSH1 0x1F ADD PUSH1 0x20 SWAP1 DIV DUP2 ADD SWAP3 DUP3 PUSH1 0x1F LT PUSH3 0x312 JUMPI DUP1 MLOAD PUSH1 0xFF NOT AND DUP4 DUP1 ADD OR DUP6 SSTORE PUSH3 0x343 JUMP JUMPDEST DUP3 DUP1 ADD PUSH1 0x1 ADD DUP6 SSTORE DUP3 ISZERO PUSH3 0x343 JUMPI SWAP2 DUP3 ADD JUMPDEST DUP3 DUP2 GT ISZERO PUSH3 0x342 JUMPI DUP3 MLOAD DUP3 SSTORE SWAP2 PUSH1 0x20 ADD SWAP2 SWAP1 PUSH1 0x1 ADD SWAP1 PUSH3 0x325 JUMP JUMPDEST JUMPDEST POP SWAP1 POP PUSH3 0x352 SWAP2 SWAP1 PUSH3 0x356 JUMP JUMPDEST POP SWAP1 JUMP JUMPDEST PUSH3 0x37B SWAP2 SWAP1 JUMPDEST DUP1 DUP3 GT ISZERO PUSH3 0x377 JUMPI PUSH1 0x0 DUP2 PUSH1 0x0 SWAP1 SSTORE POP PUSH1 0x1 ADD PUSH3 0x35D JUMP JUMPDEST POP SWAP1 JUMP JUMPDEST SWAP1 JUMP JUMPDEST PUSH1 0x0 PUSH3 0x38C DUP3 MLOAD PUSH3 0x66B JUMP JUMPDEST SWAP1 POP SWAP3 SWAP2 POP POP JUMP JUMPDEST PUSH1 0x0 PUSH3 0x3A2 DUP3 MLOAD PUSH3 0x67F JUMP JUMPDEST SWAP1 POP SWAP3 SWAP2 POP POP JUMP JUMPDEST PUSH1 0x0 DUP3 PUSH1 0x1F DUP4 ADD SLT ISZERO ISZERO PUSH3 0x3BE JUMPI PUSH1 0x0 DUP1 REVERT JUMPDEST DUP2 MLOAD PUSH3 0x3D5 PUSH3 0x3CF DUP3 PUSH3 0x61E JUMP JUMPDEST PUSH3 0x5F0 JUMP JUMPDEST SWAP2 POP DUP1 DUP3 MSTORE PUSH1 0x20 DUP4 ADD PUSH1 0x20 DUP4 ADD DUP6 DUP4 DUP4 ADD GT ISZERO PUSH3 0x3F2 JUMPI PUSH1 0x0 DUP1 REVERT JUMPDEST PUSH3 0x3FF DUP4 DUP3 DUP5 PUSH3 0x689 JUMP JUMPDEST POP POP POP SWAP3 SWAP2 POP POP JUMP JUMPDEST PUSH1 0x0 DUP1 PUSH1 0x0 DUP1 PUSH1 0x0 DUP1 PUSH1 0x0 DUP1 PUSH1 0x0 DUP1 PUSH1 0x0 PUSH2 0x160 DUP13 DUP15 SUB SLT ISZERO PUSH3 0x42B JUMPI PUSH1 0x0 DUP1 REVERT JUMPDEST PUSH1 0x0 DUP13 ADD MLOAD PUSH8 0xFFFFFFFFFFFFFFFF DUP2 GT ISZERO PUSH3 0x446 JUMPI PUSH1 0x0 DUP1 REVERT JUMPDEST PUSH3 0x454 DUP15 DUP3 DUP16 ADD PUSH3 0x3AA JUMP JUMPDEST SWAP12 POP POP PUSH1 0x20 DUP13 ADD MLOAD PUSH8 0xFFFFFFFFFFFFFFFF DUP2 GT ISZERO PUSH3 0x472 JUMPI PUSH1 0x0 DUP1 REVERT JUMPDEST PUSH3 0x480 DUP15 DUP3 DUP16 ADD PUSH3 0x3AA JUMP JUMPDEST SWAP11 POP POP PUSH1 0x40 DUP13 ADD MLOAD PUSH8 0xFFFFFFFFFFFFFFFF DUP2 GT ISZERO PUSH3 0x49E JUMPI PUSH1 0x0 DUP1 REVERT JUMPDEST PUSH3 0x4AC DUP15 DUP3 DUP16 ADD PUSH3 0x3AA JUMP JUMPDEST SWAP10 POP POP PUSH1 0x60 DUP13 ADD MLOAD PUSH8 0xFFFFFFFFFFFFFFFF DUP2 GT ISZERO PUSH3 0x4CA JUMPI PUSH1 0x0 DUP1 REVERT JUMPDEST PUSH3 0x4D8 DUP15 DUP3 DUP16 ADD PUSH3 0x3AA JUMP JUMPDEST SWAP9 POP POP PUSH1 0x80 PUSH3 0x4EB DUP15 DUP3 DUP16 ADD PUSH3 0x394 JUMP JUMPDEST SWAP8 POP POP PUSH1 0xA0 DUP13 ADD MLOAD PUSH8 0xFFFFFFFFFFFFFFFF DUP2 GT ISZERO PUSH3 0x509 JUMPI PUSH1 0x0 DUP1 REVERT JUMPDEST PUSH3 0x517 DUP15 DUP3 DUP16 ADD PUSH3 0x3AA JUMP JUMPDEST SWAP7 POP POP PUSH1 0xC0 DUP13 ADD MLOAD PUSH8 0xFFFFFFFFFFFFFFFF DUP2 GT ISZERO PUSH3 0x535 JUMPI PUSH1 0x0 DUP1 REVERT JUMPDEST PUSH3 0x543 DUP15 DUP3 DUP16 ADD PUSH3 0x3AA JUMP JUMPDEST SWAP6 POP POP PUSH1 0xE0 DUP13 ADD MLOAD PUSH8 0xFFFFFFFFFFFFFFFF DUP2 GT ISZERO PUSH3 0x561 JUMPI PUSH1 0x0 DUP1 REVERT JUMPDEST PUSH3 0x56F DUP15 DUP3 DUP16 ADD PUSH3 0x3AA JUMP JUMPDEST SWAP5 POP POP PUSH2 0x100 DUP13 ADD MLOAD PUSH8 0xFFFFFFFFFFFFFFFF DUP2 GT ISZERO PUSH3 0x58E JUMPI PUSH1 0x0 DUP1 REVERT JUMPDEST PUSH3 0x59C DUP15 DUP3 DUP16 ADD PUSH3 0x3AA JUMP JUMPDEST SWAP4 POP POP PUSH2 0x120 DUP13 ADD MLOAD PUSH8 0xFFFFFFFFFFFFFFFF DUP2 GT ISZERO PUSH3 0x5BB JUMPI PUSH1 0x0 DUP1 REVERT JUMPDEST PUSH3 0x5C9 DUP15 DUP3 DUP16 ADD PUSH3 0x3AA JUMP JUMPDEST SWAP3 POP POP PUSH2 0x140 PUSH3 0x5DD DUP15 DUP3 DUP16 ADD PUSH3 0x37E JUMP JUMPDEST SWAP2 POP POP SWAP3 SWAP6 SWAP9 SWAP12 POP SWAP3 SWAP6 SWAP9 SWAP12 SWAP1 SWAP4 SWAP7 SWAP10 POP JUMP JUMPDEST PUSH1 0x0 PUSH1 0x40 MLOAD SWAP1 POP DUP2 DUP2 ADD DUP2 DUP2 LT PUSH8 0xFFFFFFFFFFFFFFFF DUP3 GT OR ISZERO PUSH3 0x614 JUMPI PUSH1 0x0 DUP1 REVERT JUMPDEST DUP1 PUSH1 0x40 MSTORE POP SWAP2 SWAP1 POP JUMP JUMPDEST PUSH1 0x0 PUSH8 0xFFFFFFFFFFFFFFFF DUP3 GT ISZERO PUSH3 0x636 JUMPI PUSH1 0x0 DUP1 REVERT JUMPDEST PUSH1 0x1F NOT PUSH1 0x1F DUP4 ADD AND SWAP1 POP PUSH1 0x20 DUP2 ADD SWAP1 POP SWAP2 SWAP1 POP JUMP JUMPDEST PUSH1 0x0 PUSH20 0xFFFFFFFFFFFFFFFFFFFFFFFFFFFFFFFFFFFFFFFF DUP3 AND SWAP1 POP SWAP2 SWAP1 POP JUMP JUMPDEST PUSH1 0x0 PUSH3 0x678 DUP3 PUSH3 0x64B JUMP JUMPDEST SWAP1 POP SWAP2 SWAP1 POP JUMP JUMPDEST PUSH1 0x0 DUP2 SWAP1 POP SWAP2 SWAP1 POP JUMP JUMPDEST PUSH1 0x0 JUMPDEST DUP4 DUP2 LT ISZERO PUSH3 0x6A9 JUMPI DUP1 DUP3 ADD MLOAD DUP2 DUP5 ADD MSTORE PUSH1 0x20 DUP2 ADD SWAP1 POP PUSH3 0x68C JUMP JUMPDEST DUP4 DUP2 GT ISZERO PUSH3 0x6B9 JUMPI PUSH1 0x0 DUP5 DUP5 ADD MSTORE JUMPDEST POP POP POP POP JUMP JUMPDEST PUSH2 0x40FB DUP1 PUSH3 0x6CF PUSH1 0x0 CODECOPY PUSH1 0x0 RETURN INVALID PUSH1 0x80 PUSH1 0x40 MSTORE CALLVALUE DUP1 ISZERO PUSH2 0x10 JUMPI PUSH1 0x0 DUP1 REVERT JUMPDEST POP PUSH1 0x4 CALLDATASIZE LT PUSH2 0xC6 JUMPI PUSH1 0x0 CALLDATALOAD PUSH29 0x100000000000000000000000000000000000000000000000000000000 SWAP1 DIV DUP1 PUSH4 0x6A828812 GT PUSH2 0x8E JUMPI DUP1 PUSH4 0x6A828812 EQ PUSH2 0x189 JUMPI DUP1 PUSH4 0x74222FF3 EQ PUSH2 0x1A5 JUMPI DUP1 PUSH4 0x7EC35B0A EQ PUSH2 0x1C1 JUMPI DUP1 PUSH4 0xC88039F2 EQ PUSH2 0x1F1 JUMPI DUP1 PUSH4 0xD7065558 EQ PUSH2 0x20D JUMPI DUP1 PUSH4 0xF851C44C EQ PUSH2 0x23D JUMPI PUSH2 0xC6 JUMP JUMPDEST DUP1 PUSH4 0x10BE6C33 EQ PUSH2 0xCB JUMPI DUP1 PUSH4 0x26EF8EF4 EQ PUSH2 0xE7 JUMPI DUP1 PUSH4 0x3A6A7C9D EQ PUSH2 0x11A JUMPI DUP1 PUSH4 0x3EF7B4FD EQ PUSH2 0x138 JUMPI DUP1 PUSH4 0x4344B743 EQ PUSH2 0x168 JUMPI JUMPDEST PUSH1 0x0 DUP1 REVERT JUMPDEST PUSH2 0xE5 PUSH1 0x4 DUP1 CALLDATASIZE SUB PUSH2 0xE0 SWAP2 SWAP1 DUP2 ADD SWAP1 PUSH2 0x36BF JUMP JUMPDEST PUSH2 0x25B JUMP JUMPDEST STOP JUMPDEST PUSH2 0x101 PUSH1 0x4 DUP1 CALLDATASIZE SUB PUSH2 0xFC SWAP2 SWAP1 DUP2 ADD SWAP1 PUSH2 0x3793 JUMP JUMPDEST PUSH2 0x3E8 JUMP JUMPDEST PUSH1 0x40 MLOAD PUSH2 0x111 SWAP5 SWAP4 SWAP3 SWAP2 SWAP1 PUSH2 0x3EC1 JUMP JUMPDEST PUSH1 0x40 MLOAD DUP1 SWAP2 SUB SWAP1 RETURN JUMPDEST PUSH2 0x122 PUSH2 0x163F JUMP JUMPDEST PUSH1 0x40 MLOAD PUSH2 0x12F SWAP2 SWAP1 PUSH2 0x3F1B JUMP JUMPDEST PUSH1 0x40 MLOAD DUP1 SWAP2 SUB SWAP1 RETURN JUMPDEST PUSH2 0x152 PUSH1 0x4 DUP1 CALLDATASIZE SUB PUSH2 0x14D SWAP2 SWAP1 DUP2 ADD SWAP1 PUSH2 0x3793 JUMP JUMPDEST PUSH2 0x16F5 JUMP JUMPDEST PUSH1 0x40 MLOAD PUSH2 0x15F SWAP2 SWAP1 PUSH2 0x3F1B JUMP JUMPDEST PUSH1 0x40 MLOAD DUP1 SWAP2 SUB SWAP1 RETURN JUMPDEST PUSH2 0x170 PUSH2 0x17AD JUMP JUMPDEST PUSH1 0x40 MLOAD PUSH2 0x180 SWAP5 SWAP4 SWAP3 SWAP2 SWAP1 PUSH2 0x3EC1 JUMP JUMPDEST PUSH1 0x40 MLOAD DUP1 SWAP2 SUB SWAP1 RETURN JUMPDEST PUSH2 0x1A3 PUSH1 0x4 DUP1 CALLDATASIZE SUB PUSH2 0x19E SWAP2 SWAP1 DUP2 ADD SWAP1 PUSH2 0x3986 JUMP JUMPDEST PUSH2 0x2A03 JUMP JUMPDEST STOP JUMPDEST PUSH2 0x1BF PUSH1 0x4 DUP1 CALLDATASIZE SUB PUSH2 0x1BA SWAP2 SWAP1 DUP2 ADD SWAP1 PUSH2 0x3897 JUMP JUMPDEST PUSH2 0x2BB7 JUMP JUMPDEST STOP JUMPDEST PUSH2 0x1DB PUSH1 0x4 DUP1 CALLDATASIZE SUB PUSH2 0x1D6 SWAP2 SWAP1 DUP2 ADD SWAP1 PUSH2 0x3793 JUMP JUMPDEST PUSH2 0x2ED2 JUMP JUMPDEST PUSH1 0x40 MLOAD PUSH2 0x1E8 SWAP2 SWAP1 PUSH2 0x3EA6 JUMP JUMPDEST PUSH1 0x40 MLOAD DUP1 SWAP2 SUB SWAP1 RETURN JUMPDEST PUSH2 0x20B PUSH1 0x4 DUP1 CALLDATASIZE SUB PUSH2 0x206 SWAP2 SWAP1 DUP2 ADD SWAP1 PUSH2 0x37D4 JUMP JUMPDEST PUSH2 0x2FDC JUMP JUMPDEST STOP JUMPDEST PUSH2 0x227 PUSH1 0x4 DUP1 CALLDATASIZE SUB PUSH2 0x222 SWAP2 SWAP1 DUP2 ADD SWAP1 PUSH2 0x366D JUMP JUMPDEST PUSH2 0x317F JUMP JUMPDEST PUSH1 0x40 MLOAD PUSH2 0x234 SWAP2 SWAP1 PUSH2 0x3EA6 JUMP JUMPDEST PUSH1 0x40 MLOAD DUP1 SWAP2 SUB SWAP1 RETURN JUMPDEST PUSH2 0x245 PUSH2 0x335C JUMP JUMPDEST PUSH1 0x40 MLOAD PUSH2 0x252 SWAP2 SWAP1 PUSH2 0x3F1B JUMP JUMPDEST PUSH1 0x40 MLOAD DUP1 SWAP2 SUB SWAP1 RETURN JUMPDEST PUSH1 0x15 PUSH1 0x40 MLOAD PUSH1 0x20 ADD DUP1 DUP3 DUP1 SLOAD PUSH1 0x1 DUP2 PUSH1 0x1 AND ISZERO PUSH2 0x100 MUL SUB AND PUSH1 0x2 SWAP1 DIV DUP1 ISZERO PUSH2 0x2BB JUMPI DUP1 PUSH1 0x1F LT PUSH2 0x299 JUMPI PUSH2 0x100 DUP1 DUP4 SLOAD DIV MUL DUP4 MSTORE SWAP2 DUP3 ADD SWAP2 PUSH2 0x2BB JUMP JUMPDEST DUP3 ADD SWAP2 SWAP1 PUSH1 0x0 MSTORE PUSH1 0x20 PUSH1 0x0 KECCAK256 SWAP1 JUMPDEST DUP2 SLOAD DUP2 MSTORE SWAP1 PUSH1 0x1 ADD SWAP1 PUSH1 0x20 ADD DUP1 DUP4 GT PUSH2 0x2A7 JUMPI JUMPDEST POP POP SWAP2 POP POP PUSH1 0x40 MLOAD PUSH1 0x20 DUP2 DUP4 SUB SUB DUP2 MSTORE SWAP1 PUSH1 0x40 MSTORE DUP1 MLOAD SWAP1 PUSH1 0x20 ADD KECCAK256 DUP4 PUSH1 0x40 MLOAD PUSH1 0x20 ADD DUP1 DUP3 DUP1 MLOAD SWAP1 PUSH1 0x20 ADD SWAP1 DUP1 DUP4 DUP4 JUMPDEST PUSH1 0x20 DUP4 LT ISZERO ISZERO PUSH2 0x30F JUMPI DUP1 MLOAD DUP3 MSTORE PUSH1 0x20 DUP3 ADD SWAP2 POP PUSH1 0x20 DUP2 ADD SWAP1 POP PUSH1 0x20 DUP4 SUB SWAP3 POP PUSH2 0x2EA JUMP JUMPDEST PUSH1 0x1 DUP4 PUSH1 0x20 SUB PUSH2 0x100 EXP SUB DUP1 NOT DUP3 MLOAD AND DUP2 DUP5 MLOAD AND DUP1 DUP3 OR DUP6 MSTORE POP POP POP POP POP POP SWAP1 POP ADD SWAP2 POP POP PUSH1 0x40 MLOAD PUSH1 0x20 DUP2 DUP4 SUB SUB DUP2 MSTORE SWAP1 PUSH1 0x40 MSTORE DUP1 MLOAD SWAP1 PUSH1 0x20 ADD KECCAK256 EQ ISZERO PUSH2 0x3E2 JUMPI PUSH1 0x1 PUSH1 0x14 PUSH1 0x0 DUP7 PUSH20 0xFFFFFFFFFFFFFFFFFFFFFFFFFFFFFFFFFFFFFFFF AND PUSH20 0xFFFFFFFFFFFFFFFFFFFFFFFFFFFFFFFFFFFFFFFF AND DUP2 MSTORE PUSH1 0x20 ADD SWAP1 DUP2 MSTORE PUSH1 0x20 ADD PUSH1 0x0 KECCAK256 PUSH1 0x0 PUSH2 0x100 EXP DUP2 SLOAD DUP2 PUSH1 0xFF MUL NOT AND SWAP1 DUP4 ISZERO ISZERO MUL OR SWAP1 SSTORE POP PUSH32 0xEF0F252FA7157CBC267992E6FFB0392CEF11CE000A6E683E67DF6B4C493EC5DD DUP3 DUP3 PUSH1 0x40 MLOAD PUSH2 0x3D9 SWAP3 SWAP2 SWAP1 PUSH2 0x3F3D JUMP JUMPDEST PUSH1 0x40 MLOAD DUP1 SWAP2 SUB SWAP1 LOG1 JUMPDEST POP POP POP POP JUMP JUMPDEST PUSH1 0x0 PUSH2 0x3F2 PUSH2 0x3401 JUMP JUMPDEST PUSH2 0x3FA PUSH2 0x3447 JUMP JUMPDEST PUSH2 0x402 PUSH2 0x348D JUMP JUMPDEST PUSH2 0x40B DUP6 PUSH2 0x2ED2 JUMP JUMPDEST ISZERO PUSH2 0x1180 JUMPI PUSH1 0x1 PUSH1 0x0 PUSH1 0x8 PUSH1 0x10 DUP3 PUSH2 0x100 PUSH1 0x40 MLOAD SWAP1 DUP2 ADD PUSH1 0x40 MSTORE SWAP1 DUP2 PUSH1 0x0 DUP3 ADD DUP1 SLOAD PUSH1 0x1 DUP2 PUSH1 0x1 AND ISZERO PUSH2 0x100 MUL SUB AND PUSH1 0x2 SWAP1 DIV DUP1 PUSH1 0x1F ADD PUSH1 0x20 DUP1 SWAP2 DIV MUL PUSH1 0x20 ADD PUSH1 0x40 MLOAD SWAP1 DUP2 ADD PUSH1 0x40 MSTORE DUP1 SWAP3 SWAP2 SWAP1 DUP2 DUP2 MSTORE PUSH1 0x20 ADD DUP3 DUP1 SLOAD PUSH1 0x1 DUP2 PUSH1 0x1 AND ISZERO PUSH2 0x100 MUL SUB AND PUSH1 0x2 SWAP1 DIV DUP1 ISZERO PUSH2 0x4BF JUMPI DUP1 PUSH1 0x1F LT PUSH2 0x494 JUMPI PUSH2 0x100 DUP1 DUP4 SLOAD DIV MUL DUP4 MSTORE SWAP2 PUSH1 0x20 ADD SWAP2 PUSH2 0x4BF JUMP JUMPDEST DUP3 ADD SWAP2 SWAP1 PUSH1 0x0 MSTORE PUSH1 0x20 PUSH1 0x0 KECCAK256 SWAP1 JUMPDEST DUP2 SLOAD DUP2 MSTORE SWAP1 PUSH1 0x1 ADD SWAP1 PUSH1 0x20 ADD DUP1 DUP4 GT PUSH2 0x4A2 JUMPI DUP3 SWAP1 SUB PUSH1 0x1F AND DUP3 ADD SWAP2 JUMPDEST POP POP POP POP POP DUP2 MSTORE PUSH1 0x20 ADD PUSH1 0x1 DUP3 ADD DUP1 SLOAD PUSH1 0x1 DUP2 PUSH1 0x1 AND ISZERO PUSH2 0x100 MUL SUB AND PUSH1 0x2 SWAP1 DIV DUP1 PUSH1 0x1F ADD PUSH1 0x20 DUP1 SWAP2 DIV MUL PUSH1 0x20 ADD PUSH1 0x40 MLOAD SWAP1 DUP2 ADD PUSH1 0x40 MSTORE DUP1 SWAP3 SWAP2 SWAP1 DUP2 DUP2 MSTORE PUSH1 0x20 ADD DUP3 DUP1 SLOAD PUSH1 0x1 DUP2 PUSH1 0x1 AND ISZERO PUSH2 0x100 MUL SUB AND PUSH1 0x2 SWAP1 DIV DUP1 ISZERO PUSH2 0x561 JUMPI DUP1 PUSH1 0x1F LT PUSH2 0x536 JUMPI PUSH2 0x100 DUP1 DUP4 SLOAD DIV MUL DUP4 MSTORE SWAP2 PUSH1 0x20 ADD SWAP2 PUSH2 0x561 JUMP JUMPDEST DUP3 ADD SWAP2 SWAP1 PUSH1 0x0 MSTORE PUSH1 0x20 PUSH1 0x0 KECCAK256 SWAP1 JUMPDEST DUP2 SLOAD DUP2 MSTORE SWAP1 PUSH1 0x1 ADD SWAP1 PUSH1 0x20 ADD DUP1 DUP4 GT PUSH2 0x544 JUMPI DUP3 SWAP1 SUB PUSH1 0x1F AND DUP3 ADD SWAP2 JUMPDEST POP POP POP POP POP DUP2 MSTORE PUSH1 0x20 ADD PUSH1 0x2 DUP3 ADD DUP1 SLOAD PUSH1 0x1 DUP2 PUSH1 0x1 AND ISZERO PUSH2 0x100 MUL SUB AND PUSH1 0x2 SWAP1 DIV DUP1 PUSH1 0x1F ADD PUSH1 0x20 DUP1 SWAP2 DIV MUL PUSH1 0x20 ADD PUSH1 0x40 MLOAD SWAP1 DUP2 ADD PUSH1 0x40 MSTORE DUP1 SWAP3 SWAP2 SWAP1 DUP2 DUP2 MSTORE PUSH1 0x20 ADD DUP3 DUP1 SLOAD PUSH1 0x1 DUP2 PUSH1 0x1 AND ISZERO PUSH2 0x100 MUL SUB AND PUSH1 0x2 SWAP1 DIV DUP1 ISZERO PUSH2 0x603 JUMPI DUP1 PUSH1 0x1F LT PUSH2 0x5D8 JUMPI PUSH2 0x100 DUP1 DUP4 SLOAD DIV MUL DUP4 MSTORE SWAP2 PUSH1 0x20 ADD SWAP2 PUSH2 0x603 JUMP JUMPDEST DUP3 ADD SWAP2 SWAP1 PUSH1 0x0 MSTORE PUSH1 0x20 PUSH1 0x0 KECCAK256 SWAP1 JUMPDEST DUP2 SLOAD DUP2 MSTORE SWAP1 PUSH1 0x1 ADD SWAP1 PUSH1 0x20 ADD DUP1 DUP4 GT PUSH2 0x5E6 JUMPI DUP3 SWAP1 SUB PUSH1 0x1F AND DUP3 ADD SWAP2 JUMPDEST POP POP POP POP POP DUP2 MSTORE PUSH1 0x20 ADD PUSH1 0x3 DUP3 ADD DUP1 SLOAD PUSH1 0x1 DUP2 PUSH1 0x1 AND ISZERO PUSH2 0x100 MUL SUB AND PUSH1 0x2 SWAP1 DIV DUP1 PUSH1 0x1F ADD PUSH1 0x20 DUP1 SWAP2 DIV MUL PUSH1 0x20 ADD PUSH1 0x40 MLOAD SWAP1 DUP2 ADD PUSH1 0x40 MSTORE DUP1 SWAP3 SWAP2 SWAP1 DUP2 DUP2 MSTORE PUSH1 0x20 ADD DUP3 DUP1 SLOAD PUSH1 0x1 DUP2 PUSH1 0x1 AND ISZERO PUSH2 0x100 MUL SUB AND PUSH1 0x2 SWAP1 DIV DUP1 ISZERO PUSH2 0x6A5 JUMPI DUP1 PUSH1 0x1F LT PUSH2 0x67A JUMPI PUSH2 0x100 DUP1 DUP4 SLOAD DIV MUL DUP4 MSTORE SWAP2 PUSH1 0x20 ADD SWAP2 PUSH2 0x6A5 JUMP JUMPDEST DUP3 ADD SWAP2 SWAP1 PUSH1 0x0 MSTORE PUSH1 0x20 PUSH1 0x0 KECCAK256 SWAP1 JUMPDEST DUP2 SLOAD DUP2 MSTORE SWAP1 PUSH1 0x1 ADD SWAP1 PUSH1 0x20 ADD DUP1 DUP4 GT PUSH2 0x688 JUMPI DUP3 SWAP1 SUB PUSH1 0x1F AND DUP3 ADD SWAP2 JUMPDEST POP POP POP POP POP DUP2 MSTORE PUSH1 0x20 ADD PUSH1 0x4 DUP3 ADD SLOAD DUP2 MSTORE PUSH1 0x20 ADD PUSH1 0x5 DUP3 ADD DUP1 SLOAD PUSH1 0x1 DUP2 PUSH1 0x1 AND ISZERO PUSH2 0x100 MUL SUB AND PUSH1 0x2 SWAP1 DIV DUP1 PUSH1 0x1F ADD PUSH1 0x20 DUP1 SWAP2 DIV MUL PUSH1 0x20 ADD PUSH1 0x40 MLOAD SWAP1 DUP2 ADD PUSH1 0x40 MSTORE DUP1 SWAP3 SWAP2 SWAP1 DUP2 DUP2 MSTORE PUSH1 0x20 ADD DUP3 DUP1 SLOAD PUSH1 0x1 DUP2 PUSH1 0x1 AND ISZERO PUSH2 0x100 MUL SUB AND PUSH1 0x2 SWAP1 DIV DUP1 ISZERO PUSH2 0x751 JUMPI DUP1 PUSH1 0x1F LT PUSH2 0x726 JUMPI PUSH2 0x100 DUP1 DUP4 SLOAD DIV MUL DUP4 MSTORE SWAP2 PUSH1 0x20 ADD SWAP2 PUSH2 0x751 JUMP JUMPDEST DUP3 ADD SWAP2 SWAP1 PUSH1 0x0 MSTORE PUSH1 0x20 PUSH1 0x0 KECCAK256 SWAP1 JUMPDEST DUP2 SLOAD DUP2 MSTORE SWAP1 PUSH1 0x1 ADD SWAP1 PUSH1 0x20 ADD DUP1 DUP4 GT PUSH2 0x734 JUMPI DUP3 SWAP1 SUB PUSH1 0x1F AND DUP3 ADD SWAP2 JUMPDEST POP POP POP POP POP DUP2 MSTORE PUSH1 0x20 ADD PUSH1 0x6 DUP3 ADD DUP1 SLOAD PUSH1 0x1 DUP2 PUSH1 0x1 AND ISZERO PUSH2 0x100 MUL SUB AND PUSH1 0x2 SWAP1 DIV DUP1 PUSH1 0x1F ADD PUSH1 0x20 DUP1 SWAP2 DIV MUL PUSH1 0x20 ADD PUSH1 0x40 MLOAD SWAP1 DUP2 ADD PUSH1 0x40 MSTORE DUP1 SWAP3 SWAP2 SWAP1 DUP2 DUP2 MSTORE PUSH1 0x20 ADD DUP3 DUP1 SLOAD PUSH1 0x1 DUP2 PUSH1 0x1 AND ISZERO PUSH2 0x100 MUL SUB AND PUSH1 0x2 SWAP1 DIV DUP1 ISZERO PUSH2 0x7F3 JUMPI DUP1 PUSH1 0x1F LT PUSH2 0x7C8 JUMPI PUSH2 0x100 DUP1 DUP4 SLOAD DIV MUL DUP4 MSTORE SWAP2 PUSH1 0x20 ADD SWAP2 PUSH2 0x7F3 JUMP JUMPDEST DUP3 ADD SWAP2 SWAP1 PUSH1 0x0 MSTORE PUSH1 0x20 PUSH1 0x0 KECCAK256 SWAP1 JUMPDEST DUP2 SLOAD DUP2 MSTORE SWAP1 PUSH1 0x1 ADD SWAP1 PUSH1 0x20 ADD DUP1 DUP4 GT PUSH2 0x7D6 JUMPI DUP3 SWAP1 SUB PUSH1 0x1F AND DUP3 ADD SWAP2 JUMPDEST POP POP POP POP POP DUP2 MSTORE PUSH1 0x20 ADD PUSH1 0x7 DUP3 ADD DUP1 SLOAD PUSH1 0x1 DUP2 PUSH1 0x1 AND ISZERO PUSH2 0x100 MUL SUB AND PUSH1 0x2 SWAP1 DIV DUP1 PUSH1 0x1F ADD PUSH1 0x20 DUP1 SWAP2 DIV MUL PUSH1 0x20 ADD PUSH1 0x40 MLOAD SWAP1 DUP2 ADD PUSH1 0x40 MSTORE DUP1 SWAP3 SWAP2 SWAP1 DUP2 DUP2 MSTORE PUSH1 0x20 ADD DUP3 DUP1 SLOAD PUSH1 0x1 DUP2 PUSH1 0x1 AND ISZERO PUSH2 0x100 MUL SUB AND PUSH1 0x2 SWAP1 DIV DUP1 ISZERO PUSH2 0x895 JUMPI DUP1 PUSH1 0x1F LT PUSH2 0x86A JUMPI PUSH2 0x100 DUP1 DUP4 SLOAD DIV MUL DUP4 MSTORE SWAP2 PUSH1 0x20 ADD SWAP2 PUSH2 0x895 JUMP JUMPDEST DUP3 ADD SWAP2 SWAP1 PUSH1 0x0 MSTORE PUSH1 0x20 PUSH1 0x0 KECCAK256 SWAP1 JUMPDEST DUP2 SLOAD DUP2 MSTORE SWAP1 PUSH1 0x1 ADD SWAP1 PUSH1 0x20 ADD DUP1 DUP4 GT PUSH2 0x878 JUMPI DUP3 SWAP1 SUB PUSH1 0x1F AND DUP3 ADD SWAP2 JUMPDEST POP POP POP POP POP DUP2 MSTORE POP POP SWAP3 POP DUP2 PUSH2 0x100 PUSH1 0x40 MLOAD SWAP1 DUP2 ADD PUSH1 0x40 MSTORE SWAP1 DUP2 PUSH1 0x0 DUP3 ADD DUP1 SLOAD PUSH1 0x1 DUP2 PUSH1 0x1 AND ISZERO PUSH2 0x100 MUL SUB AND PUSH1 0x2 SWAP1 DIV DUP1 PUSH1 0x1F ADD PUSH1 0x20 DUP1 SWAP2 DIV MUL PUSH1 0x20 ADD PUSH1 0x40 MLOAD SWAP1 DUP2 ADD PUSH1 0x40 MSTORE DUP1 SWAP3 SWAP2 SWAP1 DUP2 DUP2 MSTORE PUSH1 0x20 ADD DUP3 DUP1 SLOAD PUSH1 0x1 DUP2 PUSH1 0x1 AND ISZERO PUSH2 0x100 MUL SUB AND PUSH1 0x2 SWAP1 DIV DUP1 ISZERO PUSH2 0x947 JUMPI DUP1 PUSH1 0x1F LT PUSH2 0x91C JUMPI PUSH2 0x100 DUP1 DUP4 SLOAD DIV MUL DUP4 MSTORE SWAP2 PUSH1 0x20 ADD SWAP2 PUSH2 0x947 JUMP JUMPDEST DUP3 ADD SWAP2 SWAP1 PUSH1 0x0 MSTORE PUSH1 0x20 PUSH1 0x0 KECCAK256 SWAP1 JUMPDEST DUP2 SLOAD DUP2 MSTORE SWAP1 PUSH1 0x1 ADD SWAP1 PUSH1 0x20 ADD DUP1 DUP4 GT PUSH2 0x92A JUMPI DUP3 SWAP1 SUB PUSH1 0x1F AND DUP3 ADD SWAP2 JUMPDEST POP POP POP POP POP DUP2 MSTORE PUSH1 0x20 ADD PUSH1 0x1 DUP3 ADD DUP1 SLOAD PUSH1 0x1 DUP2 PUSH1 0x1 AND ISZERO PUSH2 0x100 MUL SUB AND PUSH1 0x2 SWAP1 DIV DUP1 PUSH1 0x1F ADD PUSH1 0x20 DUP1 SWAP2 DIV MUL PUSH1 0x20 ADD PUSH1 0x40 MLOAD SWAP1 DUP2 ADD PUSH1 0x40 MSTORE DUP1 SWAP3 SWAP2 SWAP1 DUP2 DUP2 MSTORE PUSH1 0x20 ADD DUP3 DUP1 SLOAD PUSH1 0x1 DUP2 PUSH1 0x1 AND ISZERO PUSH2 0x100 MUL SUB AND PUSH1 0x2 SWAP1 DIV DUP1 ISZERO PUSH2 0x9E9 JUMPI DUP1 PUSH1 0x1F LT PUSH2 0x9BE JUMPI PUSH2 0x100 DUP1 DUP4 SLOAD DIV MUL DUP4 MSTORE SWAP2 PUSH1 0x20 ADD SWAP2 PUSH2 0x9E9 JUMP JUMPDEST DUP3 ADD SWAP2 SWAP1 PUSH1 0x0 MSTORE PUSH1 0x20 PUSH1 0x0 KECCAK256 SWAP1 JUMPDEST DUP2 SLOAD DUP2 MSTORE SWAP1 PUSH1 0x1 ADD SWAP1 PUSH1 0x20 ADD DUP1 DUP4 GT PUSH2 0x9CC JUMPI DUP3 SWAP1 SUB PUSH1 0x1F AND DUP3 ADD SWAP2 JUMPDEST POP POP POP POP POP DUP2 MSTORE PUSH1 0x20 ADD PUSH1 0x2 DUP3 ADD DUP1 SLOAD PUSH1 0x1 DUP2 PUSH1 0x1 AND ISZERO PUSH2 0x100 MUL SUB AND PUSH1 0x2 SWAP1 DIV DUP1 PUSH1 0x1F ADD PUSH1 0x20 DUP1 SWAP2 DIV MUL PUSH1 0x20 ADD PUSH1 0x40 MLOAD SWAP1 DUP2 ADD PUSH1 0x40 MSTORE DUP1 SWAP3 SWAP2 SWAP1 DUP2 DUP2 MSTORE PUSH1 0x20 ADD DUP3 DUP1 SLOAD PUSH1 0x1 DUP2 PUSH1 0x1 AND ISZERO PUSH2 0x100 MUL SUB AND PUSH1 0x2 SWAP1 DIV DUP1 ISZERO PUSH2 0xA8B JUMPI DUP1 PUSH1 0x1F LT PUSH2 0xA60 JUMPI PUSH2 0x100 DUP1 DUP4 SLOAD DIV MUL DUP4 MSTORE SWAP2 PUSH1 0x20 ADD SWAP2 PUSH2 0xA8B JUMP JUMPDEST DUP3 ADD SWAP2 SWAP1 PUSH1 0x0 MSTORE PUSH1 0x20 PUSH1 0x0 KECCAK256 SWAP1 JUMPDEST DUP2 SLOAD DUP2 MSTORE SWAP1 PUSH1 0x1 ADD SWAP1 PUSH1 0x20 ADD DUP1 DUP4 GT PUSH2 0xA6E JUMPI DUP3 SWAP1 SUB PUSH1 0x1F AND DUP3 ADD SWAP2 JUMPDEST POP POP POP POP POP DUP2 MSTORE PUSH1 0x20 ADD PUSH1 0x3 DUP3 ADD DUP1 SLOAD PUSH1 0x1 DUP2 PUSH1 0x1 AND ISZERO PUSH2 0x100 MUL SUB AND PUSH1 0x2 SWAP1 DIV DUP1 PUSH1 0x1F ADD PUSH1 0x20 DUP1 SWAP2 DIV MUL PUSH1 0x20 ADD PUSH1 0x40 MLOAD SWAP1 DUP2 ADD PUSH1 0x40 MSTORE DUP1 SWAP3 SWAP2 SWAP1 DUP2 DUP2 MSTORE PUSH1 0x20 ADD DUP3 DUP1 SLOAD PUSH1 0x1 DUP2 PUSH1 0x1 AND ISZERO PUSH2 0x100 MUL SUB AND PUSH1 0x2 SWAP1 DIV DUP1 ISZERO PUSH2 0xB2D JUMPI DUP1 PUSH1 0x1F LT PUSH2 0xB02 JUMPI PUSH2 0x100 DUP1 DUP4 SLOAD DIV MUL DUP4 MSTORE SWAP2 PUSH1 0x20 ADD SWAP2 PUSH2 0xB2D JUMP JUMPDEST DUP3 ADD SWAP2 SWAP1 PUSH1 0x0 MSTORE PUSH1 0x20 PUSH1 0x0 KECCAK256 SWAP1 JUMPDEST DUP2 SLOAD DUP2 MSTORE SWAP1 PUSH1 0x1 ADD SWAP1 PUSH1 0x20 ADD DUP1 DUP4 GT PUSH2 0xB10 JUMPI DUP3 SWAP1 SUB PUSH1 0x1F AND DUP3 ADD SWAP2 JUMPDEST POP POP POP POP POP DUP2 MSTORE PUSH1 0x20 ADD PUSH1 0x4 DUP3 ADD DUP1 SLOAD PUSH1 0x1 DUP2 PUSH1 0x1 AND ISZERO PUSH2 0x100 MUL SUB AND PUSH1 0x2 SWAP1 DIV DUP1 PUSH1 0x1F ADD PUSH1 0x20 DUP1 SWAP2 DIV MUL PUSH1 0x20 ADD PUSH1 0x40 MLOAD SWAP1 DUP2 ADD PUSH1 0x40 MSTORE DUP1 SWAP3 SWAP2 SWAP1 DUP2 DUP2 MSTORE PUSH1 0x20 ADD DUP3 DUP1 SLOAD PUSH1 0x1 DUP2 PUSH1 0x1 AND ISZERO PUSH2 0x100 MUL SUB AND PUSH1 0x2 SWAP1 DIV DUP1 ISZERO PUSH2 0xBCF JUMPI DUP1 PUSH1 0x1F LT PUSH2 0xBA4 JUMPI PUSH2 0x100 DUP1 DUP4 SLOAD DIV MUL DUP4 MSTORE SWAP2 PUSH1 0x20 ADD SWAP2 PUSH2 0xBCF JUMP JUMPDEST DUP3 ADD SWAP2 SWAP1 PUSH1 0x0 MSTORE PUSH1 0x20 PUSH1 0x0 KECCAK256 SWAP1 JUMPDEST DUP2 SLOAD DUP2 MSTORE SWAP1 PUSH1 0x1 ADD SWAP1 PUSH1 0x20 ADD DUP1 DUP4 GT PUSH2 0xBB2 JUMPI DUP3 SWAP1 SUB PUSH1 0x1F AND DUP3 ADD SWAP2 JUMPDEST POP POP POP POP POP DUP2 MSTORE PUSH1 0x20 ADD PUSH1 0x5 DUP3 ADD DUP1 SLOAD PUSH1 0x1 DUP2 PUSH1 0x1 AND ISZERO PUSH2 0x100 MUL SUB AND PUSH1 0x2 SWAP1 DIV DUP1 PUSH1 0x1F ADD PUSH1 0x20 DUP1 SWAP2 DIV MUL PUSH1 0x20 ADD PUSH1 0x40 MLOAD SWAP1 DUP2 ADD PUSH1 0x40 MSTORE DUP1 SWAP3 SWAP2 SWAP1 DUP2 DUP2 MSTORE PUSH1 0x20 ADD DUP3 DUP1 SLOAD PUSH1 0x1 DUP2 PUSH1 0x1 AND ISZERO PUSH2 0x100 MUL SUB AND PUSH1 0x2 SWAP1 DIV DUP1 ISZERO PUSH2 0xC71 JUMPI DUP1 PUSH1 0x1F LT PUSH2 0xC46 JUMPI PUSH2 0x100 DUP1 DUP4 SLOAD DIV MUL DUP4 MSTORE SWAP2 PUSH1 0x20 ADD SWAP2 PUSH2 0xC71 JUMP JUMPDEST DUP3 ADD SWAP2 SWAP1 PUSH1 0x0 MSTORE PUSH1 0x20 PUSH1 0x0 KECCAK256 SWAP1 JUMPDEST DUP2 SLOAD DUP2 MSTORE SWAP1 PUSH1 0x1 ADD SWAP1 PUSH1 0x20 ADD DUP1 DUP4 GT PUSH2 0xC54 JUMPI DUP3 SWAP1 SUB PUSH1 0x1F AND DUP3 ADD SWAP2 JUMPDEST POP POP POP POP POP DUP2 MSTORE PUSH1 0x20 ADD PUSH1 0x6 DUP3 ADD DUP1 SLOAD PUSH1 0x1 DUP2 PUSH1 0x1 AND ISZERO PUSH2 0x100 MUL SUB AND PUSH1 0x2 SWAP1 DIV DUP1 PUSH1 0x1F ADD PUSH1 0x20 DUP1 SWAP2 DIV MUL PUSH1 0x20 ADD PUSH1 0x40 MLOAD SWAP1 DUP2 ADD PUSH1 0x40 MSTORE DUP1 SWAP3 SWAP2 SWAP1 DUP2 DUP2 MSTORE PUSH1 0x20 ADD DUP3 DUP1 SLOAD PUSH1 0x1 DUP2 PUSH1 0x1 AND ISZERO PUSH2 0x100 MUL SUB AND PUSH1 0x2 SWAP1 DIV DUP1 ISZERO PUSH2 0xD13 JUMPI DUP1 PUSH1 0x1F LT PUSH2 0xCE8 JUMPI PUSH2 0x100 DUP1 DUP4 SLOAD DIV MUL DUP4 MSTORE SWAP2 PUSH1 0x20 ADD SWAP2 PUSH2 0xD13 JUMP JUMPDEST DUP3 ADD SWAP2 SWAP1 PUSH1 0x0 MSTORE PUSH1 0x20 PUSH1 0x0 KECCAK256 SWAP1 JUMPDEST DUP2 SLOAD DUP2 MSTORE SWAP1 PUSH1 0x1 ADD SWAP1 PUSH1 0x20 ADD DUP1 DUP4 GT PUSH2 0xCF6 JUMPI DUP3 SWAP1 SUB PUSH1 0x1F AND DUP3 ADD SWAP2 JUMPDEST POP POP POP POP POP DUP2 MSTORE PUSH1 0x20 ADD PUSH1 0x7 DUP3 ADD DUP1 SLOAD PUSH1 0x1 DUP2 PUSH1 0x1 AND ISZERO PUSH2 0x100 MUL SUB AND PUSH1 0x2 SWAP1 DIV DUP1 PUSH1 0x1F ADD PUSH1 0x20 DUP1 SWAP2 DIV MUL PUSH1 0x20 ADD PUSH1 0x40 MLOAD SWAP1 DUP2 ADD PUSH1 0x40 MSTORE DUP1 SWAP3 SWAP2 SWAP1 DUP2 DUP2 MSTORE PUSH1 0x20 ADD DUP3 DUP1 SLOAD PUSH1 0x1 DUP2 PUSH1 0x1 AND ISZERO PUSH2 0x100 MUL SUB AND PUSH1 0x2 SWAP1 DIV DUP1 ISZERO PUSH2 0xDB5 JUMPI DUP1 PUSH1 0x1F LT PUSH2 0xD8A JUMPI PUSH2 0x100 DUP1 DUP4 SLOAD DIV MUL DUP4 MSTORE SWAP2 PUSH1 0x20 ADD SWAP2 PUSH2 0xDB5 JUMP JUMPDEST DUP3 ADD SWAP2 SWAP1 PUSH1 0x0 MSTORE PUSH1 0x20 PUSH1 0x0 KECCAK256 SWAP1 JUMPDEST DUP2 SLOAD DUP2 MSTORE SWAP1 PUSH1 0x1 ADD SWAP1 PUSH1 0x20 ADD DUP1 DUP4 GT PUSH2 0xD98 JUMPI DUP3 SWAP1 SUB PUSH1 0x1F AND DUP3 ADD SWAP2 JUMPDEST POP POP POP POP POP DUP2 MSTORE POP POP SWAP2 POP DUP1 PUSH1 0x80 PUSH1 0x40 MLOAD SWAP1 DUP2 ADD PUSH1 0x40 MSTORE SWAP1 DUP2 PUSH1 0x0 DUP3 ADD DUP1 SLOAD DUP1 PUSH1 0x20 MUL PUSH1 0x20 ADD PUSH1 0x40 MLOAD SWAP1 DUP2 ADD PUSH1 0x40 MSTORE DUP1 SWAP3 SWAP2 SWAP1 DUP2 DUP2 MSTORE PUSH1 0x20 ADD PUSH1 0x0 SWAP1 JUMPDEST DUP3 DUP3 LT ISZERO PUSH2 0xEAE JUMPI DUP4 DUP3 SWAP1 PUSH1 0x0 MSTORE PUSH1 0x20 PUSH1 0x0 KECCAK256 ADD DUP1 SLOAD PUSH1 0x1 DUP2 PUSH1 0x1 AND ISZERO PUSH2 0x100 MUL SUB AND PUSH1 0x2 SWAP1 DIV DUP1 PUSH1 0x1F ADD PUSH1 0x20 DUP1 SWAP2 DIV MUL PUSH1 0x20 ADD PUSH1 0x40 MLOAD SWAP1 DUP2 ADD PUSH1 0x40 MSTORE DUP1 SWAP3 SWAP2 SWAP1 DUP2 DUP2 MSTORE PUSH1 0x20 ADD DUP3 DUP1 SLOAD PUSH1 0x1 DUP2 PUSH1 0x1 AND ISZERO PUSH2 0x100 MUL SUB AND PUSH1 0x2 SWAP1 DIV DUP1 ISZERO PUSH2 0xE9A JUMPI DUP1 PUSH1 0x1F LT PUSH2 0xE6F JUMPI PUSH2 0x100 DUP1 DUP4 SLOAD DIV MUL DUP4 MSTORE SWAP2 PUSH1 0x20 ADD SWAP2 PUSH2 0xE9A JUMP JUMPDEST DUP3 ADD SWAP2 SWAP1 PUSH1 0x0 MSTORE PUSH1 0x20 PUSH1 0x0 KECCAK256 SWAP1 JUMPDEST DUP2 SLOAD DUP2 MSTORE SWAP1 PUSH1 0x1 ADD SWAP1 PUSH1 0x20 ADD DUP1 DUP4 GT PUSH2 0xE7D JUMPI DUP3 SWAP1 SUB PUSH1 0x1F AND DUP3 ADD SWAP2 JUMPDEST POP POP POP POP POP DUP2 MSTORE PUSH1 0x20 ADD SWAP1 PUSH1 0x1 ADD SWAP1 PUSH2 0xDF2 JUMP JUMPDEST POP POP POP POP DUP2 MSTORE PUSH1 0x20 ADD PUSH1 0x1 DUP3 ADD DUP1 SLOAD DUP1 PUSH1 0x20 MUL PUSH1 0x20 ADD PUSH1 0x40 MLOAD SWAP1 DUP2 ADD PUSH1 0x40 MSTORE DUP1 SWAP3 SWAP2 SWAP1 DUP2 DUP2 MSTORE PUSH1 0x20 ADD PUSH1 0x0 SWAP1 JUMPDEST DUP3 DUP3 LT ISZERO PUSH2 0xF97 JUMPI DUP4 DUP3 SWAP1 PUSH1 0x0 MSTORE PUSH1 0x20 PUSH1 0x0 KECCAK256 ADD DUP1 SLOAD PUSH1 0x1 DUP2 PUSH1 0x1 AND ISZERO PUSH2 0x100 MUL SUB AND PUSH1 0x2 SWAP1 DIV DUP1 PUSH1 0x1F ADD PUSH1 0x20 DUP1 SWAP2 DIV MUL PUSH1 0x20 ADD PUSH1 0x40 MLOAD SWAP1 DUP2 ADD PUSH1 0x40 MSTORE DUP1 SWAP3 SWAP2 SWAP1 DUP2 DUP2 MSTORE PUSH1 0x20 ADD DUP3 DUP1 SLOAD PUSH1 0x1 DUP2 PUSH1 0x1 AND ISZERO PUSH2 0x100 MUL SUB AND PUSH1 0x2 SWAP1 DIV DUP1 ISZERO PUSH2 0xF83 JUMPI DUP1 PUSH1 0x1F LT PUSH2 0xF58 JUMPI PUSH2 0x100 DUP1 DUP4 SLOAD DIV MUL DUP4 MSTORE SWAP2 PUSH1 0x20 ADD SWAP2 PUSH2 0xF83 JUMP JUMPDEST DUP3 ADD SWAP2 SWAP1 PUSH1 0x0 MSTORE PUSH1 0x20 PUSH1 0x0 KECCAK256 SWAP1 JUMPDEST DUP2 SLOAD DUP2 MSTORE SWAP1 PUSH1 0x1 ADD SWAP1 PUSH1 0x20 ADD DUP1 DUP4 GT PUSH2 0xF66 JUMPI DUP3 SWAP1 SUB PUSH1 0x1F AND DUP3 ADD SWAP2 JUMPDEST POP POP POP POP POP DUP2 MSTORE PUSH1 0x20 ADD SWAP1 PUSH1 0x1 ADD SWAP1 PUSH2 0xEDB JUMP JUMPDEST POP POP POP POP DUP2 MSTORE PUSH1 0x20 ADD PUSH1 0x2 DUP3 ADD DUP1 SLOAD DUP1 PUSH1 0x20 MUL PUSH1 0x20 ADD PUSH1 0x40 MLOAD SWAP1 DUP2 ADD PUSH1 0x40 MSTORE DUP1 SWAP3 SWAP2 SWAP1 DUP2 DUP2 MSTORE PUSH1 0x20 ADD PUSH1 0x0 SWAP1 JUMPDEST DUP3 DUP3 LT ISZERO PUSH2 0x1080 JUMPI DUP4 DUP3 SWAP1 PUSH1 0x0 MSTORE PUSH1 0x20 PUSH1 0x0 KECCAK256 ADD DUP1 SLOAD PUSH1 0x1 DUP2 PUSH1 0x1 AND ISZERO PUSH2 0x100 MUL SUB AND PUSH1 0x2 SWAP1 DIV DUP1 PUSH1 0x1F ADD PUSH1 0x20 DUP1 SWAP2 DIV MUL PUSH1 0x20 ADD PUSH1 0x40 MLOAD SWAP1 DUP2 ADD PUSH1 0x40 MSTORE DUP1 SWAP3 SWAP2 SWAP1 DUP2 DUP2 MSTORE PUSH1 0x20 ADD DUP3 DUP1 SLOAD PUSH1 0x1 DUP2 PUSH1 0x1 AND ISZERO PUSH2 0x100 MUL SUB AND PUSH1 0x2 SWAP1 DIV DUP1 ISZERO PUSH2 0x106C JUMPI DUP1 PUSH1 0x1F LT PUSH2 0x1041 JUMPI PUSH2 0x100 DUP1 DUP4 SLOAD DIV MUL DUP4 MSTORE SWAP2 PUSH1 0x20 ADD SWAP2 PUSH2 0x106C JUMP JUMPDEST DUP3 ADD SWAP2 SWAP1 PUSH1 0x0 MSTORE PUSH1 0x20 PUSH1 0x0 KECCAK256 SWAP1 JUMPDEST DUP2 SLOAD DUP2 MSTORE SWAP1 PUSH1 0x1 ADD SWAP1 PUSH1 0x20 ADD DUP1 DUP4 GT PUSH2 0x104F JUMPI DUP3 SWAP1 SUB PUSH1 0x1F AND DUP3 ADD SWAP2 JUMPDEST POP POP POP POP POP DUP2 MSTORE PUSH1 0x20 ADD SWAP1 PUSH1 0x1 ADD SWAP1 PUSH2 0xFC4 JUMP JUMPDEST POP POP POP POP DUP2 MSTORE PUSH1 0x20 ADD PUSH1 0x3 DUP3 ADD DUP1 SLOAD DUP1 PUSH1 0x20 MUL PUSH1 0x20 ADD PUSH1 0x40 MLOAD SWAP1 DUP2 ADD PUSH1 0x40 MSTORE DUP1 SWAP3 SWAP2 SWAP1 DUP2 DUP2 MSTORE PUSH1 0x20 ADD PUSH1 0x0 SWAP1 JUMPDEST DUP3 DUP3 LT ISZERO PUSH2 0x1169 JUMPI DUP4 DUP3 SWAP1 PUSH1 0x0 MSTORE PUSH1 0x20 PUSH1 0x0 KECCAK256 ADD DUP1 SLOAD PUSH1 0x1 DUP2 PUSH1 0x1 AND ISZERO PUSH2 0x100 MUL SUB AND PUSH1 0x2 SWAP1 DIV DUP1 PUSH1 0x1F ADD PUSH1 0x20 DUP1 SWAP2 DIV MUL PUSH1 0x20 ADD PUSH1 0x40 MLOAD SWAP1 DUP2 ADD PUSH1 0x40 MSTORE DUP1 SWAP3 SWAP2 SWAP1 DUP2 DUP2 MSTORE PUSH1 0x20 ADD DUP3 DUP1 SLOAD PUSH1 0x1 DUP2 PUSH1 0x1 AND ISZERO PUSH2 0x100 MUL SUB AND PUSH1 0x2 SWAP1 DIV DUP1 ISZERO PUSH2 0x1155 JUMPI DUP1 PUSH1 0x1F LT PUSH2 0x112A JUMPI PUSH2 0x100 DUP1 DUP4 SLOAD DIV MUL DUP4 MSTORE SWAP2 PUSH1 0x20 ADD SWAP2 PUSH2 0x1155 JUMP JUMPDEST DUP3 ADD SWAP2 SWAP1 PUSH1 0x0 MSTORE PUSH1 0x20 PUSH1 0x0 KECCAK256 SWAP1 JUMPDEST DUP2 SLOAD DUP2 MSTORE SWAP1 PUSH1 0x1 ADD SWAP1 PUSH1 0x20 ADD DUP1 DUP4 GT PUSH2 0x1138 JUMPI DUP3 SWAP1 SUB PUSH1 0x1F AND DUP3 ADD SWAP2 JUMPDEST POP POP POP POP POP DUP2 MSTORE PUSH1 0x20 ADD SWAP1 PUSH1 0x1 ADD SWAP1 PUSH2 0x10AD JUMP JUMPDEST POP POP POP POP DUP2 MSTORE POP POP SWAP1 POP SWAP4 POP SWAP4 POP SWAP4 POP SWAP4 POP PUSH2 0x1638 JUMP JUMPDEST PUSH2 0x1188 PUSH2 0x3401 JUMP JUMPDEST PUSH2 0x100 PUSH1 0x40 MLOAD SWAP1 DUP2 ADD PUSH1 0x40 MSTORE DUP1 PUSH1 0x40 DUP1 MLOAD SWAP1 DUP2 ADD PUSH1 0x40 MSTORE DUP1 PUSH1 0x3 DUP2 MSTORE PUSH1 0x20 ADD PUSH32 0x7878780000000000000000000000000000000000000000000000000000000000 DUP2 MSTORE POP DUP2 MSTORE PUSH1 0x20 ADD PUSH1 0x40 DUP1 MLOAD SWAP1 DUP2 ADD PUSH1 0x40 MSTORE DUP1 PUSH1 0x3 DUP2 MSTORE PUSH1 0x20 ADD PUSH32 0x7878780000000000000000000000000000000000000000000000000000000000 DUP2 MSTORE POP DUP2 MSTORE PUSH1 0x20 ADD PUSH1 0x40 DUP1 MLOAD SWAP1 DUP2 ADD PUSH1 0x40 MSTORE DUP1 PUSH1 0x3 DUP2 MSTORE PUSH1 0x20 ADD PUSH32 0x7878780000000000000000000000000000000000000000000000000000000000 DUP2 MSTORE POP DUP2 MSTORE PUSH1 0x20 ADD PUSH1 0x40 DUP1 MLOAD SWAP1 DUP2 ADD PUSH1 0x40 MSTORE DUP1 PUSH1 0x3 DUP2 MSTORE PUSH1 0x20 ADD PUSH32 0x7878780000000000000000000000000000000000000000000000000000000000 DUP2 MSTORE POP DUP2 MSTORE PUSH1 0x20 ADD PUSH2 0x3E7 DUP2 MSTORE PUSH1 0x20 ADD PUSH1 0x40 DUP1 MLOAD SWAP1 DUP2 ADD PUSH1 0x40 MSTORE DUP1 PUSH1 0x3 DUP2 MSTORE PUSH1 0x20 ADD PUSH32 0x7878780000000000000000000000000000000000000000000000000000000000 DUP2 MSTORE POP DUP2 MSTORE PUSH1 0x20 ADD PUSH1 0x40 DUP1 MLOAD SWAP1 DUP2 ADD PUSH1 0x40 MSTORE DUP1 PUSH1 0x3 DUP2 MSTORE PUSH1 0x20 ADD PUSH32 0x7878780000000000000000000000000000000000000000000000000000000000 DUP2 MSTORE POP DUP2 MSTORE PUSH1 0x20 ADD PUSH1 0x40 DUP1 MLOAD SWAP1 DUP2 ADD PUSH1 0x40 MSTORE DUP1 PUSH1 0x3 DUP2 MSTORE PUSH1 0x20 ADD PUSH32 0x7878780000000000000000000000000000000000000000000000000000000000 DUP2 MSTORE POP DUP2 MSTORE POP SWAP1 POP PUSH2 0x1342 PUSH2 0x3447 JUMP JUMPDEST PUSH2 0x100 PUSH1 0x40 MLOAD SWAP1 DUP2 ADD PUSH1 0x40 MSTORE DUP1 PUSH1 0x40 DUP1 MLOAD SWAP1 DUP2 ADD PUSH1 0x40 MSTORE DUP1 PUSH1 0x3 DUP2 MSTORE PUSH1 0x20 ADD PUSH32 0x7878780000000000000000000000000000000000000000000000000000000000 DUP2 MSTORE POP DUP2 MSTORE PUSH1 0x20 ADD PUSH1 0x40 DUP1 MLOAD SWAP1 DUP2 ADD PUSH1 0x40 MSTORE DUP1 PUSH1 0x3 DUP2 MSTORE PUSH1 0x20 ADD PUSH32 0x7878780000000000000000000000000000000000000000000000000000000000 DUP2 MSTORE POP DUP2 MSTORE PUSH1 0x20 ADD PUSH1 0x40 DUP1 MLOAD SWAP1 DUP2 ADD PUSH1 0x40 MSTORE DUP1 PUSH1 0x3 DUP2 MSTORE PUSH1 0x20 ADD PUSH32 0x7878780000000000000000000000000000000000000000000000000000000000 DUP2 MSTORE POP DUP2 MSTORE PUSH1 0x20 ADD PUSH1 0x40 DUP1 MLOAD SWAP1 DUP2 ADD PUSH1 0x40 MSTORE DUP1 PUSH1 0x3 DUP2 MSTORE PUSH1 0x20 ADD PUSH32 0x7878780000000000000000000000000000000000000000000000000000000000 DUP2 MSTORE POP DUP2 MSTORE PUSH1 0x20 ADD PUSH1 0x40 DUP1 MLOAD SWAP1 DUP2 ADD PUSH1 0x40 MSTORE DUP1 PUSH1 0x3 DUP2 MSTORE PUSH1 0x20 ADD PUSH32 0x7878780000000000000000000000000000000000000000000000000000000000 DUP2 MSTORE POP DUP2 MSTORE PUSH1 0x20 ADD PUSH1 0x40 DUP1 MLOAD SWAP1 DUP2 ADD PUSH1 0x40 MSTORE DUP1 PUSH1 0x3 DUP2 MSTORE PUSH1 0x20 ADD PUSH32 0x7878780000000000000000000000000000000000000000000000000000000000 DUP2 MSTORE POP DUP2 MSTORE PUSH1 0x20 ADD PUSH1 0x40 DUP1 MLOAD SWAP1 DUP2 ADD PUSH1 0x40 MSTORE DUP1 PUSH1 0x3 DUP2 MSTORE PUSH1 0x20 ADD PUSH32 0x7878780000000000000000000000000000000000000000000000000000000000 DUP2 MSTORE POP DUP2 MSTORE PUSH1 0x20 ADD PUSH1 0x40 DUP1 MLOAD SWAP1 DUP2 ADD PUSH1 0x40 MSTORE DUP1 PUSH1 0x3 DUP2 MSTORE PUSH1 0x20 ADD PUSH32 0x7878780000000000000000000000000000000000000000000000000000000000 DUP2 MSTORE POP DUP2 MSTORE POP SWAP1 POP PUSH2 0x152F PUSH2 0x348D JUMP JUMPDEST PUSH1 0x80 PUSH1 0x40 MLOAD SWAP1 DUP2 ADD PUSH1 0x40 MSTORE DUP1 PUSH1 0x1 PUSH1 0x40 MLOAD SWAP1 DUP1 DUP3 MSTORE DUP1 PUSH1 0x20 MUL PUSH1 0x20 ADD DUP3 ADD PUSH1 0x40 MSTORE DUP1 ISZERO PUSH2 0x1570 JUMPI DUP2 PUSH1 0x20 ADD JUMPDEST PUSH1 0x60 DUP2 MSTORE PUSH1 0x20 ADD SWAP1 PUSH1 0x1 SWAP1 SUB SWAP1 DUP2 PUSH2 0x155B JUMPI SWAP1 POP JUMPDEST POP DUP2 MSTORE PUSH1 0x20 ADD PUSH1 0x1 PUSH1 0x40 MLOAD SWAP1 DUP1 DUP3 MSTORE DUP1 PUSH1 0x20 MUL PUSH1 0x20 ADD DUP3 ADD PUSH1 0x40 MSTORE DUP1 ISZERO PUSH2 0x15AB JUMPI DUP2 PUSH1 0x20 ADD JUMPDEST PUSH1 0x60 DUP2 MSTORE PUSH1 0x20 ADD SWAP1 PUSH1 0x1 SWAP1 SUB SWAP1 DUP2 PUSH2 0x1596 JUMPI SWAP1 POP JUMPDEST POP DUP2 MSTORE PUSH1 0x20 ADD PUSH1 0x1 PUSH1 0x40 MLOAD SWAP1 DUP1 DUP3 MSTORE DUP1 PUSH1 0x20 MUL PUSH1 0x20 ADD DUP3 ADD PUSH1 0x40 MSTORE DUP1 ISZERO PUSH2 0x15E6 JUMPI DUP2 PUSH1 0x20 ADD JUMPDEST PUSH1 0x60 DUP2 MSTORE PUSH1 0x20 ADD SWAP1 PUSH1 0x1 SWAP1 SUB SWAP1 DUP2 PUSH2 0x15D1 JUMPI SWAP1 POP JUMPDEST POP DUP2 MSTORE PUSH1 0x20 ADD PUSH1 0x1 PUSH1 0x40 MLOAD SWAP1 DUP1 DUP3 MSTORE DUP1 PUSH1 0x20 MUL PUSH1 0x20 ADD DUP3 ADD PUSH1 0x40 MSTORE DUP1 ISZERO PUSH2 0x1621 JUMPI DUP2 PUSH1 0x20 ADD JUMPDEST PUSH1 0x60 DUP2 MSTORE PUSH1 0x20 ADD SWAP1 PUSH1 0x1 SWAP1 SUB SWAP1 DUP2 PUSH2 0x160C JUMPI SWAP1 POP JUMPDEST POP DUP2 MSTORE POP SWAP1 POP PUSH1 0x0 DUP4 DUP4 DUP4 SWAP7 POP SWAP7 POP SWAP7 POP SWAP7 POP POP POP POP JUMPDEST SWAP2 SWAP4 POP SWAP2 SWAP4 JUMP JUMPDEST PUSH1 0x60 PUSH2 0x164A CALLER PUSH2 0x317F JUMP JUMPDEST ISZERO PUSH2 0x16F1 JUMPI PUSH1 0x16 DUP1 SLOAD PUSH1 0x1 DUP2 PUSH1 0x1 AND ISZERO PUSH2 0x100 MUL SUB AND PUSH1 0x2 SWAP1 DIV DUP1 PUSH1 0x1F ADD PUSH1 0x20 DUP1 SWAP2 DIV MUL PUSH1 0x20 ADD PUSH1 0x40 MLOAD SWAP1 DUP2 ADD PUSH1 0x40 MSTORE DUP1 SWAP3 SWAP2 SWAP1 DUP2 DUP2 MSTORE PUSH1 0x20 ADD DUP3 DUP1 SLOAD PUSH1 0x1 DUP2 PUSH1 0x1 AND ISZERO PUSH2 0x100 MUL SUB AND PUSH1 0x2 SWAP1 DIV DUP1 ISZERO PUSH2 0x16E5 JUMPI DUP1 PUSH1 0x1F LT PUSH2 0x16BA JUMPI PUSH2 0x100 DUP1 DUP4 SLOAD DIV MUL DUP4 MSTORE SWAP2 PUSH1 0x20 ADD SWAP2 PUSH2 0x16E5 JUMP JUMPDEST DUP3 ADD SWAP2 SWAP1 PUSH1 0x0 MSTORE PUSH1 0x20 PUSH1 0x0 KECCAK256 SWAP1 JUMPDEST DUP2 SLOAD DUP2 MSTORE SWAP1 PUSH1 0x1 ADD SWAP1 PUSH1 0x20 ADD DUP1 DUP4 GT PUSH2 0x16C8 JUMPI DUP3 SWAP1 SUB PUSH1 0x1F AND DUP3 ADD SWAP2 JUMPDEST POP POP POP POP POP SWAP1 POP PUSH2 0x16F2 JUMP JUMPDEST JUMPDEST SWAP1 JUMP JUMPDEST PUSH1 0x60 PUSH2 0x1700 DUP3 PUSH2 0x2ED2 JUMP JUMPDEST ISZERO PUSH2 0x17A7 JUMPI PUSH1 0x16 DUP1 SLOAD PUSH1 0x1 DUP2 PUSH1 0x1 AND ISZERO PUSH2 0x100 MUL SUB AND PUSH1 0x2 SWAP1 DIV DUP1 PUSH1 0x1F ADD PUSH1 0x20 DUP1 SWAP2 DIV MUL PUSH1 0x20 ADD PUSH1 0x40 MLOAD SWAP1 DUP2 ADD PUSH1 0x40 MSTORE DUP1 SWAP3 SWAP2 SWAP1 DUP2 DUP2 MSTORE PUSH1 0x20 ADD DUP3 DUP1 SLOAD PUSH1 0x1 DUP2 PUSH1 0x1 AND ISZERO PUSH2 0x100 MUL SUB AND PUSH1 0x2 SWAP1 DIV DUP1 ISZERO PUSH2 0x179B JUMPI DUP1 PUSH1 0x1F LT PUSH2 0x1770 JUMPI PUSH2 0x100 DUP1 DUP4 SLOAD DIV MUL DUP4 MSTORE SWAP2 PUSH1 0x20 ADD SWAP2 PUSH2 0x179B JUMP JUMPDEST DUP3 ADD SWAP2 SWAP1 PUSH1 0x0 MSTORE PUSH1 0x20 PUSH1 0x0 KECCAK256 SWAP1 JUMPDEST DUP2 SLOAD DUP2 MSTORE SWAP1 PUSH1 0x1 ADD SWAP1 PUSH1 0x20 ADD DUP1 DUP4 GT PUSH2 0x177E JUMPI DUP3 SWAP1 SUB PUSH1 0x1F AND DUP3 ADD SWAP2 JUMPDEST POP POP POP POP POP SWAP1 POP PUSH2 0x17A8 JUMP JUMPDEST JUMPDEST SWAP2 SWAP1 POP JUMP JUMPDEST PUSH1 0x0 PUSH2 0x17B7 PUSH2 0x3401 JUMP JUMPDEST PUSH2 0x17BF PUSH2 0x3447 JUMP JUMPDEST PUSH2 0x17C7 PUSH2 0x348D JUMP JUMPDEST PUSH2 0x17D0 CALLER PUSH2 0x317F JUMP JUMPDEST ISZERO PUSH2 0x2545 JUMPI PUSH1 0x1 PUSH1 0x0 PUSH1 0x8 PUSH1 0x10 DUP3 PUSH2 0x100 PUSH1 0x40 MLOAD SWAP1 DUP2 ADD PUSH1 0x40 MSTORE SWAP1 DUP2 PUSH1 0x0 DUP3 ADD DUP1 SLOAD PUSH1 0x1 DUP2 PUSH1 0x1 AND ISZERO PUSH2 0x100 MUL SUB AND PUSH1 0x2 SWAP1 DIV DUP1 PUSH1 0x1F ADD PUSH1 0x20 DUP1 SWAP2 DIV MUL PUSH1 0x20 ADD PUSH1 0x40 MLOAD SWAP1 DUP2 ADD PUSH1 0x40 MSTORE DUP1 SWAP3 SWAP2 SWAP1 DUP2 DUP2 MSTORE PUSH1 0x20 ADD DUP3 DUP1 SLOAD PUSH1 0x1 DUP2 PUSH1 0x1 AND ISZERO PUSH2 0x100 MUL SUB AND PUSH1 0x2 SWAP1 DIV DUP1 ISZERO PUSH2 0x1884 JUMPI DUP1 PUSH1 0x1F LT PUSH2 0x1859 JUMPI PUSH2 0x100 DUP1 DUP4 SLOAD DIV MUL DUP4 MSTORE SWAP2 PUSH1 0x20 ADD SWAP2 PUSH2 0x1884 JUMP JUMPDEST DUP3 ADD SWAP2 SWAP1 PUSH1 0x0 MSTORE PUSH1 0x20 PUSH1 0x0 KECCAK256 SWAP1 JUMPDEST DUP2 SLOAD DUP2 MSTORE SWAP1 PUSH1 0x1 ADD SWAP1 PUSH1 0x20 ADD DUP1 DUP4 GT PUSH2 0x1867 JUMPI DUP3 SWAP1 SUB PUSH1 0x1F AND DUP3 ADD SWAP2 JUMPDEST POP POP POP POP POP DUP2 MSTORE PUSH1 0x20 ADD PUSH1 0x1 DUP3 ADD DUP1 SLOAD PUSH1 0x1 DUP2 PUSH1 0x1 AND ISZERO PUSH2 0x100 MUL SUB AND PUSH1 0x2 SWAP1 DIV DUP1 PUSH1 0x1F ADD PUSH1 0x20 DUP1 SWAP2 DIV MUL PUSH1 0x20 ADD PUSH1 0x40 MLOAD SWAP1 DUP2 ADD PUSH1 0x40 MSTORE DUP1 SWAP3 SWAP2 SWAP1 DUP2 DUP2 MSTORE PUSH1 0x20 ADD DUP3 DUP1 SLOAD PUSH1 0x1 DUP2 PUSH1 0x1 AND ISZERO PUSH2 0x100 MUL SUB AND PUSH1 0x2 SWAP1 DIV DUP1 ISZERO PUSH2 0x1926 JUMPI DUP1 PUSH1 0x1F LT PUSH2 0x18FB JUMPI PUSH2 0x100 DUP1 DUP4 SLOAD DIV MUL DUP4 MSTORE SWAP2 PUSH1 0x20 ADD SWAP2 PUSH2 0x1926 JUMP JUMPDEST DUP3 ADD SWAP2 SWAP1 PUSH1 0x0 MSTORE PUSH1 0x20 PUSH1 0x0 KECCAK256 SWAP1 JUMPDEST DUP2 SLOAD DUP2 MSTORE SWAP1 PUSH1 0x1 ADD SWAP1 PUSH1 0x20 ADD DUP1 DUP4 GT PUSH2 0x1909 JUMPI DUP3 SWAP1 SUB PUSH1 0x1F AND DUP3 ADD SWAP2 JUMPDEST POP POP POP POP POP DUP2 MSTORE PUSH1 0x20 ADD PUSH1 0x2 DUP3 ADD DUP1 SLOAD PUSH1 0x1 DUP2 PUSH1 0x1 AND ISZERO PUSH2 0x100 MUL SUB AND PUSH1 0x2 SWAP1 DIV DUP1 PUSH1 0x1F ADD PUSH1 0x20 DUP1 SWAP2 DIV MUL PUSH1 0x20 ADD PUSH1 0x40 MLOAD SWAP1 DUP2 ADD PUSH1 0x40 MSTORE DUP1 SWAP3 SWAP2 SWAP1 DUP2 DUP2 MSTORE PUSH1 0x20 ADD DUP3 DUP1 SLOAD PUSH1 0x1 DUP2 PUSH1 0x1 AND ISZERO PUSH2 0x100 MUL SUB AND PUSH1 0x2 SWAP1 DIV DUP1 ISZERO PUSH2 0x19C8 JUMPI DUP1 PUSH1 0x1F LT PUSH2 0x199D JUMPI PUSH2 0x100 DUP1 DUP4 SLOAD DIV MUL DUP4 MSTORE SWAP2 PUSH1 0x20 ADD SWAP2 PUSH2 0x19C8 JUMP JUMPDEST DUP3 ADD SWAP2 SWAP1 PUSH1 0x0 MSTORE PUSH1 0x20 PUSH1 0x0 KECCAK256 SWAP1 JUMPDEST DUP2 SLOAD DUP2 MSTORE SWAP1 PUSH1 0x1 ADD SWAP1 PUSH1 0x20 ADD DUP1 DUP4 GT PUSH2 0x19AB JUMPI DUP3 SWAP1 SUB PUSH1 0x1F AND DUP3 ADD SWAP2 JUMPDEST POP POP POP POP POP DUP2 MSTORE PUSH1 0x20 ADD PUSH1 0x3 DUP3 ADD DUP1 SLOAD PUSH1 0x1 DUP2 PUSH1 0x1 AND ISZERO PUSH2 0x100 MUL SUB AND PUSH1 0x2 SWAP1 DIV DUP1 PUSH1 0x1F ADD PUSH1 0x20 DUP1 SWAP2 DIV MUL PUSH1 0x20 ADD PUSH1 0x40 MLOAD SWAP1 DUP2 ADD PUSH1 0x40 MSTORE DUP1 SWAP3 SWAP2 SWAP1 DUP2 DUP2 MSTORE PUSH1 0x20 ADD DUP3 DUP1 SLOAD PUSH1 0x1 DUP2 PUSH1 0x1 AND ISZERO PUSH2 0x100 MUL SUB AND PUSH1 0x2 SWAP1 DIV DUP1 ISZERO PUSH2 0x1A6A JUMPI DUP1 PUSH1 0x1F LT PUSH2 0x1A3F JUMPI PUSH2 0x100 DUP1 DUP4 SLOAD DIV MUL DUP4 MSTORE SWAP2 PUSH1 0x20 ADD SWAP2 PUSH2 0x1A6A JUMP JUMPDEST DUP3 ADD SWAP2 SWAP1 PUSH1 0x0 MSTORE PUSH1 0x20 PUSH1 0x0 KECCAK256 SWAP1 JUMPDEST DUP2 SLOAD DUP2 MSTORE SWAP1 PUSH1 0x1 ADD SWAP1 PUSH1 0x20 ADD DUP1 DUP4 GT PUSH2 0x1A4D JUMPI DUP3 SWAP1 SUB PUSH1 0x1F AND DUP3 ADD SWAP2 JUMPDEST POP POP POP POP POP DUP2 MSTORE PUSH1 0x20 ADD PUSH1 0x4 DUP3 ADD SLOAD DUP2 MSTORE PUSH1 0x20 ADD PUSH1 0x5 DUP3 ADD DUP1 SLOAD PUSH1 0x1 DUP2 PUSH1 0x1 AND ISZERO PUSH2 0x100 MUL SUB AND PUSH1 0x2 SWAP1 DIV DUP1 PUSH1 0x1F ADD PUSH1 0x20 DUP1 SWAP2 DIV MUL PUSH1 0x20 ADD PUSH1 0x40 MLOAD SWAP1 DUP2 ADD PUSH1 0x40 MSTORE DUP1 SWAP3 SWAP2 SWAP1 DUP2 DUP2 MSTORE PUSH1 0x20 ADD DUP3 DUP1 SLOAD PUSH1 0x1 DUP2 PUSH1 0x1 AND ISZERO PUSH2 0x100 MUL SUB AND PUSH1 0x2 SWAP1 DIV DUP1 ISZERO PUSH2 0x1B16 JUMPI DUP1 PUSH1 0x1F LT PUSH2 0x1AEB JUMPI PUSH2 0x100 DUP1 DUP4 SLOAD DIV MUL DUP4 MSTORE SWAP2 PUSH1 0x20 ADD SWAP2 PUSH2 0x1B16 JUMP JUMPDEST DUP3 ADD SWAP2 SWAP1 PUSH1 0x0 MSTORE PUSH1 0x20 PUSH1 0x0 KECCAK256 SWAP1 JUMPDEST DUP2 SLOAD DUP2 MSTORE SWAP1 PUSH1 0x1 ADD SWAP1 PUSH1 0x20 ADD DUP1 DUP4 GT PUSH2 0x1AF9 JUMPI DUP3 SWAP1 SUB PUSH1 0x1F AND DUP3 ADD SWAP2 JUMPDEST POP POP POP POP POP DUP2 MSTORE PUSH1 0x20 ADD PUSH1 0x6 DUP3 ADD DUP1 SLOAD PUSH1 0x1 DUP2 PUSH1 0x1 AND ISZERO PUSH2 0x100 MUL SUB AND PUSH1 0x2 SWAP1 DIV DUP1 PUSH1 0x1F ADD PUSH1 0x20 DUP1 SWAP2 DIV MUL PUSH1 0x20 ADD PUSH1 0x40 MLOAD SWAP1 DUP2 ADD PUSH1 0x40 MSTORE DUP1 SWAP3 SWAP2 SWAP1 DUP2 DUP2 MSTORE PUSH1 0x20 ADD DUP3 DUP1 SLOAD PUSH1 0x1 DUP2 PUSH1 0x1 AND ISZERO PUSH2 0x100 MUL SUB AND PUSH1 0x2 SWAP1 DIV DUP1 ISZERO PUSH2 0x1BB8 JUMPI DUP1 PUSH1 0x1F LT PUSH2 0x1B8D JUMPI PUSH2 0x100 DUP1 DUP4 SLOAD DIV MUL DUP4 MSTORE SWAP2 PUSH1 0x20 ADD SWAP2 PUSH2 0x1BB8 JUMP JUMPDEST DUP3 ADD SWAP2 SWAP1 PUSH1 0x0 MSTORE PUSH1 0x20 PUSH1 0x0 KECCAK256 SWAP1 JUMPDEST DUP2 SLOAD DUP2 MSTORE SWAP1 PUSH1 0x1 ADD SWAP1 PUSH1 0x20 ADD DUP1 DUP4 GT PUSH2 0x1B9B JUMPI DUP3 SWAP1 SUB PUSH1 0x1F AND DUP3 ADD SWAP2 JUMPDEST POP POP POP POP POP DUP2 MSTORE PUSH1 0x20 ADD PUSH1 0x7 DUP3 ADD DUP1 SLOAD PUSH1 0x1 DUP2 PUSH1 0x1 AND ISZERO PUSH2 0x100 MUL SUB AND PUSH1 0x2 SWAP1 DIV DUP1 PUSH1 0x1F ADD PUSH1 0x20 DUP1 SWAP2 DIV MUL PUSH1 0x20 ADD PUSH1 0x40 MLOAD SWAP1 DUP2 ADD PUSH1 0x40 MSTORE DUP1 SWAP3 SWAP2 SWAP1 DUP2 DUP2 MSTORE PUSH1 0x20 ADD DUP3 DUP1 SLOAD PUSH1 0x1 DUP2 PUSH1 0x1 AND ISZERO PUSH2 0x100 MUL SUB AND PUSH1 0x2 SWAP1 DIV DUP1 ISZERO PUSH2 0x1C5A JUMPI DUP1 PUSH1 0x1F LT PUSH2 0x1C2F JUMPI PUSH2 0x100 DUP1 DUP4 SLOAD DIV MUL DUP4 MSTORE SWAP2 PUSH1 0x20 ADD SWAP2 PUSH2 0x1C5A JUMP JUMPDEST DUP3 ADD SWAP2 SWAP1 PUSH1 0x0 MSTORE PUSH1 0x20 PUSH1 0x0 KECCAK256 SWAP1 JUMPDEST DUP2 SLOAD DUP2 MSTORE SWAP1 PUSH1 0x1 ADD SWAP1 PUSH1 0x20 ADD DUP1 DUP4 GT PUSH2 0x1C3D JUMPI DUP3 SWAP1 SUB PUSH1 0x1F AND DUP3 ADD SWAP2 JUMPDEST POP POP POP POP POP DUP2 MSTORE POP POP SWAP3 POP DUP2 PUSH2 0x100 PUSH1 0x40 MLOAD SWAP1 DUP2 ADD PUSH1 0x40 MSTORE SWAP1 DUP2 PUSH1 0x0 DUP3 ADD DUP1 SLOAD PUSH1 0x1 DUP2 PUSH1 0x1 AND ISZERO PUSH2 0x100 MUL SUB AND PUSH1 0x2 SWAP1 DIV DUP1 PUSH1 0x1F ADD PUSH1 0x20 DUP1 SWAP2 DIV MUL PUSH1 0x20 ADD PUSH1 0x40 MLOAD SWAP1 DUP2 ADD PUSH1 0x40 MSTORE DUP1 SWAP3 SWAP2 SWAP1 DUP2 DUP2 MSTORE PUSH1 0x20 ADD DUP3 DUP1 SLOAD PUSH1 0x1 DUP2 PUSH1 0x1 AND ISZERO PUSH2 0x100 MUL SUB AND PUSH1 0x2 SWAP1 DIV DUP1 ISZERO PUSH2 0x1D0C JUMPI DUP1 PUSH1 0x1F LT PUSH2 0x1CE1 JUMPI PUSH2 0x100 DUP1 DUP4 SLOAD DIV MUL DUP4 MSTORE SWAP2 PUSH1 0x20 ADD SWAP2 PUSH2 0x1D0C JUMP JUMPDEST DUP3 ADD SWAP2 SWAP1 PUSH1 0x0 MSTORE PUSH1 0x20 PUSH1 0x0 KECCAK256 SWAP1 JUMPDEST DUP2 SLOAD DUP2 MSTORE SWAP1 PUSH1 0x1 ADD SWAP1 PUSH1 0x20 ADD DUP1 DUP4 GT PUSH2 0x1CEF JUMPI DUP3 SWAP1 SUB PUSH1 0x1F AND DUP3 ADD SWAP2 JUMPDEST POP POP POP POP POP DUP2 MSTORE PUSH1 0x20 ADD PUSH1 0x1 DUP3 ADD DUP1 SLOAD PUSH1 0x1 DUP2 PUSH1 0x1 AND ISZERO PUSH2 0x100 MUL SUB AND PUSH1 0x2 SWAP1 DIV DUP1 PUSH1 0x1F ADD PUSH1 0x20 DUP1 SWAP2 DIV MUL PUSH1 0x20 ADD PUSH1 0x40 MLOAD SWAP1 DUP2 ADD PUSH1 0x40 MSTORE DUP1 SWAP3 SWAP2 SWAP1 DUP2 DUP2 MSTORE PUSH1 0x20 ADD DUP3 DUP1 SLOAD PUSH1 0x1 DUP2 PUSH1 0x1 AND ISZERO PUSH2 0x100 MUL SUB AND PUSH1 0x2 SWAP1 DIV DUP1 ISZERO PUSH2 0x1DAE JUMPI DUP1 PUSH1 0x1F LT PUSH2 0x1D83 JUMPI PUSH2 0x100 DUP1 DUP4 SLOAD DIV MUL DUP4 MSTORE SWAP2 PUSH1 0x20 ADD SWAP2 PUSH2 0x1DAE JUMP JUMPDEST DUP3 ADD SWAP2 SWAP1 PUSH1 0x0 MSTORE PUSH1 0x20 PUSH1 0x0 KECCAK256 SWAP1 JUMPDEST DUP2 SLOAD DUP2 MSTORE SWAP1 PUSH1 0x1 ADD SWAP1 PUSH1 0x20 ADD DUP1 DUP4 GT PUSH2 0x1D91 JUMPI DUP3 SWAP1 SUB PUSH1 0x1F AND DUP3 ADD SWAP2 JUMPDEST POP POP POP POP POP DUP2 MSTORE PUSH1 0x20 ADD PUSH1 0x2 DUP3 ADD DUP1 SLOAD PUSH1 0x1 DUP2 PUSH1 0x1 AND ISZERO PUSH2 0x100 MUL SUB AND PUSH1 0x2 SWAP1 DIV DUP1 PUSH1 0x1F ADD PUSH1 0x20 DUP1 SWAP2 DIV MUL PUSH1 0x20 ADD PUSH1 0x40 MLOAD SWAP1 DUP2 ADD PUSH1 0x40 MSTORE DUP1 SWAP3 SWAP2 SWAP1 DUP2 DUP2 MSTORE PUSH1 0x20 ADD DUP3 DUP1 SLOAD PUSH1 0x1 DUP2 PUSH1 0x1 AND ISZERO PUSH2 0x100 MUL SUB AND PUSH1 0x2 SWAP1 DIV DUP1 ISZERO PUSH2 0x1E50 JUMPI DUP1 PUSH1 0x1F LT PUSH2 0x1E25 JUMPI PUSH2 0x100 DUP1 DUP4 SLOAD DIV MUL DUP4 MSTORE SWAP2 PUSH1 0x20 ADD SWAP2 PUSH2 0x1E50 JUMP JUMPDEST DUP3 ADD SWAP2 SWAP1 PUSH1 0x0 MSTORE PUSH1 0x20 PUSH1 0x0 KECCAK256 SWAP1 JUMPDEST DUP2 SLOAD DUP2 MSTORE SWAP1 PUSH1 0x1 ADD SWAP1 PUSH1 0x20 ADD DUP1 DUP4 GT PUSH2 0x1E33 JUMPI DUP3 SWAP1 SUB PUSH1 0x1F AND DUP3 ADD SWAP2 JUMPDEST POP POP POP POP POP DUP2 MSTORE PUSH1 0x20 ADD PUSH1 0x3 DUP3 ADD DUP1 SLOAD PUSH1 0x1 DUP2 PUSH1 0x1 AND ISZERO PUSH2 0x100 MUL SUB AND PUSH1 0x2 SWAP1 DIV DUP1 PUSH1 0x1F ADD PUSH1 0x20 DUP1 SWAP2 DIV MUL PUSH1 0x20 ADD PUSH1 0x40 MLOAD SWAP1 DUP2 ADD PUSH1 0x40 MSTORE DUP1 SWAP3 SWAP2 SWAP1 DUP2 DUP2 MSTORE PUSH1 0x20 ADD DUP3 DUP1 SLOAD PUSH1 0x1 DUP2 PUSH1 0x1 AND ISZERO PUSH2 0x100 MUL SUB AND PUSH1 0x2 SWAP1 DIV DUP1 ISZERO PUSH2 0x1EF2 JUMPI DUP1 PUSH1 0x1F LT PUSH2 0x1EC7 JUMPI PUSH2 0x100 DUP1 DUP4 SLOAD DIV MUL DUP4 MSTORE SWAP2 PUSH1 0x20 ADD SWAP2 PUSH2 0x1EF2 JUMP JUMPDEST DUP3 ADD SWAP2 SWAP1 PUSH1 0x0 MSTORE PUSH1 0x20 PUSH1 0x0 KECCAK256 SWAP1 JUMPDEST DUP2 SLOAD DUP2 MSTORE SWAP1 PUSH1 0x1 ADD SWAP1 PUSH1 0x20 ADD DUP1 DUP4 GT PUSH2 0x1ED5 JUMPI DUP3 SWAP1 SUB PUSH1 0x1F AND DUP3 ADD SWAP2 JUMPDEST POP POP POP POP POP DUP2 MSTORE PUSH1 0x20 ADD PUSH1 0x4 DUP3 ADD DUP1 SLOAD PUSH1 0x1 DUP2 PUSH1 0x1 AND ISZERO PUSH2 0x100 MUL SUB AND PUSH1 0x2 SWAP1 DIV DUP1 PUSH1 0x1F ADD PUSH1 0x20 DUP1 SWAP2 DIV MUL PUSH1 0x20 ADD PUSH1 0x40 MLOAD SWAP1 DUP2 ADD PUSH1 0x40 MSTORE DUP1 SWAP3 SWAP2 SWAP1 DUP2 DUP2 MSTORE PUSH1 0x20 ADD DUP3 DUP1 SLOAD PUSH1 0x1 DUP2 PUSH1 0x1 AND ISZERO PUSH2 0x100 MUL SUB AND PUSH1 0x2 SWAP1 DIV DUP1 ISZERO PUSH2 0x1F94 JUMPI DUP1 PUSH1 0x1F LT PUSH2 0x1F69 JUMPI PUSH2 0x100 DUP1 DUP4 SLOAD DIV MUL DUP4 MSTORE SWAP2 PUSH1 0x20 ADD SWAP2 PUSH2 0x1F94 JUMP JUMPDEST DUP3 ADD SWAP2 SWAP1 PUSH1 0x0 MSTORE PUSH1 0x20 PUSH1 0x0 KECCAK256 SWAP1 JUMPDEST DUP2 SLOAD DUP2 MSTORE SWAP1 PUSH1 0x1 ADD SWAP1 PUSH1 0x20 ADD DUP1 DUP4 GT PUSH2 0x1F77 JUMPI DUP3 SWAP1 SUB PUSH1 0x1F AND DUP3 ADD SWAP2 JUMPDEST POP POP POP POP POP DUP2 MSTORE PUSH1 0x20 ADD PUSH1 0x5 DUP3 ADD DUP1 SLOAD PUSH1 0x1 DUP2 PUSH1 0x1 AND ISZERO PUSH2 0x100 MUL SUB AND PUSH1 0x2 SWAP1 DIV DUP1 PUSH1 0x1F ADD PUSH1 0x20 DUP1 SWAP2 DIV MUL PUSH1 0x20 ADD PUSH1 0x40 MLOAD SWAP1 DUP2 ADD PUSH1 0x40 MSTORE DUP1 SWAP3 SWAP2 SWAP1 DUP2 DUP2 MSTORE PUSH1 0x20 ADD DUP3 DUP1 SLOAD PUSH1 0x1 DUP2 PUSH1 0x1 AND ISZERO PUSH2 0x100 MUL SUB AND PUSH1 0x2 SWAP1 DIV DUP1 ISZERO PUSH2 0x2036 JUMPI DUP1 PUSH1 0x1F LT PUSH2 0x200B JUMPI PUSH2 0x100 DUP1 DUP4 SLOAD DIV MUL DUP4 MSTORE SWAP2 PUSH1 0x20 ADD SWAP2 PUSH2 0x2036 JUMP JUMPDEST DUP3 ADD SWAP2 SWAP1 PUSH1 0x0 MSTORE PUSH1 0x20 PUSH1 0x0 KECCAK256 SWAP1 JUMPDEST DUP2 SLOAD DUP2 MSTORE SWAP1 PUSH1 0x1 ADD SWAP1 PUSH1 0x20 ADD DUP1 DUP4 GT PUSH2 0x2019 JUMPI DUP3 SWAP1 SUB PUSH1 0x1F AND DUP3 ADD SWAP2 JUMPDEST POP POP POP POP POP DUP2 MSTORE PUSH1 0x20 ADD PUSH1 0x6 DUP3 ADD DUP1 SLOAD PUSH1 0x1 DUP2 PUSH1 0x1 AND ISZERO PUSH2 0x100 MUL SUB AND PUSH1 0x2 SWAP1 DIV DUP1 PUSH1 0x1F ADD PUSH1 0x20 DUP1 SWAP2 DIV MUL PUSH1 0x20 ADD PUSH1 0x40 MLOAD SWAP1 DUP2 ADD PUSH1 0x40 MSTORE DUP1 SWAP3 SWAP2 SWAP1 DUP2 DUP2 MSTORE PUSH1 0x20 ADD DUP3 DUP1 SLOAD PUSH1 0x1 DUP2 PUSH1 0x1 AND ISZERO PUSH2 0x100 MUL SUB AND PUSH1 0x2 SWAP1 DIV DUP1 ISZERO PUSH2 0x20D8 JUMPI DUP1 PUSH1 0x1F LT PUSH2 0x20AD JUMPI PUSH2 0x100 DUP1 DUP4 SLOAD DIV MUL DUP4 MSTORE SWAP2 PUSH1 0x20 ADD SWAP2 PUSH2 0x20D8 JUMP JUMPDEST DUP3 ADD SWAP2 SWAP1 PUSH1 0x0 MSTORE PUSH1 0x20 PUSH1 0x0 KECCAK256 SWAP1 JUMPDEST DUP2 SLOAD DUP2 MSTORE SWAP1 PUSH1 0x1 ADD SWAP1 PUSH1 0x20 ADD DUP1 DUP4 GT PUSH2 0x20BB JUMPI DUP3 SWAP1 SUB PUSH1 0x1F AND DUP3 ADD SWAP2 JUMPDEST POP POP POP POP POP DUP2 MSTORE PUSH1 0x20 ADD PUSH1 0x7 DUP3 ADD DUP1 SLOAD PUSH1 0x1 DUP2 PUSH1 0x1 AND ISZERO PUSH2 0x100 MUL SUB AND PUSH1 0x2 SWAP1 DIV DUP1 PUSH1 0x1F ADD PUSH1 0x20 DUP1 SWAP2 DIV MUL PUSH1 0x20 ADD PUSH1 0x40 MLOAD SWAP1 DUP2 ADD PUSH1 0x40 MSTORE DUP1 SWAP3 SWAP2 SWAP1 DUP2 DUP2 MSTORE PUSH1 0x20 ADD DUP3 DUP1 SLOAD PUSH1 0x1 DUP2 PUSH1 0x1 AND ISZERO PUSH2 0x100 MUL SUB AND PUSH1 0x2 SWAP1 DIV DUP1 ISZERO PUSH2 0x217A JUMPI DUP1 PUSH1 0x1F LT PUSH2 0x214F JUMPI PUSH2 0x100 DUP1 DUP4 SLOAD DIV MUL DUP4 MSTORE SWAP2 PUSH1 0x20 ADD SWAP2 PUSH2 0x217A JUMP JUMPDEST DUP3 ADD SWAP2 SWAP1 PUSH1 0x0 MSTORE PUSH1 0x20 PUSH1 0x0 KECCAK256 SWAP1 JUMPDEST DUP2 SLOAD DUP2 MSTORE SWAP1 PUSH1 0x1 ADD SWAP1 PUSH1 0x20 ADD DUP1 DUP4 GT PUSH2 0x215D JUMPI DUP3 SWAP1 SUB PUSH1 0x1F AND DUP3 ADD SWAP2 JUMPDEST POP POP POP POP POP DUP2 MSTORE POP POP SWAP2 POP DUP1 PUSH1 0x80 PUSH1 0x40 MLOAD SWAP1 DUP2 ADD PUSH1 0x40 MSTORE SWAP1 DUP2 PUSH1 0x0 DUP3 ADD DUP1 SLOAD DUP1 PUSH1 0x20 MUL PUSH1 0x20 ADD PUSH1 0x40 MLOAD SWAP1 DUP2 ADD PUSH1 0x40 MSTORE DUP1 SWAP3 SWAP2 SWAP1 DUP2 DUP2 MSTORE PUSH1 0x20 ADD PUSH1 0x0 SWAP1 JUMPDEST DUP3 DUP3 LT ISZERO PUSH2 0x2273 JUMPI DUP4 DUP3 SWAP1 PUSH1 0x0 MSTORE PUSH1 0x20 PUSH1 0x0 KECCAK256 ADD DUP1 SLOAD PUSH1 0x1 DUP2 PUSH1 0x1 AND ISZERO PUSH2 0x100 MUL SUB AND PUSH1 0x2 SWAP1 DIV DUP1 PUSH1 0x1F ADD PUSH1 0x20 DUP1 SWAP2 DIV MUL PUSH1 0x20 ADD PUSH1 0x40 MLOAD SWAP1 DUP2 ADD PUSH1 0x40 MSTORE DUP1 SWAP3 SWAP2 SWAP1 DUP2 DUP2 MSTORE PUSH1 0x20 ADD DUP3 DUP1 SLOAD PUSH1 0x1 DUP2 PUSH1 0x1 AND ISZERO PUSH2 0x100 MUL SUB AND PUSH1 0x2 SWAP1 DIV DUP1 ISZERO PUSH2 0x225F JUMPI DUP1 PUSH1 0x1F LT PUSH2 0x2234 JUMPI PUSH2 0x100 DUP1 DUP4 SLOAD DIV MUL DUP4 MSTORE SWAP2 PUSH1 0x20 ADD SWAP2 PUSH2 0x225F JUMP JUMPDEST DUP3 ADD SWAP2 SWAP1 PUSH1 0x0 MSTORE PUSH1 0x20 PUSH1 0x0 KECCAK256 SWAP1 JUMPDEST DUP2 SLOAD DUP2 MSTORE SWAP1 PUSH1 0x1 ADD SWAP1 PUSH1 0x20 ADD DUP1 DUP4 GT PUSH2 0x2242 JUMPI DUP3 SWAP1 SUB PUSH1 0x1F AND DUP3 ADD SWAP2 JUMPDEST POP POP POP POP POP DUP2 MSTORE PUSH1 0x20 ADD SWAP1 PUSH1 0x1 ADD SWAP1 PUSH2 0x21B7 JUMP JUMPDEST POP POP POP POP DUP2 MSTORE PUSH1 0x20 ADD PUSH1 0x1 DUP3 ADD DUP1 SLOAD DUP1 PUSH1 0x20 MUL PUSH1 0x20 ADD PUSH1 0x40 MLOAD SWAP1 DUP2 ADD PUSH1 0x40 MSTORE DUP1 SWAP3 SWAP2 SWAP1 DUP2 DUP2 MSTORE PUSH1 0x20 ADD PUSH1 0x0 SWAP1 JUMPDEST DUP3 DUP3 LT ISZERO PUSH2 0x235C JUMPI DUP4 DUP3 SWAP1 PUSH1 0x0 MSTORE PUSH1 0x20 PUSH1 0x0 KECCAK256 ADD DUP1 SLOAD PUSH1 0x1 DUP2 PUSH1 0x1 AND ISZERO PUSH2 0x100 MUL SUB AND PUSH1 0x2 SWAP1 DIV DUP1 PUSH1 0x1F ADD PUSH1 0x20 DUP1 SWAP2 DIV MUL PUSH1 0x20 ADD PUSH1 0x40 MLOAD SWAP1 DUP2 ADD PUSH1 0x40 MSTORE DUP1 SWAP3 SWAP2 SWAP1 DUP2 DUP2 MSTORE PUSH1 0x20 ADD DUP3 DUP1 SLOAD PUSH1 0x1 DUP2 PUSH1 0x1 AND ISZERO PUSH2 0x100 MUL SUB AND PUSH1 0x2 SWAP1 DIV DUP1 ISZERO PUSH2 0x2348 JUMPI DUP1 PUSH1 0x1F LT PUSH2 0x231D JUMPI PUSH2 0x100 DUP1 DUP4 SLOAD DIV MUL DUP4 MSTORE SWAP2 PUSH1 0x20 ADD SWAP2 PUSH2 0x2348 JUMP JUMPDEST DUP3 ADD SWAP2 SWAP1 PUSH1 0x0 MSTORE PUSH1 0x20 PUSH1 0x0 KECCAK256 SWAP1 JUMPDEST DUP2 SLOAD DUP2 MSTORE SWAP1 PUSH1 0x1 ADD SWAP1 PUSH1 0x20 ADD DUP1 DUP4 GT PUSH2 0x232B JUMPI DUP3 SWAP1 SUB PUSH1 0x1F AND DUP3 ADD SWAP2 JUMPDEST POP POP POP POP POP DUP2 MSTORE PUSH1 0x20 ADD SWAP1 PUSH1 0x1 ADD SWAP1 PUSH2 0x22A0 JUMP JUMPDEST POP POP POP POP DUP2 MSTORE PUSH1 0x20 ADD PUSH1 0x2 DUP3 ADD DUP1 SLOAD DUP1 PUSH1 0x20 MUL PUSH1 0x20 ADD PUSH1 0x40 MLOAD SWAP1 DUP2 ADD PUSH1 0x40 MSTORE DUP1 SWAP3 SWAP2 SWAP1 DUP2 DUP2 MSTORE PUSH1 0x20 ADD PUSH1 0x0 SWAP1 JUMPDEST DUP3 DUP3 LT ISZERO PUSH2 0x2445 JUMPI DUP4 DUP3 SWAP1 PUSH1 0x0 MSTORE PUSH1 0x20 PUSH1 0x0 KECCAK256 ADD DUP1 SLOAD PUSH1 0x1 DUP2 PUSH1 0x1 AND ISZERO PUSH2 0x100 MUL SUB AND PUSH1 0x2 SWAP1 DIV DUP1 PUSH1 0x1F ADD PUSH1 0x20 DUP1 SWAP2 DIV MUL PUSH1 0x20 ADD PUSH1 0x40 MLOAD SWAP1 DUP2 ADD PUSH1 0x40 MSTORE DUP1 SWAP3 SWAP2 SWAP1 DUP2 DUP2 MSTORE PUSH1 0x20 ADD DUP3 DUP1 SLOAD PUSH1 0x1 DUP2 PUSH1 0x1 AND ISZERO PUSH2 0x100 MUL SUB AND PUSH1 0x2 SWAP1 DIV DUP1 ISZERO PUSH2 0x2431 JUMPI DUP1 PUSH1 0x1F LT PUSH2 0x2406 JUMPI PUSH2 0x100 DUP1 DUP4 SLOAD DIV MUL DUP4 MSTORE SWAP2 PUSH1 0x20 ADD SWAP2 PUSH2 0x2431 JUMP JUMPDEST DUP3 ADD SWAP2 SWAP1 PUSH1 0x0 MSTORE PUSH1 0x20 PUSH1 0x0 KECCAK256 SWAP1 JUMPDEST DUP2 SLOAD DUP2 MSTORE SWAP1 PUSH1 0x1 ADD SWAP1 PUSH1 0x20 ADD DUP1 DUP4 GT PUSH2 0x2414 JUMPI DUP3 SWAP1 SUB PUSH1 0x1F AND DUP3 ADD SWAP2 JUMPDEST POP POP POP POP POP DUP2 MSTORE PUSH1 0x20 ADD SWAP1 PUSH1 0x1 ADD SWAP1 PUSH2 0x2389 JUMP JUMPDEST POP POP POP POP DUP2 MSTORE PUSH1 0x20 ADD PUSH1 0x3 DUP3 ADD DUP1 SLOAD DUP1 PUSH1 0x20 MUL PUSH1 0x20 ADD PUSH1 0x40 MLOAD SWAP1 DUP2 ADD PUSH1 0x40 MSTORE DUP1 SWAP3 SWAP2 SWAP1 DUP2 DUP2 MSTORE PUSH1 0x20 ADD PUSH1 0x0 SWAP1 JUMPDEST DUP3 DUP3 LT ISZERO PUSH2 0x252E JUMPI DUP4 DUP3 SWAP1 PUSH1 0x0 MSTORE PUSH1 0x20 PUSH1 0x0 KECCAK256 ADD DUP1 SLOAD PUSH1 0x1 DUP2 PUSH1 0x1 AND ISZERO PUSH2 0x100 MUL SUB AND PUSH1 0x2 SWAP1 DIV DUP1 PUSH1 0x1F ADD PUSH1 0x20 DUP1 SWAP2 DIV MUL PUSH1 0x20 ADD PUSH1 0x40 MLOAD SWAP1 DUP2 ADD PUSH1 0x40 MSTORE DUP1 SWAP3 SWAP2 SWAP1 DUP2 DUP2 MSTORE PUSH1 0x20 ADD DUP3 DUP1 SLOAD PUSH1 0x1 DUP2 PUSH1 0x1 AND ISZERO PUSH2 0x100 MUL SUB AND PUSH1 0x2 SWAP1 DIV DUP1 ISZERO PUSH2 0x251A JUMPI DUP1 PUSH1 0x1F LT PUSH2 0x24EF JUMPI PUSH2 0x100 DUP1 DUP4 SLOAD DIV MUL DUP4 MSTORE SWAP2 PUSH1 0x20 ADD SWAP2 PUSH2 0x251A JUMP JUMPDEST DUP3 ADD SWAP2 SWAP1 PUSH1 0x0 MSTORE PUSH1 0x20 PUSH1 0x0 KECCAK256 SWAP1 JUMPDEST DUP2 SLOAD DUP2 MSTORE SWAP1 PUSH1 0x1 ADD SWAP1 PUSH1 0x20 ADD DUP1 DUP4 GT PUSH2 0x24FD JUMPI DUP3 SWAP1 SUB PUSH1 0x1F AND DUP3 ADD SWAP2 JUMPDEST POP POP POP POP POP DUP2 MSTORE PUSH1 0x20 ADD SWAP1 PUSH1 0x1 ADD SWAP1 PUSH2 0x2472 JUMP JUMPDEST POP POP POP POP DUP2 MSTORE POP POP SWAP1 POP SWAP4 POP SWAP4 POP SWAP4 POP SWAP4 POP PUSH2 0x29FD JUMP JUMPDEST PUSH2 0x254D PUSH2 0x3401 JUMP JUMPDEST PUSH2 0x100 PUSH1 0x40 MLOAD SWAP1 DUP2 ADD PUSH1 0x40 MSTORE DUP1 PUSH1 0x40 DUP1 MLOAD SWAP1 DUP2 ADD PUSH1 0x40 MSTORE DUP1 PUSH1 0x3 DUP2 MSTORE PUSH1 0x20 ADD PUSH32 0x7878780000000000000000000000000000000000000000000000000000000000 DUP2 MSTORE POP DUP2 MSTORE PUSH1 0x20 ADD PUSH1 0x40 DUP1 MLOAD SWAP1 DUP2 ADD PUSH1 0x40 MSTORE DUP1 PUSH1 0x3 DUP2 MSTORE PUSH1 0x20 ADD PUSH32 0x7878780000000000000000000000000000000000000000000000000000000000 DUP2 MSTORE POP DUP2 MSTORE PUSH1 0x20 ADD PUSH1 0x40 DUP1 MLOAD SWAP1 DUP2 ADD PUSH1 0x40 MSTORE DUP1 PUSH1 0x3 DUP2 MSTORE PUSH1 0x20 ADD PUSH32 0x7878780000000000000000000000000000000000000000000000000000000000 DUP2 MSTORE POP DUP2 MSTORE PUSH1 0x20 ADD PUSH1 0x40 DUP1 MLOAD SWAP1 DUP2 ADD PUSH1 0x40 MSTORE DUP1 PUSH1 0x3 DUP2 MSTORE PUSH1 0x20 ADD PUSH32 0x7878780000000000000000000000000000000000000000000000000000000000 DUP2 MSTORE POP DUP2 MSTORE PUSH1 0x20 ADD PUSH2 0x3E7 DUP2 MSTORE PUSH1 0x20 ADD PUSH1 0x40 DUP1 MLOAD SWAP1 DUP2 ADD PUSH1 0x40 MSTORE DUP1 PUSH1 0x3 DUP2 MSTORE PUSH1 0x20 ADD PUSH32 0x7878780000000000000000000000000000000000000000000000000000000000 DUP2 MSTORE POP DUP2 MSTORE PUSH1 0x20 ADD PUSH1 0x40 DUP1 MLOAD SWAP1 DUP2 ADD PUSH1 0x40 MSTORE DUP1 PUSH1 0x3 DUP2 MSTORE PUSH1 0x20 ADD PUSH32 0x7878780000000000000000000000000000000000000000000000000000000000 DUP2 MSTORE POP DUP2 MSTORE PUSH1 0x20 ADD PUSH1 0x40 DUP1 MLOAD SWAP1 DUP2 ADD PUSH1 0x40 MSTORE DUP1 PUSH1 0x3 DUP2 MSTORE PUSH1 0x20 ADD PUSH32 0x7878780000000000000000000000000000000000000000000000000000000000 DUP2 MSTORE POP DUP2 MSTORE POP SWAP1 POP PUSH2 0x2707 PUSH2 0x3447 JUMP JUMPDEST PUSH2 0x100 PUSH1 0x40 MLOAD SWAP1 DUP2 ADD PUSH1 0x40 MSTORE DUP1 PUSH1 0x40 DUP1 MLOAD SWAP1 DUP2 ADD PUSH1 0x40 MSTORE DUP1 PUSH1 0x3 DUP2 MSTORE PUSH1 0x20 ADD PUSH32 0x7878780000000000000000000000000000000000000000000000000000000000 DUP2 MSTORE POP DUP2 MSTORE PUSH1 0x20 ADD PUSH1 0x40 DUP1 MLOAD SWAP1 DUP2 ADD PUSH1 0x40 MSTORE DUP1 PUSH1 0x3 DUP2 MSTORE PUSH1 0x20 ADD PUSH32 0x7878780000000000000000000000000000000000000000000000000000000000 DUP2 MSTORE POP DUP2 MSTORE PUSH1 0x20 ADD PUSH1 0x40 DUP1 MLOAD SWAP1 DUP2 ADD PUSH1 0x40 MSTORE DUP1 PUSH1 0x3 DUP2 MSTORE PUSH1 0x20 ADD PUSH32 0x7878780000000000000000000000000000000000000000000000000000000000 DUP2 MSTORE POP DUP2 MSTORE PUSH1 0x20 ADD PUSH1 0x40 DUP1 MLOAD SWAP1 DUP2 ADD PUSH1 0x40 MSTORE DUP1 PUSH1 0x3 DUP2 MSTORE PUSH1 0x20 ADD PUSH32 0x7878780000000000000000000000000000000000000000000000000000000000 DUP2 MSTORE POP DUP2 MSTORE PUSH1 0x20 ADD PUSH1 0x40 DUP1 MLOAD SWAP1 DUP2 ADD PUSH1 0x40 MSTORE DUP1 PUSH1 0x3 DUP2 MSTORE PUSH1 0x20 ADD PUSH32 0x7878780000000000000000000000000000000000000000000000000000000000 DUP2 MSTORE POP DUP2 MSTORE PUSH1 0x20 ADD PUSH1 0x40 DUP1 MLOAD SWAP1 DUP2 ADD PUSH1 0x40 MSTORE DUP1 PUSH1 0x3 DUP2 MSTORE PUSH1 0x20 ADD PUSH32 0x7878780000000000000000000000000000000000000000000000000000000000 DUP2 MSTORE POP DUP2 MSTORE PUSH1 0x20 ADD PUSH1 0x40 DUP1 MLOAD SWAP1 DUP2 ADD PUSH1 0x40 MSTORE DUP1 PUSH1 0x3 DUP2 MSTORE PUSH1 0x20 ADD PUSH32 0x7878780000000000000000000000000000000000000000000000000000000000 DUP2 MSTORE POP DUP2 MSTORE PUSH1 0x20 ADD PUSH1 0x40 DUP1 MLOAD SWAP1 DUP2 ADD PUSH1 0x40 MSTORE DUP1 PUSH1 0x3 DUP2 MSTORE PUSH1 0x20 ADD PUSH32 0x7878780000000000000000000000000000000000000000000000000000000000 DUP2 MSTORE POP DUP2 MSTORE POP SWAP1 POP PUSH2 0x28F4 PUSH2 0x348D JUMP JUMPDEST PUSH1 0x80 PUSH1 0x40 MLOAD SWAP1 DUP2 ADD PUSH1 0x40 MSTORE DUP1 PUSH1 0x1 PUSH1 0x40 MLOAD SWAP1 DUP1 DUP3 MSTORE DUP1 PUSH1 0x20 MUL PUSH1 0x20 ADD DUP3 ADD PUSH1 0x40 MSTORE DUP1 ISZERO PUSH2 0x2935 JUMPI DUP2 PUSH1 0x20 ADD JUMPDEST PUSH1 0x60 DUP2 MSTORE PUSH1 0x20 ADD SWAP1 PUSH1 0x1 SWAP1 SUB SWAP1 DUP2 PUSH2 0x2920 JUMPI SWAP1 POP JUMPDEST POP DUP2 MSTORE PUSH1 0x20 ADD PUSH1 0x1 PUSH1 0x40 MLOAD SWAP1 DUP1 DUP3 MSTORE DUP1 PUSH1 0x20 MUL PUSH1 0x20 ADD DUP3 ADD PUSH1 0x40 MSTORE DUP1 ISZERO PUSH2 0x2970 JUMPI DUP2 PUSH1 0x20 ADD JUMPDEST PUSH1 0x60 DUP2 MSTORE PUSH1 0x20 ADD SWAP1 PUSH1 0x1 SWAP1 SUB SWAP1 DUP2 PUSH2 0x295B JUMPI SWAP1 POP JUMPDEST POP DUP2 MSTORE PUSH1 0x20 ADD PUSH1 0x1 PUSH1 0x40 MLOAD SWAP1 DUP1 DUP3 MSTORE DUP1 PUSH1 0x20 MUL PUSH1 0x20 ADD DUP3 ADD PUSH1 0x40 MSTORE DUP1 ISZERO PUSH2 0x29AB JUMPI DUP2 PUSH1 0x20 ADD JUMPDEST PUSH1 0x60 DUP2 MSTORE PUSH1 0x20 ADD SWAP1 PUSH1 0x1 SWAP1 SUB SWAP1 DUP2 PUSH2 0x2996 JUMPI SWAP1 POP JUMPDEST POP DUP2 MSTORE PUSH1 0x20 ADD PUSH1 0x1 PUSH1 0x40 MLOAD SWAP1 DUP1 DUP3 MSTORE DUP1 PUSH1 0x20 MUL PUSH1 0x20 ADD DUP3 ADD PUSH1 0x40 MSTORE DUP1 ISZERO PUSH2 0x29E6 JUMPI DUP2 PUSH1 0x20 ADD JUMPDEST PUSH1 0x60 DUP2 MSTORE PUSH1 0x20 ADD SWAP1 PUSH1 0x1 SWAP1 SUB SWAP1 DUP2 PUSH2 0x29D1 JUMPI SWAP1 POP JUMPDEST POP DUP2 MSTORE POP SWAP1 POP PUSH1 0x0 DUP4 DUP4 DUP4 SWAP7 POP SWAP7 POP SWAP7 POP SWAP7 POP POP POP POP JUMPDEST SWAP1 SWAP2 SWAP3 SWAP4 JUMP JUMPDEST PUSH2 0x2A0C CALLER PUSH2 0x317F JUMP JUMPDEST ISZERO PUSH2 0x2BAB JUMPI PUSH2 0x2A19 PUSH2 0x3447 JUMP JUMPDEST PUSH2 0x100 PUSH1 0x40 MLOAD SWAP1 DUP2 ADD PUSH1 0x40 MSTORE DUP1 DUP13 DUP2 MSTORE PUSH1 0x20 ADD DUP12 DUP2 MSTORE PUSH1 0x20 ADD DUP11 DUP2 MSTORE PUSH1 0x20 ADD DUP10 DUP2 MSTORE PUSH1 0x20 ADD DUP9 DUP2 MSTORE PUSH1 0x20 ADD DUP8 DUP2 MSTORE PUSH1 0x20 ADD DUP7 DUP2 MSTORE PUSH1 0x20 ADD DUP6 DUP2 MSTORE POP SWAP1 POP DUP1 PUSH1 0x8 PUSH1 0x0 DUP3 ADD MLOAD DUP2 PUSH1 0x0 ADD SWAP1 DUP1 MLOAD SWAP1 PUSH1 0x20 ADD SWAP1 PUSH2 0x2A75 SWAP3 SWAP2 SWAP1 PUSH2 0x34B6 JUMP JUMPDEST POP PUSH1 0x20 DUP3 ADD MLOAD DUP2 PUSH1 0x1 ADD SWAP1 DUP1 MLOAD SWAP1 PUSH1 0x20 ADD SWAP1 PUSH2 0x2A92 SWAP3 SWAP2 SWAP1 PUSH2 0x34B6 JUMP JUMPDEST POP PUSH1 0x40 DUP3 ADD MLOAD DUP2 PUSH1 0x2 ADD SWAP1 DUP1 MLOAD SWAP1 PUSH1 0x20 ADD SWAP1 PUSH2 0x2AAF SWAP3 SWAP2 SWAP1 PUSH2 0x34B6 JUMP JUMPDEST POP PUSH1 0x60 DUP3 ADD MLOAD DUP2 PUSH1 0x3 ADD SWAP1 DUP1 MLOAD SWAP1 PUSH1 0x20 ADD SWAP1 PUSH2 0x2ACC SWAP3 SWAP2 SWAP1 PUSH2 0x34B6 JUMP JUMPDEST POP PUSH1 0x80 DUP3 ADD MLOAD DUP2 PUSH1 0x4 ADD SWAP1 DUP1 MLOAD SWAP1 PUSH1 0x20 ADD SWAP1 PUSH2 0x2AE9 SWAP3 SWAP2 SWAP1 PUSH2 0x34B6 JUMP JUMPDEST POP PUSH1 0xA0 DUP3 ADD MLOAD DUP2 PUSH1 0x5 ADD SWAP1 DUP1 MLOAD SWAP1 PUSH1 0x20 ADD SWAP1 PUSH2 0x2B06 SWAP3 SWAP2 SWAP1 PUSH2 0x34B6 JUMP JUMPDEST POP PUSH1 0xC0 DUP3 ADD MLOAD DUP2 PUSH1 0x6 ADD SWAP1 DUP1 MLOAD SWAP1 PUSH1 0x20 ADD SWAP1 PUSH2 0x2B23 SWAP3 SWAP2 SWAP1 PUSH2 0x34B6 JUMP JUMPDEST POP PUSH1 0xE0 DUP3 ADD MLOAD DUP2 PUSH1 0x7 ADD SWAP1 DUP1 MLOAD SWAP1 PUSH1 0x20 ADD SWAP1 PUSH2 0x2B40 SWAP3 SWAP2 SWAP1 PUSH2 0x34B6 JUMP JUMPDEST POP SWAP1 POP POP PUSH32 0x2B94F1E9999FF685F243474C3B8C30563987B8897FECB35C7CEA9AC0F4F5C6BD PUSH1 0x40 MLOAD PUSH1 0x40 MLOAD DUP1 SWAP2 SUB SWAP1 LOG1 PUSH32 0xEF0F252FA7157CBC267992E6FFB0392CEF11CE000A6E683E67DF6B4C493EC5DD DUP4 DUP4 PUSH1 0x40 MLOAD PUSH2 0x2BA1 SWAP3 SWAP2 SWAP1 PUSH2 0x3F3D JUMP JUMPDEST PUSH1 0x40 MLOAD DUP1 SWAP2 SUB SWAP1 LOG1 POP JUMPDEST POP POP POP POP POP POP POP POP POP POP JUMP JUMPDEST PUSH2 0x2BC0 CALLER PUSH2 0x317F JUMP JUMPDEST ISZERO PUSH2 0x2ECB JUMPI PUSH1 0x40 MLOAD PUSH1 0x20 ADD DUP1 PUSH1 0x0 ADD SWAP1 POP PUSH1 0x40 MLOAD PUSH1 0x20 DUP2 DUP4 SUB SUB DUP2 MSTORE SWAP1 PUSH1 0x40 MSTORE DUP1 MLOAD SWAP1 PUSH1 0x20 ADD KECCAK256 DUP6 PUSH1 0x40 MLOAD PUSH1 0x20 ADD DUP1 DUP3 DUP1 MLOAD SWAP1 PUSH1 0x20 ADD SWAP1 DUP1 DUP4 DUP4 JUMPDEST PUSH1 0x20 DUP4 LT ISZERO ISZERO PUSH2 0x2C20 JUMPI DUP1 MLOAD DUP3 MSTORE PUSH1 0x20 DUP3 ADD SWAP2 POP PUSH1 0x20 DUP2 ADD SWAP1 POP PUSH1 0x20 DUP4 SUB SWAP3 POP PUSH2 0x2BFB JUMP JUMPDEST PUSH1 0x1 DUP4 PUSH1 0x20 SUB PUSH2 0x100 EXP SUB DUP1 NOT DUP3 MLOAD AND DUP2 DUP5 MLOAD AND DUP1 DUP3 OR DUP6 MSTORE POP POP POP POP POP POP SWAP1 POP ADD SWAP2 POP POP PUSH1 0x40 MLOAD PUSH1 0x20 DUP2 DUP4 SUB SUB DUP2 MSTORE SWAP1 PUSH1 0x40 MSTORE DUP1 MLOAD SWAP1 PUSH1 0x20 ADD KECCAK256 EQ ISZERO ISZERO PUSH2 0x2CA5 JUMPI PUSH1 0x10 PUSH1 0x0 ADD DUP6 SWAP1 DUP1 PUSH1 0x1 DUP2 SLOAD ADD DUP1 DUP3 SSTORE DUP1 SWAP2 POP POP SWAP1 PUSH1 0x1 DUP3 SUB SWAP1 PUSH1 0x0 MSTORE PUSH1 0x20 PUSH1 0x0 KECCAK256 ADD PUSH1 0x0 SWAP1 SWAP2 SWAP3 SWAP1 SWAP2 SWAP1 SWAP2 POP SWAP1 DUP1 MLOAD SWAP1 PUSH1 0x20 ADD SWAP1 PUSH2 0x2CA2 SWAP3 SWAP2 SWAP1 PUSH2 0x3536 JUMP JUMPDEST POP POP JUMPDEST PUSH1 0x40 MLOAD PUSH1 0x20 ADD DUP1 PUSH1 0x0 ADD SWAP1 POP PUSH1 0x40 MLOAD PUSH1 0x20 DUP2 DUP4 SUB SUB DUP2 MSTORE SWAP1 PUSH1 0x40 MSTORE DUP1 MLOAD SWAP1 PUSH1 0x20 ADD KECCAK256 DUP5 PUSH1 0x40 MLOAD PUSH1 0x20 ADD DUP1 DUP3 DUP1 MLOAD SWAP1 PUSH1 0x20 ADD SWAP1 DUP1 DUP4 DUP4 JUMPDEST PUSH1 0x20 DUP4 LT ISZERO ISZERO PUSH2 0x2D00 JUMPI DUP1 MLOAD DUP3 MSTORE PUSH1 0x20 DUP3 ADD SWAP2 POP PUSH1 0x20 DUP2 ADD SWAP1 POP PUSH1 0x20 DUP4 SUB SWAP3 POP PUSH2 0x2CDB JUMP JUMPDEST PUSH1 0x1 DUP4 PUSH1 0x20 SUB PUSH2 0x100 EXP SUB DUP1 NOT DUP3 MLOAD AND DUP2 DUP5 MLOAD AND DUP1 DUP3 OR DUP6 MSTORE POP POP POP POP POP POP SWAP1 POP ADD SWAP2 POP POP PUSH1 0x40 MLOAD PUSH1 0x20 DUP2 DUP4 SUB SUB DUP2 MSTORE SWAP1 PUSH1 0x40 MSTORE DUP1 MLOAD SWAP1 PUSH1 0x20 ADD KECCAK256 EQ ISZERO ISZERO PUSH2 0x2D85 JUMPI PUSH1 0x10 PUSH1 0x1 ADD DUP5 SWAP1 DUP1 PUSH1 0x1 DUP2 SLOAD ADD DUP1 DUP3 SSTORE DUP1 SWAP2 POP POP SWAP1 PUSH1 0x1 DUP3 SUB SWAP1 PUSH1 0x0 MSTORE PUSH1 0x20 PUSH1 0x0 KECCAK256 ADD PUSH1 0x0 SWAP1 SWAP2 SWAP3 SWAP1 SWAP2 SWAP1 SWAP2 POP SWAP1 DUP1 MLOAD SWAP1 PUSH1 0x20 ADD SWAP1 PUSH2 0x2D82 SWAP3 SWAP2 SWAP1 PUSH2 0x3536 JUMP JUMPDEST POP POP JUMPDEST PUSH1 0x40 MLOAD PUSH1 0x20 ADD DUP1 PUSH1 0x0 ADD SWAP1 POP PUSH1 0x40 MLOAD PUSH1 0x20 DUP2 DUP4 SUB SUB DUP2 MSTORE SWAP1 PUSH1 0x40 MSTORE DUP1 MLOAD SWAP1 PUSH1 0x20 ADD KECCAK256 DUP4 PUSH1 0x40 MLOAD PUSH1 0x20 ADD DUP1 DUP3 DUP1 MLOAD SWAP1 PUSH1 0x20 ADD SWAP1 DUP1 DUP4 DUP4 JUMPDEST PUSH1 0x20 DUP4 LT ISZERO ISZERO PUSH2 0x2DE0 JUMPI DUP1 MLOAD DUP3 MSTORE PUSH1 0x20 DUP3 ADD SWAP2 POP PUSH1 0x20 DUP2 ADD SWAP1 POP PUSH1 0x20 DUP4 SUB SWAP3 POP PUSH2 0x2DBB JUMP JUMPDEST PUSH1 0x1 DUP4 PUSH1 0x20 SUB PUSH2 0x100 EXP SUB DUP1 NOT DUP3 MLOAD AND DUP2 DUP5 MLOAD AND DUP1 DUP3 OR DUP6 MSTORE POP POP POP POP POP POP SWAP1 POP ADD SWAP2 POP POP PUSH1 0x40 MLOAD PUSH1 0x20 DUP2 DUP4 SUB SUB DUP2 MSTORE SWAP1 PUSH1 0x40 MSTORE DUP1 MLOAD SWAP1 PUSH1 0x20 ADD KECCAK256 EQ ISZERO ISZERO PUSH2 0x2E65 JUMPI PUSH1 0x10 PUSH1 0x2 ADD DUP4 SWAP1 DUP1 PUSH1 0x1 DUP2 SLOAD ADD DUP1 DUP3 SSTORE DUP1 SWAP2 POP POP SWAP1 PUSH1 0x1 DUP3 SUB SWAP1 PUSH1 0x0 MSTORE PUSH1 0x20 PUSH1 0x0 KECCAK256 ADD PUSH1 0x0 SWAP1 SWAP2 SWAP3 SWAP1 SWAP2 SWAP1 SWAP2 POP SWAP1 DUP1 MLOAD SWAP1 PUSH1 0x20 ADD SWAP1 PUSH2 0x2E62 SWAP3 SWAP2 SWAP1 PUSH2 0x3536 JUMP JUMPDEST POP POP JUMPDEST PUSH32 0x2B94F1E9999FF685F243474C3B8C30563987B8897FECB35C7CEA9AC0F4F5C6BD PUSH1 0x40 MLOAD PUSH1 0x40 MLOAD DUP1 SWAP2 SUB SWAP1 LOG1 PUSH32 0xEF0F252FA7157CBC267992E6FFB0392CEF11CE000A6E683E67DF6B4C493EC5DD DUP3 DUP3 PUSH1 0x40 MLOAD PUSH2 0x2EC2 SWAP3 SWAP2 SWAP1 PUSH2 0x3F3D JUMP JUMPDEST PUSH1 0x40 MLOAD DUP1 SWAP2 SUB SWAP1 LOG1 JUMPDEST POP POP POP POP POP JUMP JUMPDEST PUSH1 0x0 PUSH1 0x15 PUSH1 0x40 MLOAD PUSH1 0x20 ADD DUP1 DUP3 DUP1 SLOAD PUSH1 0x1 DUP2 PUSH1 0x1 AND ISZERO PUSH2 0x100 MUL SUB AND PUSH1 0x2 SWAP1 DIV DUP1 ISZERO PUSH2 0x2F34 JUMPI DUP1 PUSH1 0x1F LT PUSH2 0x2F12 JUMPI PUSH2 0x100 DUP1 DUP4 SLOAD DIV MUL DUP4 MSTORE SWAP2 DUP3 ADD SWAP2 PUSH2 0x2F34 JUMP JUMPDEST DUP3 ADD SWAP2 SWAP1 PUSH1 0x0 MSTORE PUSH1 0x20 PUSH1 0x0 KECCAK256 SWAP1 JUMPDEST DUP2 SLOAD DUP2 MSTORE SWAP1 PUSH1 0x1 ADD SWAP1 PUSH1 0x20 ADD DUP1 DUP4 GT PUSH2 0x2F20 JUMPI JUMPDEST POP POP SWAP2 POP POP PUSH1 0x40 MLOAD PUSH1 0x20 DUP2 DUP4 SUB SUB DUP2 MSTORE SWAP1 PUSH1 0x40 MSTORE DUP1 MLOAD SWAP1 PUSH1 0x20 ADD KECCAK256 DUP3 PUSH1 0x40 MLOAD PUSH1 0x20 ADD DUP1 DUP3 DUP1 MLOAD SWAP1 PUSH1 0x20 ADD SWAP1 DUP1 DUP4 DUP4 JUMPDEST PUSH1 0x20 DUP4 LT ISZERO ISZERO PUSH2 0x2F88 JUMPI DUP1 MLOAD DUP3 MSTORE PUSH1 0x20 DUP3 ADD SWAP2 POP PUSH1 0x20 DUP2 ADD SWAP1 POP PUSH1 0x20 DUP4 SUB SWAP3 POP PUSH2 0x2F63 JUMP JUMPDEST PUSH1 0x1 DUP4 PUSH1 0x20 SUB PUSH2 0x100 EXP SUB DUP1 NOT DUP3 MLOAD AND DUP2 DUP5 MLOAD AND DUP1 DUP3 OR DUP6 MSTORE POP POP POP POP POP POP SWAP1 POP ADD SWAP2 POP POP PUSH1 0x40 MLOAD PUSH1 0x20 DUP2 DUP4 SUB SUB DUP2 MSTORE SWAP1 PUSH1 0x40 MSTORE DUP1 MLOAD SWAP1 PUSH1 0x20 ADD KECCAK256 EQ ISZERO PUSH2 0x2FD2 JUMPI PUSH1 0x1 SWAP1 POP PUSH2 0x2FD7 JUMP JUMPDEST PUSH1 0x0 SWAP1 POP JUMPDEST SWAP2 SWAP1 POP JUMP JUMPDEST PUSH1 0x15 PUSH1 0x40 MLOAD PUSH1 0x20 ADD DUP1 DUP3 DUP1 SLOAD PUSH1 0x1 DUP2 PUSH1 0x1 AND ISZERO PUSH2 0x100 MUL SUB AND PUSH1 0x2 SWAP1 DIV DUP1 ISZERO PUSH2 0x303C JUMPI DUP1 PUSH1 0x1F LT PUSH2 0x301A JUMPI PUSH2 0x100 DUP1 DUP4 SLOAD DIV MUL DUP4 MSTORE SWAP2 DUP3 ADD SWAP2 PUSH2 0x303C JUMP JUMPDEST DUP3 ADD SWAP2 SWAP1 PUSH1 0x0 MSTORE PUSH1 0x20 PUSH1 0x0 KECCAK256 SWAP1 JUMPDEST DUP2 SLOAD DUP2 MSTORE SWAP1 PUSH1 0x1 ADD SWAP1 PUSH1 0x20 ADD DUP1 DUP4 GT PUSH2 0x3028 JUMPI JUMPDEST POP POP SWAP2 POP POP PUSH1 0x40 MLOAD PUSH1 0x20 DUP2 DUP4 SUB SUB DUP2 MSTORE SWAP1 PUSH1 0x40 MSTORE DUP1 MLOAD SWAP1 PUSH1 0x20 ADD KECCAK256 DUP4 PUSH1 0x40 MLOAD PUSH1 0x20 ADD DUP1 DUP3 DUP1 MLOAD SWAP1 PUSH1 0x20 ADD SWAP1 DUP1 DUP4 DUP4 JUMPDEST PUSH1 0x20 DUP4 LT ISZERO ISZERO PUSH2 0x3090 JUMPI DUP1 MLOAD DUP3 MSTORE PUSH1 0x20 DUP3 ADD SWAP2 POP PUSH1 0x20 DUP2 ADD SWAP1 POP PUSH1 0x20 DUP4 SUB SWAP3 POP PUSH2 0x306B JUMP JUMPDEST PUSH1 0x1 DUP4 PUSH1 0x20 SUB PUSH2 0x100 EXP SUB DUP1 NOT DUP3 MLOAD AND DUP2 DUP5 MLOAD AND DUP1 DUP3 OR DUP6 MSTORE POP POP POP POP POP POP SWAP1 POP ADD SWAP2 POP POP PUSH1 0x40 MLOAD PUSH1 0x20 DUP2 DUP4 SUB SUB DUP2 MSTORE SWAP1 PUSH1 0x40 MSTORE DUP1 MLOAD SWAP1 PUSH1 0x20 ADD KECCAK256 EQ ISZERO PUSH2 0x3179 JUMPI PUSH1 0x10 PUSH1 0x3 ADD DUP5 SWAP1 DUP1 PUSH1 0x1 DUP2 SLOAD ADD DUP1 DUP3 SSTORE DUP1 SWAP2 POP POP SWAP1 PUSH1 0x1 DUP3 SUB SWAP1 PUSH1 0x0 MSTORE PUSH1 0x20 PUSH1 0x0 KECCAK256 ADD PUSH1 0x0 SWAP1 SWAP2 SWAP3 SWAP1 SWAP2 SWAP1 SWAP2 POP SWAP1 DUP1 MLOAD SWAP1 PUSH1 0x20 ADD SWAP1 PUSH2 0x3111 SWAP3 SWAP2 SWAP1 PUSH2 0x3536 JUMP JUMPDEST POP POP PUSH32 0x2B94F1E9999FF685F243474C3B8C30563987B8897FECB35C7CEA9AC0F4F5C6BD PUSH1 0x40 MLOAD PUSH1 0x40 MLOAD DUP1 SWAP2 SUB SWAP1 LOG1 PUSH32 0xEF0F252FA7157CBC267992E6FFB0392CEF11CE000A6E683E67DF6B4C493EC5DD DUP3 DUP3 PUSH1 0x40 MLOAD PUSH2 0x3170 SWAP3 SWAP2 SWAP1 PUSH2 0x3F3D JUMP JUMPDEST PUSH1 0x40 MLOAD DUP1 SWAP2 SUB SWAP1 LOG1 JUMPDEST POP POP POP POP JUMP JUMPDEST PUSH1 0x0 DUP1 PUSH20 0x34E524E35A165C5D829B2985EADDE75562ED15C SWAP1 POP PUSH1 0x0 DUP2 PUSH20 0xFFFFFFFFFFFFFFFFFFFFFFFFFFFFFFFFFFFFFFFF AND PUSH4 0xFF76A739 PUSH1 0x40 MLOAD DUP2 PUSH4 0xFFFFFFFF AND PUSH29 0x100000000000000000000000000000000000000000000000000000000 MUL DUP2 MSTORE PUSH1 0x4 ADD PUSH1 0x20 PUSH1 0x40 MLOAD DUP1 DUP4 SUB DUP2 DUP7 DUP1 EXTCODESIZE ISZERO DUP1 ISZERO PUSH2 0x31FD JUMPI PUSH1 0x0 DUP1 REVERT JUMPDEST POP GAS STATICCALL ISZERO DUP1 ISZERO PUSH2 0x3211 JUMPI RETURNDATASIZE PUSH1 0x0 DUP1 RETURNDATACOPY RETURNDATASIZE PUSH1 0x0 REVERT JUMPDEST POP POP POP POP PUSH1 0x40 MLOAD RETURNDATASIZE PUSH1 0x1F NOT PUSH1 0x1F DUP3 ADD AND DUP3 ADD DUP1 PUSH1 0x40 MSTORE POP PUSH2 0x3235 SWAP2 SWAP1 DUP2 ADD SWAP1 PUSH2 0x3696 JUMP JUMPDEST SWAP1 POP DUP1 PUSH20 0xFFFFFFFFFFFFFFFFFFFFFFFFFFFFFFFFFFFFFFFF AND PUSH4 0x996440C6 DUP6 PUSH1 0x40 MLOAD DUP3 PUSH4 0xFFFFFFFF AND PUSH29 0x100000000000000000000000000000000000000000000000000000000 MUL DUP2 MSTORE PUSH1 0x4 ADD PUSH2 0x328C SWAP2 SWAP1 PUSH2 0x3E8B JUMP JUMPDEST PUSH1 0x20 PUSH1 0x40 MLOAD DUP1 DUP4 SUB DUP2 DUP7 DUP1 EXTCODESIZE ISZERO DUP1 ISZERO PUSH2 0x32A4 JUMPI PUSH1 0x0 DUP1 REVERT JUMPDEST POP GAS STATICCALL ISZERO DUP1 ISZERO PUSH2 0x32B8 JUMPI RETURNDATASIZE PUSH1 0x0 DUP1 RETURNDATACOPY RETURNDATASIZE PUSH1 0x0 REVERT JUMPDEST POP POP POP POP PUSH1 0x40 MLOAD RETURNDATASIZE PUSH1 0x1F NOT PUSH1 0x1F DUP3 ADD AND DUP3 ADD DUP1 PUSH1 0x40 MSTORE POP PUSH2 0x32DC SWAP2 SWAP1 DUP2 ADD SWAP1 PUSH2 0x376A JUMP JUMPDEST ISZERO PUSH2 0x3350 JUMPI PUSH1 0x1 ISZERO ISZERO PUSH1 0x14 PUSH1 0x0 DUP7 PUSH20 0xFFFFFFFFFFFFFFFFFFFFFFFFFFFFFFFFFFFFFFFF AND PUSH20 0xFFFFFFFFFFFFFFFFFFFFFFFFFFFFFFFFFFFFFFFF AND DUP2 MSTORE PUSH1 0x20 ADD SWAP1 DUP2 MSTORE PUSH1 0x20 ADD PUSH1 0x0 KECCAK256 PUSH1 0x0 SWAP1 SLOAD SWAP1 PUSH2 0x100 EXP SWAP1 DIV PUSH1 0xFF AND ISZERO ISZERO EQ ISZERO PUSH2 0x3345 JUMPI PUSH1 0x1 SWAP3 POP POP POP PUSH2 0x3357 JUMP JUMPDEST PUSH1 0x0 SWAP3 POP POP POP PUSH2 0x3357 JUMP JUMPDEST PUSH1 0x0 SWAP3 POP POP POP JUMPDEST SWAP2 SWAP1 POP JUMP JUMPDEST PUSH1 0x60 PUSH1 0x8 PUSH1 0x7 ADD DUP1 SLOAD PUSH1 0x1 DUP2 PUSH1 0x1 AND ISZERO PUSH2 0x100 MUL SUB AND PUSH1 0x2 SWAP1 DIV DUP1 PUSH1 0x1F ADD PUSH1 0x20 DUP1 SWAP2 DIV MUL PUSH1 0x20 ADD PUSH1 0x40 MLOAD SWAP1 DUP2 ADD PUSH1 0x40 MSTORE DUP1 SWAP3 SWAP2 SWAP1 DUP2 DUP2 MSTORE PUSH1 0x20 ADD DUP3 DUP1 SLOAD PUSH1 0x1 DUP2 PUSH1 0x1 AND ISZERO PUSH2 0x100 MUL SUB AND PUSH1 0x2 SWAP1 DIV DUP1 ISZERO PUSH2 0x33F7 JUMPI DUP1 PUSH1 0x1F LT PUSH2 0x33CC JUMPI PUSH2 0x100 DUP1 DUP4 SLOAD DIV MUL DUP4 MSTORE SWAP2 PUSH1 0x20 ADD SWAP2 PUSH2 0x33F7 JUMP JUMPDEST DUP3 ADD SWAP2 SWAP1 PUSH1 0x0 MSTORE PUSH1 0x20 PUSH1 0x0 KECCAK256 SWAP1 JUMPDEST DUP2 SLOAD DUP2 MSTORE SWAP1 PUSH1 0x1 ADD SWAP1 PUSH1 0x20 ADD DUP1 DUP4 GT PUSH2 0x33DA JUMPI DUP3 SWAP1 SUB PUSH1 0x1F AND DUP3 ADD SWAP2 JUMPDEST POP POP POP POP POP SWAP1 POP SWAP1 JUMP JUMPDEST PUSH2 0x100 PUSH1 0x40 MLOAD SWAP1 DUP2 ADD PUSH1 0x40 MSTORE DUP1 PUSH1 0x60 DUP2 MSTORE PUSH1 0x20 ADD PUSH1 0x60 DUP2 MSTORE PUSH1 0x20 ADD PUSH1 0x60 DUP2 MSTORE PUSH1 0x20 ADD PUSH1 0x60 DUP2 MSTORE PUSH1 0x20 ADD PUSH1 0x0 DUP2 MSTORE PUSH1 0x20 ADD PUSH1 0x60 DUP2 MSTORE PUSH1 0x20 ADD PUSH1 0x60 DUP2 MSTORE PUSH1 0x20 ADD PUSH1 0x60 DUP2 MSTORE POP SWAP1 JUMP JUMPDEST PUSH2 0x100 PUSH1 0x40 MLOAD SWAP1 DUP2 ADD PUSH1 0x40 MSTORE DUP1 PUSH1 0x60 DUP2 MSTORE PUSH1 0x20 ADD PUSH1 0x60 DUP2 MSTORE PUSH1 0x20 ADD PUSH1 0x60 DUP2 MSTORE PUSH1 0x20 ADD PUSH1 0x60 DUP2 MSTORE PUSH1 0x20 ADD PUSH1 0x60 DUP2 MSTORE PUSH1 0x20 ADD PUSH1 0x60 DUP2 MSTORE PUSH1 0x20 ADD PUSH1 0x60 DUP2 MSTORE PUSH1 0x20 ADD PUSH1 0x60 DUP2 MSTORE POP SWAP1 JUMP JUMPDEST PUSH1 0x80 PUSH1 0x40 MLOAD SWAP1 DUP2 ADD PUSH1 0x40 MSTORE DUP1 PUSH1 0x60 DUP2 MSTORE PUSH1 0x20 ADD PUSH1 0x60 DUP2 MSTORE PUSH1 0x20 ADD PUSH1 0x60 DUP2 MSTORE PUSH1 0x20 ADD PUSH1 0x60 DUP2 MSTORE POP SWAP1 JUMP JUMPDEST DUP3 DUP1 SLOAD PUSH1 0x1 DUP2 PUSH1 0x1 AND ISZERO PUSH2 0x100 MUL SUB AND PUSH1 0x2 SWAP1 DIV SWAP1 PUSH1 0x0 MSTORE PUSH1 0x20 PUSH1 0x0 KECCAK256 SWAP1 PUSH1 0x1F ADD PUSH1 0x20 SWAP1 DIV DUP2 ADD SWAP3 DUP3 PUSH1 0x1F LT PUSH2 0x34F7 JUMPI DUP1 MLOAD PUSH1 0xFF NOT AND DUP4 DUP1 ADD OR DUP6 SSTORE PUSH2 0x3525 JUMP JUMPDEST DUP3 DUP1 ADD PUSH1 0x1 ADD DUP6 SSTORE DUP3 ISZERO PUSH2 0x3525 JUMPI SWAP2 DUP3 ADD JUMPDEST DUP3 DUP2 GT ISZERO PUSH2 0x3524 JUMPI DUP3 MLOAD DUP3 SSTORE SWAP2 PUSH1 0x20 ADD SWAP2 SWAP1 PUSH1 0x1 ADD SWAP1 PUSH2 0x3509 JUMP JUMPDEST JUMPDEST POP SWAP1 POP PUSH2 0x3532 SWAP2 SWAP1 PUSH2 0x35B6 JUMP JUMPDEST POP SWAP1 JUMP JUMPDEST DUP3 DUP1 SLOAD PUSH1 0x1 DUP2 PUSH1 0x1 AND ISZERO PUSH2 0x100 MUL SUB AND PUSH1 0x2 SWAP1 DIV SWAP1 PUSH1 0x0 MSTORE PUSH1 0x20 PUSH1 0x0 KECCAK256 SWAP1 PUSH1 0x1F ADD PUSH1 0x20 SWAP1 DIV DUP2 ADD SWAP3 DUP3 PUSH1 0x1F LT PUSH2 0x3577 JUMPI DUP1 MLOAD PUSH1 0xFF NOT AND DUP4 DUP1 ADD OR DUP6 SSTORE PUSH2 0x35A5 JUMP JUMPDEST DUP3 DUP1 ADD PUSH1 0x1 ADD DUP6 SSTORE DUP3 ISZERO PUSH2 0x35A5 JUMPI SWAP2 DUP3 ADD JUMPDEST DUP3 DUP2 GT ISZERO PUSH2 0x35A4 JUMPI DUP3 MLOAD DUP3 SSTORE SWAP2 PUSH1 0x20 ADD SWAP2 SWAP1 PUSH1 0x1 ADD SWAP1 PUSH2 0x3589 JUMP JUMPDEST JUMPDEST POP SWAP1 POP PUSH2 0x35B2 SWAP2 SWAP1 PUSH2 0x35B6 JUMP JUMPDEST POP SWAP1 JUMP JUMPDEST PUSH2 0x35D8 SWAP2 SWAP1 JUMPDEST DUP1 DUP3 GT ISZERO PUSH2 0x35D4 JUMPI PUSH1 0x0 DUP2 PUSH1 0x0 SWAP1 SSTORE POP PUSH1 0x1 ADD PUSH2 0x35BC JUMP JUMPDEST POP SWAP1 JUMP JUMPDEST SWAP1 JUMP JUMPDEST PUSH1 0x0 PUSH2 0x35E7 DUP3 CALLDATALOAD PUSH2 0x4050 JUMP JUMPDEST SWAP1 POP SWAP3 SWAP2 POP POP JUMP JUMPDEST PUSH1 0x0 PUSH2 0x35FB DUP3 MLOAD PUSH2 0x4050 JUMP JUMPDEST SWAP1 POP SWAP3 SWAP2 POP POP JUMP JUMPDEST PUSH1 0x0 PUSH2 0x360F DUP3 MLOAD PUSH2 0x4062 JUMP JUMPDEST SWAP1 POP SWAP3 SWAP2 POP POP JUMP JUMPDEST PUSH1 0x0 DUP3 PUSH1 0x1F DUP4 ADD SLT ISZERO ISZERO PUSH2 0x362A JUMPI PUSH1 0x0 DUP1 REVERT JUMPDEST DUP2 CALLDATALOAD PUSH2 0x363D PUSH2 0x3638 DUP3 PUSH2 0x3FA1 JUMP JUMPDEST PUSH2 0x3F74 JUMP JUMPDEST SWAP2 POP DUP1 DUP3 MSTORE PUSH1 0x20 DUP4 ADD PUSH1 0x20 DUP4 ADD DUP6 DUP4 DUP4 ADD GT ISZERO PUSH2 0x3659 JUMPI PUSH1 0x0 DUP1 REVERT JUMPDEST PUSH2 0x3664 DUP4 DUP3 DUP5 PUSH2 0x406E JUMP JUMPDEST POP POP POP SWAP3 SWAP2 POP POP JUMP JUMPDEST PUSH1 0x0 PUSH1 0x20 DUP3 DUP5 SUB SLT ISZERO PUSH2 0x367F JUMPI PUSH1 0x0 DUP1 REVERT JUMPDEST PUSH1 0x0 PUSH2 0x368D DUP5 DUP3 DUP6 ADD PUSH2 0x35DB JUMP JUMPDEST SWAP2 POP POP SWAP3 SWAP2 POP POP JUMP JUMPDEST PUSH1 0x0 PUSH1 0x20 DUP3 DUP5 SUB SLT ISZERO PUSH2 0x36A8 JUMPI PUSH1 0x0 DUP1 REVERT JUMPDEST PUSH1 0x0 PUSH2 0x36B6 DUP5 DUP3 DUP6 ADD PUSH2 0x35EF JUMP JUMPDEST SWAP2 POP POP SWAP3 SWAP2 POP POP JUMP JUMPDEST PUSH1 0x0 DUP1 PUSH1 0x0 DUP1 PUSH1 0x80 DUP6 DUP8 SUB SLT ISZERO PUSH2 0x36D5 JUMPI PUSH1 0x0 DUP1 REVERT JUMPDEST PUSH1 0x0 PUSH2 0x36E3 DUP8 DUP3 DUP9 ADD PUSH2 0x35DB JUMP JUMPDEST SWAP5 POP POP PUSH1 0x20 DUP6 ADD CALLDATALOAD PUSH8 0xFFFFFFFFFFFFFFFF DUP2 GT ISZERO PUSH2 0x3700 JUMPI PUSH1 0x0 DUP1 REVERT JUMPDEST PUSH2 0x370C DUP8 DUP3 DUP9 ADD PUSH2 0x3617 JUMP JUMPDEST SWAP4 POP POP PUSH1 0x40 DUP6 ADD CALLDATALOAD PUSH8 0xFFFFFFFFFFFFFFFF DUP2 GT ISZERO PUSH2 0x3729 JUMPI PUSH1 0x0 DUP1 REVERT JUMPDEST PUSH2 0x3735 DUP8 DUP3 DUP9 ADD PUSH2 0x3617 JUMP JUMPDEST SWAP3 POP POP PUSH1 0x60 DUP6 ADD CALLDATALOAD PUSH8 0xFFFFFFFFFFFFFFFF DUP2 GT ISZERO PUSH2 0x3752 JUMPI PUSH1 0x0 DUP1 REVERT JUMPDEST PUSH2 0x375E DUP8 DUP3 DUP9 ADD PUSH2 0x3617 JUMP JUMPDEST SWAP2 POP POP SWAP3 SWAP6 SWAP2 SWAP5 POP SWAP3 POP JUMP JUMPDEST PUSH1 0x0 PUSH1 0x20 DUP3 DUP5 SUB SLT ISZERO PUSH2 0x377C JUMPI PUSH1 0x0 DUP1 REVERT JUMPDEST PUSH1 0x0 PUSH2 0x378A DUP5 DUP3 DUP6 ADD PUSH2 0x3603 JUMP JUMPDEST SWAP2 POP POP SWAP3 SWAP2 POP POP JUMP JUMPDEST PUSH1 0x0 PUSH1 0x20 DUP3 DUP5 SUB SLT ISZERO PUSH2 0x37A5 JUMPI PUSH1 0x0 DUP1 REVERT JUMPDEST PUSH1 0x0 DUP3 ADD CALLDATALOAD PUSH8 0xFFFFFFFFFFFFFFFF DUP2 GT ISZERO PUSH2 0x37BF JUMPI PUSH1 0x0 DUP1 REVERT JUMPDEST PUSH2 0x37CB DUP5 DUP3 DUP6 ADD PUSH2 0x3617 JUMP JUMPDEST SWAP2 POP POP SWAP3 SWAP2 POP POP JUMP JUMPDEST PUSH1 0x0 DUP1 PUSH1 0x0 DUP1 PUSH1 0x80 DUP6 DUP8 SUB SLT ISZERO PUSH2 0x37EA JUMPI PUSH1 0x0 DUP1 REVERT JUMPDEST PUSH1 0x0 DUP6 ADD CALLDATALOAD PUSH8 0xFFFFFFFFFFFFFFFF DUP2 GT ISZERO PUSH2 0x3804 JUMPI PUSH1 0x0 DUP1 REVERT JUMPDEST PUSH2 0x3810 DUP8 DUP3 DUP9 ADD PUSH2 0x3617 JUMP JUMPDEST SWAP5 POP POP PUSH1 0x20 DUP6 ADD CALLDATALOAD PUSH8 0xFFFFFFFFFFFFFFFF DUP2 GT ISZERO PUSH2 0x382D JUMPI PUSH1 0x0 DUP1 REVERT JUMPDEST PUSH2 0x3839 DUP8 DUP3 DUP9 ADD PUSH2 0x3617 JUMP JUMPDEST SWAP4 POP POP PUSH1 0x40 DUP6 ADD CALLDATALOAD PUSH8 0xFFFFFFFFFFFFFFFF DUP2 GT ISZERO PUSH2 0x3856 JUMPI PUSH1 0x0 DUP1 REVERT JUMPDEST PUSH2 0x3862 DUP8 DUP3 DUP9 ADD PUSH2 0x3617 JUMP JUMPDEST SWAP3 POP POP PUSH1 0x60 DUP6 ADD CALLDATALOAD PUSH8 0xFFFFFFFFFFFFFFFF DUP2 GT ISZERO PUSH2 0x387F JUMPI PUSH1 0x0 DUP1 REVERT JUMPDEST PUSH2 0x388B DUP8 DUP3 DUP9 ADD PUSH2 0x3617 JUMP JUMPDEST SWAP2 POP POP SWAP3 SWAP6 SWAP2 SWAP5 POP SWAP3 POP JUMP JUMPDEST PUSH1 0x0 DUP1 PUSH1 0x0 DUP1 PUSH1 0x0 PUSH1 0xA0 DUP7 DUP9 SUB SLT ISZERO PUSH2 0x38AF JUMPI PUSH1 0x0 DUP1 REVERT JUMPDEST PUSH1 0x0 DUP7 ADD CALLDATALOAD PUSH8 0xFFFFFFFFFFFFFFFF DUP2 GT ISZERO PUSH2 0x38C9 JUMPI PUSH1 0x0 DUP1 REVERT JUMPDEST PUSH2 0x38D5 DUP9 DUP3 DUP10 ADD PUSH2 0x3617 JUMP JUMPDEST SWAP6 POP POP PUSH1 0x20 DUP7 ADD CALLDATALOAD PUSH8 0xFFFFFFFFFFFFFFFF DUP2 GT ISZERO PUSH2 0x38F2 JUMPI PUSH1 0x0 DUP1 REVERT JUMPDEST PUSH2 0x38FE DUP9 DUP3 DUP10 ADD PUSH2 0x3617 JUMP JUMPDEST SWAP5 POP POP PUSH1 0x40 DUP7 ADD CALLDATALOAD PUSH8 0xFFFFFFFFFFFFFFFF DUP2 GT ISZERO PUSH2 0x391B JUMPI PUSH1 0x0 DUP1 REVERT JUMPDEST PUSH2 0x3927 DUP9 DUP3 DUP10 ADD PUSH2 0x3617 JUMP JUMPDEST SWAP4 POP POP PUSH1 0x60 DUP7 ADD CALLDATALOAD PUSH8 0xFFFFFFFFFFFFFFFF DUP2 GT ISZERO PUSH2 0x3944 JUMPI PUSH1 0x0 DUP1 REVERT JUMPDEST PUSH2 0x3950 DUP9 DUP3 DUP10 ADD PUSH2 0x3617 JUMP JUMPDEST SWAP3 POP POP PUSH1 0x80 DUP7 ADD CALLDATALOAD PUSH8 0xFFFFFFFFFFFFFFFF DUP2 GT ISZERO PUSH2 0x396D JUMPI PUSH1 0x0 DUP1 REVERT JUMPDEST PUSH2 0x3979 DUP9 DUP3 DUP10 ADD PUSH2 0x3617 JUMP JUMPDEST SWAP2 POP POP SWAP3 SWAP6 POP SWAP3 SWAP6 SWAP1 SWAP4 POP JUMP JUMPDEST PUSH1 0x0 DUP1 PUSH1 0x0 DUP1 PUSH1 0x0 DUP1 PUSH1 0x0 DUP1 PUSH1 0x0 DUP1 PUSH2 0x140 DUP12 DUP14 SUB SLT ISZERO PUSH2 0x39A6 JUMPI PUSH1 0x0 DUP1 REVERT JUMPDEST PUSH1 0x0 DUP12 ADD CALLDATALOAD PUSH8 0xFFFFFFFFFFFFFFFF DUP2 GT ISZERO PUSH2 0x39C0 JUMPI PUSH1 0x0 DUP1 REVERT JUMPDEST PUSH2 0x39CC DUP14 DUP3 DUP15 ADD PUSH2 0x3617 JUMP JUMPDEST SWAP11 POP POP PUSH1 0x20 DUP12 ADD CALLDATALOAD PUSH8 0xFFFFFFFFFFFFFFFF DUP2 GT ISZERO PUSH2 0x39E9 JUMPI PUSH1 0x0 DUP1 REVERT JUMPDEST PUSH2 0x39F5 DUP14 DUP3 DUP15 ADD PUSH2 0x3617 JUMP JUMPDEST SWAP10 POP POP PUSH1 0x40 DUP12 ADD CALLDATALOAD PUSH8 0xFFFFFFFFFFFFFFFF DUP2 GT ISZERO PUSH2 0x3A12 JUMPI PUSH1 0x0 DUP1 REVERT JUMPDEST PUSH2 0x3A1E DUP14 DUP3 DUP15 ADD PUSH2 0x3617 JUMP JUMPDEST SWAP9 POP POP PUSH1 0x60 DUP12 ADD CALLDATALOAD PUSH8 0xFFFFFFFFFFFFFFFF DUP2 GT ISZERO PUSH2 0x3A3B JUMPI PUSH1 0x0 DUP1 REVERT JUMPDEST PUSH2 0x3A47 DUP14 DUP3 DUP15 ADD PUSH2 0x3617 JUMP JUMPDEST SWAP8 POP POP PUSH1 0x80 DUP12 ADD CALLDATALOAD PUSH8 0xFFFFFFFFFFFFFFFF DUP2 GT ISZERO PUSH2 0x3A64 JUMPI PUSH1 0x0 DUP1 REVERT JUMPDEST PUSH2 0x3A70 DUP14 DUP3 DUP15 ADD PUSH2 0x3617 JUMP JUMPDEST SWAP7 POP POP PUSH1 0xA0 DUP12 ADD CALLDATALOAD PUSH8 0xFFFFFFFFFFFFFFFF DUP2 GT ISZERO PUSH2 0x3A8D JUMPI PUSH1 0x0 DUP1 REVERT JUMPDEST PUSH2 0x3A99 DUP14 DUP3 DUP15 ADD PUSH2 0x3617 JUMP JUMPDEST SWAP6 POP POP PUSH1 0xC0 DUP12 ADD CALLDATALOAD PUSH8 0xFFFFFFFFFFFFFFFF DUP2 GT ISZERO PUSH2 0x3AB6 JUMPI PUSH1 0x0 DUP1 REVERT JUMPDEST PUSH2 0x3AC2 DUP14 DUP3 DUP15 ADD PUSH2 0x3617 JUMP JUMPDEST SWAP5 POP POP PUSH1 0xE0 DUP12 ADD CALLDATALOAD PUSH8 0xFFFFFFFFFFFFFFFF DUP2 GT ISZERO PUSH2 0x3ADF JUMPI PUSH1 0x0 DUP1 REVERT JUMPDEST PUSH2 0x3AEB DUP14 DUP3 DUP15 ADD PUSH2 0x3617 JUMP JUMPDEST SWAP4 POP POP PUSH2 0x100 DUP12 ADD CALLDATALOAD PUSH8 0xFFFFFFFFFFFFFFFF DUP2 GT ISZERO PUSH2 0x3B09 JUMPI PUSH1 0x0 DUP1 REVERT JUMPDEST PUSH2 0x3B15 DUP14 DUP3 DUP15 ADD PUSH2 0x3617 JUMP JUMPDEST SWAP3 POP POP PUSH2 0x120 DUP12 ADD CALLDATALOAD PUSH8 0xFFFFFFFFFFFFFFFF DUP2 GT ISZERO PUSH2 0x3B33 JUMPI PUSH1 0x0 DUP1 REVERT JUMPDEST PUSH2 0x3B3F DUP14 DUP3 DUP15 ADD PUSH2 0x3617 JUMP JUMPDEST SWAP2 POP POP SWAP3 SWAP6 SWAP9 SWAP12 SWAP2 SWAP5 SWAP8 SWAP11 POP SWAP3 SWAP6 SWAP9 POP JUMP JUMPDEST PUSH2 0x3B5A DUP2 PUSH2 0x4008 JUMP JUMPDEST DUP3 MSTORE POP POP JUMP JUMPDEST PUSH1 0x0 PUSH2 0x3B6B DUP3 PUSH2 0x3FDA JUMP JUMPDEST DUP1 DUP5 MSTORE PUSH1 0x20 DUP5 ADD SWAP4 POP DUP4 PUSH1 0x20 DUP3 MUL DUP6 ADD PUSH2 0x3B84 DUP6 PUSH2 0x3FCD JUMP JUMPDEST PUSH1 0x0 JUMPDEST DUP5 DUP2 LT ISZERO PUSH2 0x3BBD JUMPI DUP4 DUP4 SUB DUP9 MSTORE PUSH2 0x3B9F DUP4 DUP4 MLOAD PUSH2 0x3C22 JUMP JUMPDEST SWAP3 POP PUSH2 0x3BAA DUP3 PUSH2 0x3FFB JUMP JUMPDEST SWAP2 POP PUSH1 0x20 DUP9 ADD SWAP8 POP PUSH1 0x1 DUP2 ADD SWAP1 POP PUSH2 0x3B87 JUMP JUMPDEST POP DUP2 SWAP7 POP DUP7 SWAP5 POP POP POP POP POP SWAP3 SWAP2 POP POP JUMP JUMPDEST PUSH2 0x3BD7 DUP2 PUSH2 0x401A JUMP JUMPDEST DUP3 MSTORE POP POP JUMP JUMPDEST PUSH2 0x3BE6 DUP2 PUSH2 0x4026 JUMP JUMPDEST DUP3 MSTORE POP POP JUMP JUMPDEST PUSH1 0x0 PUSH2 0x3BF7 DUP3 PUSH2 0x3FF0 JUMP JUMPDEST DUP1 DUP5 MSTORE PUSH2 0x3C0B DUP2 PUSH1 0x20 DUP7 ADD PUSH1 0x20 DUP7 ADD PUSH2 0x407D JUMP JUMPDEST PUSH2 0x3C14 DUP2 PUSH2 0x40B0 JUMP JUMPDEST PUSH1 0x20 DUP6 ADD ADD SWAP2 POP POP SWAP3 SWAP2 POP POP JUMP JUMPDEST PUSH1 0x0 PUSH2 0x3C2D DUP3 PUSH2 0x3FE5 JUMP JUMPDEST DUP1 DUP5 MSTORE PUSH2 0x3C41 DUP2 PUSH1 0x20 DUP7 ADD PUSH1 0x20 DUP7 ADD PUSH2 0x407D JUMP JUMPDEST PUSH2 0x3C4A DUP2 PUSH2 0x40B0 JUMP JUMPDEST PUSH1 0x20 DUP6 ADD ADD SWAP2 POP POP SWAP3 SWAP2 POP POP JUMP JUMPDEST PUSH1 0x0 PUSH1 0x80 DUP4 ADD PUSH1 0x0 DUP4 ADD MLOAD DUP5 DUP3 SUB PUSH1 0x0 DUP7 ADD MSTORE PUSH2 0x3C75 DUP3 DUP3 PUSH2 0x3B60 JUMP JUMPDEST SWAP2 POP POP PUSH1 0x20 DUP4 ADD MLOAD DUP5 DUP3 SUB PUSH1 0x20 DUP7 ADD MSTORE PUSH2 0x3C8F DUP3 DUP3 PUSH2 0x3B60 JUMP JUMPDEST SWAP2 POP POP PUSH1 0x40 DUP4 ADD MLOAD DUP5 DUP3 SUB PUSH1 0x40 DUP7 ADD MSTORE PUSH2 0x3CA9 DUP3 DUP3 PUSH2 0x3B60 JUMP JUMPDEST SWAP2 POP POP PUSH1 0x60 DUP4 ADD MLOAD DUP5 DUP3 SUB PUSH1 0x60 DUP7 ADD MSTORE PUSH2 0x3CC3 DUP3 DUP3 PUSH2 0x3B60 JUMP JUMPDEST SWAP2 POP POP DUP1 SWAP2 POP POP SWAP3 SWAP2 POP POP JUMP JUMPDEST PUSH1 0x0 PUSH2 0x100 DUP4 ADD PUSH1 0x0 DUP4 ADD MLOAD DUP5 DUP3 SUB PUSH1 0x0 DUP7 ADD MSTORE PUSH2 0x3CEE DUP3 DUP3 PUSH2 0x3C22 JUMP JUMPDEST SWAP2 POP POP PUSH1 0x20 DUP4 ADD MLOAD DUP5 DUP3 SUB PUSH1 0x20 DUP7 ADD MSTORE PUSH2 0x3D08 DUP3 DUP3 PUSH2 0x3C22 JUMP JUMPDEST SWAP2 POP POP PUSH1 0x40 DUP4 ADD MLOAD DUP5 DUP3 SUB PUSH1 0x40 DUP7 ADD MSTORE PUSH2 0x3D22 DUP3 DUP3 PUSH2 0x3C22 JUMP JUMPDEST SWAP2 POP POP PUSH1 0x60 DUP4 ADD MLOAD DUP5 DUP3 SUB PUSH1 0x60 DUP7 ADD MSTORE PUSH2 0x3D3C DUP3 DUP3 PUSH2 0x3C22 JUMP JUMPDEST SWAP2 POP POP PUSH1 0x80 DUP4 ADD MLOAD PUSH2 0x3D51 PUSH1 0x80 DUP7 ADD DUP3 PUSH2 0x3BDD JUMP JUMPDEST POP PUSH1 0xA0 DUP4 ADD MLOAD DUP5 DUP3 SUB PUSH1 0xA0 DUP7 ADD MSTORE PUSH2 0x3D69 DUP3 DUP3 PUSH2 0x3C22 JUMP JUMPDEST SWAP2 POP POP PUSH1 0xC0 DUP4 ADD MLOAD DUP5 DUP3 SUB PUSH1 0xC0 DUP7 ADD MSTORE PUSH2 0x3D83 DUP3 DUP3 PUSH2 0x3C22 JUMP JUMPDEST SWAP2 POP POP PUSH1 0xE0 DUP4 ADD MLOAD DUP5 DUP3 SUB PUSH1 0xE0 DUP7 ADD MSTORE PUSH2 0x3D9D DUP3 DUP3 PUSH2 0x3C22 JUMP JUMPDEST SWAP2 POP POP DUP1 SWAP2 POP POP SWAP3 SWAP2 POP POP JUMP JUMPDEST PUSH1 0x0 PUSH2 0x100 DUP4 ADD PUSH1 0x0 DUP4 ADD MLOAD DUP5 DUP3 SUB PUSH1 0x0 DUP7 ADD MSTORE PUSH2 0x3DC8 DUP3 DUP3 PUSH2 0x3C22 JUMP JUMPDEST SWAP2 POP POP PUSH1 0x20 DUP4 ADD MLOAD DUP5 DUP3 SUB PUSH1 0x20 DUP7 ADD MSTORE PUSH2 0x3DE2 DUP3 DUP3 PUSH2 0x3C22 JUMP JUMPDEST SWAP2 POP POP PUSH1 0x40 DUP4 ADD MLOAD DUP5 DUP3 SUB PUSH1 0x40 DUP7 ADD MSTORE PUSH2 0x3DFC DUP3 DUP3 PUSH2 0x3C22 JUMP JUMPDEST SWAP2 POP POP PUSH1 0x60 DUP4 ADD MLOAD DUP5 DUP3 SUB PUSH1 0x60 DUP7 ADD MSTORE PUSH2 0x3E16 DUP3 DUP3 PUSH2 0x3C22 JUMP JUMPDEST SWAP2 POP POP PUSH1 0x80 DUP4 ADD MLOAD DUP5 DUP3 SUB PUSH1 0x80 DUP7 ADD MSTORE PUSH2 0x3E30 DUP3 DUP3 PUSH2 0x3C22 JUMP JUMPDEST SWAP2 POP POP PUSH1 0xA0 DUP4 ADD MLOAD DUP5 DUP3 SUB PUSH1 0xA0 DUP7 ADD MSTORE PUSH2 0x3E4A DUP3 DUP3 PUSH2 0x3C22 JUMP JUMPDEST SWAP2 POP POP PUSH1 0xC0 DUP4 ADD MLOAD DUP5 DUP3 SUB PUSH1 0xC0 DUP7 ADD MSTORE PUSH2 0x3E64 DUP3 DUP3 PUSH2 0x3C22 JUMP JUMPDEST SWAP2 POP POP PUSH1 0xE0 DUP4 ADD MLOAD DUP5 DUP3 SUB PUSH1 0xE0 DUP7 ADD MSTORE PUSH2 0x3E7E DUP3 DUP3 PUSH2 0x3C22 JUMP JUMPDEST SWAP2 POP POP DUP1 SWAP2 POP POP SWAP3 SWAP2 POP POP JUMP JUMPDEST PUSH1 0x0 PUSH1 0x20 DUP3 ADD SWAP1 POP PUSH2 0x3EA0 PUSH1 0x0 DUP4 ADD DUP5 PUSH2 0x3B51 JUMP JUMPDEST SWAP3 SWAP2 POP POP JUMP JUMPDEST PUSH1 0x0 PUSH1 0x20 DUP3 ADD SWAP1 POP PUSH2 0x3EBB PUSH1 0x0 DUP4 ADD DUP5 PUSH2 0x3BCE JUMP JUMPDEST SWAP3 SWAP2 POP POP JUMP JUMPDEST PUSH1 0x0 PUSH1 0x80 DUP3 ADD SWAP1 POP PUSH2 0x3ED6 PUSH1 0x0 DUP4 ADD DUP8 PUSH2 0x3BCE JUMP JUMPDEST DUP2 DUP2 SUB PUSH1 0x20 DUP4 ADD MSTORE PUSH2 0x3EE8 DUP2 DUP7 PUSH2 0x3CD0 JUMP JUMPDEST SWAP1 POP DUP2 DUP2 SUB PUSH1 0x40 DUP4 ADD MSTORE PUSH2 0x3EFC DUP2 DUP6 PUSH2 0x3DAA JUMP JUMPDEST SWAP1 POP DUP2 DUP2 SUB PUSH1 0x60 DUP4 ADD MSTORE PUSH2 0x3F10 DUP2 DUP5 PUSH2 0x3C58 JUMP JUMPDEST SWAP1 POP SWAP6 SWAP5 POP POP POP POP POP JUMP JUMPDEST PUSH1 0x0 PUSH1 0x20 DUP3 ADD SWAP1 POP DUP2 DUP2 SUB PUSH1 0x0 DUP4 ADD MSTORE PUSH2 0x3F35 DUP2 DUP5 PUSH2 0x3BEC JUMP JUMPDEST SWAP1 POP SWAP3 SWAP2 POP POP JUMP JUMPDEST PUSH1 0x0 PUSH1 0x40 DUP3 ADD SWAP1 POP DUP2 DUP2 SUB PUSH1 0x0 DUP4 ADD MSTORE PUSH2 0x3F57 DUP2 DUP6 PUSH2 0x3BEC JUMP JUMPDEST SWAP1 POP DUP2 DUP2 SUB PUSH1 0x20 DUP4 ADD MSTORE PUSH2 0x3F6B DUP2 DUP5 PUSH2 0x3BEC JUMP JUMPDEST SWAP1 POP SWAP4 SWAP3 POP POP POP JUMP JUMPDEST PUSH1 0x0 PUSH1 0x40 MLOAD SWAP1 POP DUP2 DUP2 ADD DUP2 DUP2 LT PUSH8 0xFFFFFFFFFFFFFFFF DUP3 GT OR ISZERO PUSH2 0x3F97 JUMPI PUSH1 0x0 DUP1 REVERT JUMPDEST DUP1 PUSH1 0x40 MSTORE POP SWAP2 SWAP1 POP JUMP JUMPDEST PUSH1 0x0 PUSH8 0xFFFFFFFFFFFFFFFF DUP3 GT ISZERO PUSH2 0x3FB8 JUMPI PUSH1 0x0 DUP1 REVERT JUMPDEST PUSH1 0x1F NOT PUSH1 0x1F DUP4 ADD AND SWAP1 POP PUSH1 0x20 DUP2 ADD SWAP1 POP SWAP2 SWAP1 POP JUMP JUMPDEST PUSH1 0x0 PUSH1 0x20 DUP3 ADD SWAP1 POP SWAP2 SWAP1 POP JUMP JUMPDEST PUSH1 0x0 DUP2 MLOAD SWAP1 POP SWAP2 SWAP1 POP JUMP JUMPDEST PUSH1 0x0 DUP2 MLOAD SWAP1 POP SWAP2 SWAP1 POP JUMP JUMPDEST PUSH1 0x0 DUP2 MLOAD SWAP1 POP SWAP2 SWAP1 POP JUMP JUMPDEST PUSH1 0x0 PUSH1 0x20 DUP3 ADD SWAP1 POP SWAP2 SWAP1 POP JUMP JUMPDEST PUSH1 0x0 PUSH2 0x4013 DUP3 PUSH2 0x4030 JUMP JUMPDEST SWAP1 POP SWAP2 SWAP1 POP JUMP JUMPDEST PUSH1 0x0 DUP2 ISZERO ISZERO SWAP1 POP SWAP2 SWAP1 POP JUMP JUMPDEST PUSH1 0x0 DUP2 SWAP1 POP SWAP2 SWAP1 POP JUMP JUMPDEST PUSH1 0x0 PUSH20 0xFFFFFFFFFFFFFFFFFFFFFFFFFFFFFFFFFFFFFFFF DUP3 AND SWAP1 POP SWAP2 SWAP1 POP JUMP JUMPDEST PUSH1 0x0 PUSH2 0x405B DUP3 PUSH2 0x4030 JUMP JUMPDEST SWAP1 POP SWAP2 SWAP1 POP JUMP JUMPDEST PUSH1 0x0 DUP2 ISZERO ISZERO SWAP1 POP SWAP2 SWAP1 POP JUMP JUMPDEST DUP3 DUP2 DUP4 CALLDATACOPY PUSH1 0x0 DUP4 DUP4 ADD MSTORE POP POP POP JUMP JUMPDEST PUSH1 0x0 JUMPDEST DUP4 DUP2 LT ISZERO PUSH2 0x409B JUMPI DUP1 DUP3 ADD MLOAD DUP2 DUP5 ADD MSTORE PUSH1 0x20 DUP2 ADD SWAP1 POP PUSH2 0x4080 JUMP JUMPDEST DUP4 DUP2 GT ISZERO PUSH2 0x40AA JUMPI PUSH1 0x0 DUP5 DUP5 ADD MSTORE JUMPDEST POP POP POP POP JUMP JUMPDEST PUSH1 0x0 PUSH1 0x1F NOT PUSH1 0x1F DUP4 ADD AND SWAP1 POP SWAP2 SWAP1 POP JUMP INVALID LOG2 PUSH6 0x627A7A723058 KECCAK256 0xdb DELEGATECALL ADD DUP9 PUSH16 0xD87F67790C85C7F79B93272FE77C64DC CALLDATALOAD 0x47 REVERT 0xde BLOCKHASH PUSH29 0x33929CF2DB6C6578706572696D656E74616CF50037A265627A7A723058 KECCAK256 0xa6 PUSH24 0xF694341E901E53D4CACCB31372EDB3AF84E49C2BC7B8F0F 0xc1 0x4f PUSH16 0x5D2906C6578706572696D656E74616C CREATE2 STOP CALLDATACOPY "
    },
    "gasEstimates": {
      "creation": {
        "codeDepositCost": "4472400",
        "executionCost": "5199",
        "totalCost": "4477599"
      },
      "external": {
        "addDoctor(int256,string,string)": "infinite",
        "check(address)": "920",
        "createMedicalRecord(string,string,string,string,int256,string,string,string,string,string)": "infinite",
        "getAddress(int256)": "958",
        "getDoctorAddress(int256)": "962",
        "isDoctor(address)": "990",
        "map(address)": "infinite"
      }
    },
    "methodIdentifiers": {
      "addDoctor(int256,string,string)": "5e44b1f6",
      "check(address)": "c23697a8",
      "createMedicalRecord(string,string,string,string,int256,string,string,string,string,string)": "9a62bbee",
      "getAddress(int256)": "f9c40920",
      "getDoctorAddress(int256)": "ca3a82bb",
      "isDoctor(address)": "996440c6",
      "map(address)": "b721ef6e"
    }
  },
  "userdoc": {
    "methods": {}
  }
}