{
  "abi": [
    {
      "constant": true,
      "inputs": [],
      "name": "getData",
      "outputs": [
        {
          "name": "",
          "type": "address"
        },
        {
          "name": "",
          "type": "address"
        },
        {
          "name": "",
          "type": "string"
        },
        {
          "name": "",
          "type": "int256"
        },
        {
          "name": "",
          "type": "string"
        },
        {
          "name": "",
          "type": "string"
        },
        {
          "name": "",
          "type": "int256"
        },
        {
          "components": [
            {
              "name": "ownerAdd",
              "type": "address"
            },
            {
              "name": "selfAdd",
              "type": "address"
            },
            {
              "name": "title",
              "type": "string"
            },
            {
              "name": "details",
              "type": "string"
            },
            {
              "name": "doctor",
              "type": "bool"
            },
            {
              "name": "owner",
              "type": "bool"
            },
            {
              "name": "bills",
              "type": "string"
            },
            {
              "name": "index",
              "type": "uint256"
            },
            {
              "name": "finalize",
              "type": "bool"
            },
            {
              "name": "pendingRequestsIndex",
              "type": "uint256"
            }
          ],
          "name": "",
          "type": "tuple[]"
        }
      ],
      "payable": false,
      "stateMutability": "view",
      "type": "function"
    },
    {
      "constant": false,
      "inputs": [
        {
          "name": "index",
          "type": "uint256"
        },
        {
          "name": "add",
          "type": "address"
        },
        {
          "name": "flag",
          "type": "bool"
        }
      ],
      "name": "finalizeRequest",
      "outputs": [],
      "payable": false,
      "stateMutability": "nonpayable",
      "type": "function"
    },
    {
      "constant": false,
      "inputs": [
        {
          "name": "fileHash",
          "type": "string"
        },
        {
          "name": "titlee",
          "type": "string"
        },
        {
          "name": "detailss",
          "type": "string"
        }
      ],
      "name": "applyClaim",
      "outputs": [],
      "payable": false,
      "stateMutability": "nonpayable",
      "type": "function"
    },
    {
      "inputs": [
        {
          "name": "ownerrr",
          "type": "address"
        },
        {
          "name": "namee",
          "type": "string"
        },
        {
          "name": "aadharr",
          "type": "int256"
        },
        {
          "name": "amountt",
          "type": "int256"
        },
        {
          "name": "insDetailss",
          "type": "string"
        },
        {
          "name": "documentss",
          "type": "string"
        }
      ],
      "payable": false,
      "stateMutability": "nonpayable",
      "type": "constructor"
    },
    {
      "anonymous": false,
      "inputs": [],
      "name": "ChangeOccured",
      "type": "event"
    }
  ],
  "devdoc": {
    "methods": {}
  },
  "evm": {
    "assembly": "    /* \"background.sol\":15616:17982  contract Insurance {\r... */\n  mstore(0x40, 0x80)\n    /* \"background.sol\":16121:16123  -1 */\n  0xffffffffffffffffffffffffffffffffffffffffffffffffffffffffffffffff\n    /* \"background.sol\":16101:16123  int requestsCount = -1 */\n  0x07\n  sstore\n    /* \"background.sol\":16157:16511  constructor(address ownerrr, string memory namee, int aadharr, int amountt, string memory insDetailss, string memory documentss) public {\r... */\n  callvalue\n    /* \"--CODEGEN--\":8:17   */\n  dup1\n    /* \"--CODEGEN--\":5:7   */\n  iszero\n  tag_1\n  jumpi\n    /* \"--CODEGEN--\":30:31   */\n  0x00\n    /* \"--CODEGEN--\":27:28   */\n  dup1\n    /* \"--CODEGEN--\":20:32   */\n  revert\n    /* \"--CODEGEN--\":5:7   */\ntag_1:\n    /* \"background.sol\":16157:16511  constructor(address ownerrr, string memory namee, int aadharr, int amountt, string memory insDetailss, string memory documentss) public {\r... */\n  pop\n  mload(0x40)\n  sub(codesize, bytecodeSize)\n  dup1\n  bytecodeSize\n  dup4\n  codecopy\n  dup2\n  add\n  dup1\n  0x40\n  mstore\n  tag_2\n  swap2\n  swap1\n  dup2\n  add\n  swap1\n  jump(tag_3)\ntag_2:\n    /* \"background.sol\":16326:16330  this */\n  address\n    /* \"background.sol\":16304:16315  selfAddress */\n  0x00\n  dup1\n    /* \"background.sol\":16304:16331  selfAddress = address(this) */\n  0x0100\n  exp\n  dup2\n  sload\n  dup2\n  0xffffffffffffffffffffffffffffffffffffffff\n  mul\n  not\n  and\n  swap1\n  dup4\n  0xffffffffffffffffffffffffffffffffffffffff\n  and\n  mul\n  or\n  swap1\n  sstore\n  pop\n    /* \"background.sol\":16351:16358  ownerrr */\n  dup6\n    /* \"background.sol\":16342:16348  ownerr */\n  0x01\n  0x00\n    /* \"background.sol\":16342:16358  ownerr = ownerrr */\n  0x0100\n  exp\n  dup2\n  sload\n  dup2\n  0xffffffffffffffffffffffffffffffffffffffff\n  mul\n  not\n  and\n  swap1\n  dup4\n  0xffffffffffffffffffffffffffffffffffffffff\n  and\n  mul\n  or\n  swap1\n  sstore\n  pop\n    /* \"background.sol\":16376:16381  namee */\n  dup5\n    /* \"background.sol\":16369:16373  name */\n  0x02\n    /* \"background.sol\":16369:16381  name = namee */\n  swap1\n  dup1\n  mload\n  swap1\n  0x20\n  add\n  swap1\n  tag_6\n  swap3\n  swap2\n  swap1\n  tag_7\n  jump\t// in\ntag_6:\n  pop\n    /* \"background.sol\":16405:16416  insDetailss */\n  dup2\n    /* \"background.sol\":16392:16402  insDetails */\n  0x04\n    /* \"background.sol\":16392:16416  insDetails = insDetailss */\n  swap1\n  dup1\n  mload\n  swap1\n  0x20\n  add\n  swap1\n  tag_8\n  swap3\n  swap2\n  swap1\n  tag_7\n  jump\t// in\ntag_8:\n  pop\n    /* \"background.sol\":16439:16449  documentss */\n  dup1\n    /* \"background.sol\":16427:16436  documents */\n  0x05\n    /* \"background.sol\":16427:16449  documents = documentss */\n  swap1\n  dup1\n  mload\n  swap1\n  0x20\n  add\n  swap1\n  tag_9\n  swap3\n  swap2\n  swap1\n  tag_7\n  jump\t// in\ntag_9:\n  pop\n    /* \"background.sol\":16469:16476  aadharr */\n  dup4\n    /* \"background.sol\":16460:16466  aadhar */\n  0x03\n    /* \"background.sol\":16460:16476  aadhar = aadharr */\n  dup2\n  swap1\n  sstore\n  pop\n    /* \"background.sol\":16496:16503  amountt */\n  dup3\n    /* \"background.sol\":16487:16493  amount */\n  0x06\n    /* \"background.sol\":16487:16503  amount = amountt */\n  dup2\n  swap1\n  sstore\n  pop\n    /* \"background.sol\":16157:16511  constructor(address ownerrr, string memory namee, int aadharr, int amountt, string memory insDetailss, string memory documentss) public {\r... */\n  pop\n  pop\n  pop\n  pop\n  pop\n  pop\n    /* \"background.sol\":15616:17982  contract Insurance {\r... */\n  jump(tag_10)\ntag_7:\n  dup3\n  dup1\n  sload\n  0x01\n  dup2\n  0x01\n  and\n  iszero\n  0x0100\n  mul\n  sub\n  and\n  0x02\n  swap1\n  div\n  swap1\n  0x00\n  mstore\n  keccak256(0x00, 0x20)\n  swap1\n  0x1f\n  add\n  0x20\n  swap1\n  div\n  dup2\n  add\n  swap3\n  dup3\n  0x1f\n  lt\n  tag_12\n  jumpi\n  dup1\n  mload\n  not(0xff)\n  and\n  dup4\n  dup1\n  add\n  or\n  dup6\n  sstore\n  jump(tag_11)\ntag_12:\n  dup3\n  dup1\n  add\n  0x01\n  add\n  dup6\n  sstore\n  dup3\n  iszero\n  tag_11\n  jumpi\n  swap2\n  dup3\n  add\ntag_13:\n  dup3\n  dup2\n  gt\n  iszero\n  tag_14\n  jumpi\n  dup3\n  mload\n  dup3\n  sstore\n  swap2\n  0x20\n  add\n  swap2\n  swap1\n  0x01\n  add\n  swap1\n  jump(tag_13)\ntag_14:\ntag_11:\n  pop\n  swap1\n  pop\n  tag_15\n  swap2\n  swap1\n  tag_16\n  jump\t// in\ntag_15:\n  pop\n  swap1\n  jump\t// out\ntag_16:\n  tag_17\n  swap2\n  swap1\ntag_18:\n  dup1\n  dup3\n  gt\n  iszero\n  tag_19\n  jumpi\n  0x00\n  dup2\n  0x00\n  swap1\n  sstore\n  pop\n  0x01\n  add\n  jump(tag_18)\ntag_19:\n  pop\n  swap1\n  jump\ntag_17:\n  swap1\n  jump\t// out\n    /* \"--CODEGEN--\":5:127   */\ntag_21:\n  0x00\n    /* \"--CODEGEN--\":83:122   */\n  tag_22\n    /* \"--CODEGEN--\":114:120   */\n  dup3\n    /* \"--CODEGEN--\":108:121   */\n  mload\n    /* \"--CODEGEN--\":83:122   */\n  jump(tag_23)\ntag_22:\n    /* \"--CODEGEN--\":74:122   */\n  swap1\n  pop\n    /* \"--CODEGEN--\":68:127   */\n  swap3\n  swap2\n  pop\n  pop\n  jump\n    /* \"--CODEGEN--\":134:254   */\ntag_25:\n  0x00\n    /* \"--CODEGEN--\":211:249   */\n  tag_26\n    /* \"--CODEGEN--\":241:247   */\n  dup3\n    /* \"--CODEGEN--\":235:248   */\n  mload\n    /* \"--CODEGEN--\":211:249   */\n  jump(tag_27)\ntag_26:\n    /* \"--CODEGEN--\":202:249   */\n  swap1\n  pop\n    /* \"--CODEGEN--\":196:254   */\n  swap3\n  swap2\n  pop\n  pop\n  jump\n    /* \"--CODEGEN--\":262:706   */\ntag_29:\n  0x00\n    /* \"--CODEGEN--\":375:378   */\n  dup3\n    /* \"--CODEGEN--\":368:372   */\n  0x1f\n    /* \"--CODEGEN--\":360:366   */\n  dup4\n    /* \"--CODEGEN--\":356:373   */\n  add\n    /* \"--CODEGEN--\":352:379   */\n  slt\n    /* \"--CODEGEN--\":345:380   */\n  iszero\n    /* \"--CODEGEN--\":342:344   */\n  iszero\n  tag_30\n  jumpi\n    /* \"--CODEGEN--\":393:394   */\n  0x00\n    /* \"--CODEGEN--\":390:391   */\n  dup1\n    /* \"--CODEGEN--\":383:395   */\n  revert\n    /* \"--CODEGEN--\":342:344   */\ntag_30:\n    /* \"--CODEGEN--\":423:429   */\n  dup2\n    /* \"--CODEGEN--\":417:430   */\n  mload\n    /* \"--CODEGEN--\":445:510   */\n  tag_31\n    /* \"--CODEGEN--\":460:509   */\n  tag_32\n    /* \"--CODEGEN--\":502:508   */\n  dup3\n    /* \"--CODEGEN--\":460:509   */\n  jump(tag_33)\ntag_32:\n    /* \"--CODEGEN--\":445:510   */\n  jump(tag_34)\ntag_31:\n    /* \"--CODEGEN--\":436:510   */\n  swap2\n  pop\n    /* \"--CODEGEN--\":530:536   */\n  dup1\n    /* \"--CODEGEN--\":523:528   */\n  dup3\n    /* \"--CODEGEN--\":516:537   */\n  mstore\n    /* \"--CODEGEN--\":566:570   */\n  0x20\n    /* \"--CODEGEN--\":558:564   */\n  dup4\n    /* \"--CODEGEN--\":554:571   */\n  add\n    /* \"--CODEGEN--\":599:603   */\n  0x20\n    /* \"--CODEGEN--\":592:597   */\n  dup4\n    /* \"--CODEGEN--\":588:604   */\n  add\n    /* \"--CODEGEN--\":634:637   */\n  dup6\n    /* \"--CODEGEN--\":625:631   */\n  dup4\n    /* \"--CODEGEN--\":620:623   */\n  dup4\n    /* \"--CODEGEN--\":616:632   */\n  add\n    /* \"--CODEGEN--\":613:638   */\n  gt\n    /* \"--CODEGEN--\":610:612   */\n  iszero\n  tag_35\n  jumpi\n    /* \"--CODEGEN--\":651:652   */\n  0x00\n    /* \"--CODEGEN--\":648:649   */\n  dup1\n    /* \"--CODEGEN--\":641:653   */\n  revert\n    /* \"--CODEGEN--\":610:612   */\ntag_35:\n    /* \"--CODEGEN--\":661:700   */\n  tag_36\n    /* \"--CODEGEN--\":693:699   */\n  dup4\n    /* \"--CODEGEN--\":688:691   */\n  dup3\n    /* \"--CODEGEN--\":683:686   */\n  dup5\n    /* \"--CODEGEN--\":661:700   */\n  jump(tag_37)\ntag_36:\n    /* \"--CODEGEN--\":335:706   */\n  pop\n  pop\n  pop\n  swap3\n  swap2\n  pop\n  pop\n  jump\n    /* \"--CODEGEN--\":714:1953   */\ntag_3:\n  0x00\n  dup1\n  0x00\n  dup1\n  0x00\n  dup1\n    /* \"--CODEGEN--\":942:945   */\n  0xc0\n    /* \"--CODEGEN--\":930:939   */\n  dup8\n    /* \"--CODEGEN--\":921:928   */\n  dup10\n    /* \"--CODEGEN--\":917:940   */\n  sub\n    /* \"--CODEGEN--\":913:946   */\n  slt\n    /* \"--CODEGEN--\":910:912   */\n  iszero\n  tag_39\n  jumpi\n    /* \"--CODEGEN--\":959:960   */\n  0x00\n    /* \"--CODEGEN--\":956:957   */\n  dup1\n    /* \"--CODEGEN--\":949:961   */\n  revert\n    /* \"--CODEGEN--\":910:912   */\ntag_39:\n    /* \"--CODEGEN--\":994:995   */\n  0x00\n    /* \"--CODEGEN--\":1011:1075   */\n  tag_40\n    /* \"--CODEGEN--\":1067:1074   */\n  dup10\n    /* \"--CODEGEN--\":1058:1064   */\n  dup3\n    /* \"--CODEGEN--\":1047:1056   */\n  dup11\n    /* \"--CODEGEN--\":1043:1065   */\n  add\n    /* \"--CODEGEN--\":1011:1075   */\n  jump(tag_21)\ntag_40:\n    /* \"--CODEGEN--\":1001:1075   */\n  swap7\n  pop\n    /* \"--CODEGEN--\":973:1081   */\n  pop\n    /* \"--CODEGEN--\":1133:1135   */\n  0x20\n    /* \"--CODEGEN--\":1122:1131   */\n  dup8\n    /* \"--CODEGEN--\":1118:1136   */\n  add\n    /* \"--CODEGEN--\":1112:1137   */\n  mload\n    /* \"--CODEGEN--\":1157:1175   */\n  0xffffffffffffffff\n    /* \"--CODEGEN--\":1149:1155   */\n  dup2\n    /* \"--CODEGEN--\":1146:1176   */\n  gt\n    /* \"--CODEGEN--\":1143:1145   */\n  iszero\n  tag_41\n  jumpi\n    /* \"--CODEGEN--\":1189:1190   */\n  0x00\n    /* \"--CODEGEN--\":1186:1187   */\n  dup1\n    /* \"--CODEGEN--\":1179:1191   */\n  revert\n    /* \"--CODEGEN--\":1143:1145   */\ntag_41:\n    /* \"--CODEGEN--\":1209:1283   */\n  tag_42\n    /* \"--CODEGEN--\":1275:1282   */\n  dup10\n    /* \"--CODEGEN--\":1266:1272   */\n  dup3\n    /* \"--CODEGEN--\":1255:1264   */\n  dup11\n    /* \"--CODEGEN--\":1251:1273   */\n  add\n    /* \"--CODEGEN--\":1209:1283   */\n  jump(tag_29)\ntag_42:\n    /* \"--CODEGEN--\":1199:1283   */\n  swap6\n  pop\n    /* \"--CODEGEN--\":1091:1289   */\n  pop\n    /* \"--CODEGEN--\":1320:1322   */\n  0x40\n    /* \"--CODEGEN--\":1338:1401   */\n  tag_43\n    /* \"--CODEGEN--\":1393:1400   */\n  dup10\n    /* \"--CODEGEN--\":1384:1390   */\n  dup3\n    /* \"--CODEGEN--\":1373:1382   */\n  dup11\n    /* \"--CODEGEN--\":1369:1391   */\n  add\n    /* \"--CODEGEN--\":1338:1401   */\n  jump(tag_25)\ntag_43:\n    /* \"--CODEGEN--\":1328:1401   */\n  swap5\n  pop\n    /* \"--CODEGEN--\":1299:1407   */\n  pop\n    /* \"--CODEGEN--\":1438:1440   */\n  0x60\n    /* \"--CODEGEN--\":1456:1519   */\n  tag_44\n    /* \"--CODEGEN--\":1511:1518   */\n  dup10\n    /* \"--CODEGEN--\":1502:1508   */\n  dup3\n    /* \"--CODEGEN--\":1491:1500   */\n  dup11\n    /* \"--CODEGEN--\":1487:1509   */\n  add\n    /* \"--CODEGEN--\":1456:1519   */\n  jump(tag_25)\ntag_44:\n    /* \"--CODEGEN--\":1446:1519   */\n  swap4\n  pop\n    /* \"--CODEGEN--\":1417:1525   */\n  pop\n    /* \"--CODEGEN--\":1577:1580   */\n  0x80\n    /* \"--CODEGEN--\":1566:1575   */\n  dup8\n    /* \"--CODEGEN--\":1562:1581   */\n  add\n    /* \"--CODEGEN--\":1556:1582   */\n  mload\n    /* \"--CODEGEN--\":1602:1620   */\n  0xffffffffffffffff\n    /* \"--CODEGEN--\":1594:1600   */\n  dup2\n    /* \"--CODEGEN--\":1591:1621   */\n  gt\n    /* \"--CODEGEN--\":1588:1590   */\n  iszero\n  tag_45\n  jumpi\n    /* \"--CODEGEN--\":1634:1635   */\n  0x00\n    /* \"--CODEGEN--\":1631:1632   */\n  dup1\n    /* \"--CODEGEN--\":1624:1636   */\n  revert\n    /* \"--CODEGEN--\":1588:1590   */\ntag_45:\n    /* \"--CODEGEN--\":1654:1728   */\n  tag_46\n    /* \"--CODEGEN--\":1720:1727   */\n  dup10\n    /* \"--CODEGEN--\":1711:1717   */\n  dup3\n    /* \"--CODEGEN--\":1700:1709   */\n  dup11\n    /* \"--CODEGEN--\":1696:1718   */\n  add\n    /* \"--CODEGEN--\":1654:1728   */\n  jump(tag_29)\ntag_46:\n    /* \"--CODEGEN--\":1644:1728   */\n  swap3\n  pop\n    /* \"--CODEGEN--\":1535:1734   */\n  pop\n    /* \"--CODEGEN--\":1786:1789   */\n  0xa0\n    /* \"--CODEGEN--\":1775:1784   */\n  dup8\n    /* \"--CODEGEN--\":1771:1790   */\n  add\n    /* \"--CODEGEN--\":1765:1791   */\n  mload\n    /* \"--CODEGEN--\":1811:1829   */\n  0xffffffffffffffff\n    /* \"--CODEGEN--\":1803:1809   */\n  dup2\n    /* \"--CODEGEN--\":1800:1830   */\n  gt\n    /* \"--CODEGEN--\":1797:1799   */\n  iszero\n  tag_47\n  jumpi\n    /* \"--CODEGEN--\":1843:1844   */\n  0x00\n    /* \"--CODEGEN--\":1840:1841   */\n  dup1\n    /* \"--CODEGEN--\":1833:1845   */\n  revert\n    /* \"--CODEGEN--\":1797:1799   */\ntag_47:\n    /* \"--CODEGEN--\":1863:1937   */\n  tag_48\n    /* \"--CODEGEN--\":1929:1936   */\n  dup10\n    /* \"--CODEGEN--\":1920:1926   */\n  dup3\n    /* \"--CODEGEN--\":1909:1918   */\n  dup11\n    /* \"--CODEGEN--\":1905:1927   */\n  add\n    /* \"--CODEGEN--\":1863:1937   */\n  jump(tag_29)\ntag_48:\n    /* \"--CODEGEN--\":1853:1937   */\n  swap2\n  pop\n    /* \"--CODEGEN--\":1744:1943   */\n  pop\n    /* \"--CODEGEN--\":904:1953   */\n  swap3\n  swap6\n  pop\n  swap3\n  swap6\n  pop\n  swap3\n  swap6\n  jump\n    /* \"--CODEGEN--\":1960:2216   */\ntag_34:\n  0x00\n    /* \"--CODEGEN--\":2022:2024   */\n  0x40\n    /* \"--CODEGEN--\":2016:2025   */\n  mload\n    /* \"--CODEGEN--\":2006:2025   */\n  swap1\n  pop\n    /* \"--CODEGEN--\":2060:2064   */\n  dup2\n    /* \"--CODEGEN--\":2052:2058   */\n  dup2\n    /* \"--CODEGEN--\":2048:2065   */\n  add\n    /* \"--CODEGEN--\":2159:2165   */\n  dup2\n    /* \"--CODEGEN--\":2147:2157   */\n  dup2\n    /* \"--CODEGEN--\":2144:2166   */\n  lt\n    /* \"--CODEGEN--\":2123:2141   */\n  0xffffffffffffffff\n    /* \"--CODEGEN--\":2111:2121   */\n  dup3\n    /* \"--CODEGEN--\":2108:2142   */\n  gt\n    /* \"--CODEGEN--\":2105:2167   */\n  or\n    /* \"--CODEGEN--\":2102:2104   */\n  iszero\n  tag_50\n  jumpi\n    /* \"--CODEGEN--\":2180:2181   */\n  0x00\n    /* \"--CODEGEN--\":2177:2178   */\n  dup1\n    /* \"--CODEGEN--\":2170:2182   */\n  revert\n    /* \"--CODEGEN--\":2102:2104   */\ntag_50:\n    /* \"--CODEGEN--\":2200:2210   */\n  dup1\n    /* \"--CODEGEN--\":2196:2198   */\n  0x40\n    /* \"--CODEGEN--\":2189:2211   */\n  mstore\n    /* \"--CODEGEN--\":2000:2216   */\n  pop\n  swap2\n  swap1\n  pop\n  jump\n    /* \"--CODEGEN--\":2223:2482   */\ntag_33:\n  0x00\n    /* \"--CODEGEN--\":2367:2385   */\n  0xffffffffffffffff\n    /* \"--CODEGEN--\":2359:2365   */\n  dup3\n    /* \"--CODEGEN--\":2356:2386   */\n  gt\n    /* \"--CODEGEN--\":2353:2355   */\n  iszero\n  tag_52\n  jumpi\n    /* \"--CODEGEN--\":2399:2400   */\n  0x00\n    /* \"--CODEGEN--\":2396:2397   */\n  dup1\n    /* \"--CODEGEN--\":2389:2401   */\n  revert\n    /* \"--CODEGEN--\":2353:2355   */\ntag_52:\n    /* \"--CODEGEN--\":2443:2447   */\n  0x1f\n    /* \"--CODEGEN--\":2439:2448   */\n  not\n    /* \"--CODEGEN--\":2432:2436   */\n  0x1f\n    /* \"--CODEGEN--\":2424:2430   */\n  dup4\n    /* \"--CODEGEN--\":2420:2437   */\n  add\n    /* \"--CODEGEN--\":2416:2449   */\n  and\n    /* \"--CODEGEN--\":2408:2449   */\n  swap1\n  pop\n    /* \"--CODEGEN--\":2472:2476   */\n  0x20\n    /* \"--CODEGEN--\":2466:2470   */\n  dup2\n    /* \"--CODEGEN--\":2462:2477   */\n  add\n    /* \"--CODEGEN--\":2454:2477   */\n  swap1\n  pop\n    /* \"--CODEGEN--\":2290:2482   */\n  swap2\n  swap1\n  pop\n  jump\n    /* \"--CODEGEN--\":2489:2617   */\ntag_54:\n  0x00\n    /* \"--CODEGEN--\":2569:2611   */\n  0xffffffffffffffffffffffffffffffffffffffff\n    /* \"--CODEGEN--\":2562:2567   */\n  dup3\n    /* \"--CODEGEN--\":2558:2612   */\n  and\n    /* \"--CODEGEN--\":2547:2612   */\n  swap1\n  pop\n    /* \"--CODEGEN--\":2541:2617   */\n  swap2\n  swap1\n  pop\n  jump\n    /* \"--CODEGEN--\":2624:2729   */\ntag_23:\n  0x00\n    /* \"--CODEGEN--\":2693:2724   */\n  tag_56\n    /* \"--CODEGEN--\":2718:2723   */\n  dup3\n    /* \"--CODEGEN--\":2693:2724   */\n  jump(tag_54)\ntag_56:\n    /* \"--CODEGEN--\":2682:2724   */\n  swap1\n  pop\n    /* \"--CODEGEN--\":2676:2729   */\n  swap2\n  swap1\n  pop\n  jump\n    /* \"--CODEGEN--\":2736:2814   */\ntag_27:\n  0x00\n    /* \"--CODEGEN--\":2804:2809   */\n  dup2\n    /* \"--CODEGEN--\":2793:2809   */\n  swap1\n  pop\n    /* \"--CODEGEN--\":2787:2814   */\n  swap2\n  swap1\n  pop\n  jump\n    /* \"--CODEGEN--\":2822:3090   */\ntag_37:\n    /* \"--CODEGEN--\":2887:2888   */\n  0x00\n    /* \"--CODEGEN--\":2894:2995   */\ntag_59:\n    /* \"--CODEGEN--\":2908:2914   */\n  dup4\n    /* \"--CODEGEN--\":2905:2906   */\n  dup2\n    /* \"--CODEGEN--\":2902:2915   */\n  lt\n    /* \"--CODEGEN--\":2894:2995   */\n  iszero\n  tag_60\n  jumpi\n    /* \"--CODEGEN--\":2984:2985   */\n  dup1\n    /* \"--CODEGEN--\":2979:2982   */\n  dup3\n    /* \"--CODEGEN--\":2975:2986   */\n  add\n    /* \"--CODEGEN--\":2969:2987   */\n  mload\n    /* \"--CODEGEN--\":2965:2966   */\n  dup2\n    /* \"--CODEGEN--\":2960:2963   */\n  dup5\n    /* \"--CODEGEN--\":2956:2967   */\n  add\n    /* \"--CODEGEN--\":2949:2988   */\n  mstore\n    /* \"--CODEGEN--\":2930:2932   */\n  0x20\n    /* \"--CODEGEN--\":2927:2928   */\n  dup2\n    /* \"--CODEGEN--\":2923:2933   */\n  add\n    /* \"--CODEGEN--\":2918:2933   */\n  swap1\n  pop\n    /* \"--CODEGEN--\":2894:2995   */\n  jump(tag_59)\ntag_60:\n    /* \"--CODEGEN--\":3010:3016   */\n  dup4\n    /* \"--CODEGEN--\":3007:3008   */\n  dup2\n    /* \"--CODEGEN--\":3004:3017   */\n  gt\n    /* \"--CODEGEN--\":3001:3003   */\n  iszero\n  tag_62\n  jumpi\n    /* \"--CODEGEN--\":3075:3076   */\n  0x00\n    /* \"--CODEGEN--\":3066:3072   */\n  dup5\n    /* \"--CODEGEN--\":3061:3064   */\n  dup5\n    /* \"--CODEGEN--\":3057:3073   */\n  add\n    /* \"--CODEGEN--\":3050:3077   */\n  mstore\n    /* \"--CODEGEN--\":3001:3003   */\ntag_62:\n    /* \"--CODEGEN--\":2871:3090   */\n  pop\n  pop\n  pop\n  pop\n  jump\n    /* \"background.sol\":15616:17982  contract Insurance {\r... */\ntag_10:\n  dataSize(sub_0)\n  dup1\n  dataOffset(sub_0)\n  0x00\n  codecopy\n  0x00\n  return\nstop\n\nsub_0: assembly {\n        /* \"background.sol\":15616:17982  contract Insurance {\r... */\n      mstore(0x40, 0x80)\n      callvalue\n        /* \"--CODEGEN--\":8:17   */\n      dup1\n        /* \"--CODEGEN--\":5:7   */\n      iszero\n      tag_1\n      jumpi\n        /* \"--CODEGEN--\":30:31   */\n      0x00\n        /* \"--CODEGEN--\":27:28   */\n      dup1\n        /* \"--CODEGEN--\":20:32   */\n      revert\n        /* \"--CODEGEN--\":5:7   */\n    tag_1:\n        /* \"background.sol\":15616:17982  contract Insurance {\r... */\n      pop\n      jumpi(tag_2, lt(calldatasize, 0x04))\n      calldataload(0x00)\n      0x0100000000000000000000000000000000000000000000000000000000\n      swap1\n      div\n      dup1\n      0x3bc5de30\n      eq\n      tag_3\n      jumpi\n      dup1\n      0x72102d18\n      eq\n      tag_4\n      jumpi\n      dup1\n      0x83bffb88\n      eq\n      tag_5\n      jumpi\n    tag_2:\n      0x00\n      dup1\n      revert\n        /* \"background.sol\":16523:16754  function getData() public view returns(address, address, string memory, int, string memory, string memory, int, Request[] memory) {\r... */\n    tag_3:\n      tag_6\n      tag_7\n      jump\t// in\n    tag_6:\n      mload(0x40)\n      tag_8\n      swap9\n      swap8\n      swap7\n      swap6\n      swap5\n      swap4\n      swap3\n      swap2\n      swap1\n      jump(tag_9)\n    tag_8:\n      mload(0x40)\n      dup1\n      swap2\n      sub\n      swap1\n      return\n        /* \"background.sol\":17548:17979  function finalizeRequest(uint256 index, address add, bool flag) public {\r... */\n    tag_4:\n      tag_10\n      0x04\n      dup1\n      calldatasize\n      sub\n      tag_11\n      swap2\n      swap1\n      dup2\n      add\n      swap1\n      jump(tag_12)\n    tag_11:\n      tag_13\n      jump\t// in\n    tag_10:\n      stop\n        /* \"background.sol\":16762:17540  function applyClaim(string memory fileHash, string memory titlee, string memory detailss) public {\r... */\n    tag_5:\n      tag_14\n      0x04\n      dup1\n      calldatasize\n      sub\n      tag_15\n      swap2\n      swap1\n      dup2\n      add\n      swap1\n      jump(tag_16)\n    tag_15:\n      tag_17\n      jump\t// in\n    tag_14:\n      stop\n        /* \"background.sol\":16523:16754  function getData() public view returns(address, address, string memory, int, string memory, string memory, int, Request[] memory) {\r... */\n    tag_7:\n        /* \"background.sol\":16562:16569  address */\n      0x00\n        /* \"background.sol\":16571:16578  address */\n      dup1\n        /* \"background.sol\":16580:16593  string memory */\n      0x60\n        /* \"background.sol\":16595:16598  int */\n      0x00\n        /* \"background.sol\":16600:16613  string memory */\n      0x60\n        /* \"background.sol\":16615:16628  string memory */\n      dup1\n        /* \"background.sol\":16630:16633  int */\n      0x00\n        /* \"background.sol\":16635:16651  Request[] memory */\n      0x60\n        /* \"background.sol\":16671:16682  selfAddress */\n      0x00\n      dup1\n      swap1\n      sload\n      swap1\n      0x0100\n      exp\n      swap1\n      div\n      0xffffffffffffffffffffffffffffffffffffffff\n      and\n        /* \"background.sol\":16684:16690  ownerr */\n      0x01\n      0x00\n      swap1\n      sload\n      swap1\n      0x0100\n      exp\n      swap1\n      div\n      0xffffffffffffffffffffffffffffffffffffffff\n      and\n        /* \"background.sol\":16692:16696  name */\n      0x02\n        /* \"background.sol\":16698:16704  aadhar */\n      sload(0x03)\n        /* \"background.sol\":16706:16716  insDetails */\n      0x04\n        /* \"background.sol\":16718:16727  documents */\n      0x05\n        /* \"background.sol\":16729:16735  amount */\n      sload(0x06)\n        /* \"background.sol\":16737:16745  requests */\n      0x08\n        /* \"background.sol\":16664:16746  return(selfAddress, ownerr, name, aadhar, insDetails, documents, amount, requests) */\n      dup6\n      dup1\n      sload\n      0x01\n      dup2\n      0x01\n      and\n      iszero\n      0x0100\n      mul\n      sub\n      and\n      0x02\n      swap1\n      div\n      dup1\n      0x1f\n      add\n      0x20\n      dup1\n      swap2\n      div\n      mul\n      0x20\n      add\n      mload(0x40)\n      swap1\n      dup2\n      add\n      0x40\n      mstore\n      dup1\n      swap3\n      swap2\n      swap1\n      dup2\n      dup2\n      mstore\n      0x20\n      add\n      dup3\n      dup1\n      sload\n      0x01\n      dup2\n      0x01\n      and\n      iszero\n      0x0100\n      mul\n      sub\n      and\n      0x02\n      swap1\n      div\n      dup1\n      iszero\n      tag_19\n      jumpi\n      dup1\n      0x1f\n      lt\n      tag_20\n      jumpi\n      0x0100\n      dup1\n      dup4\n      sload\n      div\n      mul\n      dup4\n      mstore\n      swap2\n      0x20\n      add\n      swap2\n      jump(tag_19)\n    tag_20:\n      dup3\n      add\n      swap2\n      swap1\n      0x00\n      mstore\n      keccak256(0x00, 0x20)\n      swap1\n    tag_21:\n      dup2\n      sload\n      dup2\n      mstore\n      swap1\n      0x01\n      add\n      swap1\n      0x20\n      add\n      dup1\n      dup4\n      gt\n      tag_21\n      jumpi\n      dup3\n      swap1\n      sub\n      0x1f\n      and\n      dup3\n      add\n      swap2\n    tag_19:\n      pop\n      pop\n      pop\n      pop\n      pop\n      swap6\n      pop\n      dup4\n      dup1\n      sload\n      0x01\n      dup2\n      0x01\n      and\n      iszero\n      0x0100\n      mul\n      sub\n      and\n      0x02\n      swap1\n      div\n      dup1\n      0x1f\n      add\n      0x20\n      dup1\n      swap2\n      div\n      mul\n      0x20\n      add\n      mload(0x40)\n      swap1\n      dup2\n      add\n      0x40\n      mstore\n      dup1\n      swap3\n      swap2\n      swap1\n      dup2\n      dup2\n      mstore\n      0x20\n      add\n      dup3\n      dup1\n      sload\n      0x01\n      dup2\n      0x01\n      and\n      iszero\n      0x0100\n      mul\n      sub\n      and\n      0x02\n      swap1\n      div\n      dup1\n      iszero\n      tag_22\n      jumpi\n      dup1\n      0x1f\n      lt\n      tag_23\n      jumpi\n      0x0100\n      dup1\n      dup4\n      sload\n      div\n      mul\n      dup4\n      mstore\n      swap2\n      0x20\n      add\n      swap2\n      jump(tag_22)\n    tag_23:\n      dup3\n      add\n      swap2\n      swap1\n      0x00\n      mstore\n      keccak256(0x00, 0x20)\n      swap1\n    tag_24:\n      dup2\n      sload\n      dup2\n      mstore\n      swap1\n      0x01\n      add\n      swap1\n      0x20\n      add\n      dup1\n      dup4\n      gt\n      tag_24\n      jumpi\n      dup3\n      swap1\n      sub\n      0x1f\n      and\n      dup3\n      add\n      swap2\n    tag_22:\n      pop\n      pop\n      pop\n      pop\n      pop\n      swap4\n      pop\n      dup3\n      dup1\n      sload\n      0x01\n      dup2\n      0x01\n      and\n      iszero\n      0x0100\n      mul\n      sub\n      and\n      0x02\n      swap1\n      div\n      dup1\n      0x1f\n      add\n      0x20\n      dup1\n      swap2\n      div\n      mul\n      0x20\n      add\n      mload(0x40)\n      swap1\n      dup2\n      add\n      0x40\n      mstore\n      dup1\n      swap3\n      swap2\n      swap1\n      dup2\n      dup2\n      mstore\n      0x20\n      add\n      dup3\n      dup1\n      sload\n      0x01\n      dup2\n      0x01\n      and\n      iszero\n      0x0100\n      mul\n      sub\n      and\n      0x02\n      swap1\n      div\n      dup1\n      iszero\n      tag_25\n      jumpi\n      dup1\n      0x1f\n      lt\n      tag_26\n      jumpi\n      0x0100\n      dup1\n      dup4\n      sload\n      div\n      mul\n      dup4\n      mstore\n      swap2\n      0x20\n      add\n      swap2\n      jump(tag_25)\n    tag_26:\n      dup3\n      add\n      swap2\n      swap1\n      0x00\n      mstore\n      keccak256(0x00, 0x20)\n      swap1\n    tag_27:\n      dup2\n      sload\n      dup2\n      mstore\n      swap1\n      0x01\n      add\n      swap1\n      0x20\n      add\n      dup1\n      dup4\n      gt\n      tag_27\n      jumpi\n      dup3\n      swap1\n      sub\n      0x1f\n      and\n      dup3\n      add\n      swap2\n    tag_25:\n      pop\n      pop\n      pop\n      pop\n      pop\n      swap3\n      pop\n      dup1\n      dup1\n      sload\n      dup1\n      0x20\n      mul\n      0x20\n      add\n      mload(0x40)\n      swap1\n      dup2\n      add\n      0x40\n      mstore\n      dup1\n      swap3\n      swap2\n      swap1\n      dup2\n      dup2\n      mstore\n      0x20\n      add\n      0x00\n      swap1\n    tag_28:\n      dup3\n      dup3\n      lt\n      iszero\n      tag_29\n      jumpi\n      dup4\n      dup3\n      swap1\n      0x00\n      mstore\n      keccak256(0x00, 0x20)\n      swap1\n      0x09\n      mul\n      add\n      0x0140\n      mload(0x40)\n      swap1\n      dup2\n      add\n      0x40\n      mstore\n      swap1\n      dup2\n      0x00\n      dup3\n      add\n      0x00\n      swap1\n      sload\n      swap1\n      0x0100\n      exp\n      swap1\n      div\n      0xffffffffffffffffffffffffffffffffffffffff\n      and\n      0xffffffffffffffffffffffffffffffffffffffff\n      and\n      0xffffffffffffffffffffffffffffffffffffffff\n      and\n      dup2\n      mstore\n      0x20\n      add\n      0x01\n      dup3\n      add\n      0x00\n      swap1\n      sload\n      swap1\n      0x0100\n      exp\n      swap1\n      div\n      0xffffffffffffffffffffffffffffffffffffffff\n      and\n      0xffffffffffffffffffffffffffffffffffffffff\n      and\n      0xffffffffffffffffffffffffffffffffffffffff\n      and\n      dup2\n      mstore\n      0x20\n      add\n      0x02\n      dup3\n      add\n      dup1\n      sload\n      0x01\n      dup2\n      0x01\n      and\n      iszero\n      0x0100\n      mul\n      sub\n      and\n      0x02\n      swap1\n      div\n      dup1\n      0x1f\n      add\n      0x20\n      dup1\n      swap2\n      div\n      mul\n      0x20\n      add\n      mload(0x40)\n      swap1\n      dup2\n      add\n      0x40\n      mstore\n      dup1\n      swap3\n      swap2\n      swap1\n      dup2\n      dup2\n      mstore\n      0x20\n      add\n      dup3\n      dup1\n      sload\n      0x01\n      dup2\n      0x01\n      and\n      iszero\n      0x0100\n      mul\n      sub\n      and\n      0x02\n      swap1\n      div\n      dup1\n      iszero\n      tag_31\n      jumpi\n      dup1\n      0x1f\n      lt\n      tag_32\n      jumpi\n      0x0100\n      dup1\n      dup4\n      sload\n      div\n      mul\n      dup4\n      mstore\n      swap2\n      0x20\n      add\n      swap2\n      jump(tag_31)\n    tag_32:\n      dup3\n      add\n      swap2\n      swap1\n      0x00\n      mstore\n      keccak256(0x00, 0x20)\n      swap1\n    tag_33:\n      dup2\n      sload\n      dup2\n      mstore\n      swap1\n      0x01\n      add\n      swap1\n      0x20\n      add\n      dup1\n      dup4\n      gt\n      tag_33\n      jumpi\n      dup3\n      swap1\n      sub\n      0x1f\n      and\n      dup3\n      add\n      swap2\n    tag_31:\n      pop\n      pop\n      pop\n      pop\n      pop\n      dup2\n      mstore\n      0x20\n      add\n      0x03\n      dup3\n      add\n      dup1\n      sload\n      0x01\n      dup2\n      0x01\n      and\n      iszero\n      0x0100\n      mul\n      sub\n      and\n      0x02\n      swap1\n      div\n      dup1\n      0x1f\n      add\n      0x20\n      dup1\n      swap2\n      div\n      mul\n      0x20\n      add\n      mload(0x40)\n      swap1\n      dup2\n      add\n      0x40\n      mstore\n      dup1\n      swap3\n      swap2\n      swap1\n      dup2\n      dup2\n      mstore\n      0x20\n      add\n      dup3\n      dup1\n      sload\n      0x01\n      dup2\n      0x01\n      and\n      iszero\n      0x0100\n      mul\n      sub\n      and\n      0x02\n      swap1\n      div\n      dup1\n      iszero\n      tag_34\n      jumpi\n      dup1\n      0x1f\n      lt\n      tag_35\n      jumpi\n      0x0100\n      dup1\n      dup4\n      sload\n      div\n      mul\n      dup4\n      mstore\n      swap2\n      0x20\n      add\n      swap2\n      jump(tag_34)\n    tag_35:\n      dup3\n      add\n      swap2\n      swap1\n      0x00\n      mstore\n      keccak256(0x00, 0x20)\n      swap1\n    tag_36:\n      dup2\n      sload\n      dup2\n      mstore\n      swap1\n      0x01\n      add\n      swap1\n      0x20\n      add\n      dup1\n      dup4\n      gt\n      tag_36\n      jumpi\n      dup3\n      swap1\n      sub\n      0x1f\n      and\n      dup3\n      add\n      swap2\n    tag_34:\n      pop\n      pop\n      pop\n      pop\n      pop\n      dup2\n      mstore\n      0x20\n      add\n      0x04\n      dup3\n      add\n      0x00\n      swap1\n      sload\n      swap1\n      0x0100\n      exp\n      swap1\n      div\n      0xff\n      and\n      iszero\n      iszero\n      iszero\n      iszero\n      dup2\n      mstore\n      0x20\n      add\n      0x04\n      dup3\n      add\n      0x01\n      swap1\n      sload\n      swap1\n      0x0100\n      exp\n      swap1\n      div\n      0xff\n      and\n      iszero\n      iszero\n      iszero\n      iszero\n      dup2\n      mstore\n      0x20\n      add\n      0x05\n      dup3\n      add\n      dup1\n      sload\n      0x01\n      dup2\n      0x01\n      and\n      iszero\n      0x0100\n      mul\n      sub\n      and\n      0x02\n      swap1\n      div\n      dup1\n      0x1f\n      add\n      0x20\n      dup1\n      swap2\n      div\n      mul\n      0x20\n      add\n      mload(0x40)\n      swap1\n      dup2\n      add\n      0x40\n      mstore\n      dup1\n      swap3\n      swap2\n      swap1\n      dup2\n      dup2\n      mstore\n      0x20\n      add\n      dup3\n      dup1\n      sload\n      0x01\n      dup2\n      0x01\n      and\n      iszero\n      0x0100\n      mul\n      sub\n      and\n      0x02\n      swap1\n      div\n      dup1\n      iszero\n      tag_37\n      jumpi\n      dup1\n      0x1f\n      lt\n      tag_38\n      jumpi\n      0x0100\n      dup1\n      dup4\n      sload\n      div\n      mul\n      dup4\n      mstore\n      swap2\n      0x20\n      add\n      swap2\n      jump(tag_37)\n    tag_38:\n      dup3\n      add\n      swap2\n      swap1\n      0x00\n      mstore\n      keccak256(0x00, 0x20)\n      swap1\n    tag_39:\n      dup2\n      sload\n      dup2\n      mstore\n      swap1\n      0x01\n      add\n      swap1\n      0x20\n      add\n      dup1\n      dup4\n      gt\n      tag_39\n      jumpi\n      dup3\n      swap1\n      sub\n      0x1f\n      and\n      dup3\n      add\n      swap2\n    tag_37:\n      pop\n      pop\n      pop\n      pop\n      pop\n      dup2\n      mstore\n      0x20\n      add\n      0x06\n      dup3\n      add\n      sload\n      dup2\n      mstore\n      0x20\n      add\n      0x07\n      dup3\n      add\n      0x00\n      swap1\n      sload\n      swap1\n      0x0100\n      exp\n      swap1\n      div\n      0xff\n      and\n      iszero\n      iszero\n      iszero\n      iszero\n      dup2\n      mstore\n      0x20\n      add\n      0x08\n      dup3\n      add\n      sload\n      dup2\n      mstore\n      pop\n      pop\n      dup2\n      mstore\n      0x20\n      add\n      swap1\n      0x01\n      add\n      swap1\n      jump(tag_28)\n    tag_29:\n      pop\n      pop\n      pop\n      pop\n      swap1\n      pop\n      swap8\n      pop\n      swap8\n      pop\n      swap8\n      pop\n      swap8\n      pop\n      swap8\n      pop\n      swap8\n      pop\n      swap8\n      pop\n      swap8\n      pop\n        /* \"background.sol\":16523:16754  function getData() public view returns(address, address, string memory, int, string memory, string memory, int, Request[] memory) {\r... */\n      swap1\n      swap2\n      swap3\n      swap4\n      swap5\n      swap6\n      swap7\n      swap8\n      jump\t// out\n        /* \"background.sol\":17548:17979  function finalizeRequest(uint256 index, address add, bool flag) public {\r... */\n    tag_13:\n        /* \"background.sol\":17640:17646  ownerr */\n      0x01\n      0x00\n      swap1\n      sload\n      swap1\n      0x0100\n      exp\n      swap1\n      div\n      0xffffffffffffffffffffffffffffffffffffffff\n      and\n        /* \"background.sol\":17633:17646  add == ownerr */\n      0xffffffffffffffffffffffffffffffffffffffff\n      and\n        /* \"background.sol\":17633:17636  add */\n      dup3\n        /* \"background.sol\":17633:17646  add == ownerr */\n      0xffffffffffffffffffffffffffffffffffffffff\n      and\n      eq\n        /* \"background.sol\":17630:17972  if(add == ownerr) {\r... */\n      iszero\n      tag_41\n      jumpi\n        /* \"background.sol\":17674:17678  true */\n      0x01\n        /* \"background.sol\":17666:17678  flag == true */\n      iszero\n      iszero\n        /* \"background.sol\":17666:17670  flag */\n      dup2\n        /* \"background.sol\":17666:17678  flag == true */\n      iszero\n      iszero\n      eq\n        /* \"background.sol\":17663:17926  if(flag == true) {\r... */\n      iszero\n      tag_42\n      jumpi\n        /* \"background.sol\":17726:17730  true */\n      0x01\n        /* \"background.sol\":17699:17707  requests */\n      0x08\n        /* \"background.sol\":17708:17713  index */\n      dup5\n        /* \"background.sol\":17699:17714  requests[index] */\n      dup2\n      sload\n      dup2\n      lt\n      iszero\n      iszero\n      tag_43\n      jumpi\n      invalid\n    tag_43:\n      swap1\n      0x00\n      mstore\n      keccak256(0x00, 0x20)\n      swap1\n      0x09\n      mul\n      add\n        /* \"background.sol\":17699:17723  requests[index].finalize */\n      0x07\n      add\n      0x00\n        /* \"background.sol\":17699:17730  requests[index].finalize = true */\n      0x0100\n      exp\n      dup2\n      sload\n      dup2\n      0xff\n      mul\n      not\n      and\n      swap1\n      dup4\n      iszero\n      iszero\n      mul\n      or\n      swap1\n      sstore\n      pop\n        /* \"background.sol\":17773:17777  true */\n      0x01\n        /* \"background.sol\":17749:17757  requests */\n      0x08\n        /* \"background.sol\":17758:17763  index */\n      dup5\n        /* \"background.sol\":17749:17764  requests[index] */\n      dup2\n      sload\n      dup2\n      lt\n      iszero\n      iszero\n      tag_45\n      jumpi\n      invalid\n    tag_45:\n      swap1\n      0x00\n      mstore\n      keccak256(0x00, 0x20)\n      swap1\n      0x09\n      mul\n      add\n        /* \"background.sol\":17749:17770  requests[index].owner */\n      0x04\n      add\n      0x01\n        /* \"background.sol\":17749:17777  requests[index].owner = true */\n      0x0100\n      exp\n      dup2\n      sload\n      dup2\n      0xff\n      mul\n      not\n      and\n      swap1\n      dup4\n      iszero\n      iszero\n      mul\n      or\n      swap1\n      sstore\n      pop\n        /* \"background.sol\":17663:17926  if(flag == true) {\r... */\n      jump(tag_47)\n    tag_42:\n        /* \"background.sol\":17858:17862  true */\n      0x01\n        /* \"background.sol\":17831:17839  requests */\n      0x08\n        /* \"background.sol\":17840:17845  index */\n      dup5\n        /* \"background.sol\":17831:17846  requests[index] */\n      dup2\n      sload\n      dup2\n      lt\n      iszero\n      iszero\n      tag_48\n      jumpi\n      invalid\n    tag_48:\n      swap1\n      0x00\n      mstore\n      keccak256(0x00, 0x20)\n      swap1\n      0x09\n      mul\n      add\n        /* \"background.sol\":17831:17855  requests[index].finalize */\n      0x07\n      add\n      0x00\n        /* \"background.sol\":17831:17862  requests[index].finalize = true */\n      0x0100\n      exp\n      dup2\n      sload\n      dup2\n      0xff\n      mul\n      not\n      and\n      swap1\n      dup4\n      iszero\n      iszero\n      mul\n      or\n      swap1\n      sstore\n      pop\n        /* \"background.sol\":17905:17910  false */\n      0x00\n        /* \"background.sol\":17881:17889  requests */\n      0x08\n        /* \"background.sol\":17890:17895  index */\n      dup5\n        /* \"background.sol\":17881:17896  requests[index] */\n      dup2\n      sload\n      dup2\n      lt\n      iszero\n      iszero\n      tag_50\n      jumpi\n      invalid\n    tag_50:\n      swap1\n      0x00\n      mstore\n      keccak256(0x00, 0x20)\n      swap1\n      0x09\n      mul\n      add\n        /* \"background.sol\":17881:17902  requests[index].owner */\n      0x04\n      add\n      0x01\n        /* \"background.sol\":17881:17910  requests[index].owner = false */\n      0x0100\n      exp\n      dup2\n      sload\n      dup2\n      0xff\n      mul\n      not\n      and\n      swap1\n      dup4\n      iszero\n      iszero\n      mul\n      or\n      swap1\n      sstore\n      pop\n        /* \"background.sol\":17663:17926  if(flag == true) {\r... */\n    tag_47:\n        /* \"background.sol\":17945:17960  ChangeOccured() */\n      0x2b94f1e9999ff685f243474c3b8c30563987b8897fecb35c7cea9ac0f4f5c6bd\n      mload(0x40)\n      mload(0x40)\n      dup1\n      swap2\n      sub\n      swap1\n      log1\n        /* \"background.sol\":17630:17972  if(add == ownerr) {\r... */\n    tag_41:\n        /* \"background.sol\":17548:17979  function finalizeRequest(uint256 index, address add, bool flag) public {\r... */\n      pop\n      pop\n      pop\n      jump\t// out\n        /* \"background.sol\":16762:17540  function applyClaim(string memory fileHash, string memory titlee, string memory detailss) public {\r... */\n    tag_17:\n        /* \"background.sol\":16870:16895  Request memory newRequest */\n      tag_53\n      tag_54\n      jump\t// in\n    tag_53:\n        /* \"background.sol\":16898:17247  Request( {\r... */\n      0x0140\n      mload(0x40)\n      swap1\n      dup2\n      add\n      0x40\n      mstore\n      dup1\n        /* \"background.sol\":16932:16938  ownerr */\n      0x01\n      0x00\n      swap1\n      sload\n      swap1\n      0x0100\n      exp\n      swap1\n      div\n      0xffffffffffffffffffffffffffffffffffffffff\n      and\n        /* \"background.sol\":16898:17247  Request( {\r... */\n      0xffffffffffffffffffffffffffffffffffffffff\n      and\n      dup2\n      mstore\n      0x20\n      add\n        /* \"background.sol\":16970:16974  this */\n      address\n        /* \"background.sol\":16898:17247  Request( {\r... */\n      0xffffffffffffffffffffffffffffffffffffffff\n      and\n      dup2\n      mstore\n      0x20\n      add\n        /* \"background.sol\":16997:17003  titlee */\n      dup5\n        /* \"background.sol\":16898:17247  Request( {\r... */\n      dup2\n      mstore\n      0x20\n      add\n        /* \"background.sol\":17027:17035  detailss */\n      dup4\n        /* \"background.sol\":16898:17247  Request( {\r... */\n      dup2\n      mstore\n      0x20\n      add\n        /* \"background.sol\":17088:17092  true */\n      0x01\n        /* \"background.sol\":16898:17247  Request( {\r... */\n      iszero\n      iszero\n      dup2\n      mstore\n      0x20\n      add\n        /* \"background.sol\":17114:17119  false */\n      0x00\n        /* \"background.sol\":16898:17247  Request( {\r... */\n      iszero\n      iszero\n      dup2\n      mstore\n      0x20\n      add\n        /* \"background.sol\":17057:17065  fileHash */\n      dup6\n        /* \"background.sol\":16898:17247  Request( {\r... */\n      dup2\n      mstore\n      0x20\n      add\n        /* \"background.sol\":17165:17166  1 */\n      0x01\n        /* \"background.sol\":17149:17162  requestsCount */\n      sload(0x07)\n        /* \"background.sol\":17149:17166  requestsCount + 1 */\n      add\n        /* \"background.sol\":16898:17247  Request( {\r... */\n      dup2\n      mstore\n      0x20\n      add\n        /* \"background.sol\":17192:17197  false */\n      0x00\n        /* \"background.sol\":16898:17247  Request( {\r... */\n      iszero\n      iszero\n      dup2\n      mstore\n      0x20\n      add\n        /* \"background.sol\":17234:17235  0 */\n      0x00\n        /* \"background.sol\":16898:17247  Request( {\r... */\n      dup2\n      mstore\n      pop\n        /* \"background.sol\":16870:17247  Request memory newRequest = Request( {\r... */\n      swap1\n      pop\n        /* \"background.sol\":17258:17266  requests */\n      0x08\n        /* \"background.sol\":17272:17282  newRequest */\n      dup2\n        /* \"background.sol\":17258:17283  requests.push(newRequest) */\n      swap1\n      dup1\n        /* \"--CODEGEN--\":39:40   */\n      0x01\n        /* \"--CODEGEN--\":33:36   */\n      dup2\n        /* \"--CODEGEN--\":27:37   */\n      sload\n        /* \"--CODEGEN--\":23:41   */\n      add\n        /* \"--CODEGEN--\":57:67   */\n      dup1\n        /* \"--CODEGEN--\":52:55   */\n      dup3\n        /* \"--CODEGEN--\":45:68   */\n      sstore\n        /* \"--CODEGEN--\":79:89   */\n      dup1\n        /* \"--CODEGEN--\":72:89   */\n      swap2\n      pop\n        /* \"--CODEGEN--\":0:93   */\n      pop\n        /* \"background.sol\":17258:17283  requests.push(newRequest) */\n      swap1\n      0x01\n      dup3\n      sub\n      swap1\n      0x00\n      mstore\n      keccak256(0x00, 0x20)\n      swap1\n      0x09\n      mul\n      add\n      0x00\n      swap1\n      swap2\n      swap3\n      swap1\n      swap2\n      swap1\n      swap2\n      pop\n      0x00\n      dup3\n      add\n      mload\n      dup2\n      0x00\n      add\n      exp(0x0100, 0x00)\n      dup2\n      sload\n      dup2\n      0xffffffffffffffffffffffffffffffffffffffff\n      mul\n      not\n      and\n      swap1\n      dup4\n      0xffffffffffffffffffffffffffffffffffffffff\n      and\n      mul\n      or\n      swap1\n      sstore\n      pop\n      0x20\n      dup3\n      add\n      mload\n      dup2\n      0x01\n      add\n      exp(0x0100, 0x00)\n      dup2\n      sload\n      dup2\n      0xffffffffffffffffffffffffffffffffffffffff\n      mul\n      not\n      and\n      swap1\n      dup4\n      0xffffffffffffffffffffffffffffffffffffffff\n      and\n      mul\n      or\n      swap1\n      sstore\n      pop\n      0x40\n      dup3\n      add\n      mload\n      dup2\n      0x02\n      add\n      swap1\n      dup1\n      mload\n      swap1\n      0x20\n      add\n      swap1\n      tag_56\n      swap3\n      swap2\n      swap1\n      tag_57\n      jump\t// in\n    tag_56:\n      pop\n      0x60\n      dup3\n      add\n      mload\n      dup2\n      0x03\n      add\n      swap1\n      dup1\n      mload\n      swap1\n      0x20\n      add\n      swap1\n      tag_58\n      swap3\n      swap2\n      swap1\n      tag_57\n      jump\t// in\n    tag_58:\n      pop\n      0x80\n      dup3\n      add\n      mload\n      dup2\n      0x04\n      add\n      exp(0x0100, 0x00)\n      dup2\n      sload\n      dup2\n      0xff\n      mul\n      not\n      and\n      swap1\n      dup4\n      iszero\n      iszero\n      mul\n      or\n      swap1\n      sstore\n      pop\n      0xa0\n      dup3\n      add\n      mload\n      dup2\n      0x04\n      add\n      exp(0x0100, 0x01)\n      dup2\n      sload\n      dup2\n      0xff\n      mul\n      not\n      and\n      swap1\n      dup4\n      iszero\n      iszero\n      mul\n      or\n      swap1\n      sstore\n      pop\n      0xc0\n      dup3\n      add\n      mload\n      dup2\n      0x05\n      add\n      swap1\n      dup1\n      mload\n      swap1\n      0x20\n      add\n      swap1\n      tag_59\n      swap3\n      swap2\n      swap1\n      tag_57\n      jump\t// in\n    tag_59:\n      pop\n      0xe0\n      dup3\n      add\n      mload\n      dup2\n      0x06\n      add\n      sstore\n      0x0100\n      dup3\n      add\n      mload\n      dup2\n      0x07\n      add\n      exp(0x0100, 0x00)\n      dup2\n      sload\n      dup2\n      0xff\n      mul\n      not\n      and\n      swap1\n      dup4\n      iszero\n      iszero\n      mul\n      or\n      swap1\n      sstore\n      pop\n      0x0120\n      dup3\n      add\n      mload\n      dup2\n      0x08\n      add\n      sstore\n      pop\n      pop\n      pop\n        /* \"background.sol\":17294:17302  Owner oo */\n      0x00\n        /* \"background.sol\":17311:17317  ownerr */\n      0x01\n      0x00\n      swap1\n      sload\n      swap1\n      0x0100\n      exp\n      swap1\n      div\n      0xffffffffffffffffffffffffffffffffffffffff\n      and\n        /* \"background.sol\":17294:17318  Owner oo = Owner(ownerr) */\n      swap1\n      pop\n        /* \"background.sol\":17329:17331  oo */\n      dup1\n        /* \"background.sol\":17329:17346  oo.pendingRequest */\n      0xffffffffffffffffffffffffffffffffffffffff\n      and\n      0x6fc92e73\n        /* \"background.sol\":17347:17353  ownerr */\n      0x01\n      0x00\n      swap1\n      sload\n      swap1\n      0x0100\n      exp\n      swap1\n      div\n      0xffffffffffffffffffffffffffffffffffffffff\n      and\n        /* \"background.sol\":17363:17367  this */\n      address\n        /* \"background.sol\":17370:17376  titlee */\n      dup8\n        /* \"background.sol\":17378:17386  detailss */\n      dup8\n        /* \"background.sol\":17388:17396  fileHash */\n      dup11\n        /* \"background.sol\":17398:17402  true */\n      0x01\n        /* \"background.sol\":17404:17409  false */\n      0x00\n        /* \"background.sol\":17435:17436  1 */\n      0x01\n        /* \"background.sol\":17419:17432  requestsCount */\n      sload(0x07)\n        /* \"background.sol\":17419:17436  requestsCount + 1 */\n      add\n        /* \"background.sol\":17439:17445  aadhar */\n      sload(0x03)\n        /* \"background.sol\":17447:17456  documents */\n      0x05\n        /* \"background.sol\":17329:17457  oo.pendingRequest(ownerr, address(this), titlee, detailss, fileHash, true, false, uint256(requestsCount + 1), aadhar, documents) */\n      mload(0x40)\n      dup12\n      0xffffffff\n      and\n      0x0100000000000000000000000000000000000000000000000000000000\n      mul\n      dup2\n      mstore\n      0x04\n      add\n      tag_60\n      swap11\n      swap10\n      swap9\n      swap8\n      swap7\n      swap6\n      swap5\n      swap4\n      swap3\n      swap2\n      swap1\n      jump(tag_61)\n    tag_60:\n      0x00\n      mload(0x40)\n      dup1\n      dup4\n      sub\n      dup2\n      0x00\n      dup8\n      dup1\n      extcodesize\n      iszero\n        /* \"--CODEGEN--\":8:17   */\n      dup1\n        /* \"--CODEGEN--\":5:7   */\n      iszero\n      tag_62\n      jumpi\n        /* \"--CODEGEN--\":30:31   */\n      0x00\n        /* \"--CODEGEN--\":27:28   */\n      dup1\n        /* \"--CODEGEN--\":20:32   */\n      revert\n        /* \"--CODEGEN--\":5:7   */\n    tag_62:\n        /* \"background.sol\":17329:17457  oo.pendingRequest(ownerr, address(this), titlee, detailss, fileHash, true, false, uint256(requestsCount + 1), aadhar, documents) */\n      pop\n      gas\n      call\n      iszero\n        /* \"--CODEGEN--\":8:17   */\n      dup1\n        /* \"--CODEGEN--\":5:7   */\n      iszero\n      tag_63\n      jumpi\n        /* \"--CODEGEN--\":45:61   */\n      returndatasize\n        /* \"--CODEGEN--\":42:43   */\n      0x00\n        /* \"--CODEGEN--\":39:40   */\n      dup1\n        /* \"--CODEGEN--\":24:62   */\n      returndatacopy\n        /* \"--CODEGEN--\":77:93   */\n      returndatasize\n        /* \"--CODEGEN--\":74:75   */\n      0x00\n        /* \"--CODEGEN--\":67:94   */\n      revert\n        /* \"--CODEGEN--\":5:7   */\n    tag_63:\n        /* \"background.sol\":17329:17457  oo.pendingRequest(ownerr, address(this), titlee, detailss, fileHash, true, false, uint256(requestsCount + 1), aadhar, documents) */\n      pop\n      pop\n      pop\n      pop\n        /* \"background.sol\":17500:17501  1 */\n      0x01\n        /* \"background.sol\":17484:17497  requestsCount */\n      sload(0x07)\n        /* \"background.sol\":17484:17501  requestsCount + 1 */\n      add\n        /* \"background.sol\":17468:17481  requestsCount */\n      0x07\n        /* \"background.sol\":17468:17501  requestsCount = requestsCount + 1 */\n      dup2\n      swap1\n      sstore\n      pop\n        /* \"background.sol\":17517:17532  ChangeOccured() */\n      0x2b94f1e9999ff685f243474c3b8c30563987b8897fecb35c7cea9ac0f4f5c6bd\n      mload(0x40)\n      mload(0x40)\n      dup1\n      swap2\n      sub\n      swap1\n      log1\n        /* \"background.sol\":16762:17540  function applyClaim(string memory fileHash, string memory titlee, string memory detailss) public {\r... */\n      pop\n      pop\n      pop\n      pop\n      pop\n      jump\t// out\n        /* \"background.sol\":15616:17982  contract Insurance {\r... */\n    tag_54:\n      0x0140\n      mload(0x40)\n      swap1\n      dup2\n      add\n      0x40\n      mstore\n      dup1\n      and(0xffffffffffffffffffffffffffffffffffffffff, 0x00)\n      dup2\n      mstore\n      0x20\n      add\n      and(0xffffffffffffffffffffffffffffffffffffffff, 0x00)\n      dup2\n      mstore\n      0x20\n      add\n      0x60\n      dup2\n      mstore\n      0x20\n      add\n      0x60\n      dup2\n      mstore\n      0x20\n      add\n      iszero(iszero(0x00))\n      dup2\n      mstore\n      0x20\n      add\n      iszero(iszero(0x00))\n      dup2\n      mstore\n      0x20\n      add\n      0x60\n      dup2\n      mstore\n      0x20\n      add\n      0x00\n      dup2\n      mstore\n      0x20\n      add\n      iszero(iszero(0x00))\n      dup2\n      mstore\n      0x20\n      add\n      0x00\n      dup2\n      mstore\n      pop\n      swap1\n      jump\t// out\n    tag_57:\n      dup3\n      dup1\n      sload\n      0x01\n      dup2\n      0x01\n      and\n      iszero\n      0x0100\n      mul\n      sub\n      and\n      0x02\n      swap1\n      div\n      swap1\n      0x00\n      mstore\n      keccak256(0x00, 0x20)\n      swap1\n      0x1f\n      add\n      0x20\n      swap1\n      div\n      dup2\n      add\n      swap3\n      dup3\n      0x1f\n      lt\n      tag_65\n      jumpi\n      dup1\n      mload\n      not(0xff)\n      and\n      dup4\n      dup1\n      add\n      or\n      dup6\n      sstore\n      jump(tag_64)\n    tag_65:\n      dup3\n      dup1\n      add\n      0x01\n      add\n      dup6\n      sstore\n      dup3\n      iszero\n      tag_64\n      jumpi\n      swap2\n      dup3\n      add\n    tag_66:\n      dup3\n      dup2\n      gt\n      iszero\n      tag_67\n      jumpi\n      dup3\n      mload\n      dup3\n      sstore\n      swap2\n      0x20\n      add\n      swap2\n      swap1\n      0x01\n      add\n      swap1\n      jump(tag_66)\n    tag_67:\n    tag_64:\n      pop\n      swap1\n      pop\n      tag_68\n      swap2\n      swap1\n      tag_69\n      jump\t// in\n    tag_68:\n      pop\n      swap1\n      jump\t// out\n    tag_69:\n      tag_70\n      swap2\n      swap1\n    tag_71:\n      dup1\n      dup3\n      gt\n      iszero\n      tag_72\n      jumpi\n      0x00\n      dup2\n      0x00\n      swap1\n      sstore\n      pop\n      0x01\n      add\n      jump(tag_71)\n    tag_72:\n      pop\n      swap1\n      jump\n    tag_70:\n      swap1\n      jump\t// out\n        /* \"--CODEGEN--\":5:123   */\n    tag_74:\n      0x00\n        /* \"--CODEGEN--\":72:118   */\n      tag_75\n        /* \"--CODEGEN--\":110:116   */\n      dup3\n        /* \"--CODEGEN--\":97:117   */\n      calldataload\n        /* \"--CODEGEN--\":72:118   */\n      jump(tag_76)\n    tag_75:\n        /* \"--CODEGEN--\":63:118   */\n      swap1\n      pop\n        /* \"--CODEGEN--\":57:123   */\n      swap3\n      swap2\n      pop\n      pop\n      jump\n        /* \"--CODEGEN--\":130:242   */\n    tag_78:\n      0x00\n        /* \"--CODEGEN--\":194:237   */\n      tag_79\n        /* \"--CODEGEN--\":229:235   */\n      dup3\n        /* \"--CODEGEN--\":216:236   */\n      calldataload\n        /* \"--CODEGEN--\":194:237   */\n      jump(tag_80)\n    tag_79:\n        /* \"--CODEGEN--\":185:237   */\n      swap1\n      pop\n        /* \"--CODEGEN--\":179:242   */\n      swap3\n      swap2\n      pop\n      pop\n      jump\n        /* \"--CODEGEN--\":250:692   */\n    tag_82:\n      0x00\n        /* \"--CODEGEN--\":352:355   */\n      dup3\n        /* \"--CODEGEN--\":345:349   */\n      0x1f\n        /* \"--CODEGEN--\":337:343   */\n      dup4\n        /* \"--CODEGEN--\":333:350   */\n      add\n        /* \"--CODEGEN--\":329:356   */\n      slt\n        /* \"--CODEGEN--\":322:357   */\n      iszero\n        /* \"--CODEGEN--\":319:321   */\n      iszero\n      tag_83\n      jumpi\n        /* \"--CODEGEN--\":370:371   */\n      0x00\n        /* \"--CODEGEN--\":367:368   */\n      dup1\n        /* \"--CODEGEN--\":360:372   */\n      revert\n        /* \"--CODEGEN--\":319:321   */\n    tag_83:\n        /* \"--CODEGEN--\":407:413   */\n      dup2\n        /* \"--CODEGEN--\":394:414   */\n      calldataload\n        /* \"--CODEGEN--\":429:494   */\n      tag_84\n        /* \"--CODEGEN--\":444:493   */\n      tag_85\n        /* \"--CODEGEN--\":486:492   */\n      dup3\n        /* \"--CODEGEN--\":444:493   */\n      jump(tag_86)\n    tag_85:\n        /* \"--CODEGEN--\":429:494   */\n      jump(tag_87)\n    tag_84:\n        /* \"--CODEGEN--\":420:494   */\n      swap2\n      pop\n        /* \"--CODEGEN--\":514:520   */\n      dup1\n        /* \"--CODEGEN--\":507:512   */\n      dup3\n        /* \"--CODEGEN--\":500:521   */\n      mstore\n        /* \"--CODEGEN--\":550:554   */\n      0x20\n        /* \"--CODEGEN--\":542:548   */\n      dup4\n        /* \"--CODEGEN--\":538:555   */\n      add\n        /* \"--CODEGEN--\":583:587   */\n      0x20\n        /* \"--CODEGEN--\":576:581   */\n      dup4\n        /* \"--CODEGEN--\":572:588   */\n      add\n        /* \"--CODEGEN--\":618:621   */\n      dup6\n        /* \"--CODEGEN--\":609:615   */\n      dup4\n        /* \"--CODEGEN--\":604:607   */\n      dup4\n        /* \"--CODEGEN--\":600:616   */\n      add\n        /* \"--CODEGEN--\":597:622   */\n      gt\n        /* \"--CODEGEN--\":594:596   */\n      iszero\n      tag_88\n      jumpi\n        /* \"--CODEGEN--\":635:636   */\n      0x00\n        /* \"--CODEGEN--\":632:633   */\n      dup1\n        /* \"--CODEGEN--\":625:637   */\n      revert\n        /* \"--CODEGEN--\":594:596   */\n    tag_88:\n        /* \"--CODEGEN--\":645:686   */\n      tag_89\n        /* \"--CODEGEN--\":679:685   */\n      dup4\n        /* \"--CODEGEN--\":674:677   */\n      dup3\n        /* \"--CODEGEN--\":669:672   */\n      dup5\n        /* \"--CODEGEN--\":645:686   */\n      jump(tag_90)\n    tag_89:\n        /* \"--CODEGEN--\":312:692   */\n      pop\n      pop\n      pop\n      swap3\n      swap2\n      pop\n      pop\n      jump\n        /* \"--CODEGEN--\":700:818   */\n    tag_92:\n      0x00\n        /* \"--CODEGEN--\":767:813   */\n      tag_93\n        /* \"--CODEGEN--\":805:811   */\n      dup3\n        /* \"--CODEGEN--\":792:812   */\n      calldataload\n        /* \"--CODEGEN--\":767:813   */\n      jump(tag_94)\n    tag_93:\n        /* \"--CODEGEN--\":758:813   */\n      swap1\n      pop\n        /* \"--CODEGEN--\":752:818   */\n      swap3\n      swap2\n      pop\n      pop\n      jump\n        /* \"--CODEGEN--\":825:1634   */\n    tag_16:\n      0x00\n      dup1\n      0x00\n        /* \"--CODEGEN--\":993:995   */\n      0x60\n        /* \"--CODEGEN--\":981:990   */\n      dup5\n        /* \"--CODEGEN--\":972:979   */\n      dup7\n        /* \"--CODEGEN--\":968:991   */\n      sub\n        /* \"--CODEGEN--\":964:996   */\n      slt\n        /* \"--CODEGEN--\":961:963   */\n      iszero\n      tag_96\n      jumpi\n        /* \"--CODEGEN--\":1009:1010   */\n      0x00\n        /* \"--CODEGEN--\":1006:1007   */\n      dup1\n        /* \"--CODEGEN--\":999:1011   */\n      revert\n        /* \"--CODEGEN--\":961:963   */\n    tag_96:\n        /* \"--CODEGEN--\":1072:1073   */\n      0x00\n        /* \"--CODEGEN--\":1061:1070   */\n      dup5\n        /* \"--CODEGEN--\":1057:1074   */\n      add\n        /* \"--CODEGEN--\":1044:1075   */\n      calldataload\n        /* \"--CODEGEN--\":1095:1113   */\n      0xffffffffffffffff\n        /* \"--CODEGEN--\":1087:1093   */\n      dup2\n        /* \"--CODEGEN--\":1084:1114   */\n      gt\n        /* \"--CODEGEN--\":1081:1083   */\n      iszero\n      tag_97\n      jumpi\n        /* \"--CODEGEN--\":1127:1128   */\n      0x00\n        /* \"--CODEGEN--\":1124:1125   */\n      dup1\n        /* \"--CODEGEN--\":1117:1129   */\n      revert\n        /* \"--CODEGEN--\":1081:1083   */\n    tag_97:\n        /* \"--CODEGEN--\":1147:1210   */\n      tag_98\n        /* \"--CODEGEN--\":1202:1209   */\n      dup7\n        /* \"--CODEGEN--\":1193:1199   */\n      dup3\n        /* \"--CODEGEN--\":1182:1191   */\n      dup8\n        /* \"--CODEGEN--\":1178:1200   */\n      add\n        /* \"--CODEGEN--\":1147:1210   */\n      jump(tag_82)\n    tag_98:\n        /* \"--CODEGEN--\":1137:1210   */\n      swap4\n      pop\n        /* \"--CODEGEN--\":1023:1216   */\n      pop\n        /* \"--CODEGEN--\":1275:1277   */\n      0x20\n        /* \"--CODEGEN--\":1264:1273   */\n      dup5\n        /* \"--CODEGEN--\":1260:1278   */\n      add\n        /* \"--CODEGEN--\":1247:1279   */\n      calldataload\n        /* \"--CODEGEN--\":1299:1317   */\n      0xffffffffffffffff\n        /* \"--CODEGEN--\":1291:1297   */\n      dup2\n        /* \"--CODEGEN--\":1288:1318   */\n      gt\n        /* \"--CODEGEN--\":1285:1287   */\n      iszero\n      tag_99\n      jumpi\n        /* \"--CODEGEN--\":1331:1332   */\n      0x00\n        /* \"--CODEGEN--\":1328:1329   */\n      dup1\n        /* \"--CODEGEN--\":1321:1333   */\n      revert\n        /* \"--CODEGEN--\":1285:1287   */\n    tag_99:\n        /* \"--CODEGEN--\":1351:1414   */\n      tag_100\n        /* \"--CODEGEN--\":1406:1413   */\n      dup7\n        /* \"--CODEGEN--\":1397:1403   */\n      dup3\n        /* \"--CODEGEN--\":1386:1395   */\n      dup8\n        /* \"--CODEGEN--\":1382:1404   */\n      add\n        /* \"--CODEGEN--\":1351:1414   */\n      jump(tag_82)\n    tag_100:\n        /* \"--CODEGEN--\":1341:1414   */\n      swap3\n      pop\n        /* \"--CODEGEN--\":1226:1420   */\n      pop\n        /* \"--CODEGEN--\":1479:1481   */\n      0x40\n        /* \"--CODEGEN--\":1468:1477   */\n      dup5\n        /* \"--CODEGEN--\":1464:1482   */\n      add\n        /* \"--CODEGEN--\":1451:1483   */\n      calldataload\n        /* \"--CODEGEN--\":1503:1521   */\n      0xffffffffffffffff\n        /* \"--CODEGEN--\":1495:1501   */\n      dup2\n        /* \"--CODEGEN--\":1492:1522   */\n      gt\n        /* \"--CODEGEN--\":1489:1491   */\n      iszero\n      tag_101\n      jumpi\n        /* \"--CODEGEN--\":1535:1536   */\n      0x00\n        /* \"--CODEGEN--\":1532:1533   */\n      dup1\n        /* \"--CODEGEN--\":1525:1537   */\n      revert\n        /* \"--CODEGEN--\":1489:1491   */\n    tag_101:\n        /* \"--CODEGEN--\":1555:1618   */\n      tag_102\n        /* \"--CODEGEN--\":1610:1617   */\n      dup7\n        /* \"--CODEGEN--\":1601:1607   */\n      dup3\n        /* \"--CODEGEN--\":1590:1599   */\n      dup8\n        /* \"--CODEGEN--\":1586:1608   */\n      add\n        /* \"--CODEGEN--\":1555:1618   */\n      jump(tag_82)\n    tag_102:\n        /* \"--CODEGEN--\":1545:1618   */\n      swap2\n      pop\n        /* \"--CODEGEN--\":1430:1624   */\n      pop\n        /* \"--CODEGEN--\":955:1634   */\n      swap3\n      pop\n      swap3\n      pop\n      swap3\n      jump\n        /* \"--CODEGEN--\":1641:2126   */\n    tag_12:\n      0x00\n      dup1\n      0x00\n        /* \"--CODEGEN--\":1776:1778   */\n      0x60\n        /* \"--CODEGEN--\":1764:1773   */\n      dup5\n        /* \"--CODEGEN--\":1755:1762   */\n      dup7\n        /* \"--CODEGEN--\":1751:1774   */\n      sub\n        /* \"--CODEGEN--\":1747:1779   */\n      slt\n        /* \"--CODEGEN--\":1744:1746   */\n      iszero\n      tag_104\n      jumpi\n        /* \"--CODEGEN--\":1792:1793   */\n      0x00\n        /* \"--CODEGEN--\":1789:1790   */\n      dup1\n        /* \"--CODEGEN--\":1782:1794   */\n      revert\n        /* \"--CODEGEN--\":1744:1746   */\n    tag_104:\n        /* \"--CODEGEN--\":1827:1828   */\n      0x00\n        /* \"--CODEGEN--\":1844:1897   */\n      tag_105\n        /* \"--CODEGEN--\":1889:1896   */\n      dup7\n        /* \"--CODEGEN--\":1880:1886   */\n      dup3\n        /* \"--CODEGEN--\":1869:1878   */\n      dup8\n        /* \"--CODEGEN--\":1865:1887   */\n      add\n        /* \"--CODEGEN--\":1844:1897   */\n      jump(tag_92)\n    tag_105:\n        /* \"--CODEGEN--\":1834:1897   */\n      swap4\n      pop\n        /* \"--CODEGEN--\":1806:1903   */\n      pop\n        /* \"--CODEGEN--\":1934:1936   */\n      0x20\n        /* \"--CODEGEN--\":1952:2005   */\n      tag_106\n        /* \"--CODEGEN--\":1997:2004   */\n      dup7\n        /* \"--CODEGEN--\":1988:1994   */\n      dup3\n        /* \"--CODEGEN--\":1977:1986   */\n      dup8\n        /* \"--CODEGEN--\":1973:1995   */\n      add\n        /* \"--CODEGEN--\":1952:2005   */\n      jump(tag_74)\n    tag_106:\n        /* \"--CODEGEN--\":1942:2005   */\n      swap3\n      pop\n        /* \"--CODEGEN--\":1913:2011   */\n      pop\n        /* \"--CODEGEN--\":2042:2044   */\n      0x40\n        /* \"--CODEGEN--\":2060:2110   */\n      tag_107\n        /* \"--CODEGEN--\":2102:2109   */\n      dup7\n        /* \"--CODEGEN--\":2093:2099   */\n      dup3\n        /* \"--CODEGEN--\":2082:2091   */\n      dup8\n        /* \"--CODEGEN--\":2078:2100   */\n      add\n        /* \"--CODEGEN--\":2060:2110   */\n      jump(tag_78)\n    tag_107:\n        /* \"--CODEGEN--\":2050:2110   */\n      swap2\n      pop\n        /* \"--CODEGEN--\":2021:2116   */\n      pop\n        /* \"--CODEGEN--\":1738:2126   */\n      swap3\n      pop\n      swap3\n      pop\n      swap3\n      jump\n        /* \"--CODEGEN--\":2133:2243   */\n    tag_109:\n        /* \"--CODEGEN--\":2206:2237   */\n      tag_110\n        /* \"--CODEGEN--\":2231:2236   */\n      dup2\n        /* \"--CODEGEN--\":2206:2237   */\n      jump(tag_111)\n    tag_110:\n        /* \"--CODEGEN--\":2201:2204   */\n      dup3\n        /* \"--CODEGEN--\":2194:2238   */\n      mstore\n        /* \"--CODEGEN--\":2188:2243   */\n      pop\n      pop\n      jump\n        /* \"--CODEGEN--\":2315:3193   */\n    tag_113:\n      0x00\n        /* \"--CODEGEN--\":2492:2567   */\n      tag_114\n        /* \"--CODEGEN--\":2561:2566   */\n      dup3\n        /* \"--CODEGEN--\":2492:2567   */\n      jump(tag_115)\n    tag_114:\n        /* \"--CODEGEN--\":2585:2591   */\n      dup1\n        /* \"--CODEGEN--\":2580:2583   */\n      dup5\n        /* \"--CODEGEN--\":2573:2592   */\n      mstore\n        /* \"--CODEGEN--\":2609:2613   */\n      0x20\n        /* \"--CODEGEN--\":2604:2607   */\n      dup5\n        /* \"--CODEGEN--\":2600:2614   */\n      add\n        /* \"--CODEGEN--\":2593:2614   */\n      swap4\n      pop\n        /* \"--CODEGEN--\":2657:2660   */\n      dup4\n        /* \"--CODEGEN--\":2699:2703   */\n      0x20\n        /* \"--CODEGEN--\":2691:2697   */\n      dup3\n        /* \"--CODEGEN--\":2687:2704   */\n      mul\n        /* \"--CODEGEN--\":2682:2685   */\n      dup6\n        /* \"--CODEGEN--\":2678:2705   */\n      add\n        /* \"--CODEGEN--\":2725:2802   */\n      tag_116\n        /* \"--CODEGEN--\":2796:2801   */\n      dup6\n        /* \"--CODEGEN--\":2725:2802   */\n      jump(tag_117)\n    tag_116:\n        /* \"--CODEGEN--\":2823:2824   */\n      0x00\n        /* \"--CODEGEN--\":2808:3154   */\n    tag_118:\n        /* \"--CODEGEN--\":2833:2839   */\n      dup5\n        /* \"--CODEGEN--\":2830:2831   */\n      dup2\n        /* \"--CODEGEN--\":2827:2840   */\n      lt\n        /* \"--CODEGEN--\":2808:3154   */\n      iszero\n      tag_119\n      jumpi\n        /* \"--CODEGEN--\":2895:2904   */\n      dup4\n        /* \"--CODEGEN--\":2889:2893   */\n      dup4\n        /* \"--CODEGEN--\":2885:2905   */\n      sub\n        /* \"--CODEGEN--\":2880:2883   */\n      dup9\n        /* \"--CODEGEN--\":2873:2906   */\n      mstore\n        /* \"--CODEGEN--\":2921:3021   */\n      tag_121\n        /* \"--CODEGEN--\":3016:3020   */\n      dup4\n        /* \"--CODEGEN--\":3007:3013   */\n      dup4\n        /* \"--CODEGEN--\":3001:3014   */\n      mload\n        /* \"--CODEGEN--\":2921:3021   */\n      jump(tag_122)\n    tag_121:\n        /* \"--CODEGEN--\":2913:3021   */\n      swap3\n      pop\n        /* \"--CODEGEN--\":3038:3119   */\n      tag_123\n        /* \"--CODEGEN--\":3112:3118   */\n      dup3\n        /* \"--CODEGEN--\":3038:3119   */\n      jump(tag_124)\n    tag_123:\n        /* \"--CODEGEN--\":3028:3119   */\n      swap2\n      pop\n        /* \"--CODEGEN--\":3142:3146   */\n      0x20\n        /* \"--CODEGEN--\":3137:3140   */\n      dup9\n        /* \"--CODEGEN--\":3133:3147   */\n      add\n        /* \"--CODEGEN--\":3126:3147   */\n      swap8\n      pop\n        /* \"--CODEGEN--\":2855:2856   */\n      0x01\n        /* \"--CODEGEN--\":2852:2853   */\n      dup2\n        /* \"--CODEGEN--\":2848:2857   */\n      add\n        /* \"--CODEGEN--\":2843:2857   */\n      swap1\n      pop\n        /* \"--CODEGEN--\":2808:3154   */\n      jump(tag_118)\n    tag_119:\n        /* \"--CODEGEN--\":2812:2826   */\n      pop\n        /* \"--CODEGEN--\":3167:3171   */\n      dup2\n        /* \"--CODEGEN--\":3160:3171   */\n      swap7\n      pop\n        /* \"--CODEGEN--\":3184:3187   */\n      dup7\n        /* \"--CODEGEN--\":3177:3187   */\n      swap5\n      pop\n        /* \"--CODEGEN--\":2471:3193   */\n      pop\n      pop\n      pop\n      pop\n      swap3\n      swap2\n      pop\n      pop\n      jump\n        /* \"--CODEGEN--\":3201:3302   */\n    tag_126:\n        /* \"--CODEGEN--\":3268:3296   */\n      tag_127\n        /* \"--CODEGEN--\":3290:3295   */\n      dup2\n        /* \"--CODEGEN--\":3268:3296   */\n      jump(tag_128)\n    tag_127:\n        /* \"--CODEGEN--\":3263:3266   */\n      dup3\n        /* \"--CODEGEN--\":3256:3297   */\n      mstore\n        /* \"--CODEGEN--\":3250:3302   */\n      pop\n      pop\n      jump\n        /* \"--CODEGEN--\":3309:3416   */\n    tag_130:\n        /* \"--CODEGEN--\":3380:3410   */\n      tag_131\n        /* \"--CODEGEN--\":3404:3409   */\n      dup2\n        /* \"--CODEGEN--\":3380:3410   */\n      jump(tag_132)\n    tag_131:\n        /* \"--CODEGEN--\":3375:3378   */\n      dup3\n        /* \"--CODEGEN--\":3368:3411   */\n      mstore\n        /* \"--CODEGEN--\":3362:3416   */\n      pop\n      pop\n      jump\n        /* \"--CODEGEN--\":3423:3723   */\n    tag_134:\n      0x00\n        /* \"--CODEGEN--\":3525:3564   */\n      tag_135\n        /* \"--CODEGEN--\":3558:3563   */\n      dup3\n        /* \"--CODEGEN--\":3525:3564   */\n      jump(tag_136)\n    tag_135:\n        /* \"--CODEGEN--\":3581:3587   */\n      dup1\n        /* \"--CODEGEN--\":3576:3579   */\n      dup5\n        /* \"--CODEGEN--\":3569:3588   */\n      mstore\n        /* \"--CODEGEN--\":3593:3656   */\n      tag_137\n        /* \"--CODEGEN--\":3649:3655   */\n      dup2\n        /* \"--CODEGEN--\":3642:3646   */\n      0x20\n        /* \"--CODEGEN--\":3637:3640   */\n      dup7\n        /* \"--CODEGEN--\":3633:3647   */\n      add\n        /* \"--CODEGEN--\":3626:3630   */\n      0x20\n        /* \"--CODEGEN--\":3619:3624   */\n      dup7\n        /* \"--CODEGEN--\":3615:3631   */\n      add\n        /* \"--CODEGEN--\":3593:3656   */\n      jump(tag_138)\n    tag_137:\n        /* \"--CODEGEN--\":3688:3717   */\n      tag_139\n        /* \"--CODEGEN--\":3710:3716   */\n      dup2\n        /* \"--CODEGEN--\":3688:3717   */\n      jump(tag_140)\n    tag_139:\n        /* \"--CODEGEN--\":3681:3685   */\n      0x20\n        /* \"--CODEGEN--\":3676:3679   */\n      dup6\n        /* \"--CODEGEN--\":3672:3686   */\n      add\n        /* \"--CODEGEN--\":3668:3718   */\n      add\n        /* \"--CODEGEN--\":3661:3718   */\n      swap2\n      pop\n        /* \"--CODEGEN--\":3505:3723   */\n      pop\n      swap3\n      swap2\n      pop\n      pop\n      jump\n        /* \"--CODEGEN--\":3730:4022   */\n    tag_142:\n      0x00\n        /* \"--CODEGEN--\":3828:3863   */\n      tag_143\n        /* \"--CODEGEN--\":3857:3862   */\n      dup3\n        /* \"--CODEGEN--\":3828:3863   */\n      jump(tag_144)\n    tag_143:\n        /* \"--CODEGEN--\":3880:3886   */\n      dup1\n        /* \"--CODEGEN--\":3875:3878   */\n      dup5\n        /* \"--CODEGEN--\":3868:3887   */\n      mstore\n        /* \"--CODEGEN--\":3892:3955   */\n      tag_145\n        /* \"--CODEGEN--\":3948:3954   */\n      dup2\n        /* \"--CODEGEN--\":3941:3945   */\n      0x20\n        /* \"--CODEGEN--\":3936:3939   */\n      dup7\n        /* \"--CODEGEN--\":3932:3946   */\n      add\n        /* \"--CODEGEN--\":3925:3929   */\n      0x20\n        /* \"--CODEGEN--\":3918:3923   */\n      dup7\n        /* \"--CODEGEN--\":3914:3930   */\n      add\n        /* \"--CODEGEN--\":3892:3955   */\n      jump(tag_138)\n    tag_145:\n        /* \"--CODEGEN--\":3987:4016   */\n      tag_146\n        /* \"--CODEGEN--\":4009:4015   */\n      dup2\n        /* \"--CODEGEN--\":3987:4016   */\n      jump(tag_140)\n    tag_146:\n        /* \"--CODEGEN--\":3980:3984   */\n      0x20\n        /* \"--CODEGEN--\":3975:3978   */\n      dup6\n        /* \"--CODEGEN--\":3971:3985   */\n      add\n        /* \"--CODEGEN--\":3967:4017   */\n      add\n        /* \"--CODEGEN--\":3960:4017   */\n      swap2\n      pop\n        /* \"--CODEGEN--\":3808:4022   */\n      pop\n      swap3\n      swap2\n      pop\n      pop\n      jump\n        /* \"--CODEGEN--\":4054:4788   */\n    tag_148:\n      0x00\n        /* \"--CODEGEN--\":4163:4168   */\n      dup2\n        /* \"--CODEGEN--\":4157:4169   */\n      sload\n        /* \"--CODEGEN--\":4197:4198   */\n      0x01\n        /* \"--CODEGEN--\":4186:4195   */\n      dup2\n        /* \"--CODEGEN--\":4182:4199   */\n      and\n        /* \"--CODEGEN--\":4210:4211   */\n      0x00\n        /* \"--CODEGEN--\":4205:4405   */\n      dup2\n      eq\n      tag_150\n      jumpi\n        /* \"--CODEGEN--\":4416:4417   */\n      0x01\n        /* \"--CODEGEN--\":4411:4782   */\n      dup2\n      eq\n      tag_151\n      jumpi\n        /* \"--CODEGEN--\":4175:4782   */\n      jump(tag_149)\n        /* \"--CODEGEN--\":4205:4405   */\n    tag_150:\n        /* \"--CODEGEN--\":4283:4287   */\n      0x7f\n        /* \"--CODEGEN--\":4279:4280   */\n      0x02\n        /* \"--CODEGEN--\":4268:4277   */\n      dup4\n        /* \"--CODEGEN--\":4264:4281   */\n      div\n        /* \"--CODEGEN--\":4260:4288   */\n      and\n        /* \"--CODEGEN--\":4307:4313   */\n      dup1\n        /* \"--CODEGEN--\":4302:4305   */\n      dup7\n        /* \"--CODEGEN--\":4295:4314   */\n      mstore\n        /* \"--CODEGEN--\":4363:4367   */\n      0xff\n        /* \"--CODEGEN--\":4359:4368   */\n      not\n        /* \"--CODEGEN--\":4348:4357   */\n      dup4\n        /* \"--CODEGEN--\":4344:4369   */\n      and\n        /* \"--CODEGEN--\":4337:4341   */\n      0x20\n        /* \"--CODEGEN--\":4332:4335   */\n      dup8\n        /* \"--CODEGEN--\":4328:4342   */\n      add\n        /* \"--CODEGEN--\":4321:4370   */\n      mstore\n        /* \"--CODEGEN--\":4393:4397   */\n      0x40\n        /* \"--CODEGEN--\":4388:4391   */\n      dup7\n        /* \"--CODEGEN--\":4384:4398   */\n      add\n        /* \"--CODEGEN--\":4377:4398   */\n      swap4\n      pop\n        /* \"--CODEGEN--\":4212:4405   */\n      pop\n        /* \"--CODEGEN--\":4205:4405   */\n      jump(tag_149)\n        /* \"--CODEGEN--\":4411:4782   */\n    tag_151:\n        /* \"--CODEGEN--\":4480:4481   */\n      0x02\n        /* \"--CODEGEN--\":4469:4478   */\n      dup3\n        /* \"--CODEGEN--\":4465:4482   */\n      div\n        /* \"--CODEGEN--\":4501:4507   */\n      dup1\n        /* \"--CODEGEN--\":4496:4499   */\n      dup7\n        /* \"--CODEGEN--\":4489:4508   */\n      mstore\n        /* \"--CODEGEN--\":4531:4535   */\n      0x20\n        /* \"--CODEGEN--\":4526:4529   */\n      dup7\n        /* \"--CODEGEN--\":4522:4536   */\n      add\n        /* \"--CODEGEN--\":4515:4536   */\n      swap6\n      pop\n        /* \"--CODEGEN--\":4558:4596   */\n      tag_152\n        /* \"--CODEGEN--\":4590:4595   */\n      dup6\n        /* \"--CODEGEN--\":4558:4596   */\n      jump(tag_153)\n    tag_152:\n        /* \"--CODEGEN--\":4612:4613   */\n      0x00\n        /* \"--CODEGEN--\":4620:4750   */\n    tag_154:\n        /* \"--CODEGEN--\":4634:4640   */\n      dup3\n        /* \"--CODEGEN--\":4631:4632   */\n      dup2\n        /* \"--CODEGEN--\":4628:4641   */\n      lt\n        /* \"--CODEGEN--\":4620:4750   */\n      iszero\n      tag_155\n      jumpi\n        /* \"--CODEGEN--\":4699:4706   */\n      dup2\n        /* \"--CODEGEN--\":4693:4707   */\n      sload\n        /* \"--CODEGEN--\":4689:4690   */\n      dup2\n        /* \"--CODEGEN--\":4684:4687   */\n      dup10\n        /* \"--CODEGEN--\":4680:4691   */\n      add\n        /* \"--CODEGEN--\":4673:4708   */\n      mstore\n        /* \"--CODEGEN--\":4740:4741   */\n      0x01\n        /* \"--CODEGEN--\":4731:4738   */\n      dup3\n        /* \"--CODEGEN--\":4727:4742   */\n      add\n        /* \"--CODEGEN--\":4716:4742   */\n      swap2\n      pop\n        /* \"--CODEGEN--\":4656:4660   */\n      0x20\n        /* \"--CODEGEN--\":4653:4654   */\n      dup2\n        /* \"--CODEGEN--\":4649:4661   */\n      add\n        /* \"--CODEGEN--\":4644:4661   */\n      swap1\n      pop\n        /* \"--CODEGEN--\":4620:4750   */\n      jump(tag_154)\n    tag_155:\n        /* \"--CODEGEN--\":4773:4774   */\n      dup1\n        /* \"--CODEGEN--\":4768:4771   */\n      dup9\n        /* \"--CODEGEN--\":4764:4775   */\n      add\n        /* \"--CODEGEN--\":4757:4775   */\n      swap6\n      pop\n        /* \"--CODEGEN--\":4418:4782   */\n      pop\n      pop\n      pop\n        /* \"--CODEGEN--\":4175:4782   */\n    tag_149:\n      pop\n        /* \"--CODEGEN--\":4133:4788   */\n      pop\n      swap3\n      swap2\n      pop\n      pop\n      jump\n        /* \"--CODEGEN--\":4855:6906   */\n    tag_122:\n      0x00\n        /* \"--CODEGEN--\":4992:4997   */\n      0x0140\n        /* \"--CODEGEN--\":4987:4990   */\n      dup4\n        /* \"--CODEGEN--\":4983:4998   */\n      add\n        /* \"--CODEGEN--\":5083:5086   */\n      0x00\n        /* \"--CODEGEN--\":5076:5081   */\n      dup4\n        /* \"--CODEGEN--\":5072:5087   */\n      add\n        /* \"--CODEGEN--\":5066:5088   */\n      mload\n        /* \"--CODEGEN--\":5100:5161   */\n      tag_158\n        /* \"--CODEGEN--\":5156:5159   */\n      0x00\n        /* \"--CODEGEN--\":5151:5154   */\n      dup7\n        /* \"--CODEGEN--\":5147:5160   */\n      add\n        /* \"--CODEGEN--\":5134:5145   */\n      dup3\n        /* \"--CODEGEN--\":5100:5161   */\n      jump(tag_109)\n    tag_158:\n        /* \"--CODEGEN--\":5013:5173   */\n      pop\n        /* \"--CODEGEN--\":5252:5256   */\n      0x20\n        /* \"--CODEGEN--\":5245:5250   */\n      dup4\n        /* \"--CODEGEN--\":5241:5257   */\n      add\n        /* \"--CODEGEN--\":5235:5258   */\n      mload\n        /* \"--CODEGEN--\":5270:5332   */\n      tag_159\n        /* \"--CODEGEN--\":5326:5330   */\n      0x20\n        /* \"--CODEGEN--\":5321:5324   */\n      dup7\n        /* \"--CODEGEN--\":5317:5331   */\n      add\n        /* \"--CODEGEN--\":5304:5315   */\n      dup3\n        /* \"--CODEGEN--\":5270:5332   */\n      jump(tag_109)\n    tag_159:\n        /* \"--CODEGEN--\":5183:5344   */\n      pop\n        /* \"--CODEGEN--\":5421:5425   */\n      0x40\n        /* \"--CODEGEN--\":5414:5419   */\n      dup4\n        /* \"--CODEGEN--\":5410:5426   */\n      add\n        /* \"--CODEGEN--\":5404:5427   */\n      mload\n        /* \"--CODEGEN--\":5472:5475   */\n      dup5\n        /* \"--CODEGEN--\":5466:5470   */\n      dup3\n        /* \"--CODEGEN--\":5462:5476   */\n      sub\n        /* \"--CODEGEN--\":5455:5459   */\n      0x40\n        /* \"--CODEGEN--\":5450:5453   */\n      dup7\n        /* \"--CODEGEN--\":5446:5460   */\n      add\n        /* \"--CODEGEN--\":5439:5477   */\n      mstore\n        /* \"--CODEGEN--\":5492:5560   */\n      tag_160\n        /* \"--CODEGEN--\":5555:5559   */\n      dup3\n        /* \"--CODEGEN--\":5542:5553   */\n      dup3\n        /* \"--CODEGEN--\":5492:5560   */\n      jump(tag_142)\n    tag_160:\n        /* \"--CODEGEN--\":5484:5560   */\n      swap2\n      pop\n        /* \"--CODEGEN--\":5354:5572   */\n      pop\n        /* \"--CODEGEN--\":5651:5655   */\n      0x60\n        /* \"--CODEGEN--\":5644:5649   */\n      dup4\n        /* \"--CODEGEN--\":5640:5656   */\n      add\n        /* \"--CODEGEN--\":5634:5657   */\n      mload\n        /* \"--CODEGEN--\":5702:5705   */\n      dup5\n        /* \"--CODEGEN--\":5696:5700   */\n      dup3\n        /* \"--CODEGEN--\":5692:5706   */\n      sub\n        /* \"--CODEGEN--\":5685:5689   */\n      0x60\n        /* \"--CODEGEN--\":5680:5683   */\n      dup7\n        /* \"--CODEGEN--\":5676:5690   */\n      add\n        /* \"--CODEGEN--\":5669:5707   */\n      mstore\n        /* \"--CODEGEN--\":5722:5790   */\n      tag_161\n        /* \"--CODEGEN--\":5785:5789   */\n      dup3\n        /* \"--CODEGEN--\":5772:5783   */\n      dup3\n        /* \"--CODEGEN--\":5722:5790   */\n      jump(tag_142)\n    tag_161:\n        /* \"--CODEGEN--\":5714:5790   */\n      swap2\n      pop\n        /* \"--CODEGEN--\":5582:5802   */\n      pop\n        /* \"--CODEGEN--\":5880:5884   */\n      0x80\n        /* \"--CODEGEN--\":5873:5878   */\n      dup4\n        /* \"--CODEGEN--\":5869:5885   */\n      add\n        /* \"--CODEGEN--\":5863:5886   */\n      mload\n        /* \"--CODEGEN--\":5898:5954   */\n      tag_162\n        /* \"--CODEGEN--\":5948:5952   */\n      0x80\n        /* \"--CODEGEN--\":5943:5946   */\n      dup7\n        /* \"--CODEGEN--\":5939:5953   */\n      add\n        /* \"--CODEGEN--\":5926:5937   */\n      dup3\n        /* \"--CODEGEN--\":5898:5954   */\n      jump(tag_126)\n    tag_162:\n        /* \"--CODEGEN--\":5812:5966   */\n      pop\n        /* \"--CODEGEN--\":6043:6047   */\n      0xa0\n        /* \"--CODEGEN--\":6036:6041   */\n      dup4\n        /* \"--CODEGEN--\":6032:6048   */\n      add\n        /* \"--CODEGEN--\":6026:6049   */\n      mload\n        /* \"--CODEGEN--\":6061:6117   */\n      tag_163\n        /* \"--CODEGEN--\":6111:6115   */\n      0xa0\n        /* \"--CODEGEN--\":6106:6109   */\n      dup7\n        /* \"--CODEGEN--\":6102:6116   */\n      add\n        /* \"--CODEGEN--\":6089:6100   */\n      dup3\n        /* \"--CODEGEN--\":6061:6117   */\n      jump(tag_126)\n    tag_163:\n        /* \"--CODEGEN--\":5976:6129   */\n      pop\n        /* \"--CODEGEN--\":6206:6210   */\n      0xc0\n        /* \"--CODEGEN--\":6199:6204   */\n      dup4\n        /* \"--CODEGEN--\":6195:6211   */\n      add\n        /* \"--CODEGEN--\":6189:6212   */\n      mload\n        /* \"--CODEGEN--\":6257:6260   */\n      dup5\n        /* \"--CODEGEN--\":6251:6255   */\n      dup3\n        /* \"--CODEGEN--\":6247:6261   */\n      sub\n        /* \"--CODEGEN--\":6240:6244   */\n      0xc0\n        /* \"--CODEGEN--\":6235:6238   */\n      dup7\n        /* \"--CODEGEN--\":6231:6245   */\n      add\n        /* \"--CODEGEN--\":6224:6262   */\n      mstore\n        /* \"--CODEGEN--\":6277:6345   */\n      tag_164\n        /* \"--CODEGEN--\":6340:6344   */\n      dup3\n        /* \"--CODEGEN--\":6327:6338   */\n      dup3\n        /* \"--CODEGEN--\":6277:6345   */\n      jump(tag_142)\n    tag_164:\n        /* \"--CODEGEN--\":6269:6345   */\n      swap2\n      pop\n        /* \"--CODEGEN--\":6139:6357   */\n      pop\n        /* \"--CODEGEN--\":6434:6438   */\n      0xe0\n        /* \"--CODEGEN--\":6427:6432   */\n      dup4\n        /* \"--CODEGEN--\":6423:6439   */\n      add\n        /* \"--CODEGEN--\":6417:6440   */\n      mload\n        /* \"--CODEGEN--\":6452:6514   */\n      tag_165\n        /* \"--CODEGEN--\":6508:6512   */\n      0xe0\n        /* \"--CODEGEN--\":6503:6506   */\n      dup7\n        /* \"--CODEGEN--\":6499:6513   */\n      add\n        /* \"--CODEGEN--\":6486:6497   */\n      dup3\n        /* \"--CODEGEN--\":6452:6514   */\n      jump(tag_166)\n    tag_165:\n        /* \"--CODEGEN--\":6367:6526   */\n      pop\n        /* \"--CODEGEN--\":6606:6611   */\n      0x0100\n        /* \"--CODEGEN--\":6599:6604   */\n      dup4\n        /* \"--CODEGEN--\":6595:6612   */\n      add\n        /* \"--CODEGEN--\":6589:6613   */\n      mload\n        /* \"--CODEGEN--\":6625:6682   */\n      tag_167\n        /* \"--CODEGEN--\":6675:6680   */\n      0x0100\n        /* \"--CODEGEN--\":6670:6673   */\n      dup7\n        /* \"--CODEGEN--\":6666:6681   */\n      add\n        /* \"--CODEGEN--\":6653:6664   */\n      dup3\n        /* \"--CODEGEN--\":6625:6682   */\n      jump(tag_126)\n    tag_167:\n        /* \"--CODEGEN--\":6536:6694   */\n      pop\n        /* \"--CODEGEN--\":6786:6791   */\n      0x0120\n        /* \"--CODEGEN--\":6779:6784   */\n      dup4\n        /* \"--CODEGEN--\":6775:6792   */\n      add\n        /* \"--CODEGEN--\":6769:6793   */\n      mload\n        /* \"--CODEGEN--\":6805:6868   */\n      tag_168\n        /* \"--CODEGEN--\":6861:6866   */\n      0x0120\n        /* \"--CODEGEN--\":6856:6859   */\n      dup7\n        /* \"--CODEGEN--\":6852:6867   */\n      add\n        /* \"--CODEGEN--\":6839:6850   */\n      dup3\n        /* \"--CODEGEN--\":6805:6868   */\n      jump(tag_166)\n    tag_168:\n        /* \"--CODEGEN--\":6704:6880   */\n      pop\n        /* \"--CODEGEN--\":6897:6901   */\n      dup1\n        /* \"--CODEGEN--\":6890:6901   */\n      swap2\n      pop\n        /* \"--CODEGEN--\":4965:6906   */\n      pop\n      swap3\n      swap2\n      pop\n      pop\n      jump\n        /* \"--CODEGEN--\":6913:7023   */\n    tag_166:\n        /* \"--CODEGEN--\":6986:7017   */\n      tag_170\n        /* \"--CODEGEN--\":7011:7016   */\n      dup2\n        /* \"--CODEGEN--\":6986:7017   */\n      jump(tag_171)\n    tag_170:\n        /* \"--CODEGEN--\":6981:6984   */\n      dup3\n        /* \"--CODEGEN--\":6974:7018   */\n      mstore\n        /* \"--CODEGEN--\":6968:7023   */\n      pop\n      pop\n      jump\n        /* \"--CODEGEN--\":7030:8423   */\n    tag_9:\n      0x00\n        /* \"--CODEGEN--\":7482:7485   */\n      0x0100\n        /* \"--CODEGEN--\":7471:7480   */\n      dup3\n        /* \"--CODEGEN--\":7467:7486   */\n      add\n        /* \"--CODEGEN--\":7459:7486   */\n      swap1\n      pop\n        /* \"--CODEGEN--\":7497:7558   */\n      tag_173\n        /* \"--CODEGEN--\":7555:7556   */\n      0x00\n        /* \"--CODEGEN--\":7544:7553   */\n      dup4\n        /* \"--CODEGEN--\":7540:7557   */\n      add\n        /* \"--CODEGEN--\":7531:7537   */\n      dup12\n        /* \"--CODEGEN--\":7497:7558   */\n      jump(tag_109)\n    tag_173:\n        /* \"--CODEGEN--\":7569:7631   */\n      tag_174\n        /* \"--CODEGEN--\":7627:7629   */\n      0x20\n        /* \"--CODEGEN--\":7616:7625   */\n      dup4\n        /* \"--CODEGEN--\":7612:7630   */\n      add\n        /* \"--CODEGEN--\":7603:7609   */\n      dup11\n        /* \"--CODEGEN--\":7569:7631   */\n      jump(tag_109)\n    tag_174:\n        /* \"--CODEGEN--\":7679:7688   */\n      dup2\n        /* \"--CODEGEN--\":7673:7677   */\n      dup2\n        /* \"--CODEGEN--\":7669:7689   */\n      sub\n        /* \"--CODEGEN--\":7664:7666   */\n      0x40\n        /* \"--CODEGEN--\":7653:7662   */\n      dup4\n        /* \"--CODEGEN--\":7649:7667   */\n      add\n        /* \"--CODEGEN--\":7642:7690   */\n      mstore\n        /* \"--CODEGEN--\":7704:7772   */\n      tag_175\n        /* \"--CODEGEN--\":7767:7771   */\n      dup2\n        /* \"--CODEGEN--\":7758:7764   */\n      dup10\n        /* \"--CODEGEN--\":7704:7772   */\n      jump(tag_134)\n    tag_175:\n        /* \"--CODEGEN--\":7696:7772   */\n      swap1\n      pop\n        /* \"--CODEGEN--\":7783:7843   */\n      tag_176\n        /* \"--CODEGEN--\":7839:7841   */\n      0x60\n        /* \"--CODEGEN--\":7828:7837   */\n      dup4\n        /* \"--CODEGEN--\":7824:7842   */\n      add\n        /* \"--CODEGEN--\":7815:7821   */\n      dup9\n        /* \"--CODEGEN--\":7783:7843   */\n      jump(tag_130)\n    tag_176:\n        /* \"--CODEGEN--\":7892:7901   */\n      dup2\n        /* \"--CODEGEN--\":7886:7890   */\n      dup2\n        /* \"--CODEGEN--\":7882:7902   */\n      sub\n        /* \"--CODEGEN--\":7876:7879   */\n      0x80\n        /* \"--CODEGEN--\":7865:7874   */\n      dup4\n        /* \"--CODEGEN--\":7861:7880   */\n      add\n        /* \"--CODEGEN--\":7854:7903   */\n      mstore\n        /* \"--CODEGEN--\":7917:7985   */\n      tag_177\n        /* \"--CODEGEN--\":7980:7984   */\n      dup2\n        /* \"--CODEGEN--\":7971:7977   */\n      dup8\n        /* \"--CODEGEN--\":7917:7985   */\n      jump(tag_134)\n    tag_177:\n        /* \"--CODEGEN--\":7909:7985   */\n      swap1\n      pop\n        /* \"--CODEGEN--\":8034:8043   */\n      dup2\n        /* \"--CODEGEN--\":8028:8032   */\n      dup2\n        /* \"--CODEGEN--\":8024:8044   */\n      sub\n        /* \"--CODEGEN--\":8018:8021   */\n      0xa0\n        /* \"--CODEGEN--\":8007:8016   */\n      dup4\n        /* \"--CODEGEN--\":8003:8022   */\n      add\n        /* \"--CODEGEN--\":7996:8045   */\n      mstore\n        /* \"--CODEGEN--\":8059:8127   */\n      tag_178\n        /* \"--CODEGEN--\":8122:8126   */\n      dup2\n        /* \"--CODEGEN--\":8113:8119   */\n      dup7\n        /* \"--CODEGEN--\":8059:8127   */\n      jump(tag_134)\n    tag_178:\n        /* \"--CODEGEN--\":8051:8127   */\n      swap1\n      pop\n        /* \"--CODEGEN--\":8138:8199   */\n      tag_179\n        /* \"--CODEGEN--\":8194:8197   */\n      0xc0\n        /* \"--CODEGEN--\":8183:8192   */\n      dup4\n        /* \"--CODEGEN--\":8179:8198   */\n      add\n        /* \"--CODEGEN--\":8170:8176   */\n      dup6\n        /* \"--CODEGEN--\":8138:8199   */\n      jump(tag_130)\n    tag_179:\n        /* \"--CODEGEN--\":8248:8257   */\n      dup2\n        /* \"--CODEGEN--\":8242:8246   */\n      dup2\n        /* \"--CODEGEN--\":8238:8258   */\n      sub\n        /* \"--CODEGEN--\":8232:8235   */\n      0xe0\n        /* \"--CODEGEN--\":8221:8230   */\n      dup4\n        /* \"--CODEGEN--\":8217:8236   */\n      add\n        /* \"--CODEGEN--\":8210:8259   */\n      mstore\n        /* \"--CODEGEN--\":8273:8413   */\n      tag_180\n        /* \"--CODEGEN--\":8408:8412   */\n      dup2\n        /* \"--CODEGEN--\":8399:8405   */\n      dup5\n        /* \"--CODEGEN--\":8273:8413   */\n      jump(tag_113)\n    tag_180:\n        /* \"--CODEGEN--\":8265:8413   */\n      swap1\n      pop\n        /* \"--CODEGEN--\":7453:8423   */\n      swap10\n      swap9\n      pop\n      pop\n      pop\n      pop\n      pop\n      pop\n      pop\n      pop\n      pop\n      jump\n        /* \"--CODEGEN--\":8430:9857   */\n    tag_61:\n      0x00\n        /* \"--CODEGEN--\":8853:8856   */\n      0x0140\n        /* \"--CODEGEN--\":8842:8851   */\n      dup3\n        /* \"--CODEGEN--\":8838:8857   */\n      add\n        /* \"--CODEGEN--\":8830:8857   */\n      swap1\n      pop\n        /* \"--CODEGEN--\":8868:8929   */\n      tag_182\n        /* \"--CODEGEN--\":8926:8927   */\n      0x00\n        /* \"--CODEGEN--\":8915:8924   */\n      dup4\n        /* \"--CODEGEN--\":8911:8928   */\n      add\n        /* \"--CODEGEN--\":8902:8908   */\n      dup14\n        /* \"--CODEGEN--\":8868:8929   */\n      jump(tag_109)\n    tag_182:\n        /* \"--CODEGEN--\":8940:9002   */\n      tag_183\n        /* \"--CODEGEN--\":8998:9000   */\n      0x20\n        /* \"--CODEGEN--\":8987:8996   */\n      dup4\n        /* \"--CODEGEN--\":8983:9001   */\n      add\n        /* \"--CODEGEN--\":8974:8980   */\n      dup13\n        /* \"--CODEGEN--\":8940:9002   */\n      jump(tag_109)\n    tag_183:\n        /* \"--CODEGEN--\":9050:9059   */\n      dup2\n        /* \"--CODEGEN--\":9044:9048   */\n      dup2\n        /* \"--CODEGEN--\":9040:9060   */\n      sub\n        /* \"--CODEGEN--\":9035:9037   */\n      0x40\n        /* \"--CODEGEN--\":9024:9033   */\n      dup4\n        /* \"--CODEGEN--\":9020:9038   */\n      add\n        /* \"--CODEGEN--\":9013:9061   */\n      mstore\n        /* \"--CODEGEN--\":9075:9143   */\n      tag_184\n        /* \"--CODEGEN--\":9138:9142   */\n      dup2\n        /* \"--CODEGEN--\":9129:9135   */\n      dup12\n        /* \"--CODEGEN--\":9075:9143   */\n      jump(tag_134)\n    tag_184:\n        /* \"--CODEGEN--\":9067:9143   */\n      swap1\n      pop\n        /* \"--CODEGEN--\":9191:9200   */\n      dup2\n        /* \"--CODEGEN--\":9185:9189   */\n      dup2\n        /* \"--CODEGEN--\":9181:9201   */\n      sub\n        /* \"--CODEGEN--\":9176:9178   */\n      0x60\n        /* \"--CODEGEN--\":9165:9174   */\n      dup4\n        /* \"--CODEGEN--\":9161:9179   */\n      add\n        /* \"--CODEGEN--\":9154:9202   */\n      mstore\n        /* \"--CODEGEN--\":9216:9284   */\n      tag_185\n        /* \"--CODEGEN--\":9279:9283   */\n      dup2\n        /* \"--CODEGEN--\":9270:9276   */\n      dup11\n        /* \"--CODEGEN--\":9216:9284   */\n      jump(tag_134)\n    tag_185:\n        /* \"--CODEGEN--\":9208:9284   */\n      swap1\n      pop\n        /* \"--CODEGEN--\":9333:9342   */\n      dup2\n        /* \"--CODEGEN--\":9327:9331   */\n      dup2\n        /* \"--CODEGEN--\":9323:9343   */\n      sub\n        /* \"--CODEGEN--\":9317:9320   */\n      0x80\n        /* \"--CODEGEN--\":9306:9315   */\n      dup4\n        /* \"--CODEGEN--\":9302:9321   */\n      add\n        /* \"--CODEGEN--\":9295:9344   */\n      mstore\n        /* \"--CODEGEN--\":9358:9426   */\n      tag_186\n        /* \"--CODEGEN--\":9421:9425   */\n      dup2\n        /* \"--CODEGEN--\":9412:9418   */\n      dup10\n        /* \"--CODEGEN--\":9358:9426   */\n      jump(tag_134)\n    tag_186:\n        /* \"--CODEGEN--\":9350:9426   */\n      swap1\n      pop\n        /* \"--CODEGEN--\":9437:9494   */\n      tag_187\n        /* \"--CODEGEN--\":9489:9492   */\n      0xa0\n        /* \"--CODEGEN--\":9478:9487   */\n      dup4\n        /* \"--CODEGEN--\":9474:9493   */\n      add\n        /* \"--CODEGEN--\":9465:9471   */\n      dup9\n        /* \"--CODEGEN--\":9437:9494   */\n      jump(tag_126)\n    tag_187:\n        /* \"--CODEGEN--\":9505:9562   */\n      tag_188\n        /* \"--CODEGEN--\":9557:9560   */\n      0xc0\n        /* \"--CODEGEN--\":9546:9555   */\n      dup4\n        /* \"--CODEGEN--\":9542:9561   */\n      add\n        /* \"--CODEGEN--\":9533:9539   */\n      dup8\n        /* \"--CODEGEN--\":9505:9562   */\n      jump(tag_126)\n    tag_188:\n        /* \"--CODEGEN--\":9573:9636   */\n      tag_189\n        /* \"--CODEGEN--\":9631:9634   */\n      0xe0\n        /* \"--CODEGEN--\":9620:9629   */\n      dup4\n        /* \"--CODEGEN--\":9616:9635   */\n      add\n        /* \"--CODEGEN--\":9607:9613   */\n      dup7\n        /* \"--CODEGEN--\":9573:9636   */\n      jump(tag_166)\n    tag_189:\n        /* \"--CODEGEN--\":9647:9708   */\n      tag_190\n        /* \"--CODEGEN--\":9703:9706   */\n      0x0100\n        /* \"--CODEGEN--\":9692:9701   */\n      dup4\n        /* \"--CODEGEN--\":9688:9707   */\n      add\n        /* \"--CODEGEN--\":9679:9685   */\n      dup6\n        /* \"--CODEGEN--\":9647:9708   */\n      jump(tag_130)\n    tag_190:\n        /* \"--CODEGEN--\":9757:9766   */\n      dup2\n        /* \"--CODEGEN--\":9751:9755   */\n      dup2\n        /* \"--CODEGEN--\":9747:9767   */\n      sub\n        /* \"--CODEGEN--\":9741:9744   */\n      0x0120\n        /* \"--CODEGEN--\":9730:9739   */\n      dup4\n        /* \"--CODEGEN--\":9726:9745   */\n      add\n        /* \"--CODEGEN--\":9719:9768   */\n      mstore\n        /* \"--CODEGEN--\":9782:9847   */\n      tag_191\n        /* \"--CODEGEN--\":9842:9846   */\n      dup2\n        /* \"--CODEGEN--\":9833:9839   */\n      dup5\n        /* \"--CODEGEN--\":9782:9847   */\n      jump(tag_148)\n    tag_191:\n        /* \"--CODEGEN--\":9774:9847   */\n      swap1\n      pop\n        /* \"--CODEGEN--\":8824:9857   */\n      swap12\n      swap11\n      pop\n      pop\n      pop\n      pop\n      pop\n      pop\n      pop\n      pop\n      pop\n      pop\n      pop\n      jump\n        /* \"--CODEGEN--\":9864:10120   */\n    tag_87:\n      0x00\n        /* \"--CODEGEN--\":9926:9928   */\n      0x40\n        /* \"--CODEGEN--\":9920:9929   */\n      mload\n        /* \"--CODEGEN--\":9910:9929   */\n      swap1\n      pop\n        /* \"--CODEGEN--\":9964:9968   */\n      dup2\n        /* \"--CODEGEN--\":9956:9962   */\n      dup2\n        /* \"--CODEGEN--\":9952:9969   */\n      add\n        /* \"--CODEGEN--\":10063:10069   */\n      dup2\n        /* \"--CODEGEN--\":10051:10061   */\n      dup2\n        /* \"--CODEGEN--\":10048:10070   */\n      lt\n        /* \"--CODEGEN--\":10027:10045   */\n      0xffffffffffffffff\n        /* \"--CODEGEN--\":10015:10025   */\n      dup3\n        /* \"--CODEGEN--\":10012:10046   */\n      gt\n        /* \"--CODEGEN--\":10009:10071   */\n      or\n        /* \"--CODEGEN--\":10006:10008   */\n      iszero\n      tag_193\n      jumpi\n        /* \"--CODEGEN--\":10084:10085   */\n      0x00\n        /* \"--CODEGEN--\":10081:10082   */\n      dup1\n        /* \"--CODEGEN--\":10074:10086   */\n      revert\n        /* \"--CODEGEN--\":10006:10008   */\n    tag_193:\n        /* \"--CODEGEN--\":10104:10114   */\n      dup1\n        /* \"--CODEGEN--\":10100:10102   */\n      0x40\n        /* \"--CODEGEN--\":10093:10115   */\n      mstore\n        /* \"--CODEGEN--\":9904:10120   */\n      pop\n      swap2\n      swap1\n      pop\n      jump\n        /* \"--CODEGEN--\":10127:10386   */\n    tag_86:\n      0x00\n        /* \"--CODEGEN--\":10271:10289   */\n      0xffffffffffffffff\n        /* \"--CODEGEN--\":10263:10269   */\n      dup3\n        /* \"--CODEGEN--\":10260:10290   */\n      gt\n        /* \"--CODEGEN--\":10257:10259   */\n      iszero\n      tag_195\n      jumpi\n        /* \"--CODEGEN--\":10303:10304   */\n      0x00\n        /* \"--CODEGEN--\":10300:10301   */\n      dup1\n        /* \"--CODEGEN--\":10293:10305   */\n      revert\n        /* \"--CODEGEN--\":10257:10259   */\n    tag_195:\n        /* \"--CODEGEN--\":10347:10351   */\n      0x1f\n        /* \"--CODEGEN--\":10343:10352   */\n      not\n        /* \"--CODEGEN--\":10336:10340   */\n      0x1f\n        /* \"--CODEGEN--\":10328:10334   */\n      dup4\n        /* \"--CODEGEN--\":10324:10341   */\n      add\n        /* \"--CODEGEN--\":10320:10353   */\n      and\n        /* \"--CODEGEN--\":10312:10353   */\n      swap1\n      pop\n        /* \"--CODEGEN--\":10376:10380   */\n      0x20\n        /* \"--CODEGEN--\":10370:10374   */\n      dup2\n        /* \"--CODEGEN--\":10366:10381   */\n      add\n        /* \"--CODEGEN--\":10358:10381   */\n      swap1\n      pop\n        /* \"--CODEGEN--\":10194:10386   */\n      swap2\n      swap1\n      pop\n      jump\n        /* \"--CODEGEN--\":10395:10537   */\n    tag_117:\n      0x00\n        /* \"--CODEGEN--\":10525:10529   */\n      0x20\n        /* \"--CODEGEN--\":10517:10523   */\n      dup3\n        /* \"--CODEGEN--\":10513:10530   */\n      add\n        /* \"--CODEGEN--\":10502:10530   */\n      swap1\n      pop\n        /* \"--CODEGEN--\":10494:10537   */\n      swap2\n      swap1\n      pop\n      jump\n        /* \"--CODEGEN--\":10548:10674   */\n    tag_153:\n      0x00\n        /* \"--CODEGEN--\":10625:10629   */\n      dup2\n        /* \"--CODEGEN--\":10622:10623   */\n      0x00\n        /* \"--CODEGEN--\":10615:10630   */\n      mstore\n        /* \"--CODEGEN--\":10662:10666   */\n      0x20\n        /* \"--CODEGEN--\":10659:10660   */\n      0x00\n        /* \"--CODEGEN--\":10649:10667   */\n      keccak256\n        /* \"--CODEGEN--\":10637:10667   */\n      swap1\n      pop\n        /* \"--CODEGEN--\":10607:10674   */\n      swap2\n      swap1\n      pop\n      jump\n        /* \"--CODEGEN--\":10683:10811   */\n    tag_115:\n      0x00\n        /* \"--CODEGEN--\":10800:10805   */\n      dup2\n        /* \"--CODEGEN--\":10794:10806   */\n      mload\n        /* \"--CODEGEN--\":10784:10806   */\n      swap1\n      pop\n        /* \"--CODEGEN--\":10778:10811   */\n      swap2\n      swap1\n      pop\n      jump\n        /* \"--CODEGEN--\":10818:10906   */\n    tag_144:\n      0x00\n        /* \"--CODEGEN--\":10895:10900   */\n      dup2\n        /* \"--CODEGEN--\":10889:10901   */\n      mload\n        /* \"--CODEGEN--\":10879:10901   */\n      swap1\n      pop\n        /* \"--CODEGEN--\":10873:10906   */\n      swap2\n      swap1\n      pop\n      jump\n        /* \"--CODEGEN--\":10913:11005   */\n    tag_136:\n      0x00\n        /* \"--CODEGEN--\":10994:10999   */\n      dup2\n        /* \"--CODEGEN--\":10988:11000   */\n      mload\n        /* \"--CODEGEN--\":10978:11000   */\n      swap1\n      pop\n        /* \"--CODEGEN--\":10972:11005   */\n      swap2\n      swap1\n      pop\n      jump\n        /* \"--CODEGEN--\":11013:11156   */\n    tag_124:\n      0x00\n        /* \"--CODEGEN--\":11145:11149   */\n      0x20\n        /* \"--CODEGEN--\":11137:11143   */\n      dup3\n        /* \"--CODEGEN--\":11133:11150   */\n      add\n        /* \"--CODEGEN--\":11122:11150   */\n      swap1\n      pop\n        /* \"--CODEGEN--\":11115:11156   */\n      swap2\n      swap1\n      pop\n      jump\n        /* \"--CODEGEN--\":11164:11269   */\n    tag_111:\n      0x00\n        /* \"--CODEGEN--\":11233:11264   */\n      tag_203\n        /* \"--CODEGEN--\":11258:11263   */\n      dup3\n        /* \"--CODEGEN--\":11233:11264   */\n      jump(tag_204)\n    tag_203:\n        /* \"--CODEGEN--\":11222:11264   */\n      swap1\n      pop\n        /* \"--CODEGEN--\":11216:11269   */\n      swap2\n      swap1\n      pop\n      jump\n        /* \"--CODEGEN--\":11276:11368   */\n    tag_128:\n      0x00\n        /* \"--CODEGEN--\":11356:11361   */\n      dup2\n        /* \"--CODEGEN--\":11349:11362   */\n      iszero\n        /* \"--CODEGEN--\":11342:11363   */\n      iszero\n        /* \"--CODEGEN--\":11331:11363   */\n      swap1\n      pop\n        /* \"--CODEGEN--\":11325:11368   */\n      swap2\n      swap1\n      pop\n      jump\n        /* \"--CODEGEN--\":11375:11453   */\n    tag_132:\n      0x00\n        /* \"--CODEGEN--\":11443:11448   */\n      dup2\n        /* \"--CODEGEN--\":11432:11448   */\n      swap1\n      pop\n        /* \"--CODEGEN--\":11426:11453   */\n      swap2\n      swap1\n      pop\n      jump\n        /* \"--CODEGEN--\":11460:11588   */\n    tag_204:\n      0x00\n        /* \"--CODEGEN--\":11540:11582   */\n      0xffffffffffffffffffffffffffffffffffffffff\n        /* \"--CODEGEN--\":11533:11538   */\n      dup3\n        /* \"--CODEGEN--\":11529:11583   */\n      and\n        /* \"--CODEGEN--\":11518:11583   */\n      swap1\n      pop\n        /* \"--CODEGEN--\":11512:11588   */\n      swap2\n      swap1\n      pop\n      jump\n        /* \"--CODEGEN--\":11595:11674   */\n    tag_171:\n      0x00\n        /* \"--CODEGEN--\":11664:11669   */\n      dup2\n        /* \"--CODEGEN--\":11653:11669   */\n      swap1\n      pop\n        /* \"--CODEGEN--\":11647:11674   */\n      swap2\n      swap1\n      pop\n      jump\n        /* \"--CODEGEN--\":11681:11786   */\n    tag_76:\n      0x00\n        /* \"--CODEGEN--\":11750:11781   */\n      tag_210\n        /* \"--CODEGEN--\":11775:11780   */\n      dup3\n        /* \"--CODEGEN--\":11750:11781   */\n      jump(tag_204)\n    tag_210:\n        /* \"--CODEGEN--\":11739:11781   */\n      swap1\n      pop\n        /* \"--CODEGEN--\":11733:11786   */\n      swap2\n      swap1\n      pop\n      jump\n        /* \"--CODEGEN--\":11793:11885   */\n    tag_80:\n      0x00\n        /* \"--CODEGEN--\":11873:11878   */\n      dup2\n        /* \"--CODEGEN--\":11866:11879   */\n      iszero\n        /* \"--CODEGEN--\":11859:11880   */\n      iszero\n        /* \"--CODEGEN--\":11848:11880   */\n      swap1\n      pop\n        /* \"--CODEGEN--\":11842:11885   */\n      swap2\n      swap1\n      pop\n      jump\n        /* \"--CODEGEN--\":11892:11971   */\n    tag_94:\n      0x00\n        /* \"--CODEGEN--\":11961:11966   */\n      dup2\n        /* \"--CODEGEN--\":11950:11966   */\n      swap1\n      pop\n        /* \"--CODEGEN--\":11944:11971   */\n      swap2\n      swap1\n      pop\n      jump\n        /* \"--CODEGEN--\":11979:12124   */\n    tag_90:\n        /* \"--CODEGEN--\":12060:12066   */\n      dup3\n        /* \"--CODEGEN--\":12055:12058   */\n      dup2\n        /* \"--CODEGEN--\":12050:12053   */\n      dup4\n        /* \"--CODEGEN--\":12037:12067   */\n      calldatacopy\n        /* \"--CODEGEN--\":12116:12117   */\n      0x00\n        /* \"--CODEGEN--\":12107:12113   */\n      dup4\n        /* \"--CODEGEN--\":12102:12105   */\n      dup4\n        /* \"--CODEGEN--\":12098:12114   */\n      add\n        /* \"--CODEGEN--\":12091:12118   */\n      mstore\n        /* \"--CODEGEN--\":12030:12124   */\n      pop\n      pop\n      pop\n      jump\n        /* \"--CODEGEN--\":12133:12401   */\n    tag_138:\n        /* \"--CODEGEN--\":12198:12199   */\n      0x00\n        /* \"--CODEGEN--\":12205:12306   */\n    tag_215:\n        /* \"--CODEGEN--\":12219:12225   */\n      dup4\n        /* \"--CODEGEN--\":12216:12217   */\n      dup2\n        /* \"--CODEGEN--\":12213:12226   */\n      lt\n        /* \"--CODEGEN--\":12205:12306   */\n      iszero\n      tag_216\n      jumpi\n        /* \"--CODEGEN--\":12295:12296   */\n      dup1\n        /* \"--CODEGEN--\":12290:12293   */\n      dup3\n        /* \"--CODEGEN--\":12286:12297   */\n      add\n        /* \"--CODEGEN--\":12280:12298   */\n      mload\n        /* \"--CODEGEN--\":12276:12277   */\n      dup2\n        /* \"--CODEGEN--\":12271:12274   */\n      dup5\n        /* \"--CODEGEN--\":12267:12278   */\n      add\n        /* \"--CODEGEN--\":12260:12299   */\n      mstore\n        /* \"--CODEGEN--\":12241:12243   */\n      0x20\n        /* \"--CODEGEN--\":12238:12239   */\n      dup2\n        /* \"--CODEGEN--\":12234:12244   */\n      add\n        /* \"--CODEGEN--\":12229:12244   */\n      swap1\n      pop\n        /* \"--CODEGEN--\":12205:12306   */\n      jump(tag_215)\n    tag_216:\n        /* \"--CODEGEN--\":12321:12327   */\n      dup4\n        /* \"--CODEGEN--\":12318:12319   */\n      dup2\n        /* \"--CODEGEN--\":12315:12328   */\n      gt\n        /* \"--CODEGEN--\":12312:12314   */\n      iszero\n      tag_218\n      jumpi\n        /* \"--CODEGEN--\":12386:12387   */\n      0x00\n        /* \"--CODEGEN--\":12377:12383   */\n      dup5\n        /* \"--CODEGEN--\":12372:12375   */\n      dup5\n        /* \"--CODEGEN--\":12368:12384   */\n      add\n        /* \"--CODEGEN--\":12361:12388   */\n      mstore\n        /* \"--CODEGEN--\":12312:12314   */\n    tag_218:\n        /* \"--CODEGEN--\":12182:12401   */\n      pop\n      pop\n      pop\n      pop\n      jump\n        /* \"--CODEGEN--\":12409:12506   */\n    tag_140:\n      0x00\n        /* \"--CODEGEN--\":12497:12499   */\n      0x1f\n        /* \"--CODEGEN--\":12493:12500   */\n      not\n        /* \"--CODEGEN--\":12488:12490   */\n      0x1f\n        /* \"--CODEGEN--\":12481:12486   */\n      dup4\n        /* \"--CODEGEN--\":12477:12491   */\n      add\n        /* \"--CODEGEN--\":12473:12501   */\n      and\n        /* \"--CODEGEN--\":12463:12501   */\n      swap1\n      pop\n        /* \"--CODEGEN--\":12457:12506   */\n      swap2\n      swap1\n      pop\n      jump\n\n    auxdata: 0xa265627a7a72305820dccf6279354f885251d36908e7cb6e7322545349ea842a71369d26265be9aa436c6578706572696d656e74616cf50037\n}\n",
    "bytecode": {
      "linkReferences": {},
      "object": "60806040527fffffffffffffffffffffffffffffffffffffffffffffffffffffffffffffffff6007553480156200003557600080fd5b50604051620017a5380380620017a583398101806040526200005b91908101906200027a565b306000806101000a81548173ffffffffffffffffffffffffffffffffffffffff021916908373ffffffffffffffffffffffffffffffffffffffff16021790555085600160006101000a81548173ffffffffffffffffffffffffffffffffffffffff021916908373ffffffffffffffffffffffffffffffffffffffff1602179055508460029080519060200190620000f492919062000141565b5081600490805190602001906200010d92919062000141565b5080600590805190602001906200012692919062000141565b5083600381905550826006819055505050505050506200042a565b828054600181600116156101000203166002900490600052602060002090601f016020900481019282601f106200018457805160ff1916838001178555620001b5565b82800160010185558215620001b5579182015b82811115620001b457825182559160200191906001019062000197565b5b509050620001c49190620001c8565b5090565b620001ed91905b80821115620001e9576000816000905550600101620001cf565b5090565b90565b6000620001fe8251620003d6565b905092915050565b6000620002148251620003ea565b905092915050565b600082601f83011215156200023057600080fd5b815162000247620002418262000389565b6200035b565b915080825260208301602083018583830111156200026457600080fd5b62000271838284620003f4565b50505092915050565b60008060008060008060c087890312156200029457600080fd5b6000620002a489828a01620001f0565b965050602087015167ffffffffffffffff811115620002c257600080fd5b620002d089828a016200021c565b9550506040620002e389828a0162000206565b9450506060620002f689828a0162000206565b935050608087015167ffffffffffffffff8111156200031457600080fd5b6200032289828a016200021c565b92505060a087015167ffffffffffffffff8111156200034057600080fd5b6200034e89828a016200021c565b9150509295509295509295565b6000604051905081810181811067ffffffffffffffff821117156200037f57600080fd5b8060405250919050565b600067ffffffffffffffff821115620003a157600080fd5b601f19601f8301169050602081019050919050565b600073ffffffffffffffffffffffffffffffffffffffff82169050919050565b6000620003e382620003b6565b9050919050565b6000819050919050565b60005b8381101562000414578082015181840152602081019050620003f7565b8381111562000424576000848401525b50505050565b61136b806200043a6000396000f3fe608060405234801561001057600080fd5b506004361061005e576000357c0100000000000000000000000000000000000000000000000000000000900480633bc5de301461006357806372102d181461008857806383bffb88146100a4575b600080fd5b61006b6100c0565b60405161007f98979695949392919061106c565b60405180910390f35b6100a2600480360361009d9190810190610d99565b610661565b005b6100be60048036036100b99190810190610d02565b6107e0565b005b60008060606000606080600060606000809054906101000a900473ffffffffffffffffffffffffffffffffffffffff16600160009054906101000a900473ffffffffffffffffffffffffffffffffffffffff166002600354600460056006546008858054600181600116156101000203166002900480601f0160208091040260200160405190810160405280929190818152602001828054600181600116156101000203166002900480156101b65780601f1061018b576101008083540402835291602001916101b6565b820191906000526020600020905b81548152906001019060200180831161019957829003601f168201915b50505050509550838054600181600116156101000203166002900480601f0160208091040260200160405190810160405280929190818152602001828054600181600116156101000203166002900480156102525780601f1061022757610100808354040283529160200191610252565b820191906000526020600020905b81548152906001019060200180831161023557829003601f168201915b50505050509350828054600181600116156101000203166002900480601f0160208091040260200160405190810160405280929190818152602001828054600181600116156101000203166002900480156102ee5780601f106102c3576101008083540402835291602001916102ee565b820191906000526020600020905b8154815290600101906020018083116102d157829003601f168201915b5050505050925080805480602002602001604051908101604052809291908181526020016000905b82821015610641578382906000526020600020906009020161014060405190810160405290816000820160009054906101000a900473ffffffffffffffffffffffffffffffffffffffff1673ffffffffffffffffffffffffffffffffffffffff1673ffffffffffffffffffffffffffffffffffffffff1681526020016001820160009054906101000a900473ffffffffffffffffffffffffffffffffffffffff1673ffffffffffffffffffffffffffffffffffffffff1673ffffffffffffffffffffffffffffffffffffffff168152602001600282018054600181600116156101000203166002900480601f0160208091040260200160405190810160405280929190818152602001828054600181600116156101000203166002900480156104805780601f1061045557610100808354040283529160200191610480565b820191906000526020600020905b81548152906001019060200180831161046357829003601f168201915b50505050508152602001600382018054600181600116156101000203166002900480601f0160208091040260200160405190810160405280929190818152602001828054600181600116156101000203166002900480156105225780601f106104f757610100808354040283529160200191610522565b820191906000526020600020905b81548152906001019060200180831161050557829003601f168201915b505050505081526020016004820160009054906101000a900460ff161515151581526020016004820160019054906101000a900460ff16151515158152602001600582018054600181600116156101000203166002900480601f0160208091040260200160405190810160405280929190818152602001828054600181600116156101000203166002900480156105fa5780601f106105cf576101008083540402835291602001916105fa565b820191906000526020600020905b8154815290600101906020018083116105dd57829003601f168201915b50505050508152602001600682015481526020016007820160009054906101000a900460ff1615151515815260200160088201548152505081526020019060010190610316565b505050509050975097509750975097509750975097509091929394959697565b600160009054906101000a900473ffffffffffffffffffffffffffffffffffffffff1673ffffffffffffffffffffffffffffffffffffffff168273ffffffffffffffffffffffffffffffffffffffff1614156107db5760011515811515141561073b5760016008848154811015156106d557fe5b906000526020600020906009020160070160006101000a81548160ff021916908315150217905550600160088481548110151561070e57fe5b906000526020600020906009020160040160016101000a81548160ff0219169083151502179055506107ae565b600160088481548110151561074c57fe5b906000526020600020906009020160070160006101000a81548160ff021916908315150217905550600060088481548110151561078557fe5b906000526020600020906009020160040160016101000a81548160ff0219169083151502179055505b7f2b94f1e9999ff685f243474c3b8c30563987b8897fecb35c7cea9ac0f4f5c6bd60405160405180910390a15b505050565b6107e8610b45565b61014060405190810160405280600160009054906101000a900473ffffffffffffffffffffffffffffffffffffffff1673ffffffffffffffffffffffffffffffffffffffff1681526020013073ffffffffffffffffffffffffffffffffffffffff1681526020018481526020018381526020016001151581526020016000151581526020018581526020016001600754018152602001600015158152602001600081525090506008819080600181540180825580915050906001820390600052602060002090600902016000909192909190915060008201518160000160006101000a81548173ffffffffffffffffffffffffffffffffffffffff021916908373ffffffffffffffffffffffffffffffffffffffff16021790555060208201518160010160006101000a81548173ffffffffffffffffffffffffffffffffffffffff021916908373ffffffffffffffffffffffffffffffffffffffff1602179055506040820151816002019080519060200190610966929190610bcb565b506060820151816003019080519060200190610983929190610bcb565b5060808201518160040160006101000a81548160ff02191690831515021790555060a08201518160040160016101000a81548160ff02191690831515021790555060c08201518160050190805190602001906109e0929190610bcb565b5060e082015181600601556101008201518160070160006101000a81548160ff02191690831515021790555061012082015181600801555050506000600160009054906101000a900473ffffffffffffffffffffffffffffffffffffffff1690508073ffffffffffffffffffffffffffffffffffffffff16636fc92e73600160009054906101000a900473ffffffffffffffffffffffffffffffffffffffff163087878a6001600060016007540160035460056040518b63ffffffff167c0100000000000000000000000000000000000000000000000000000000028152600401610ad49a99989796959493929190611106565b600060405180830381600087803b158015610aee57600080fd5b505af1158015610b02573d6000803e3d6000fd5b505050506001600754016007819055507f2b94f1e9999ff685f243474c3b8c30563987b8897fecb35c7cea9ac0f4f5c6bd60405160405180910390a15050505050565b61014060405190810160405280600073ffffffffffffffffffffffffffffffffffffffff168152602001600073ffffffffffffffffffffffffffffffffffffffff16815260200160608152602001606081526020016000151581526020016000151581526020016060815260200160008152602001600015158152602001600081525090565b828054600181600116156101000203166002900490600052602060002090601f016020900481019282601f10610c0c57805160ff1916838001178555610c3a565b82800160010185558215610c3a579182015b82811115610c39578251825591602001919060010190610c1e565b5b509050610c479190610c4b565b5090565b610c6d91905b80821115610c69576000816000905550600101610c51565b5090565b90565b6000610c7c82356112b6565b905092915050565b6000610c9082356112c8565b905092915050565b600082601f8301121515610cab57600080fd5b8135610cbe610cb9826111eb565b6111be565b91508082526020830160208301858383011115610cda57600080fd5b610ce58382846112de565b50505092915050565b6000610cfa82356112d4565b905092915050565b600080600060608486031215610d1757600080fd5b600084013567ffffffffffffffff811115610d3157600080fd5b610d3d86828701610c98565b935050602084013567ffffffffffffffff811115610d5a57600080fd5b610d6686828701610c98565b925050604084013567ffffffffffffffff811115610d8357600080fd5b610d8f86828701610c98565b9150509250925092565b600080600060608486031215610dae57600080fd5b6000610dbc86828701610cee565b9350506020610dcd86828701610c70565b9250506040610dde86828701610c84565b9150509250925092565b610df181611264565b82525050565b6000610e0282611236565b80845260208401935083602082028501610e1b85611217565b60005b84811015610e54578383038852610e36838351610f75565b9250610e4182611257565b9150602088019750600181019050610e1e565b508196508694505050505092915050565b610e6e81611276565b82525050565b610e7d81611282565b82525050565b6000610e8e8261124c565b808452610ea28160208601602086016112ed565b610eab81611320565b602085010191505092915050565b6000610ec482611241565b808452610ed88160208601602086016112ed565b610ee181611320565b602085010191505092915050565b600081546001811660008114610f0c5760018114610f2c57610f6d565b607f600283041680865260ff198316602087015260408601935050610f6d565b60028204808652602086019550610f4285611224565b60005b82811015610f6457815481890152600182019150602081019050610f45565b80880195505050505b505092915050565b600061014083016000830151610f8e6000860182610de8565b506020830151610fa16020860182610de8565b5060408301518482036040860152610fb98282610eb9565b91505060608301518482036060860152610fd38282610eb9565b9150506080830151610fe86080860182610e65565b5060a0830151610ffb60a0860182610e65565b5060c083015184820360c08601526110138282610eb9565b91505060e083015161102860e086018261105d565b5061010083015161103d610100860182610e65565b5061012083015161105261012086018261105d565b508091505092915050565b611066816112ac565b82525050565b600061010082019050611082600083018b610de8565b61108f602083018a610de8565b81810360408301526110a18189610e83565b90506110b06060830188610e74565b81810360808301526110c28187610e83565b905081810360a08301526110d68186610e83565b90506110e560c0830185610e74565b81810360e08301526110f78184610df7565b90509998505050505050505050565b60006101408201905061111c600083018d610de8565b611129602083018c610de8565b818103604083015261113b818b610e83565b9050818103606083015261114f818a610e83565b905081810360808301526111638189610e83565b905061117260a0830188610e65565b61117f60c0830187610e65565b61118c60e083018661105d565b61119a610100830185610e74565b8181036101208301526111ad8184610eef565b90509b9a5050505050505050505050565b6000604051905081810181811067ffffffffffffffff821117156111e157600080fd5b8060405250919050565b600067ffffffffffffffff82111561120257600080fd5b601f19601f8301169050602081019050919050565b6000602082019050919050565b60008160005260206000209050919050565b600081519050919050565b600081519050919050565b600081519050919050565b6000602082019050919050565b600061126f8261128c565b9050919050565b60008115159050919050565b6000819050919050565b600073ffffffffffffffffffffffffffffffffffffffff82169050919050565b6000819050919050565b60006112c18261128c565b9050919050565b60008115159050919050565b6000819050919050565b82818337600083830152505050565b60005b8381101561130b5780820151818401526020810190506112f0565b8381111561131a576000848401525b50505050565b6000601f19601f830116905091905056fea265627a7a72305820dccf6279354f885251d36908e7cb6e7322545349ea842a71369d26265be9aa436c6578706572696d656e74616cf50037",
      "opcodes": "PUSH1 0x80 PUSH1 0x40 MSTORE PUSH32 0xFFFFFFFFFFFFFFFFFFFFFFFFFFFFFFFFFFFFFFFFFFFFFFFFFFFFFFFFFFFFFFFF PUSH1 0x7 SSTORE CALLVALUE DUP1 ISZERO PUSH3 0x35 JUMPI PUSH1 0x0 DUP1 REVERT JUMPDEST POP PUSH1 0x40 MLOAD PUSH3 0x17A5 CODESIZE SUB DUP1 PUSH3 0x17A5 DUP4 CODECOPY DUP2 ADD DUP1 PUSH1 0x40 MSTORE PUSH3 0x5B SWAP2 SWAP1 DUP2 ADD SWAP1 PUSH3 0x27A JUMP JUMPDEST ADDRESS PUSH1 0x0 DUP1 PUSH2 0x100 EXP DUP2 SLOAD DUP2 PUSH20 0xFFFFFFFFFFFFFFFFFFFFFFFFFFFFFFFFFFFFFFFF MUL NOT AND SWAP1 DUP4 PUSH20 0xFFFFFFFFFFFFFFFFFFFFFFFFFFFFFFFFFFFFFFFF AND MUL OR SWAP1 SSTORE POP DUP6 PUSH1 0x1 PUSH1 0x0 PUSH2 0x100 EXP DUP2 SLOAD DUP2 PUSH20 0xFFFFFFFFFFFFFFFFFFFFFFFFFFFFFFFFFFFFFFFF MUL NOT AND SWAP1 DUP4 PUSH20 0xFFFFFFFFFFFFFFFFFFFFFFFFFFFFFFFFFFFFFFFF AND MUL OR SWAP1 SSTORE POP DUP5 PUSH1 0x2 SWAP1 DUP1 MLOAD SWAP1 PUSH1 0x20 ADD SWAP1 PUSH3 0xF4 SWAP3 SWAP2 SWAP1 PUSH3 0x141 JUMP JUMPDEST POP DUP2 PUSH1 0x4 SWAP1 DUP1 MLOAD SWAP1 PUSH1 0x20 ADD SWAP1 PUSH3 0x10D SWAP3 SWAP2 SWAP1 PUSH3 0x141 JUMP JUMPDEST POP DUP1 PUSH1 0x5 SWAP1 DUP1 MLOAD SWAP1 PUSH1 0x20 ADD SWAP1 PUSH3 0x126 SWAP3 SWAP2 SWAP1 PUSH3 0x141 JUMP JUMPDEST POP DUP4 PUSH1 0x3 DUP2 SWAP1 SSTORE POP DUP3 PUSH1 0x6 DUP2 SWAP1 SSTORE POP POP POP POP POP POP POP PUSH3 0x42A JUMP JUMPDEST DUP3 DUP1 SLOAD PUSH1 0x1 DUP2 PUSH1 0x1 AND ISZERO PUSH2 0x100 MUL SUB AND PUSH1 0x2 SWAP1 DIV SWAP1 PUSH1 0x0 MSTORE PUSH1 0x20 PUSH1 0x0 KECCAK256 SWAP1 PUSH1 0x1F ADD PUSH1 0x20 SWAP1 DIV DUP2 ADD SWAP3 DUP3 PUSH1 0x1F LT PUSH3 0x184 JUMPI DUP1 MLOAD PUSH1 0xFF NOT AND DUP4 DUP1 ADD OR DUP6 SSTORE PUSH3 0x1B5 JUMP JUMPDEST DUP3 DUP1 ADD PUSH1 0x1 ADD DUP6 SSTORE DUP3 ISZERO PUSH3 0x1B5 JUMPI SWAP2 DUP3 ADD JUMPDEST DUP3 DUP2 GT ISZERO PUSH3 0x1B4 JUMPI DUP3 MLOAD DUP3 SSTORE SWAP2 PUSH1 0x20 ADD SWAP2 SWAP1 PUSH1 0x1 ADD SWAP1 PUSH3 0x197 JUMP JUMPDEST JUMPDEST POP SWAP1 POP PUSH3 0x1C4 SWAP2 SWAP1 PUSH3 0x1C8 JUMP JUMPDEST POP SWAP1 JUMP JUMPDEST PUSH3 0x1ED SWAP2 SWAP1 JUMPDEST DUP1 DUP3 GT ISZERO PUSH3 0x1E9 JUMPI PUSH1 0x0 DUP2 PUSH1 0x0 SWAP1 SSTORE POP PUSH1 0x1 ADD PUSH3 0x1CF JUMP JUMPDEST POP SWAP1 JUMP JUMPDEST SWAP1 JUMP JUMPDEST PUSH1 0x0 PUSH3 0x1FE DUP3 MLOAD PUSH3 0x3D6 JUMP JUMPDEST SWAP1 POP SWAP3 SWAP2 POP POP JUMP JUMPDEST PUSH1 0x0 PUSH3 0x214 DUP3 MLOAD PUSH3 0x3EA JUMP JUMPDEST SWAP1 POP SWAP3 SWAP2 POP POP JUMP JUMPDEST PUSH1 0x0 DUP3 PUSH1 0x1F DUP4 ADD SLT ISZERO ISZERO PUSH3 0x230 JUMPI PUSH1 0x0 DUP1 REVERT JUMPDEST DUP2 MLOAD PUSH3 0x247 PUSH3 0x241 DUP3 PUSH3 0x389 JUMP JUMPDEST PUSH3 0x35B JUMP JUMPDEST SWAP2 POP DUP1 DUP3 MSTORE PUSH1 0x20 DUP4 ADD PUSH1 0x20 DUP4 ADD DUP6 DUP4 DUP4 ADD GT ISZERO PUSH3 0x264 JUMPI PUSH1 0x0 DUP1 REVERT JUMPDEST PUSH3 0x271 DUP4 DUP3 DUP5 PUSH3 0x3F4 JUMP JUMPDEST POP POP POP SWAP3 SWAP2 POP POP JUMP JUMPDEST PUSH1 0x0 DUP1 PUSH1 0x0 DUP1 PUSH1 0x0 DUP1 PUSH1 0xC0 DUP8 DUP10 SUB SLT ISZERO PUSH3 0x294 JUMPI PUSH1 0x0 DUP1 REVERT JUMPDEST PUSH1 0x0 PUSH3 0x2A4 DUP10 DUP3 DUP11 ADD PUSH3 0x1F0 JUMP JUMPDEST SWAP7 POP POP PUSH1 0x20 DUP8 ADD MLOAD PUSH8 0xFFFFFFFFFFFFFFFF DUP2 GT ISZERO PUSH3 0x2C2 JUMPI PUSH1 0x0 DUP1 REVERT JUMPDEST PUSH3 0x2D0 DUP10 DUP3 DUP11 ADD PUSH3 0x21C JUMP JUMPDEST SWAP6 POP POP PUSH1 0x40 PUSH3 0x2E3 DUP10 DUP3 DUP11 ADD PUSH3 0x206 JUMP JUMPDEST SWAP5 POP POP PUSH1 0x60 PUSH3 0x2F6 DUP10 DUP3 DUP11 ADD PUSH3 0x206 JUMP JUMPDEST SWAP4 POP POP PUSH1 0x80 DUP8 ADD MLOAD PUSH8 0xFFFFFFFFFFFFFFFF DUP2 GT ISZERO PUSH3 0x314 JUMPI PUSH1 0x0 DUP1 REVERT JUMPDEST PUSH3 0x322 DUP10 DUP3 DUP11 ADD PUSH3 0x21C JUMP JUMPDEST SWAP3 POP POP PUSH1 0xA0 DUP8 ADD MLOAD PUSH8 0xFFFFFFFFFFFFFFFF DUP2 GT ISZERO PUSH3 0x340 JUMPI PUSH1 0x0 DUP1 REVERT JUMPDEST PUSH3 0x34E DUP10 DUP3 DUP11 ADD PUSH3 0x21C JUMP JUMPDEST SWAP2 POP POP SWAP3 SWAP6 POP SWAP3 SWAP6 POP SWAP3 SWAP6 JUMP JUMPDEST PUSH1 0x0 PUSH1 0x40 MLOAD SWAP1 POP DUP2 DUP2 ADD DUP2 DUP2 LT PUSH8 0xFFFFFFFFFFFFFFFF DUP3 GT OR ISZERO PUSH3 0x37F JUMPI PUSH1 0x0 DUP1 REVERT JUMPDEST DUP1 PUSH1 0x40 MSTORE POP SWAP2 SWAP1 POP JUMP JUMPDEST PUSH1 0x0 PUSH8 0xFFFFFFFFFFFFFFFF DUP3 GT ISZERO PUSH3 0x3A1 JUMPI PUSH1 0x0 DUP1 REVERT JUMPDEST PUSH1 0x1F NOT PUSH1 0x1F DUP4 ADD AND SWAP1 POP PUSH1 0x20 DUP2 ADD SWAP1 POP SWAP2 SWAP1 POP JUMP JUMPDEST PUSH1 0x0 PUSH20 0xFFFFFFFFFFFFFFFFFFFFFFFFFFFFFFFFFFFFFFFF DUP3 AND SWAP1 POP SWAP2 SWAP1 POP JUMP JUMPDEST PUSH1 0x0 PUSH3 0x3E3 DUP3 PUSH3 0x3B6 JUMP JUMPDEST SWAP1 POP SWAP2 SWAP1 POP JUMP JUMPDEST PUSH1 0x0 DUP2 SWAP1 POP SWAP2 SWAP1 POP JUMP JUMPDEST PUSH1 0x0 JUMPDEST DUP4 DUP2 LT ISZERO PUSH3 0x414 JUMPI DUP1 DUP3 ADD MLOAD DUP2 DUP5 ADD MSTORE PUSH1 0x20 DUP2 ADD SWAP1 POP PUSH3 0x3F7 JUMP JUMPDEST DUP4 DUP2 GT ISZERO PUSH3 0x424 JUMPI PUSH1 0x0 DUP5 DUP5 ADD MSTORE JUMPDEST POP POP POP POP JUMP JUMPDEST PUSH2 0x136B DUP1 PUSH3 0x43A PUSH1 0x0 CODECOPY PUSH1 0x0 RETURN INVALID PUSH1 0x80 PUSH1 0x40 MSTORE CALLVALUE DUP1 ISZERO PUSH2 0x10 JUMPI PUSH1 0x0 DUP1 REVERT JUMPDEST POP PUSH1 0x4 CALLDATASIZE LT PUSH2 0x5E JUMPI PUSH1 0x0 CALLDATALOAD PUSH29 0x100000000000000000000000000000000000000000000000000000000 SWAP1 DIV DUP1 PUSH4 0x3BC5DE30 EQ PUSH2 0x63 JUMPI DUP1 PUSH4 0x72102D18 EQ PUSH2 0x88 JUMPI DUP1 PUSH4 0x83BFFB88 EQ PUSH2 0xA4 JUMPI JUMPDEST PUSH1 0x0 DUP1 REVERT JUMPDEST PUSH2 0x6B PUSH2 0xC0 JUMP JUMPDEST PUSH1 0x40 MLOAD PUSH2 0x7F SWAP9 SWAP8 SWAP7 SWAP6 SWAP5 SWAP4 SWAP3 SWAP2 SWAP1 PUSH2 0x106C JUMP JUMPDEST PUSH1 0x40 MLOAD DUP1 SWAP2 SUB SWAP1 RETURN JUMPDEST PUSH2 0xA2 PUSH1 0x4 DUP1 CALLDATASIZE SUB PUSH2 0x9D SWAP2 SWAP1 DUP2 ADD SWAP1 PUSH2 0xD99 JUMP JUMPDEST PUSH2 0x661 JUMP JUMPDEST STOP JUMPDEST PUSH2 0xBE PUSH1 0x4 DUP1 CALLDATASIZE SUB PUSH2 0xB9 SWAP2 SWAP1 DUP2 ADD SWAP1 PUSH2 0xD02 JUMP JUMPDEST PUSH2 0x7E0 JUMP JUMPDEST STOP JUMPDEST PUSH1 0x0 DUP1 PUSH1 0x60 PUSH1 0x0 PUSH1 0x60 DUP1 PUSH1 0x0 PUSH1 0x60 PUSH1 0x0 DUP1 SWAP1 SLOAD SWAP1 PUSH2 0x100 EXP SWAP1 DIV PUSH20 0xFFFFFFFFFFFFFFFFFFFFFFFFFFFFFFFFFFFFFFFF AND PUSH1 0x1 PUSH1 0x0 SWAP1 SLOAD SWAP1 PUSH2 0x100 EXP SWAP1 DIV PUSH20 0xFFFFFFFFFFFFFFFFFFFFFFFFFFFFFFFFFFFFFFFF AND PUSH1 0x2 PUSH1 0x3 SLOAD PUSH1 0x4 PUSH1 0x5 PUSH1 0x6 SLOAD PUSH1 0x8 DUP6 DUP1 SLOAD PUSH1 0x1 DUP2 PUSH1 0x1 AND ISZERO PUSH2 0x100 MUL SUB AND PUSH1 0x2 SWAP1 DIV DUP1 PUSH1 0x1F ADD PUSH1 0x20 DUP1 SWAP2 DIV MUL PUSH1 0x20 ADD PUSH1 0x40 MLOAD SWAP1 DUP2 ADD PUSH1 0x40 MSTORE DUP1 SWAP3 SWAP2 SWAP1 DUP2 DUP2 MSTORE PUSH1 0x20 ADD DUP3 DUP1 SLOAD PUSH1 0x1 DUP2 PUSH1 0x1 AND ISZERO PUSH2 0x100 MUL SUB AND PUSH1 0x2 SWAP1 DIV DUP1 ISZERO PUSH2 0x1B6 JUMPI DUP1 PUSH1 0x1F LT PUSH2 0x18B JUMPI PUSH2 0x100 DUP1 DUP4 SLOAD DIV MUL DUP4 MSTORE SWAP2 PUSH1 0x20 ADD SWAP2 PUSH2 0x1B6 JUMP JUMPDEST DUP3 ADD SWAP2 SWAP1 PUSH1 0x0 MSTORE PUSH1 0x20 PUSH1 0x0 KECCAK256 SWAP1 JUMPDEST DUP2 SLOAD DUP2 MSTORE SWAP1 PUSH1 0x1 ADD SWAP1 PUSH1 0x20 ADD DUP1 DUP4 GT PUSH2 0x199 JUMPI DUP3 SWAP1 SUB PUSH1 0x1F AND DUP3 ADD SWAP2 JUMPDEST POP POP POP POP POP SWAP6 POP DUP4 DUP1 SLOAD PUSH1 0x1 DUP2 PUSH1 0x1 AND ISZERO PUSH2 0x100 MUL SUB AND PUSH1 0x2 SWAP1 DIV DUP1 PUSH1 0x1F ADD PUSH1 0x20 DUP1 SWAP2 DIV MUL PUSH1 0x20 ADD PUSH1 0x40 MLOAD SWAP1 DUP2 ADD PUSH1 0x40 MSTORE DUP1 SWAP3 SWAP2 SWAP1 DUP2 DUP2 MSTORE PUSH1 0x20 ADD DUP3 DUP1 SLOAD PUSH1 0x1 DUP2 PUSH1 0x1 AND ISZERO PUSH2 0x100 MUL SUB AND PUSH1 0x2 SWAP1 DIV DUP1 ISZERO PUSH2 0x252 JUMPI DUP1 PUSH1 0x1F LT PUSH2 0x227 JUMPI PUSH2 0x100 DUP1 DUP4 SLOAD DIV MUL DUP4 MSTORE SWAP2 PUSH1 0x20 ADD SWAP2 PUSH2 0x252 JUMP JUMPDEST DUP3 ADD SWAP2 SWAP1 PUSH1 0x0 MSTORE PUSH1 0x20 PUSH1 0x0 KECCAK256 SWAP1 JUMPDEST DUP2 SLOAD DUP2 MSTORE SWAP1 PUSH1 0x1 ADD SWAP1 PUSH1 0x20 ADD DUP1 DUP4 GT PUSH2 0x235 JUMPI DUP3 SWAP1 SUB PUSH1 0x1F AND DUP3 ADD SWAP2 JUMPDEST POP POP POP POP POP SWAP4 POP DUP3 DUP1 SLOAD PUSH1 0x1 DUP2 PUSH1 0x1 AND ISZERO PUSH2 0x100 MUL SUB AND PUSH1 0x2 SWAP1 DIV DUP1 PUSH1 0x1F ADD PUSH1 0x20 DUP1 SWAP2 DIV MUL PUSH1 0x20 ADD PUSH1 0x40 MLOAD SWAP1 DUP2 ADD PUSH1 0x40 MSTORE DUP1 SWAP3 SWAP2 SWAP1 DUP2 DUP2 MSTORE PUSH1 0x20 ADD DUP3 DUP1 SLOAD PUSH1 0x1 DUP2 PUSH1 0x1 AND ISZERO PUSH2 0x100 MUL SUB AND PUSH1 0x2 SWAP1 DIV DUP1 ISZERO PUSH2 0x2EE JUMPI DUP1 PUSH1 0x1F LT PUSH2 0x2C3 JUMPI PUSH2 0x100 DUP1 DUP4 SLOAD DIV MUL DUP4 MSTORE SWAP2 PUSH1 0x20 ADD SWAP2 PUSH2 0x2EE JUMP JUMPDEST DUP3 ADD SWAP2 SWAP1 PUSH1 0x0 MSTORE PUSH1 0x20 PUSH1 0x0 KECCAK256 SWAP1 JUMPDEST DUP2 SLOAD DUP2 MSTORE SWAP1 PUSH1 0x1 ADD SWAP1 PUSH1 0x20 ADD DUP1 DUP4 GT PUSH2 0x2D1 JUMPI DUP3 SWAP1 SUB PUSH1 0x1F AND DUP3 ADD SWAP2 JUMPDEST POP POP POP POP POP SWAP3 POP DUP1 DUP1 SLOAD DUP1 PUSH1 0x20 MUL PUSH1 0x20 ADD PUSH1 0x40 MLOAD SWAP1 DUP2 ADD PUSH1 0x40 MSTORE DUP1 SWAP3 SWAP2 SWAP1 DUP2 DUP2 MSTORE PUSH1 0x20 ADD PUSH1 0x0 SWAP1 JUMPDEST DUP3 DUP3 LT ISZERO PUSH2 0x641 JUMPI DUP4 DUP3 SWAP1 PUSH1 0x0 MSTORE PUSH1 0x20 PUSH1 0x0 KECCAK256 SWAP1 PUSH1 0x9 MUL ADD PUSH2 0x140 PUSH1 0x40 MLOAD SWAP1 DUP2 ADD PUSH1 0x40 MSTORE SWAP1 DUP2 PUSH1 0x0 DUP3 ADD PUSH1 0x0 SWAP1 SLOAD SWAP1 PUSH2 0x100 EXP SWAP1 DIV PUSH20 0xFFFFFFFFFFFFFFFFFFFFFFFFFFFFFFFFFFFFFFFF AND PUSH20 0xFFFFFFFFFFFFFFFFFFFFFFFFFFFFFFFFFFFFFFFF AND PUSH20 0xFFFFFFFFFFFFFFFFFFFFFFFFFFFFFFFFFFFFFFFF AND DUP2 MSTORE PUSH1 0x20 ADD PUSH1 0x1 DUP3 ADD PUSH1 0x0 SWAP1 SLOAD SWAP1 PUSH2 0x100 EXP SWAP1 DIV PUSH20 0xFFFFFFFFFFFFFFFFFFFFFFFFFFFFFFFFFFFFFFFF AND PUSH20 0xFFFFFFFFFFFFFFFFFFFFFFFFFFFFFFFFFFFFFFFF AND PUSH20 0xFFFFFFFFFFFFFFFFFFFFFFFFFFFFFFFFFFFFFFFF AND DUP2 MSTORE PUSH1 0x20 ADD PUSH1 0x2 DUP3 ADD DUP1 SLOAD PUSH1 0x1 DUP2 PUSH1 0x1 AND ISZERO PUSH2 0x100 MUL SUB AND PUSH1 0x2 SWAP1 DIV DUP1 PUSH1 0x1F ADD PUSH1 0x20 DUP1 SWAP2 DIV MUL PUSH1 0x20 ADD PUSH1 0x40 MLOAD SWAP1 DUP2 ADD PUSH1 0x40 MSTORE DUP1 SWAP3 SWAP2 SWAP1 DUP2 DUP2 MSTORE PUSH1 0x20 ADD DUP3 DUP1 SLOAD PUSH1 0x1 DUP2 PUSH1 0x1 AND ISZERO PUSH2 0x100 MUL SUB AND PUSH1 0x2 SWAP1 DIV DUP1 ISZERO PUSH2 0x480 JUMPI DUP1 PUSH1 0x1F LT PUSH2 0x455 JUMPI PUSH2 0x100 DUP1 DUP4 SLOAD DIV MUL DUP4 MSTORE SWAP2 PUSH1 0x20 ADD SWAP2 PUSH2 0x480 JUMP JUMPDEST DUP3 ADD SWAP2 SWAP1 PUSH1 0x0 MSTORE PUSH1 0x20 PUSH1 0x0 KECCAK256 SWAP1 JUMPDEST DUP2 SLOAD DUP2 MSTORE SWAP1 PUSH1 0x1 ADD SWAP1 PUSH1 0x20 ADD DUP1 DUP4 GT PUSH2 0x463 JUMPI DUP3 SWAP1 SUB PUSH1 0x1F AND DUP3 ADD SWAP2 JUMPDEST POP POP POP POP POP DUP2 MSTORE PUSH1 0x20 ADD PUSH1 0x3 DUP3 ADD DUP1 SLOAD PUSH1 0x1 DUP2 PUSH1 0x1 AND ISZERO PUSH2 0x100 MUL SUB AND PUSH1 0x2 SWAP1 DIV DUP1 PUSH1 0x1F ADD PUSH1 0x20 DUP1 SWAP2 DIV MUL PUSH1 0x20 ADD PUSH1 0x40 MLOAD SWAP1 DUP2 ADD PUSH1 0x40 MSTORE DUP1 SWAP3 SWAP2 SWAP1 DUP2 DUP2 MSTORE PUSH1 0x20 ADD DUP3 DUP1 SLOAD PUSH1 0x1 DUP2 PUSH1 0x1 AND ISZERO PUSH2 0x100 MUL SUB AND PUSH1 0x2 SWAP1 DIV DUP1 ISZERO PUSH2 0x522 JUMPI DUP1 PUSH1 0x1F LT PUSH2 0x4F7 JUMPI PUSH2 0x100 DUP1 DUP4 SLOAD DIV MUL DUP4 MSTORE SWAP2 PUSH1 0x20 ADD SWAP2 PUSH2 0x522 JUMP JUMPDEST DUP3 ADD SWAP2 SWAP1 PUSH1 0x0 MSTORE PUSH1 0x20 PUSH1 0x0 KECCAK256 SWAP1 JUMPDEST DUP2 SLOAD DUP2 MSTORE SWAP1 PUSH1 0x1 ADD SWAP1 PUSH1 0x20 ADD DUP1 DUP4 GT PUSH2 0x505 JUMPI DUP3 SWAP1 SUB PUSH1 0x1F AND DUP3 ADD SWAP2 JUMPDEST POP POP POP POP POP DUP2 MSTORE PUSH1 0x20 ADD PUSH1 0x4 DUP3 ADD PUSH1 0x0 SWAP1 SLOAD SWAP1 PUSH2 0x100 EXP SWAP1 DIV PUSH1 0xFF AND ISZERO ISZERO ISZERO ISZERO DUP2 MSTORE PUSH1 0x20 ADD PUSH1 0x4 DUP3 ADD PUSH1 0x1 SWAP1 SLOAD SWAP1 PUSH2 0x100 EXP SWAP1 DIV PUSH1 0xFF AND ISZERO ISZERO ISZERO ISZERO DUP2 MSTORE PUSH1 0x20 ADD PUSH1 0x5 DUP3 ADD DUP1 SLOAD PUSH1 0x1 DUP2 PUSH1 0x1 AND ISZERO PUSH2 0x100 MUL SUB AND PUSH1 0x2 SWAP1 DIV DUP1 PUSH1 0x1F ADD PUSH1 0x20 DUP1 SWAP2 DIV MUL PUSH1 0x20 ADD PUSH1 0x40 MLOAD SWAP1 DUP2 ADD PUSH1 0x40 MSTORE DUP1 SWAP3 SWAP2 SWAP1 DUP2 DUP2 MSTORE PUSH1 0x20 ADD DUP3 DUP1 SLOAD PUSH1 0x1 DUP2 PUSH1 0x1 AND ISZERO PUSH2 0x100 MUL SUB AND PUSH1 0x2 SWAP1 DIV DUP1 ISZERO PUSH2 0x5FA JUMPI DUP1 PUSH1 0x1F LT PUSH2 0x5CF JUMPI PUSH2 0x100 DUP1 DUP4 SLOAD DIV MUL DUP4 MSTORE SWAP2 PUSH1 0x20 ADD SWAP2 PUSH2 0x5FA JUMP JUMPDEST DUP3 ADD SWAP2 SWAP1 PUSH1 0x0 MSTORE PUSH1 0x20 PUSH1 0x0 KECCAK256 SWAP1 JUMPDEST DUP2 SLOAD DUP2 MSTORE SWAP1 PUSH1 0x1 ADD SWAP1 PUSH1 0x20 ADD DUP1 DUP4 GT PUSH2 0x5DD JUMPI DUP3 SWAP1 SUB PUSH1 0x1F AND DUP3 ADD SWAP2 JUMPDEST POP POP POP POP POP DUP2 MSTORE PUSH1 0x20 ADD PUSH1 0x6 DUP3 ADD SLOAD DUP2 MSTORE PUSH1 0x20 ADD PUSH1 0x7 DUP3 ADD PUSH1 0x0 SWAP1 SLOAD SWAP1 PUSH2 0x100 EXP SWAP1 DIV PUSH1 0xFF AND ISZERO ISZERO ISZERO ISZERO DUP2 MSTORE PUSH1 0x20 ADD PUSH1 0x8 DUP3 ADD SLOAD DUP2 MSTORE POP POP DUP2 MSTORE PUSH1 0x20 ADD SWAP1 PUSH1 0x1 ADD SWAP1 PUSH2 0x316 JUMP JUMPDEST POP POP POP POP SWAP1 POP SWAP8 POP SWAP8 POP SWAP8 POP SWAP8 POP SWAP8 POP SWAP8 POP SWAP8 POP SWAP8 POP SWAP1 SWAP2 SWAP3 SWAP4 SWAP5 SWAP6 SWAP7 SWAP8 JUMP JUMPDEST PUSH1 0x1 PUSH1 0x0 SWAP1 SLOAD SWAP1 PUSH2 0x100 EXP SWAP1 DIV PUSH20 0xFFFFFFFFFFFFFFFFFFFFFFFFFFFFFFFFFFFFFFFF AND PUSH20 0xFFFFFFFFFFFFFFFFFFFFFFFFFFFFFFFFFFFFFFFF AND DUP3 PUSH20 0xFFFFFFFFFFFFFFFFFFFFFFFFFFFFFFFFFFFFFFFF AND EQ ISZERO PUSH2 0x7DB JUMPI PUSH1 0x1 ISZERO ISZERO DUP2 ISZERO ISZERO EQ ISZERO PUSH2 0x73B JUMPI PUSH1 0x1 PUSH1 0x8 DUP5 DUP2 SLOAD DUP2 LT ISZERO ISZERO PUSH2 0x6D5 JUMPI INVALID JUMPDEST SWAP1 PUSH1 0x0 MSTORE PUSH1 0x20 PUSH1 0x0 KECCAK256 SWAP1 PUSH1 0x9 MUL ADD PUSH1 0x7 ADD PUSH1 0x0 PUSH2 0x100 EXP DUP2 SLOAD DUP2 PUSH1 0xFF MUL NOT AND SWAP1 DUP4 ISZERO ISZERO MUL OR SWAP1 SSTORE POP PUSH1 0x1 PUSH1 0x8 DUP5 DUP2 SLOAD DUP2 LT ISZERO ISZERO PUSH2 0x70E JUMPI INVALID JUMPDEST SWAP1 PUSH1 0x0 MSTORE PUSH1 0x20 PUSH1 0x0 KECCAK256 SWAP1 PUSH1 0x9 MUL ADD PUSH1 0x4 ADD PUSH1 0x1 PUSH2 0x100 EXP DUP2 SLOAD DUP2 PUSH1 0xFF MUL NOT AND SWAP1 DUP4 ISZERO ISZERO MUL OR SWAP1 SSTORE POP PUSH2 0x7AE JUMP JUMPDEST PUSH1 0x1 PUSH1 0x8 DUP5 DUP2 SLOAD DUP2 LT ISZERO ISZERO PUSH2 0x74C JUMPI INVALID JUMPDEST SWAP1 PUSH1 0x0 MSTORE PUSH1 0x20 PUSH1 0x0 KECCAK256 SWAP1 PUSH1 0x9 MUL ADD PUSH1 0x7 ADD PUSH1 0x0 PUSH2 0x100 EXP DUP2 SLOAD DUP2 PUSH1 0xFF MUL NOT AND SWAP1 DUP4 ISZERO ISZERO MUL OR SWAP1 SSTORE POP PUSH1 0x0 PUSH1 0x8 DUP5 DUP2 SLOAD DUP2 LT ISZERO ISZERO PUSH2 0x785 JUMPI INVALID JUMPDEST SWAP1 PUSH1 0x0 MSTORE PUSH1 0x20 PUSH1 0x0 KECCAK256 SWAP1 PUSH1 0x9 MUL ADD PUSH1 0x4 ADD PUSH1 0x1 PUSH2 0x100 EXP DUP2 SLOAD DUP2 PUSH1 0xFF MUL NOT AND SWAP1 DUP4 ISZERO ISZERO MUL OR SWAP1 SSTORE POP JUMPDEST PUSH32 0x2B94F1E9999FF685F243474C3B8C30563987B8897FECB35C7CEA9AC0F4F5C6BD PUSH1 0x40 MLOAD PUSH1 0x40 MLOAD DUP1 SWAP2 SUB SWAP1 LOG1 JUMPDEST POP POP POP JUMP JUMPDEST PUSH2 0x7E8 PUSH2 0xB45 JUMP JUMPDEST PUSH2 0x140 PUSH1 0x40 MLOAD SWAP1 DUP2 ADD PUSH1 0x40 MSTORE DUP1 PUSH1 0x1 PUSH1 0x0 SWAP1 SLOAD SWAP1 PUSH2 0x100 EXP SWAP1 DIV PUSH20 0xFFFFFFFFFFFFFFFFFFFFFFFFFFFFFFFFFFFFFFFF AND PUSH20 0xFFFFFFFFFFFFFFFFFFFFFFFFFFFFFFFFFFFFFFFF AND DUP2 MSTORE PUSH1 0x20 ADD ADDRESS PUSH20 0xFFFFFFFFFFFFFFFFFFFFFFFFFFFFFFFFFFFFFFFF AND DUP2 MSTORE PUSH1 0x20 ADD DUP5 DUP2 MSTORE PUSH1 0x20 ADD DUP4 DUP2 MSTORE PUSH1 0x20 ADD PUSH1 0x1 ISZERO ISZERO DUP2 MSTORE PUSH1 0x20 ADD PUSH1 0x0 ISZERO ISZERO DUP2 MSTORE PUSH1 0x20 ADD DUP6 DUP2 MSTORE PUSH1 0x20 ADD PUSH1 0x1 PUSH1 0x7 SLOAD ADD DUP2 MSTORE PUSH1 0x20 ADD PUSH1 0x0 ISZERO ISZERO DUP2 MSTORE PUSH1 0x20 ADD PUSH1 0x0 DUP2 MSTORE POP SWAP1 POP PUSH1 0x8 DUP2 SWAP1 DUP1 PUSH1 0x1 DUP2 SLOAD ADD DUP1 DUP3 SSTORE DUP1 SWAP2 POP POP SWAP1 PUSH1 0x1 DUP3 SUB SWAP1 PUSH1 0x0 MSTORE PUSH1 0x20 PUSH1 0x0 KECCAK256 SWAP1 PUSH1 0x9 MUL ADD PUSH1 0x0 SWAP1 SWAP2 SWAP3 SWAP1 SWAP2 SWAP1 SWAP2 POP PUSH1 0x0 DUP3 ADD MLOAD DUP2 PUSH1 0x0 ADD PUSH1 0x0 PUSH2 0x100 EXP DUP2 SLOAD DUP2 PUSH20 0xFFFFFFFFFFFFFFFFFFFFFFFFFFFFFFFFFFFFFFFF MUL NOT AND SWAP1 DUP4 PUSH20 0xFFFFFFFFFFFFFFFFFFFFFFFFFFFFFFFFFFFFFFFF AND MUL OR SWAP1 SSTORE POP PUSH1 0x20 DUP3 ADD MLOAD DUP2 PUSH1 0x1 ADD PUSH1 0x0 PUSH2 0x100 EXP DUP2 SLOAD DUP2 PUSH20 0xFFFFFFFFFFFFFFFFFFFFFFFFFFFFFFFFFFFFFFFF MUL NOT AND SWAP1 DUP4 PUSH20 0xFFFFFFFFFFFFFFFFFFFFFFFFFFFFFFFFFFFFFFFF AND MUL OR SWAP1 SSTORE POP PUSH1 0x40 DUP3 ADD MLOAD DUP2 PUSH1 0x2 ADD SWAP1 DUP1 MLOAD SWAP1 PUSH1 0x20 ADD SWAP1 PUSH2 0x966 SWAP3 SWAP2 SWAP1 PUSH2 0xBCB JUMP JUMPDEST POP PUSH1 0x60 DUP3 ADD MLOAD DUP2 PUSH1 0x3 ADD SWAP1 DUP1 MLOAD SWAP1 PUSH1 0x20 ADD SWAP1 PUSH2 0x983 SWAP3 SWAP2 SWAP1 PUSH2 0xBCB JUMP JUMPDEST POP PUSH1 0x80 DUP3 ADD MLOAD DUP2 PUSH1 0x4 ADD PUSH1 0x0 PUSH2 0x100 EXP DUP2 SLOAD DUP2 PUSH1 0xFF MUL NOT AND SWAP1 DUP4 ISZERO ISZERO MUL OR SWAP1 SSTORE POP PUSH1 0xA0 DUP3 ADD MLOAD DUP2 PUSH1 0x4 ADD PUSH1 0x1 PUSH2 0x100 EXP DUP2 SLOAD DUP2 PUSH1 0xFF MUL NOT AND SWAP1 DUP4 ISZERO ISZERO MUL OR SWAP1 SSTORE POP PUSH1 0xC0 DUP3 ADD MLOAD DUP2 PUSH1 0x5 ADD SWAP1 DUP1 MLOAD SWAP1 PUSH1 0x20 ADD SWAP1 PUSH2 0x9E0 SWAP3 SWAP2 SWAP1 PUSH2 0xBCB JUMP JUMPDEST POP PUSH1 0xE0 DUP3 ADD MLOAD DUP2 PUSH1 0x6 ADD SSTORE PUSH2 0x100 DUP3 ADD MLOAD DUP2 PUSH1 0x7 ADD PUSH1 0x0 PUSH2 0x100 EXP DUP2 SLOAD DUP2 PUSH1 0xFF MUL NOT AND SWAP1 DUP4 ISZERO ISZERO MUL OR SWAP1 SSTORE POP PUSH2 0x120 DUP3 ADD MLOAD DUP2 PUSH1 0x8 ADD SSTORE POP POP POP PUSH1 0x0 PUSH1 0x1 PUSH1 0x0 SWAP1 SLOAD SWAP1 PUSH2 0x100 EXP SWAP1 DIV PUSH20 0xFFFFFFFFFFFFFFFFFFFFFFFFFFFFFFFFFFFFFFFF AND SWAP1 POP DUP1 PUSH20 0xFFFFFFFFFFFFFFFFFFFFFFFFFFFFFFFFFFFFFFFF AND PUSH4 0x6FC92E73 PUSH1 0x1 PUSH1 0x0 SWAP1 SLOAD SWAP1 PUSH2 0x100 EXP SWAP1 DIV PUSH20 0xFFFFFFFFFFFFFFFFFFFFFFFFFFFFFFFFFFFFFFFF AND ADDRESS DUP8 DUP8 DUP11 PUSH1 0x1 PUSH1 0x0 PUSH1 0x1 PUSH1 0x7 SLOAD ADD PUSH1 0x3 SLOAD PUSH1 0x5 PUSH1 0x40 MLOAD DUP12 PUSH4 0xFFFFFFFF AND PUSH29 0x100000000000000000000000000000000000000000000000000000000 MUL DUP2 MSTORE PUSH1 0x4 ADD PUSH2 0xAD4 SWAP11 SWAP10 SWAP9 SWAP8 SWAP7 SWAP6 SWAP5 SWAP4 SWAP3 SWAP2 SWAP1 PUSH2 0x1106 JUMP JUMPDEST PUSH1 0x0 PUSH1 0x40 MLOAD DUP1 DUP4 SUB DUP2 PUSH1 0x0 DUP8 DUP1 EXTCODESIZE ISZERO DUP1 ISZERO PUSH2 0xAEE JUMPI PUSH1 0x0 DUP1 REVERT JUMPDEST POP GAS CALL ISZERO DUP1 ISZERO PUSH2 0xB02 JUMPI RETURNDATASIZE PUSH1 0x0 DUP1 RETURNDATACOPY RETURNDATASIZE PUSH1 0x0 REVERT JUMPDEST POP POP POP POP PUSH1 0x1 PUSH1 0x7 SLOAD ADD PUSH1 0x7 DUP2 SWAP1 SSTORE POP PUSH32 0x2B94F1E9999FF685F243474C3B8C30563987B8897FECB35C7CEA9AC0F4F5C6BD PUSH1 0x40 MLOAD PUSH1 0x40 MLOAD DUP1 SWAP2 SUB SWAP1 LOG1 POP POP POP POP POP JUMP JUMPDEST PUSH2 0x140 PUSH1 0x40 MLOAD SWAP1 DUP2 ADD PUSH1 0x40 MSTORE DUP1 PUSH1 0x0 PUSH20 0xFFFFFFFFFFFFFFFFFFFFFFFFFFFFFFFFFFFFFFFF AND DUP2 MSTORE PUSH1 0x20 ADD PUSH1 0x0 PUSH20 0xFFFFFFFFFFFFFFFFFFFFFFFFFFFFFFFFFFFFFFFF AND DUP2 MSTORE PUSH1 0x20 ADD PUSH1 0x60 DUP2 MSTORE PUSH1 0x20 ADD PUSH1 0x60 DUP2 MSTORE PUSH1 0x20 ADD PUSH1 0x0 ISZERO ISZERO DUP2 MSTORE PUSH1 0x20 ADD PUSH1 0x0 ISZERO ISZERO DUP2 MSTORE PUSH1 0x20 ADD PUSH1 0x60 DUP2 MSTORE PUSH1 0x20 ADD PUSH1 0x0 DUP2 MSTORE PUSH1 0x20 ADD PUSH1 0x0 ISZERO ISZERO DUP2 MSTORE PUSH1 0x20 ADD PUSH1 0x0 DUP2 MSTORE POP SWAP1 JUMP JUMPDEST DUP3 DUP1 SLOAD PUSH1 0x1 DUP2 PUSH1 0x1 AND ISZERO PUSH2 0x100 MUL SUB AND PUSH1 0x2 SWAP1 DIV SWAP1 PUSH1 0x0 MSTORE PUSH1 0x20 PUSH1 0x0 KECCAK256 SWAP1 PUSH1 0x1F ADD PUSH1 0x20 SWAP1 DIV DUP2 ADD SWAP3 DUP3 PUSH1 0x1F LT PUSH2 0xC0C JUMPI DUP1 MLOAD PUSH1 0xFF NOT AND DUP4 DUP1 ADD OR DUP6 SSTORE PUSH2 0xC3A JUMP JUMPDEST DUP3 DUP1 ADD PUSH1 0x1 ADD DUP6 SSTORE DUP3 ISZERO PUSH2 0xC3A JUMPI SWAP2 DUP3 ADD JUMPDEST DUP3 DUP2 GT ISZERO PUSH2 0xC39 JUMPI DUP3 MLOAD DUP3 SSTORE SWAP2 PUSH1 0x20 ADD SWAP2 SWAP1 PUSH1 0x1 ADD SWAP1 PUSH2 0xC1E JUMP JUMPDEST JUMPDEST POP SWAP1 POP PUSH2 0xC47 SWAP2 SWAP1 PUSH2 0xC4B JUMP JUMPDEST POP SWAP1 JUMP JUMPDEST PUSH2 0xC6D SWAP2 SWAP1 JUMPDEST DUP1 DUP3 GT ISZERO PUSH2 0xC69 JUMPI PUSH1 0x0 DUP2 PUSH1 0x0 SWAP1 SSTORE POP PUSH1 0x1 ADD PUSH2 0xC51 JUMP JUMPDEST POP SWAP1 JUMP JUMPDEST SWAP1 JUMP JUMPDEST PUSH1 0x0 PUSH2 0xC7C DUP3 CALLDATALOAD PUSH2 0x12B6 JUMP JUMPDEST SWAP1 POP SWAP3 SWAP2 POP POP JUMP JUMPDEST PUSH1 0x0 PUSH2 0xC90 DUP3 CALLDATALOAD PUSH2 0x12C8 JUMP JUMPDEST SWAP1 POP SWAP3 SWAP2 POP POP JUMP JUMPDEST PUSH1 0x0 DUP3 PUSH1 0x1F DUP4 ADD SLT ISZERO ISZERO PUSH2 0xCAB JUMPI PUSH1 0x0 DUP1 REVERT JUMPDEST DUP2 CALLDATALOAD PUSH2 0xCBE PUSH2 0xCB9 DUP3 PUSH2 0x11EB JUMP JUMPDEST PUSH2 0x11BE JUMP JUMPDEST SWAP2 POP DUP1 DUP3 MSTORE PUSH1 0x20 DUP4 ADD PUSH1 0x20 DUP4 ADD DUP6 DUP4 DUP4 ADD GT ISZERO PUSH2 0xCDA JUMPI PUSH1 0x0 DUP1 REVERT JUMPDEST PUSH2 0xCE5 DUP4 DUP3 DUP5 PUSH2 0x12DE JUMP JUMPDEST POP POP POP SWAP3 SWAP2 POP POP JUMP JUMPDEST PUSH1 0x0 PUSH2 0xCFA DUP3 CALLDATALOAD PUSH2 0x12D4 JUMP JUMPDEST SWAP1 POP SWAP3 SWAP2 POP POP JUMP JUMPDEST PUSH1 0x0 DUP1 PUSH1 0x0 PUSH1 0x60 DUP5 DUP7 SUB SLT ISZERO PUSH2 0xD17 JUMPI PUSH1 0x0 DUP1 REVERT JUMPDEST PUSH1 0x0 DUP5 ADD CALLDATALOAD PUSH8 0xFFFFFFFFFFFFFFFF DUP2 GT ISZERO PUSH2 0xD31 JUMPI PUSH1 0x0 DUP1 REVERT JUMPDEST PUSH2 0xD3D DUP7 DUP3 DUP8 ADD PUSH2 0xC98 JUMP JUMPDEST SWAP4 POP POP PUSH1 0x20 DUP5 ADD CALLDATALOAD PUSH8 0xFFFFFFFFFFFFFFFF DUP2 GT ISZERO PUSH2 0xD5A JUMPI PUSH1 0x0 DUP1 REVERT JUMPDEST PUSH2 0xD66 DUP7 DUP3 DUP8 ADD PUSH2 0xC98 JUMP JUMPDEST SWAP3 POP POP PUSH1 0x40 DUP5 ADD CALLDATALOAD PUSH8 0xFFFFFFFFFFFFFFFF DUP2 GT ISZERO PUSH2 0xD83 JUMPI PUSH1 0x0 DUP1 REVERT JUMPDEST PUSH2 0xD8F DUP7 DUP3 DUP8 ADD PUSH2 0xC98 JUMP JUMPDEST SWAP2 POP POP SWAP3 POP SWAP3 POP SWAP3 JUMP JUMPDEST PUSH1 0x0 DUP1 PUSH1 0x0 PUSH1 0x60 DUP5 DUP7 SUB SLT ISZERO PUSH2 0xDAE JUMPI PUSH1 0x0 DUP1 REVERT JUMPDEST PUSH1 0x0 PUSH2 0xDBC DUP7 DUP3 DUP8 ADD PUSH2 0xCEE JUMP JUMPDEST SWAP4 POP POP PUSH1 0x20 PUSH2 0xDCD DUP7 DUP3 DUP8 ADD PUSH2 0xC70 JUMP JUMPDEST SWAP3 POP POP PUSH1 0x40 PUSH2 0xDDE DUP7 DUP3 DUP8 ADD PUSH2 0xC84 JUMP JUMPDEST SWAP2 POP POP SWAP3 POP SWAP3 POP SWAP3 JUMP JUMPDEST PUSH2 0xDF1 DUP2 PUSH2 0x1264 JUMP JUMPDEST DUP3 MSTORE POP POP JUMP JUMPDEST PUSH1 0x0 PUSH2 0xE02 DUP3 PUSH2 0x1236 JUMP JUMPDEST DUP1 DUP5 MSTORE PUSH1 0x20 DUP5 ADD SWAP4 POP DUP4 PUSH1 0x20 DUP3 MUL DUP6 ADD PUSH2 0xE1B DUP6 PUSH2 0x1217 JUMP JUMPDEST PUSH1 0x0 JUMPDEST DUP5 DUP2 LT ISZERO PUSH2 0xE54 JUMPI DUP4 DUP4 SUB DUP9 MSTORE PUSH2 0xE36 DUP4 DUP4 MLOAD PUSH2 0xF75 JUMP JUMPDEST SWAP3 POP PUSH2 0xE41 DUP3 PUSH2 0x1257 JUMP JUMPDEST SWAP2 POP PUSH1 0x20 DUP9 ADD SWAP8 POP PUSH1 0x1 DUP2 ADD SWAP1 POP PUSH2 0xE1E JUMP JUMPDEST POP DUP2 SWAP7 POP DUP7 SWAP5 POP POP POP POP POP SWAP3 SWAP2 POP POP JUMP JUMPDEST PUSH2 0xE6E DUP2 PUSH2 0x1276 JUMP JUMPDEST DUP3 MSTORE POP POP JUMP JUMPDEST PUSH2 0xE7D DUP2 PUSH2 0x1282 JUMP JUMPDEST DUP3 MSTORE POP POP JUMP JUMPDEST PUSH1 0x0 PUSH2 0xE8E DUP3 PUSH2 0x124C JUMP JUMPDEST DUP1 DUP5 MSTORE PUSH2 0xEA2 DUP2 PUSH1 0x20 DUP7 ADD PUSH1 0x20 DUP7 ADD PUSH2 0x12ED JUMP JUMPDEST PUSH2 0xEAB DUP2 PUSH2 0x1320 JUMP JUMPDEST PUSH1 0x20 DUP6 ADD ADD SWAP2 POP POP SWAP3 SWAP2 POP POP JUMP JUMPDEST PUSH1 0x0 PUSH2 0xEC4 DUP3 PUSH2 0x1241 JUMP JUMPDEST DUP1 DUP5 MSTORE PUSH2 0xED8 DUP2 PUSH1 0x20 DUP7 ADD PUSH1 0x20 DUP7 ADD PUSH2 0x12ED JUMP JUMPDEST PUSH2 0xEE1 DUP2 PUSH2 0x1320 JUMP JUMPDEST PUSH1 0x20 DUP6 ADD ADD SWAP2 POP POP SWAP3 SWAP2 POP POP JUMP JUMPDEST PUSH1 0x0 DUP2 SLOAD PUSH1 0x1 DUP2 AND PUSH1 0x0 DUP2 EQ PUSH2 0xF0C JUMPI PUSH1 0x1 DUP2 EQ PUSH2 0xF2C JUMPI PUSH2 0xF6D JUMP JUMPDEST PUSH1 0x7F PUSH1 0x2 DUP4 DIV AND DUP1 DUP7 MSTORE PUSH1 0xFF NOT DUP4 AND PUSH1 0x20 DUP8 ADD MSTORE PUSH1 0x40 DUP7 ADD SWAP4 POP POP PUSH2 0xF6D JUMP JUMPDEST PUSH1 0x2 DUP3 DIV DUP1 DUP7 MSTORE PUSH1 0x20 DUP7 ADD SWAP6 POP PUSH2 0xF42 DUP6 PUSH2 0x1224 JUMP JUMPDEST PUSH1 0x0 JUMPDEST DUP3 DUP2 LT ISZERO PUSH2 0xF64 JUMPI DUP2 SLOAD DUP2 DUP10 ADD MSTORE PUSH1 0x1 DUP3 ADD SWAP2 POP PUSH1 0x20 DUP2 ADD SWAP1 POP PUSH2 0xF45 JUMP JUMPDEST DUP1 DUP9 ADD SWAP6 POP POP POP POP JUMPDEST POP POP SWAP3 SWAP2 POP POP JUMP JUMPDEST PUSH1 0x0 PUSH2 0x140 DUP4 ADD PUSH1 0x0 DUP4 ADD MLOAD PUSH2 0xF8E PUSH1 0x0 DUP7 ADD DUP3 PUSH2 0xDE8 JUMP JUMPDEST POP PUSH1 0x20 DUP4 ADD MLOAD PUSH2 0xFA1 PUSH1 0x20 DUP7 ADD DUP3 PUSH2 0xDE8 JUMP JUMPDEST POP PUSH1 0x40 DUP4 ADD MLOAD DUP5 DUP3 SUB PUSH1 0x40 DUP7 ADD MSTORE PUSH2 0xFB9 DUP3 DUP3 PUSH2 0xEB9 JUMP JUMPDEST SWAP2 POP POP PUSH1 0x60 DUP4 ADD MLOAD DUP5 DUP3 SUB PUSH1 0x60 DUP7 ADD MSTORE PUSH2 0xFD3 DUP3 DUP3 PUSH2 0xEB9 JUMP JUMPDEST SWAP2 POP POP PUSH1 0x80 DUP4 ADD MLOAD PUSH2 0xFE8 PUSH1 0x80 DUP7 ADD DUP3 PUSH2 0xE65 JUMP JUMPDEST POP PUSH1 0xA0 DUP4 ADD MLOAD PUSH2 0xFFB PUSH1 0xA0 DUP7 ADD DUP3 PUSH2 0xE65 JUMP JUMPDEST POP PUSH1 0xC0 DUP4 ADD MLOAD DUP5 DUP3 SUB PUSH1 0xC0 DUP7 ADD MSTORE PUSH2 0x1013 DUP3 DUP3 PUSH2 0xEB9 JUMP JUMPDEST SWAP2 POP POP PUSH1 0xE0 DUP4 ADD MLOAD PUSH2 0x1028 PUSH1 0xE0 DUP7 ADD DUP3 PUSH2 0x105D JUMP JUMPDEST POP PUSH2 0x100 DUP4 ADD MLOAD PUSH2 0x103D PUSH2 0x100 DUP7 ADD DUP3 PUSH2 0xE65 JUMP JUMPDEST POP PUSH2 0x120 DUP4 ADD MLOAD PUSH2 0x1052 PUSH2 0x120 DUP7 ADD DUP3 PUSH2 0x105D JUMP JUMPDEST POP DUP1 SWAP2 POP POP SWAP3 SWAP2 POP POP JUMP JUMPDEST PUSH2 0x1066 DUP2 PUSH2 0x12AC JUMP JUMPDEST DUP3 MSTORE POP POP JUMP JUMPDEST PUSH1 0x0 PUSH2 0x100 DUP3 ADD SWAP1 POP PUSH2 0x1082 PUSH1 0x0 DUP4 ADD DUP12 PUSH2 0xDE8 JUMP JUMPDEST PUSH2 0x108F PUSH1 0x20 DUP4 ADD DUP11 PUSH2 0xDE8 JUMP JUMPDEST DUP2 DUP2 SUB PUSH1 0x40 DUP4 ADD MSTORE PUSH2 0x10A1 DUP2 DUP10 PUSH2 0xE83 JUMP JUMPDEST SWAP1 POP PUSH2 0x10B0 PUSH1 0x60 DUP4 ADD DUP9 PUSH2 0xE74 JUMP JUMPDEST DUP2 DUP2 SUB PUSH1 0x80 DUP4 ADD MSTORE PUSH2 0x10C2 DUP2 DUP8 PUSH2 0xE83 JUMP JUMPDEST SWAP1 POP DUP2 DUP2 SUB PUSH1 0xA0 DUP4 ADD MSTORE PUSH2 0x10D6 DUP2 DUP7 PUSH2 0xE83 JUMP JUMPDEST SWAP1 POP PUSH2 0x10E5 PUSH1 0xC0 DUP4 ADD DUP6 PUSH2 0xE74 JUMP JUMPDEST DUP2 DUP2 SUB PUSH1 0xE0 DUP4 ADD MSTORE PUSH2 0x10F7 DUP2 DUP5 PUSH2 0xDF7 JUMP JUMPDEST SWAP1 POP SWAP10 SWAP9 POP POP POP POP POP POP POP POP POP JUMP JUMPDEST PUSH1 0x0 PUSH2 0x140 DUP3 ADD SWAP1 POP PUSH2 0x111C PUSH1 0x0 DUP4 ADD DUP14 PUSH2 0xDE8 JUMP JUMPDEST PUSH2 0x1129 PUSH1 0x20 DUP4 ADD DUP13 PUSH2 0xDE8 JUMP JUMPDEST DUP2 DUP2 SUB PUSH1 0x40 DUP4 ADD MSTORE PUSH2 0x113B DUP2 DUP12 PUSH2 0xE83 JUMP JUMPDEST SWAP1 POP DUP2 DUP2 SUB PUSH1 0x60 DUP4 ADD MSTORE PUSH2 0x114F DUP2 DUP11 PUSH2 0xE83 JUMP JUMPDEST SWAP1 POP DUP2 DUP2 SUB PUSH1 0x80 DUP4 ADD MSTORE PUSH2 0x1163 DUP2 DUP10 PUSH2 0xE83 JUMP JUMPDEST SWAP1 POP PUSH2 0x1172 PUSH1 0xA0 DUP4 ADD DUP9 PUSH2 0xE65 JUMP JUMPDEST PUSH2 0x117F PUSH1 0xC0 DUP4 ADD DUP8 PUSH2 0xE65 JUMP JUMPDEST PUSH2 0x118C PUSH1 0xE0 DUP4 ADD DUP7 PUSH2 0x105D JUMP JUMPDEST PUSH2 0x119A PUSH2 0x100 DUP4 ADD DUP6 PUSH2 0xE74 JUMP JUMPDEST DUP2 DUP2 SUB PUSH2 0x120 DUP4 ADD MSTORE PUSH2 0x11AD DUP2 DUP5 PUSH2 0xEEF JUMP JUMPDEST SWAP1 POP SWAP12 SWAP11 POP POP POP POP POP POP POP POP POP POP POP JUMP JUMPDEST PUSH1 0x0 PUSH1 0x40 MLOAD SWAP1 POP DUP2 DUP2 ADD DUP2 DUP2 LT PUSH8 0xFFFFFFFFFFFFFFFF DUP3 GT OR ISZERO PUSH2 0x11E1 JUMPI PUSH1 0x0 DUP1 REVERT JUMPDEST DUP1 PUSH1 0x40 MSTORE POP SWAP2 SWAP1 POP JUMP JUMPDEST PUSH1 0x0 PUSH8 0xFFFFFFFFFFFFFFFF DUP3 GT ISZERO PUSH2 0x1202 JUMPI PUSH1 0x0 DUP1 REVERT JUMPDEST PUSH1 0x1F NOT PUSH1 0x1F DUP4 ADD AND SWAP1 POP PUSH1 0x20 DUP2 ADD SWAP1 POP SWAP2 SWAP1 POP JUMP JUMPDEST PUSH1 0x0 PUSH1 0x20 DUP3 ADD SWAP1 POP SWAP2 SWAP1 POP JUMP JUMPDEST PUSH1 0x0 DUP2 PUSH1 0x0 MSTORE PUSH1 0x20 PUSH1 0x0 KECCAK256 SWAP1 POP SWAP2 SWAP1 POP JUMP JUMPDEST PUSH1 0x0 DUP2 MLOAD SWAP1 POP SWAP2 SWAP1 POP JUMP JUMPDEST PUSH1 0x0 DUP2 MLOAD SWAP1 POP SWAP2 SWAP1 POP JUMP JUMPDEST PUSH1 0x0 DUP2 MLOAD SWAP1 POP SWAP2 SWAP1 POP JUMP JUMPDEST PUSH1 0x0 PUSH1 0x20 DUP3 ADD SWAP1 POP SWAP2 SWAP1 POP JUMP JUMPDEST PUSH1 0x0 PUSH2 0x126F DUP3 PUSH2 0x128C JUMP JUMPDEST SWAP1 POP SWAP2 SWAP1 POP JUMP JUMPDEST PUSH1 0x0 DUP2 ISZERO ISZERO SWAP1 POP SWAP2 SWAP1 POP JUMP JUMPDEST PUSH1 0x0 DUP2 SWAP1 POP SWAP2 SWAP1 POP JUMP JUMPDEST PUSH1 0x0 PUSH20 0xFFFFFFFFFFFFFFFFFFFFFFFFFFFFFFFFFFFFFFFF DUP3 AND SWAP1 POP SWAP2 SWAP1 POP JUMP JUMPDEST PUSH1 0x0 DUP2 SWAP1 POP SWAP2 SWAP1 POP JUMP JUMPDEST PUSH1 0x0 PUSH2 0x12C1 DUP3 PUSH2 0x128C JUMP JUMPDEST SWAP1 POP SWAP2 SWAP1 POP JUMP JUMPDEST PUSH1 0x0 DUP2 ISZERO ISZERO SWAP1 POP SWAP2 SWAP1 POP JUMP JUMPDEST PUSH1 0x0 DUP2 SWAP1 POP SWAP2 SWAP1 POP JUMP JUMPDEST DUP3 DUP2 DUP4 CALLDATACOPY PUSH1 0x0 DUP4 DUP4 ADD MSTORE POP POP POP JUMP JUMPDEST PUSH1 0x0 JUMPDEST DUP4 DUP2 LT ISZERO PUSH2 0x130B JUMPI DUP1 DUP3 ADD MLOAD DUP2 DUP5 ADD MSTORE PUSH1 0x20 DUP2 ADD SWAP1 POP PUSH2 0x12F0 JUMP JUMPDEST DUP4 DUP2 GT ISZERO PUSH2 0x131A JUMPI PUSH1 0x0 DUP5 DUP5 ADD MSTORE JUMPDEST POP POP POP POP JUMP JUMPDEST PUSH1 0x0 PUSH1 0x1F NOT PUSH1 0x1F DUP4 ADD AND SWAP1 POP SWAP2 SWAP1 POP JUMP INVALID LOG2 PUSH6 0x627A7A723058 KECCAK256 0xdc 0xcf PUSH3 0x79354F DUP9 MSTORE MLOAD 0xd3 PUSH10 0x8E7CB6E7322545349EA DUP5 0x2a PUSH18 0x369D26265BE9AA436C6578706572696D656E PUSH21 0x616CF5003700000000000000000000000000000000 "
    },
    "gasEstimates": {
      "creation": {
        "codeDepositCost": "994200",
        "executionCost": "infinite",
        "totalCost": "infinite"
      },
      "external": {
        "applyClaim(string,string,string)": "infinite",
        "finalizeRequest(uint256,address,bool)": "42943",
        "getData()": "infinite"
      }
    },
    "methodIdentifiers": {
      "applyClaim(string,string,string)": "83bffb88",
      "finalizeRequest(uint256,address,bool)": "72102d18",
      "getData()": "3bc5de30"
    }
  },
  "userdoc": {
    "methods": {}
  }
}