{
  "abi": [
    {
      "constant": false,
      "inputs": [
        {
          "name": "add",
          "type": "address"
        }
      ],
      "name": "setDoctorAddress",
      "outputs": [
        {
          "name": "",
          "type": "bool"
        }
      ],
      "payable": false,
      "stateMutability": "nonpayable",
      "type": "function"
    },
    {
      "constant": false,
      "inputs": [
        {
          "name": "add",
          "type": "address"
        }
      ],
      "name": "setAddressMappingAddress",
      "outputs": [
        {
          "name": "",
          "type": "bool"
        }
      ],
      "payable": false,
      "stateMutability": "nonpayable",
      "type": "function"
    },
    {
      "constant": true,
      "inputs": [],
      "name": "getAddressMappingAddress",
      "outputs": [
        {
          "name": "",
          "type": "address"
        }
      ],
      "payable": false,
      "stateMutability": "view",
      "type": "function"
    },
    {
      "constant": true,
      "inputs": [],
      "name": "getDoctorAddress",
      "outputs": [
        {
          "name": "",
          "type": "address"
        }
      ],
      "payable": false,
      "stateMutability": "view",
      "type": "function"
    }
  ],
  "devdoc": {
    "methods": {}
  },
  "evm": {
    "assembly": "    /* \"background.sol\":37:588  contract Mapping {\r... */\n  mstore(0x40, 0x80)\n  callvalue\n    /* \"--CODEGEN--\":8:17   */\n  dup1\n    /* \"--CODEGEN--\":5:7   */\n  iszero\n  tag_1\n  jumpi\n    /* \"--CODEGEN--\":30:31   */\n  0x00\n    /* \"--CODEGEN--\":27:28   */\n  dup1\n    /* \"--CODEGEN--\":20:32   */\n  revert\n    /* \"--CODEGEN--\":5:7   */\ntag_1:\n    /* \"background.sol\":37:588  contract Mapping {\r... */\n  pop\n  dataSize(sub_0)\n  dup1\n  dataOffset(sub_0)\n  0x00\n  codecopy\n  0x00\n  return\nstop\n\nsub_0: assembly {\n        /* \"background.sol\":37:588  contract Mapping {\r... */\n      mstore(0x40, 0x80)\n      callvalue\n        /* \"--CODEGEN--\":8:17   */\n      dup1\n        /* \"--CODEGEN--\":5:7   */\n      iszero\n      tag_1\n      jumpi\n        /* \"--CODEGEN--\":30:31   */\n      0x00\n        /* \"--CODEGEN--\":27:28   */\n      dup1\n        /* \"--CODEGEN--\":20:32   */\n      revert\n        /* \"--CODEGEN--\":5:7   */\n    tag_1:\n        /* \"background.sol\":37:588  contract Mapping {\r... */\n      pop\n      jumpi(tag_2, lt(calldatasize, 0x04))\n      calldataload(0x00)\n      0x0100000000000000000000000000000000000000000000000000000000\n      swap1\n      div\n      dup1\n      0x1e53c859\n      eq\n      tag_3\n      jumpi\n      dup1\n      0x59db7d85\n      eq\n      tag_4\n      jumpi\n      dup1\n      0xde96b851\n      eq\n      tag_5\n      jumpi\n      dup1\n      0xff76a739\n      eq\n      tag_6\n      jumpi\n    tag_2:\n      0x00\n      dup1\n      revert\n        /* \"background.sol\":378:476  function setDoctorAddress(address add) public returns(bool) {\r... */\n    tag_3:\n      tag_7\n      0x04\n      dup1\n      calldatasize\n      sub\n      tag_8\n      swap2\n      swap1\n      dup2\n      add\n      swap1\n      jump(tag_9)\n    tag_8:\n      tag_10\n      jump\t// in\n    tag_7:\n      mload(0x40)\n      tag_11\n      swap2\n      swap1\n      jump(tag_12)\n    tag_11:\n      mload(0x40)\n      dup1\n      swap2\n      sub\n      swap1\n      return\n        /* \"background.sol\":131:245  function setAddressMappingAddress(address add) public returns(bool) {\r... */\n    tag_4:\n      tag_13\n      0x04\n      dup1\n      calldatasize\n      sub\n      tag_14\n      swap2\n      swap1\n      dup2\n      add\n      swap1\n      jump(tag_9)\n    tag_14:\n      tag_15\n      jump\t// in\n    tag_13:\n      mload(0x40)\n      tag_16\n      swap2\n      swap1\n      jump(tag_12)\n    tag_16:\n      mload(0x40)\n      dup1\n      swap2\n      sub\n      swap1\n      return\n        /* \"background.sol\":257:370  function getAddressMappingAddress() public view returns(address) {\r... */\n    tag_5:\n      tag_17\n      tag_18\n      jump\t// in\n    tag_17:\n      mload(0x40)\n      tag_19\n      swap2\n      swap1\n      jump(tag_20)\n    tag_19:\n      mload(0x40)\n      dup1\n      swap2\n      sub\n      swap1\n      return\n        /* \"background.sol\":488:585  function getDoctorAddress() public view returns(address) {\r... */\n    tag_6:\n      tag_21\n      tag_22\n      jump\t// in\n    tag_21:\n      mload(0x40)\n      tag_23\n      swap2\n      swap1\n      jump(tag_20)\n    tag_23:\n      mload(0x40)\n      dup1\n      swap2\n      sub\n      swap1\n      return\n        /* \"background.sol\":378:476  function setDoctorAddress(address add) public returns(bool) {\r... */\n    tag_10:\n        /* \"background.sol\":432:436  bool */\n      0x00\n        /* \"background.sol\":465:468  add */\n      dup2\n        /* \"background.sol\":449:462  doctorAddress */\n      0x01\n      0x00\n        /* \"background.sol\":449:468  doctorAddress = add */\n      0x0100\n      exp\n      dup2\n      sload\n      dup2\n      0xffffffffffffffffffffffffffffffffffffffff\n      mul\n      not\n      and\n      swap1\n      dup4\n      0xffffffffffffffffffffffffffffffffffffffff\n      and\n      mul\n      or\n      swap1\n      sstore\n      pop\n        /* \"background.sol\":378:476  function setDoctorAddress(address add) public returns(bool) {\r... */\n      swap2\n      swap1\n      pop\n      jump\t// out\n        /* \"background.sol\":131:245  function setAddressMappingAddress(address add) public returns(bool) {\r... */\n    tag_15:\n        /* \"background.sol\":193:197  bool */\n      0x00\n        /* \"background.sol\":234:237  add */\n      dup2\n        /* \"background.sol\":210:231  addressMappingAddress */\n      0x00\n      dup1\n        /* \"background.sol\":210:237  addressMappingAddress = add */\n      0x0100\n      exp\n      dup2\n      sload\n      dup2\n      0xffffffffffffffffffffffffffffffffffffffff\n      mul\n      not\n      and\n      swap1\n      dup4\n      0xffffffffffffffffffffffffffffffffffffffff\n      and\n      mul\n      or\n      swap1\n      sstore\n      pop\n        /* \"background.sol\":131:245  function setAddressMappingAddress(address add) public returns(bool) {\r... */\n      swap2\n      swap1\n      pop\n      jump\t// out\n        /* \"background.sol\":257:370  function getAddressMappingAddress() public view returns(address) {\r... */\n    tag_18:\n        /* \"background.sol\":313:320  address */\n      0x00\n        /* \"background.sol\":340:361  addressMappingAddress */\n      dup1\n      0x00\n      swap1\n      sload\n      swap1\n      0x0100\n      exp\n      swap1\n      div\n      0xffffffffffffffffffffffffffffffffffffffff\n      and\n        /* \"background.sol\":333:362  return(addressMappingAddress) */\n      swap1\n      pop\n        /* \"background.sol\":257:370  function getAddressMappingAddress() public view returns(address) {\r... */\n      swap1\n      jump\t// out\n        /* \"background.sol\":488:585  function getDoctorAddress() public view returns(address) {\r... */\n    tag_22:\n        /* \"background.sol\":536:543  address */\n      0x00\n        /* \"background.sol\":563:576  doctorAddress */\n      0x01\n      0x00\n      swap1\n      sload\n      swap1\n      0x0100\n      exp\n      swap1\n      div\n      0xffffffffffffffffffffffffffffffffffffffff\n      and\n        /* \"background.sol\":556:577  return(doctorAddress) */\n      swap1\n      pop\n        /* \"background.sol\":488:585  function getDoctorAddress() public view returns(address) {\r... */\n      swap1\n      jump\t// out\n        /* \"--CODEGEN--\":5:123   */\n    tag_29:\n      0x00\n        /* \"--CODEGEN--\":72:118   */\n      tag_30\n        /* \"--CODEGEN--\":110:116   */\n      dup3\n        /* \"--CODEGEN--\":97:117   */\n      calldataload\n        /* \"--CODEGEN--\":72:118   */\n      jump(tag_31)\n    tag_30:\n        /* \"--CODEGEN--\":63:118   */\n      swap1\n      pop\n        /* \"--CODEGEN--\":57:123   */\n      swap3\n      swap2\n      pop\n      pop\n      jump\n        /* \"--CODEGEN--\":130:371   */\n    tag_9:\n      0x00\n        /* \"--CODEGEN--\":234:236   */\n      0x20\n        /* \"--CODEGEN--\":222:231   */\n      dup3\n        /* \"--CODEGEN--\":213:220   */\n      dup5\n        /* \"--CODEGEN--\":209:232   */\n      sub\n        /* \"--CODEGEN--\":205:237   */\n      slt\n        /* \"--CODEGEN--\":202:204   */\n      iszero\n      tag_33\n      jumpi\n        /* \"--CODEGEN--\":250:251   */\n      0x00\n        /* \"--CODEGEN--\":247:248   */\n      dup1\n        /* \"--CODEGEN--\":240:252   */\n      revert\n        /* \"--CODEGEN--\":202:204   */\n    tag_33:\n        /* \"--CODEGEN--\":285:286   */\n      0x00\n        /* \"--CODEGEN--\":302:355   */\n      tag_34\n        /* \"--CODEGEN--\":347:354   */\n      dup5\n        /* \"--CODEGEN--\":338:344   */\n      dup3\n        /* \"--CODEGEN--\":327:336   */\n      dup6\n        /* \"--CODEGEN--\":323:345   */\n      add\n        /* \"--CODEGEN--\":302:355   */\n      jump(tag_29)\n    tag_34:\n        /* \"--CODEGEN--\":292:355   */\n      swap2\n      pop\n        /* \"--CODEGEN--\":264:361   */\n      pop\n        /* \"--CODEGEN--\":196:371   */\n      swap3\n      swap2\n      pop\n      pop\n      jump\n        /* \"--CODEGEN--\":378:488   */\n    tag_36:\n        /* \"--CODEGEN--\":451:482   */\n      tag_37\n        /* \"--CODEGEN--\":476:481   */\n      dup2\n        /* \"--CODEGEN--\":451:482   */\n      jump(tag_38)\n    tag_37:\n        /* \"--CODEGEN--\":446:449   */\n      dup3\n        /* \"--CODEGEN--\":439:483   */\n      mstore\n        /* \"--CODEGEN--\":433:488   */\n      pop\n      pop\n      jump\n        /* \"--CODEGEN--\":495:596   */\n    tag_40:\n        /* \"--CODEGEN--\":562:590   */\n      tag_41\n        /* \"--CODEGEN--\":584:589   */\n      dup2\n        /* \"--CODEGEN--\":562:590   */\n      jump(tag_42)\n    tag_41:\n        /* \"--CODEGEN--\":557:560   */\n      dup3\n        /* \"--CODEGEN--\":550:591   */\n      mstore\n        /* \"--CODEGEN--\":544:596   */\n      pop\n      pop\n      jump\n        /* \"--CODEGEN--\":603:796   */\n    tag_20:\n      0x00\n        /* \"--CODEGEN--\":711:713   */\n      0x20\n        /* \"--CODEGEN--\":700:709   */\n      dup3\n        /* \"--CODEGEN--\":696:714   */\n      add\n        /* \"--CODEGEN--\":688:714   */\n      swap1\n      pop\n        /* \"--CODEGEN--\":725:786   */\n      tag_44\n        /* \"--CODEGEN--\":783:784   */\n      0x00\n        /* \"--CODEGEN--\":772:781   */\n      dup4\n        /* \"--CODEGEN--\":768:785   */\n      add\n        /* \"--CODEGEN--\":759:765   */\n      dup5\n        /* \"--CODEGEN--\":725:786   */\n      jump(tag_36)\n    tag_44:\n        /* \"--CODEGEN--\":682:796   */\n      swap3\n      swap2\n      pop\n      pop\n      jump\n        /* \"--CODEGEN--\":803:984   */\n    tag_12:\n      0x00\n        /* \"--CODEGEN--\":905:907   */\n      0x20\n        /* \"--CODEGEN--\":894:903   */\n      dup3\n        /* \"--CODEGEN--\":890:908   */\n      add\n        /* \"--CODEGEN--\":882:908   */\n      swap1\n      pop\n        /* \"--CODEGEN--\":919:974   */\n      tag_46\n        /* \"--CODEGEN--\":971:972   */\n      0x00\n        /* \"--CODEGEN--\":960:969   */\n      dup4\n        /* \"--CODEGEN--\":956:973   */\n      add\n        /* \"--CODEGEN--\":947:953   */\n      dup5\n        /* \"--CODEGEN--\":919:974   */\n      jump(tag_40)\n    tag_46:\n        /* \"--CODEGEN--\":876:984   */\n      swap3\n      swap2\n      pop\n      pop\n      jump\n        /* \"--CODEGEN--\":991:1096   */\n    tag_38:\n      0x00\n        /* \"--CODEGEN--\":1060:1091   */\n      tag_48\n        /* \"--CODEGEN--\":1085:1090   */\n      dup3\n        /* \"--CODEGEN--\":1060:1091   */\n      jump(tag_49)\n    tag_48:\n        /* \"--CODEGEN--\":1049:1091   */\n      swap1\n      pop\n        /* \"--CODEGEN--\":1043:1096   */\n      swap2\n      swap1\n      pop\n      jump\n        /* \"--CODEGEN--\":1103:1195   */\n    tag_42:\n      0x00\n        /* \"--CODEGEN--\":1183:1188   */\n      dup2\n        /* \"--CODEGEN--\":1176:1189   */\n      iszero\n        /* \"--CODEGEN--\":1169:1190   */\n      iszero\n        /* \"--CODEGEN--\":1158:1190   */\n      swap1\n      pop\n        /* \"--CODEGEN--\":1152:1195   */\n      swap2\n      swap1\n      pop\n      jump\n        /* \"--CODEGEN--\":1202:1330   */\n    tag_49:\n      0x00\n        /* \"--CODEGEN--\":1282:1324   */\n      0xffffffffffffffffffffffffffffffffffffffff\n        /* \"--CODEGEN--\":1275:1280   */\n      dup3\n        /* \"--CODEGEN--\":1271:1325   */\n      and\n        /* \"--CODEGEN--\":1260:1325   */\n      swap1\n      pop\n        /* \"--CODEGEN--\":1254:1330   */\n      swap2\n      swap1\n      pop\n      jump\n        /* \"--CODEGEN--\":1337:1442   */\n    tag_31:\n      0x00\n        /* \"--CODEGEN--\":1406:1437   */\n      tag_53\n        /* \"--CODEGEN--\":1431:1436   */\n      dup3\n        /* \"--CODEGEN--\":1406:1437   */\n      jump(tag_49)\n    tag_53:\n        /* \"--CODEGEN--\":1395:1437   */\n      swap1\n      pop\n        /* \"--CODEGEN--\":1389:1442   */\n      swap2\n      swap1\n      pop\n      jump\n\n    auxdata: 0xa265627a7a72305820c7ad061cf45bdbc18387d7adb9083f1256a3e066a1a0fdfc340815bdc49326c76c6578706572696d656e74616cf50037\n}\n",
    "bytecode": {
      "linkReferences": {},
      "object": "608060405234801561001057600080fd5b50610307806100206000396000f3fe608060405234801561001057600080fd5b5060043610610069576000357c0100000000000000000000000000000000000000000000000000000000900480631e53c8591461006e57806359db7d851461009e578063de96b851146100ce578063ff76a739146100ec575b600080fd5b61008860048036036100839190810190610200565b61010a565b6040516100959190610262565b60405180910390f35b6100b860048036036100b39190810190610200565b610152565b6040516100c59190610262565b60405180910390f35b6100d6610199565b6040516100e39190610247565b60405180910390f35b6100f46101c2565b6040516101019190610247565b60405180910390f35b600081600160006101000a81548173ffffffffffffffffffffffffffffffffffffffff021916908373ffffffffffffffffffffffffffffffffffffffff160217905550919050565b6000816000806101000a81548173ffffffffffffffffffffffffffffffffffffffff021916908373ffffffffffffffffffffffffffffffffffffffff160217905550919050565b60008060009054906101000a900473ffffffffffffffffffffffffffffffffffffffff16905090565b6000600160009054906101000a900473ffffffffffffffffffffffffffffffffffffffff16905090565b60006101f882356102bb565b905092915050565b60006020828403121561021257600080fd5b6000610220848285016101ec565b91505092915050565b6102328161027d565b82525050565b6102418161028f565b82525050565b600060208201905061025c6000830184610229565b92915050565b60006020820190506102776000830184610238565b92915050565b60006102888261029b565b9050919050565b60008115159050919050565b600073ffffffffffffffffffffffffffffffffffffffff82169050919050565b60006102c68261029b565b905091905056fea265627a7a72305820c7ad061cf45bdbc18387d7adb9083f1256a3e066a1a0fdfc340815bdc49326c76c6578706572696d656e74616cf50037",
      "opcodes": "PUSH1 0x80 PUSH1 0x40 MSTORE CALLVALUE DUP1 ISZERO PUSH2 0x10 JUMPI PUSH1 0x0 DUP1 REVERT JUMPDEST POP PUSH2 0x307 DUP1 PUSH2 0x20 PUSH1 0x0 CODECOPY PUSH1 0x0 RETURN INVALID PUSH1 0x80 PUSH1 0x40 MSTORE CALLVALUE DUP1 ISZERO PUSH2 0x10 JUMPI PUSH1 0x0 DUP1 REVERT JUMPDEST POP PUSH1 0x4 CALLDATASIZE LT PUSH2 0x69 JUMPI PUSH1 0x0 CALLDATALOAD PUSH29 0x100000000000000000000000000000000000000000000000000000000 SWAP1 DIV DUP1 PUSH4 0x1E53C859 EQ PUSH2 0x6E JUMPI DUP1 PUSH4 0x59DB7D85 EQ PUSH2 0x9E JUMPI DUP1 PUSH4 0xDE96B851 EQ PUSH2 0xCE JUMPI DUP1 PUSH4 0xFF76A739 EQ PUSH2 0xEC JUMPI JUMPDEST PUSH1 0x0 DUP1 REVERT JUMPDEST PUSH2 0x88 PUSH1 0x4 DUP1 CALLDATASIZE SUB PUSH2 0x83 SWAP2 SWAP1 DUP2 ADD SWAP1 PUSH2 0x200 JUMP JUMPDEST PUSH2 0x10A JUMP JUMPDEST PUSH1 0x40 MLOAD PUSH2 0x95 SWAP2 SWAP1 PUSH2 0x262 JUMP JUMPDEST PUSH1 0x40 MLOAD DUP1 SWAP2 SUB SWAP1 RETURN JUMPDEST PUSH2 0xB8 PUSH1 0x4 DUP1 CALLDATASIZE SUB PUSH2 0xB3 SWAP2 SWAP1 DUP2 ADD SWAP1 PUSH2 0x200 JUMP JUMPDEST PUSH2 0x152 JUMP JUMPDEST PUSH1 0x40 MLOAD PUSH2 0xC5 SWAP2 SWAP1 PUSH2 0x262 JUMP JUMPDEST PUSH1 0x40 MLOAD DUP1 SWAP2 SUB SWAP1 RETURN JUMPDEST PUSH2 0xD6 PUSH2 0x199 JUMP JUMPDEST PUSH1 0x40 MLOAD PUSH2 0xE3 SWAP2 SWAP1 PUSH2 0x247 JUMP JUMPDEST PUSH1 0x40 MLOAD DUP1 SWAP2 SUB SWAP1 RETURN JUMPDEST PUSH2 0xF4 PUSH2 0x1C2 JUMP JUMPDEST PUSH1 0x40 MLOAD PUSH2 0x101 SWAP2 SWAP1 PUSH2 0x247 JUMP JUMPDEST PUSH1 0x40 MLOAD DUP1 SWAP2 SUB SWAP1 RETURN JUMPDEST PUSH1 0x0 DUP2 PUSH1 0x1 PUSH1 0x0 PUSH2 0x100 EXP DUP2 SLOAD DUP2 PUSH20 0xFFFFFFFFFFFFFFFFFFFFFFFFFFFFFFFFFFFFFFFF MUL NOT AND SWAP1 DUP4 PUSH20 0xFFFFFFFFFFFFFFFFFFFFFFFFFFFFFFFFFFFFFFFF AND MUL OR SWAP1 SSTORE POP SWAP2 SWAP1 POP JUMP JUMPDEST PUSH1 0x0 DUP2 PUSH1 0x0 DUP1 PUSH2 0x100 EXP DUP2 SLOAD DUP2 PUSH20 0xFFFFFFFFFFFFFFFFFFFFFFFFFFFFFFFFFFFFFFFF MUL NOT AND SWAP1 DUP4 PUSH20 0xFFFFFFFFFFFFFFFFFFFFFFFFFFFFFFFFFFFFFFFF AND MUL OR SWAP1 SSTORE POP SWAP2 SWAP1 POP JUMP JUMPDEST PUSH1 0x0 DUP1 PUSH1 0x0 SWAP1 SLOAD SWAP1 PUSH2 0x100 EXP SWAP1 DIV PUSH20 0xFFFFFFFFFFFFFFFFFFFFFFFFFFFFFFFFFFFFFFFF AND SWAP1 POP SWAP1 JUMP JUMPDEST PUSH1 0x0 PUSH1 0x1 PUSH1 0x0 SWAP1 SLOAD SWAP1 PUSH2 0x100 EXP SWAP1 DIV PUSH20 0xFFFFFFFFFFFFFFFFFFFFFFFFFFFFFFFFFFFFFFFF AND SWAP1 POP SWAP1 JUMP JUMPDEST PUSH1 0x0 PUSH2 0x1F8 DUP3 CALLDATALOAD PUSH2 0x2BB JUMP JUMPDEST SWAP1 POP SWAP3 SWAP2 POP POP JUMP JUMPDEST PUSH1 0x0 PUSH1 0x20 DUP3 DUP5 SUB SLT ISZERO PUSH2 0x212 JUMPI PUSH1 0x0 DUP1 REVERT JUMPDEST PUSH1 0x0 PUSH2 0x220 DUP5 DUP3 DUP6 ADD PUSH2 0x1EC JUMP JUMPDEST SWAP2 POP POP SWAP3 SWAP2 POP POP JUMP JUMPDEST PUSH2 0x232 DUP2 PUSH2 0x27D JUMP JUMPDEST DUP3 MSTORE POP POP JUMP JUMPDEST PUSH2 0x241 DUP2 PUSH2 0x28F JUMP JUMPDEST DUP3 MSTORE POP POP JUMP JUMPDEST PUSH1 0x0 PUSH1 0x20 DUP3 ADD SWAP1 POP PUSH2 0x25C PUSH1 0x0 DUP4 ADD DUP5 PUSH2 0x229 JUMP JUMPDEST SWAP3 SWAP2 POP POP JUMP JUMPDEST PUSH1 0x0 PUSH1 0x20 DUP3 ADD SWAP1 POP PUSH2 0x277 PUSH1 0x0 DUP4 ADD DUP5 PUSH2 0x238 JUMP JUMPDEST SWAP3 SWAP2 POP POP JUMP JUMPDEST PUSH1 0x0 PUSH2 0x288 DUP3 PUSH2 0x29B JUMP JUMPDEST SWAP1 POP SWAP2 SWAP1 POP JUMP JUMPDEST PUSH1 0x0 DUP2 ISZERO ISZERO SWAP1 POP SWAP2 SWAP1 POP JUMP JUMPDEST PUSH1 0x0 PUSH20 0xFFFFFFFFFFFFFFFFFFFFFFFFFFFFFFFFFFFFFFFF DUP3 AND SWAP1 POP SWAP2 SWAP1 POP JUMP JUMPDEST PUSH1 0x0 PUSH2 0x2C6 DUP3 PUSH2 0x29B JUMP JUMPDEST SWAP1 POP SWAP2 SWAP1 POP JUMP INVALID LOG2 PUSH6 0x627A7A723058 KECCAK256 0xc7 0xad MOD SHR DELEGATECALL JUMPDEST 0xdb 0xc1 DUP4 DUP8 0xd7 0xad 0xb9 ADDMOD EXTCODEHASH SLT JUMP LOG3 0xe0 PUSH7 0xA1A0FDFC340815 0xbd 0xc4 SWAP4 0x26 0xc7 PUSH13 0x6578706572696D656E74616CF5 STOP CALLDATACOPY "
    },
    "gasEstimates": {
      "creation": {
        "codeDepositCost": "155000",
        "executionCost": "202",
        "totalCost": "155202"
      },
      "external": {
        "getAddressMappingAddress()": "649",
        "getDoctorAddress()": "671",
        "setAddressMappingAddress(address)": "20869",
        "setDoctorAddress(address)": "20847"
      }
    },
    "methodIdentifiers": {
      "getAddressMappingAddress()": "de96b851",
      "getDoctorAddress()": "ff76a739",
      "setAddressMappingAddress(address)": "59db7d85",
      "setDoctorAddress(address)": "1e53c859"
    }
  },
  "userdoc": {
    "methods": {}
  }
}